{
	"contracts/TravelRuleProgram.sol": {
		"TravelRuleProgram": {
			"abi": [
				{
					"anonymous": false,
					"inputs": [
						{
							"indexed": false,
							"internalType": "uint256",
							"name": "id",
							"type": "uint256"
						}
					],
					"name": "AddTransaction",
					"type": "event"
				},
				{
					"anonymous": false,
					"inputs": [
						{
							"indexed": true,
							"internalType": "address",
							"name": "previousOwner",
							"type": "address"
						},
						{
							"indexed": true,
							"internalType": "address",
							"name": "newOwner",
							"type": "address"
						}
					],
					"name": "OwnershipTransferred",
					"type": "event"
				},
				{
					"anonymous": false,
					"inputs": [
						{
							"indexed": false,
							"internalType": "uint256",
							"name": "transactionId",
							"type": "uint256"
						},
						{
							"indexed": false,
							"internalType": "uint8",
							"name": "amlForSender",
							"type": "uint8"
						},
						{
							"indexed": false,
							"internalType": "uint8",
							"name": "amlForReceiver",
							"type": "uint8"
						}
					],
					"name": "TransactionAmlStatusUpdated",
					"type": "event"
				},
				{
					"inputs": [
						{
							"internalType": "address",
							"name": "from",
							"type": "address"
						},
						{
							"internalType": "address",
							"name": "to",
							"type": "address"
						},
						{
							"internalType": "string",
							"name": "sendersData",
							"type": "string"
						}
					],
					"name": "addTransaction",
					"outputs": [
						{
							"internalType": "uint256",
							"name": "",
							"type": "uint256"
						}
					],
					"stateMutability": "nonpayable",
					"type": "function"
				},
				{
					"inputs": [],
					"name": "clear",
					"outputs": [],
					"stateMutability": "nonpayable",
					"type": "function"
				},
				{
					"inputs": [],
					"name": "getAllTransactions",
					"outputs": [
						{
							"components": [
								{
									"internalType": "uint256",
									"name": "id",
									"type": "uint256"
								},
								{
									"internalType": "address",
									"name": "from",
									"type": "address"
								},
								{
									"internalType": "address",
									"name": "to",
									"type": "address"
								},
								{
									"internalType": "string",
									"name": "sendersData",
									"type": "string"
								},
								{
									"internalType": "string",
									"name": "receiversData",
									"type": "string"
								},
								{
									"internalType": "uint8",
									"name": "amlForSender",
									"type": "uint8"
								},
								{
									"internalType": "uint8",
									"name": "amlForReceiver",
									"type": "uint8"
								}
							],
							"internalType": "struct TravelRuleProgram.Transaction[]",
							"name": "",
							"type": "tuple[]"
						}
					],
					"stateMutability": "view",
					"type": "function"
				},
				{
					"inputs": [
						{
							"internalType": "uint256",
							"name": "count",
							"type": "uint256"
						}
					],
					"name": "getTransactions",
					"outputs": [
						{
							"components": [
								{
									"internalType": "uint256",
									"name": "id",
									"type": "uint256"
								},
								{
									"internalType": "address",
									"name": "from",
									"type": "address"
								},
								{
									"internalType": "address",
									"name": "to",
									"type": "address"
								},
								{
									"internalType": "string",
									"name": "sendersData",
									"type": "string"
								},
								{
									"internalType": "string",
									"name": "receiversData",
									"type": "string"
								},
								{
									"internalType": "uint8",
									"name": "amlForSender",
									"type": "uint8"
								},
								{
									"internalType": "uint8",
									"name": "amlForReceiver",
									"type": "uint8"
								}
							],
							"internalType": "struct TravelRuleProgram.Transaction[]",
							"name": "",
							"type": "tuple[]"
						}
					],
					"stateMutability": "view",
					"type": "function"
				},
				{
					"inputs": [
						{
							"internalType": "address",
							"name": "to",
							"type": "address"
						},
						{
							"internalType": "uint256",
							"name": "count",
							"type": "uint256"
						}
					],
					"name": "getTransactionsForReceiver",
					"outputs": [
						{
							"components": [
								{
									"internalType": "uint256",
									"name": "id",
									"type": "uint256"
								},
								{
									"internalType": "address",
									"name": "from",
									"type": "address"
								},
								{
									"internalType": "address",
									"name": "to",
									"type": "address"
								},
								{
									"internalType": "string",
									"name": "sendersData",
									"type": "string"
								},
								{
									"internalType": "string",
									"name": "receiversData",
									"type": "string"
								},
								{
									"internalType": "uint8",
									"name": "amlForSender",
									"type": "uint8"
								},
								{
									"internalType": "uint8",
									"name": "amlForReceiver",
									"type": "uint8"
								}
							],
							"internalType": "struct TravelRuleProgram.Transaction[]",
							"name": "",
							"type": "tuple[]"
						}
					],
					"stateMutability": "view",
					"type": "function"
				},
				{
					"inputs": [],
					"name": "owner",
					"outputs": [
						{
							"internalType": "address",
							"name": "",
							"type": "address"
						}
					],
					"stateMutability": "view",
					"type": "function"
				},
				{
					"inputs": [],
					"name": "renounceOwnership",
					"outputs": [],
					"stateMutability": "nonpayable",
					"type": "function"
				},
				{
					"inputs": [
						{
							"internalType": "uint256",
							"name": "transactionId",
							"type": "uint256"
						},
						{
							"internalType": "uint8",
							"name": "status",
							"type": "uint8"
						},
						{
							"internalType": "bool",
							"name": "emitEvent",
							"type": "bool"
						}
					],
					"name": "setAmlStatusForReceiver",
					"outputs": [],
					"stateMutability": "nonpayable",
					"type": "function"
				},
				{
					"inputs": [
						{
							"internalType": "uint256",
							"name": "transactionId",
							"type": "uint256"
						},
						{
							"internalType": "uint8",
							"name": "status",
							"type": "uint8"
						}
					],
					"name": "setAmlStatusForReceiver",
					"outputs": [],
					"stateMutability": "nonpayable",
					"type": "function"
				},
				{
					"inputs": [
						{
							"internalType": "uint256",
							"name": "transactionId",
							"type": "uint256"
						},
						{
							"internalType": "uint8",
							"name": "status",
							"type": "uint8"
						}
					],
					"name": "setAmlStatusForSender",
					"outputs": [],
					"stateMutability": "nonpayable",
					"type": "function"
				},
				{
					"inputs": [
						{
							"internalType": "uint256",
							"name": "transactionId",
							"type": "uint256"
						},
						{
							"internalType": "uint8",
							"name": "status",
							"type": "uint8"
						},
						{
							"internalType": "bool",
							"name": "emitEvent",
							"type": "bool"
						}
					],
					"name": "setAmlStatusForSender",
					"outputs": [],
					"stateMutability": "nonpayable",
					"type": "function"
				},
				{
					"inputs": [
						{
							"internalType": "uint256",
							"name": "transactionId",
							"type": "uint256"
						},
						{
							"internalType": "uint8",
							"name": "senderStatus",
							"type": "uint8"
						},
						{
							"internalType": "uint8",
							"name": "receiverStatus",
							"type": "uint8"
						}
					],
					"name": "setTransactionAmlStatus",
					"outputs": [],
					"stateMutability": "nonpayable",
					"type": "function"
				},
				{
					"inputs": [
						{
							"internalType": "address",
							"name": "newOwner",
							"type": "address"
						}
					],
					"name": "transferOwnership",
					"outputs": [],
					"stateMutability": "nonpayable",
					"type": "function"
				},
				{
					"inputs": [
						{
							"internalType": "uint256",
							"name": "transactionId",
							"type": "uint256"
						},
						{
							"internalType": "string",
							"name": "receiversData",
							"type": "string"
						}
					],
					"name": "updateReceiversData",
					"outputs": [],
					"stateMutability": "nonpayable",
					"type": "function"
				}
			],
			"devdoc": {
				"kind": "dev",
				"methods": {
					"owner()": {
						"details": "Returns the address of the current owner."
					},
					"renounceOwnership()": {
						"details": "Leaves the contract without owner. It will not be possible to call `onlyOwner` functions anymore. Can only be called by the current owner. NOTE: Renouncing ownership will leave the contract without an owner, thereby removing any functionality that is only available to the owner."
					},
					"transferOwnership(address)": {
						"details": "Transfers ownership of the contract to a new account (`newOwner`). Can only be called by the current owner."
					}
				},
				"version": 1
			},
			"evm": {
				"assembly": "    /* \"contracts/TravelRuleProgram.sol\":177:6296  contract TravelRuleProgram is Ownable {... */\n  mstore(0x40, 0x80)\n  callvalue\n  dup1\n  iszero\n  tag_1\n  jumpi\n  0x00\n  dup1\n  revert\ntag_1:\n  pop\n    /* \"@openzeppelin/contracts/access/Ownable.sol\":936:968  _transferOwnership(_msgSender()) */\n  tag_4\n    /* \"@openzeppelin/contracts/access/Ownable.sol\":955:967  _msgSender() */\n  tag_5\n    /* \"@openzeppelin/contracts/access/Ownable.sol\":955:965  _msgSender */\n  shl(0x20, tag_6)\n    /* \"@openzeppelin/contracts/access/Ownable.sol\":955:967  _msgSender() */\n  0x20\n  shr\n  jump\t// in\ntag_5:\n    /* \"@openzeppelin/contracts/access/Ownable.sol\":936:954  _transferOwnership */\n  shl(0x20, tag_7)\n    /* \"@openzeppelin/contracts/access/Ownable.sol\":936:968  _transferOwnership(_msgSender()) */\n  0x20\n  shr\n  jump\t// in\ntag_4:\n    /* \"contracts/TravelRuleProgram.sol\":177:6296  contract TravelRuleProgram is Ownable {... */\n  jump(tag_8)\n    /* \"@openzeppelin/contracts/utils/Context.sol\":640:736  function _msgSender() internal view virtual returns (address) {... */\ntag_6:\n    /* \"@openzeppelin/contracts/utils/Context.sol\":693:700  address */\n  0x00\n    /* \"@openzeppelin/contracts/utils/Context.sol\":719:729  msg.sender */\n  caller\n    /* \"@openzeppelin/contracts/utils/Context.sol\":712:729  return msg.sender */\n  swap1\n  pop\n    /* \"@openzeppelin/contracts/utils/Context.sol\":640:736  function _msgSender() internal view virtual returns (address) {... */\n  swap1\n  jump\t// out\n    /* \"@openzeppelin/contracts/access/Ownable.sol\":2433:2620  function _transferOwnership(address newOwner) internal virtual {... */\ntag_7:\n    /* \"@openzeppelin/contracts/access/Ownable.sol\":2506:2522  address oldOwner */\n  0x00\n    /* \"@openzeppelin/contracts/access/Ownable.sol\":2525:2531  _owner */\n  dup1\n  0x00\n  swap1\n  sload\n  swap1\n  0x0100\n  exp\n  swap1\n  div\n  0xffffffffffffffffffffffffffffffffffffffff\n  and\n    /* \"@openzeppelin/contracts/access/Ownable.sol\":2506:2531  address oldOwner = _owner */\n  swap1\n  pop\n    /* \"@openzeppelin/contracts/access/Ownable.sol\":2550:2558  newOwner */\n  dup2\n    /* \"@openzeppelin/contracts/access/Ownable.sol\":2541:2547  _owner */\n  0x00\n  dup1\n    /* \"@openzeppelin/contracts/access/Ownable.sol\":2541:2558  _owner = newOwner */\n  0x0100\n  exp\n  dup2\n  sload\n  dup2\n  0xffffffffffffffffffffffffffffffffffffffff\n  mul\n  not\n  and\n  swap1\n  dup4\n  0xffffffffffffffffffffffffffffffffffffffff\n  and\n  mul\n  or\n  swap1\n  sstore\n  pop\n    /* \"@openzeppelin/contracts/access/Ownable.sol\":2604:2612  newOwner */\n  dup2\n    /* \"@openzeppelin/contracts/access/Ownable.sol\":2573:2613  OwnershipTransferred(oldOwner, newOwner) */\n  0xffffffffffffffffffffffffffffffffffffffff\n  and\n    /* \"@openzeppelin/contracts/access/Ownable.sol\":2594:2602  oldOwner */\n  dup2\n    /* \"@openzeppelin/contracts/access/Ownable.sol\":2573:2613  OwnershipTransferred(oldOwner, newOwner) */\n  0xffffffffffffffffffffffffffffffffffffffff\n  and\n  0x8be0079c531659141344cd1fd0a4f28419497f9722a3daafe3b4186f6b6457e0\n  mload(0x40)\n  mload(0x40)\n  dup1\n  swap2\n  sub\n  swap1\n  log3\n    /* \"@openzeppelin/contracts/access/Ownable.sol\":2496:2620  {... */\n  pop\n    /* \"@openzeppelin/contracts/access/Ownable.sol\":2433:2620  function _transferOwnership(address newOwner) internal virtual {... */\n  pop\n  jump\t// out\n    /* \"contracts/TravelRuleProgram.sol\":177:6296  contract TravelRuleProgram is Ownable {... */\ntag_8:\n  dataSize(sub_0)\n  dup1\n  dataOffset(sub_0)\n  0x00\n  codecopy\n  0x00\n  return\nstop\n\nsub_0: assembly {\n        /* \"contracts/TravelRuleProgram.sol\":177:6296  contract TravelRuleProgram is Ownable {... */\n      mstore(0x40, 0x80)\n      callvalue\n      dup1\n      iszero\n      tag_1\n      jumpi\n      0x00\n      dup1\n      revert\n    tag_1:\n      pop\n      jumpi(tag_2, lt(calldatasize, 0x04))\n      shr(0xe0, calldataload(0x00))\n      dup1\n      0x8da5cb5b\n      gt\n      tag_17\n      jumpi\n      dup1\n      0xcf993060\n      gt\n      tag_18\n      jumpi\n      dup1\n      0xcf993060\n      eq\n      tag_13\n      jumpi\n      dup1\n      0xd39d0527\n      eq\n      tag_14\n      jumpi\n      dup1\n      0xe32ab44b\n      eq\n      tag_15\n      jumpi\n      dup1\n      0xf2fde38b\n      eq\n      tag_16\n      jumpi\n      jump(tag_2)\n    tag_18:\n      dup1\n      0x8da5cb5b\n      eq\n      tag_10\n      jumpi\n      dup1\n      0x9a238f6d\n      eq\n      tag_11\n      jumpi\n      dup1\n      0x9b8570f4\n      eq\n      tag_12\n      jumpi\n      jump(tag_2)\n    tag_17:\n      dup1\n      0x5742177c\n      gt\n      tag_19\n      jumpi\n      dup1\n      0x5742177c\n      eq\n      tag_6\n      jumpi\n      dup1\n      0x715018a6\n      eq\n      tag_7\n      jumpi\n      dup1\n      0x7ccc241a\n      eq\n      tag_8\n      jumpi\n      dup1\n      0x87e8bd12\n      eq\n      tag_9\n      jumpi\n      jump(tag_2)\n    tag_19:\n      dup1\n      0x1167372d\n      eq\n      tag_3\n      jumpi\n      dup1\n      0x27506f53\n      eq\n      tag_4\n      jumpi\n      dup1\n      0x52efea6e\n      eq\n      tag_5\n      jumpi\n    tag_2:\n      0x00\n      dup1\n      revert\n        /* \"contracts/TravelRuleProgram.sol\":5774:6218  function setTransactionAmlStatus(... */\n    tag_3:\n      tag_20\n      0x04\n      dup1\n      calldatasize\n      sub\n      dup2\n      add\n      swap1\n      tag_21\n      swap2\n      swap1\n      tag_22\n      jump\t// in\n    tag_21:\n      tag_23\n      jump\t// in\n    tag_20:\n      stop\n        /* \"contracts/TravelRuleProgram.sol\":2498:2606  function getAllTransactions() public view returns(Transaction[] memory) {... */\n    tag_4:\n      tag_24\n      tag_25\n      jump\t// in\n    tag_24:\n      mload(0x40)\n      tag_26\n      swap2\n      swap1\n      tag_27\n      jump\t// in\n    tag_26:\n      mload(0x40)\n      dup1\n      swap2\n      sub\n      swap1\n      return\n        /* \"contracts/TravelRuleProgram.sol\":6224:6294  function clear() public onlyOwner {... */\n    tag_5:\n      tag_28\n      tag_29\n      jump\t// in\n    tag_28:\n      stop\n        /* \"contracts/TravelRuleProgram.sol\":2612:3214  function getTransactions(uint256 count) public view returns(Transaction[] memory) {... */\n    tag_6:\n      tag_30\n      0x04\n      dup1\n      calldatasize\n      sub\n      dup2\n      add\n      swap1\n      tag_31\n      swap2\n      swap1\n      tag_32\n      jump\t// in\n    tag_31:\n      tag_33\n      jump\t// in\n    tag_30:\n      mload(0x40)\n      tag_34\n      swap2\n      swap1\n      tag_27\n      jump\t// in\n    tag_34:\n      mload(0x40)\n      dup1\n      swap2\n      sub\n      swap1\n      return\n        /* \"@openzeppelin/contracts/access/Ownable.sol\":1831:1932  function renounceOwnership() public virtual onlyOwner {... */\n    tag_7:\n      tag_35\n      tag_36\n      jump\t// in\n    tag_35:\n      stop\n        /* \"contracts/TravelRuleProgram.sol\":4351:4957  function setAmlStatusForReceiver(... */\n    tag_8:\n      tag_37\n      0x04\n      dup1\n      calldatasize\n      sub\n      dup2\n      add\n      swap1\n      tag_38\n      swap2\n      swap1\n      tag_39\n      jump\t// in\n    tag_38:\n      tag_40\n      jump\t// in\n    tag_37:\n      stop\n        /* \"contracts/TravelRuleProgram.sol\":4963:5170  function setAmlStatusForSender(... */\n    tag_9:\n      tag_41\n      0x04\n      dup1\n      calldatasize\n      sub\n      dup2\n      add\n      swap1\n      tag_42\n      swap2\n      swap1\n      tag_43\n      jump\t// in\n    tag_42:\n      tag_44\n      jump\t// in\n    tag_41:\n      stop\n        /* \"@openzeppelin/contracts/access/Ownable.sol\":1201:1286  function owner() public view virtual returns (address) {... */\n    tag_10:\n      tag_45\n      tag_46\n      jump\t// in\n    tag_45:\n      mload(0x40)\n      tag_47\n      swap2\n      swap1\n      tag_48\n      jump\t// in\n    tag_47:\n      mload(0x40)\n      dup1\n      swap2\n      sub\n      swap1\n      return\n        /* \"contracts/TravelRuleProgram.sol\":5176:5768  function setAmlStatusForSender(... */\n    tag_11:\n      tag_49\n      0x04\n      dup1\n      calldatasize\n      sub\n      dup2\n      add\n      swap1\n      tag_50\n      swap2\n      swap1\n      tag_39\n      jump\t// in\n    tag_50:\n      tag_51\n      jump\t// in\n    tag_49:\n      stop\n        /* \"contracts/TravelRuleProgram.sol\":1598:2003  function addTransaction(... */\n    tag_12:\n      tag_52\n      0x04\n      dup1\n      calldatasize\n      sub\n      dup2\n      add\n      swap1\n      tag_53\n      swap2\n      swap1\n      tag_54\n      jump\t// in\n    tag_53:\n      tag_55\n      jump\t// in\n    tag_52:\n      mload(0x40)\n      tag_56\n      swap2\n      swap1\n      tag_57\n      jump\t// in\n    tag_56:\n      mload(0x40)\n      dup1\n      swap2\n      sub\n      swap1\n      return\n        /* \"contracts/TravelRuleProgram.sol\":2009:2492  function updateReceiversData(... */\n    tag_13:\n      tag_58\n      0x04\n      dup1\n      calldatasize\n      sub\n      dup2\n      add\n      swap1\n      tag_59\n      swap2\n      swap1\n      tag_60\n      jump\t// in\n    tag_59:\n      tag_61\n      jump\t// in\n    tag_58:\n      stop\n        /* \"contracts/TravelRuleProgram.sol\":4134:4345  function setAmlStatusForReceiver(... */\n    tag_14:\n      tag_62\n      0x04\n      dup1\n      calldatasize\n      sub\n      dup2\n      add\n      swap1\n      tag_63\n      swap2\n      swap1\n      tag_43\n      jump\t// in\n    tag_63:\n      tag_64\n      jump\t// in\n    tag_62:\n      stop\n        /* \"contracts/TravelRuleProgram.sol\":3224:4128  function getTransactionsForReceiver(address to, uint256 count) public view returns(Transaction[] memory) {... */\n    tag_15:\n      tag_65\n      0x04\n      dup1\n      calldatasize\n      sub\n      dup2\n      add\n      swap1\n      tag_66\n      swap2\n      swap1\n      tag_67\n      jump\t// in\n    tag_66:\n      tag_68\n      jump\t// in\n    tag_65:\n      mload(0x40)\n      tag_69\n      swap2\n      swap1\n      tag_27\n      jump\t// in\n    tag_69:\n      mload(0x40)\n      dup1\n      swap2\n      sub\n      swap1\n      return\n        /* \"@openzeppelin/contracts/access/Ownable.sol\":2081:2279  function transferOwnership(address newOwner) public virtual onlyOwner {... */\n    tag_16:\n      tag_70\n      0x04\n      dup1\n      calldatasize\n      sub\n      dup2\n      add\n      swap1\n      tag_71\n      swap2\n      swap1\n      tag_72\n      jump\t// in\n    tag_71:\n      tag_73\n      jump\t// in\n    tag_70:\n      stop\n        /* \"contracts/TravelRuleProgram.sol\":5774:6218  function setTransactionAmlStatus(... */\n    tag_23:\n        /* \"@openzeppelin/contracts/access/Ownable.sol\":1094:1107  _checkOwner() */\n      tag_75\n        /* \"@openzeppelin/contracts/access/Ownable.sol\":1094:1105  _checkOwner */\n      tag_76\n        /* \"@openzeppelin/contracts/access/Ownable.sol\":1094:1107  _checkOwner() */\n      jump\t// in\n    tag_75:\n        /* \"contracts/TravelRuleProgram.sol\":5938:5951  transactionId */\n      dup3\n        /* \"contracts/TravelRuleProgram.sol\":1381:1440  compareStrings(transactions[transactionId].sendersData, \"\") */\n      tag_78\n        /* \"contracts/TravelRuleProgram.sol\":1396:1408  transactions */\n      0x01\n        /* \"contracts/TravelRuleProgram.sol\":1409:1422  transactionId */\n      dup3\n        /* \"contracts/TravelRuleProgram.sol\":1396:1423  transactions[transactionId] */\n      dup2\n      sload\n      dup2\n      lt\n      tag_79\n      jumpi\n      tag_80\n      tag_81\n      jump\t// in\n    tag_80:\n    tag_79:\n      swap1\n      0x00\n      mstore\n      keccak256(0x00, 0x20)\n      swap1\n      0x06\n      mul\n      add\n        /* \"contracts/TravelRuleProgram.sol\":1396:1435  transactions[transactionId].sendersData */\n      0x03\n      add\n        /* \"contracts/TravelRuleProgram.sol\":1381:1440  compareStrings(transactions[transactionId].sendersData, \"\") */\n      dup1\n      sload\n      tag_83\n      swap1\n      tag_84\n      jump\t// in\n    tag_83:\n      dup1\n      0x1f\n      add\n      0x20\n      dup1\n      swap2\n      div\n      mul\n      0x20\n      add\n      mload(0x40)\n      swap1\n      dup2\n      add\n      0x40\n      mstore\n      dup1\n      swap3\n      swap2\n      swap1\n      dup2\n      dup2\n      mstore\n      0x20\n      add\n      dup3\n      dup1\n      sload\n      tag_85\n      swap1\n      tag_84\n      jump\t// in\n    tag_85:\n      dup1\n      iszero\n      tag_86\n      jumpi\n      dup1\n      0x1f\n      lt\n      tag_87\n      jumpi\n      0x0100\n      dup1\n      dup4\n      sload\n      div\n      mul\n      dup4\n      mstore\n      swap2\n      0x20\n      add\n      swap2\n      jump(tag_86)\n    tag_87:\n      dup3\n      add\n      swap2\n      swap1\n      0x00\n      mstore\n      keccak256(0x00, 0x20)\n      swap1\n    tag_88:\n      dup2\n      sload\n      dup2\n      mstore\n      swap1\n      0x01\n      add\n      swap1\n      0x20\n      add\n      dup1\n      dup4\n      gt\n      tag_88\n      jumpi\n      dup3\n      swap1\n      sub\n      0x1f\n      and\n      dup3\n      add\n      swap2\n    tag_86:\n      pop\n      pop\n      pop\n      pop\n      pop\n      mload(0x40)\n      dup1\n      0x20\n      add\n      0x40\n      mstore\n      dup1\n      0x00\n      dup2\n      mstore\n      pop\n        /* \"contracts/TravelRuleProgram.sol\":1381:1395  compareStrings */\n      tag_89\n        /* \"contracts/TravelRuleProgram.sol\":1381:1440  compareStrings(transactions[transactionId].sendersData, \"\") */\n      jump\t// in\n    tag_78:\n        /* \"contracts/TravelRuleProgram.sol\":1380:1440  !compareStrings(transactions[transactionId].sendersData, \"\") */\n      iszero\n        /* \"contracts/TravelRuleProgram.sol\":1372:1467  require(!compareStrings(transactions[transactionId].sendersData, \"\"), \"Only for completed AML\") */\n      tag_90\n      jumpi\n      mload(0x40)\n      0x08c379a000000000000000000000000000000000000000000000000000000000\n      dup2\n      mstore\n      0x04\n      add\n      tag_91\n      swap1\n      tag_92\n      jump\t// in\n    tag_91:\n      mload(0x40)\n      dup1\n      swap2\n      sub\n      swap1\n      revert\n    tag_90:\n        /* \"contracts/TravelRuleProgram.sol\":1486:1547  compareStrings(transactions[transactionId].receiversData, \"\") */\n      tag_93\n        /* \"contracts/TravelRuleProgram.sol\":1501:1513  transactions */\n      0x01\n        /* \"contracts/TravelRuleProgram.sol\":1514:1527  transactionId */\n      dup3\n        /* \"contracts/TravelRuleProgram.sol\":1501:1528  transactions[transactionId] */\n      dup2\n      sload\n      dup2\n      lt\n      tag_94\n      jumpi\n      tag_95\n      tag_81\n      jump\t// in\n    tag_95:\n    tag_94:\n      swap1\n      0x00\n      mstore\n      keccak256(0x00, 0x20)\n      swap1\n      0x06\n      mul\n      add\n        /* \"contracts/TravelRuleProgram.sol\":1501:1542  transactions[transactionId].receiversData */\n      0x04\n      add\n        /* \"contracts/TravelRuleProgram.sol\":1486:1547  compareStrings(transactions[transactionId].receiversData, \"\") */\n      dup1\n      sload\n      tag_97\n      swap1\n      tag_84\n      jump\t// in\n    tag_97:\n      dup1\n      0x1f\n      add\n      0x20\n      dup1\n      swap2\n      div\n      mul\n      0x20\n      add\n      mload(0x40)\n      swap1\n      dup2\n      add\n      0x40\n      mstore\n      dup1\n      swap3\n      swap2\n      swap1\n      dup2\n      dup2\n      mstore\n      0x20\n      add\n      dup3\n      dup1\n      sload\n      tag_98\n      swap1\n      tag_84\n      jump\t// in\n    tag_98:\n      dup1\n      iszero\n      tag_99\n      jumpi\n      dup1\n      0x1f\n      lt\n      tag_100\n      jumpi\n      0x0100\n      dup1\n      dup4\n      sload\n      div\n      mul\n      dup4\n      mstore\n      swap2\n      0x20\n      add\n      swap2\n      jump(tag_99)\n    tag_100:\n      dup3\n      add\n      swap2\n      swap1\n      0x00\n      mstore\n      keccak256(0x00, 0x20)\n      swap1\n    tag_101:\n      dup2\n      sload\n      dup2\n      mstore\n      swap1\n      0x01\n      add\n      swap1\n      0x20\n      add\n      dup1\n      dup4\n      gt\n      tag_101\n      jumpi\n      dup3\n      swap1\n      sub\n      0x1f\n      and\n      dup3\n      add\n      swap2\n    tag_99:\n      pop\n      pop\n      pop\n      pop\n      pop\n      mload(0x40)\n      dup1\n      0x20\n      add\n      0x40\n      mstore\n      dup1\n      0x00\n      dup2\n      mstore\n      pop\n        /* \"contracts/TravelRuleProgram.sol\":1486:1500  compareStrings */\n      tag_89\n        /* \"contracts/TravelRuleProgram.sol\":1486:1547  compareStrings(transactions[transactionId].receiversData, \"\") */\n      jump\t// in\n    tag_93:\n        /* \"contracts/TravelRuleProgram.sol\":1485:1547  !compareStrings(transactions[transactionId].receiversData, \"\") */\n      iszero\n        /* \"contracts/TravelRuleProgram.sol\":1477:1574  require(!compareStrings(transactions[transactionId].receiversData, \"\"), \"Only for completed AML\") */\n      tag_102\n      jumpi\n      mload(0x40)\n      0x08c379a000000000000000000000000000000000000000000000000000000000\n      dup2\n      mstore\n      0x04\n      add\n      tag_103\n      swap1\n      tag_92\n      jump\t// in\n    tag_103:\n      mload(0x40)\n      dup1\n      swap2\n      sub\n      swap1\n      revert\n    tag_102:\n        /* \"contracts/TravelRuleProgram.sol\":5963:6017  setAmlStatusForReceiver(transactionId, receiverStatus) */\n      tag_105\n        /* \"contracts/TravelRuleProgram.sol\":5987:6000  transactionId */\n      dup5\n        /* \"contracts/TravelRuleProgram.sol\":6002:6016  receiverStatus */\n      dup4\n        /* \"contracts/TravelRuleProgram.sol\":5963:5986  setAmlStatusForReceiver */\n      tag_64\n        /* \"contracts/TravelRuleProgram.sol\":5963:6017  setAmlStatusForReceiver(transactionId, receiverStatus) */\n      jump\t// in\n    tag_105:\n        /* \"contracts/TravelRuleProgram.sol\":6027:6077  setAmlStatusForSender(transactionId, senderStatus) */\n      tag_106\n        /* \"contracts/TravelRuleProgram.sol\":6049:6062  transactionId */\n      dup5\n        /* \"contracts/TravelRuleProgram.sol\":6064:6076  senderStatus */\n      dup5\n        /* \"contracts/TravelRuleProgram.sol\":6027:6048  setAmlStatusForSender */\n      tag_44\n        /* \"contracts/TravelRuleProgram.sol\":6027:6077  setAmlStatusForSender(transactionId, senderStatus) */\n      jump\t// in\n    tag_106:\n        /* \"contracts/TravelRuleProgram.sol\":6093:6211  TransactionAmlStatusUpdated(... */\n      0x4cea1f87adb8c58c2d35aa0a3723745ff782300a0479866fc1e478a8740df8e5\n        /* \"contracts/TravelRuleProgram.sol\":6134:6147  transactionId */\n      dup5\n        /* \"contracts/TravelRuleProgram.sol\":6161:6173  senderStatus */\n      dup5\n        /* \"contracts/TravelRuleProgram.sol\":6187:6201  receiverStatus */\n      dup5\n        /* \"contracts/TravelRuleProgram.sol\":6093:6211  TransactionAmlStatusUpdated(... */\n      mload(0x40)\n      tag_107\n      swap4\n      swap3\n      swap2\n      swap1\n      tag_108\n      jump\t// in\n    tag_107:\n      mload(0x40)\n      dup1\n      swap2\n      sub\n      swap1\n      log1\n        /* \"@openzeppelin/contracts/access/Ownable.sol\":1117:1118  _ */\n      pop\n        /* \"contracts/TravelRuleProgram.sol\":5774:6218  function setTransactionAmlStatus(... */\n      pop\n      pop\n      pop\n      jump\t// out\n        /* \"contracts/TravelRuleProgram.sol\":2498:2606  function getAllTransactions() public view returns(Transaction[] memory) {... */\n    tag_25:\n        /* \"contracts/TravelRuleProgram.sol\":2548:2568  Transaction[] memory */\n      0x60\n        /* \"contracts/TravelRuleProgram.sol\":2587:2599  transactions */\n      0x01\n        /* \"contracts/TravelRuleProgram.sol\":2580:2599  return transactions */\n      dup1\n      sload\n      dup1\n      0x20\n      mul\n      0x20\n      add\n      mload(0x40)\n      swap1\n      dup2\n      add\n      0x40\n      mstore\n      dup1\n      swap3\n      swap2\n      swap1\n      dup2\n      dup2\n      mstore\n      0x20\n      add\n      0x00\n      swap1\n    tag_110:\n      dup3\n      dup3\n      lt\n      iszero\n      tag_111\n      jumpi\n      dup4\n      dup3\n      swap1\n      0x00\n      mstore\n      keccak256(0x00, 0x20)\n      swap1\n      0x06\n      mul\n      add\n      mload(0x40)\n      dup1\n      0xe0\n      add\n      0x40\n      mstore\n      swap1\n      dup2\n      0x00\n      dup3\n      add\n      sload\n      dup2\n      mstore\n      0x20\n      add\n      0x01\n      dup3\n      add\n      0x00\n      swap1\n      sload\n      swap1\n      0x0100\n      exp\n      swap1\n      div\n      0xffffffffffffffffffffffffffffffffffffffff\n      and\n      0xffffffffffffffffffffffffffffffffffffffff\n      and\n      0xffffffffffffffffffffffffffffffffffffffff\n      and\n      dup2\n      mstore\n      0x20\n      add\n      0x02\n      dup3\n      add\n      0x00\n      swap1\n      sload\n      swap1\n      0x0100\n      exp\n      swap1\n      div\n      0xffffffffffffffffffffffffffffffffffffffff\n      and\n      0xffffffffffffffffffffffffffffffffffffffff\n      and\n      0xffffffffffffffffffffffffffffffffffffffff\n      and\n      dup2\n      mstore\n      0x20\n      add\n      0x03\n      dup3\n      add\n      dup1\n      sload\n      tag_113\n      swap1\n      tag_84\n      jump\t// in\n    tag_113:\n      dup1\n      0x1f\n      add\n      0x20\n      dup1\n      swap2\n      div\n      mul\n      0x20\n      add\n      mload(0x40)\n      swap1\n      dup2\n      add\n      0x40\n      mstore\n      dup1\n      swap3\n      swap2\n      swap1\n      dup2\n      dup2\n      mstore\n      0x20\n      add\n      dup3\n      dup1\n      sload\n      tag_114\n      swap1\n      tag_84\n      jump\t// in\n    tag_114:\n      dup1\n      iszero\n      tag_115\n      jumpi\n      dup1\n      0x1f\n      lt\n      tag_116\n      jumpi\n      0x0100\n      dup1\n      dup4\n      sload\n      div\n      mul\n      dup4\n      mstore\n      swap2\n      0x20\n      add\n      swap2\n      jump(tag_115)\n    tag_116:\n      dup3\n      add\n      swap2\n      swap1\n      0x00\n      mstore\n      keccak256(0x00, 0x20)\n      swap1\n    tag_117:\n      dup2\n      sload\n      dup2\n      mstore\n      swap1\n      0x01\n      add\n      swap1\n      0x20\n      add\n      dup1\n      dup4\n      gt\n      tag_117\n      jumpi\n      dup3\n      swap1\n      sub\n      0x1f\n      and\n      dup3\n      add\n      swap2\n    tag_115:\n      pop\n      pop\n      pop\n      pop\n      pop\n      dup2\n      mstore\n      0x20\n      add\n      0x04\n      dup3\n      add\n      dup1\n      sload\n      tag_118\n      swap1\n      tag_84\n      jump\t// in\n    tag_118:\n      dup1\n      0x1f\n      add\n      0x20\n      dup1\n      swap2\n      div\n      mul\n      0x20\n      add\n      mload(0x40)\n      swap1\n      dup2\n      add\n      0x40\n      mstore\n      dup1\n      swap3\n      swap2\n      swap1\n      dup2\n      dup2\n      mstore\n      0x20\n      add\n      dup3\n      dup1\n      sload\n      tag_119\n      swap1\n      tag_84\n      jump\t// in\n    tag_119:\n      dup1\n      iszero\n      tag_120\n      jumpi\n      dup1\n      0x1f\n      lt\n      tag_121\n      jumpi\n      0x0100\n      dup1\n      dup4\n      sload\n      div\n      mul\n      dup4\n      mstore\n      swap2\n      0x20\n      add\n      swap2\n      jump(tag_120)\n    tag_121:\n      dup3\n      add\n      swap2\n      swap1\n      0x00\n      mstore\n      keccak256(0x00, 0x20)\n      swap1\n    tag_122:\n      dup2\n      sload\n      dup2\n      mstore\n      swap1\n      0x01\n      add\n      swap1\n      0x20\n      add\n      dup1\n      dup4\n      gt\n      tag_122\n      jumpi\n      dup3\n      swap1\n      sub\n      0x1f\n      and\n      dup3\n      add\n      swap2\n    tag_120:\n      pop\n      pop\n      pop\n      pop\n      pop\n      dup2\n      mstore\n      0x20\n      add\n      0x05\n      dup3\n      add\n      0x00\n      swap1\n      sload\n      swap1\n      0x0100\n      exp\n      swap1\n      div\n      0xff\n      and\n      0xff\n      and\n      0xff\n      and\n      dup2\n      mstore\n      0x20\n      add\n      0x05\n      dup3\n      add\n      0x01\n      swap1\n      sload\n      swap1\n      0x0100\n      exp\n      swap1\n      div\n      0xff\n      and\n      0xff\n      and\n      0xff\n      and\n      dup2\n      mstore\n      pop\n      pop\n      dup2\n      mstore\n      0x20\n      add\n      swap1\n      0x01\n      add\n      swap1\n      jump(tag_110)\n    tag_111:\n      pop\n      pop\n      pop\n      pop\n      swap1\n      pop\n        /* \"contracts/TravelRuleProgram.sol\":2498:2606  function getAllTransactions() public view returns(Transaction[] memory) {... */\n      swap1\n      jump\t// out\n        /* \"contracts/TravelRuleProgram.sol\":6224:6294  function clear() public onlyOwner {... */\n    tag_29:\n        /* \"@openzeppelin/contracts/access/Ownable.sol\":1094:1107  _checkOwner() */\n      tag_124\n        /* \"@openzeppelin/contracts/access/Ownable.sol\":1094:1105  _checkOwner */\n      tag_76\n        /* \"@openzeppelin/contracts/access/Ownable.sol\":1094:1107  _checkOwner() */\n      jump\t// in\n    tag_124:\n        /* \"contracts/TravelRuleProgram.sol\":6275:6287  transactions */\n      0x01\n      0x00\n        /* \"contracts/TravelRuleProgram.sol\":6268:6287  delete transactions */\n      tag_126\n      swap2\n      swap1\n      tag_127\n      jump\t// in\n    tag_126:\n        /* \"contracts/TravelRuleProgram.sol\":6224:6294  function clear() public onlyOwner {... */\n      jump\t// out\n        /* \"contracts/TravelRuleProgram.sol\":2612:3214  function getTransactions(uint256 count) public view returns(Transaction[] memory) {... */\n    tag_33:\n        /* \"contracts/TravelRuleProgram.sol\":2672:2692  Transaction[] memory */\n      0x60\n        /* \"contracts/TravelRuleProgram.sol\":2720:2723  100 */\n      0x64\n        /* \"contracts/TravelRuleProgram.sol\":2712:2717  count */\n      dup3\n        /* \"contracts/TravelRuleProgram.sol\":2712:2723  count < 100 */\n      lt\n        /* \"contracts/TravelRuleProgram.sol\":2704:2796  require(count < 100, \"Can not get transactions list. The maximum transactions count is 100\") */\n      tag_129\n      jumpi\n      mload(0x40)\n      0x08c379a000000000000000000000000000000000000000000000000000000000\n      dup2\n      mstore\n      0x04\n      add\n      tag_130\n      swap1\n      tag_131\n      jump\t// in\n    tag_130:\n      mload(0x40)\n      dup1\n      swap2\n      sub\n      swap1\n      revert\n    tag_129:\n        /* \"contracts/TravelRuleProgram.sol\":2807:2821  uint256 length */\n      0x00\n        /* \"contracts/TravelRuleProgram.sol\":2824:2836  transactions */\n      0x01\n        /* \"contracts/TravelRuleProgram.sol\":2824:2843  transactions.length */\n      dup1\n      sload\n      swap1\n      pop\n        /* \"contracts/TravelRuleProgram.sol\":2807:2843  uint256 length = transactions.length */\n      swap1\n      pop\n        /* \"contracts/TravelRuleProgram.sol\":2853:2868  uint256 _length */\n      0x00\n        /* \"contracts/TravelRuleProgram.sol\":2880:2885  count */\n      dup4\n        /* \"contracts/TravelRuleProgram.sol\":2871:2877  length */\n      dup3\n        /* \"contracts/TravelRuleProgram.sol\":2871:2885  length < count */\n      lt\n        /* \"contracts/TravelRuleProgram.sol\":2871:2902  length < count ? length : count */\n      tag_132\n      jumpi\n        /* \"contracts/TravelRuleProgram.sol\":2897:2902  count */\n      dup4\n        /* \"contracts/TravelRuleProgram.sol\":2871:2902  length < count ? length : count */\n      jump(tag_133)\n    tag_132:\n        /* \"contracts/TravelRuleProgram.sol\":2888:2894  length */\n      dup2\n        /* \"contracts/TravelRuleProgram.sol\":2871:2902  length < count ? length : count */\n    tag_133:\n        /* \"contracts/TravelRuleProgram.sol\":2853:2902  uint256 _length = length < count ? length : count */\n      swap1\n      pop\n        /* \"contracts/TravelRuleProgram.sol\":2912:2929  uint256 stopIndex */\n      0x00\n        /* \"contracts/TravelRuleProgram.sol\":2951:2952  1 */\n      0x01\n        /* \"contracts/TravelRuleProgram.sol\":2941:2948  _length */\n      dup3\n        /* \"contracts/TravelRuleProgram.sol\":2932:2938  length */\n      dup5\n        /* \"contracts/TravelRuleProgram.sol\":2932:2948  length - _length */\n      tag_134\n      swap2\n      swap1\n      tag_135\n      jump\t// in\n    tag_134:\n        /* \"contracts/TravelRuleProgram.sol\":2932:2952  length - _length + 1 */\n      tag_136\n      swap2\n      swap1\n      tag_137\n      jump\t// in\n    tag_136:\n        /* \"contracts/TravelRuleProgram.sol\":2912:2952  uint256 stopIndex = length - _length + 1 */\n      swap1\n      pop\n        /* \"contracts/TravelRuleProgram.sol\":2963:2997  Transaction[] memory reversedArray */\n      0x00\n        /* \"contracts/TravelRuleProgram.sol\":3018:3025  _length */\n      dup3\n        /* \"contracts/TravelRuleProgram.sol\":3000:3026  new Transaction[](_length) */\n      0xffffffffffffffff\n      dup2\n      gt\n      iszero\n      tag_138\n      jumpi\n      tag_139\n      tag_140\n      jump\t// in\n    tag_139:\n    tag_138:\n      mload(0x40)\n      swap1\n      dup1\n      dup3\n      mstore\n      dup1\n      0x20\n      mul\n      0x20\n      add\n      dup3\n      add\n      0x40\n      mstore\n      dup1\n      iszero\n      tag_141\n      jumpi\n      dup2\n      0x20\n      add\n    tag_142:\n      tag_143\n      tag_144\n      jump\t// in\n    tag_143:\n      dup2\n      mstore\n      0x20\n      add\n      swap1\n      0x01\n      swap1\n      sub\n      swap1\n      dup2\n      tag_142\n      jumpi\n      swap1\n      pop\n    tag_141:\n      pop\n        /* \"contracts/TravelRuleProgram.sol\":2963:3026  Transaction[] memory reversedArray = new Transaction[](_length) */\n      swap1\n      pop\n        /* \"contracts/TravelRuleProgram.sol\":3036:3042  uint j */\n      0x00\n        /* \"contracts/TravelRuleProgram.sol\":3061:3067  uint i */\n      dup1\n        /* \"contracts/TravelRuleProgram.sol\":3070:3076  length */\n      dup6\n        /* \"contracts/TravelRuleProgram.sol\":3061:3076  uint i = length */\n      swap1\n      pop\n        /* \"contracts/TravelRuleProgram.sol\":3057:3177  for(uint i = length; i >= stopIndex; i--) {... */\n    tag_145:\n        /* \"contracts/TravelRuleProgram.sol\":3083:3092  stopIndex */\n      dup4\n        /* \"contracts/TravelRuleProgram.sol\":3078:3079  i */\n      dup2\n        /* \"contracts/TravelRuleProgram.sol\":3078:3092  i >= stopIndex */\n      lt\n        /* \"contracts/TravelRuleProgram.sol\":3057:3177  for(uint i = length; i >= stopIndex; i--) {... */\n      tag_146\n      jumpi\n        /* \"contracts/TravelRuleProgram.sol\":3132:3144  transactions */\n      0x01\n        /* \"contracts/TravelRuleProgram.sol\":3147:3148  1 */\n      dup1\n        /* \"contracts/TravelRuleProgram.sol\":3145:3146  i */\n      dup3\n        /* \"contracts/TravelRuleProgram.sol\":3145:3148  i-1 */\n      tag_148\n      swap2\n      swap1\n      tag_135\n      jump\t// in\n    tag_148:\n        /* \"contracts/TravelRuleProgram.sol\":3132:3149  transactions[i-1] */\n      dup2\n      sload\n      dup2\n      lt\n      tag_149\n      jumpi\n      tag_150\n      tag_81\n      jump\t// in\n    tag_150:\n    tag_149:\n      swap1\n      0x00\n      mstore\n      keccak256(0x00, 0x20)\n      swap1\n      0x06\n      mul\n      add\n        /* \"contracts/TravelRuleProgram.sol\":3113:3149  reversedArray[j] = transactions[i-1] */\n      mload(0x40)\n      dup1\n      0xe0\n      add\n      0x40\n      mstore\n      swap1\n      dup2\n      0x00\n      dup3\n      add\n      sload\n      dup2\n      mstore\n      0x20\n      add\n      0x01\n      dup3\n      add\n      0x00\n      swap1\n      sload\n      swap1\n      0x0100\n      exp\n      swap1\n      div\n      0xffffffffffffffffffffffffffffffffffffffff\n      and\n      0xffffffffffffffffffffffffffffffffffffffff\n      and\n      0xffffffffffffffffffffffffffffffffffffffff\n      and\n      dup2\n      mstore\n      0x20\n      add\n      0x02\n      dup3\n      add\n      0x00\n      swap1\n      sload\n      swap1\n      0x0100\n      exp\n      swap1\n      div\n      0xffffffffffffffffffffffffffffffffffffffff\n      and\n      0xffffffffffffffffffffffffffffffffffffffff\n      and\n      0xffffffffffffffffffffffffffffffffffffffff\n      and\n      dup2\n      mstore\n      0x20\n      add\n      0x03\n      dup3\n      add\n      dup1\n      sload\n      tag_152\n      swap1\n      tag_84\n      jump\t// in\n    tag_152:\n      dup1\n      0x1f\n      add\n      0x20\n      dup1\n      swap2\n      div\n      mul\n      0x20\n      add\n      mload(0x40)\n      swap1\n      dup2\n      add\n      0x40\n      mstore\n      dup1\n      swap3\n      swap2\n      swap1\n      dup2\n      dup2\n      mstore\n      0x20\n      add\n      dup3\n      dup1\n      sload\n      tag_153\n      swap1\n      tag_84\n      jump\t// in\n    tag_153:\n      dup1\n      iszero\n      tag_154\n      jumpi\n      dup1\n      0x1f\n      lt\n      tag_155\n      jumpi\n      0x0100\n      dup1\n      dup4\n      sload\n      div\n      mul\n      dup4\n      mstore\n      swap2\n      0x20\n      add\n      swap2\n      jump(tag_154)\n    tag_155:\n      dup3\n      add\n      swap2\n      swap1\n      0x00\n      mstore\n      keccak256(0x00, 0x20)\n      swap1\n    tag_156:\n      dup2\n      sload\n      dup2\n      mstore\n      swap1\n      0x01\n      add\n      swap1\n      0x20\n      add\n      dup1\n      dup4\n      gt\n      tag_156\n      jumpi\n      dup3\n      swap1\n      sub\n      0x1f\n      and\n      dup3\n      add\n      swap2\n    tag_154:\n      pop\n      pop\n      pop\n      pop\n      pop\n      dup2\n      mstore\n      0x20\n      add\n      0x04\n      dup3\n      add\n      dup1\n      sload\n      tag_157\n      swap1\n      tag_84\n      jump\t// in\n    tag_157:\n      dup1\n      0x1f\n      add\n      0x20\n      dup1\n      swap2\n      div\n      mul\n      0x20\n      add\n      mload(0x40)\n      swap1\n      dup2\n      add\n      0x40\n      mstore\n      dup1\n      swap3\n      swap2\n      swap1\n      dup2\n      dup2\n      mstore\n      0x20\n      add\n      dup3\n      dup1\n      sload\n      tag_158\n      swap1\n      tag_84\n      jump\t// in\n    tag_158:\n      dup1\n      iszero\n      tag_159\n      jumpi\n      dup1\n      0x1f\n      lt\n      tag_160\n      jumpi\n      0x0100\n      dup1\n      dup4\n      sload\n      div\n      mul\n      dup4\n      mstore\n      swap2\n      0x20\n      add\n      swap2\n      jump(tag_159)\n    tag_160:\n      dup3\n      add\n      swap2\n      swap1\n      0x00\n      mstore\n      keccak256(0x00, 0x20)\n      swap1\n    tag_161:\n      dup2\n      sload\n      dup2\n      mstore\n      swap1\n      0x01\n      add\n      swap1\n      0x20\n      add\n      dup1\n      dup4\n      gt\n      tag_161\n      jumpi\n      dup3\n      swap1\n      sub\n      0x1f\n      and\n      dup3\n      add\n      swap2\n    tag_159:\n      pop\n      pop\n      pop\n      pop\n      pop\n      dup2\n      mstore\n      0x20\n      add\n      0x05\n      dup3\n      add\n      0x00\n      swap1\n      sload\n      swap1\n      0x0100\n      exp\n      swap1\n      div\n      0xff\n      and\n      0xff\n      and\n      0xff\n      and\n      dup2\n      mstore\n      0x20\n      add\n      0x05\n      dup3\n      add\n      0x01\n      swap1\n      sload\n      swap1\n      0x0100\n      exp\n      swap1\n      div\n      0xff\n      and\n      0xff\n      and\n      0xff\n      and\n      dup2\n      mstore\n      pop\n      pop\n        /* \"contracts/TravelRuleProgram.sol\":3113:3126  reversedArray */\n      dup4\n        /* \"contracts/TravelRuleProgram.sol\":3127:3128  j */\n      dup4\n        /* \"contracts/TravelRuleProgram.sol\":3113:3129  reversedArray[j] */\n      dup2\n      mload\n      dup2\n      lt\n      tag_162\n      jumpi\n      tag_163\n      tag_81\n      jump\t// in\n    tag_163:\n    tag_162:\n      0x20\n      mul\n      0x20\n      add\n      add\n        /* \"contracts/TravelRuleProgram.sol\":3113:3149  reversedArray[j] = transactions[i-1] */\n      dup2\n      swap1\n      mstore\n      pop\n        /* \"contracts/TravelRuleProgram.sol\":3163:3166  j++ */\n      dup2\n      dup1\n      tag_164\n      swap1\n      tag_165\n      jump\t// in\n    tag_164:\n      swap3\n      pop\n      pop\n        /* \"contracts/TravelRuleProgram.sol\":3094:3097  i-- */\n      dup1\n      dup1\n      tag_166\n      swap1\n      tag_167\n      jump\t// in\n    tag_166:\n      swap2\n      pop\n      pop\n        /* \"contracts/TravelRuleProgram.sol\":3057:3177  for(uint i = length; i >= stopIndex; i--) {... */\n      jump(tag_145)\n    tag_146:\n      pop\n        /* \"contracts/TravelRuleProgram.sol\":3194:3207  reversedArray */\n      dup2\n        /* \"contracts/TravelRuleProgram.sol\":3187:3207  return reversedArray */\n      swap6\n      pop\n      pop\n      pop\n      pop\n      pop\n      pop\n        /* \"contracts/TravelRuleProgram.sol\":2612:3214  function getTransactions(uint256 count) public view returns(Transaction[] memory) {... */\n      swap2\n      swap1\n      pop\n      jump\t// out\n        /* \"@openzeppelin/contracts/access/Ownable.sol\":1831:1932  function renounceOwnership() public virtual onlyOwner {... */\n    tag_36:\n        /* \"@openzeppelin/contracts/access/Ownable.sol\":1094:1107  _checkOwner() */\n      tag_169\n        /* \"@openzeppelin/contracts/access/Ownable.sol\":1094:1105  _checkOwner */\n      tag_76\n        /* \"@openzeppelin/contracts/access/Ownable.sol\":1094:1107  _checkOwner() */\n      jump\t// in\n    tag_169:\n        /* \"@openzeppelin/contracts/access/Ownable.sol\":1895:1925  _transferOwnership(address(0)) */\n      tag_171\n        /* \"@openzeppelin/contracts/access/Ownable.sol\":1922:1923  0 */\n      0x00\n        /* \"@openzeppelin/contracts/access/Ownable.sol\":1895:1913  _transferOwnership */\n      tag_172\n        /* \"@openzeppelin/contracts/access/Ownable.sol\":1895:1925  _transferOwnership(address(0)) */\n      jump\t// in\n    tag_171:\n        /* \"@openzeppelin/contracts/access/Ownable.sol\":1831:1932  function renounceOwnership() public virtual onlyOwner {... */\n      jump\t// out\n        /* \"contracts/TravelRuleProgram.sol\":4351:4957  function setAmlStatusForReceiver(... */\n    tag_40:\n        /* \"@openzeppelin/contracts/access/Ownable.sol\":1094:1107  _checkOwner() */\n      tag_174\n        /* \"@openzeppelin/contracts/access/Ownable.sol\":1094:1105  _checkOwner */\n      tag_76\n        /* \"@openzeppelin/contracts/access/Ownable.sol\":1094:1107  _checkOwner() */\n      jump\t// in\n    tag_174:\n        /* \"contracts/TravelRuleProgram.sol\":4501:4514  transactionId */\n      dup3\n        /* \"contracts/TravelRuleProgram.sol\":1381:1440  compareStrings(transactions[transactionId].sendersData, \"\") */\n      tag_176\n        /* \"contracts/TravelRuleProgram.sol\":1396:1408  transactions */\n      0x01\n        /* \"contracts/TravelRuleProgram.sol\":1409:1422  transactionId */\n      dup3\n        /* \"contracts/TravelRuleProgram.sol\":1396:1423  transactions[transactionId] */\n      dup2\n      sload\n      dup2\n      lt\n      tag_177\n      jumpi\n      tag_178\n      tag_81\n      jump\t// in\n    tag_178:\n    tag_177:\n      swap1\n      0x00\n      mstore\n      keccak256(0x00, 0x20)\n      swap1\n      0x06\n      mul\n      add\n        /* \"contracts/TravelRuleProgram.sol\":1396:1435  transactions[transactionId].sendersData */\n      0x03\n      add\n        /* \"contracts/TravelRuleProgram.sol\":1381:1440  compareStrings(transactions[transactionId].sendersData, \"\") */\n      dup1\n      sload\n      tag_180\n      swap1\n      tag_84\n      jump\t// in\n    tag_180:\n      dup1\n      0x1f\n      add\n      0x20\n      dup1\n      swap2\n      div\n      mul\n      0x20\n      add\n      mload(0x40)\n      swap1\n      dup2\n      add\n      0x40\n      mstore\n      dup1\n      swap3\n      swap2\n      swap1\n      dup2\n      dup2\n      mstore\n      0x20\n      add\n      dup3\n      dup1\n      sload\n      tag_181\n      swap1\n      tag_84\n      jump\t// in\n    tag_181:\n      dup1\n      iszero\n      tag_182\n      jumpi\n      dup1\n      0x1f\n      lt\n      tag_183\n      jumpi\n      0x0100\n      dup1\n      dup4\n      sload\n      div\n      mul\n      dup4\n      mstore\n      swap2\n      0x20\n      add\n      swap2\n      jump(tag_182)\n    tag_183:\n      dup3\n      add\n      swap2\n      swap1\n      0x00\n      mstore\n      keccak256(0x00, 0x20)\n      swap1\n    tag_184:\n      dup2\n      sload\n      dup2\n      mstore\n      swap1\n      0x01\n      add\n      swap1\n      0x20\n      add\n      dup1\n      dup4\n      gt\n      tag_184\n      jumpi\n      dup3\n      swap1\n      sub\n      0x1f\n      and\n      dup3\n      add\n      swap2\n    tag_182:\n      pop\n      pop\n      pop\n      pop\n      pop\n      mload(0x40)\n      dup1\n      0x20\n      add\n      0x40\n      mstore\n      dup1\n      0x00\n      dup2\n      mstore\n      pop\n        /* \"contracts/TravelRuleProgram.sol\":1381:1395  compareStrings */\n      tag_89\n        /* \"contracts/TravelRuleProgram.sol\":1381:1440  compareStrings(transactions[transactionId].sendersData, \"\") */\n      jump\t// in\n    tag_176:\n        /* \"contracts/TravelRuleProgram.sol\":1380:1440  !compareStrings(transactions[transactionId].sendersData, \"\") */\n      iszero\n        /* \"contracts/TravelRuleProgram.sol\":1372:1467  require(!compareStrings(transactions[transactionId].sendersData, \"\"), \"Only for completed AML\") */\n      tag_185\n      jumpi\n      mload(0x40)\n      0x08c379a000000000000000000000000000000000000000000000000000000000\n      dup2\n      mstore\n      0x04\n      add\n      tag_186\n      swap1\n      tag_92\n      jump\t// in\n    tag_186:\n      mload(0x40)\n      dup1\n      swap2\n      sub\n      swap1\n      revert\n    tag_185:\n        /* \"contracts/TravelRuleProgram.sol\":1486:1547  compareStrings(transactions[transactionId].receiversData, \"\") */\n      tag_187\n        /* \"contracts/TravelRuleProgram.sol\":1501:1513  transactions */\n      0x01\n        /* \"contracts/TravelRuleProgram.sol\":1514:1527  transactionId */\n      dup3\n        /* \"contracts/TravelRuleProgram.sol\":1501:1528  transactions[transactionId] */\n      dup2\n      sload\n      dup2\n      lt\n      tag_188\n      jumpi\n      tag_189\n      tag_81\n      jump\t// in\n    tag_189:\n    tag_188:\n      swap1\n      0x00\n      mstore\n      keccak256(0x00, 0x20)\n      swap1\n      0x06\n      mul\n      add\n        /* \"contracts/TravelRuleProgram.sol\":1501:1542  transactions[transactionId].receiversData */\n      0x04\n      add\n        /* \"contracts/TravelRuleProgram.sol\":1486:1547  compareStrings(transactions[transactionId].receiversData, \"\") */\n      dup1\n      sload\n      tag_191\n      swap1\n      tag_84\n      jump\t// in\n    tag_191:\n      dup1\n      0x1f\n      add\n      0x20\n      dup1\n      swap2\n      div\n      mul\n      0x20\n      add\n      mload(0x40)\n      swap1\n      dup2\n      add\n      0x40\n      mstore\n      dup1\n      swap3\n      swap2\n      swap1\n      dup2\n      dup2\n      mstore\n      0x20\n      add\n      dup3\n      dup1\n      sload\n      tag_192\n      swap1\n      tag_84\n      jump\t// in\n    tag_192:\n      dup1\n      iszero\n      tag_193\n      jumpi\n      dup1\n      0x1f\n      lt\n      tag_194\n      jumpi\n      0x0100\n      dup1\n      dup4\n      sload\n      div\n      mul\n      dup4\n      mstore\n      swap2\n      0x20\n      add\n      swap2\n      jump(tag_193)\n    tag_194:\n      dup3\n      add\n      swap2\n      swap1\n      0x00\n      mstore\n      keccak256(0x00, 0x20)\n      swap1\n    tag_195:\n      dup2\n      sload\n      dup2\n      mstore\n      swap1\n      0x01\n      add\n      swap1\n      0x20\n      add\n      dup1\n      dup4\n      gt\n      tag_195\n      jumpi\n      dup3\n      swap1\n      sub\n      0x1f\n      and\n      dup3\n      add\n      swap2\n    tag_193:\n      pop\n      pop\n      pop\n      pop\n      pop\n      mload(0x40)\n      dup1\n      0x20\n      add\n      0x40\n      mstore\n      dup1\n      0x00\n      dup2\n      mstore\n      pop\n        /* \"contracts/TravelRuleProgram.sol\":1486:1500  compareStrings */\n      tag_89\n        /* \"contracts/TravelRuleProgram.sol\":1486:1547  compareStrings(transactions[transactionId].receiversData, \"\") */\n      jump\t// in\n    tag_187:\n        /* \"contracts/TravelRuleProgram.sol\":1485:1547  !compareStrings(transactions[transactionId].receiversData, \"\") */\n      iszero\n        /* \"contracts/TravelRuleProgram.sol\":1477:1574  require(!compareStrings(transactions[transactionId].receiversData, \"\"), \"Only for completed AML\") */\n      tag_196\n      jumpi\n      mload(0x40)\n      0x08c379a000000000000000000000000000000000000000000000000000000000\n      dup2\n      mstore\n      0x04\n      add\n      tag_197\n      swap1\n      tag_92\n      jump\t// in\n    tag_197:\n      mload(0x40)\n      dup1\n      swap2\n      sub\n      swap1\n      revert\n    tag_196:\n        /* \"contracts/TravelRuleProgram.sol\":4580:4581  0 */\n      0x00\n        /* \"contracts/TravelRuleProgram.sol\":4534:4546  transactions */\n      0x01\n        /* \"contracts/TravelRuleProgram.sol\":4547:4560  transactionId */\n      dup6\n        /* \"contracts/TravelRuleProgram.sol\":4534:4561  transactions[transactionId] */\n      dup2\n      sload\n      dup2\n      lt\n      tag_199\n      jumpi\n      tag_200\n      tag_81\n      jump\t// in\n    tag_200:\n    tag_199:\n      swap1\n      0x00\n      mstore\n      keccak256(0x00, 0x20)\n      swap1\n      0x06\n      mul\n      add\n        /* \"contracts/TravelRuleProgram.sol\":4534:4576  transactions[transactionId].amlForReceiver */\n      0x05\n      add\n      0x01\n      swap1\n      sload\n      swap1\n      0x0100\n      exp\n      swap1\n      div\n      0xff\n      and\n        /* \"contracts/TravelRuleProgram.sol\":4534:4581  transactions[transactionId].amlForReceiver == 0 */\n      0xff\n      and\n      eq\n        /* \"contracts/TravelRuleProgram.sol\":4526:4636  require(transactions[transactionId].amlForReceiver == 0, \"Can not update transaction AML status: already set\") */\n      tag_202\n      jumpi\n      mload(0x40)\n      0x08c379a000000000000000000000000000000000000000000000000000000000\n      dup2\n      mstore\n      0x04\n      add\n      tag_203\n      swap1\n      tag_204\n      jump\t// in\n    tag_203:\n      mload(0x40)\n      dup1\n      swap2\n      sub\n      swap1\n      revert\n    tag_202:\n        /* \"contracts/TravelRuleProgram.sol\":4691:4697  status */\n      dup3\n        /* \"contracts/TravelRuleProgram.sol\":4646:4658  transactions */\n      0x01\n        /* \"contracts/TravelRuleProgram.sol\":4659:4672  transactionId */\n      dup6\n        /* \"contracts/TravelRuleProgram.sol\":4646:4673  transactions[transactionId] */\n      dup2\n      sload\n      dup2\n      lt\n      tag_205\n      jumpi\n      tag_206\n      tag_81\n      jump\t// in\n    tag_206:\n    tag_205:\n      swap1\n      0x00\n      mstore\n      keccak256(0x00, 0x20)\n      swap1\n      0x06\n      mul\n      add\n        /* \"contracts/TravelRuleProgram.sol\":4646:4688  transactions[transactionId].amlForReceiver */\n      0x05\n      add\n      0x01\n        /* \"contracts/TravelRuleProgram.sol\":4646:4697  transactions[transactionId].amlForReceiver = status */\n      0x0100\n      exp\n      dup2\n      sload\n      dup2\n      0xff\n      mul\n      not\n      and\n      swap1\n      dup4\n      0xff\n      and\n      mul\n      or\n      swap1\n      sstore\n      pop\n        /* \"contracts/TravelRuleProgram.sol\":4720:4729  emitEvent */\n      dup2\n        /* \"contracts/TravelRuleProgram.sol\":4716:4951  if (emitEvent) {... */\n      iszero\n      tag_208\n      jumpi\n        /* \"contracts/TravelRuleProgram.sol\":4750:4940  TransactionAmlStatusUpdated(... */\n      0x4cea1f87adb8c58c2d35aa0a3723745ff782300a0479866fc1e478a8740df8e5\n        /* \"contracts/TravelRuleProgram.sol\":4795:4808  transactionId */\n      dup5\n        /* \"contracts/TravelRuleProgram.sol\":4826:4838  transactions */\n      0x01\n        /* \"contracts/TravelRuleProgram.sol\":4839:4852  transactionId */\n      dup7\n        /* \"contracts/TravelRuleProgram.sol\":4826:4853  transactions[transactionId] */\n      dup2\n      sload\n      dup2\n      lt\n      tag_209\n      jumpi\n      tag_210\n      tag_81\n      jump\t// in\n    tag_210:\n    tag_209:\n      swap1\n      0x00\n      mstore\n      keccak256(0x00, 0x20)\n      swap1\n      0x06\n      mul\n      add\n        /* \"contracts/TravelRuleProgram.sol\":4826:4866  transactions[transactionId].amlForSender */\n      0x05\n      add\n      0x00\n      swap1\n      sload\n      swap1\n      0x0100\n      exp\n      swap1\n      div\n      0xff\n      and\n        /* \"contracts/TravelRuleProgram.sol\":4884:4896  transactions */\n      0x01\n        /* \"contracts/TravelRuleProgram.sol\":4897:4910  transactionId */\n      dup8\n        /* \"contracts/TravelRuleProgram.sol\":4884:4911  transactions[transactionId] */\n      dup2\n      sload\n      dup2\n      lt\n      tag_212\n      jumpi\n      tag_213\n      tag_81\n      jump\t// in\n    tag_213:\n    tag_212:\n      swap1\n      0x00\n      mstore\n      keccak256(0x00, 0x20)\n      swap1\n      0x06\n      mul\n      add\n        /* \"contracts/TravelRuleProgram.sol\":4884:4926  transactions[transactionId].amlForReceiver */\n      0x05\n      add\n      0x01\n      swap1\n      sload\n      swap1\n      0x0100\n      exp\n      swap1\n      div\n      0xff\n      and\n        /* \"contracts/TravelRuleProgram.sol\":4750:4940  TransactionAmlStatusUpdated(... */\n      mload(0x40)\n      tag_215\n      swap4\n      swap3\n      swap2\n      swap1\n      tag_108\n      jump\t// in\n    tag_215:\n      mload(0x40)\n      dup1\n      swap2\n      sub\n      swap1\n      log1\n        /* \"contracts/TravelRuleProgram.sol\":4716:4951  if (emitEvent) {... */\n    tag_208:\n        /* \"@openzeppelin/contracts/access/Ownable.sol\":1117:1118  _ */\n      pop\n        /* \"contracts/TravelRuleProgram.sol\":4351:4957  function setAmlStatusForReceiver(... */\n      pop\n      pop\n      pop\n      jump\t// out\n        /* \"contracts/TravelRuleProgram.sol\":4963:5170  function setAmlStatusForSender(... */\n    tag_44:\n        /* \"@openzeppelin/contracts/access/Ownable.sol\":1094:1107  _checkOwner() */\n      tag_217\n        /* \"@openzeppelin/contracts/access/Ownable.sol\":1094:1105  _checkOwner */\n      tag_76\n        /* \"@openzeppelin/contracts/access/Ownable.sol\":1094:1107  _checkOwner() */\n      jump\t// in\n    tag_217:\n        /* \"contracts/TravelRuleProgram.sol\":5087:5100  transactionId */\n      dup2\n        /* \"contracts/TravelRuleProgram.sol\":1381:1440  compareStrings(transactions[transactionId].sendersData, \"\") */\n      tag_219\n        /* \"contracts/TravelRuleProgram.sol\":1396:1408  transactions */\n      0x01\n        /* \"contracts/TravelRuleProgram.sol\":1409:1422  transactionId */\n      dup3\n        /* \"contracts/TravelRuleProgram.sol\":1396:1423  transactions[transactionId] */\n      dup2\n      sload\n      dup2\n      lt\n      tag_220\n      jumpi\n      tag_221\n      tag_81\n      jump\t// in\n    tag_221:\n    tag_220:\n      swap1\n      0x00\n      mstore\n      keccak256(0x00, 0x20)\n      swap1\n      0x06\n      mul\n      add\n        /* \"contracts/TravelRuleProgram.sol\":1396:1435  transactions[transactionId].sendersData */\n      0x03\n      add\n        /* \"contracts/TravelRuleProgram.sol\":1381:1440  compareStrings(transactions[transactionId].sendersData, \"\") */\n      dup1\n      sload\n      tag_223\n      swap1\n      tag_84\n      jump\t// in\n    tag_223:\n      dup1\n      0x1f\n      add\n      0x20\n      dup1\n      swap2\n      div\n      mul\n      0x20\n      add\n      mload(0x40)\n      swap1\n      dup2\n      add\n      0x40\n      mstore\n      dup1\n      swap3\n      swap2\n      swap1\n      dup2\n      dup2\n      mstore\n      0x20\n      add\n      dup3\n      dup1\n      sload\n      tag_224\n      swap1\n      tag_84\n      jump\t// in\n    tag_224:\n      dup1\n      iszero\n      tag_225\n      jumpi\n      dup1\n      0x1f\n      lt\n      tag_226\n      jumpi\n      0x0100\n      dup1\n      dup4\n      sload\n      div\n      mul\n      dup4\n      mstore\n      swap2\n      0x20\n      add\n      swap2\n      jump(tag_225)\n    tag_226:\n      dup3\n      add\n      swap2\n      swap1\n      0x00\n      mstore\n      keccak256(0x00, 0x20)\n      swap1\n    tag_227:\n      dup2\n      sload\n      dup2\n      mstore\n      swap1\n      0x01\n      add\n      swap1\n      0x20\n      add\n      dup1\n      dup4\n      gt\n      tag_227\n      jumpi\n      dup3\n      swap1\n      sub\n      0x1f\n      and\n      dup3\n      add\n      swap2\n    tag_225:\n      pop\n      pop\n      pop\n      pop\n      pop\n      mload(0x40)\n      dup1\n      0x20\n      add\n      0x40\n      mstore\n      dup1\n      0x00\n      dup2\n      mstore\n      pop\n        /* \"contracts/TravelRuleProgram.sol\":1381:1395  compareStrings */\n      tag_89\n        /* \"contracts/TravelRuleProgram.sol\":1381:1440  compareStrings(transactions[transactionId].sendersData, \"\") */\n      jump\t// in\n    tag_219:\n        /* \"contracts/TravelRuleProgram.sol\":1380:1440  !compareStrings(transactions[transactionId].sendersData, \"\") */\n      iszero\n        /* \"contracts/TravelRuleProgram.sol\":1372:1467  require(!compareStrings(transactions[transactionId].sendersData, \"\"), \"Only for completed AML\") */\n      tag_228\n      jumpi\n      mload(0x40)\n      0x08c379a000000000000000000000000000000000000000000000000000000000\n      dup2\n      mstore\n      0x04\n      add\n      tag_229\n      swap1\n      tag_92\n      jump\t// in\n    tag_229:\n      mload(0x40)\n      dup1\n      swap2\n      sub\n      swap1\n      revert\n    tag_228:\n        /* \"contracts/TravelRuleProgram.sol\":1486:1547  compareStrings(transactions[transactionId].receiversData, \"\") */\n      tag_230\n        /* \"contracts/TravelRuleProgram.sol\":1501:1513  transactions */\n      0x01\n        /* \"contracts/TravelRuleProgram.sol\":1514:1527  transactionId */\n      dup3\n        /* \"contracts/TravelRuleProgram.sol\":1501:1528  transactions[transactionId] */\n      dup2\n      sload\n      dup2\n      lt\n      tag_231\n      jumpi\n      tag_232\n      tag_81\n      jump\t// in\n    tag_232:\n    tag_231:\n      swap1\n      0x00\n      mstore\n      keccak256(0x00, 0x20)\n      swap1\n      0x06\n      mul\n      add\n        /* \"contracts/TravelRuleProgram.sol\":1501:1542  transactions[transactionId].receiversData */\n      0x04\n      add\n        /* \"contracts/TravelRuleProgram.sol\":1486:1547  compareStrings(transactions[transactionId].receiversData, \"\") */\n      dup1\n      sload\n      tag_234\n      swap1\n      tag_84\n      jump\t// in\n    tag_234:\n      dup1\n      0x1f\n      add\n      0x20\n      dup1\n      swap2\n      div\n      mul\n      0x20\n      add\n      mload(0x40)\n      swap1\n      dup2\n      add\n      0x40\n      mstore\n      dup1\n      swap3\n      swap2\n      swap1\n      dup2\n      dup2\n      mstore\n      0x20\n      add\n      dup3\n      dup1\n      sload\n      tag_235\n      swap1\n      tag_84\n      jump\t// in\n    tag_235:\n      dup1\n      iszero\n      tag_236\n      jumpi\n      dup1\n      0x1f\n      lt\n      tag_237\n      jumpi\n      0x0100\n      dup1\n      dup4\n      sload\n      div\n      mul\n      dup4\n      mstore\n      swap2\n      0x20\n      add\n      swap2\n      jump(tag_236)\n    tag_237:\n      dup3\n      add\n      swap2\n      swap1\n      0x00\n      mstore\n      keccak256(0x00, 0x20)\n      swap1\n    tag_238:\n      dup2\n      sload\n      dup2\n      mstore\n      swap1\n      0x01\n      add\n      swap1\n      0x20\n      add\n      dup1\n      dup4\n      gt\n      tag_238\n      jumpi\n      dup3\n      swap1\n      sub\n      0x1f\n      and\n      dup3\n      add\n      swap2\n    tag_236:\n      pop\n      pop\n      pop\n      pop\n      pop\n      mload(0x40)\n      dup1\n      0x20\n      add\n      0x40\n      mstore\n      dup1\n      0x00\n      dup2\n      mstore\n      pop\n        /* \"contracts/TravelRuleProgram.sol\":1486:1500  compareStrings */\n      tag_89\n        /* \"contracts/TravelRuleProgram.sol\":1486:1547  compareStrings(transactions[transactionId].receiversData, \"\") */\n      jump\t// in\n    tag_230:\n        /* \"contracts/TravelRuleProgram.sol\":1485:1547  !compareStrings(transactions[transactionId].receiversData, \"\") */\n      iszero\n        /* \"contracts/TravelRuleProgram.sol\":1477:1574  require(!compareStrings(transactions[transactionId].receiversData, \"\"), \"Only for completed AML\") */\n      tag_239\n      jumpi\n      mload(0x40)\n      0x08c379a000000000000000000000000000000000000000000000000000000000\n      dup2\n      mstore\n      0x04\n      add\n      tag_240\n      swap1\n      tag_92\n      jump\t// in\n    tag_240:\n      mload(0x40)\n      dup1\n      swap2\n      sub\n      swap1\n      revert\n    tag_239:\n        /* \"contracts/TravelRuleProgram.sol\":5112:5163  setAmlStatusForSender(transactionId, status, false) */\n      tag_242\n        /* \"contracts/TravelRuleProgram.sol\":5134:5147  transactionId */\n      dup4\n        /* \"contracts/TravelRuleProgram.sol\":5149:5155  status */\n      dup4\n        /* \"contracts/TravelRuleProgram.sol\":5157:5162  false */\n      0x00\n        /* \"contracts/TravelRuleProgram.sol\":5112:5133  setAmlStatusForSender */\n      tag_51\n        /* \"contracts/TravelRuleProgram.sol\":5112:5163  setAmlStatusForSender(transactionId, status, false) */\n      jump\t// in\n    tag_242:\n        /* \"@openzeppelin/contracts/access/Ownable.sol\":1117:1118  _ */\n      pop\n        /* \"contracts/TravelRuleProgram.sol\":4963:5170  function setAmlStatusForSender(... */\n      pop\n      pop\n      jump\t// out\n        /* \"@openzeppelin/contracts/access/Ownable.sol\":1201:1286  function owner() public view virtual returns (address) {... */\n    tag_46:\n        /* \"@openzeppelin/contracts/access/Ownable.sol\":1247:1254  address */\n      0x00\n        /* \"@openzeppelin/contracts/access/Ownable.sol\":1273:1279  _owner */\n      dup1\n      0x00\n      swap1\n      sload\n      swap1\n      0x0100\n      exp\n      swap1\n      div\n      0xffffffffffffffffffffffffffffffffffffffff\n      and\n        /* \"@openzeppelin/contracts/access/Ownable.sol\":1266:1279  return _owner */\n      swap1\n      pop\n        /* \"@openzeppelin/contracts/access/Ownable.sol\":1201:1286  function owner() public view virtual returns (address) {... */\n      swap1\n      jump\t// out\n        /* \"contracts/TravelRuleProgram.sol\":5176:5768  function setAmlStatusForSender(... */\n    tag_51:\n        /* \"@openzeppelin/contracts/access/Ownable.sol\":1094:1107  _checkOwner() */\n      tag_245\n        /* \"@openzeppelin/contracts/access/Ownable.sol\":1094:1105  _checkOwner */\n      tag_76\n        /* \"@openzeppelin/contracts/access/Ownable.sol\":1094:1107  _checkOwner() */\n      jump\t// in\n    tag_245:\n        /* \"contracts/TravelRuleProgram.sol\":5324:5337  transactionId */\n      dup3\n        /* \"contracts/TravelRuleProgram.sol\":1381:1440  compareStrings(transactions[transactionId].sendersData, \"\") */\n      tag_247\n        /* \"contracts/TravelRuleProgram.sol\":1396:1408  transactions */\n      0x01\n        /* \"contracts/TravelRuleProgram.sol\":1409:1422  transactionId */\n      dup3\n        /* \"contracts/TravelRuleProgram.sol\":1396:1423  transactions[transactionId] */\n      dup2\n      sload\n      dup2\n      lt\n      tag_248\n      jumpi\n      tag_249\n      tag_81\n      jump\t// in\n    tag_249:\n    tag_248:\n      swap1\n      0x00\n      mstore\n      keccak256(0x00, 0x20)\n      swap1\n      0x06\n      mul\n      add\n        /* \"contracts/TravelRuleProgram.sol\":1396:1435  transactions[transactionId].sendersData */\n      0x03\n      add\n        /* \"contracts/TravelRuleProgram.sol\":1381:1440  compareStrings(transactions[transactionId].sendersData, \"\") */\n      dup1\n      sload\n      tag_251\n      swap1\n      tag_84\n      jump\t// in\n    tag_251:\n      dup1\n      0x1f\n      add\n      0x20\n      dup1\n      swap2\n      div\n      mul\n      0x20\n      add\n      mload(0x40)\n      swap1\n      dup2\n      add\n      0x40\n      mstore\n      dup1\n      swap3\n      swap2\n      swap1\n      dup2\n      dup2\n      mstore\n      0x20\n      add\n      dup3\n      dup1\n      sload\n      tag_252\n      swap1\n      tag_84\n      jump\t// in\n    tag_252:\n      dup1\n      iszero\n      tag_253\n      jumpi\n      dup1\n      0x1f\n      lt\n      tag_254\n      jumpi\n      0x0100\n      dup1\n      dup4\n      sload\n      div\n      mul\n      dup4\n      mstore\n      swap2\n      0x20\n      add\n      swap2\n      jump(tag_253)\n    tag_254:\n      dup3\n      add\n      swap2\n      swap1\n      0x00\n      mstore\n      keccak256(0x00, 0x20)\n      swap1\n    tag_255:\n      dup2\n      sload\n      dup2\n      mstore\n      swap1\n      0x01\n      add\n      swap1\n      0x20\n      add\n      dup1\n      dup4\n      gt\n      tag_255\n      jumpi\n      dup3\n      swap1\n      sub\n      0x1f\n      and\n      dup3\n      add\n      swap2\n    tag_253:\n      pop\n      pop\n      pop\n      pop\n      pop\n      mload(0x40)\n      dup1\n      0x20\n      add\n      0x40\n      mstore\n      dup1\n      0x00\n      dup2\n      mstore\n      pop\n        /* \"contracts/TravelRuleProgram.sol\":1381:1395  compareStrings */\n      tag_89\n        /* \"contracts/TravelRuleProgram.sol\":1381:1440  compareStrings(transactions[transactionId].sendersData, \"\") */\n      jump\t// in\n    tag_247:\n        /* \"contracts/TravelRuleProgram.sol\":1380:1440  !compareStrings(transactions[transactionId].sendersData, \"\") */\n      iszero\n        /* \"contracts/TravelRuleProgram.sol\":1372:1467  require(!compareStrings(transactions[transactionId].sendersData, \"\"), \"Only for completed AML\") */\n      tag_256\n      jumpi\n      mload(0x40)\n      0x08c379a000000000000000000000000000000000000000000000000000000000\n      dup2\n      mstore\n      0x04\n      add\n      tag_257\n      swap1\n      tag_92\n      jump\t// in\n    tag_257:\n      mload(0x40)\n      dup1\n      swap2\n      sub\n      swap1\n      revert\n    tag_256:\n        /* \"contracts/TravelRuleProgram.sol\":1486:1547  compareStrings(transactions[transactionId].receiversData, \"\") */\n      tag_258\n        /* \"contracts/TravelRuleProgram.sol\":1501:1513  transactions */\n      0x01\n        /* \"contracts/TravelRuleProgram.sol\":1514:1527  transactionId */\n      dup3\n        /* \"contracts/TravelRuleProgram.sol\":1501:1528  transactions[transactionId] */\n      dup2\n      sload\n      dup2\n      lt\n      tag_259\n      jumpi\n      tag_260\n      tag_81\n      jump\t// in\n    tag_260:\n    tag_259:\n      swap1\n      0x00\n      mstore\n      keccak256(0x00, 0x20)\n      swap1\n      0x06\n      mul\n      add\n        /* \"contracts/TravelRuleProgram.sol\":1501:1542  transactions[transactionId].receiversData */\n      0x04\n      add\n        /* \"contracts/TravelRuleProgram.sol\":1486:1547  compareStrings(transactions[transactionId].receiversData, \"\") */\n      dup1\n      sload\n      tag_262\n      swap1\n      tag_84\n      jump\t// in\n    tag_262:\n      dup1\n      0x1f\n      add\n      0x20\n      dup1\n      swap2\n      div\n      mul\n      0x20\n      add\n      mload(0x40)\n      swap1\n      dup2\n      add\n      0x40\n      mstore\n      dup1\n      swap3\n      swap2\n      swap1\n      dup2\n      dup2\n      mstore\n      0x20\n      add\n      dup3\n      dup1\n      sload\n      tag_263\n      swap1\n      tag_84\n      jump\t// in\n    tag_263:\n      dup1\n      iszero\n      tag_264\n      jumpi\n      dup1\n      0x1f\n      lt\n      tag_265\n      jumpi\n      0x0100\n      dup1\n      dup4\n      sload\n      div\n      mul\n      dup4\n      mstore\n      swap2\n      0x20\n      add\n      swap2\n      jump(tag_264)\n    tag_265:\n      dup3\n      add\n      swap2\n      swap1\n      0x00\n      mstore\n      keccak256(0x00, 0x20)\n      swap1\n    tag_266:\n      dup2\n      sload\n      dup2\n      mstore\n      swap1\n      0x01\n      add\n      swap1\n      0x20\n      add\n      dup1\n      dup4\n      gt\n      tag_266\n      jumpi\n      dup3\n      swap1\n      sub\n      0x1f\n      and\n      dup3\n      add\n      swap2\n    tag_264:\n      pop\n      pop\n      pop\n      pop\n      pop\n      mload(0x40)\n      dup1\n      0x20\n      add\n      0x40\n      mstore\n      dup1\n      0x00\n      dup2\n      mstore\n      pop\n        /* \"contracts/TravelRuleProgram.sol\":1486:1500  compareStrings */\n      tag_89\n        /* \"contracts/TravelRuleProgram.sol\":1486:1547  compareStrings(transactions[transactionId].receiversData, \"\") */\n      jump\t// in\n    tag_258:\n        /* \"contracts/TravelRuleProgram.sol\":1485:1547  !compareStrings(transactions[transactionId].receiversData, \"\") */\n      iszero\n        /* \"contracts/TravelRuleProgram.sol\":1477:1574  require(!compareStrings(transactions[transactionId].receiversData, \"\"), \"Only for completed AML\") */\n      tag_267\n      jumpi\n      mload(0x40)\n      0x08c379a000000000000000000000000000000000000000000000000000000000\n      dup2\n      mstore\n      0x04\n      add\n      tag_268\n      swap1\n      tag_92\n      jump\t// in\n    tag_268:\n      mload(0x40)\n      dup1\n      swap2\n      sub\n      swap1\n      revert\n    tag_267:\n        /* \"contracts/TravelRuleProgram.sol\":5401:5402  0 */\n      0x00\n        /* \"contracts/TravelRuleProgram.sol\":5357:5369  transactions */\n      0x01\n        /* \"contracts/TravelRuleProgram.sol\":5370:5383  transactionId */\n      dup6\n        /* \"contracts/TravelRuleProgram.sol\":5357:5384  transactions[transactionId] */\n      dup2\n      sload\n      dup2\n      lt\n      tag_270\n      jumpi\n      tag_271\n      tag_81\n      jump\t// in\n    tag_271:\n    tag_270:\n      swap1\n      0x00\n      mstore\n      keccak256(0x00, 0x20)\n      swap1\n      0x06\n      mul\n      add\n        /* \"contracts/TravelRuleProgram.sol\":5357:5397  transactions[transactionId].amlForSender */\n      0x05\n      add\n      0x00\n      swap1\n      sload\n      swap1\n      0x0100\n      exp\n      swap1\n      div\n      0xff\n      and\n        /* \"contracts/TravelRuleProgram.sol\":5357:5402  transactions[transactionId].amlForSender == 0 */\n      0xff\n      and\n      eq\n        /* \"contracts/TravelRuleProgram.sol\":5349:5457  require(transactions[transactionId].amlForSender == 0, \"Can not update transaction AML status: already set\") */\n      tag_273\n      jumpi\n      mload(0x40)\n      0x08c379a000000000000000000000000000000000000000000000000000000000\n      dup2\n      mstore\n      0x04\n      add\n      tag_274\n      swap1\n      tag_204\n      jump\t// in\n    tag_274:\n      mload(0x40)\n      dup1\n      swap2\n      sub\n      swap1\n      revert\n    tag_273:\n        /* \"contracts/TravelRuleProgram.sol\":5510:5516  status */\n      dup3\n        /* \"contracts/TravelRuleProgram.sol\":5467:5479  transactions */\n      0x01\n        /* \"contracts/TravelRuleProgram.sol\":5480:5493  transactionId */\n      dup6\n        /* \"contracts/TravelRuleProgram.sol\":5467:5494  transactions[transactionId] */\n      dup2\n      sload\n      dup2\n      lt\n      tag_275\n      jumpi\n      tag_276\n      tag_81\n      jump\t// in\n    tag_276:\n    tag_275:\n      swap1\n      0x00\n      mstore\n      keccak256(0x00, 0x20)\n      swap1\n      0x06\n      mul\n      add\n        /* \"contracts/TravelRuleProgram.sol\":5467:5507  transactions[transactionId].amlForSender */\n      0x05\n      add\n      0x00\n        /* \"contracts/TravelRuleProgram.sol\":5467:5516  transactions[transactionId].amlForSender = status */\n      0x0100\n      exp\n      dup2\n      sload\n      dup2\n      0xff\n      mul\n      not\n      and\n      swap1\n      dup4\n      0xff\n      and\n      mul\n      or\n      swap1\n      sstore\n      pop\n        /* \"contracts/TravelRuleProgram.sol\":5531:5540  emitEvent */\n      dup2\n        /* \"contracts/TravelRuleProgram.sol\":5527:5762  if (emitEvent) {... */\n      iszero\n      tag_278\n      jumpi\n        /* \"contracts/TravelRuleProgram.sol\":5561:5751  TransactionAmlStatusUpdated(... */\n      0x4cea1f87adb8c58c2d35aa0a3723745ff782300a0479866fc1e478a8740df8e5\n        /* \"contracts/TravelRuleProgram.sol\":5606:5619  transactionId */\n      dup5\n        /* \"contracts/TravelRuleProgram.sol\":5637:5649  transactions */\n      0x01\n        /* \"contracts/TravelRuleProgram.sol\":5650:5663  transactionId */\n      dup7\n        /* \"contracts/TravelRuleProgram.sol\":5637:5664  transactions[transactionId] */\n      dup2\n      sload\n      dup2\n      lt\n      tag_279\n      jumpi\n      tag_280\n      tag_81\n      jump\t// in\n    tag_280:\n    tag_279:\n      swap1\n      0x00\n      mstore\n      keccak256(0x00, 0x20)\n      swap1\n      0x06\n      mul\n      add\n        /* \"contracts/TravelRuleProgram.sol\":5637:5677  transactions[transactionId].amlForSender */\n      0x05\n      add\n      0x00\n      swap1\n      sload\n      swap1\n      0x0100\n      exp\n      swap1\n      div\n      0xff\n      and\n        /* \"contracts/TravelRuleProgram.sol\":5695:5707  transactions */\n      0x01\n        /* \"contracts/TravelRuleProgram.sol\":5708:5721  transactionId */\n      dup8\n        /* \"contracts/TravelRuleProgram.sol\":5695:5722  transactions[transactionId] */\n      dup2\n      sload\n      dup2\n      lt\n      tag_282\n      jumpi\n      tag_283\n      tag_81\n      jump\t// in\n    tag_283:\n    tag_282:\n      swap1\n      0x00\n      mstore\n      keccak256(0x00, 0x20)\n      swap1\n      0x06\n      mul\n      add\n        /* \"contracts/TravelRuleProgram.sol\":5695:5737  transactions[transactionId].amlForReceiver */\n      0x05\n      add\n      0x01\n      swap1\n      sload\n      swap1\n      0x0100\n      exp\n      swap1\n      div\n      0xff\n      and\n        /* \"contracts/TravelRuleProgram.sol\":5561:5751  TransactionAmlStatusUpdated(... */\n      mload(0x40)\n      tag_285\n      swap4\n      swap3\n      swap2\n      swap1\n      tag_108\n      jump\t// in\n    tag_285:\n      mload(0x40)\n      dup1\n      swap2\n      sub\n      swap1\n      log1\n        /* \"contracts/TravelRuleProgram.sol\":5527:5762  if (emitEvent) {... */\n    tag_278:\n        /* \"@openzeppelin/contracts/access/Ownable.sol\":1117:1118  _ */\n      pop\n        /* \"contracts/TravelRuleProgram.sol\":5176:5768  function setAmlStatusForSender(... */\n      pop\n      pop\n      pop\n      jump\t// out\n        /* \"contracts/TravelRuleProgram.sol\":1598:2003  function addTransaction(... */\n    tag_55:\n        /* \"contracts/TravelRuleProgram.sol\":1720:1727  uint256 */\n      0x00\n        /* \"contracts/TravelRuleProgram.sol\":1739:1749  uint256 id */\n      dup1\n        /* \"contracts/TravelRuleProgram.sol\":1752:1764  transactions */\n      0x01\n        /* \"contracts/TravelRuleProgram.sol\":1752:1771  transactions.length */\n      dup1\n      sload\n      swap1\n      pop\n        /* \"contracts/TravelRuleProgram.sol\":1739:1771  uint256 id = transactions.length */\n      swap1\n      pop\n        /* \"contracts/TravelRuleProgram.sol\":1781:1793  transactions */\n      0x01\n        /* \"contracts/TravelRuleProgram.sol\":1799:1941  Transaction(... */\n      mload(0x40)\n      dup1\n      0xe0\n      add\n      0x40\n      mstore\n      dup1\n        /* \"contracts/TravelRuleProgram.sol\":1824:1826  id */\n      dup4\n        /* \"contracts/TravelRuleProgram.sol\":1799:1941  Transaction(... */\n      dup2\n      mstore\n      0x20\n      add\n        /* \"contracts/TravelRuleProgram.sol\":1840:1844  from */\n      dup8\n        /* \"contracts/TravelRuleProgram.sol\":1799:1941  Transaction(... */\n      0xffffffffffffffffffffffffffffffffffffffff\n      and\n      dup2\n      mstore\n      0x20\n      add\n        /* \"contracts/TravelRuleProgram.sol\":1858:1860  to */\n      dup7\n        /* \"contracts/TravelRuleProgram.sol\":1799:1941  Transaction(... */\n      0xffffffffffffffffffffffffffffffffffffffff\n      and\n      dup2\n      mstore\n      0x20\n      add\n        /* \"contracts/TravelRuleProgram.sol\":1874:1885  sendersData */\n      dup6\n        /* \"contracts/TravelRuleProgram.sol\":1799:1941  Transaction(... */\n      dup2\n      mstore\n      0x20\n      add\n      mload(0x40)\n      dup1\n      0x20\n      add\n      0x40\n      mstore\n      dup1\n      0x00\n      dup2\n      mstore\n      pop\n      dup2\n      mstore\n      0x20\n      add\n        /* \"contracts/TravelRuleProgram.sol\":1915:1916  0 */\n      0x00\n        /* \"contracts/TravelRuleProgram.sol\":1799:1941  Transaction(... */\n      0xff\n      and\n      dup2\n      mstore\n      0x20\n      add\n        /* \"contracts/TravelRuleProgram.sol\":1930:1931  0 */\n      0x00\n        /* \"contracts/TravelRuleProgram.sol\":1799:1941  Transaction(... */\n      0xff\n      and\n      dup2\n      mstore\n      pop\n        /* \"contracts/TravelRuleProgram.sol\":1781:1942  transactions.push(Transaction(... */\n      swap1\n      dup1\n      0x01\n      dup2\n      sload\n      add\n      dup1\n      dup3\n      sstore\n      dup1\n      swap2\n      pop\n      pop\n      0x01\n      swap1\n      sub\n      swap1\n      0x00\n      mstore\n      keccak256(0x00, 0x20)\n      swap1\n      0x06\n      mul\n      add\n      0x00\n      swap1\n      swap2\n      swap1\n      swap2\n      swap1\n      swap2\n      pop\n      0x00\n      dup3\n      add\n      mload\n      dup2\n      0x00\n      add\n      sstore\n      0x20\n      dup3\n      add\n      mload\n      dup2\n      0x01\n      add\n      exp(0x0100, 0x00)\n      dup2\n      sload\n      dup2\n      0xffffffffffffffffffffffffffffffffffffffff\n      mul\n      not\n      and\n      swap1\n      dup4\n      0xffffffffffffffffffffffffffffffffffffffff\n      and\n      mul\n      or\n      swap1\n      sstore\n      pop\n      0x40\n      dup3\n      add\n      mload\n      dup2\n      0x02\n      add\n      exp(0x0100, 0x00)\n      dup2\n      sload\n      dup2\n      0xffffffffffffffffffffffffffffffffffffffff\n      mul\n      not\n      and\n      swap1\n      dup4\n      0xffffffffffffffffffffffffffffffffffffffff\n      and\n      mul\n      or\n      swap1\n      sstore\n      pop\n      0x60\n      dup3\n      add\n      mload\n      dup2\n      0x03\n      add\n      swap1\n      dup1\n      mload\n      swap1\n      0x20\n      add\n      swap1\n      tag_288\n      swap3\n      swap2\n      swap1\n      tag_289\n      jump\t// in\n    tag_288:\n      pop\n      0x80\n      dup3\n      add\n      mload\n      dup2\n      0x04\n      add\n      swap1\n      dup1\n      mload\n      swap1\n      0x20\n      add\n      swap1\n      tag_290\n      swap3\n      swap2\n      swap1\n      tag_289\n      jump\t// in\n    tag_290:\n      pop\n      0xa0\n      dup3\n      add\n      mload\n      dup2\n      0x05\n      add\n      exp(0x0100, 0x00)\n      dup2\n      sload\n      dup2\n      0xff\n      mul\n      not\n      and\n      swap1\n      dup4\n      0xff\n      and\n      mul\n      or\n      swap1\n      sstore\n      pop\n      0xc0\n      dup3\n      add\n      mload\n      dup2\n      0x05\n      add\n      exp(0x0100, 0x01)\n      dup2\n      sload\n      dup2\n      0xff\n      mul\n      not\n      and\n      swap1\n      dup4\n      0xff\n      and\n      mul\n      or\n      swap1\n      sstore\n      pop\n      pop\n      pop\n        /* \"contracts/TravelRuleProgram.sol\":1958:1976  AddTransaction(id) */\n      0x9ae2c53c3ca5e00a02cd45d501b75b8f6aeb8e6fe512b7bbe1e8691b9d3c8ce8\n        /* \"contracts/TravelRuleProgram.sol\":1973:1975  id */\n      dup2\n        /* \"contracts/TravelRuleProgram.sol\":1958:1976  AddTransaction(id) */\n      mload(0x40)\n      tag_291\n      swap2\n      swap1\n      tag_57\n      jump\t// in\n    tag_291:\n      mload(0x40)\n      dup1\n      swap2\n      sub\n      swap1\n      log1\n        /* \"contracts/TravelRuleProgram.sol\":1994:1996  id */\n      dup1\n        /* \"contracts/TravelRuleProgram.sol\":1987:1996  return id */\n      swap2\n      pop\n      pop\n        /* \"contracts/TravelRuleProgram.sol\":1598:2003  function addTransaction(... */\n      swap4\n      swap3\n      pop\n      pop\n      pop\n      jump\t// out\n        /* \"contracts/TravelRuleProgram.sol\":2009:2492  function updateReceiversData(... */\n    tag_61:\n        /* \"contracts/TravelRuleProgram.sol\":2129:2159  Transaction memory transaction */\n      0x00\n        /* \"contracts/TravelRuleProgram.sol\":2162:2174  transactions */\n      0x01\n        /* \"contracts/TravelRuleProgram.sol\":2175:2188  transactionId */\n      dup4\n        /* \"contracts/TravelRuleProgram.sol\":2162:2189  transactions[transactionId] */\n      dup2\n      sload\n      dup2\n      lt\n      tag_293\n      jumpi\n      tag_294\n      tag_81\n      jump\t// in\n    tag_294:\n    tag_293:\n      swap1\n      0x00\n      mstore\n      keccak256(0x00, 0x20)\n      swap1\n      0x06\n      mul\n      add\n        /* \"contracts/TravelRuleProgram.sol\":2129:2189  Transaction memory transaction = transactions[transactionId] */\n      mload(0x40)\n      dup1\n      0xe0\n      add\n      0x40\n      mstore\n      swap1\n      dup2\n      0x00\n      dup3\n      add\n      sload\n      dup2\n      mstore\n      0x20\n      add\n      0x01\n      dup3\n      add\n      0x00\n      swap1\n      sload\n      swap1\n      0x0100\n      exp\n      swap1\n      div\n      0xffffffffffffffffffffffffffffffffffffffff\n      and\n      0xffffffffffffffffffffffffffffffffffffffff\n      and\n      0xffffffffffffffffffffffffffffffffffffffff\n      and\n      dup2\n      mstore\n      0x20\n      add\n      0x02\n      dup3\n      add\n      0x00\n      swap1\n      sload\n      swap1\n      0x0100\n      exp\n      swap1\n      div\n      0xffffffffffffffffffffffffffffffffffffffff\n      and\n      0xffffffffffffffffffffffffffffffffffffffff\n      and\n      0xffffffffffffffffffffffffffffffffffffffff\n      and\n      dup2\n      mstore\n      0x20\n      add\n      0x03\n      dup3\n      add\n      dup1\n      sload\n      tag_296\n      swap1\n      tag_84\n      jump\t// in\n    tag_296:\n      dup1\n      0x1f\n      add\n      0x20\n      dup1\n      swap2\n      div\n      mul\n      0x20\n      add\n      mload(0x40)\n      swap1\n      dup2\n      add\n      0x40\n      mstore\n      dup1\n      swap3\n      swap2\n      swap1\n      dup2\n      dup2\n      mstore\n      0x20\n      add\n      dup3\n      dup1\n      sload\n      tag_297\n      swap1\n      tag_84\n      jump\t// in\n    tag_297:\n      dup1\n      iszero\n      tag_298\n      jumpi\n      dup1\n      0x1f\n      lt\n      tag_299\n      jumpi\n      0x0100\n      dup1\n      dup4\n      sload\n      div\n      mul\n      dup4\n      mstore\n      swap2\n      0x20\n      add\n      swap2\n      jump(tag_298)\n    tag_299:\n      dup3\n      add\n      swap2\n      swap1\n      0x00\n      mstore\n      keccak256(0x00, 0x20)\n      swap1\n    tag_300:\n      dup2\n      sload\n      dup2\n      mstore\n      swap1\n      0x01\n      add\n      swap1\n      0x20\n      add\n      dup1\n      dup4\n      gt\n      tag_300\n      jumpi\n      dup3\n      swap1\n      sub\n      0x1f\n      and\n      dup3\n      add\n      swap2\n    tag_298:\n      pop\n      pop\n      pop\n      pop\n      pop\n      dup2\n      mstore\n      0x20\n      add\n      0x04\n      dup3\n      add\n      dup1\n      sload\n      tag_301\n      swap1\n      tag_84\n      jump\t// in\n    tag_301:\n      dup1\n      0x1f\n      add\n      0x20\n      dup1\n      swap2\n      div\n      mul\n      0x20\n      add\n      mload(0x40)\n      swap1\n      dup2\n      add\n      0x40\n      mstore\n      dup1\n      swap3\n      swap2\n      swap1\n      dup2\n      dup2\n      mstore\n      0x20\n      add\n      dup3\n      dup1\n      sload\n      tag_302\n      swap1\n      tag_84\n      jump\t// in\n    tag_302:\n      dup1\n      iszero\n      tag_303\n      jumpi\n      dup1\n      0x1f\n      lt\n      tag_304\n      jumpi\n      0x0100\n      dup1\n      dup4\n      sload\n      div\n      mul\n      dup4\n      mstore\n      swap2\n      0x20\n      add\n      swap2\n      jump(tag_303)\n    tag_304:\n      dup3\n      add\n      swap2\n      swap1\n      0x00\n      mstore\n      keccak256(0x00, 0x20)\n      swap1\n    tag_305:\n      dup2\n      sload\n      dup2\n      mstore\n      swap1\n      0x01\n      add\n      swap1\n      0x20\n      add\n      dup1\n      dup4\n      gt\n      tag_305\n      jumpi\n      dup3\n      swap1\n      sub\n      0x1f\n      and\n      dup3\n      add\n      swap2\n    tag_303:\n      pop\n      pop\n      pop\n      pop\n      pop\n      dup2\n      mstore\n      0x20\n      add\n      0x05\n      dup3\n      add\n      0x00\n      swap1\n      sload\n      swap1\n      0x0100\n      exp\n      swap1\n      div\n      0xff\n      and\n      0xff\n      and\n      0xff\n      and\n      dup2\n      mstore\n      0x20\n      add\n      0x05\n      dup3\n      add\n      0x01\n      swap1\n      sload\n      swap1\n      0x0100\n      exp\n      swap1\n      div\n      0xff\n      and\n      0xff\n      and\n      0xff\n      and\n      dup2\n      mstore\n      pop\n      pop\n      swap1\n      pop\n        /* \"contracts/TravelRuleProgram.sol\":2216:2261  compareStrings(transaction.receiversData, \"\") */\n      tag_306\n        /* \"contracts/TravelRuleProgram.sol\":2231:2242  transaction */\n      dup2\n        /* \"contracts/TravelRuleProgram.sol\":2231:2256  transaction.receiversData */\n      0x80\n      add\n      mload\n        /* \"contracts/TravelRuleProgram.sol\":2216:2261  compareStrings(transaction.receiversData, \"\") */\n      mload(0x40)\n      dup1\n      0x20\n      add\n      0x40\n      mstore\n      dup1\n      0x00\n      dup2\n      mstore\n      pop\n        /* \"contracts/TravelRuleProgram.sol\":2216:2230  compareStrings */\n      tag_89\n        /* \"contracts/TravelRuleProgram.sol\":2216:2261  compareStrings(transaction.receiversData, \"\") */\n      jump\t// in\n    tag_306:\n        /* \"contracts/TravelRuleProgram.sol\":2208:2327  require(compareStrings(transaction.receiversData, \"\"), \"Can not update receiver. Transaction already has been updated\") */\n      tag_307\n      jumpi\n      mload(0x40)\n      0x08c379a000000000000000000000000000000000000000000000000000000000\n      dup2\n      mstore\n      0x04\n      add\n      tag_308\n      swap1\n      tag_309\n      jump\t// in\n    tag_308:\n      mload(0x40)\n      dup1\n      swap2\n      sub\n      swap1\n      revert\n    tag_307:\n        /* \"contracts/TravelRuleProgram.sol\":2363:2373  msg.sender */\n      caller\n        /* \"contracts/TravelRuleProgram.sol\":2345:2373  transaction.to == msg.sender */\n      0xffffffffffffffffffffffffffffffffffffffff\n      and\n        /* \"contracts/TravelRuleProgram.sol\":2345:2356  transaction */\n      dup2\n        /* \"contracts/TravelRuleProgram.sol\":2345:2359  transaction.to */\n      0x40\n      add\n      mload\n        /* \"contracts/TravelRuleProgram.sol\":2345:2373  transaction.to == msg.sender */\n      0xffffffffffffffffffffffffffffffffffffffff\n      and\n      eq\n        /* \"contracts/TravelRuleProgram.sol\":2337:2417  require(transaction.to == msg.sender, \"Can not update receiver. Invalid sender\") */\n      tag_310\n      jumpi\n      mload(0x40)\n      0x08c379a000000000000000000000000000000000000000000000000000000000\n      dup2\n      mstore\n      0x04\n      add\n      tag_311\n      swap1\n      tag_312\n      jump\t// in\n    tag_311:\n      mload(0x40)\n      dup1\n      swap2\n      sub\n      swap1\n      revert\n    tag_310:\n        /* \"contracts/TravelRuleProgram.sol\":2472:2485  receiversData */\n      dup2\n        /* \"contracts/TravelRuleProgram.sol\":2428:2440  transactions */\n      0x01\n        /* \"contracts/TravelRuleProgram.sol\":2441:2454  transactionId */\n      dup5\n        /* \"contracts/TravelRuleProgram.sol\":2428:2455  transactions[transactionId] */\n      dup2\n      sload\n      dup2\n      lt\n      tag_313\n      jumpi\n      tag_314\n      tag_81\n      jump\t// in\n    tag_314:\n    tag_313:\n      swap1\n      0x00\n      mstore\n      keccak256(0x00, 0x20)\n      swap1\n      0x06\n      mul\n      add\n        /* \"contracts/TravelRuleProgram.sol\":2428:2469  transactions[transactionId].receiversData */\n      0x04\n      add\n        /* \"contracts/TravelRuleProgram.sol\":2428:2485  transactions[transactionId].receiversData = receiversData */\n      swap1\n      dup1\n      mload\n      swap1\n      0x20\n      add\n      swap1\n      tag_316\n      swap3\n      swap2\n      swap1\n      tag_289\n      jump\t// in\n    tag_316:\n      pop\n        /* \"contracts/TravelRuleProgram.sol\":2119:2492  {... */\n      pop\n        /* \"contracts/TravelRuleProgram.sol\":2009:2492  function updateReceiversData(... */\n      pop\n      pop\n      jump\t// out\n        /* \"contracts/TravelRuleProgram.sol\":4134:4345  function setAmlStatusForReceiver(... */\n    tag_64:\n        /* \"@openzeppelin/contracts/access/Ownable.sol\":1094:1107  _checkOwner() */\n      tag_318\n        /* \"@openzeppelin/contracts/access/Ownable.sol\":1094:1105  _checkOwner */\n      tag_76\n        /* \"@openzeppelin/contracts/access/Ownable.sol\":1094:1107  _checkOwner() */\n      jump\t// in\n    tag_318:\n        /* \"contracts/TravelRuleProgram.sol\":4260:4273  transactionId */\n      dup2\n        /* \"contracts/TravelRuleProgram.sol\":1381:1440  compareStrings(transactions[transactionId].sendersData, \"\") */\n      tag_320\n        /* \"contracts/TravelRuleProgram.sol\":1396:1408  transactions */\n      0x01\n        /* \"contracts/TravelRuleProgram.sol\":1409:1422  transactionId */\n      dup3\n        /* \"contracts/TravelRuleProgram.sol\":1396:1423  transactions[transactionId] */\n      dup2\n      sload\n      dup2\n      lt\n      tag_321\n      jumpi\n      tag_322\n      tag_81\n      jump\t// in\n    tag_322:\n    tag_321:\n      swap1\n      0x00\n      mstore\n      keccak256(0x00, 0x20)\n      swap1\n      0x06\n      mul\n      add\n        /* \"contracts/TravelRuleProgram.sol\":1396:1435  transactions[transactionId].sendersData */\n      0x03\n      add\n        /* \"contracts/TravelRuleProgram.sol\":1381:1440  compareStrings(transactions[transactionId].sendersData, \"\") */\n      dup1\n      sload\n      tag_324\n      swap1\n      tag_84\n      jump\t// in\n    tag_324:\n      dup1\n      0x1f\n      add\n      0x20\n      dup1\n      swap2\n      div\n      mul\n      0x20\n      add\n      mload(0x40)\n      swap1\n      dup2\n      add\n      0x40\n      mstore\n      dup1\n      swap3\n      swap2\n      swap1\n      dup2\n      dup2\n      mstore\n      0x20\n      add\n      dup3\n      dup1\n      sload\n      tag_325\n      swap1\n      tag_84\n      jump\t// in\n    tag_325:\n      dup1\n      iszero\n      tag_326\n      jumpi\n      dup1\n      0x1f\n      lt\n      tag_327\n      jumpi\n      0x0100\n      dup1\n      dup4\n      sload\n      div\n      mul\n      dup4\n      mstore\n      swap2\n      0x20\n      add\n      swap2\n      jump(tag_326)\n    tag_327:\n      dup3\n      add\n      swap2\n      swap1\n      0x00\n      mstore\n      keccak256(0x00, 0x20)\n      swap1\n    tag_328:\n      dup2\n      sload\n      dup2\n      mstore\n      swap1\n      0x01\n      add\n      swap1\n      0x20\n      add\n      dup1\n      dup4\n      gt\n      tag_328\n      jumpi\n      dup3\n      swap1\n      sub\n      0x1f\n      and\n      dup3\n      add\n      swap2\n    tag_326:\n      pop\n      pop\n      pop\n      pop\n      pop\n      mload(0x40)\n      dup1\n      0x20\n      add\n      0x40\n      mstore\n      dup1\n      0x00\n      dup2\n      mstore\n      pop\n        /* \"contracts/TravelRuleProgram.sol\":1381:1395  compareStrings */\n      tag_89\n        /* \"contracts/TravelRuleProgram.sol\":1381:1440  compareStrings(transactions[transactionId].sendersData, \"\") */\n      jump\t// in\n    tag_320:\n        /* \"contracts/TravelRuleProgram.sol\":1380:1440  !compareStrings(transactions[transactionId].sendersData, \"\") */\n      iszero\n        /* \"contracts/TravelRuleProgram.sol\":1372:1467  require(!compareStrings(transactions[transactionId].sendersData, \"\"), \"Only for completed AML\") */\n      tag_329\n      jumpi\n      mload(0x40)\n      0x08c379a000000000000000000000000000000000000000000000000000000000\n      dup2\n      mstore\n      0x04\n      add\n      tag_330\n      swap1\n      tag_92\n      jump\t// in\n    tag_330:\n      mload(0x40)\n      dup1\n      swap2\n      sub\n      swap1\n      revert\n    tag_329:\n        /* \"contracts/TravelRuleProgram.sol\":1486:1547  compareStrings(transactions[transactionId].receiversData, \"\") */\n      tag_331\n        /* \"contracts/TravelRuleProgram.sol\":1501:1513  transactions */\n      0x01\n        /* \"contracts/TravelRuleProgram.sol\":1514:1527  transactionId */\n      dup3\n        /* \"contracts/TravelRuleProgram.sol\":1501:1528  transactions[transactionId] */\n      dup2\n      sload\n      dup2\n      lt\n      tag_332\n      jumpi\n      tag_333\n      tag_81\n      jump\t// in\n    tag_333:\n    tag_332:\n      swap1\n      0x00\n      mstore\n      keccak256(0x00, 0x20)\n      swap1\n      0x06\n      mul\n      add\n        /* \"contracts/TravelRuleProgram.sol\":1501:1542  transactions[transactionId].receiversData */\n      0x04\n      add\n        /* \"contracts/TravelRuleProgram.sol\":1486:1547  compareStrings(transactions[transactionId].receiversData, \"\") */\n      dup1\n      sload\n      tag_335\n      swap1\n      tag_84\n      jump\t// in\n    tag_335:\n      dup1\n      0x1f\n      add\n      0x20\n      dup1\n      swap2\n      div\n      mul\n      0x20\n      add\n      mload(0x40)\n      swap1\n      dup2\n      add\n      0x40\n      mstore\n      dup1\n      swap3\n      swap2\n      swap1\n      dup2\n      dup2\n      mstore\n      0x20\n      add\n      dup3\n      dup1\n      sload\n      tag_336\n      swap1\n      tag_84\n      jump\t// in\n    tag_336:\n      dup1\n      iszero\n      tag_337\n      jumpi\n      dup1\n      0x1f\n      lt\n      tag_338\n      jumpi\n      0x0100\n      dup1\n      dup4\n      sload\n      div\n      mul\n      dup4\n      mstore\n      swap2\n      0x20\n      add\n      swap2\n      jump(tag_337)\n    tag_338:\n      dup3\n      add\n      swap2\n      swap1\n      0x00\n      mstore\n      keccak256(0x00, 0x20)\n      swap1\n    tag_339:\n      dup2\n      sload\n      dup2\n      mstore\n      swap1\n      0x01\n      add\n      swap1\n      0x20\n      add\n      dup1\n      dup4\n      gt\n      tag_339\n      jumpi\n      dup3\n      swap1\n      sub\n      0x1f\n      and\n      dup3\n      add\n      swap2\n    tag_337:\n      pop\n      pop\n      pop\n      pop\n      pop\n      mload(0x40)\n      dup1\n      0x20\n      add\n      0x40\n      mstore\n      dup1\n      0x00\n      dup2\n      mstore\n      pop\n        /* \"contracts/TravelRuleProgram.sol\":1486:1500  compareStrings */\n      tag_89\n        /* \"contracts/TravelRuleProgram.sol\":1486:1547  compareStrings(transactions[transactionId].receiversData, \"\") */\n      jump\t// in\n    tag_331:\n        /* \"contracts/TravelRuleProgram.sol\":1485:1547  !compareStrings(transactions[transactionId].receiversData, \"\") */\n      iszero\n        /* \"contracts/TravelRuleProgram.sol\":1477:1574  require(!compareStrings(transactions[transactionId].receiversData, \"\"), \"Only for completed AML\") */\n      tag_340\n      jumpi\n      mload(0x40)\n      0x08c379a000000000000000000000000000000000000000000000000000000000\n      dup2\n      mstore\n      0x04\n      add\n      tag_341\n      swap1\n      tag_92\n      jump\t// in\n    tag_341:\n      mload(0x40)\n      dup1\n      swap2\n      sub\n      swap1\n      revert\n    tag_340:\n        /* \"contracts/TravelRuleProgram.sol\":4285:4338  setAmlStatusForReceiver(transactionId, status, false) */\n      tag_343\n        /* \"contracts/TravelRuleProgram.sol\":4309:4322  transactionId */\n      dup4\n        /* \"contracts/TravelRuleProgram.sol\":4324:4330  status */\n      dup4\n        /* \"contracts/TravelRuleProgram.sol\":4332:4337  false */\n      0x00\n        /* \"contracts/TravelRuleProgram.sol\":4285:4308  setAmlStatusForReceiver */\n      tag_40\n        /* \"contracts/TravelRuleProgram.sol\":4285:4338  setAmlStatusForReceiver(transactionId, status, false) */\n      jump\t// in\n    tag_343:\n        /* \"@openzeppelin/contracts/access/Ownable.sol\":1117:1118  _ */\n      pop\n        /* \"contracts/TravelRuleProgram.sol\":4134:4345  function setAmlStatusForReceiver(... */\n      pop\n      pop\n      jump\t// out\n        /* \"contracts/TravelRuleProgram.sol\":3224:4128  function getTransactionsForReceiver(address to, uint256 count) public view returns(Transaction[] memory) {... */\n    tag_68:\n        /* \"contracts/TravelRuleProgram.sol\":3307:3327  Transaction[] memory */\n      0x60\n        /* \"contracts/TravelRuleProgram.sol\":3355:3358  100 */\n      0x64\n        /* \"contracts/TravelRuleProgram.sol\":3347:3352  count */\n      dup3\n        /* \"contracts/TravelRuleProgram.sol\":3347:3358  count < 100 */\n      lt\n        /* \"contracts/TravelRuleProgram.sol\":3339:3431  require(count < 100, \"Can not get transactions list. The maximum transactions count is 100\") */\n      tag_345\n      jumpi\n      mload(0x40)\n      0x08c379a000000000000000000000000000000000000000000000000000000000\n      dup2\n      mstore\n      0x04\n      add\n      tag_346\n      swap1\n      tag_131\n      jump\t// in\n    tag_346:\n      mload(0x40)\n      dup1\n      swap2\n      sub\n      swap1\n      revert\n    tag_345:\n        /* \"contracts/TravelRuleProgram.sol\":3442:3461  uint256 resultCount */\n      0x00\n        /* \"contracts/TravelRuleProgram.sol\":3477:3483  uint i */\n      dup1\n        /* \"contracts/TravelRuleProgram.sol\":3486:3487  0 */\n      0x00\n        /* \"contracts/TravelRuleProgram.sol\":3477:3487  uint i = 0 */\n      swap1\n      pop\n        /* \"contracts/TravelRuleProgram.sol\":3472:3619  for (uint i = 0; i < transactions.length; i++) {... */\n    tag_347:\n        /* \"contracts/TravelRuleProgram.sol\":3493:3505  transactions */\n      0x01\n        /* \"contracts/TravelRuleProgram.sol\":3493:3512  transactions.length */\n      dup1\n      sload\n      swap1\n      pop\n        /* \"contracts/TravelRuleProgram.sol\":3489:3490  i */\n      dup2\n        /* \"contracts/TravelRuleProgram.sol\":3489:3512  i < transactions.length */\n      lt\n        /* \"contracts/TravelRuleProgram.sol\":3472:3619  for (uint i = 0; i < transactions.length; i++) {... */\n      iszero\n      tag_348\n      jumpi\n        /* \"contracts/TravelRuleProgram.sol\":3559:3561  to */\n      dup5\n        /* \"contracts/TravelRuleProgram.sol\":3537:3561  transactions[i].to == to */\n      0xffffffffffffffffffffffffffffffffffffffff\n      and\n        /* \"contracts/TravelRuleProgram.sol\":3537:3549  transactions */\n      0x01\n        /* \"contracts/TravelRuleProgram.sol\":3550:3551  i */\n      dup3\n        /* \"contracts/TravelRuleProgram.sol\":3537:3552  transactions[i] */\n      dup2\n      sload\n      dup2\n      lt\n      tag_350\n      jumpi\n      tag_351\n      tag_81\n      jump\t// in\n    tag_351:\n    tag_350:\n      swap1\n      0x00\n      mstore\n      keccak256(0x00, 0x20)\n      swap1\n      0x06\n      mul\n      add\n        /* \"contracts/TravelRuleProgram.sol\":3537:3555  transactions[i].to */\n      0x02\n      add\n      0x00\n      swap1\n      sload\n      swap1\n      0x0100\n      exp\n      swap1\n      div\n      0xffffffffffffffffffffffffffffffffffffffff\n      and\n        /* \"contracts/TravelRuleProgram.sol\":3537:3561  transactions[i].to == to */\n      0xffffffffffffffffffffffffffffffffffffffff\n      and\n      eq\n        /* \"contracts/TravelRuleProgram.sol\":3533:3609  if (transactions[i].to == to) {... */\n      iszero\n      tag_353\n      jumpi\n        /* \"contracts/TravelRuleProgram.sol\":3581:3594  resultCount++ */\n      dup2\n      dup1\n      tag_354\n      swap1\n      tag_165\n      jump\t// in\n    tag_354:\n      swap3\n      pop\n      pop\n        /* \"contracts/TravelRuleProgram.sol\":3533:3609  if (transactions[i].to == to) {... */\n    tag_353:\n        /* \"contracts/TravelRuleProgram.sol\":3514:3517  i++ */\n      dup1\n      dup1\n      tag_355\n      swap1\n      tag_165\n      jump\t// in\n    tag_355:\n      swap2\n      pop\n      pop\n        /* \"contracts/TravelRuleProgram.sol\":3472:3619  for (uint i = 0; i < transactions.length; i++) {... */\n      jump(tag_347)\n    tag_348:\n      pop\n        /* \"contracts/TravelRuleProgram.sol\":3629:3643  uint256 length */\n      0x00\n        /* \"contracts/TravelRuleProgram.sol\":3660:3665  count */\n      dup4\n        /* \"contracts/TravelRuleProgram.sol\":3646:3657  resultCount */\n      dup3\n        /* \"contracts/TravelRuleProgram.sol\":3646:3665  resultCount < count */\n      lt\n        /* \"contracts/TravelRuleProgram.sol\":3646:3687  resultCount < count ? resultCount : count */\n      tag_356\n      jumpi\n        /* \"contracts/TravelRuleProgram.sol\":3682:3687  count */\n      dup4\n        /* \"contracts/TravelRuleProgram.sol\":3646:3687  resultCount < count ? resultCount : count */\n      jump(tag_357)\n    tag_356:\n        /* \"contracts/TravelRuleProgram.sol\":3668:3679  resultCount */\n      dup2\n        /* \"contracts/TravelRuleProgram.sol\":3646:3687  resultCount < count ? resultCount : count */\n    tag_357:\n        /* \"contracts/TravelRuleProgram.sol\":3629:3687  uint256 length = resultCount < count ? resultCount : count */\n      swap1\n      pop\n        /* \"contracts/TravelRuleProgram.sol\":3706:3730  Transaction[] memory txs */\n      0x00\n        /* \"contracts/TravelRuleProgram.sol\":3751:3762  resultCount */\n      dup3\n        /* \"contracts/TravelRuleProgram.sol\":3733:3763  new Transaction[](resultCount) */\n      0xffffffffffffffff\n      dup2\n      gt\n      iszero\n      tag_358\n      jumpi\n      tag_359\n      tag_140\n      jump\t// in\n    tag_359:\n    tag_358:\n      mload(0x40)\n      swap1\n      dup1\n      dup3\n      mstore\n      dup1\n      0x20\n      mul\n      0x20\n      add\n      dup3\n      add\n      0x40\n      mstore\n      dup1\n      iszero\n      tag_360\n      jumpi\n      dup2\n      0x20\n      add\n    tag_361:\n      tag_362\n      tag_144\n      jump\t// in\n    tag_362:\n      dup2\n      mstore\n      0x20\n      add\n      swap1\n      0x01\n      swap1\n      sub\n      swap1\n      dup2\n      tag_361\n      jumpi\n      swap1\n      pop\n    tag_360:\n      pop\n        /* \"contracts/TravelRuleProgram.sol\":3706:3763  Transaction[] memory txs = new Transaction[](resultCount) */\n      swap1\n      pop\n        /* \"contracts/TravelRuleProgram.sol\":3773:3782  uint256 k */\n      0x00\n        /* \"contracts/TravelRuleProgram.sol\":3793:3808  uint256 _length */\n      dup1\n        /* \"contracts/TravelRuleProgram.sol\":3811:3823  transactions */\n      0x01\n        /* \"contracts/TravelRuleProgram.sol\":3811:3830  transactions.length */\n      dup1\n      sload\n      swap1\n      pop\n        /* \"contracts/TravelRuleProgram.sol\":3793:3830  uint256 _length = transactions.length */\n      swap1\n      pop\n        /* \"contracts/TravelRuleProgram.sol\":3845:3851  uint i */\n      0x00\n        /* \"contracts/TravelRuleProgram.sol\":3854:3861  _length */\n      dup2\n        /* \"contracts/TravelRuleProgram.sol\":3845:3861  uint i = _length */\n      swap1\n      pop\n        /* \"contracts/TravelRuleProgram.sol\":3840:4101  for (uint i = _length; i > 0; i--) {... */\n    tag_363:\n        /* \"contracts/TravelRuleProgram.sol\":3867:3868  0 */\n      0x00\n        /* \"contracts/TravelRuleProgram.sol\":3863:3864  i */\n      dup2\n        /* \"contracts/TravelRuleProgram.sol\":3863:3868  i > 0 */\n      gt\n        /* \"contracts/TravelRuleProgram.sol\":3840:4101  for (uint i = _length; i > 0; i--) {... */\n      iszero\n      tag_364\n      jumpi\n        /* \"contracts/TravelRuleProgram.sol\":3919:3921  to */\n      dup9\n        /* \"contracts/TravelRuleProgram.sol\":3893:3921  transactions[i - 1].to == to */\n      0xffffffffffffffffffffffffffffffffffffffff\n      and\n        /* \"contracts/TravelRuleProgram.sol\":3893:3905  transactions */\n      0x01\n        /* \"contracts/TravelRuleProgram.sol\":3910:3911  1 */\n      dup1\n        /* \"contracts/TravelRuleProgram.sol\":3906:3907  i */\n      dup4\n        /* \"contracts/TravelRuleProgram.sol\":3906:3911  i - 1 */\n      tag_366\n      swap2\n      swap1\n      tag_135\n      jump\t// in\n    tag_366:\n        /* \"contracts/TravelRuleProgram.sol\":3893:3912  transactions[i - 1] */\n      dup2\n      sload\n      dup2\n      lt\n      tag_367\n      jumpi\n      tag_368\n      tag_81\n      jump\t// in\n    tag_368:\n    tag_367:\n      swap1\n      0x00\n      mstore\n      keccak256(0x00, 0x20)\n      swap1\n      0x06\n      mul\n      add\n        /* \"contracts/TravelRuleProgram.sol\":3893:3915  transactions[i - 1].to */\n      0x02\n      add\n      0x00\n      swap1\n      sload\n      swap1\n      0x0100\n      exp\n      swap1\n      div\n      0xffffffffffffffffffffffffffffffffffffffff\n      and\n        /* \"contracts/TravelRuleProgram.sol\":3893:3921  transactions[i - 1].to == to */\n      0xffffffffffffffffffffffffffffffffffffffff\n      and\n      eq\n        /* \"contracts/TravelRuleProgram.sol\":3889:4091  if (transactions[i - 1].to == to) {... */\n      iszero\n      tag_370\n      jumpi\n        /* \"contracts/TravelRuleProgram.sol\":3950:3962  transactions */\n      0x01\n        /* \"contracts/TravelRuleProgram.sol\":3967:3968  1 */\n      dup1\n        /* \"contracts/TravelRuleProgram.sol\":3963:3964  i */\n      dup3\n        /* \"contracts/TravelRuleProgram.sol\":3963:3968  i - 1 */\n      tag_371\n      swap2\n      swap1\n      tag_135\n      jump\t// in\n    tag_371:\n        /* \"contracts/TravelRuleProgram.sol\":3950:3969  transactions[i - 1] */\n      dup2\n      sload\n      dup2\n      lt\n      tag_372\n      jumpi\n      tag_373\n      tag_81\n      jump\t// in\n    tag_373:\n    tag_372:\n      swap1\n      0x00\n      mstore\n      keccak256(0x00, 0x20)\n      swap1\n      0x06\n      mul\n      add\n        /* \"contracts/TravelRuleProgram.sol\":3941:3969  txs[k] = transactions[i - 1] */\n      mload(0x40)\n      dup1\n      0xe0\n      add\n      0x40\n      mstore\n      swap1\n      dup2\n      0x00\n      dup3\n      add\n      sload\n      dup2\n      mstore\n      0x20\n      add\n      0x01\n      dup3\n      add\n      0x00\n      swap1\n      sload\n      swap1\n      0x0100\n      exp\n      swap1\n      div\n      0xffffffffffffffffffffffffffffffffffffffff\n      and\n      0xffffffffffffffffffffffffffffffffffffffff\n      and\n      0xffffffffffffffffffffffffffffffffffffffff\n      and\n      dup2\n      mstore\n      0x20\n      add\n      0x02\n      dup3\n      add\n      0x00\n      swap1\n      sload\n      swap1\n      0x0100\n      exp\n      swap1\n      div\n      0xffffffffffffffffffffffffffffffffffffffff\n      and\n      0xffffffffffffffffffffffffffffffffffffffff\n      and\n      0xffffffffffffffffffffffffffffffffffffffff\n      and\n      dup2\n      mstore\n      0x20\n      add\n      0x03\n      dup3\n      add\n      dup1\n      sload\n      tag_375\n      swap1\n      tag_84\n      jump\t// in\n    tag_375:\n      dup1\n      0x1f\n      add\n      0x20\n      dup1\n      swap2\n      div\n      mul\n      0x20\n      add\n      mload(0x40)\n      swap1\n      dup2\n      add\n      0x40\n      mstore\n      dup1\n      swap3\n      swap2\n      swap1\n      dup2\n      dup2\n      mstore\n      0x20\n      add\n      dup3\n      dup1\n      sload\n      tag_376\n      swap1\n      tag_84\n      jump\t// in\n    tag_376:\n      dup1\n      iszero\n      tag_377\n      jumpi\n      dup1\n      0x1f\n      lt\n      tag_378\n      jumpi\n      0x0100\n      dup1\n      dup4\n      sload\n      div\n      mul\n      dup4\n      mstore\n      swap2\n      0x20\n      add\n      swap2\n      jump(tag_377)\n    tag_378:\n      dup3\n      add\n      swap2\n      swap1\n      0x00\n      mstore\n      keccak256(0x00, 0x20)\n      swap1\n    tag_379:\n      dup2\n      sload\n      dup2\n      mstore\n      swap1\n      0x01\n      add\n      swap1\n      0x20\n      add\n      dup1\n      dup4\n      gt\n      tag_379\n      jumpi\n      dup3\n      swap1\n      sub\n      0x1f\n      and\n      dup3\n      add\n      swap2\n    tag_377:\n      pop\n      pop\n      pop\n      pop\n      pop\n      dup2\n      mstore\n      0x20\n      add\n      0x04\n      dup3\n      add\n      dup1\n      sload\n      tag_380\n      swap1\n      tag_84\n      jump\t// in\n    tag_380:\n      dup1\n      0x1f\n      add\n      0x20\n      dup1\n      swap2\n      div\n      mul\n      0x20\n      add\n      mload(0x40)\n      swap1\n      dup2\n      add\n      0x40\n      mstore\n      dup1\n      swap3\n      swap2\n      swap1\n      dup2\n      dup2\n      mstore\n      0x20\n      add\n      dup3\n      dup1\n      sload\n      tag_381\n      swap1\n      tag_84\n      jump\t// in\n    tag_381:\n      dup1\n      iszero\n      tag_382\n      jumpi\n      dup1\n      0x1f\n      lt\n      tag_383\n      jumpi\n      0x0100\n      dup1\n      dup4\n      sload\n      div\n      mul\n      dup4\n      mstore\n      swap2\n      0x20\n      add\n      swap2\n      jump(tag_382)\n    tag_383:\n      dup3\n      add\n      swap2\n      swap1\n      0x00\n      mstore\n      keccak256(0x00, 0x20)\n      swap1\n    tag_384:\n      dup2\n      sload\n      dup2\n      mstore\n      swap1\n      0x01\n      add\n      swap1\n      0x20\n      add\n      dup1\n      dup4\n      gt\n      tag_384\n      jumpi\n      dup3\n      swap1\n      sub\n      0x1f\n      and\n      dup3\n      add\n      swap2\n    tag_382:\n      pop\n      pop\n      pop\n      pop\n      pop\n      dup2\n      mstore\n      0x20\n      add\n      0x05\n      dup3\n      add\n      0x00\n      swap1\n      sload\n      swap1\n      0x0100\n      exp\n      swap1\n      div\n      0xff\n      and\n      0xff\n      and\n      0xff\n      and\n      dup2\n      mstore\n      0x20\n      add\n      0x05\n      dup3\n      add\n      0x01\n      swap1\n      sload\n      swap1\n      0x0100\n      exp\n      swap1\n      div\n      0xff\n      and\n      0xff\n      and\n      0xff\n      and\n      dup2\n      mstore\n      pop\n      pop\n        /* \"contracts/TravelRuleProgram.sol\":3941:3944  txs */\n      dup5\n        /* \"contracts/TravelRuleProgram.sol\":3945:3946  k */\n      dup5\n        /* \"contracts/TravelRuleProgram.sol\":3941:3947  txs[k] */\n      dup2\n      mload\n      dup2\n      lt\n      tag_385\n      jumpi\n      tag_386\n      tag_81\n      jump\t// in\n    tag_386:\n    tag_385:\n      0x20\n      mul\n      0x20\n      add\n      add\n        /* \"contracts/TravelRuleProgram.sol\":3941:3969  txs[k] = transactions[i - 1] */\n      dup2\n      swap1\n      mstore\n      pop\n        /* \"contracts/TravelRuleProgram.sol\":3987:3990  k++ */\n      dup3\n      dup1\n      tag_387\n      swap1\n      tag_165\n      jump\t// in\n    tag_387:\n      swap4\n      pop\n      pop\n        /* \"contracts/TravelRuleProgram.sol\":4018:4024  length */\n      dup5\n        /* \"contracts/TravelRuleProgram.sol\":4013:4014  k */\n      dup4\n        /* \"contracts/TravelRuleProgram.sol\":4013:4024  k == length */\n      eq\n        /* \"contracts/TravelRuleProgram.sol\":4009:4077  if (k == length) {... */\n      iszero\n      tag_388\n      jumpi\n        /* \"contracts/TravelRuleProgram.sol\":4055:4058  txs */\n      dup4\n        /* \"contracts/TravelRuleProgram.sol\":4048:4058  return txs */\n      swap7\n      pop\n      pop\n      pop\n      pop\n      pop\n      pop\n      pop\n      jump(tag_344)\n        /* \"contracts/TravelRuleProgram.sol\":4009:4077  if (k == length) {... */\n    tag_388:\n        /* \"contracts/TravelRuleProgram.sol\":3889:4091  if (transactions[i - 1].to == to) {... */\n    tag_370:\n        /* \"contracts/TravelRuleProgram.sol\":3870:3873  i-- */\n      dup1\n      dup1\n      tag_389\n      swap1\n      tag_167\n      jump\t// in\n    tag_389:\n      swap2\n      pop\n      pop\n        /* \"contracts/TravelRuleProgram.sol\":3840:4101  for (uint i = _length; i > 0; i--) {... */\n      jump(tag_363)\n    tag_364:\n      pop\n        /* \"contracts/TravelRuleProgram.sol\":4118:4121  txs */\n      dup3\n        /* \"contracts/TravelRuleProgram.sol\":4111:4121  return txs */\n      swap6\n      pop\n      pop\n      pop\n      pop\n      pop\n      pop\n        /* \"contracts/TravelRuleProgram.sol\":3224:4128  function getTransactionsForReceiver(address to, uint256 count) public view returns(Transaction[] memory) {... */\n    tag_344:\n      swap3\n      swap2\n      pop\n      pop\n      jump\t// out\n        /* \"@openzeppelin/contracts/access/Ownable.sol\":2081:2279  function transferOwnership(address newOwner) public virtual onlyOwner {... */\n    tag_73:\n        /* \"@openzeppelin/contracts/access/Ownable.sol\":1094:1107  _checkOwner() */\n      tag_391\n        /* \"@openzeppelin/contracts/access/Ownable.sol\":1094:1105  _checkOwner */\n      tag_76\n        /* \"@openzeppelin/contracts/access/Ownable.sol\":1094:1107  _checkOwner() */\n      jump\t// in\n    tag_391:\n        /* \"@openzeppelin/contracts/access/Ownable.sol\":2189:2190  0 */\n      0x00\n        /* \"@openzeppelin/contracts/access/Ownable.sol\":2169:2191  newOwner != address(0) */\n      0xffffffffffffffffffffffffffffffffffffffff\n      and\n        /* \"@openzeppelin/contracts/access/Ownable.sol\":2169:2177  newOwner */\n      dup2\n        /* \"@openzeppelin/contracts/access/Ownable.sol\":2169:2191  newOwner != address(0) */\n      0xffffffffffffffffffffffffffffffffffffffff\n      and\n      eq\n      iszero\n        /* \"@openzeppelin/contracts/access/Ownable.sol\":2161:2234  require(newOwner != address(0), \"Ownable: new owner is the zero address\") */\n      tag_393\n      jumpi\n      mload(0x40)\n      0x08c379a000000000000000000000000000000000000000000000000000000000\n      dup2\n      mstore\n      0x04\n      add\n      tag_394\n      swap1\n      tag_395\n      jump\t// in\n    tag_394:\n      mload(0x40)\n      dup1\n      swap2\n      sub\n      swap1\n      revert\n    tag_393:\n        /* \"@openzeppelin/contracts/access/Ownable.sol\":2244:2272  _transferOwnership(newOwner) */\n      tag_396\n        /* \"@openzeppelin/contracts/access/Ownable.sol\":2263:2271  newOwner */\n      dup2\n        /* \"@openzeppelin/contracts/access/Ownable.sol\":2244:2262  _transferOwnership */\n      tag_172\n        /* \"@openzeppelin/contracts/access/Ownable.sol\":2244:2272  _transferOwnership(newOwner) */\n      jump\t// in\n    tag_396:\n        /* \"@openzeppelin/contracts/access/Ownable.sol\":2081:2279  function transferOwnership(address newOwner) public virtual onlyOwner {... */\n      pop\n      jump\t// out\n        /* \"@openzeppelin/contracts/access/Ownable.sol\":1359:1489  function _checkOwner() internal view virtual {... */\n    tag_76:\n        /* \"@openzeppelin/contracts/access/Ownable.sol\":1433:1445  _msgSender() */\n      tag_398\n        /* \"@openzeppelin/contracts/access/Ownable.sol\":1433:1443  _msgSender */\n      tag_399\n        /* \"@openzeppelin/contracts/access/Ownable.sol\":1433:1445  _msgSender() */\n      jump\t// in\n    tag_398:\n        /* \"@openzeppelin/contracts/access/Ownable.sol\":1422:1445  owner() == _msgSender() */\n      0xffffffffffffffffffffffffffffffffffffffff\n      and\n        /* \"@openzeppelin/contracts/access/Ownable.sol\":1422:1429  owner() */\n      tag_400\n        /* \"@openzeppelin/contracts/access/Ownable.sol\":1422:1427  owner */\n      tag_46\n        /* \"@openzeppelin/contracts/access/Ownable.sol\":1422:1429  owner() */\n      jump\t// in\n    tag_400:\n        /* \"@openzeppelin/contracts/access/Ownable.sol\":1422:1445  owner() == _msgSender() */\n      0xffffffffffffffffffffffffffffffffffffffff\n      and\n      eq\n        /* \"@openzeppelin/contracts/access/Ownable.sol\":1414:1482  require(owner() == _msgSender(), \"Ownable: caller is not the owner\") */\n      tag_401\n      jumpi\n      mload(0x40)\n      0x08c379a000000000000000000000000000000000000000000000000000000000\n      dup2\n      mstore\n      0x04\n      add\n      tag_402\n      swap1\n      tag_403\n      jump\t// in\n    tag_402:\n      mload(0x40)\n      dup1\n      swap2\n      sub\n      swap1\n      revert\n    tag_401:\n        /* \"@openzeppelin/contracts/access/Ownable.sol\":1359:1489  function _checkOwner() internal view virtual {... */\n      jump\t// out\n        /* \"contracts/TravelRuleProgram.sol\":744:924  function compareStrings(string memory a, string memory b) private pure returns (bool) {... */\n    tag_89:\n        /* \"contracts/TravelRuleProgram.sol\":824:828  bool */\n      0x00\n        /* \"contracts/TravelRuleProgram.sol\":912:913  b */\n      dup2\n        /* \"contracts/TravelRuleProgram.sol\":894:915  abi.encodePacked((b)) */\n      add(0x20, mload(0x40))\n      tag_405\n      swap2\n      swap1\n      tag_406\n      jump\t// in\n    tag_405:\n      mload(0x40)\n      0x20\n      dup2\n      dup4\n      sub\n      sub\n      dup2\n      mstore\n      swap1\n      0x40\n      mstore\n        /* \"contracts/TravelRuleProgram.sol\":884:916  keccak256(abi.encodePacked((b))) */\n      dup1\n      mload\n      swap1\n      0x20\n      add\n      keccak256\n        /* \"contracts/TravelRuleProgram.sol\":876:877  a */\n      dup4\n        /* \"contracts/TravelRuleProgram.sol\":858:879  abi.encodePacked((a)) */\n      add(0x20, mload(0x40))\n      tag_407\n      swap2\n      swap1\n      tag_406\n      jump\t// in\n    tag_407:\n      mload(0x40)\n      0x20\n      dup2\n      dup4\n      sub\n      sub\n      dup2\n      mstore\n      swap1\n      0x40\n      mstore\n        /* \"contracts/TravelRuleProgram.sol\":848:880  keccak256(abi.encodePacked((a))) */\n      dup1\n      mload\n      swap1\n      0x20\n      add\n      keccak256\n        /* \"contracts/TravelRuleProgram.sol\":848:916  keccak256(abi.encodePacked((a))) == keccak256(abi.encodePacked((b))) */\n      eq\n        /* \"contracts/TravelRuleProgram.sol\":840:917  return (keccak256(abi.encodePacked((a))) == keccak256(abi.encodePacked((b)))) */\n      swap1\n      pop\n        /* \"contracts/TravelRuleProgram.sol\":744:924  function compareStrings(string memory a, string memory b) private pure returns (bool) {... */\n      swap3\n      swap2\n      pop\n      pop\n      jump\t// out\n        /* \"@openzeppelin/contracts/access/Ownable.sol\":2433:2620  function _transferOwnership(address newOwner) internal virtual {... */\n    tag_172:\n        /* \"@openzeppelin/contracts/access/Ownable.sol\":2506:2522  address oldOwner */\n      0x00\n        /* \"@openzeppelin/contracts/access/Ownable.sol\":2525:2531  _owner */\n      dup1\n      0x00\n      swap1\n      sload\n      swap1\n      0x0100\n      exp\n      swap1\n      div\n      0xffffffffffffffffffffffffffffffffffffffff\n      and\n        /* \"@openzeppelin/contracts/access/Ownable.sol\":2506:2531  address oldOwner = _owner */\n      swap1\n      pop\n        /* \"@openzeppelin/contracts/access/Ownable.sol\":2550:2558  newOwner */\n      dup2\n        /* \"@openzeppelin/contracts/access/Ownable.sol\":2541:2547  _owner */\n      0x00\n      dup1\n        /* \"@openzeppelin/contracts/access/Ownable.sol\":2541:2558  _owner = newOwner */\n      0x0100\n      exp\n      dup2\n      sload\n      dup2\n      0xffffffffffffffffffffffffffffffffffffffff\n      mul\n      not\n      and\n      swap1\n      dup4\n      0xffffffffffffffffffffffffffffffffffffffff\n      and\n      mul\n      or\n      swap1\n      sstore\n      pop\n        /* \"@openzeppelin/contracts/access/Ownable.sol\":2604:2612  newOwner */\n      dup2\n        /* \"@openzeppelin/contracts/access/Ownable.sol\":2573:2613  OwnershipTransferred(oldOwner, newOwner) */\n      0xffffffffffffffffffffffffffffffffffffffff\n      and\n        /* \"@openzeppelin/contracts/access/Ownable.sol\":2594:2602  oldOwner */\n      dup2\n        /* \"@openzeppelin/contracts/access/Ownable.sol\":2573:2613  OwnershipTransferred(oldOwner, newOwner) */\n      0xffffffffffffffffffffffffffffffffffffffff\n      and\n      0x8be0079c531659141344cd1fd0a4f28419497f9722a3daafe3b4186f6b6457e0\n      mload(0x40)\n      mload(0x40)\n      dup1\n      swap2\n      sub\n      swap1\n      log3\n        /* \"@openzeppelin/contracts/access/Ownable.sol\":2496:2620  {... */\n      pop\n        /* \"@openzeppelin/contracts/access/Ownable.sol\":2433:2620  function _transferOwnership(address newOwner) internal virtual {... */\n      pop\n      jump\t// out\n        /* \"@openzeppelin/contracts/utils/Context.sol\":640:736  function _msgSender() internal view virtual returns (address) {... */\n    tag_399:\n        /* \"@openzeppelin/contracts/utils/Context.sol\":693:700  address */\n      0x00\n        /* \"@openzeppelin/contracts/utils/Context.sol\":719:729  msg.sender */\n      caller\n        /* \"@openzeppelin/contracts/utils/Context.sol\":712:729  return msg.sender */\n      swap1\n      pop\n        /* \"@openzeppelin/contracts/utils/Context.sol\":640:736  function _msgSender() internal view virtual returns (address) {... */\n      swap1\n      jump\t// out\n    tag_127:\n      pop\n      dup1\n      sload\n      0x00\n      dup3\n      sstore\n      0x06\n      mul\n      swap1\n      0x00\n      mstore\n      keccak256(0x00, 0x20)\n      swap1\n      dup2\n      add\n      swap1\n      tag_411\n      swap2\n      swap1\n      tag_412\n      jump\t// in\n    tag_411:\n      pop\n      jump\t// out\n    tag_144:\n      mload(0x40)\n      dup1\n      0xe0\n      add\n      0x40\n      mstore\n      dup1\n      0x00\n      dup2\n      mstore\n      0x20\n      add\n      and(0xffffffffffffffffffffffffffffffffffffffff, 0x00)\n      dup2\n      mstore\n      0x20\n      add\n      and(0xffffffffffffffffffffffffffffffffffffffff, 0x00)\n      dup2\n      mstore\n      0x20\n      add\n      0x60\n      dup2\n      mstore\n      0x20\n      add\n      0x60\n      dup2\n      mstore\n      0x20\n      add\n      and(0xff, 0x00)\n      dup2\n      mstore\n      0x20\n      add\n      and(0xff, 0x00)\n      dup2\n      mstore\n      pop\n      swap1\n      jump\t// out\n    tag_289:\n      dup3\n      dup1\n      sload\n      tag_413\n      swap1\n      tag_84\n      jump\t// in\n    tag_413:\n      swap1\n      0x00\n      mstore\n      keccak256(0x00, 0x20)\n      swap1\n      0x1f\n      add\n      0x20\n      swap1\n      div\n      dup2\n      add\n      swap3\n      dup3\n      tag_415\n      jumpi\n      0x00\n      dup6\n      sstore\n      jump(tag_414)\n    tag_415:\n      dup3\n      0x1f\n      lt\n      tag_416\n      jumpi\n      dup1\n      mload\n      not(0xff)\n      and\n      dup4\n      dup1\n      add\n      or\n      dup6\n      sstore\n      jump(tag_414)\n    tag_416:\n      dup3\n      dup1\n      add\n      0x01\n      add\n      dup6\n      sstore\n      dup3\n      iszero\n      tag_414\n      jumpi\n      swap2\n      dup3\n      add\n    tag_417:\n      dup3\n      dup2\n      gt\n      iszero\n      tag_418\n      jumpi\n      dup3\n      mload\n      dup3\n      sstore\n      swap2\n      0x20\n      add\n      swap2\n      swap1\n      0x01\n      add\n      swap1\n      jump(tag_417)\n    tag_418:\n    tag_414:\n      pop\n      swap1\n      pop\n      tag_419\n      swap2\n      swap1\n      tag_420\n      jump\t// in\n    tag_419:\n      pop\n      swap1\n      jump\t// out\n    tag_412:\n    tag_421:\n      dup1\n      dup3\n      gt\n      iszero\n      tag_422\n      jumpi\n      0x00\n      dup1\n      dup3\n      add\n      0x00\n      swap1\n      sstore\n      0x01\n      dup3\n      add\n      exp(0x0100, 0x00)\n      dup2\n      sload\n      swap1\n      0xffffffffffffffffffffffffffffffffffffffff\n      mul\n      not\n      and\n      swap1\n      sstore\n      0x02\n      dup3\n      add\n      exp(0x0100, 0x00)\n      dup2\n      sload\n      swap1\n      0xffffffffffffffffffffffffffffffffffffffff\n      mul\n      not\n      and\n      swap1\n      sstore\n      0x03\n      dup3\n      add\n      0x00\n      tag_423\n      swap2\n      swap1\n      tag_424\n      jump\t// in\n    tag_423:\n      0x04\n      dup3\n      add\n      0x00\n      tag_425\n      swap2\n      swap1\n      tag_424\n      jump\t// in\n    tag_425:\n      0x05\n      dup3\n      add\n      exp(0x0100, 0x00)\n      dup2\n      sload\n      swap1\n      0xff\n      mul\n      not\n      and\n      swap1\n      sstore\n      0x05\n      dup3\n      add\n      exp(0x0100, 0x01)\n      dup2\n      sload\n      swap1\n      0xff\n      mul\n      not\n      and\n      swap1\n      sstore\n      pop\n      0x06\n      add\n      jump(tag_421)\n    tag_422:\n      pop\n      swap1\n      jump\t// out\n    tag_420:\n    tag_426:\n      dup1\n      dup3\n      gt\n      iszero\n      tag_427\n      jumpi\n      0x00\n      dup2\n      0x00\n      swap1\n      sstore\n      pop\n      0x01\n      add\n      jump(tag_426)\n    tag_427:\n      pop\n      swap1\n      jump\t// out\n    tag_424:\n      pop\n      dup1\n      sload\n      tag_428\n      swap1\n      tag_84\n      jump\t// in\n    tag_428:\n      0x00\n      dup3\n      sstore\n      dup1\n      0x1f\n      lt\n      tag_430\n      jumpi\n      pop\n      jump(tag_429)\n    tag_430:\n      0x1f\n      add\n      0x20\n      swap1\n      div\n      swap1\n      0x00\n      mstore\n      keccak256(0x00, 0x20)\n      swap1\n      dup2\n      add\n      swap1\n      tag_431\n      swap2\n      swap1\n      tag_420\n      jump\t// in\n    tag_431:\n    tag_429:\n      pop\n      jump\t// out\n        /* \"#utility.yul\":7:419   */\n    tag_433:\n        /* \"#utility.yul\":85:90   */\n      0x00\n        /* \"#utility.yul\":110:176   */\n      tag_435\n        /* \"#utility.yul\":126:175   */\n      tag_436\n        /* \"#utility.yul\":168:174   */\n      dup5\n        /* \"#utility.yul\":126:175   */\n      tag_437\n      jump\t// in\n    tag_436:\n        /* \"#utility.yul\":110:176   */\n      tag_438\n      jump\t// in\n    tag_435:\n        /* \"#utility.yul\":101:176   */\n      swap1\n      pop\n        /* \"#utility.yul\":199:205   */\n      dup3\n        /* \"#utility.yul\":192:197   */\n      dup2\n        /* \"#utility.yul\":185:206   */\n      mstore\n        /* \"#utility.yul\":237:241   */\n      0x20\n        /* \"#utility.yul\":230:235   */\n      dup2\n        /* \"#utility.yul\":226:242   */\n      add\n        /* \"#utility.yul\":275:278   */\n      dup5\n        /* \"#utility.yul\":266:272   */\n      dup5\n        /* \"#utility.yul\":261:264   */\n      dup5\n        /* \"#utility.yul\":257:273   */\n      add\n        /* \"#utility.yul\":254:279   */\n      gt\n        /* \"#utility.yul\":251:363   */\n      iszero\n      tag_439\n      jumpi\n        /* \"#utility.yul\":282:361   */\n      tag_440\n      tag_441\n      jump\t// in\n    tag_440:\n        /* \"#utility.yul\":251:363   */\n    tag_439:\n        /* \"#utility.yul\":372:413   */\n      tag_442\n        /* \"#utility.yul\":406:412   */\n      dup5\n        /* \"#utility.yul\":401:404   */\n      dup3\n        /* \"#utility.yul\":396:399   */\n      dup6\n        /* \"#utility.yul\":372:413   */\n      tag_443\n      jump\t// in\n    tag_442:\n        /* \"#utility.yul\":91:419   */\n      pop\n        /* \"#utility.yul\":7:419   */\n      swap4\n      swap3\n      pop\n      pop\n      pop\n      jump\t// out\n        /* \"#utility.yul\":425:564   */\n    tag_444:\n        /* \"#utility.yul\":471:476   */\n      0x00\n        /* \"#utility.yul\":509:515   */\n      dup2\n        /* \"#utility.yul\":496:516   */\n      calldataload\n        /* \"#utility.yul\":487:516   */\n      swap1\n      pop\n        /* \"#utility.yul\":525:558   */\n      tag_446\n        /* \"#utility.yul\":552:557   */\n      dup2\n        /* \"#utility.yul\":525:558   */\n      tag_447\n      jump\t// in\n    tag_446:\n        /* \"#utility.yul\":425:564   */\n      swap3\n      swap2\n      pop\n      pop\n      jump\t// out\n        /* \"#utility.yul\":570:703   */\n    tag_448:\n        /* \"#utility.yul\":613:618   */\n      0x00\n        /* \"#utility.yul\":651:657   */\n      dup2\n        /* \"#utility.yul\":638:658   */\n      calldataload\n        /* \"#utility.yul\":629:658   */\n      swap1\n      pop\n        /* \"#utility.yul\":667:697   */\n      tag_450\n        /* \"#utility.yul\":691:696   */\n      dup2\n        /* \"#utility.yul\":667:697   */\n      tag_451\n      jump\t// in\n    tag_450:\n        /* \"#utility.yul\":570:703   */\n      swap3\n      swap2\n      pop\n      pop\n      jump\t// out\n        /* \"#utility.yul\":723:1063   */\n    tag_452:\n        /* \"#utility.yul\":779:784   */\n      0x00\n        /* \"#utility.yul\":828:831   */\n      dup3\n        /* \"#utility.yul\":821:825   */\n      0x1f\n        /* \"#utility.yul\":813:819   */\n      dup4\n        /* \"#utility.yul\":809:826   */\n      add\n        /* \"#utility.yul\":805:832   */\n      slt\n        /* \"#utility.yul\":795:917   */\n      tag_454\n      jumpi\n        /* \"#utility.yul\":836:915   */\n      tag_455\n      tag_456\n      jump\t// in\n    tag_455:\n        /* \"#utility.yul\":795:917   */\n    tag_454:\n        /* \"#utility.yul\":953:959   */\n      dup2\n        /* \"#utility.yul\":940:960   */\n      calldataload\n        /* \"#utility.yul\":978:1057   */\n      tag_457\n        /* \"#utility.yul\":1053:1056   */\n      dup5\n        /* \"#utility.yul\":1045:1051   */\n      dup3\n        /* \"#utility.yul\":1038:1042   */\n      0x20\n        /* \"#utility.yul\":1030:1036   */\n      dup7\n        /* \"#utility.yul\":1026:1043   */\n      add\n        /* \"#utility.yul\":978:1057   */\n      tag_433\n      jump\t// in\n    tag_457:\n        /* \"#utility.yul\":969:1057   */\n      swap2\n      pop\n        /* \"#utility.yul\":785:1063   */\n      pop\n        /* \"#utility.yul\":723:1063   */\n      swap3\n      swap2\n      pop\n      pop\n      jump\t// out\n        /* \"#utility.yul\":1069:1208   */\n    tag_458:\n        /* \"#utility.yul\":1115:1120   */\n      0x00\n        /* \"#utility.yul\":1153:1159   */\n      dup2\n        /* \"#utility.yul\":1140:1160   */\n      calldataload\n        /* \"#utility.yul\":1131:1160   */\n      swap1\n      pop\n        /* \"#utility.yul\":1169:1202   */\n      tag_460\n        /* \"#utility.yul\":1196:1201   */\n      dup2\n        /* \"#utility.yul\":1169:1202   */\n      tag_461\n      jump\t// in\n    tag_460:\n        /* \"#utility.yul\":1069:1208   */\n      swap3\n      swap2\n      pop\n      pop\n      jump\t// out\n        /* \"#utility.yul\":1214:1349   */\n    tag_462:\n        /* \"#utility.yul\":1258:1263   */\n      0x00\n        /* \"#utility.yul\":1296:1302   */\n      dup2\n        /* \"#utility.yul\":1283:1303   */\n      calldataload\n        /* \"#utility.yul\":1274:1303   */\n      swap1\n      pop\n        /* \"#utility.yul\":1312:1343   */\n      tag_464\n        /* \"#utility.yul\":1337:1342   */\n      dup2\n        /* \"#utility.yul\":1312:1343   */\n      tag_465\n      jump\t// in\n    tag_464:\n        /* \"#utility.yul\":1214:1349   */\n      swap3\n      swap2\n      pop\n      pop\n      jump\t// out\n        /* \"#utility.yul\":1355:1684   */\n    tag_72:\n        /* \"#utility.yul\":1414:1420   */\n      0x00\n        /* \"#utility.yul\":1463:1465   */\n      0x20\n        /* \"#utility.yul\":1451:1460   */\n      dup3\n        /* \"#utility.yul\":1442:1449   */\n      dup5\n        /* \"#utility.yul\":1438:1461   */\n      sub\n        /* \"#utility.yul\":1434:1466   */\n      slt\n        /* \"#utility.yul\":1431:1550   */\n      iszero\n      tag_467\n      jumpi\n        /* \"#utility.yul\":1469:1548   */\n      tag_468\n      tag_469\n      jump\t// in\n    tag_468:\n        /* \"#utility.yul\":1431:1550   */\n    tag_467:\n        /* \"#utility.yul\":1589:1590   */\n      0x00\n        /* \"#utility.yul\":1614:1667   */\n      tag_470\n        /* \"#utility.yul\":1659:1666   */\n      dup5\n        /* \"#utility.yul\":1650:1656   */\n      dup3\n        /* \"#utility.yul\":1639:1648   */\n      dup6\n        /* \"#utility.yul\":1635:1657   */\n      add\n        /* \"#utility.yul\":1614:1667   */\n      tag_444\n      jump\t// in\n    tag_470:\n        /* \"#utility.yul\":1604:1667   */\n      swap2\n      pop\n        /* \"#utility.yul\":1560:1677   */\n      pop\n        /* \"#utility.yul\":1355:1684   */\n      swap3\n      swap2\n      pop\n      pop\n      jump\t// out\n        /* \"#utility.yul\":1690:2489   */\n    tag_54:\n        /* \"#utility.yul\":1777:1783   */\n      0x00\n        /* \"#utility.yul\":1785:1791   */\n      dup1\n        /* \"#utility.yul\":1793:1799   */\n      0x00\n        /* \"#utility.yul\":1842:1844   */\n      0x60\n        /* \"#utility.yul\":1830:1839   */\n      dup5\n        /* \"#utility.yul\":1821:1828   */\n      dup7\n        /* \"#utility.yul\":1817:1840   */\n      sub\n        /* \"#utility.yul\":1813:1845   */\n      slt\n        /* \"#utility.yul\":1810:1929   */\n      iszero\n      tag_472\n      jumpi\n        /* \"#utility.yul\":1848:1927   */\n      tag_473\n      tag_469\n      jump\t// in\n    tag_473:\n        /* \"#utility.yul\":1810:1929   */\n    tag_472:\n        /* \"#utility.yul\":1968:1969   */\n      0x00\n        /* \"#utility.yul\":1993:2046   */\n      tag_474\n        /* \"#utility.yul\":2038:2045   */\n      dup7\n        /* \"#utility.yul\":2029:2035   */\n      dup3\n        /* \"#utility.yul\":2018:2027   */\n      dup8\n        /* \"#utility.yul\":2014:2036   */\n      add\n        /* \"#utility.yul\":1993:2046   */\n      tag_444\n      jump\t// in\n    tag_474:\n        /* \"#utility.yul\":1983:2046   */\n      swap4\n      pop\n        /* \"#utility.yul\":1939:2056   */\n      pop\n        /* \"#utility.yul\":2095:2097   */\n      0x20\n        /* \"#utility.yul\":2121:2174   */\n      tag_475\n        /* \"#utility.yul\":2166:2173   */\n      dup7\n        /* \"#utility.yul\":2157:2163   */\n      dup3\n        /* \"#utility.yul\":2146:2155   */\n      dup8\n        /* \"#utility.yul\":2142:2164   */\n      add\n        /* \"#utility.yul\":2121:2174   */\n      tag_444\n      jump\t// in\n    tag_475:\n        /* \"#utility.yul\":2111:2174   */\n      swap3\n      pop\n        /* \"#utility.yul\":2066:2184   */\n      pop\n        /* \"#utility.yul\":2251:2253   */\n      0x40\n        /* \"#utility.yul\":2240:2249   */\n      dup5\n        /* \"#utility.yul\":2236:2254   */\n      add\n        /* \"#utility.yul\":2223:2255   */\n      calldataload\n        /* \"#utility.yul\":2282:2300   */\n      0xffffffffffffffff\n        /* \"#utility.yul\":2274:2280   */\n      dup2\n        /* \"#utility.yul\":2271:2301   */\n      gt\n        /* \"#utility.yul\":2268:2385   */\n      iszero\n      tag_476\n      jumpi\n        /* \"#utility.yul\":2304:2383   */\n      tag_477\n      tag_478\n      jump\t// in\n    tag_477:\n        /* \"#utility.yul\":2268:2385   */\n    tag_476:\n        /* \"#utility.yul\":2409:2472   */\n      tag_479\n        /* \"#utility.yul\":2464:2471   */\n      dup7\n        /* \"#utility.yul\":2455:2461   */\n      dup3\n        /* \"#utility.yul\":2444:2453   */\n      dup8\n        /* \"#utility.yul\":2440:2462   */\n      add\n        /* \"#utility.yul\":2409:2472   */\n      tag_452\n      jump\t// in\n    tag_479:\n        /* \"#utility.yul\":2399:2472   */\n      swap2\n      pop\n        /* \"#utility.yul\":2194:2482   */\n      pop\n        /* \"#utility.yul\":1690:2489   */\n      swap3\n      pop\n      swap3\n      pop\n      swap3\n      jump\t// out\n        /* \"#utility.yul\":2495:2969   */\n    tag_67:\n        /* \"#utility.yul\":2563:2569   */\n      0x00\n        /* \"#utility.yul\":2571:2577   */\n      dup1\n        /* \"#utility.yul\":2620:2622   */\n      0x40\n        /* \"#utility.yul\":2608:2617   */\n      dup4\n        /* \"#utility.yul\":2599:2606   */\n      dup6\n        /* \"#utility.yul\":2595:2618   */\n      sub\n        /* \"#utility.yul\":2591:2623   */\n      slt\n        /* \"#utility.yul\":2588:2707   */\n      iszero\n      tag_481\n      jumpi\n        /* \"#utility.yul\":2626:2705   */\n      tag_482\n      tag_469\n      jump\t// in\n    tag_482:\n        /* \"#utility.yul\":2588:2707   */\n    tag_481:\n        /* \"#utility.yul\":2746:2747   */\n      0x00\n        /* \"#utility.yul\":2771:2824   */\n      tag_483\n        /* \"#utility.yul\":2816:2823   */\n      dup6\n        /* \"#utility.yul\":2807:2813   */\n      dup3\n        /* \"#utility.yul\":2796:2805   */\n      dup7\n        /* \"#utility.yul\":2792:2814   */\n      add\n        /* \"#utility.yul\":2771:2824   */\n      tag_444\n      jump\t// in\n    tag_483:\n        /* \"#utility.yul\":2761:2824   */\n      swap3\n      pop\n        /* \"#utility.yul\":2717:2834   */\n      pop\n        /* \"#utility.yul\":2873:2875   */\n      0x20\n        /* \"#utility.yul\":2899:2952   */\n      tag_484\n        /* \"#utility.yul\":2944:2951   */\n      dup6\n        /* \"#utility.yul\":2935:2941   */\n      dup3\n        /* \"#utility.yul\":2924:2933   */\n      dup7\n        /* \"#utility.yul\":2920:2942   */\n      add\n        /* \"#utility.yul\":2899:2952   */\n      tag_458\n      jump\t// in\n    tag_484:\n        /* \"#utility.yul\":2889:2952   */\n      swap2\n      pop\n        /* \"#utility.yul\":2844:2962   */\n      pop\n        /* \"#utility.yul\":2495:2969   */\n      swap3\n      pop\n      swap3\n      swap1\n      pop\n      jump\t// out\n        /* \"#utility.yul\":2975:3304   */\n    tag_32:\n        /* \"#utility.yul\":3034:3040   */\n      0x00\n        /* \"#utility.yul\":3083:3085   */\n      0x20\n        /* \"#utility.yul\":3071:3080   */\n      dup3\n        /* \"#utility.yul\":3062:3069   */\n      dup5\n        /* \"#utility.yul\":3058:3081   */\n      sub\n        /* \"#utility.yul\":3054:3086   */\n      slt\n        /* \"#utility.yul\":3051:3170   */\n      iszero\n      tag_486\n      jumpi\n        /* \"#utility.yul\":3089:3168   */\n      tag_487\n      tag_469\n      jump\t// in\n    tag_487:\n        /* \"#utility.yul\":3051:3170   */\n    tag_486:\n        /* \"#utility.yul\":3209:3210   */\n      0x00\n        /* \"#utility.yul\":3234:3287   */\n      tag_488\n        /* \"#utility.yul\":3279:3286   */\n      dup5\n        /* \"#utility.yul\":3270:3276   */\n      dup3\n        /* \"#utility.yul\":3259:3268   */\n      dup6\n        /* \"#utility.yul\":3255:3277   */\n      add\n        /* \"#utility.yul\":3234:3287   */\n      tag_458\n      jump\t// in\n    tag_488:\n        /* \"#utility.yul\":3224:3287   */\n      swap2\n      pop\n        /* \"#utility.yul\":3180:3297   */\n      pop\n        /* \"#utility.yul\":2975:3304   */\n      swap3\n      swap2\n      pop\n      pop\n      jump\t// out\n        /* \"#utility.yul\":3310:3964   */\n    tag_60:\n        /* \"#utility.yul\":3388:3394   */\n      0x00\n        /* \"#utility.yul\":3396:3402   */\n      dup1\n        /* \"#utility.yul\":3445:3447   */\n      0x40\n        /* \"#utility.yul\":3433:3442   */\n      dup4\n        /* \"#utility.yul\":3424:3431   */\n      dup6\n        /* \"#utility.yul\":3420:3443   */\n      sub\n        /* \"#utility.yul\":3416:3448   */\n      slt\n        /* \"#utility.yul\":3413:3532   */\n      iszero\n      tag_490\n      jumpi\n        /* \"#utility.yul\":3451:3530   */\n      tag_491\n      tag_469\n      jump\t// in\n    tag_491:\n        /* \"#utility.yul\":3413:3532   */\n    tag_490:\n        /* \"#utility.yul\":3571:3572   */\n      0x00\n        /* \"#utility.yul\":3596:3649   */\n      tag_492\n        /* \"#utility.yul\":3641:3648   */\n      dup6\n        /* \"#utility.yul\":3632:3638   */\n      dup3\n        /* \"#utility.yul\":3621:3630   */\n      dup7\n        /* \"#utility.yul\":3617:3639   */\n      add\n        /* \"#utility.yul\":3596:3649   */\n      tag_458\n      jump\t// in\n    tag_492:\n        /* \"#utility.yul\":3586:3649   */\n      swap3\n      pop\n        /* \"#utility.yul\":3542:3659   */\n      pop\n        /* \"#utility.yul\":3726:3728   */\n      0x20\n        /* \"#utility.yul\":3715:3724   */\n      dup4\n        /* \"#utility.yul\":3711:3729   */\n      add\n        /* \"#utility.yul\":3698:3730   */\n      calldataload\n        /* \"#utility.yul\":3757:3775   */\n      0xffffffffffffffff\n        /* \"#utility.yul\":3749:3755   */\n      dup2\n        /* \"#utility.yul\":3746:3776   */\n      gt\n        /* \"#utility.yul\":3743:3860   */\n      iszero\n      tag_493\n      jumpi\n        /* \"#utility.yul\":3779:3858   */\n      tag_494\n      tag_478\n      jump\t// in\n    tag_494:\n        /* \"#utility.yul\":3743:3860   */\n    tag_493:\n        /* \"#utility.yul\":3884:3947   */\n      tag_495\n        /* \"#utility.yul\":3939:3946   */\n      dup6\n        /* \"#utility.yul\":3930:3936   */\n      dup3\n        /* \"#utility.yul\":3919:3928   */\n      dup7\n        /* \"#utility.yul\":3915:3937   */\n      add\n        /* \"#utility.yul\":3884:3947   */\n      tag_452\n      jump\t// in\n    tag_495:\n        /* \"#utility.yul\":3874:3947   */\n      swap2\n      pop\n        /* \"#utility.yul\":3669:3957   */\n      pop\n        /* \"#utility.yul\":3310:3964   */\n      swap3\n      pop\n      swap3\n      swap1\n      pop\n      jump\t// out\n        /* \"#utility.yul\":3970:4440   */\n    tag_43:\n        /* \"#utility.yul\":4036:4042   */\n      0x00\n        /* \"#utility.yul\":4044:4050   */\n      dup1\n        /* \"#utility.yul\":4093:4095   */\n      0x40\n        /* \"#utility.yul\":4081:4090   */\n      dup4\n        /* \"#utility.yul\":4072:4079   */\n      dup6\n        /* \"#utility.yul\":4068:4091   */\n      sub\n        /* \"#utility.yul\":4064:4096   */\n      slt\n        /* \"#utility.yul\":4061:4180   */\n      iszero\n      tag_497\n      jumpi\n        /* \"#utility.yul\":4099:4178   */\n      tag_498\n      tag_469\n      jump\t// in\n    tag_498:\n        /* \"#utility.yul\":4061:4180   */\n    tag_497:\n        /* \"#utility.yul\":4219:4220   */\n      0x00\n        /* \"#utility.yul\":4244:4297   */\n      tag_499\n        /* \"#utility.yul\":4289:4296   */\n      dup6\n        /* \"#utility.yul\":4280:4286   */\n      dup3\n        /* \"#utility.yul\":4269:4278   */\n      dup7\n        /* \"#utility.yul\":4265:4287   */\n      add\n        /* \"#utility.yul\":4244:4297   */\n      tag_458\n      jump\t// in\n    tag_499:\n        /* \"#utility.yul\":4234:4297   */\n      swap3\n      pop\n        /* \"#utility.yul\":4190:4307   */\n      pop\n        /* \"#utility.yul\":4346:4348   */\n      0x20\n        /* \"#utility.yul\":4372:4423   */\n      tag_500\n        /* \"#utility.yul\":4415:4422   */\n      dup6\n        /* \"#utility.yul\":4406:4412   */\n      dup3\n        /* \"#utility.yul\":4395:4404   */\n      dup7\n        /* \"#utility.yul\":4391:4413   */\n      add\n        /* \"#utility.yul\":4372:4423   */\n      tag_462\n      jump\t// in\n    tag_500:\n        /* \"#utility.yul\":4362:4423   */\n      swap2\n      pop\n        /* \"#utility.yul\":4317:4433   */\n      pop\n        /* \"#utility.yul\":3970:4440   */\n      swap3\n      pop\n      swap3\n      swap1\n      pop\n      jump\t// out\n        /* \"#utility.yul\":4446:5055   */\n    tag_39:\n        /* \"#utility.yul\":4518:4524   */\n      0x00\n        /* \"#utility.yul\":4526:4532   */\n      dup1\n        /* \"#utility.yul\":4534:4540   */\n      0x00\n        /* \"#utility.yul\":4583:4585   */\n      0x60\n        /* \"#utility.yul\":4571:4580   */\n      dup5\n        /* \"#utility.yul\":4562:4569   */\n      dup7\n        /* \"#utility.yul\":4558:4581   */\n      sub\n        /* \"#utility.yul\":4554:4586   */\n      slt\n        /* \"#utility.yul\":4551:4670   */\n      iszero\n      tag_502\n      jumpi\n        /* \"#utility.yul\":4589:4668   */\n      tag_503\n      tag_469\n      jump\t// in\n    tag_503:\n        /* \"#utility.yul\":4551:4670   */\n    tag_502:\n        /* \"#utility.yul\":4709:4710   */\n      0x00\n        /* \"#utility.yul\":4734:4787   */\n      tag_504\n        /* \"#utility.yul\":4779:4786   */\n      dup7\n        /* \"#utility.yul\":4770:4776   */\n      dup3\n        /* \"#utility.yul\":4759:4768   */\n      dup8\n        /* \"#utility.yul\":4755:4777   */\n      add\n        /* \"#utility.yul\":4734:4787   */\n      tag_458\n      jump\t// in\n    tag_504:\n        /* \"#utility.yul\":4724:4787   */\n      swap4\n      pop\n        /* \"#utility.yul\":4680:4797   */\n      pop\n        /* \"#utility.yul\":4836:4838   */\n      0x20\n        /* \"#utility.yul\":4862:4913   */\n      tag_505\n        /* \"#utility.yul\":4905:4912   */\n      dup7\n        /* \"#utility.yul\":4896:4902   */\n      dup3\n        /* \"#utility.yul\":4885:4894   */\n      dup8\n        /* \"#utility.yul\":4881:4903   */\n      add\n        /* \"#utility.yul\":4862:4913   */\n      tag_462\n      jump\t// in\n    tag_505:\n        /* \"#utility.yul\":4852:4913   */\n      swap3\n      pop\n        /* \"#utility.yul\":4807:4923   */\n      pop\n        /* \"#utility.yul\":4962:4964   */\n      0x40\n        /* \"#utility.yul\":4988:5038   */\n      tag_506\n        /* \"#utility.yul\":5030:5037   */\n      dup7\n        /* \"#utility.yul\":5021:5027   */\n      dup3\n        /* \"#utility.yul\":5010:5019   */\n      dup8\n        /* \"#utility.yul\":5006:5028   */\n      add\n        /* \"#utility.yul\":4988:5038   */\n      tag_448\n      jump\t// in\n    tag_506:\n        /* \"#utility.yul\":4978:5038   */\n      swap2\n      pop\n        /* \"#utility.yul\":4933:5048   */\n      pop\n        /* \"#utility.yul\":4446:5055   */\n      swap3\n      pop\n      swap3\n      pop\n      swap3\n      jump\t// out\n        /* \"#utility.yul\":5061:5672   */\n    tag_22:\n        /* \"#utility.yul\":5134:5140   */\n      0x00\n        /* \"#utility.yul\":5142:5148   */\n      dup1\n        /* \"#utility.yul\":5150:5156   */\n      0x00\n        /* \"#utility.yul\":5199:5201   */\n      0x60\n        /* \"#utility.yul\":5187:5196   */\n      dup5\n        /* \"#utility.yul\":5178:5185   */\n      dup7\n        /* \"#utility.yul\":5174:5197   */\n      sub\n        /* \"#utility.yul\":5170:5202   */\n      slt\n        /* \"#utility.yul\":5167:5286   */\n      iszero\n      tag_508\n      jumpi\n        /* \"#utility.yul\":5205:5284   */\n      tag_509\n      tag_469\n      jump\t// in\n    tag_509:\n        /* \"#utility.yul\":5167:5286   */\n    tag_508:\n        /* \"#utility.yul\":5325:5326   */\n      0x00\n        /* \"#utility.yul\":5350:5403   */\n      tag_510\n        /* \"#utility.yul\":5395:5402   */\n      dup7\n        /* \"#utility.yul\":5386:5392   */\n      dup3\n        /* \"#utility.yul\":5375:5384   */\n      dup8\n        /* \"#utility.yul\":5371:5393   */\n      add\n        /* \"#utility.yul\":5350:5403   */\n      tag_458\n      jump\t// in\n    tag_510:\n        /* \"#utility.yul\":5340:5403   */\n      swap4\n      pop\n        /* \"#utility.yul\":5296:5413   */\n      pop\n        /* \"#utility.yul\":5452:5454   */\n      0x20\n        /* \"#utility.yul\":5478:5529   */\n      tag_511\n        /* \"#utility.yul\":5521:5528   */\n      dup7\n        /* \"#utility.yul\":5512:5518   */\n      dup3\n        /* \"#utility.yul\":5501:5510   */\n      dup8\n        /* \"#utility.yul\":5497:5519   */\n      add\n        /* \"#utility.yul\":5478:5529   */\n      tag_462\n      jump\t// in\n    tag_511:\n        /* \"#utility.yul\":5468:5529   */\n      swap3\n      pop\n        /* \"#utility.yul\":5423:5539   */\n      pop\n        /* \"#utility.yul\":5578:5580   */\n      0x40\n        /* \"#utility.yul\":5604:5655   */\n      tag_512\n        /* \"#utility.yul\":5647:5654   */\n      dup7\n        /* \"#utility.yul\":5638:5644   */\n      dup3\n        /* \"#utility.yul\":5627:5636   */\n      dup8\n        /* \"#utility.yul\":5623:5645   */\n      add\n        /* \"#utility.yul\":5604:5655   */\n      tag_462\n      jump\t// in\n    tag_512:\n        /* \"#utility.yul\":5594:5655   */\n      swap2\n      pop\n        /* \"#utility.yul\":5549:5665   */\n      pop\n        /* \"#utility.yul\":5061:5672   */\n      swap3\n      pop\n      swap3\n      pop\n      swap3\n      jump\t// out\n        /* \"#utility.yul\":5678:5946   */\n    tag_513:\n        /* \"#utility.yul\":5803:5813   */\n      0x00\n        /* \"#utility.yul\":5838:5940   */\n      tag_515\n        /* \"#utility.yul\":5936:5939   */\n      dup4\n        /* \"#utility.yul\":5928:5934   */\n      dup4\n        /* \"#utility.yul\":5838:5940   */\n      tag_516\n      jump\t// in\n    tag_515:\n        /* \"#utility.yul\":5824:5940   */\n      swap1\n      pop\n        /* \"#utility.yul\":5678:5946   */\n      swap3\n      swap2\n      pop\n      pop\n      jump\t// out\n        /* \"#utility.yul\":5952:6060   */\n    tag_517:\n        /* \"#utility.yul\":6029:6053   */\n      tag_519\n        /* \"#utility.yul\":6047:6052   */\n      dup2\n        /* \"#utility.yul\":6029:6053   */\n      tag_520\n      jump\t// in\n    tag_519:\n        /* \"#utility.yul\":6024:6027   */\n      dup3\n        /* \"#utility.yul\":6017:6054   */\n      mstore\n        /* \"#utility.yul\":5952:6060   */\n      pop\n      pop\n      jump\t// out\n        /* \"#utility.yul\":6066:6184   */\n    tag_521:\n        /* \"#utility.yul\":6153:6177   */\n      tag_523\n        /* \"#utility.yul\":6171:6176   */\n      dup2\n        /* \"#utility.yul\":6153:6177   */\n      tag_520\n      jump\t// in\n    tag_523:\n        /* \"#utility.yul\":6148:6151   */\n      dup3\n        /* \"#utility.yul\":6141:6178   */\n      mstore\n        /* \"#utility.yul\":6066:6184   */\n      pop\n      pop\n      jump\t// out\n        /* \"#utility.yul\":6278:7413   */\n    tag_524:\n        /* \"#utility.yul\":6453:6456   */\n      0x00\n        /* \"#utility.yul\":6482:6564   */\n      tag_526\n        /* \"#utility.yul\":6558:6563   */\n      dup3\n        /* \"#utility.yul\":6482:6564   */\n      tag_527\n      jump\t// in\n    tag_526:\n        /* \"#utility.yul\":6580:6694   */\n      tag_528\n        /* \"#utility.yul\":6687:6693   */\n      dup2\n        /* \"#utility.yul\":6682:6685   */\n      dup6\n        /* \"#utility.yul\":6580:6694   */\n      tag_529\n      jump\t// in\n    tag_528:\n        /* \"#utility.yul\":6573:6694   */\n      swap4\n      pop\n        /* \"#utility.yul\":6720:6723   */\n      dup4\n        /* \"#utility.yul\":6765:6769   */\n      0x20\n        /* \"#utility.yul\":6757:6763   */\n      dup3\n        /* \"#utility.yul\":6753:6770   */\n      mul\n        /* \"#utility.yul\":6748:6751   */\n      dup6\n        /* \"#utility.yul\":6744:6771   */\n      add\n        /* \"#utility.yul\":6795:6879   */\n      tag_530\n        /* \"#utility.yul\":6873:6878   */\n      dup6\n        /* \"#utility.yul\":6795:6879   */\n      tag_531\n      jump\t// in\n    tag_530:\n        /* \"#utility.yul\":6902:6909   */\n      dup1\n        /* \"#utility.yul\":6933:6934   */\n      0x00\n        /* \"#utility.yul\":6918:7368   */\n    tag_532:\n        /* \"#utility.yul\":6943:6949   */\n      dup6\n        /* \"#utility.yul\":6940:6941   */\n      dup2\n        /* \"#utility.yul\":6937:6950   */\n      lt\n        /* \"#utility.yul\":6918:7368   */\n      iszero\n      tag_534\n      jumpi\n        /* \"#utility.yul\":7014:7023   */\n      dup5\n        /* \"#utility.yul\":7008:7012   */\n      dup5\n        /* \"#utility.yul\":7004:7024   */\n      sub\n        /* \"#utility.yul\":6999:7002   */\n      dup10\n        /* \"#utility.yul\":6992:7025   */\n      mstore\n        /* \"#utility.yul\":7065:7071   */\n      dup2\n        /* \"#utility.yul\":7059:7072   */\n      mload\n        /* \"#utility.yul\":7093:7213   */\n      tag_535\n        /* \"#utility.yul\":7208:7212   */\n      dup6\n        /* \"#utility.yul\":7193:7206   */\n      dup3\n        /* \"#utility.yul\":7093:7213   */\n      tag_513\n      jump\t// in\n    tag_535:\n        /* \"#utility.yul\":7085:7213   */\n      swap5\n      pop\n        /* \"#utility.yul\":7236:7324   */\n      tag_536\n        /* \"#utility.yul\":7317:7323   */\n      dup4\n        /* \"#utility.yul\":7236:7324   */\n      tag_537\n      jump\t// in\n    tag_536:\n        /* \"#utility.yul\":7226:7324   */\n      swap3\n      pop\n        /* \"#utility.yul\":7353:7357   */\n      0x20\n        /* \"#utility.yul\":7348:7351   */\n      dup11\n        /* \"#utility.yul\":7344:7358   */\n      add\n        /* \"#utility.yul\":7337:7358   */\n      swap10\n      pop\n        /* \"#utility.yul\":6978:7368   */\n      pop\n        /* \"#utility.yul\":6965:6966   */\n      0x01\n        /* \"#utility.yul\":6962:6963   */\n      dup2\n        /* \"#utility.yul\":6958:6967   */\n      add\n        /* \"#utility.yul\":6953:6967   */\n      swap1\n      pop\n        /* \"#utility.yul\":6918:7368   */\n      jump(tag_532)\n    tag_534:\n        /* \"#utility.yul\":6922:6936   */\n      pop\n        /* \"#utility.yul\":7384:7388   */\n      dup3\n        /* \"#utility.yul\":7377:7388   */\n      swap8\n      pop\n        /* \"#utility.yul\":7404:7407   */\n      dup8\n        /* \"#utility.yul\":7397:7407   */\n      swap6\n      pop\n        /* \"#utility.yul\":6458:7413   */\n      pop\n      pop\n      pop\n      pop\n      pop\n        /* \"#utility.yul\":6278:7413   */\n      swap3\n      swap2\n      pop\n      pop\n      jump\t// out\n        /* \"#utility.yul\":7419:7763   */\n    tag_538:\n        /* \"#utility.yul\":7497:7500   */\n      0x00\n        /* \"#utility.yul\":7525:7564   */\n      tag_540\n        /* \"#utility.yul\":7558:7563   */\n      dup3\n        /* \"#utility.yul\":7525:7564   */\n      tag_541\n      jump\t// in\n    tag_540:\n        /* \"#utility.yul\":7580:7641   */\n      tag_542\n        /* \"#utility.yul\":7634:7640   */\n      dup2\n        /* \"#utility.yul\":7629:7632   */\n      dup6\n        /* \"#utility.yul\":7580:7641   */\n      tag_543\n      jump\t// in\n    tag_542:\n        /* \"#utility.yul\":7573:7641   */\n      swap4\n      pop\n        /* \"#utility.yul\":7650:7702   */\n      tag_544\n        /* \"#utility.yul\":7695:7701   */\n      dup2\n        /* \"#utility.yul\":7690:7693   */\n      dup6\n        /* \"#utility.yul\":7683:7687   */\n      0x20\n        /* \"#utility.yul\":7676:7681   */\n      dup7\n        /* \"#utility.yul\":7672:7688   */\n      add\n        /* \"#utility.yul\":7650:7702   */\n      tag_545\n      jump\t// in\n    tag_544:\n        /* \"#utility.yul\":7727:7756   */\n      tag_546\n        /* \"#utility.yul\":7749:7755   */\n      dup2\n        /* \"#utility.yul\":7727:7756   */\n      tag_547\n      jump\t// in\n    tag_546:\n        /* \"#utility.yul\":7722:7725   */\n      dup5\n        /* \"#utility.yul\":7718:7757   */\n      add\n        /* \"#utility.yul\":7711:7757   */\n      swap2\n      pop\n        /* \"#utility.yul\":7501:7763   */\n      pop\n        /* \"#utility.yul\":7419:7763   */\n      swap3\n      swap2\n      pop\n      pop\n      jump\t// out\n        /* \"#utility.yul\":7769:8146   */\n    tag_548:\n        /* \"#utility.yul\":7875:7878   */\n      0x00\n        /* \"#utility.yul\":7903:7942   */\n      tag_550\n        /* \"#utility.yul\":7936:7941   */\n      dup3\n        /* \"#utility.yul\":7903:7942   */\n      tag_541\n      jump\t// in\n    tag_550:\n        /* \"#utility.yul\":7958:8047   */\n      tag_551\n        /* \"#utility.yul\":8040:8046   */\n      dup2\n        /* \"#utility.yul\":8035:8038   */\n      dup6\n        /* \"#utility.yul\":7958:8047   */\n      tag_552\n      jump\t// in\n    tag_551:\n        /* \"#utility.yul\":7951:8047   */\n      swap4\n      pop\n        /* \"#utility.yul\":8056:8108   */\n      tag_553\n        /* \"#utility.yul\":8101:8107   */\n      dup2\n        /* \"#utility.yul\":8096:8099   */\n      dup6\n        /* \"#utility.yul\":8089:8093   */\n      0x20\n        /* \"#utility.yul\":8082:8087   */\n      dup7\n        /* \"#utility.yul\":8078:8094   */\n      add\n        /* \"#utility.yul\":8056:8108   */\n      tag_545\n      jump\t// in\n    tag_553:\n        /* \"#utility.yul\":8133:8139   */\n      dup1\n        /* \"#utility.yul\":8128:8131   */\n      dup5\n        /* \"#utility.yul\":8124:8140   */\n      add\n        /* \"#utility.yul\":8117:8140   */\n      swap2\n      pop\n        /* \"#utility.yul\":7879:8146   */\n      pop\n        /* \"#utility.yul\":7769:8146   */\n      swap3\n      swap2\n      pop\n      pop\n      jump\t// out\n        /* \"#utility.yul\":8152:8518   */\n    tag_554:\n        /* \"#utility.yul\":8294:8297   */\n      0x00\n        /* \"#utility.yul\":8315:8382   */\n      tag_556\n        /* \"#utility.yul\":8379:8381   */\n      0x26\n        /* \"#utility.yul\":8374:8377   */\n      dup4\n        /* \"#utility.yul\":8315:8382   */\n      tag_557\n      jump\t// in\n    tag_556:\n        /* \"#utility.yul\":8308:8382   */\n      swap2\n      pop\n        /* \"#utility.yul\":8391:8484   */\n      tag_558\n        /* \"#utility.yul\":8480:8483   */\n      dup3\n        /* \"#utility.yul\":8391:8484   */\n      tag_559\n      jump\t// in\n    tag_558:\n        /* \"#utility.yul\":8509:8511   */\n      0x40\n        /* \"#utility.yul\":8504:8507   */\n      dup3\n        /* \"#utility.yul\":8500:8512   */\n      add\n        /* \"#utility.yul\":8493:8512   */\n      swap1\n      pop\n        /* \"#utility.yul\":8152:8518   */\n      swap2\n      swap1\n      pop\n      jump\t// out\n        /* \"#utility.yul\":8524:8890   */\n    tag_560:\n        /* \"#utility.yul\":8666:8669   */\n      0x00\n        /* \"#utility.yul\":8687:8754   */\n      tag_562\n        /* \"#utility.yul\":8751:8753   */\n      0x32\n        /* \"#utility.yul\":8746:8749   */\n      dup4\n        /* \"#utility.yul\":8687:8754   */\n      tag_557\n      jump\t// in\n    tag_562:\n        /* \"#utility.yul\":8680:8754   */\n      swap2\n      pop\n        /* \"#utility.yul\":8763:8856   */\n      tag_563\n        /* \"#utility.yul\":8852:8855   */\n      dup3\n        /* \"#utility.yul\":8763:8856   */\n      tag_564\n      jump\t// in\n    tag_563:\n        /* \"#utility.yul\":8881:8883   */\n      0x40\n        /* \"#utility.yul\":8876:8879   */\n      dup3\n        /* \"#utility.yul\":8872:8884   */\n      add\n        /* \"#utility.yul\":8865:8884   */\n      swap1\n      pop\n        /* \"#utility.yul\":8524:8890   */\n      swap2\n      swap1\n      pop\n      jump\t// out\n        /* \"#utility.yul\":8896:9262   */\n    tag_565:\n        /* \"#utility.yul\":9038:9041   */\n      0x00\n        /* \"#utility.yul\":9059:9126   */\n      tag_567\n        /* \"#utility.yul\":9123:9125   */\n      0x44\n        /* \"#utility.yul\":9118:9121   */\n      dup4\n        /* \"#utility.yul\":9059:9126   */\n      tag_557\n      jump\t// in\n    tag_567:\n        /* \"#utility.yul\":9052:9126   */\n      swap2\n      pop\n        /* \"#utility.yul\":9135:9228   */\n      tag_568\n        /* \"#utility.yul\":9224:9227   */\n      dup3\n        /* \"#utility.yul\":9135:9228   */\n      tag_569\n      jump\t// in\n    tag_568:\n        /* \"#utility.yul\":9253:9255   */\n      0x60\n        /* \"#utility.yul\":9248:9251   */\n      dup3\n        /* \"#utility.yul\":9244:9256   */\n      add\n        /* \"#utility.yul\":9237:9256   */\n      swap1\n      pop\n        /* \"#utility.yul\":8896:9262   */\n      swap2\n      swap1\n      pop\n      jump\t// out\n        /* \"#utility.yul\":9268:9634   */\n    tag_570:\n        /* \"#utility.yul\":9410:9413   */\n      0x00\n        /* \"#utility.yul\":9431:9498   */\n      tag_572\n        /* \"#utility.yul\":9495:9497   */\n      0x16\n        /* \"#utility.yul\":9490:9493   */\n      dup4\n        /* \"#utility.yul\":9431:9498   */\n      tag_557\n      jump\t// in\n    tag_572:\n        /* \"#utility.yul\":9424:9498   */\n      swap2\n      pop\n        /* \"#utility.yul\":9507:9600   */\n      tag_573\n        /* \"#utility.yul\":9596:9599   */\n      dup3\n        /* \"#utility.yul\":9507:9600   */\n      tag_574\n      jump\t// in\n    tag_573:\n        /* \"#utility.yul\":9625:9627   */\n      0x20\n        /* \"#utility.yul\":9620:9623   */\n      dup3\n        /* \"#utility.yul\":9616:9628   */\n      add\n        /* \"#utility.yul\":9609:9628   */\n      swap1\n      pop\n        /* \"#utility.yul\":9268:9634   */\n      swap2\n      swap1\n      pop\n      jump\t// out\n        /* \"#utility.yul\":9640:10006   */\n    tag_575:\n        /* \"#utility.yul\":9782:9785   */\n      0x00\n        /* \"#utility.yul\":9803:9870   */\n      tag_577\n        /* \"#utility.yul\":9867:9869   */\n      0x20\n        /* \"#utility.yul\":9862:9865   */\n      dup4\n        /* \"#utility.yul\":9803:9870   */\n      tag_557\n      jump\t// in\n    tag_577:\n        /* \"#utility.yul\":9796:9870   */\n      swap2\n      pop\n        /* \"#utility.yul\":9879:9972   */\n      tag_578\n        /* \"#utility.yul\":9968:9971   */\n      dup3\n        /* \"#utility.yul\":9879:9972   */\n      tag_579\n      jump\t// in\n    tag_578:\n        /* \"#utility.yul\":9997:9999   */\n      0x20\n        /* \"#utility.yul\":9992:9995   */\n      dup3\n        /* \"#utility.yul\":9988:10000   */\n      add\n        /* \"#utility.yul\":9981:10000   */\n      swap1\n      pop\n        /* \"#utility.yul\":9640:10006   */\n      swap2\n      swap1\n      pop\n      jump\t// out\n        /* \"#utility.yul\":10012:10378   */\n    tag_580:\n        /* \"#utility.yul\":10154:10157   */\n      0x00\n        /* \"#utility.yul\":10175:10242   */\n      tag_582\n        /* \"#utility.yul\":10239:10241   */\n      0x27\n        /* \"#utility.yul\":10234:10237   */\n      dup4\n        /* \"#utility.yul\":10175:10242   */\n      tag_557\n      jump\t// in\n    tag_582:\n        /* \"#utility.yul\":10168:10242   */\n      swap2\n      pop\n        /* \"#utility.yul\":10251:10344   */\n      tag_583\n        /* \"#utility.yul\":10340:10343   */\n      dup3\n        /* \"#utility.yul\":10251:10344   */\n      tag_584\n      jump\t// in\n    tag_583:\n        /* \"#utility.yul\":10369:10371   */\n      0x40\n        /* \"#utility.yul\":10364:10367   */\n      dup3\n        /* \"#utility.yul\":10360:10372   */\n      add\n        /* \"#utility.yul\":10353:10372   */\n      swap1\n      pop\n        /* \"#utility.yul\":10012:10378   */\n      swap2\n      swap1\n      pop\n      jump\t// out\n        /* \"#utility.yul\":10384:10750   */\n    tag_585:\n        /* \"#utility.yul\":10526:10529   */\n      0x00\n        /* \"#utility.yul\":10547:10614   */\n      tag_587\n        /* \"#utility.yul\":10611:10613   */\n      0x3d\n        /* \"#utility.yul\":10606:10609   */\n      dup4\n        /* \"#utility.yul\":10547:10614   */\n      tag_557\n      jump\t// in\n    tag_587:\n        /* \"#utility.yul\":10540:10614   */\n      swap2\n      pop\n        /* \"#utility.yul\":10623:10716   */\n      tag_588\n        /* \"#utility.yul\":10712:10715   */\n      dup3\n        /* \"#utility.yul\":10623:10716   */\n      tag_589\n      jump\t// in\n    tag_588:\n        /* \"#utility.yul\":10741:10743   */\n      0x40\n        /* \"#utility.yul\":10736:10739   */\n      dup3\n        /* \"#utility.yul\":10732:10744   */\n      add\n        /* \"#utility.yul\":10725:10744   */\n      swap1\n      pop\n        /* \"#utility.yul\":10384:10750   */\n      swap2\n      swap1\n      pop\n      jump\t// out\n        /* \"#utility.yul\":10840:12405   */\n    tag_516:\n        /* \"#utility.yul\":10955:10958   */\n      0x00\n        /* \"#utility.yul\":10991:10995   */\n      0xe0\n        /* \"#utility.yul\":10986:10989   */\n      dup4\n        /* \"#utility.yul\":10982:10996   */\n      add\n        /* \"#utility.yul\":11076:11080   */\n      0x00\n        /* \"#utility.yul\":11069:11074   */\n      dup4\n        /* \"#utility.yul\":11065:11081   */\n      add\n        /* \"#utility.yul\":11059:11082   */\n      mload\n        /* \"#utility.yul\":11095:11158   */\n      tag_591\n        /* \"#utility.yul\":11152:11156   */\n      0x00\n        /* \"#utility.yul\":11147:11150   */\n      dup7\n        /* \"#utility.yul\":11143:11157   */\n      add\n        /* \"#utility.yul\":11129:11141   */\n      dup3\n        /* \"#utility.yul\":11095:11158   */\n      tag_592\n      jump\t// in\n    tag_591:\n        /* \"#utility.yul\":11006:11168   */\n      pop\n        /* \"#utility.yul\":11250:11254   */\n      0x20\n        /* \"#utility.yul\":11243:11248   */\n      dup4\n        /* \"#utility.yul\":11239:11255   */\n      add\n        /* \"#utility.yul\":11233:11256   */\n      mload\n        /* \"#utility.yul\":11269:11332   */\n      tag_593\n        /* \"#utility.yul\":11326:11330   */\n      0x20\n        /* \"#utility.yul\":11321:11324   */\n      dup7\n        /* \"#utility.yul\":11317:11331   */\n      add\n        /* \"#utility.yul\":11303:11315   */\n      dup3\n        /* \"#utility.yul\":11269:11332   */\n      tag_517\n      jump\t// in\n    tag_593:\n        /* \"#utility.yul\":11178:11342   */\n      pop\n        /* \"#utility.yul\":11422:11426   */\n      0x40\n        /* \"#utility.yul\":11415:11420   */\n      dup4\n        /* \"#utility.yul\":11411:11427   */\n      add\n        /* \"#utility.yul\":11405:11428   */\n      mload\n        /* \"#utility.yul\":11441:11504   */\n      tag_594\n        /* \"#utility.yul\":11498:11502   */\n      0x40\n        /* \"#utility.yul\":11493:11496   */\n      dup7\n        /* \"#utility.yul\":11489:11503   */\n      add\n        /* \"#utility.yul\":11475:11487   */\n      dup3\n        /* \"#utility.yul\":11441:11504   */\n      tag_517\n      jump\t// in\n    tag_594:\n        /* \"#utility.yul\":11352:11514   */\n      pop\n        /* \"#utility.yul\":11603:11607   */\n      0x60\n        /* \"#utility.yul\":11596:11601   */\n      dup4\n        /* \"#utility.yul\":11592:11608   */\n      add\n        /* \"#utility.yul\":11586:11609   */\n      mload\n        /* \"#utility.yul\":11656:11659   */\n      dup5\n        /* \"#utility.yul\":11650:11654   */\n      dup3\n        /* \"#utility.yul\":11646:11660   */\n      sub\n        /* \"#utility.yul\":11639:11643   */\n      0x60\n        /* \"#utility.yul\":11634:11637   */\n      dup7\n        /* \"#utility.yul\":11630:11644   */\n      add\n        /* \"#utility.yul\":11623:11661   */\n      mstore\n        /* \"#utility.yul\":11682:11755   */\n      tag_595\n        /* \"#utility.yul\":11750:11754   */\n      dup3\n        /* \"#utility.yul\":11736:11748   */\n      dup3\n        /* \"#utility.yul\":11682:11755   */\n      tag_538\n      jump\t// in\n    tag_595:\n        /* \"#utility.yul\":11674:11755   */\n      swap2\n      pop\n        /* \"#utility.yul\":11524:11766   */\n      pop\n        /* \"#utility.yul\":11857:11861   */\n      0x80\n        /* \"#utility.yul\":11850:11855   */\n      dup4\n        /* \"#utility.yul\":11846:11862   */\n      add\n        /* \"#utility.yul\":11840:11863   */\n      mload\n        /* \"#utility.yul\":11910:11913   */\n      dup5\n        /* \"#utility.yul\":11904:11908   */\n      dup3\n        /* \"#utility.yul\":11900:11914   */\n      sub\n        /* \"#utility.yul\":11893:11897   */\n      0x80\n        /* \"#utility.yul\":11888:11891   */\n      dup7\n        /* \"#utility.yul\":11884:11898   */\n      add\n        /* \"#utility.yul\":11877:11915   */\n      mstore\n        /* \"#utility.yul\":11936:12009   */\n      tag_596\n        /* \"#utility.yul\":12004:12008   */\n      dup3\n        /* \"#utility.yul\":11990:12002   */\n      dup3\n        /* \"#utility.yul\":11936:12009   */\n      tag_538\n      jump\t// in\n    tag_596:\n        /* \"#utility.yul\":11928:12009   */\n      swap2\n      pop\n        /* \"#utility.yul\":11776:12020   */\n      pop\n        /* \"#utility.yul\":12110:12114   */\n      0xa0\n        /* \"#utility.yul\":12103:12108   */\n      dup4\n        /* \"#utility.yul\":12099:12115   */\n      add\n        /* \"#utility.yul\":12093:12116   */\n      mload\n        /* \"#utility.yul\":12129:12188   */\n      tag_597\n        /* \"#utility.yul\":12182:12186   */\n      0xa0\n        /* \"#utility.yul\":12177:12180   */\n      dup7\n        /* \"#utility.yul\":12173:12187   */\n      add\n        /* \"#utility.yul\":12159:12171   */\n      dup3\n        /* \"#utility.yul\":12129:12188   */\n      tag_598\n      jump\t// in\n    tag_597:\n        /* \"#utility.yul\":12030:12198   */\n      pop\n        /* \"#utility.yul\":12290:12294   */\n      0xc0\n        /* \"#utility.yul\":12283:12288   */\n      dup4\n        /* \"#utility.yul\":12279:12295   */\n      add\n        /* \"#utility.yul\":12273:12296   */\n      mload\n        /* \"#utility.yul\":12309:12368   */\n      tag_599\n        /* \"#utility.yul\":12362:12366   */\n      0xc0\n        /* \"#utility.yul\":12357:12360   */\n      dup7\n        /* \"#utility.yul\":12353:12367   */\n      add\n        /* \"#utility.yul\":12339:12351   */\n      dup3\n        /* \"#utility.yul\":12309:12368   */\n      tag_598\n      jump\t// in\n    tag_599:\n        /* \"#utility.yul\":12208:12378   */\n      pop\n        /* \"#utility.yul\":12395:12399   */\n      dup1\n        /* \"#utility.yul\":12388:12399   */\n      swap2\n      pop\n        /* \"#utility.yul\":10960:12405   */\n      pop\n        /* \"#utility.yul\":10840:12405   */\n      swap3\n      swap2\n      pop\n      pop\n      jump\t// out\n        /* \"#utility.yul\":12411:12519   */\n    tag_592:\n        /* \"#utility.yul\":12488:12512   */\n      tag_601\n        /* \"#utility.yul\":12506:12511   */\n      dup2\n        /* \"#utility.yul\":12488:12512   */\n      tag_602\n      jump\t// in\n    tag_601:\n        /* \"#utility.yul\":12483:12486   */\n      dup3\n        /* \"#utility.yul\":12476:12513   */\n      mstore\n        /* \"#utility.yul\":12411:12519   */\n      pop\n      pop\n      jump\t// out\n        /* \"#utility.yul\":12525:12643   */\n    tag_603:\n        /* \"#utility.yul\":12612:12636   */\n      tag_605\n        /* \"#utility.yul\":12630:12635   */\n      dup2\n        /* \"#utility.yul\":12612:12636   */\n      tag_602\n      jump\t// in\n    tag_605:\n        /* \"#utility.yul\":12607:12610   */\n      dup3\n        /* \"#utility.yul\":12600:12637   */\n      mstore\n        /* \"#utility.yul\":12525:12643   */\n      pop\n      pop\n      jump\t// out\n        /* \"#utility.yul\":12649:12751   */\n    tag_598:\n        /* \"#utility.yul\":12722:12744   */\n      tag_607\n        /* \"#utility.yul\":12738:12743   */\n      dup2\n        /* \"#utility.yul\":12722:12744   */\n      tag_608\n      jump\t// in\n    tag_607:\n        /* \"#utility.yul\":12717:12720   */\n      dup3\n        /* \"#utility.yul\":12710:12745   */\n      mstore\n        /* \"#utility.yul\":12649:12751   */\n      pop\n      pop\n      jump\t// out\n        /* \"#utility.yul\":12757:12869   */\n    tag_609:\n        /* \"#utility.yul\":12840:12862   */\n      tag_611\n        /* \"#utility.yul\":12856:12861   */\n      dup2\n        /* \"#utility.yul\":12840:12862   */\n      tag_608\n      jump\t// in\n    tag_611:\n        /* \"#utility.yul\":12835:12838   */\n      dup3\n        /* \"#utility.yul\":12828:12863   */\n      mstore\n        /* \"#utility.yul\":12757:12869   */\n      pop\n      pop\n      jump\t// out\n        /* \"#utility.yul\":12875:13150   */\n    tag_406:\n        /* \"#utility.yul\":13007:13010   */\n      0x00\n        /* \"#utility.yul\":13029:13124   */\n      tag_613\n        /* \"#utility.yul\":13120:13123   */\n      dup3\n        /* \"#utility.yul\":13111:13117   */\n      dup5\n        /* \"#utility.yul\":13029:13124   */\n      tag_548\n      jump\t// in\n    tag_613:\n        /* \"#utility.yul\":13022:13124   */\n      swap2\n      pop\n        /* \"#utility.yul\":13141:13144   */\n      dup2\n        /* \"#utility.yul\":13134:13144   */\n      swap1\n      pop\n        /* \"#utility.yul\":12875:13150   */\n      swap3\n      swap2\n      pop\n      pop\n      jump\t// out\n        /* \"#utility.yul\":13156:13378   */\n    tag_48:\n        /* \"#utility.yul\":13249:13253   */\n      0x00\n        /* \"#utility.yul\":13287:13289   */\n      0x20\n        /* \"#utility.yul\":13276:13285   */\n      dup3\n        /* \"#utility.yul\":13272:13290   */\n      add\n        /* \"#utility.yul\":13264:13290   */\n      swap1\n      pop\n        /* \"#utility.yul\":13300:13371   */\n      tag_615\n        /* \"#utility.yul\":13368:13369   */\n      0x00\n        /* \"#utility.yul\":13357:13366   */\n      dup4\n        /* \"#utility.yul\":13353:13370   */\n      add\n        /* \"#utility.yul\":13344:13350   */\n      dup5\n        /* \"#utility.yul\":13300:13371   */\n      tag_521\n      jump\t// in\n    tag_615:\n        /* \"#utility.yul\":13156:13378   */\n      swap3\n      swap2\n      pop\n      pop\n      jump\t// out\n        /* \"#utility.yul\":13384:13869   */\n    tag_27:\n        /* \"#utility.yul\":13583:13587   */\n      0x00\n        /* \"#utility.yul\":13621:13623   */\n      0x20\n        /* \"#utility.yul\":13610:13619   */\n      dup3\n        /* \"#utility.yul\":13606:13624   */\n      add\n        /* \"#utility.yul\":13598:13624   */\n      swap1\n      pop\n        /* \"#utility.yul\":13670:13679   */\n      dup2\n        /* \"#utility.yul\":13664:13668   */\n      dup2\n        /* \"#utility.yul\":13660:13680   */\n      sub\n        /* \"#utility.yul\":13656:13657   */\n      0x00\n        /* \"#utility.yul\":13645:13654   */\n      dup4\n        /* \"#utility.yul\":13641:13658   */\n      add\n        /* \"#utility.yul\":13634:13681   */\n      mstore\n        /* \"#utility.yul\":13698:13862   */\n      tag_617\n        /* \"#utility.yul\":13857:13861   */\n      dup2\n        /* \"#utility.yul\":13848:13854   */\n      dup5\n        /* \"#utility.yul\":13698:13862   */\n      tag_524\n      jump\t// in\n    tag_617:\n        /* \"#utility.yul\":13690:13862   */\n      swap1\n      pop\n        /* \"#utility.yul\":13384:13869   */\n      swap3\n      swap2\n      pop\n      pop\n      jump\t// out\n        /* \"#utility.yul\":13875:14294   */\n    tag_395:\n        /* \"#utility.yul\":14041:14045   */\n      0x00\n        /* \"#utility.yul\":14079:14081   */\n      0x20\n        /* \"#utility.yul\":14068:14077   */\n      dup3\n        /* \"#utility.yul\":14064:14082   */\n      add\n        /* \"#utility.yul\":14056:14082   */\n      swap1\n      pop\n        /* \"#utility.yul\":14128:14137   */\n      dup2\n        /* \"#utility.yul\":14122:14126   */\n      dup2\n        /* \"#utility.yul\":14118:14138   */\n      sub\n        /* \"#utility.yul\":14114:14115   */\n      0x00\n        /* \"#utility.yul\":14103:14112   */\n      dup4\n        /* \"#utility.yul\":14099:14116   */\n      add\n        /* \"#utility.yul\":14092:14139   */\n      mstore\n        /* \"#utility.yul\":14156:14287   */\n      tag_619\n        /* \"#utility.yul\":14282:14286   */\n      dup2\n        /* \"#utility.yul\":14156:14287   */\n      tag_554\n      jump\t// in\n    tag_619:\n        /* \"#utility.yul\":14148:14287   */\n      swap1\n      pop\n        /* \"#utility.yul\":13875:14294   */\n      swap2\n      swap1\n      pop\n      jump\t// out\n        /* \"#utility.yul\":14300:14719   */\n    tag_204:\n        /* \"#utility.yul\":14466:14470   */\n      0x00\n        /* \"#utility.yul\":14504:14506   */\n      0x20\n        /* \"#utility.yul\":14493:14502   */\n      dup3\n        /* \"#utility.yul\":14489:14507   */\n      add\n        /* \"#utility.yul\":14481:14507   */\n      swap1\n      pop\n        /* \"#utility.yul\":14553:14562   */\n      dup2\n        /* \"#utility.yul\":14547:14551   */\n      dup2\n        /* \"#utility.yul\":14543:14563   */\n      sub\n        /* \"#utility.yul\":14539:14540   */\n      0x00\n        /* \"#utility.yul\":14528:14537   */\n      dup4\n        /* \"#utility.yul\":14524:14541   */\n      add\n        /* \"#utility.yul\":14517:14564   */\n      mstore\n        /* \"#utility.yul\":14581:14712   */\n      tag_621\n        /* \"#utility.yul\":14707:14711   */\n      dup2\n        /* \"#utility.yul\":14581:14712   */\n      tag_560\n      jump\t// in\n    tag_621:\n        /* \"#utility.yul\":14573:14712   */\n      swap1\n      pop\n        /* \"#utility.yul\":14300:14719   */\n      swap2\n      swap1\n      pop\n      jump\t// out\n        /* \"#utility.yul\":14725:15144   */\n    tag_131:\n        /* \"#utility.yul\":14891:14895   */\n      0x00\n        /* \"#utility.yul\":14929:14931   */\n      0x20\n        /* \"#utility.yul\":14918:14927   */\n      dup3\n        /* \"#utility.yul\":14914:14932   */\n      add\n        /* \"#utility.yul\":14906:14932   */\n      swap1\n      pop\n        /* \"#utility.yul\":14978:14987   */\n      dup2\n        /* \"#utility.yul\":14972:14976   */\n      dup2\n        /* \"#utility.yul\":14968:14988   */\n      sub\n        /* \"#utility.yul\":14964:14965   */\n      0x00\n        /* \"#utility.yul\":14953:14962   */\n      dup4\n        /* \"#utility.yul\":14949:14966   */\n      add\n        /* \"#utility.yul\":14942:14989   */\n      mstore\n        /* \"#utility.yul\":15006:15137   */\n      tag_623\n        /* \"#utility.yul\":15132:15136   */\n      dup2\n        /* \"#utility.yul\":15006:15137   */\n      tag_565\n      jump\t// in\n    tag_623:\n        /* \"#utility.yul\":14998:15137   */\n      swap1\n      pop\n        /* \"#utility.yul\":14725:15144   */\n      swap2\n      swap1\n      pop\n      jump\t// out\n        /* \"#utility.yul\":15150:15569   */\n    tag_92:\n        /* \"#utility.yul\":15316:15320   */\n      0x00\n        /* \"#utility.yul\":15354:15356   */\n      0x20\n        /* \"#utility.yul\":15343:15352   */\n      dup3\n        /* \"#utility.yul\":15339:15357   */\n      add\n        /* \"#utility.yul\":15331:15357   */\n      swap1\n      pop\n        /* \"#utility.yul\":15403:15412   */\n      dup2\n        /* \"#utility.yul\":15397:15401   */\n      dup2\n        /* \"#utility.yul\":15393:15413   */\n      sub\n        /* \"#utility.yul\":15389:15390   */\n      0x00\n        /* \"#utility.yul\":15378:15387   */\n      dup4\n        /* \"#utility.yul\":15374:15391   */\n      add\n        /* \"#utility.yul\":15367:15414   */\n      mstore\n        /* \"#utility.yul\":15431:15562   */\n      tag_625\n        /* \"#utility.yul\":15557:15561   */\n      dup2\n        /* \"#utility.yul\":15431:15562   */\n      tag_570\n      jump\t// in\n    tag_625:\n        /* \"#utility.yul\":15423:15562   */\n      swap1\n      pop\n        /* \"#utility.yul\":15150:15569   */\n      swap2\n      swap1\n      pop\n      jump\t// out\n        /* \"#utility.yul\":15575:15994   */\n    tag_403:\n        /* \"#utility.yul\":15741:15745   */\n      0x00\n        /* \"#utility.yul\":15779:15781   */\n      0x20\n        /* \"#utility.yul\":15768:15777   */\n      dup3\n        /* \"#utility.yul\":15764:15782   */\n      add\n        /* \"#utility.yul\":15756:15782   */\n      swap1\n      pop\n        /* \"#utility.yul\":15828:15837   */\n      dup2\n        /* \"#utility.yul\":15822:15826   */\n      dup2\n        /* \"#utility.yul\":15818:15838   */\n      sub\n        /* \"#utility.yul\":15814:15815   */\n      0x00\n        /* \"#utility.yul\":15803:15812   */\n      dup4\n        /* \"#utility.yul\":15799:15816   */\n      add\n        /* \"#utility.yul\":15792:15839   */\n      mstore\n        /* \"#utility.yul\":15856:15987   */\n      tag_627\n        /* \"#utility.yul\":15982:15986   */\n      dup2\n        /* \"#utility.yul\":15856:15987   */\n      tag_575\n      jump\t// in\n    tag_627:\n        /* \"#utility.yul\":15848:15987   */\n      swap1\n      pop\n        /* \"#utility.yul\":15575:15994   */\n      swap2\n      swap1\n      pop\n      jump\t// out\n        /* \"#utility.yul\":16000:16419   */\n    tag_312:\n        /* \"#utility.yul\":16166:16170   */\n      0x00\n        /* \"#utility.yul\":16204:16206   */\n      0x20\n        /* \"#utility.yul\":16193:16202   */\n      dup3\n        /* \"#utility.yul\":16189:16207   */\n      add\n        /* \"#utility.yul\":16181:16207   */\n      swap1\n      pop\n        /* \"#utility.yul\":16253:16262   */\n      dup2\n        /* \"#utility.yul\":16247:16251   */\n      dup2\n        /* \"#utility.yul\":16243:16263   */\n      sub\n        /* \"#utility.yul\":16239:16240   */\n      0x00\n        /* \"#utility.yul\":16228:16237   */\n      dup4\n        /* \"#utility.yul\":16224:16241   */\n      add\n        /* \"#utility.yul\":16217:16264   */\n      mstore\n        /* \"#utility.yul\":16281:16412   */\n      tag_629\n        /* \"#utility.yul\":16407:16411   */\n      dup2\n        /* \"#utility.yul\":16281:16412   */\n      tag_580\n      jump\t// in\n    tag_629:\n        /* \"#utility.yul\":16273:16412   */\n      swap1\n      pop\n        /* \"#utility.yul\":16000:16419   */\n      swap2\n      swap1\n      pop\n      jump\t// out\n        /* \"#utility.yul\":16425:16844   */\n    tag_309:\n        /* \"#utility.yul\":16591:16595   */\n      0x00\n        /* \"#utility.yul\":16629:16631   */\n      0x20\n        /* \"#utility.yul\":16618:16627   */\n      dup3\n        /* \"#utility.yul\":16614:16632   */\n      add\n        /* \"#utility.yul\":16606:16632   */\n      swap1\n      pop\n        /* \"#utility.yul\":16678:16687   */\n      dup2\n        /* \"#utility.yul\":16672:16676   */\n      dup2\n        /* \"#utility.yul\":16668:16688   */\n      sub\n        /* \"#utility.yul\":16664:16665   */\n      0x00\n        /* \"#utility.yul\":16653:16662   */\n      dup4\n        /* \"#utility.yul\":16649:16666   */\n      add\n        /* \"#utility.yul\":16642:16689   */\n      mstore\n        /* \"#utility.yul\":16706:16837   */\n      tag_631\n        /* \"#utility.yul\":16832:16836   */\n      dup2\n        /* \"#utility.yul\":16706:16837   */\n      tag_585\n      jump\t// in\n    tag_631:\n        /* \"#utility.yul\":16698:16837   */\n      swap1\n      pop\n        /* \"#utility.yul\":16425:16844   */\n      swap2\n      swap1\n      pop\n      jump\t// out\n        /* \"#utility.yul\":16850:17072   */\n    tag_57:\n        /* \"#utility.yul\":16943:16947   */\n      0x00\n        /* \"#utility.yul\":16981:16983   */\n      0x20\n        /* \"#utility.yul\":16970:16979   */\n      dup3\n        /* \"#utility.yul\":16966:16984   */\n      add\n        /* \"#utility.yul\":16958:16984   */\n      swap1\n      pop\n        /* \"#utility.yul\":16994:17065   */\n      tag_633\n        /* \"#utility.yul\":17062:17063   */\n      0x00\n        /* \"#utility.yul\":17051:17060   */\n      dup4\n        /* \"#utility.yul\":17047:17064   */\n      add\n        /* \"#utility.yul\":17038:17044   */\n      dup5\n        /* \"#utility.yul\":16994:17065   */\n      tag_603\n      jump\t// in\n    tag_633:\n        /* \"#utility.yul\":16850:17072   */\n      swap3\n      swap2\n      pop\n      pop\n      jump\t// out\n        /* \"#utility.yul\":17078:17504   */\n    tag_108:\n        /* \"#utility.yul\":17219:17223   */\n      0x00\n        /* \"#utility.yul\":17257:17259   */\n      0x60\n        /* \"#utility.yul\":17246:17255   */\n      dup3\n        /* \"#utility.yul\":17242:17260   */\n      add\n        /* \"#utility.yul\":17234:17260   */\n      swap1\n      pop\n        /* \"#utility.yul\":17270:17341   */\n      tag_635\n        /* \"#utility.yul\":17338:17339   */\n      0x00\n        /* \"#utility.yul\":17327:17336   */\n      dup4\n        /* \"#utility.yul\":17323:17340   */\n      add\n        /* \"#utility.yul\":17314:17320   */\n      dup7\n        /* \"#utility.yul\":17270:17341   */\n      tag_603\n      jump\t// in\n    tag_635:\n        /* \"#utility.yul\":17351:17419   */\n      tag_636\n        /* \"#utility.yul\":17415:17417   */\n      0x20\n        /* \"#utility.yul\":17404:17413   */\n      dup4\n        /* \"#utility.yul\":17400:17418   */\n      add\n        /* \"#utility.yul\":17391:17397   */\n      dup6\n        /* \"#utility.yul\":17351:17419   */\n      tag_609\n      jump\t// in\n    tag_636:\n        /* \"#utility.yul\":17429:17497   */\n      tag_637\n        /* \"#utility.yul\":17493:17495   */\n      0x40\n        /* \"#utility.yul\":17482:17491   */\n      dup4\n        /* \"#utility.yul\":17478:17496   */\n      add\n        /* \"#utility.yul\":17469:17475   */\n      dup5\n        /* \"#utility.yul\":17429:17497   */\n      tag_609\n      jump\t// in\n    tag_637:\n        /* \"#utility.yul\":17078:17504   */\n      swap5\n      swap4\n      pop\n      pop\n      pop\n      pop\n      jump\t// out\n        /* \"#utility.yul\":17510:17639   */\n    tag_438:\n        /* \"#utility.yul\":17544:17550   */\n      0x00\n        /* \"#utility.yul\":17571:17591   */\n      tag_639\n      tag_640\n      jump\t// in\n    tag_639:\n        /* \"#utility.yul\":17561:17591   */\n      swap1\n      pop\n        /* \"#utility.yul\":17600:17633   */\n      tag_641\n        /* \"#utility.yul\":17628:17632   */\n      dup3\n        /* \"#utility.yul\":17620:17626   */\n      dup3\n        /* \"#utility.yul\":17600:17633   */\n      tag_642\n      jump\t// in\n    tag_641:\n        /* \"#utility.yul\":17510:17639   */\n      swap2\n      swap1\n      pop\n      jump\t// out\n        /* \"#utility.yul\":17645:17720   */\n    tag_640:\n        /* \"#utility.yul\":17678:17684   */\n      0x00\n        /* \"#utility.yul\":17711:17713   */\n      0x40\n        /* \"#utility.yul\":17705:17714   */\n      mload\n        /* \"#utility.yul\":17695:17714   */\n      swap1\n      pop\n        /* \"#utility.yul\":17645:17720   */\n      swap1\n      jump\t// out\n        /* \"#utility.yul\":17726:18034   */\n    tag_437:\n        /* \"#utility.yul\":17788:17792   */\n      0x00\n        /* \"#utility.yul\":17878:17896   */\n      0xffffffffffffffff\n        /* \"#utility.yul\":17870:17876   */\n      dup3\n        /* \"#utility.yul\":17867:17897   */\n      gt\n        /* \"#utility.yul\":17864:17920   */\n      iszero\n      tag_645\n      jumpi\n        /* \"#utility.yul\":17900:17918   */\n      tag_646\n      tag_140\n      jump\t// in\n    tag_646:\n        /* \"#utility.yul\":17864:17920   */\n    tag_645:\n        /* \"#utility.yul\":17938:17967   */\n      tag_647\n        /* \"#utility.yul\":17960:17966   */\n      dup3\n        /* \"#utility.yul\":17938:17967   */\n      tag_547\n      jump\t// in\n    tag_647:\n        /* \"#utility.yul\":17930:17967   */\n      swap1\n      pop\n        /* \"#utility.yul\":18022:18026   */\n      0x20\n        /* \"#utility.yul\":18016:18020   */\n      dup2\n        /* \"#utility.yul\":18012:18027   */\n      add\n        /* \"#utility.yul\":18004:18027   */\n      swap1\n      pop\n        /* \"#utility.yul\":17726:18034   */\n      swap2\n      swap1\n      pop\n      jump\t// out\n        /* \"#utility.yul\":18040:18200   */\n    tag_531:\n        /* \"#utility.yul\":18135:18139   */\n      0x00\n        /* \"#utility.yul\":18158:18161   */\n      dup2\n        /* \"#utility.yul\":18150:18161   */\n      swap1\n      pop\n        /* \"#utility.yul\":18188:18192   */\n      0x20\n        /* \"#utility.yul\":18183:18186   */\n      dup3\n        /* \"#utility.yul\":18179:18193   */\n      add\n        /* \"#utility.yul\":18171:18193   */\n      swap1\n      pop\n        /* \"#utility.yul\":18040:18200   */\n      swap2\n      swap1\n      pop\n      jump\t// out\n        /* \"#utility.yul\":18206:18348   */\n    tag_527:\n        /* \"#utility.yul\":18301:18307   */\n      0x00\n        /* \"#utility.yul\":18335:18340   */\n      dup2\n        /* \"#utility.yul\":18329:18341   */\n      mload\n        /* \"#utility.yul\":18319:18341   */\n      swap1\n      pop\n        /* \"#utility.yul\":18206:18348   */\n      swap2\n      swap1\n      pop\n      jump\t// out\n        /* \"#utility.yul\":18354:18453   */\n    tag_541:\n        /* \"#utility.yul\":18406:18412   */\n      0x00\n        /* \"#utility.yul\":18440:18445   */\n      dup2\n        /* \"#utility.yul\":18434:18446   */\n      mload\n        /* \"#utility.yul\":18424:18446   */\n      swap1\n      pop\n        /* \"#utility.yul\":18354:18453   */\n      swap2\n      swap1\n      pop\n      jump\t// out\n        /* \"#utility.yul\":18459:18600   */\n    tag_537:\n        /* \"#utility.yul\":18557:18561   */\n      0x00\n        /* \"#utility.yul\":18589:18593   */\n      0x20\n        /* \"#utility.yul\":18584:18587   */\n      dup3\n        /* \"#utility.yul\":18580:18594   */\n      add\n        /* \"#utility.yul\":18572:18594   */\n      swap1\n      pop\n        /* \"#utility.yul\":18459:18600   */\n      swap2\n      swap1\n      pop\n      jump\t// out\n        /* \"#utility.yul\":18606:18818   */\n    tag_529:\n        /* \"#utility.yul\":18733:18744   */\n      0x00\n        /* \"#utility.yul\":18767:18773   */\n      dup3\n        /* \"#utility.yul\":18762:18765   */\n      dup3\n        /* \"#utility.yul\":18755:18774   */\n      mstore\n        /* \"#utility.yul\":18807:18811   */\n      0x20\n        /* \"#utility.yul\":18802:18805   */\n      dup3\n        /* \"#utility.yul\":18798:18812   */\n      add\n        /* \"#utility.yul\":18783:18812   */\n      swap1\n      pop\n        /* \"#utility.yul\":18606:18818   */\n      swap3\n      swap2\n      pop\n      pop\n      jump\t// out\n        /* \"#utility.yul\":18824:18983   */\n    tag_543:\n        /* \"#utility.yul\":18898:18909   */\n      0x00\n        /* \"#utility.yul\":18932:18938   */\n      dup3\n        /* \"#utility.yul\":18927:18930   */\n      dup3\n        /* \"#utility.yul\":18920:18939   */\n      mstore\n        /* \"#utility.yul\":18972:18976   */\n      0x20\n        /* \"#utility.yul\":18967:18970   */\n      dup3\n        /* \"#utility.yul\":18963:18977   */\n      add\n        /* \"#utility.yul\":18948:18977   */\n      swap1\n      pop\n        /* \"#utility.yul\":18824:18983   */\n      swap3\n      swap2\n      pop\n      pop\n      jump\t// out\n        /* \"#utility.yul\":18989:19158   */\n    tag_557:\n        /* \"#utility.yul\":19073:19084   */\n      0x00\n        /* \"#utility.yul\":19107:19113   */\n      dup3\n        /* \"#utility.yul\":19102:19105   */\n      dup3\n        /* \"#utility.yul\":19095:19114   */\n      mstore\n        /* \"#utility.yul\":19147:19151   */\n      0x20\n        /* \"#utility.yul\":19142:19145   */\n      dup3\n        /* \"#utility.yul\":19138:19152   */\n      add\n        /* \"#utility.yul\":19123:19152   */\n      swap1\n      pop\n        /* \"#utility.yul\":18989:19158   */\n      swap3\n      swap2\n      pop\n      pop\n      jump\t// out\n        /* \"#utility.yul\":19164:19312   */\n    tag_552:\n        /* \"#utility.yul\":19266:19277   */\n      0x00\n        /* \"#utility.yul\":19303:19306   */\n      dup2\n        /* \"#utility.yul\":19288:19306   */\n      swap1\n      pop\n        /* \"#utility.yul\":19164:19312   */\n      swap3\n      swap2\n      pop\n      pop\n      jump\t// out\n        /* \"#utility.yul\":19318:19623   */\n    tag_137:\n        /* \"#utility.yul\":19358:19361   */\n      0x00\n        /* \"#utility.yul\":19377:19397   */\n      tag_657\n        /* \"#utility.yul\":19395:19396   */\n      dup3\n        /* \"#utility.yul\":19377:19397   */\n      tag_602\n      jump\t// in\n    tag_657:\n        /* \"#utility.yul\":19372:19397   */\n      swap2\n      pop\n        /* \"#utility.yul\":19411:19431   */\n      tag_658\n        /* \"#utility.yul\":19429:19430   */\n      dup4\n        /* \"#utility.yul\":19411:19431   */\n      tag_602\n      jump\t// in\n    tag_658:\n        /* \"#utility.yul\":19406:19431   */\n      swap3\n      pop\n        /* \"#utility.yul\":19565:19566   */\n      dup3\n        /* \"#utility.yul\":19497:19563   */\n      0xffffffffffffffffffffffffffffffffffffffffffffffffffffffffffffffff\n        /* \"#utility.yul\":19493:19567   */\n      sub\n        /* \"#utility.yul\":19490:19491   */\n      dup3\n        /* \"#utility.yul\":19487:19568   */\n      gt\n        /* \"#utility.yul\":19484:19591   */\n      iszero\n      tag_659\n      jumpi\n        /* \"#utility.yul\":19571:19589   */\n      tag_660\n      tag_661\n      jump\t// in\n    tag_660:\n        /* \"#utility.yul\":19484:19591   */\n    tag_659:\n        /* \"#utility.yul\":19615:19616   */\n      dup3\n        /* \"#utility.yul\":19612:19613   */\n      dup3\n        /* \"#utility.yul\":19608:19617   */\n      add\n        /* \"#utility.yul\":19601:19617   */\n      swap1\n      pop\n        /* \"#utility.yul\":19318:19623   */\n      swap3\n      swap2\n      pop\n      pop\n      jump\t// out\n        /* \"#utility.yul\":19629:19820   */\n    tag_135:\n        /* \"#utility.yul\":19669:19673   */\n      0x00\n        /* \"#utility.yul\":19689:19709   */\n      tag_663\n        /* \"#utility.yul\":19707:19708   */\n      dup3\n        /* \"#utility.yul\":19689:19709   */\n      tag_602\n      jump\t// in\n    tag_663:\n        /* \"#utility.yul\":19684:19709   */\n      swap2\n      pop\n        /* \"#utility.yul\":19723:19743   */\n      tag_664\n        /* \"#utility.yul\":19741:19742   */\n      dup4\n        /* \"#utility.yul\":19723:19743   */\n      tag_602\n      jump\t// in\n    tag_664:\n        /* \"#utility.yul\":19718:19743   */\n      swap3\n      pop\n        /* \"#utility.yul\":19762:19763   */\n      dup3\n        /* \"#utility.yul\":19759:19760   */\n      dup3\n        /* \"#utility.yul\":19756:19764   */\n      lt\n        /* \"#utility.yul\":19753:19787   */\n      iszero\n      tag_665\n      jumpi\n        /* \"#utility.yul\":19767:19785   */\n      tag_666\n      tag_661\n      jump\t// in\n    tag_666:\n        /* \"#utility.yul\":19753:19787   */\n    tag_665:\n        /* \"#utility.yul\":19812:19813   */\n      dup3\n        /* \"#utility.yul\":19809:19810   */\n      dup3\n        /* \"#utility.yul\":19805:19814   */\n      sub\n        /* \"#utility.yul\":19797:19814   */\n      swap1\n      pop\n        /* \"#utility.yul\":19629:19820   */\n      swap3\n      swap2\n      pop\n      pop\n      jump\t// out\n        /* \"#utility.yul\":19826:19922   */\n    tag_520:\n        /* \"#utility.yul\":19863:19870   */\n      0x00\n        /* \"#utility.yul\":19892:19916   */\n      tag_668\n        /* \"#utility.yul\":19910:19915   */\n      dup3\n        /* \"#utility.yul\":19892:19916   */\n      tag_669\n      jump\t// in\n    tag_668:\n        /* \"#utility.yul\":19881:19916   */\n      swap1\n      pop\n        /* \"#utility.yul\":19826:19922   */\n      swap2\n      swap1\n      pop\n      jump\t// out\n        /* \"#utility.yul\":19928:20018   */\n    tag_670:\n        /* \"#utility.yul\":19962:19969   */\n      0x00\n        /* \"#utility.yul\":20005:20010   */\n      dup2\n        /* \"#utility.yul\":19998:20011   */\n      iszero\n        /* \"#utility.yul\":19991:20012   */\n      iszero\n        /* \"#utility.yul\":19980:20012   */\n      swap1\n      pop\n        /* \"#utility.yul\":19928:20018   */\n      swap2\n      swap1\n      pop\n      jump\t// out\n        /* \"#utility.yul\":20024:20150   */\n    tag_669:\n        /* \"#utility.yul\":20061:20068   */\n      0x00\n        /* \"#utility.yul\":20101:20143   */\n      0xffffffffffffffffffffffffffffffffffffffff\n        /* \"#utility.yul\":20094:20099   */\n      dup3\n        /* \"#utility.yul\":20090:20144   */\n      and\n        /* \"#utility.yul\":20079:20144   */\n      swap1\n      pop\n        /* \"#utility.yul\":20024:20150   */\n      swap2\n      swap1\n      pop\n      jump\t// out\n        /* \"#utility.yul\":20156:20233   */\n    tag_602:\n        /* \"#utility.yul\":20193:20200   */\n      0x00\n        /* \"#utility.yul\":20222:20227   */\n      dup2\n        /* \"#utility.yul\":20211:20227   */\n      swap1\n      pop\n        /* \"#utility.yul\":20156:20233   */\n      swap2\n      swap1\n      pop\n      jump\t// out\n        /* \"#utility.yul\":20239:20325   */\n    tag_608:\n        /* \"#utility.yul\":20274:20281   */\n      0x00\n        /* \"#utility.yul\":20314:20318   */\n      0xff\n        /* \"#utility.yul\":20307:20312   */\n      dup3\n        /* \"#utility.yul\":20303:20319   */\n      and\n        /* \"#utility.yul\":20292:20319   */\n      swap1\n      pop\n        /* \"#utility.yul\":20239:20325   */\n      swap2\n      swap1\n      pop\n      jump\t// out\n        /* \"#utility.yul\":20331:20485   */\n    tag_443:\n        /* \"#utility.yul\":20415:20421   */\n      dup3\n        /* \"#utility.yul\":20410:20413   */\n      dup2\n        /* \"#utility.yul\":20405:20408   */\n      dup4\n        /* \"#utility.yul\":20392:20422   */\n      calldatacopy\n        /* \"#utility.yul\":20477:20478   */\n      0x00\n        /* \"#utility.yul\":20468:20474   */\n      dup4\n        /* \"#utility.yul\":20463:20466   */\n      dup4\n        /* \"#utility.yul\":20459:20475   */\n      add\n        /* \"#utility.yul\":20452:20479   */\n      mstore\n        /* \"#utility.yul\":20331:20485   */\n      pop\n      pop\n      pop\n      jump\t// out\n        /* \"#utility.yul\":20491:20798   */\n    tag_545:\n        /* \"#utility.yul\":20559:20560   */\n      0x00\n        /* \"#utility.yul\":20569:20682   */\n    tag_677:\n        /* \"#utility.yul\":20583:20589   */\n      dup4\n        /* \"#utility.yul\":20580:20581   */\n      dup2\n        /* \"#utility.yul\":20577:20590   */\n      lt\n        /* \"#utility.yul\":20569:20682   */\n      iszero\n      tag_679\n      jumpi\n        /* \"#utility.yul\":20668:20669   */\n      dup1\n        /* \"#utility.yul\":20663:20666   */\n      dup3\n        /* \"#utility.yul\":20659:20670   */\n      add\n        /* \"#utility.yul\":20653:20671   */\n      mload\n        /* \"#utility.yul\":20649:20650   */\n      dup2\n        /* \"#utility.yul\":20644:20647   */\n      dup5\n        /* \"#utility.yul\":20640:20651   */\n      add\n        /* \"#utility.yul\":20633:20672   */\n      mstore\n        /* \"#utility.yul\":20605:20607   */\n      0x20\n        /* \"#utility.yul\":20602:20603   */\n      dup2\n        /* \"#utility.yul\":20598:20608   */\n      add\n        /* \"#utility.yul\":20593:20608   */\n      swap1\n      pop\n        /* \"#utility.yul\":20569:20682   */\n      jump(tag_677)\n    tag_679:\n        /* \"#utility.yul\":20700:20706   */\n      dup4\n        /* \"#utility.yul\":20697:20698   */\n      dup2\n        /* \"#utility.yul\":20694:20707   */\n      gt\n        /* \"#utility.yul\":20691:20792   */\n      iszero\n      tag_680\n      jumpi\n        /* \"#utility.yul\":20780:20781   */\n      0x00\n        /* \"#utility.yul\":20771:20777   */\n      dup5\n        /* \"#utility.yul\":20766:20769   */\n      dup5\n        /* \"#utility.yul\":20762:20778   */\n      add\n        /* \"#utility.yul\":20755:20782   */\n      mstore\n        /* \"#utility.yul\":20691:20792   */\n    tag_680:\n        /* \"#utility.yul\":20540:20798   */\n      pop\n        /* \"#utility.yul\":20491:20798   */\n      pop\n      pop\n      pop\n      jump\t// out\n        /* \"#utility.yul\":20804:20975   */\n    tag_167:\n        /* \"#utility.yul\":20843:20846   */\n      0x00\n        /* \"#utility.yul\":20866:20890   */\n      tag_682\n        /* \"#utility.yul\":20884:20889   */\n      dup3\n        /* \"#utility.yul\":20866:20890   */\n      tag_602\n      jump\t// in\n    tag_682:\n        /* \"#utility.yul\":20857:20890   */\n      swap2\n      pop\n        /* \"#utility.yul\":20912:20916   */\n      0x00\n        /* \"#utility.yul\":20905:20910   */\n      dup3\n        /* \"#utility.yul\":20902:20917   */\n      eq\n        /* \"#utility.yul\":20899:20940   */\n      iszero\n      tag_683\n      jumpi\n        /* \"#utility.yul\":20920:20938   */\n      tag_684\n      tag_661\n      jump\t// in\n    tag_684:\n        /* \"#utility.yul\":20899:20940   */\n    tag_683:\n        /* \"#utility.yul\":20967:20968   */\n      0x01\n        /* \"#utility.yul\":20960:20965   */\n      dup3\n        /* \"#utility.yul\":20956:20969   */\n      sub\n        /* \"#utility.yul\":20949:20969   */\n      swap1\n      pop\n        /* \"#utility.yul\":20804:20975   */\n      swap2\n      swap1\n      pop\n      jump\t// out\n        /* \"#utility.yul\":20981:21301   */\n    tag_84:\n        /* \"#utility.yul\":21025:21031   */\n      0x00\n        /* \"#utility.yul\":21062:21063   */\n      0x02\n        /* \"#utility.yul\":21056:21060   */\n      dup3\n        /* \"#utility.yul\":21052:21064   */\n      div\n        /* \"#utility.yul\":21042:21064   */\n      swap1\n      pop\n        /* \"#utility.yul\":21109:21110   */\n      0x01\n        /* \"#utility.yul\":21103:21107   */\n      dup3\n        /* \"#utility.yul\":21099:21111   */\n      and\n        /* \"#utility.yul\":21130:21148   */\n      dup1\n        /* \"#utility.yul\":21120:21201   */\n      tag_686\n      jumpi\n        /* \"#utility.yul\":21186:21190   */\n      0x7f\n        /* \"#utility.yul\":21178:21184   */\n      dup3\n        /* \"#utility.yul\":21174:21191   */\n      and\n        /* \"#utility.yul\":21164:21191   */\n      swap2\n      pop\n        /* \"#utility.yul\":21120:21201   */\n    tag_686:\n        /* \"#utility.yul\":21248:21250   */\n      0x20\n        /* \"#utility.yul\":21240:21246   */\n      dup3\n        /* \"#utility.yul\":21237:21251   */\n      lt\n        /* \"#utility.yul\":21217:21235   */\n      dup2\n        /* \"#utility.yul\":21214:21252   */\n      eq\n        /* \"#utility.yul\":21211:21295   */\n      iszero\n      tag_687\n      jumpi\n        /* \"#utility.yul\":21267:21285   */\n      tag_688\n      tag_689\n      jump\t// in\n    tag_688:\n        /* \"#utility.yul\":21211:21295   */\n    tag_687:\n        /* \"#utility.yul\":21032:21301   */\n      pop\n        /* \"#utility.yul\":20981:21301   */\n      swap2\n      swap1\n      pop\n      jump\t// out\n        /* \"#utility.yul\":21307:21588   */\n    tag_642:\n        /* \"#utility.yul\":21390:21417   */\n      tag_691\n        /* \"#utility.yul\":21412:21416   */\n      dup3\n        /* \"#utility.yul\":21390:21417   */\n      tag_547\n      jump\t// in\n    tag_691:\n        /* \"#utility.yul\":21382:21388   */\n      dup2\n        /* \"#utility.yul\":21378:21418   */\n      add\n        /* \"#utility.yul\":21520:21526   */\n      dup2\n        /* \"#utility.yul\":21508:21518   */\n      dup2\n        /* \"#utility.yul\":21505:21527   */\n      lt\n        /* \"#utility.yul\":21484:21502   */\n      0xffffffffffffffff\n        /* \"#utility.yul\":21472:21482   */\n      dup3\n        /* \"#utility.yul\":21469:21503   */\n      gt\n        /* \"#utility.yul\":21466:21528   */\n      or\n        /* \"#utility.yul\":21463:21551   */\n      iszero\n      tag_692\n      jumpi\n        /* \"#utility.yul\":21531:21549   */\n      tag_693\n      tag_140\n      jump\t// in\n    tag_693:\n        /* \"#utility.yul\":21463:21551   */\n    tag_692:\n        /* \"#utility.yul\":21571:21581   */\n      dup1\n        /* \"#utility.yul\":21567:21569   */\n      0x40\n        /* \"#utility.yul\":21560:21582   */\n      mstore\n        /* \"#utility.yul\":21350:21588   */\n      pop\n        /* \"#utility.yul\":21307:21588   */\n      pop\n      pop\n      jump\t// out\n        /* \"#utility.yul\":21594:21827   */\n    tag_165:\n        /* \"#utility.yul\":21633:21636   */\n      0x00\n        /* \"#utility.yul\":21656:21680   */\n      tag_695\n        /* \"#utility.yul\":21674:21679   */\n      dup3\n        /* \"#utility.yul\":21656:21680   */\n      tag_602\n      jump\t// in\n    tag_695:\n        /* \"#utility.yul\":21647:21680   */\n      swap2\n      pop\n        /* \"#utility.yul\":21702:21768   */\n      0xffffffffffffffffffffffffffffffffffffffffffffffffffffffffffffffff\n        /* \"#utility.yul\":21695:21700   */\n      dup3\n        /* \"#utility.yul\":21692:21769   */\n      eq\n        /* \"#utility.yul\":21689:21792   */\n      iszero\n      tag_696\n      jumpi\n        /* \"#utility.yul\":21772:21790   */\n      tag_697\n      tag_661\n      jump\t// in\n    tag_697:\n        /* \"#utility.yul\":21689:21792   */\n    tag_696:\n        /* \"#utility.yul\":21819:21820   */\n      0x01\n        /* \"#utility.yul\":21812:21817   */\n      dup3\n        /* \"#utility.yul\":21808:21821   */\n      add\n        /* \"#utility.yul\":21801:21821   */\n      swap1\n      pop\n        /* \"#utility.yul\":21594:21827   */\n      swap2\n      swap1\n      pop\n      jump\t// out\n        /* \"#utility.yul\":21833:22013   */\n    tag_661:\n        /* \"#utility.yul\":21881:21958   */\n      0x4e487b7100000000000000000000000000000000000000000000000000000000\n        /* \"#utility.yul\":21878:21879   */\n      0x00\n        /* \"#utility.yul\":21871:21959   */\n      mstore\n        /* \"#utility.yul\":21978:21982   */\n      0x11\n        /* \"#utility.yul\":21975:21976   */\n      0x04\n        /* \"#utility.yul\":21968:21983   */\n      mstore\n        /* \"#utility.yul\":22002:22006   */\n      0x24\n        /* \"#utility.yul\":21999:22000   */\n      0x00\n        /* \"#utility.yul\":21992:22007   */\n      revert\n        /* \"#utility.yul\":22019:22199   */\n    tag_689:\n        /* \"#utility.yul\":22067:22144   */\n      0x4e487b7100000000000000000000000000000000000000000000000000000000\n        /* \"#utility.yul\":22064:22065   */\n      0x00\n        /* \"#utility.yul\":22057:22145   */\n      mstore\n        /* \"#utility.yul\":22164:22168   */\n      0x22\n        /* \"#utility.yul\":22161:22162   */\n      0x04\n        /* \"#utility.yul\":22154:22169   */\n      mstore\n        /* \"#utility.yul\":22188:22192   */\n      0x24\n        /* \"#utility.yul\":22185:22186   */\n      0x00\n        /* \"#utility.yul\":22178:22193   */\n      revert\n        /* \"#utility.yul\":22205:22385   */\n    tag_81:\n        /* \"#utility.yul\":22253:22330   */\n      0x4e487b7100000000000000000000000000000000000000000000000000000000\n        /* \"#utility.yul\":22250:22251   */\n      0x00\n        /* \"#utility.yul\":22243:22331   */\n      mstore\n        /* \"#utility.yul\":22350:22354   */\n      0x32\n        /* \"#utility.yul\":22347:22348   */\n      0x04\n        /* \"#utility.yul\":22340:22355   */\n      mstore\n        /* \"#utility.yul\":22374:22378   */\n      0x24\n        /* \"#utility.yul\":22371:22372   */\n      0x00\n        /* \"#utility.yul\":22364:22379   */\n      revert\n        /* \"#utility.yul\":22391:22571   */\n    tag_140:\n        /* \"#utility.yul\":22439:22516   */\n      0x4e487b7100000000000000000000000000000000000000000000000000000000\n        /* \"#utility.yul\":22436:22437   */\n      0x00\n        /* \"#utility.yul\":22429:22517   */\n      mstore\n        /* \"#utility.yul\":22536:22540   */\n      0x41\n        /* \"#utility.yul\":22533:22534   */\n      0x04\n        /* \"#utility.yul\":22526:22541   */\n      mstore\n        /* \"#utility.yul\":22560:22564   */\n      0x24\n        /* \"#utility.yul\":22557:22558   */\n      0x00\n        /* \"#utility.yul\":22550:22565   */\n      revert\n        /* \"#utility.yul\":22577:22694   */\n    tag_456:\n        /* \"#utility.yul\":22686:22687   */\n      0x00\n        /* \"#utility.yul\":22683:22684   */\n      dup1\n        /* \"#utility.yul\":22676:22688   */\n      revert\n        /* \"#utility.yul\":22700:22817   */\n    tag_441:\n        /* \"#utility.yul\":22809:22810   */\n      0x00\n        /* \"#utility.yul\":22806:22807   */\n      dup1\n        /* \"#utility.yul\":22799:22811   */\n      revert\n        /* \"#utility.yul\":22823:22940   */\n    tag_478:\n        /* \"#utility.yul\":22932:22933   */\n      0x00\n        /* \"#utility.yul\":22929:22930   */\n      dup1\n        /* \"#utility.yul\":22922:22934   */\n      revert\n        /* \"#utility.yul\":22946:23063   */\n    tag_469:\n        /* \"#utility.yul\":23055:23056   */\n      0x00\n        /* \"#utility.yul\":23052:23053   */\n      dup1\n        /* \"#utility.yul\":23045:23057   */\n      revert\n        /* \"#utility.yul\":23069:23171   */\n    tag_547:\n        /* \"#utility.yul\":23110:23116   */\n      0x00\n        /* \"#utility.yul\":23161:23163   */\n      0x1f\n        /* \"#utility.yul\":23157:23164   */\n      not\n        /* \"#utility.yul\":23152:23154   */\n      0x1f\n        /* \"#utility.yul\":23145:23150   */\n      dup4\n        /* \"#utility.yul\":23141:23155   */\n      add\n        /* \"#utility.yul\":23137:23165   */\n      and\n        /* \"#utility.yul\":23127:23165   */\n      swap1\n      pop\n        /* \"#utility.yul\":23069:23171   */\n      swap2\n      swap1\n      pop\n      jump\t// out\n        /* \"#utility.yul\":23177:23402   */\n    tag_559:\n        /* \"#utility.yul\":23317:23351   */\n      0x4f776e61626c653a206e6577206f776e657220697320746865207a65726f2061\n        /* \"#utility.yul\":23313:23314   */\n      0x00\n        /* \"#utility.yul\":23305:23311   */\n      dup3\n        /* \"#utility.yul\":23301:23315   */\n      add\n        /* \"#utility.yul\":23294:23352   */\n      mstore\n        /* \"#utility.yul\":23386:23394   */\n      0x6464726573730000000000000000000000000000000000000000000000000000\n        /* \"#utility.yul\":23381:23383   */\n      0x20\n        /* \"#utility.yul\":23373:23379   */\n      dup3\n        /* \"#utility.yul\":23369:23384   */\n      add\n        /* \"#utility.yul\":23362:23395   */\n      mstore\n        /* \"#utility.yul\":23177:23402   */\n      pop\n      jump\t// out\n        /* \"#utility.yul\":23408:23645   */\n    tag_564:\n        /* \"#utility.yul\":23548:23582   */\n      0x43616e206e6f7420757064617465207472616e73616374696f6e20414d4c2073\n        /* \"#utility.yul\":23544:23545   */\n      0x00\n        /* \"#utility.yul\":23536:23542   */\n      dup3\n        /* \"#utility.yul\":23532:23546   */\n      add\n        /* \"#utility.yul\":23525:23583   */\n      mstore\n        /* \"#utility.yul\":23617:23637   */\n      0x74617475733a20616c7265616479207365740000000000000000000000000000\n        /* \"#utility.yul\":23612:23614   */\n      0x20\n        /* \"#utility.yul\":23604:23610   */\n      dup3\n        /* \"#utility.yul\":23600:23615   */\n      add\n        /* \"#utility.yul\":23593:23638   */\n      mstore\n        /* \"#utility.yul\":23408:23645   */\n      pop\n      jump\t// out\n        /* \"#utility.yul\":23651:23943   */\n    tag_569:\n        /* \"#utility.yul\":23791:23825   */\n      0x43616e206e6f7420676574207472616e73616374696f6e73206c6973742e2054\n        /* \"#utility.yul\":23787:23788   */\n      0x00\n        /* \"#utility.yul\":23779:23785   */\n      dup3\n        /* \"#utility.yul\":23775:23789   */\n      add\n        /* \"#utility.yul\":23768:23826   */\n      mstore\n        /* \"#utility.yul\":23860:23894   */\n      0x6865206d6178696d756d207472616e73616374696f6e7320636f756e74206973\n        /* \"#utility.yul\":23855:23857   */\n      0x20\n        /* \"#utility.yul\":23847:23853   */\n      dup3\n        /* \"#utility.yul\":23843:23858   */\n      add\n        /* \"#utility.yul\":23836:23895   */\n      mstore\n        /* \"#utility.yul\":23929:23935   */\n      0x2031303000000000000000000000000000000000000000000000000000000000\n        /* \"#utility.yul\":23924:23926   */\n      0x40\n        /* \"#utility.yul\":23916:23922   */\n      dup3\n        /* \"#utility.yul\":23912:23927   */\n      add\n        /* \"#utility.yul\":23905:23936   */\n      mstore\n        /* \"#utility.yul\":23651:23943   */\n      pop\n      jump\t// out\n        /* \"#utility.yul\":23949:24121   */\n    tag_574:\n        /* \"#utility.yul\":24089:24113   */\n      0x4f6e6c7920666f7220636f6d706c6574656420414d4c00000000000000000000\n        /* \"#utility.yul\":24085:24086   */\n      0x00\n        /* \"#utility.yul\":24077:24083   */\n      dup3\n        /* \"#utility.yul\":24073:24087   */\n      add\n        /* \"#utility.yul\":24066:24114   */\n      mstore\n        /* \"#utility.yul\":23949:24121   */\n      pop\n      jump\t// out\n        /* \"#utility.yul\":24127:24309   */\n    tag_579:\n        /* \"#utility.yul\":24267:24301   */\n      0x4f776e61626c653a2063616c6c6572206973206e6f7420746865206f776e6572\n        /* \"#utility.yul\":24263:24264   */\n      0x00\n        /* \"#utility.yul\":24255:24261   */\n      dup3\n        /* \"#utility.yul\":24251:24265   */\n      add\n        /* \"#utility.yul\":24244:24302   */\n      mstore\n        /* \"#utility.yul\":24127:24309   */\n      pop\n      jump\t// out\n        /* \"#utility.yul\":24315:24541   */\n    tag_584:\n        /* \"#utility.yul\":24455:24489   */\n      0x43616e206e6f74207570646174652072656365697665722e20496e76616c6964\n        /* \"#utility.yul\":24451:24452   */\n      0x00\n        /* \"#utility.yul\":24443:24449   */\n      dup3\n        /* \"#utility.yul\":24439:24453   */\n      add\n        /* \"#utility.yul\":24432:24490   */\n      mstore\n        /* \"#utility.yul\":24524:24533   */\n      0x2073656e64657200000000000000000000000000000000000000000000000000\n        /* \"#utility.yul\":24519:24521   */\n      0x20\n        /* \"#utility.yul\":24511:24517   */\n      dup3\n        /* \"#utility.yul\":24507:24522   */\n      add\n        /* \"#utility.yul\":24500:24534   */\n      mstore\n        /* \"#utility.yul\":24315:24541   */\n      pop\n      jump\t// out\n        /* \"#utility.yul\":24547:24795   */\n    tag_589:\n        /* \"#utility.yul\":24687:24721   */\n      0x43616e206e6f74207570646174652072656365697665722e205472616e736163\n        /* \"#utility.yul\":24683:24684   */\n      0x00\n        /* \"#utility.yul\":24675:24681   */\n      dup3\n        /* \"#utility.yul\":24671:24685   */\n      add\n        /* \"#utility.yul\":24664:24722   */\n      mstore\n        /* \"#utility.yul\":24756:24787   */\n      0x74696f6e20616c726561647920686173206265656e2075706461746564000000\n        /* \"#utility.yul\":24751:24753   */\n      0x20\n        /* \"#utility.yul\":24743:24749   */\n      dup3\n        /* \"#utility.yul\":24739:24754   */\n      add\n        /* \"#utility.yul\":24732:24788   */\n      mstore\n        /* \"#utility.yul\":24547:24795   */\n      pop\n      jump\t// out\n        /* \"#utility.yul\":24801:24923   */\n    tag_447:\n        /* \"#utility.yul\":24874:24898   */\n      tag_715\n        /* \"#utility.yul\":24892:24897   */\n      dup2\n        /* \"#utility.yul\":24874:24898   */\n      tag_520\n      jump\t// in\n    tag_715:\n        /* \"#utility.yul\":24867:24872   */\n      dup2\n        /* \"#utility.yul\":24864:24899   */\n      eq\n        /* \"#utility.yul\":24854:24917   */\n      tag_716\n      jumpi\n        /* \"#utility.yul\":24913:24914   */\n      0x00\n        /* \"#utility.yul\":24910:24911   */\n      dup1\n        /* \"#utility.yul\":24903:24915   */\n      revert\n        /* \"#utility.yul\":24854:24917   */\n    tag_716:\n        /* \"#utility.yul\":24801:24923   */\n      pop\n      jump\t// out\n        /* \"#utility.yul\":24929:25045   */\n    tag_451:\n        /* \"#utility.yul\":24999:25020   */\n      tag_718\n        /* \"#utility.yul\":25014:25019   */\n      dup2\n        /* \"#utility.yul\":24999:25020   */\n      tag_670\n      jump\t// in\n    tag_718:\n        /* \"#utility.yul\":24992:24997   */\n      dup2\n        /* \"#utility.yul\":24989:25021   */\n      eq\n        /* \"#utility.yul\":24979:25039   */\n      tag_719\n      jumpi\n        /* \"#utility.yul\":25035:25036   */\n      0x00\n        /* \"#utility.yul\":25032:25033   */\n      dup1\n        /* \"#utility.yul\":25025:25037   */\n      revert\n        /* \"#utility.yul\":24979:25039   */\n    tag_719:\n        /* \"#utility.yul\":24929:25045   */\n      pop\n      jump\t// out\n        /* \"#utility.yul\":25051:25173   */\n    tag_461:\n        /* \"#utility.yul\":25124:25148   */\n      tag_721\n        /* \"#utility.yul\":25142:25147   */\n      dup2\n        /* \"#utility.yul\":25124:25148   */\n      tag_602\n      jump\t// in\n    tag_721:\n        /* \"#utility.yul\":25117:25122   */\n      dup2\n        /* \"#utility.yul\":25114:25149   */\n      eq\n        /* \"#utility.yul\":25104:25167   */\n      tag_722\n      jumpi\n        /* \"#utility.yul\":25163:25164   */\n      0x00\n        /* \"#utility.yul\":25160:25161   */\n      dup1\n        /* \"#utility.yul\":25153:25165   */\n      revert\n        /* \"#utility.yul\":25104:25167   */\n    tag_722:\n        /* \"#utility.yul\":25051:25173   */\n      pop\n      jump\t// out\n        /* \"#utility.yul\":25179:25297   */\n    tag_465:\n        /* \"#utility.yul\":25250:25272   */\n      tag_724\n        /* \"#utility.yul\":25266:25271   */\n      dup2\n        /* \"#utility.yul\":25250:25272   */\n      tag_608\n      jump\t// in\n    tag_724:\n        /* \"#utility.yul\":25243:25248   */\n      dup2\n        /* \"#utility.yul\":25240:25273   */\n      eq\n        /* \"#utility.yul\":25230:25291   */\n      tag_725\n      jumpi\n        /* \"#utility.yul\":25287:25288   */\n      0x00\n        /* \"#utility.yul\":25284:25285   */\n      dup1\n        /* \"#utility.yul\":25277:25289   */\n      revert\n        /* \"#utility.yul\":25230:25291   */\n    tag_725:\n        /* \"#utility.yul\":25179:25297   */\n      pop\n      jump\t// out\n\n    auxdata: 0xa26469706673582212203ee70081a71c24b565b5e26c83e2e922fe1e277544d39beb5dc1b43ffcb437ec64736f6c63430008070033\n}\n",
				"bytecode": {
					"linkReferences": {},
					"object": "60806040523480156200001157600080fd5b5062000032620000266200003860201b60201c565b6200004060201b60201c565b62000104565b600033905090565b60008060009054906101000a900473ffffffffffffffffffffffffffffffffffffffff169050816000806101000a81548173ffffffffffffffffffffffffffffffffffffffff021916908373ffffffffffffffffffffffffffffffffffffffff1602179055508173ffffffffffffffffffffffffffffffffffffffff168173ffffffffffffffffffffffffffffffffffffffff167f8be0079c531659141344cd1fd0a4f28419497f9722a3daafe3b4186f6b6457e060405160405180910390a35050565b61328380620001146000396000f3fe608060405234801561001057600080fd5b50600436106100ea5760003560e01c80638da5cb5b1161008c578063cf99306011610066578063cf9930601461020f578063d39d05271461022b578063e32ab44b14610247578063f2fde38b14610277576100ea565b80638da5cb5b146101a55780639a238f6d146101c35780639b8570f4146101df576100ea565b80635742177c116100c85780635742177c14610133578063715018a6146101635780637ccc241a1461016d57806387e8bd1214610189576100ea565b80631167372d146100ef57806327506f531461010b57806352efea6e14610129575b600080fd5b61010960048036038101906101049190612791565b610293565b005b6101136104fd565b6040516101209190612afb565b60405180910390f35b610131610770565b005b61014d60048036038101906101489190612675565b610788565b60405161015a9190612afb565b60405180910390f35b61016b610b05565b005b6101876004803603810190610182919061273e565b610b19565b005b6101a3600480360381019061019e91906126fe565b610e90565b005b6101ad6110b6565b6040516101ba9190612ae0565b60405180910390f35b6101dd60048036038101906101d8919061273e565b6110df565b005b6101f960048036038101906101f491906125c6565b611456565b6040516102069190612bfd565b60405180910390f35b610229600480360381019061022491906126a2565b61165a565b005b610245600480360381019061024091906126fe565b6119ac565b005b610261600480360381019061025c9190612635565b611bd2565b60405161026e9190612afb565b60405180910390f35b610291600480360381019061028c9190612599565b612083565b005b61029b612107565b82610362600182815481106102b3576102b2612f6b565b5b906000526020600020906006020160030180546102cf90612e61565b80601f01602080910402602001604051908101604052809291908181526020018280546102fb90612e61565b80156103485780601f1061031d57610100808354040283529160200191610348565b820191906000526020600020905b81548152906001019060200180831161032b57829003601f168201915b505050505060405180602001604052806000815250612185565b156103a2576040517f08c379a000000000000000000000000000000000000000000000000000000000815260040161039990612b7d565b60405180910390fd5b610468600182815481106103b9576103b8612f6b565b5b906000526020600020906006020160040180546103d590612e61565b80601f016020809104026020016040519081016040528092919081815260200182805461040190612e61565b801561044e5780601f106104235761010080835404028352916020019161044e565b820191906000526020600020905b81548152906001019060200180831161043157829003601f168201915b505050505060405180602001604052806000815250612185565b156104a8576040517f08c379a000000000000000000000000000000000000000000000000000000000815260040161049f90612b7d565b60405180910390fd5b6104b284836119ac565b6104bc8484610e90565b7f4cea1f87adb8c58c2d35aa0a3723745ff782300a0479866fc1e478a8740df8e58484846040516104ef93929190612c18565b60405180910390a150505050565b60606001805480602002602001604051908101604052809291908181526020016000905b8282101561076757838290600052602060002090600602016040518060e0016040529081600082015481526020016001820160009054906101000a900473ffffffffffffffffffffffffffffffffffffffff1673ffffffffffffffffffffffffffffffffffffffff1673ffffffffffffffffffffffffffffffffffffffff1681526020016002820160009054906101000a900473ffffffffffffffffffffffffffffffffffffffff1673ffffffffffffffffffffffffffffffffffffffff1673ffffffffffffffffffffffffffffffffffffffff16815260200160038201805461060a90612e61565b80601f016020809104026020016040519081016040528092919081815260200182805461063690612e61565b80156106835780601f1061065857610100808354040283529160200191610683565b820191906000526020600020905b81548152906001019060200180831161066657829003601f168201915b5050505050815260200160048201805461069c90612e61565b80601f01602080910402602001604051908101604052809291908181526020018280546106c890612e61565b80156107155780601f106106ea57610100808354040283529160200191610715565b820191906000526020600020905b8154815290600101906020018083116106f857829003601f168201915b505050505081526020016005820160009054906101000a900460ff1660ff1660ff1681526020016005820160019054906101000a900460ff1660ff1660ff168152505081526020019060010190610521565b50505050905090565b610778612107565b6001600061078691906122aa565b565b6060606482106107cd576040517f08c379a00000000000000000000000000000000000000000000000000000000081526004016107c490612b5d565b60405180910390fd5b6000600180549050905060008382106107e657836107e8565b815b90506000600182846107fa9190612d6c565b6108049190612d16565b905060008267ffffffffffffffff81111561082257610821612f9a565b5b60405190808252806020026020018201604052801561085b57816020015b6108486122ce565b8152602001906001900390816108405790505b5090506000808590505b838110610af7576001808261087a9190612d6c565b8154811061088b5761088a612f6b565b5b90600052602060002090600602016040518060e0016040529081600082015481526020016001820160009054906101000a900473ffffffffffffffffffffffffffffffffffffffff1673ffffffffffffffffffffffffffffffffffffffff1673ffffffffffffffffffffffffffffffffffffffff1681526020016002820160009054906101000a900473ffffffffffffffffffffffffffffffffffffffff1673ffffffffffffffffffffffffffffffffffffffff1673ffffffffffffffffffffffffffffffffffffffff16815260200160038201805461096a90612e61565b80601f016020809104026020016040519081016040528092919081815260200182805461099690612e61565b80156109e35780601f106109b8576101008083540402835291602001916109e3565b820191906000526020600020905b8154815290600101906020018083116109c657829003601f168201915b505050505081526020016004820180546109fc90612e61565b80601f0160208091040260200160405190810160405280929190818152602001828054610a2890612e61565b8015610a755780601f10610a4a57610100808354040283529160200191610a75565b820191906000526020600020905b815481529060010190602001808311610a5857829003601f168201915b505050505081526020016005820160009054906101000a900460ff1660ff1660ff1681526020016005820160019054906101000a900460ff1660ff1660ff1681525050838381518110610acb57610aca612f6b565b5b60200260200101819052508180610ae190612ec4565b9250508080610aef90612e37565b915050610865565b508195505050505050919050565b610b0d612107565b610b1760006121de565b565b610b21612107565b82610be860018281548110610b3957610b38612f6b565b5b90600052602060002090600602016003018054610b5590612e61565b80601f0160208091040260200160405190810160405280929190818152602001828054610b8190612e61565b8015610bce5780601f10610ba357610100808354040283529160200191610bce565b820191906000526020600020905b815481529060010190602001808311610bb157829003601f168201915b505050505060405180602001604052806000815250612185565b15610c28576040517f08c379a0000000000000000000000000000000000000000000000000000000008152600401610c1f90612b7d565b60405180910390fd5b610cee60018281548110610c3f57610c3e612f6b565b5b90600052602060002090600602016004018054610c5b90612e61565b80601f0160208091040260200160405190810160405280929190818152602001828054610c8790612e61565b8015610cd45780601f10610ca957610100808354040283529160200191610cd4565b820191906000526020600020905b815481529060010190602001808311610cb757829003601f168201915b505050505060405180602001604052806000815250612185565b15610d2e576040517f08c379a0000000000000000000000000000000000000000000000000000000008152600401610d2590612b7d565b60405180910390fd5b600060018581548110610d4457610d43612f6b565b5b906000526020600020906006020160050160019054906101000a900460ff1660ff1614610da6576040517f08c379a0000000000000000000000000000000000000000000000000000000008152600401610d9d90612b3d565b60405180910390fd5b8260018581548110610dbb57610dba612f6b565b5b906000526020600020906006020160050160016101000a81548160ff021916908360ff1602179055508115610e8a577f4cea1f87adb8c58c2d35aa0a3723745ff782300a0479866fc1e478a8740df8e58460018681548110610e2057610e1f612f6b565b5b906000526020600020906006020160050160009054906101000a900460ff1660018781548110610e5357610e52612f6b565b5b906000526020600020906006020160050160019054906101000a900460ff16604051610e8193929190612c18565b60405180910390a15b50505050565b610e98612107565b81610f5f60018281548110610eb057610eaf612f6b565b5b90600052602060002090600602016003018054610ecc90612e61565b80601f0160208091040260200160405190810160405280929190818152602001828054610ef890612e61565b8015610f455780601f10610f1a57610100808354040283529160200191610f45565b820191906000526020600020905b815481529060010190602001808311610f2857829003601f168201915b505050505060405180602001604052806000815250612185565b15610f9f576040517f08c379a0000000000000000000000000000000000000000000000000000000008152600401610f9690612b7d565b60405180910390fd5b61106560018281548110610fb657610fb5612f6b565b5b90600052602060002090600602016004018054610fd290612e61565b80601f0160208091040260200160405190810160405280929190818152602001828054610ffe90612e61565b801561104b5780601f106110205761010080835404028352916020019161104b565b820191906000526020600020905b81548152906001019060200180831161102e57829003601f168201915b505050505060405180602001604052806000815250612185565b156110a5576040517f08c379a000000000000000000000000000000000000000000000000000000000815260040161109c90612b7d565b60405180910390fd5b6110b1838360006110df565b505050565b60008060009054906101000a900473ffffffffffffffffffffffffffffffffffffffff16905090565b6110e7612107565b826111ae600182815481106110ff576110fe612f6b565b5b9060005260206000209060060201600301805461111b90612e61565b80601f016020809104026020016040519081016040528092919081815260200182805461114790612e61565b80156111945780601f1061116957610100808354040283529160200191611194565b820191906000526020600020905b81548152906001019060200180831161117757829003601f168201915b505050505060405180602001604052806000815250612185565b156111ee576040517f08c379a00000000000000000000000000000000000000000000000000000000081526004016111e590612b7d565b60405180910390fd5b6112b46001828154811061120557611204612f6b565b5b9060005260206000209060060201600401805461122190612e61565b80601f016020809104026020016040519081016040528092919081815260200182805461124d90612e61565b801561129a5780601f1061126f5761010080835404028352916020019161129a565b820191906000526020600020905b81548152906001019060200180831161127d57829003601f168201915b505050505060405180602001604052806000815250612185565b156112f4576040517f08c379a00000000000000000000000000000000000000000000000000000000081526004016112eb90612b7d565b60405180910390fd5b60006001858154811061130a57611309612f6b565b5b906000526020600020906006020160050160009054906101000a900460ff1660ff161461136c576040517f08c379a000000000000000000000000000000000000000000000000000000000815260040161136390612b3d565b60405180910390fd5b826001858154811061138157611380612f6b565b5b906000526020600020906006020160050160006101000a81548160ff021916908360ff1602179055508115611450577f4cea1f87adb8c58c2d35aa0a3723745ff782300a0479866fc1e478a8740df8e584600186815481106113e6576113e5612f6b565b5b906000526020600020906006020160050160009054906101000a900460ff166001878154811061141957611418612f6b565b5b906000526020600020906006020160050160019054906101000a900460ff1660405161144793929190612c18565b60405180910390a15b50505050565b600080600180549050905060016040518060e001604052808381526020018773ffffffffffffffffffffffffffffffffffffffff1681526020018673ffffffffffffffffffffffffffffffffffffffff168152602001858152602001604051806020016040528060008152508152602001600060ff168152602001600060ff1681525090806001815401808255809150506001900390600052602060002090600602016000909190919091506000820151816000015560208201518160010160006101000a81548173ffffffffffffffffffffffffffffffffffffffff021916908373ffffffffffffffffffffffffffffffffffffffff16021790555060408201518160020160006101000a81548173ffffffffffffffffffffffffffffffffffffffff021916908373ffffffffffffffffffffffffffffffffffffffff16021790555060608201518160030190805190602001906115b692919061233d565b5060808201518160040190805190602001906115d392919061233d565b5060a08201518160050160006101000a81548160ff021916908360ff16021790555060c08201518160050160016101000a81548160ff021916908360ff16021790555050507f9ae2c53c3ca5e00a02cd45d501b75b8f6aeb8e6fe512b7bbe1e8691b9d3c8ce8816040516116479190612bfd565b60405180910390a1809150509392505050565b6000600183815481106116705761166f612f6b565b5b90600052602060002090600602016040518060e0016040529081600082015481526020016001820160009054906101000a900473ffffffffffffffffffffffffffffffffffffffff1673ffffffffffffffffffffffffffffffffffffffff1673ffffffffffffffffffffffffffffffffffffffff1681526020016002820160009054906101000a900473ffffffffffffffffffffffffffffffffffffffff1673ffffffffffffffffffffffffffffffffffffffff1673ffffffffffffffffffffffffffffffffffffffff16815260200160038201805461174f90612e61565b80601f016020809104026020016040519081016040528092919081815260200182805461177b90612e61565b80156117c85780601f1061179d576101008083540402835291602001916117c8565b820191906000526020600020905b8154815290600101906020018083116117ab57829003601f168201915b505050505081526020016004820180546117e190612e61565b80601f016020809104026020016040519081016040528092919081815260200182805461180d90612e61565b801561185a5780601f1061182f5761010080835404028352916020019161185a565b820191906000526020600020905b81548152906001019060200180831161183d57829003601f168201915b505050505081526020016005820160009054906101000a900460ff1660ff1660ff1681526020016005820160019054906101000a900460ff1660ff1660ff168152505090506118bc816080015160405180602001604052806000815250612185565b6118fb576040517f08c379a00000000000000000000000000000000000000000000000000000000081526004016118f290612bdd565b60405180910390fd5b3373ffffffffffffffffffffffffffffffffffffffff16816040015173ffffffffffffffffffffffffffffffffffffffff161461196d576040517f08c379a000000000000000000000000000000000000000000000000000000000815260040161196490612bbd565b60405180910390fd5b816001848154811061198257611981612f6b565b5b906000526020600020906006020160040190805190602001906119a692919061233d565b50505050565b6119b4612107565b81611a7b600182815481106119cc576119cb612f6b565b5b906000526020600020906006020160030180546119e890612e61565b80601f0160208091040260200160405190810160405280929190818152602001828054611a1490612e61565b8015611a615780601f10611a3657610100808354040283529160200191611a61565b820191906000526020600020905b815481529060010190602001808311611a4457829003601f168201915b505050505060405180602001604052806000815250612185565b15611abb576040517f08c379a0000000000000000000000000000000000000000000000000000000008152600401611ab290612b7d565b60405180910390fd5b611b8160018281548110611ad257611ad1612f6b565b5b90600052602060002090600602016004018054611aee90612e61565b80601f0160208091040260200160405190810160405280929190818152602001828054611b1a90612e61565b8015611b675780601f10611b3c57610100808354040283529160200191611b67565b820191906000526020600020905b815481529060010190602001808311611b4a57829003601f168201915b505050505060405180602001604052806000815250612185565b15611bc1576040517f08c379a0000000000000000000000000000000000000000000000000000000008152600401611bb890612b7d565b60405180910390fd5b611bcd83836000610b19565b505050565b606060648210611c17576040517f08c379a0000000000000000000000000000000000000000000000000000000008152600401611c0e90612b5d565b60405180910390fd5b600080600090505b600180549050811015611cc7578473ffffffffffffffffffffffffffffffffffffffff1660018281548110611c5757611c56612f6b565b5b906000526020600020906006020160020160009054906101000a900473ffffffffffffffffffffffffffffffffffffffff1673ffffffffffffffffffffffffffffffffffffffff161415611cb4578180611cb090612ec4565b9250505b8080611cbf90612ec4565b915050611c1f565b506000838210611cd75783611cd9565b815b905060008267ffffffffffffffff811115611cf757611cf6612f9a565b5b604051908082528060200260200182016040528015611d3057816020015b611d1d6122ce565b815260200190600190039081611d155790505b509050600080600180549050905060008190505b6000811115612073578873ffffffffffffffffffffffffffffffffffffffff1660018083611d729190612d6c565b81548110611d8357611d82612f6b565b5b906000526020600020906006020160020160009054906101000a900473ffffffffffffffffffffffffffffffffffffffff1673ffffffffffffffffffffffffffffffffffffffff1614156120605760018082611ddf9190612d6c565b81548110611df057611def612f6b565b5b90600052602060002090600602016040518060e0016040529081600082015481526020016001820160009054906101000a900473ffffffffffffffffffffffffffffffffffffffff1673ffffffffffffffffffffffffffffffffffffffff1673ffffffffffffffffffffffffffffffffffffffff1681526020016002820160009054906101000a900473ffffffffffffffffffffffffffffffffffffffff1673ffffffffffffffffffffffffffffffffffffffff1673ffffffffffffffffffffffffffffffffffffffff168152602001600382018054611ecf90612e61565b80601f0160208091040260200160405190810160405280929190818152602001828054611efb90612e61565b8015611f485780601f10611f1d57610100808354040283529160200191611f48565b820191906000526020600020905b815481529060010190602001808311611f2b57829003601f168201915b50505050508152602001600482018054611f6190612e61565b80601f0160208091040260200160405190810160405280929190818152602001828054611f8d90612e61565b8015611fda5780601f10611faf57610100808354040283529160200191611fda565b820191906000526020600020905b815481529060010190602001808311611fbd57829003601f168201915b505050505081526020016005820160009054906101000a900460ff1660ff1660ff1681526020016005820160019054906101000a900460ff1660ff1660ff16815250508484815181106120305761202f612f6b565b5b6020026020010181905250828061204690612ec4565b9350508483141561205f5783965050505050505061207d565b5b808061206b90612e37565b915050611d44565b5082955050505050505b92915050565b61208b612107565b600073ffffffffffffffffffffffffffffffffffffffff168173ffffffffffffffffffffffffffffffffffffffff1614156120fb576040517f08c379a00000000000000000000000000000000000000000000000000000000081526004016120f290612b1d565b60405180910390fd5b612104816121de565b50565b61210f6122a2565b73ffffffffffffffffffffffffffffffffffffffff1661212d6110b6565b73ffffffffffffffffffffffffffffffffffffffff1614612183576040517f08c379a000000000000000000000000000000000000000000000000000000000815260040161217a90612b9d565b60405180910390fd5b565b6000816040516020016121989190612ac9565b60405160208183030381529060405280519060200120836040516020016121bf9190612ac9565b6040516020818303038152906040528051906020012014905092915050565b60008060009054906101000a900473ffffffffffffffffffffffffffffffffffffffff169050816000806101000a81548173ffffffffffffffffffffffffffffffffffffffff021916908373ffffffffffffffffffffffffffffffffffffffff1602179055508173ffffffffffffffffffffffffffffffffffffffff168173ffffffffffffffffffffffffffffffffffffffff167f8be0079c531659141344cd1fd0a4f28419497f9722a3daafe3b4186f6b6457e060405160405180910390a35050565b600033905090565b50805460008255600602906000526020600020908101906122cb91906123c3565b50565b6040518060e0016040528060008152602001600073ffffffffffffffffffffffffffffffffffffffff168152602001600073ffffffffffffffffffffffffffffffffffffffff1681526020016060815260200160608152602001600060ff168152602001600060ff1681525090565b82805461234990612e61565b90600052602060002090601f01602090048101928261236b57600085556123b2565b82601f1061238457805160ff19168380011785556123b2565b828001600101855582156123b2579182015b828111156123b1578251825591602001919060010190612396565b5b5090506123bf9190612478565b5090565b5b80821115612474576000808201600090556001820160006101000a81549073ffffffffffffffffffffffffffffffffffffffff02191690556002820160006101000a81549073ffffffffffffffffffffffffffffffffffffffff02191690556003820160006124339190612495565b6004820160006124439190612495565b6005820160006101000a81549060ff02191690556005820160016101000a81549060ff0219169055506006016123c4565b5090565b5b80821115612491576000816000905550600101612479565b5090565b5080546124a190612e61565b6000825580601f106124b357506124d2565b601f0160209004906000526020600020908101906124d19190612478565b5b50565b60006124e86124e384612c74565b612c4f565b90508281526020810184848401111561250457612503612fce565b5b61250f848285612df5565b509392505050565b600081359050612526816131f1565b92915050565b60008135905061253b81613208565b92915050565b600082601f83011261255657612555612fc9565b5b81356125668482602086016124d5565b91505092915050565b60008135905061257e8161321f565b92915050565b60008135905061259381613236565b92915050565b6000602082840312156125af576125ae612fd8565b5b60006125bd84828501612517565b91505092915050565b6000806000606084860312156125df576125de612fd8565b5b60006125ed86828701612517565b93505060206125fe86828701612517565b925050604084013567ffffffffffffffff81111561261f5761261e612fd3565b5b61262b86828701612541565b9150509250925092565b6000806040838503121561264c5761264b612fd8565b5b600061265a85828601612517565b925050602061266b8582860161256f565b9150509250929050565b60006020828403121561268b5761268a612fd8565b5b60006126998482850161256f565b91505092915050565b600080604083850312156126b9576126b8612fd8565b5b60006126c78582860161256f565b925050602083013567ffffffffffffffff8111156126e8576126e7612fd3565b5b6126f485828601612541565b9150509250929050565b6000806040838503121561271557612714612fd8565b5b60006127238582860161256f565b925050602061273485828601612584565b9150509250929050565b60008060006060848603121561275757612756612fd8565b5b60006127658682870161256f565b935050602061277686828701612584565b92505060406127878682870161252c565b9150509250925092565b6000806000606084860312156127aa576127a9612fd8565b5b60006127b88682870161256f565b93505060206127c986828701612584565b92505060406127da86828701612584565b9150509250925092565b60006127f083836129ea565b905092915050565b61280181612da0565b82525050565b61281081612da0565b82525050565b600061282182612cb5565b61282b8185612cd8565b93508360208202850161283d85612ca5565b8060005b85811015612879578484038952815161285a85826127e4565b945061286583612ccb565b925060208a01995050600181019050612841565b50829750879550505050505092915050565b600061289682612cc0565b6128a08185612ce9565b93506128b0818560208601612e04565b6128b981612fdd565b840191505092915050565b60006128cf82612cc0565b6128d98185612d0b565b93506128e9818560208601612e04565b80840191505092915050565b6000612902602683612cfa565b915061290d82612fee565b604082019050919050565b6000612925603283612cfa565b91506129308261303d565b604082019050919050565b6000612948604483612cfa565b91506129538261308c565b606082019050919050565b600061296b601683612cfa565b915061297682613101565b602082019050919050565b600061298e602083612cfa565b91506129998261312a565b602082019050919050565b60006129b1602783612cfa565b91506129bc82613153565b604082019050919050565b60006129d4603d83612cfa565b91506129df826131a2565b604082019050919050565b600060e083016000830151612a026000860182612a8d565b506020830151612a1560208601826127f8565b506040830151612a2860408601826127f8565b5060608301518482036060860152612a40828261288b565b91505060808301518482036080860152612a5a828261288b565b91505060a0830151612a6f60a0860182612aab565b5060c0830151612a8260c0860182612aab565b508091505092915050565b612a9681612dde565b82525050565b612aa581612dde565b82525050565b612ab481612de8565b82525050565b612ac381612de8565b82525050565b6000612ad582846128c4565b915081905092915050565b6000602082019050612af56000830184612807565b92915050565b60006020820190508181036000830152612b158184612816565b905092915050565b60006020820190508181036000830152612b36816128f5565b9050919050565b60006020820190508181036000830152612b5681612918565b9050919050565b60006020820190508181036000830152612b768161293b565b9050919050565b60006020820190508181036000830152612b968161295e565b9050919050565b60006020820190508181036000830152612bb681612981565b9050919050565b60006020820190508181036000830152612bd6816129a4565b9050919050565b60006020820190508181036000830152612bf6816129c7565b9050919050565b6000602082019050612c126000830184612a9c565b92915050565b6000606082019050612c2d6000830186612a9c565b612c3a6020830185612aba565b612c476040830184612aba565b949350505050565b6000612c59612c6a565b9050612c658282612e93565b919050565b6000604051905090565b600067ffffffffffffffff821115612c8f57612c8e612f9a565b5b612c9882612fdd565b9050602081019050919050565b6000819050602082019050919050565b600081519050919050565b600081519050919050565b6000602082019050919050565b600082825260208201905092915050565b600082825260208201905092915050565b600082825260208201905092915050565b600081905092915050565b6000612d2182612dde565b9150612d2c83612dde565b9250827fffffffffffffffffffffffffffffffffffffffffffffffffffffffffffffffff03821115612d6157612d60612f0d565b5b828201905092915050565b6000612d7782612dde565b9150612d8283612dde565b925082821015612d9557612d94612f0d565b5b828203905092915050565b6000612dab82612dbe565b9050919050565b60008115159050919050565b600073ffffffffffffffffffffffffffffffffffffffff82169050919050565b6000819050919050565b600060ff82169050919050565b82818337600083830152505050565b60005b83811015612e22578082015181840152602081019050612e07565b83811115612e31576000848401525b50505050565b6000612e4282612dde565b91506000821415612e5657612e55612f0d565b5b600182039050919050565b60006002820490506001821680612e7957607f821691505b60208210811415612e8d57612e8c612f3c565b5b50919050565b612e9c82612fdd565b810181811067ffffffffffffffff82111715612ebb57612eba612f9a565b5b80604052505050565b6000612ecf82612dde565b91507fffffffffffffffffffffffffffffffffffffffffffffffffffffffffffffffff821415612f0257612f01612f0d565b5b600182019050919050565b7f4e487b7100000000000000000000000000000000000000000000000000000000600052601160045260246000fd5b7f4e487b7100000000000000000000000000000000000000000000000000000000600052602260045260246000fd5b7f4e487b7100000000000000000000000000000000000000000000000000000000600052603260045260246000fd5b7f4e487b7100000000000000000000000000000000000000000000000000000000600052604160045260246000fd5b600080fd5b600080fd5b600080fd5b600080fd5b6000601f19601f8301169050919050565b7f4f776e61626c653a206e6577206f776e657220697320746865207a65726f206160008201527f6464726573730000000000000000000000000000000000000000000000000000602082015250565b7f43616e206e6f7420757064617465207472616e73616374696f6e20414d4c207360008201527f74617475733a20616c7265616479207365740000000000000000000000000000602082015250565b7f43616e206e6f7420676574207472616e73616374696f6e73206c6973742e205460008201527f6865206d6178696d756d207472616e73616374696f6e7320636f756e7420697360208201527f2031303000000000000000000000000000000000000000000000000000000000604082015250565b7f4f6e6c7920666f7220636f6d706c6574656420414d4c00000000000000000000600082015250565b7f4f776e61626c653a2063616c6c6572206973206e6f7420746865206f776e6572600082015250565b7f43616e206e6f74207570646174652072656365697665722e20496e76616c696460008201527f2073656e64657200000000000000000000000000000000000000000000000000602082015250565b7f43616e206e6f74207570646174652072656365697665722e205472616e73616360008201527f74696f6e20616c726561647920686173206265656e2075706461746564000000602082015250565b6131fa81612da0565b811461320557600080fd5b50565b61321181612db2565b811461321c57600080fd5b50565b61322881612dde565b811461323357600080fd5b50565b61323f81612de8565b811461324a57600080fd5b5056fea26469706673582212203ee70081a71c24b565b5e26c83e2e922fe1e277544d39beb5dc1b43ffcb437ec64736f6c63430008070033",
					"opcodes": "PUSH1 0x80 PUSH1 0x40 MSTORE CALLVALUE DUP1 ISZERO PUSH3 0x11 JUMPI PUSH1 0x0 DUP1 REVERT JUMPDEST POP PUSH3 0x32 PUSH3 0x26 PUSH3 0x38 PUSH1 0x20 SHL PUSH1 0x20 SHR JUMP JUMPDEST PUSH3 0x40 PUSH1 0x20 SHL PUSH1 0x20 SHR JUMP JUMPDEST PUSH3 0x104 JUMP JUMPDEST PUSH1 0x0 CALLER SWAP1 POP SWAP1 JUMP JUMPDEST PUSH1 0x0 DUP1 PUSH1 0x0 SWAP1 SLOAD SWAP1 PUSH2 0x100 EXP SWAP1 DIV PUSH20 0xFFFFFFFFFFFFFFFFFFFFFFFFFFFFFFFFFFFFFFFF AND SWAP1 POP DUP2 PUSH1 0x0 DUP1 PUSH2 0x100 EXP DUP2 SLOAD DUP2 PUSH20 0xFFFFFFFFFFFFFFFFFFFFFFFFFFFFFFFFFFFFFFFF MUL NOT AND SWAP1 DUP4 PUSH20 0xFFFFFFFFFFFFFFFFFFFFFFFFFFFFFFFFFFFFFFFF AND MUL OR SWAP1 SSTORE POP DUP2 PUSH20 0xFFFFFFFFFFFFFFFFFFFFFFFFFFFFFFFFFFFFFFFF AND DUP2 PUSH20 0xFFFFFFFFFFFFFFFFFFFFFFFFFFFFFFFFFFFFFFFF AND PUSH32 0x8BE0079C531659141344CD1FD0A4F28419497F9722A3DAAFE3B4186F6B6457E0 PUSH1 0x40 MLOAD PUSH1 0x40 MLOAD DUP1 SWAP2 SUB SWAP1 LOG3 POP POP JUMP JUMPDEST PUSH2 0x3283 DUP1 PUSH3 0x114 PUSH1 0x0 CODECOPY PUSH1 0x0 RETURN INVALID PUSH1 0x80 PUSH1 0x40 MSTORE CALLVALUE DUP1 ISZERO PUSH2 0x10 JUMPI PUSH1 0x0 DUP1 REVERT JUMPDEST POP PUSH1 0x4 CALLDATASIZE LT PUSH2 0xEA JUMPI PUSH1 0x0 CALLDATALOAD PUSH1 0xE0 SHR DUP1 PUSH4 0x8DA5CB5B GT PUSH2 0x8C JUMPI DUP1 PUSH4 0xCF993060 GT PUSH2 0x66 JUMPI DUP1 PUSH4 0xCF993060 EQ PUSH2 0x20F JUMPI DUP1 PUSH4 0xD39D0527 EQ PUSH2 0x22B JUMPI DUP1 PUSH4 0xE32AB44B EQ PUSH2 0x247 JUMPI DUP1 PUSH4 0xF2FDE38B EQ PUSH2 0x277 JUMPI PUSH2 0xEA JUMP JUMPDEST DUP1 PUSH4 0x8DA5CB5B EQ PUSH2 0x1A5 JUMPI DUP1 PUSH4 0x9A238F6D EQ PUSH2 0x1C3 JUMPI DUP1 PUSH4 0x9B8570F4 EQ PUSH2 0x1DF JUMPI PUSH2 0xEA JUMP JUMPDEST DUP1 PUSH4 0x5742177C GT PUSH2 0xC8 JUMPI DUP1 PUSH4 0x5742177C EQ PUSH2 0x133 JUMPI DUP1 PUSH4 0x715018A6 EQ PUSH2 0x163 JUMPI DUP1 PUSH4 0x7CCC241A EQ PUSH2 0x16D JUMPI DUP1 PUSH4 0x87E8BD12 EQ PUSH2 0x189 JUMPI PUSH2 0xEA JUMP JUMPDEST DUP1 PUSH4 0x1167372D EQ PUSH2 0xEF JUMPI DUP1 PUSH4 0x27506F53 EQ PUSH2 0x10B JUMPI DUP1 PUSH4 0x52EFEA6E EQ PUSH2 0x129 JUMPI JUMPDEST PUSH1 0x0 DUP1 REVERT JUMPDEST PUSH2 0x109 PUSH1 0x4 DUP1 CALLDATASIZE SUB DUP2 ADD SWAP1 PUSH2 0x104 SWAP2 SWAP1 PUSH2 0x2791 JUMP JUMPDEST PUSH2 0x293 JUMP JUMPDEST STOP JUMPDEST PUSH2 0x113 PUSH2 0x4FD JUMP JUMPDEST PUSH1 0x40 MLOAD PUSH2 0x120 SWAP2 SWAP1 PUSH2 0x2AFB JUMP JUMPDEST PUSH1 0x40 MLOAD DUP1 SWAP2 SUB SWAP1 RETURN JUMPDEST PUSH2 0x131 PUSH2 0x770 JUMP JUMPDEST STOP JUMPDEST PUSH2 0x14D PUSH1 0x4 DUP1 CALLDATASIZE SUB DUP2 ADD SWAP1 PUSH2 0x148 SWAP2 SWAP1 PUSH2 0x2675 JUMP JUMPDEST PUSH2 0x788 JUMP JUMPDEST PUSH1 0x40 MLOAD PUSH2 0x15A SWAP2 SWAP1 PUSH2 0x2AFB JUMP JUMPDEST PUSH1 0x40 MLOAD DUP1 SWAP2 SUB SWAP1 RETURN JUMPDEST PUSH2 0x16B PUSH2 0xB05 JUMP JUMPDEST STOP JUMPDEST PUSH2 0x187 PUSH1 0x4 DUP1 CALLDATASIZE SUB DUP2 ADD SWAP1 PUSH2 0x182 SWAP2 SWAP1 PUSH2 0x273E JUMP JUMPDEST PUSH2 0xB19 JUMP JUMPDEST STOP JUMPDEST PUSH2 0x1A3 PUSH1 0x4 DUP1 CALLDATASIZE SUB DUP2 ADD SWAP1 PUSH2 0x19E SWAP2 SWAP1 PUSH2 0x26FE JUMP JUMPDEST PUSH2 0xE90 JUMP JUMPDEST STOP JUMPDEST PUSH2 0x1AD PUSH2 0x10B6 JUMP JUMPDEST PUSH1 0x40 MLOAD PUSH2 0x1BA SWAP2 SWAP1 PUSH2 0x2AE0 JUMP JUMPDEST PUSH1 0x40 MLOAD DUP1 SWAP2 SUB SWAP1 RETURN JUMPDEST PUSH2 0x1DD PUSH1 0x4 DUP1 CALLDATASIZE SUB DUP2 ADD SWAP1 PUSH2 0x1D8 SWAP2 SWAP1 PUSH2 0x273E JUMP JUMPDEST PUSH2 0x10DF JUMP JUMPDEST STOP JUMPDEST PUSH2 0x1F9 PUSH1 0x4 DUP1 CALLDATASIZE SUB DUP2 ADD SWAP1 PUSH2 0x1F4 SWAP2 SWAP1 PUSH2 0x25C6 JUMP JUMPDEST PUSH2 0x1456 JUMP JUMPDEST PUSH1 0x40 MLOAD PUSH2 0x206 SWAP2 SWAP1 PUSH2 0x2BFD JUMP JUMPDEST PUSH1 0x40 MLOAD DUP1 SWAP2 SUB SWAP1 RETURN JUMPDEST PUSH2 0x229 PUSH1 0x4 DUP1 CALLDATASIZE SUB DUP2 ADD SWAP1 PUSH2 0x224 SWAP2 SWAP1 PUSH2 0x26A2 JUMP JUMPDEST PUSH2 0x165A JUMP JUMPDEST STOP JUMPDEST PUSH2 0x245 PUSH1 0x4 DUP1 CALLDATASIZE SUB DUP2 ADD SWAP1 PUSH2 0x240 SWAP2 SWAP1 PUSH2 0x26FE JUMP JUMPDEST PUSH2 0x19AC JUMP JUMPDEST STOP JUMPDEST PUSH2 0x261 PUSH1 0x4 DUP1 CALLDATASIZE SUB DUP2 ADD SWAP1 PUSH2 0x25C SWAP2 SWAP1 PUSH2 0x2635 JUMP JUMPDEST PUSH2 0x1BD2 JUMP JUMPDEST PUSH1 0x40 MLOAD PUSH2 0x26E SWAP2 SWAP1 PUSH2 0x2AFB JUMP JUMPDEST PUSH1 0x40 MLOAD DUP1 SWAP2 SUB SWAP1 RETURN JUMPDEST PUSH2 0x291 PUSH1 0x4 DUP1 CALLDATASIZE SUB DUP2 ADD SWAP1 PUSH2 0x28C SWAP2 SWAP1 PUSH2 0x2599 JUMP JUMPDEST PUSH2 0x2083 JUMP JUMPDEST STOP JUMPDEST PUSH2 0x29B PUSH2 0x2107 JUMP JUMPDEST DUP3 PUSH2 0x362 PUSH1 0x1 DUP3 DUP2 SLOAD DUP2 LT PUSH2 0x2B3 JUMPI PUSH2 0x2B2 PUSH2 0x2F6B JUMP JUMPDEST JUMPDEST SWAP1 PUSH1 0x0 MSTORE PUSH1 0x20 PUSH1 0x0 KECCAK256 SWAP1 PUSH1 0x6 MUL ADD PUSH1 0x3 ADD DUP1 SLOAD PUSH2 0x2CF SWAP1 PUSH2 0x2E61 JUMP JUMPDEST DUP1 PUSH1 0x1F ADD PUSH1 0x20 DUP1 SWAP2 DIV MUL PUSH1 0x20 ADD PUSH1 0x40 MLOAD SWAP1 DUP2 ADD PUSH1 0x40 MSTORE DUP1 SWAP3 SWAP2 SWAP1 DUP2 DUP2 MSTORE PUSH1 0x20 ADD DUP3 DUP1 SLOAD PUSH2 0x2FB SWAP1 PUSH2 0x2E61 JUMP JUMPDEST DUP1 ISZERO PUSH2 0x348 JUMPI DUP1 PUSH1 0x1F LT PUSH2 0x31D JUMPI PUSH2 0x100 DUP1 DUP4 SLOAD DIV MUL DUP4 MSTORE SWAP2 PUSH1 0x20 ADD SWAP2 PUSH2 0x348 JUMP JUMPDEST DUP3 ADD SWAP2 SWAP1 PUSH1 0x0 MSTORE PUSH1 0x20 PUSH1 0x0 KECCAK256 SWAP1 JUMPDEST DUP2 SLOAD DUP2 MSTORE SWAP1 PUSH1 0x1 ADD SWAP1 PUSH1 0x20 ADD DUP1 DUP4 GT PUSH2 0x32B JUMPI DUP3 SWAP1 SUB PUSH1 0x1F AND DUP3 ADD SWAP2 JUMPDEST POP POP POP POP POP PUSH1 0x40 MLOAD DUP1 PUSH1 0x20 ADD PUSH1 0x40 MSTORE DUP1 PUSH1 0x0 DUP2 MSTORE POP PUSH2 0x2185 JUMP JUMPDEST ISZERO PUSH2 0x3A2 JUMPI PUSH1 0x40 MLOAD PUSH32 0x8C379A000000000000000000000000000000000000000000000000000000000 DUP2 MSTORE PUSH1 0x4 ADD PUSH2 0x399 SWAP1 PUSH2 0x2B7D JUMP JUMPDEST PUSH1 0x40 MLOAD DUP1 SWAP2 SUB SWAP1 REVERT JUMPDEST PUSH2 0x468 PUSH1 0x1 DUP3 DUP2 SLOAD DUP2 LT PUSH2 0x3B9 JUMPI PUSH2 0x3B8 PUSH2 0x2F6B JUMP JUMPDEST JUMPDEST SWAP1 PUSH1 0x0 MSTORE PUSH1 0x20 PUSH1 0x0 KECCAK256 SWAP1 PUSH1 0x6 MUL ADD PUSH1 0x4 ADD DUP1 SLOAD PUSH2 0x3D5 SWAP1 PUSH2 0x2E61 JUMP JUMPDEST DUP1 PUSH1 0x1F ADD PUSH1 0x20 DUP1 SWAP2 DIV MUL PUSH1 0x20 ADD PUSH1 0x40 MLOAD SWAP1 DUP2 ADD PUSH1 0x40 MSTORE DUP1 SWAP3 SWAP2 SWAP1 DUP2 DUP2 MSTORE PUSH1 0x20 ADD DUP3 DUP1 SLOAD PUSH2 0x401 SWAP1 PUSH2 0x2E61 JUMP JUMPDEST DUP1 ISZERO PUSH2 0x44E JUMPI DUP1 PUSH1 0x1F LT PUSH2 0x423 JUMPI PUSH2 0x100 DUP1 DUP4 SLOAD DIV MUL DUP4 MSTORE SWAP2 PUSH1 0x20 ADD SWAP2 PUSH2 0x44E JUMP JUMPDEST DUP3 ADD SWAP2 SWAP1 PUSH1 0x0 MSTORE PUSH1 0x20 PUSH1 0x0 KECCAK256 SWAP1 JUMPDEST DUP2 SLOAD DUP2 MSTORE SWAP1 PUSH1 0x1 ADD SWAP1 PUSH1 0x20 ADD DUP1 DUP4 GT PUSH2 0x431 JUMPI DUP3 SWAP1 SUB PUSH1 0x1F AND DUP3 ADD SWAP2 JUMPDEST POP POP POP POP POP PUSH1 0x40 MLOAD DUP1 PUSH1 0x20 ADD PUSH1 0x40 MSTORE DUP1 PUSH1 0x0 DUP2 MSTORE POP PUSH2 0x2185 JUMP JUMPDEST ISZERO PUSH2 0x4A8 JUMPI PUSH1 0x40 MLOAD PUSH32 0x8C379A000000000000000000000000000000000000000000000000000000000 DUP2 MSTORE PUSH1 0x4 ADD PUSH2 0x49F SWAP1 PUSH2 0x2B7D JUMP JUMPDEST PUSH1 0x40 MLOAD DUP1 SWAP2 SUB SWAP1 REVERT JUMPDEST PUSH2 0x4B2 DUP5 DUP4 PUSH2 0x19AC JUMP JUMPDEST PUSH2 0x4BC DUP5 DUP5 PUSH2 0xE90 JUMP JUMPDEST PUSH32 0x4CEA1F87ADB8C58C2D35AA0A3723745FF782300A0479866FC1E478A8740DF8E5 DUP5 DUP5 DUP5 PUSH1 0x40 MLOAD PUSH2 0x4EF SWAP4 SWAP3 SWAP2 SWAP1 PUSH2 0x2C18 JUMP JUMPDEST PUSH1 0x40 MLOAD DUP1 SWAP2 SUB SWAP1 LOG1 POP POP POP POP JUMP JUMPDEST PUSH1 0x60 PUSH1 0x1 DUP1 SLOAD DUP1 PUSH1 0x20 MUL PUSH1 0x20 ADD PUSH1 0x40 MLOAD SWAP1 DUP2 ADD PUSH1 0x40 MSTORE DUP1 SWAP3 SWAP2 SWAP1 DUP2 DUP2 MSTORE PUSH1 0x20 ADD PUSH1 0x0 SWAP1 JUMPDEST DUP3 DUP3 LT ISZERO PUSH2 0x767 JUMPI DUP4 DUP3 SWAP1 PUSH1 0x0 MSTORE PUSH1 0x20 PUSH1 0x0 KECCAK256 SWAP1 PUSH1 0x6 MUL ADD PUSH1 0x40 MLOAD DUP1 PUSH1 0xE0 ADD PUSH1 0x40 MSTORE SWAP1 DUP2 PUSH1 0x0 DUP3 ADD SLOAD DUP2 MSTORE PUSH1 0x20 ADD PUSH1 0x1 DUP3 ADD PUSH1 0x0 SWAP1 SLOAD SWAP1 PUSH2 0x100 EXP SWAP1 DIV PUSH20 0xFFFFFFFFFFFFFFFFFFFFFFFFFFFFFFFFFFFFFFFF AND PUSH20 0xFFFFFFFFFFFFFFFFFFFFFFFFFFFFFFFFFFFFFFFF AND PUSH20 0xFFFFFFFFFFFFFFFFFFFFFFFFFFFFFFFFFFFFFFFF AND DUP2 MSTORE PUSH1 0x20 ADD PUSH1 0x2 DUP3 ADD PUSH1 0x0 SWAP1 SLOAD SWAP1 PUSH2 0x100 EXP SWAP1 DIV PUSH20 0xFFFFFFFFFFFFFFFFFFFFFFFFFFFFFFFFFFFFFFFF AND PUSH20 0xFFFFFFFFFFFFFFFFFFFFFFFFFFFFFFFFFFFFFFFF AND PUSH20 0xFFFFFFFFFFFFFFFFFFFFFFFFFFFFFFFFFFFFFFFF AND DUP2 MSTORE PUSH1 0x20 ADD PUSH1 0x3 DUP3 ADD DUP1 SLOAD PUSH2 0x60A SWAP1 PUSH2 0x2E61 JUMP JUMPDEST DUP1 PUSH1 0x1F ADD PUSH1 0x20 DUP1 SWAP2 DIV MUL PUSH1 0x20 ADD PUSH1 0x40 MLOAD SWAP1 DUP2 ADD PUSH1 0x40 MSTORE DUP1 SWAP3 SWAP2 SWAP1 DUP2 DUP2 MSTORE PUSH1 0x20 ADD DUP3 DUP1 SLOAD PUSH2 0x636 SWAP1 PUSH2 0x2E61 JUMP JUMPDEST DUP1 ISZERO PUSH2 0x683 JUMPI DUP1 PUSH1 0x1F LT PUSH2 0x658 JUMPI PUSH2 0x100 DUP1 DUP4 SLOAD DIV MUL DUP4 MSTORE SWAP2 PUSH1 0x20 ADD SWAP2 PUSH2 0x683 JUMP JUMPDEST DUP3 ADD SWAP2 SWAP1 PUSH1 0x0 MSTORE PUSH1 0x20 PUSH1 0x0 KECCAK256 SWAP1 JUMPDEST DUP2 SLOAD DUP2 MSTORE SWAP1 PUSH1 0x1 ADD SWAP1 PUSH1 0x20 ADD DUP1 DUP4 GT PUSH2 0x666 JUMPI DUP3 SWAP1 SUB PUSH1 0x1F AND DUP3 ADD SWAP2 JUMPDEST POP POP POP POP POP DUP2 MSTORE PUSH1 0x20 ADD PUSH1 0x4 DUP3 ADD DUP1 SLOAD PUSH2 0x69C SWAP1 PUSH2 0x2E61 JUMP JUMPDEST DUP1 PUSH1 0x1F ADD PUSH1 0x20 DUP1 SWAP2 DIV MUL PUSH1 0x20 ADD PUSH1 0x40 MLOAD SWAP1 DUP2 ADD PUSH1 0x40 MSTORE DUP1 SWAP3 SWAP2 SWAP1 DUP2 DUP2 MSTORE PUSH1 0x20 ADD DUP3 DUP1 SLOAD PUSH2 0x6C8 SWAP1 PUSH2 0x2E61 JUMP JUMPDEST DUP1 ISZERO PUSH2 0x715 JUMPI DUP1 PUSH1 0x1F LT PUSH2 0x6EA JUMPI PUSH2 0x100 DUP1 DUP4 SLOAD DIV MUL DUP4 MSTORE SWAP2 PUSH1 0x20 ADD SWAP2 PUSH2 0x715 JUMP JUMPDEST DUP3 ADD SWAP2 SWAP1 PUSH1 0x0 MSTORE PUSH1 0x20 PUSH1 0x0 KECCAK256 SWAP1 JUMPDEST DUP2 SLOAD DUP2 MSTORE SWAP1 PUSH1 0x1 ADD SWAP1 PUSH1 0x20 ADD DUP1 DUP4 GT PUSH2 0x6F8 JUMPI DUP3 SWAP1 SUB PUSH1 0x1F AND DUP3 ADD SWAP2 JUMPDEST POP POP POP POP POP DUP2 MSTORE PUSH1 0x20 ADD PUSH1 0x5 DUP3 ADD PUSH1 0x0 SWAP1 SLOAD SWAP1 PUSH2 0x100 EXP SWAP1 DIV PUSH1 0xFF AND PUSH1 0xFF AND PUSH1 0xFF AND DUP2 MSTORE PUSH1 0x20 ADD PUSH1 0x5 DUP3 ADD PUSH1 0x1 SWAP1 SLOAD SWAP1 PUSH2 0x100 EXP SWAP1 DIV PUSH1 0xFF AND PUSH1 0xFF AND PUSH1 0xFF AND DUP2 MSTORE POP POP DUP2 MSTORE PUSH1 0x20 ADD SWAP1 PUSH1 0x1 ADD SWAP1 PUSH2 0x521 JUMP JUMPDEST POP POP POP POP SWAP1 POP SWAP1 JUMP JUMPDEST PUSH2 0x778 PUSH2 0x2107 JUMP JUMPDEST PUSH1 0x1 PUSH1 0x0 PUSH2 0x786 SWAP2 SWAP1 PUSH2 0x22AA JUMP JUMPDEST JUMP JUMPDEST PUSH1 0x60 PUSH1 0x64 DUP3 LT PUSH2 0x7CD JUMPI PUSH1 0x40 MLOAD PUSH32 0x8C379A000000000000000000000000000000000000000000000000000000000 DUP2 MSTORE PUSH1 0x4 ADD PUSH2 0x7C4 SWAP1 PUSH2 0x2B5D JUMP JUMPDEST PUSH1 0x40 MLOAD DUP1 SWAP2 SUB SWAP1 REVERT JUMPDEST PUSH1 0x0 PUSH1 0x1 DUP1 SLOAD SWAP1 POP SWAP1 POP PUSH1 0x0 DUP4 DUP3 LT PUSH2 0x7E6 JUMPI DUP4 PUSH2 0x7E8 JUMP JUMPDEST DUP2 JUMPDEST SWAP1 POP PUSH1 0x0 PUSH1 0x1 DUP3 DUP5 PUSH2 0x7FA SWAP2 SWAP1 PUSH2 0x2D6C JUMP JUMPDEST PUSH2 0x804 SWAP2 SWAP1 PUSH2 0x2D16 JUMP JUMPDEST SWAP1 POP PUSH1 0x0 DUP3 PUSH8 0xFFFFFFFFFFFFFFFF DUP2 GT ISZERO PUSH2 0x822 JUMPI PUSH2 0x821 PUSH2 0x2F9A JUMP JUMPDEST JUMPDEST PUSH1 0x40 MLOAD SWAP1 DUP1 DUP3 MSTORE DUP1 PUSH1 0x20 MUL PUSH1 0x20 ADD DUP3 ADD PUSH1 0x40 MSTORE DUP1 ISZERO PUSH2 0x85B JUMPI DUP2 PUSH1 0x20 ADD JUMPDEST PUSH2 0x848 PUSH2 0x22CE JUMP JUMPDEST DUP2 MSTORE PUSH1 0x20 ADD SWAP1 PUSH1 0x1 SWAP1 SUB SWAP1 DUP2 PUSH2 0x840 JUMPI SWAP1 POP JUMPDEST POP SWAP1 POP PUSH1 0x0 DUP1 DUP6 SWAP1 POP JUMPDEST DUP4 DUP2 LT PUSH2 0xAF7 JUMPI PUSH1 0x1 DUP1 DUP3 PUSH2 0x87A SWAP2 SWAP1 PUSH2 0x2D6C JUMP JUMPDEST DUP2 SLOAD DUP2 LT PUSH2 0x88B JUMPI PUSH2 0x88A PUSH2 0x2F6B JUMP JUMPDEST JUMPDEST SWAP1 PUSH1 0x0 MSTORE PUSH1 0x20 PUSH1 0x0 KECCAK256 SWAP1 PUSH1 0x6 MUL ADD PUSH1 0x40 MLOAD DUP1 PUSH1 0xE0 ADD PUSH1 0x40 MSTORE SWAP1 DUP2 PUSH1 0x0 DUP3 ADD SLOAD DUP2 MSTORE PUSH1 0x20 ADD PUSH1 0x1 DUP3 ADD PUSH1 0x0 SWAP1 SLOAD SWAP1 PUSH2 0x100 EXP SWAP1 DIV PUSH20 0xFFFFFFFFFFFFFFFFFFFFFFFFFFFFFFFFFFFFFFFF AND PUSH20 0xFFFFFFFFFFFFFFFFFFFFFFFFFFFFFFFFFFFFFFFF AND PUSH20 0xFFFFFFFFFFFFFFFFFFFFFFFFFFFFFFFFFFFFFFFF AND DUP2 MSTORE PUSH1 0x20 ADD PUSH1 0x2 DUP3 ADD PUSH1 0x0 SWAP1 SLOAD SWAP1 PUSH2 0x100 EXP SWAP1 DIV PUSH20 0xFFFFFFFFFFFFFFFFFFFFFFFFFFFFFFFFFFFFFFFF AND PUSH20 0xFFFFFFFFFFFFFFFFFFFFFFFFFFFFFFFFFFFFFFFF AND PUSH20 0xFFFFFFFFFFFFFFFFFFFFFFFFFFFFFFFFFFFFFFFF AND DUP2 MSTORE PUSH1 0x20 ADD PUSH1 0x3 DUP3 ADD DUP1 SLOAD PUSH2 0x96A SWAP1 PUSH2 0x2E61 JUMP JUMPDEST DUP1 PUSH1 0x1F ADD PUSH1 0x20 DUP1 SWAP2 DIV MUL PUSH1 0x20 ADD PUSH1 0x40 MLOAD SWAP1 DUP2 ADD PUSH1 0x40 MSTORE DUP1 SWAP3 SWAP2 SWAP1 DUP2 DUP2 MSTORE PUSH1 0x20 ADD DUP3 DUP1 SLOAD PUSH2 0x996 SWAP1 PUSH2 0x2E61 JUMP JUMPDEST DUP1 ISZERO PUSH2 0x9E3 JUMPI DUP1 PUSH1 0x1F LT PUSH2 0x9B8 JUMPI PUSH2 0x100 DUP1 DUP4 SLOAD DIV MUL DUP4 MSTORE SWAP2 PUSH1 0x20 ADD SWAP2 PUSH2 0x9E3 JUMP JUMPDEST DUP3 ADD SWAP2 SWAP1 PUSH1 0x0 MSTORE PUSH1 0x20 PUSH1 0x0 KECCAK256 SWAP1 JUMPDEST DUP2 SLOAD DUP2 MSTORE SWAP1 PUSH1 0x1 ADD SWAP1 PUSH1 0x20 ADD DUP1 DUP4 GT PUSH2 0x9C6 JUMPI DUP3 SWAP1 SUB PUSH1 0x1F AND DUP3 ADD SWAP2 JUMPDEST POP POP POP POP POP DUP2 MSTORE PUSH1 0x20 ADD PUSH1 0x4 DUP3 ADD DUP1 SLOAD PUSH2 0x9FC SWAP1 PUSH2 0x2E61 JUMP JUMPDEST DUP1 PUSH1 0x1F ADD PUSH1 0x20 DUP1 SWAP2 DIV MUL PUSH1 0x20 ADD PUSH1 0x40 MLOAD SWAP1 DUP2 ADD PUSH1 0x40 MSTORE DUP1 SWAP3 SWAP2 SWAP1 DUP2 DUP2 MSTORE PUSH1 0x20 ADD DUP3 DUP1 SLOAD PUSH2 0xA28 SWAP1 PUSH2 0x2E61 JUMP JUMPDEST DUP1 ISZERO PUSH2 0xA75 JUMPI DUP1 PUSH1 0x1F LT PUSH2 0xA4A JUMPI PUSH2 0x100 DUP1 DUP4 SLOAD DIV MUL DUP4 MSTORE SWAP2 PUSH1 0x20 ADD SWAP2 PUSH2 0xA75 JUMP JUMPDEST DUP3 ADD SWAP2 SWAP1 PUSH1 0x0 MSTORE PUSH1 0x20 PUSH1 0x0 KECCAK256 SWAP1 JUMPDEST DUP2 SLOAD DUP2 MSTORE SWAP1 PUSH1 0x1 ADD SWAP1 PUSH1 0x20 ADD DUP1 DUP4 GT PUSH2 0xA58 JUMPI DUP3 SWAP1 SUB PUSH1 0x1F AND DUP3 ADD SWAP2 JUMPDEST POP POP POP POP POP DUP2 MSTORE PUSH1 0x20 ADD PUSH1 0x5 DUP3 ADD PUSH1 0x0 SWAP1 SLOAD SWAP1 PUSH2 0x100 EXP SWAP1 DIV PUSH1 0xFF AND PUSH1 0xFF AND PUSH1 0xFF AND DUP2 MSTORE PUSH1 0x20 ADD PUSH1 0x5 DUP3 ADD PUSH1 0x1 SWAP1 SLOAD SWAP1 PUSH2 0x100 EXP SWAP1 DIV PUSH1 0xFF AND PUSH1 0xFF AND PUSH1 0xFF AND DUP2 MSTORE POP POP DUP4 DUP4 DUP2 MLOAD DUP2 LT PUSH2 0xACB JUMPI PUSH2 0xACA PUSH2 0x2F6B JUMP JUMPDEST JUMPDEST PUSH1 0x20 MUL PUSH1 0x20 ADD ADD DUP2 SWAP1 MSTORE POP DUP2 DUP1 PUSH2 0xAE1 SWAP1 PUSH2 0x2EC4 JUMP JUMPDEST SWAP3 POP POP DUP1 DUP1 PUSH2 0xAEF SWAP1 PUSH2 0x2E37 JUMP JUMPDEST SWAP2 POP POP PUSH2 0x865 JUMP JUMPDEST POP DUP2 SWAP6 POP POP POP POP POP POP SWAP2 SWAP1 POP JUMP JUMPDEST PUSH2 0xB0D PUSH2 0x2107 JUMP JUMPDEST PUSH2 0xB17 PUSH1 0x0 PUSH2 0x21DE JUMP JUMPDEST JUMP JUMPDEST PUSH2 0xB21 PUSH2 0x2107 JUMP JUMPDEST DUP3 PUSH2 0xBE8 PUSH1 0x1 DUP3 DUP2 SLOAD DUP2 LT PUSH2 0xB39 JUMPI PUSH2 0xB38 PUSH2 0x2F6B JUMP JUMPDEST JUMPDEST SWAP1 PUSH1 0x0 MSTORE PUSH1 0x20 PUSH1 0x0 KECCAK256 SWAP1 PUSH1 0x6 MUL ADD PUSH1 0x3 ADD DUP1 SLOAD PUSH2 0xB55 SWAP1 PUSH2 0x2E61 JUMP JUMPDEST DUP1 PUSH1 0x1F ADD PUSH1 0x20 DUP1 SWAP2 DIV MUL PUSH1 0x20 ADD PUSH1 0x40 MLOAD SWAP1 DUP2 ADD PUSH1 0x40 MSTORE DUP1 SWAP3 SWAP2 SWAP1 DUP2 DUP2 MSTORE PUSH1 0x20 ADD DUP3 DUP1 SLOAD PUSH2 0xB81 SWAP1 PUSH2 0x2E61 JUMP JUMPDEST DUP1 ISZERO PUSH2 0xBCE JUMPI DUP1 PUSH1 0x1F LT PUSH2 0xBA3 JUMPI PUSH2 0x100 DUP1 DUP4 SLOAD DIV MUL DUP4 MSTORE SWAP2 PUSH1 0x20 ADD SWAP2 PUSH2 0xBCE JUMP JUMPDEST DUP3 ADD SWAP2 SWAP1 PUSH1 0x0 MSTORE PUSH1 0x20 PUSH1 0x0 KECCAK256 SWAP1 JUMPDEST DUP2 SLOAD DUP2 MSTORE SWAP1 PUSH1 0x1 ADD SWAP1 PUSH1 0x20 ADD DUP1 DUP4 GT PUSH2 0xBB1 JUMPI DUP3 SWAP1 SUB PUSH1 0x1F AND DUP3 ADD SWAP2 JUMPDEST POP POP POP POP POP PUSH1 0x40 MLOAD DUP1 PUSH1 0x20 ADD PUSH1 0x40 MSTORE DUP1 PUSH1 0x0 DUP2 MSTORE POP PUSH2 0x2185 JUMP JUMPDEST ISZERO PUSH2 0xC28 JUMPI PUSH1 0x40 MLOAD PUSH32 0x8C379A000000000000000000000000000000000000000000000000000000000 DUP2 MSTORE PUSH1 0x4 ADD PUSH2 0xC1F SWAP1 PUSH2 0x2B7D JUMP JUMPDEST PUSH1 0x40 MLOAD DUP1 SWAP2 SUB SWAP1 REVERT JUMPDEST PUSH2 0xCEE PUSH1 0x1 DUP3 DUP2 SLOAD DUP2 LT PUSH2 0xC3F JUMPI PUSH2 0xC3E PUSH2 0x2F6B JUMP JUMPDEST JUMPDEST SWAP1 PUSH1 0x0 MSTORE PUSH1 0x20 PUSH1 0x0 KECCAK256 SWAP1 PUSH1 0x6 MUL ADD PUSH1 0x4 ADD DUP1 SLOAD PUSH2 0xC5B SWAP1 PUSH2 0x2E61 JUMP JUMPDEST DUP1 PUSH1 0x1F ADD PUSH1 0x20 DUP1 SWAP2 DIV MUL PUSH1 0x20 ADD PUSH1 0x40 MLOAD SWAP1 DUP2 ADD PUSH1 0x40 MSTORE DUP1 SWAP3 SWAP2 SWAP1 DUP2 DUP2 MSTORE PUSH1 0x20 ADD DUP3 DUP1 SLOAD PUSH2 0xC87 SWAP1 PUSH2 0x2E61 JUMP JUMPDEST DUP1 ISZERO PUSH2 0xCD4 JUMPI DUP1 PUSH1 0x1F LT PUSH2 0xCA9 JUMPI PUSH2 0x100 DUP1 DUP4 SLOAD DIV MUL DUP4 MSTORE SWAP2 PUSH1 0x20 ADD SWAP2 PUSH2 0xCD4 JUMP JUMPDEST DUP3 ADD SWAP2 SWAP1 PUSH1 0x0 MSTORE PUSH1 0x20 PUSH1 0x0 KECCAK256 SWAP1 JUMPDEST DUP2 SLOAD DUP2 MSTORE SWAP1 PUSH1 0x1 ADD SWAP1 PUSH1 0x20 ADD DUP1 DUP4 GT PUSH2 0xCB7 JUMPI DUP3 SWAP1 SUB PUSH1 0x1F AND DUP3 ADD SWAP2 JUMPDEST POP POP POP POP POP PUSH1 0x40 MLOAD DUP1 PUSH1 0x20 ADD PUSH1 0x40 MSTORE DUP1 PUSH1 0x0 DUP2 MSTORE POP PUSH2 0x2185 JUMP JUMPDEST ISZERO PUSH2 0xD2E JUMPI PUSH1 0x40 MLOAD PUSH32 0x8C379A000000000000000000000000000000000000000000000000000000000 DUP2 MSTORE PUSH1 0x4 ADD PUSH2 0xD25 SWAP1 PUSH2 0x2B7D JUMP JUMPDEST PUSH1 0x40 MLOAD DUP1 SWAP2 SUB SWAP1 REVERT JUMPDEST PUSH1 0x0 PUSH1 0x1 DUP6 DUP2 SLOAD DUP2 LT PUSH2 0xD44 JUMPI PUSH2 0xD43 PUSH2 0x2F6B JUMP JUMPDEST JUMPDEST SWAP1 PUSH1 0x0 MSTORE PUSH1 0x20 PUSH1 0x0 KECCAK256 SWAP1 PUSH1 0x6 MUL ADD PUSH1 0x5 ADD PUSH1 0x1 SWAP1 SLOAD SWAP1 PUSH2 0x100 EXP SWAP1 DIV PUSH1 0xFF AND PUSH1 0xFF AND EQ PUSH2 0xDA6 JUMPI PUSH1 0x40 MLOAD PUSH32 0x8C379A000000000000000000000000000000000000000000000000000000000 DUP2 MSTORE PUSH1 0x4 ADD PUSH2 0xD9D SWAP1 PUSH2 0x2B3D JUMP JUMPDEST PUSH1 0x40 MLOAD DUP1 SWAP2 SUB SWAP1 REVERT JUMPDEST DUP3 PUSH1 0x1 DUP6 DUP2 SLOAD DUP2 LT PUSH2 0xDBB JUMPI PUSH2 0xDBA PUSH2 0x2F6B JUMP JUMPDEST JUMPDEST SWAP1 PUSH1 0x0 MSTORE PUSH1 0x20 PUSH1 0x0 KECCAK256 SWAP1 PUSH1 0x6 MUL ADD PUSH1 0x5 ADD PUSH1 0x1 PUSH2 0x100 EXP DUP2 SLOAD DUP2 PUSH1 0xFF MUL NOT AND SWAP1 DUP4 PUSH1 0xFF AND MUL OR SWAP1 SSTORE POP DUP2 ISZERO PUSH2 0xE8A JUMPI PUSH32 0x4CEA1F87ADB8C58C2D35AA0A3723745FF782300A0479866FC1E478A8740DF8E5 DUP5 PUSH1 0x1 DUP7 DUP2 SLOAD DUP2 LT PUSH2 0xE20 JUMPI PUSH2 0xE1F PUSH2 0x2F6B JUMP JUMPDEST JUMPDEST SWAP1 PUSH1 0x0 MSTORE PUSH1 0x20 PUSH1 0x0 KECCAK256 SWAP1 PUSH1 0x6 MUL ADD PUSH1 0x5 ADD PUSH1 0x0 SWAP1 SLOAD SWAP1 PUSH2 0x100 EXP SWAP1 DIV PUSH1 0xFF AND PUSH1 0x1 DUP8 DUP2 SLOAD DUP2 LT PUSH2 0xE53 JUMPI PUSH2 0xE52 PUSH2 0x2F6B JUMP JUMPDEST JUMPDEST SWAP1 PUSH1 0x0 MSTORE PUSH1 0x20 PUSH1 0x0 KECCAK256 SWAP1 PUSH1 0x6 MUL ADD PUSH1 0x5 ADD PUSH1 0x1 SWAP1 SLOAD SWAP1 PUSH2 0x100 EXP SWAP1 DIV PUSH1 0xFF AND PUSH1 0x40 MLOAD PUSH2 0xE81 SWAP4 SWAP3 SWAP2 SWAP1 PUSH2 0x2C18 JUMP JUMPDEST PUSH1 0x40 MLOAD DUP1 SWAP2 SUB SWAP1 LOG1 JUMPDEST POP POP POP POP JUMP JUMPDEST PUSH2 0xE98 PUSH2 0x2107 JUMP JUMPDEST DUP2 PUSH2 0xF5F PUSH1 0x1 DUP3 DUP2 SLOAD DUP2 LT PUSH2 0xEB0 JUMPI PUSH2 0xEAF PUSH2 0x2F6B JUMP JUMPDEST JUMPDEST SWAP1 PUSH1 0x0 MSTORE PUSH1 0x20 PUSH1 0x0 KECCAK256 SWAP1 PUSH1 0x6 MUL ADD PUSH1 0x3 ADD DUP1 SLOAD PUSH2 0xECC SWAP1 PUSH2 0x2E61 JUMP JUMPDEST DUP1 PUSH1 0x1F ADD PUSH1 0x20 DUP1 SWAP2 DIV MUL PUSH1 0x20 ADD PUSH1 0x40 MLOAD SWAP1 DUP2 ADD PUSH1 0x40 MSTORE DUP1 SWAP3 SWAP2 SWAP1 DUP2 DUP2 MSTORE PUSH1 0x20 ADD DUP3 DUP1 SLOAD PUSH2 0xEF8 SWAP1 PUSH2 0x2E61 JUMP JUMPDEST DUP1 ISZERO PUSH2 0xF45 JUMPI DUP1 PUSH1 0x1F LT PUSH2 0xF1A JUMPI PUSH2 0x100 DUP1 DUP4 SLOAD DIV MUL DUP4 MSTORE SWAP2 PUSH1 0x20 ADD SWAP2 PUSH2 0xF45 JUMP JUMPDEST DUP3 ADD SWAP2 SWAP1 PUSH1 0x0 MSTORE PUSH1 0x20 PUSH1 0x0 KECCAK256 SWAP1 JUMPDEST DUP2 SLOAD DUP2 MSTORE SWAP1 PUSH1 0x1 ADD SWAP1 PUSH1 0x20 ADD DUP1 DUP4 GT PUSH2 0xF28 JUMPI DUP3 SWAP1 SUB PUSH1 0x1F AND DUP3 ADD SWAP2 JUMPDEST POP POP POP POP POP PUSH1 0x40 MLOAD DUP1 PUSH1 0x20 ADD PUSH1 0x40 MSTORE DUP1 PUSH1 0x0 DUP2 MSTORE POP PUSH2 0x2185 JUMP JUMPDEST ISZERO PUSH2 0xF9F JUMPI PUSH1 0x40 MLOAD PUSH32 0x8C379A000000000000000000000000000000000000000000000000000000000 DUP2 MSTORE PUSH1 0x4 ADD PUSH2 0xF96 SWAP1 PUSH2 0x2B7D JUMP JUMPDEST PUSH1 0x40 MLOAD DUP1 SWAP2 SUB SWAP1 REVERT JUMPDEST PUSH2 0x1065 PUSH1 0x1 DUP3 DUP2 SLOAD DUP2 LT PUSH2 0xFB6 JUMPI PUSH2 0xFB5 PUSH2 0x2F6B JUMP JUMPDEST JUMPDEST SWAP1 PUSH1 0x0 MSTORE PUSH1 0x20 PUSH1 0x0 KECCAK256 SWAP1 PUSH1 0x6 MUL ADD PUSH1 0x4 ADD DUP1 SLOAD PUSH2 0xFD2 SWAP1 PUSH2 0x2E61 JUMP JUMPDEST DUP1 PUSH1 0x1F ADD PUSH1 0x20 DUP1 SWAP2 DIV MUL PUSH1 0x20 ADD PUSH1 0x40 MLOAD SWAP1 DUP2 ADD PUSH1 0x40 MSTORE DUP1 SWAP3 SWAP2 SWAP1 DUP2 DUP2 MSTORE PUSH1 0x20 ADD DUP3 DUP1 SLOAD PUSH2 0xFFE SWAP1 PUSH2 0x2E61 JUMP JUMPDEST DUP1 ISZERO PUSH2 0x104B JUMPI DUP1 PUSH1 0x1F LT PUSH2 0x1020 JUMPI PUSH2 0x100 DUP1 DUP4 SLOAD DIV MUL DUP4 MSTORE SWAP2 PUSH1 0x20 ADD SWAP2 PUSH2 0x104B JUMP JUMPDEST DUP3 ADD SWAP2 SWAP1 PUSH1 0x0 MSTORE PUSH1 0x20 PUSH1 0x0 KECCAK256 SWAP1 JUMPDEST DUP2 SLOAD DUP2 MSTORE SWAP1 PUSH1 0x1 ADD SWAP1 PUSH1 0x20 ADD DUP1 DUP4 GT PUSH2 0x102E JUMPI DUP3 SWAP1 SUB PUSH1 0x1F AND DUP3 ADD SWAP2 JUMPDEST POP POP POP POP POP PUSH1 0x40 MLOAD DUP1 PUSH1 0x20 ADD PUSH1 0x40 MSTORE DUP1 PUSH1 0x0 DUP2 MSTORE POP PUSH2 0x2185 JUMP JUMPDEST ISZERO PUSH2 0x10A5 JUMPI PUSH1 0x40 MLOAD PUSH32 0x8C379A000000000000000000000000000000000000000000000000000000000 DUP2 MSTORE PUSH1 0x4 ADD PUSH2 0x109C SWAP1 PUSH2 0x2B7D JUMP JUMPDEST PUSH1 0x40 MLOAD DUP1 SWAP2 SUB SWAP1 REVERT JUMPDEST PUSH2 0x10B1 DUP4 DUP4 PUSH1 0x0 PUSH2 0x10DF JUMP JUMPDEST POP POP POP JUMP JUMPDEST PUSH1 0x0 DUP1 PUSH1 0x0 SWAP1 SLOAD SWAP1 PUSH2 0x100 EXP SWAP1 DIV PUSH20 0xFFFFFFFFFFFFFFFFFFFFFFFFFFFFFFFFFFFFFFFF AND SWAP1 POP SWAP1 JUMP JUMPDEST PUSH2 0x10E7 PUSH2 0x2107 JUMP JUMPDEST DUP3 PUSH2 0x11AE PUSH1 0x1 DUP3 DUP2 SLOAD DUP2 LT PUSH2 0x10FF JUMPI PUSH2 0x10FE PUSH2 0x2F6B JUMP JUMPDEST JUMPDEST SWAP1 PUSH1 0x0 MSTORE PUSH1 0x20 PUSH1 0x0 KECCAK256 SWAP1 PUSH1 0x6 MUL ADD PUSH1 0x3 ADD DUP1 SLOAD PUSH2 0x111B SWAP1 PUSH2 0x2E61 JUMP JUMPDEST DUP1 PUSH1 0x1F ADD PUSH1 0x20 DUP1 SWAP2 DIV MUL PUSH1 0x20 ADD PUSH1 0x40 MLOAD SWAP1 DUP2 ADD PUSH1 0x40 MSTORE DUP1 SWAP3 SWAP2 SWAP1 DUP2 DUP2 MSTORE PUSH1 0x20 ADD DUP3 DUP1 SLOAD PUSH2 0x1147 SWAP1 PUSH2 0x2E61 JUMP JUMPDEST DUP1 ISZERO PUSH2 0x1194 JUMPI DUP1 PUSH1 0x1F LT PUSH2 0x1169 JUMPI PUSH2 0x100 DUP1 DUP4 SLOAD DIV MUL DUP4 MSTORE SWAP2 PUSH1 0x20 ADD SWAP2 PUSH2 0x1194 JUMP JUMPDEST DUP3 ADD SWAP2 SWAP1 PUSH1 0x0 MSTORE PUSH1 0x20 PUSH1 0x0 KECCAK256 SWAP1 JUMPDEST DUP2 SLOAD DUP2 MSTORE SWAP1 PUSH1 0x1 ADD SWAP1 PUSH1 0x20 ADD DUP1 DUP4 GT PUSH2 0x1177 JUMPI DUP3 SWAP1 SUB PUSH1 0x1F AND DUP3 ADD SWAP2 JUMPDEST POP POP POP POP POP PUSH1 0x40 MLOAD DUP1 PUSH1 0x20 ADD PUSH1 0x40 MSTORE DUP1 PUSH1 0x0 DUP2 MSTORE POP PUSH2 0x2185 JUMP JUMPDEST ISZERO PUSH2 0x11EE JUMPI PUSH1 0x40 MLOAD PUSH32 0x8C379A000000000000000000000000000000000000000000000000000000000 DUP2 MSTORE PUSH1 0x4 ADD PUSH2 0x11E5 SWAP1 PUSH2 0x2B7D JUMP JUMPDEST PUSH1 0x40 MLOAD DUP1 SWAP2 SUB SWAP1 REVERT JUMPDEST PUSH2 0x12B4 PUSH1 0x1 DUP3 DUP2 SLOAD DUP2 LT PUSH2 0x1205 JUMPI PUSH2 0x1204 PUSH2 0x2F6B JUMP JUMPDEST JUMPDEST SWAP1 PUSH1 0x0 MSTORE PUSH1 0x20 PUSH1 0x0 KECCAK256 SWAP1 PUSH1 0x6 MUL ADD PUSH1 0x4 ADD DUP1 SLOAD PUSH2 0x1221 SWAP1 PUSH2 0x2E61 JUMP JUMPDEST DUP1 PUSH1 0x1F ADD PUSH1 0x20 DUP1 SWAP2 DIV MUL PUSH1 0x20 ADD PUSH1 0x40 MLOAD SWAP1 DUP2 ADD PUSH1 0x40 MSTORE DUP1 SWAP3 SWAP2 SWAP1 DUP2 DUP2 MSTORE PUSH1 0x20 ADD DUP3 DUP1 SLOAD PUSH2 0x124D SWAP1 PUSH2 0x2E61 JUMP JUMPDEST DUP1 ISZERO PUSH2 0x129A JUMPI DUP1 PUSH1 0x1F LT PUSH2 0x126F JUMPI PUSH2 0x100 DUP1 DUP4 SLOAD DIV MUL DUP4 MSTORE SWAP2 PUSH1 0x20 ADD SWAP2 PUSH2 0x129A JUMP JUMPDEST DUP3 ADD SWAP2 SWAP1 PUSH1 0x0 MSTORE PUSH1 0x20 PUSH1 0x0 KECCAK256 SWAP1 JUMPDEST DUP2 SLOAD DUP2 MSTORE SWAP1 PUSH1 0x1 ADD SWAP1 PUSH1 0x20 ADD DUP1 DUP4 GT PUSH2 0x127D JUMPI DUP3 SWAP1 SUB PUSH1 0x1F AND DUP3 ADD SWAP2 JUMPDEST POP POP POP POP POP PUSH1 0x40 MLOAD DUP1 PUSH1 0x20 ADD PUSH1 0x40 MSTORE DUP1 PUSH1 0x0 DUP2 MSTORE POP PUSH2 0x2185 JUMP JUMPDEST ISZERO PUSH2 0x12F4 JUMPI PUSH1 0x40 MLOAD PUSH32 0x8C379A000000000000000000000000000000000000000000000000000000000 DUP2 MSTORE PUSH1 0x4 ADD PUSH2 0x12EB SWAP1 PUSH2 0x2B7D JUMP JUMPDEST PUSH1 0x40 MLOAD DUP1 SWAP2 SUB SWAP1 REVERT JUMPDEST PUSH1 0x0 PUSH1 0x1 DUP6 DUP2 SLOAD DUP2 LT PUSH2 0x130A JUMPI PUSH2 0x1309 PUSH2 0x2F6B JUMP JUMPDEST JUMPDEST SWAP1 PUSH1 0x0 MSTORE PUSH1 0x20 PUSH1 0x0 KECCAK256 SWAP1 PUSH1 0x6 MUL ADD PUSH1 0x5 ADD PUSH1 0x0 SWAP1 SLOAD SWAP1 PUSH2 0x100 EXP SWAP1 DIV PUSH1 0xFF AND PUSH1 0xFF AND EQ PUSH2 0x136C JUMPI PUSH1 0x40 MLOAD PUSH32 0x8C379A000000000000000000000000000000000000000000000000000000000 DUP2 MSTORE PUSH1 0x4 ADD PUSH2 0x1363 SWAP1 PUSH2 0x2B3D JUMP JUMPDEST PUSH1 0x40 MLOAD DUP1 SWAP2 SUB SWAP1 REVERT JUMPDEST DUP3 PUSH1 0x1 DUP6 DUP2 SLOAD DUP2 LT PUSH2 0x1381 JUMPI PUSH2 0x1380 PUSH2 0x2F6B JUMP JUMPDEST JUMPDEST SWAP1 PUSH1 0x0 MSTORE PUSH1 0x20 PUSH1 0x0 KECCAK256 SWAP1 PUSH1 0x6 MUL ADD PUSH1 0x5 ADD PUSH1 0x0 PUSH2 0x100 EXP DUP2 SLOAD DUP2 PUSH1 0xFF MUL NOT AND SWAP1 DUP4 PUSH1 0xFF AND MUL OR SWAP1 SSTORE POP DUP2 ISZERO PUSH2 0x1450 JUMPI PUSH32 0x4CEA1F87ADB8C58C2D35AA0A3723745FF782300A0479866FC1E478A8740DF8E5 DUP5 PUSH1 0x1 DUP7 DUP2 SLOAD DUP2 LT PUSH2 0x13E6 JUMPI PUSH2 0x13E5 PUSH2 0x2F6B JUMP JUMPDEST JUMPDEST SWAP1 PUSH1 0x0 MSTORE PUSH1 0x20 PUSH1 0x0 KECCAK256 SWAP1 PUSH1 0x6 MUL ADD PUSH1 0x5 ADD PUSH1 0x0 SWAP1 SLOAD SWAP1 PUSH2 0x100 EXP SWAP1 DIV PUSH1 0xFF AND PUSH1 0x1 DUP8 DUP2 SLOAD DUP2 LT PUSH2 0x1419 JUMPI PUSH2 0x1418 PUSH2 0x2F6B JUMP JUMPDEST JUMPDEST SWAP1 PUSH1 0x0 MSTORE PUSH1 0x20 PUSH1 0x0 KECCAK256 SWAP1 PUSH1 0x6 MUL ADD PUSH1 0x5 ADD PUSH1 0x1 SWAP1 SLOAD SWAP1 PUSH2 0x100 EXP SWAP1 DIV PUSH1 0xFF AND PUSH1 0x40 MLOAD PUSH2 0x1447 SWAP4 SWAP3 SWAP2 SWAP1 PUSH2 0x2C18 JUMP JUMPDEST PUSH1 0x40 MLOAD DUP1 SWAP2 SUB SWAP1 LOG1 JUMPDEST POP POP POP POP JUMP JUMPDEST PUSH1 0x0 DUP1 PUSH1 0x1 DUP1 SLOAD SWAP1 POP SWAP1 POP PUSH1 0x1 PUSH1 0x40 MLOAD DUP1 PUSH1 0xE0 ADD PUSH1 0x40 MSTORE DUP1 DUP4 DUP2 MSTORE PUSH1 0x20 ADD DUP8 PUSH20 0xFFFFFFFFFFFFFFFFFFFFFFFFFFFFFFFFFFFFFFFF AND DUP2 MSTORE PUSH1 0x20 ADD DUP7 PUSH20 0xFFFFFFFFFFFFFFFFFFFFFFFFFFFFFFFFFFFFFFFF AND DUP2 MSTORE PUSH1 0x20 ADD DUP6 DUP2 MSTORE PUSH1 0x20 ADD PUSH1 0x40 MLOAD DUP1 PUSH1 0x20 ADD PUSH1 0x40 MSTORE DUP1 PUSH1 0x0 DUP2 MSTORE POP DUP2 MSTORE PUSH1 0x20 ADD PUSH1 0x0 PUSH1 0xFF AND DUP2 MSTORE PUSH1 0x20 ADD PUSH1 0x0 PUSH1 0xFF AND DUP2 MSTORE POP SWAP1 DUP1 PUSH1 0x1 DUP2 SLOAD ADD DUP1 DUP3 SSTORE DUP1 SWAP2 POP POP PUSH1 0x1 SWAP1 SUB SWAP1 PUSH1 0x0 MSTORE PUSH1 0x20 PUSH1 0x0 KECCAK256 SWAP1 PUSH1 0x6 MUL ADD PUSH1 0x0 SWAP1 SWAP2 SWAP1 SWAP2 SWAP1 SWAP2 POP PUSH1 0x0 DUP3 ADD MLOAD DUP2 PUSH1 0x0 ADD SSTORE PUSH1 0x20 DUP3 ADD MLOAD DUP2 PUSH1 0x1 ADD PUSH1 0x0 PUSH2 0x100 EXP DUP2 SLOAD DUP2 PUSH20 0xFFFFFFFFFFFFFFFFFFFFFFFFFFFFFFFFFFFFFFFF MUL NOT AND SWAP1 DUP4 PUSH20 0xFFFFFFFFFFFFFFFFFFFFFFFFFFFFFFFFFFFFFFFF AND MUL OR SWAP1 SSTORE POP PUSH1 0x40 DUP3 ADD MLOAD DUP2 PUSH1 0x2 ADD PUSH1 0x0 PUSH2 0x100 EXP DUP2 SLOAD DUP2 PUSH20 0xFFFFFFFFFFFFFFFFFFFFFFFFFFFFFFFFFFFFFFFF MUL NOT AND SWAP1 DUP4 PUSH20 0xFFFFFFFFFFFFFFFFFFFFFFFFFFFFFFFFFFFFFFFF AND MUL OR SWAP1 SSTORE POP PUSH1 0x60 DUP3 ADD MLOAD DUP2 PUSH1 0x3 ADD SWAP1 DUP1 MLOAD SWAP1 PUSH1 0x20 ADD SWAP1 PUSH2 0x15B6 SWAP3 SWAP2 SWAP1 PUSH2 0x233D JUMP JUMPDEST POP PUSH1 0x80 DUP3 ADD MLOAD DUP2 PUSH1 0x4 ADD SWAP1 DUP1 MLOAD SWAP1 PUSH1 0x20 ADD SWAP1 PUSH2 0x15D3 SWAP3 SWAP2 SWAP1 PUSH2 0x233D JUMP JUMPDEST POP PUSH1 0xA0 DUP3 ADD MLOAD DUP2 PUSH1 0x5 ADD PUSH1 0x0 PUSH2 0x100 EXP DUP2 SLOAD DUP2 PUSH1 0xFF MUL NOT AND SWAP1 DUP4 PUSH1 0xFF AND MUL OR SWAP1 SSTORE POP PUSH1 0xC0 DUP3 ADD MLOAD DUP2 PUSH1 0x5 ADD PUSH1 0x1 PUSH2 0x100 EXP DUP2 SLOAD DUP2 PUSH1 0xFF MUL NOT AND SWAP1 DUP4 PUSH1 0xFF AND MUL OR SWAP1 SSTORE POP POP POP PUSH32 0x9AE2C53C3CA5E00A02CD45D501B75B8F6AEB8E6FE512B7BBE1E8691B9D3C8CE8 DUP2 PUSH1 0x40 MLOAD PUSH2 0x1647 SWAP2 SWAP1 PUSH2 0x2BFD JUMP JUMPDEST PUSH1 0x40 MLOAD DUP1 SWAP2 SUB SWAP1 LOG1 DUP1 SWAP2 POP POP SWAP4 SWAP3 POP POP POP JUMP JUMPDEST PUSH1 0x0 PUSH1 0x1 DUP4 DUP2 SLOAD DUP2 LT PUSH2 0x1670 JUMPI PUSH2 0x166F PUSH2 0x2F6B JUMP JUMPDEST JUMPDEST SWAP1 PUSH1 0x0 MSTORE PUSH1 0x20 PUSH1 0x0 KECCAK256 SWAP1 PUSH1 0x6 MUL ADD PUSH1 0x40 MLOAD DUP1 PUSH1 0xE0 ADD PUSH1 0x40 MSTORE SWAP1 DUP2 PUSH1 0x0 DUP3 ADD SLOAD DUP2 MSTORE PUSH1 0x20 ADD PUSH1 0x1 DUP3 ADD PUSH1 0x0 SWAP1 SLOAD SWAP1 PUSH2 0x100 EXP SWAP1 DIV PUSH20 0xFFFFFFFFFFFFFFFFFFFFFFFFFFFFFFFFFFFFFFFF AND PUSH20 0xFFFFFFFFFFFFFFFFFFFFFFFFFFFFFFFFFFFFFFFF AND PUSH20 0xFFFFFFFFFFFFFFFFFFFFFFFFFFFFFFFFFFFFFFFF AND DUP2 MSTORE PUSH1 0x20 ADD PUSH1 0x2 DUP3 ADD PUSH1 0x0 SWAP1 SLOAD SWAP1 PUSH2 0x100 EXP SWAP1 DIV PUSH20 0xFFFFFFFFFFFFFFFFFFFFFFFFFFFFFFFFFFFFFFFF AND PUSH20 0xFFFFFFFFFFFFFFFFFFFFFFFFFFFFFFFFFFFFFFFF AND PUSH20 0xFFFFFFFFFFFFFFFFFFFFFFFFFFFFFFFFFFFFFFFF AND DUP2 MSTORE PUSH1 0x20 ADD PUSH1 0x3 DUP3 ADD DUP1 SLOAD PUSH2 0x174F SWAP1 PUSH2 0x2E61 JUMP JUMPDEST DUP1 PUSH1 0x1F ADD PUSH1 0x20 DUP1 SWAP2 DIV MUL PUSH1 0x20 ADD PUSH1 0x40 MLOAD SWAP1 DUP2 ADD PUSH1 0x40 MSTORE DUP1 SWAP3 SWAP2 SWAP1 DUP2 DUP2 MSTORE PUSH1 0x20 ADD DUP3 DUP1 SLOAD PUSH2 0x177B SWAP1 PUSH2 0x2E61 JUMP JUMPDEST DUP1 ISZERO PUSH2 0x17C8 JUMPI DUP1 PUSH1 0x1F LT PUSH2 0x179D JUMPI PUSH2 0x100 DUP1 DUP4 SLOAD DIV MUL DUP4 MSTORE SWAP2 PUSH1 0x20 ADD SWAP2 PUSH2 0x17C8 JUMP JUMPDEST DUP3 ADD SWAP2 SWAP1 PUSH1 0x0 MSTORE PUSH1 0x20 PUSH1 0x0 KECCAK256 SWAP1 JUMPDEST DUP2 SLOAD DUP2 MSTORE SWAP1 PUSH1 0x1 ADD SWAP1 PUSH1 0x20 ADD DUP1 DUP4 GT PUSH2 0x17AB JUMPI DUP3 SWAP1 SUB PUSH1 0x1F AND DUP3 ADD SWAP2 JUMPDEST POP POP POP POP POP DUP2 MSTORE PUSH1 0x20 ADD PUSH1 0x4 DUP3 ADD DUP1 SLOAD PUSH2 0x17E1 SWAP1 PUSH2 0x2E61 JUMP JUMPDEST DUP1 PUSH1 0x1F ADD PUSH1 0x20 DUP1 SWAP2 DIV MUL PUSH1 0x20 ADD PUSH1 0x40 MLOAD SWAP1 DUP2 ADD PUSH1 0x40 MSTORE DUP1 SWAP3 SWAP2 SWAP1 DUP2 DUP2 MSTORE PUSH1 0x20 ADD DUP3 DUP1 SLOAD PUSH2 0x180D SWAP1 PUSH2 0x2E61 JUMP JUMPDEST DUP1 ISZERO PUSH2 0x185A JUMPI DUP1 PUSH1 0x1F LT PUSH2 0x182F JUMPI PUSH2 0x100 DUP1 DUP4 SLOAD DIV MUL DUP4 MSTORE SWAP2 PUSH1 0x20 ADD SWAP2 PUSH2 0x185A JUMP JUMPDEST DUP3 ADD SWAP2 SWAP1 PUSH1 0x0 MSTORE PUSH1 0x20 PUSH1 0x0 KECCAK256 SWAP1 JUMPDEST DUP2 SLOAD DUP2 MSTORE SWAP1 PUSH1 0x1 ADD SWAP1 PUSH1 0x20 ADD DUP1 DUP4 GT PUSH2 0x183D JUMPI DUP3 SWAP1 SUB PUSH1 0x1F AND DUP3 ADD SWAP2 JUMPDEST POP POP POP POP POP DUP2 MSTORE PUSH1 0x20 ADD PUSH1 0x5 DUP3 ADD PUSH1 0x0 SWAP1 SLOAD SWAP1 PUSH2 0x100 EXP SWAP1 DIV PUSH1 0xFF AND PUSH1 0xFF AND PUSH1 0xFF AND DUP2 MSTORE PUSH1 0x20 ADD PUSH1 0x5 DUP3 ADD PUSH1 0x1 SWAP1 SLOAD SWAP1 PUSH2 0x100 EXP SWAP1 DIV PUSH1 0xFF AND PUSH1 0xFF AND PUSH1 0xFF AND DUP2 MSTORE POP POP SWAP1 POP PUSH2 0x18BC DUP2 PUSH1 0x80 ADD MLOAD PUSH1 0x40 MLOAD DUP1 PUSH1 0x20 ADD PUSH1 0x40 MSTORE DUP1 PUSH1 0x0 DUP2 MSTORE POP PUSH2 0x2185 JUMP JUMPDEST PUSH2 0x18FB JUMPI PUSH1 0x40 MLOAD PUSH32 0x8C379A000000000000000000000000000000000000000000000000000000000 DUP2 MSTORE PUSH1 0x4 ADD PUSH2 0x18F2 SWAP1 PUSH2 0x2BDD JUMP JUMPDEST PUSH1 0x40 MLOAD DUP1 SWAP2 SUB SWAP1 REVERT JUMPDEST CALLER PUSH20 0xFFFFFFFFFFFFFFFFFFFFFFFFFFFFFFFFFFFFFFFF AND DUP2 PUSH1 0x40 ADD MLOAD PUSH20 0xFFFFFFFFFFFFFFFFFFFFFFFFFFFFFFFFFFFFFFFF AND EQ PUSH2 0x196D JUMPI PUSH1 0x40 MLOAD PUSH32 0x8C379A000000000000000000000000000000000000000000000000000000000 DUP2 MSTORE PUSH1 0x4 ADD PUSH2 0x1964 SWAP1 PUSH2 0x2BBD JUMP JUMPDEST PUSH1 0x40 MLOAD DUP1 SWAP2 SUB SWAP1 REVERT JUMPDEST DUP2 PUSH1 0x1 DUP5 DUP2 SLOAD DUP2 LT PUSH2 0x1982 JUMPI PUSH2 0x1981 PUSH2 0x2F6B JUMP JUMPDEST JUMPDEST SWAP1 PUSH1 0x0 MSTORE PUSH1 0x20 PUSH1 0x0 KECCAK256 SWAP1 PUSH1 0x6 MUL ADD PUSH1 0x4 ADD SWAP1 DUP1 MLOAD SWAP1 PUSH1 0x20 ADD SWAP1 PUSH2 0x19A6 SWAP3 SWAP2 SWAP1 PUSH2 0x233D JUMP JUMPDEST POP POP POP POP JUMP JUMPDEST PUSH2 0x19B4 PUSH2 0x2107 JUMP JUMPDEST DUP2 PUSH2 0x1A7B PUSH1 0x1 DUP3 DUP2 SLOAD DUP2 LT PUSH2 0x19CC JUMPI PUSH2 0x19CB PUSH2 0x2F6B JUMP JUMPDEST JUMPDEST SWAP1 PUSH1 0x0 MSTORE PUSH1 0x20 PUSH1 0x0 KECCAK256 SWAP1 PUSH1 0x6 MUL ADD PUSH1 0x3 ADD DUP1 SLOAD PUSH2 0x19E8 SWAP1 PUSH2 0x2E61 JUMP JUMPDEST DUP1 PUSH1 0x1F ADD PUSH1 0x20 DUP1 SWAP2 DIV MUL PUSH1 0x20 ADD PUSH1 0x40 MLOAD SWAP1 DUP2 ADD PUSH1 0x40 MSTORE DUP1 SWAP3 SWAP2 SWAP1 DUP2 DUP2 MSTORE PUSH1 0x20 ADD DUP3 DUP1 SLOAD PUSH2 0x1A14 SWAP1 PUSH2 0x2E61 JUMP JUMPDEST DUP1 ISZERO PUSH2 0x1A61 JUMPI DUP1 PUSH1 0x1F LT PUSH2 0x1A36 JUMPI PUSH2 0x100 DUP1 DUP4 SLOAD DIV MUL DUP4 MSTORE SWAP2 PUSH1 0x20 ADD SWAP2 PUSH2 0x1A61 JUMP JUMPDEST DUP3 ADD SWAP2 SWAP1 PUSH1 0x0 MSTORE PUSH1 0x20 PUSH1 0x0 KECCAK256 SWAP1 JUMPDEST DUP2 SLOAD DUP2 MSTORE SWAP1 PUSH1 0x1 ADD SWAP1 PUSH1 0x20 ADD DUP1 DUP4 GT PUSH2 0x1A44 JUMPI DUP3 SWAP1 SUB PUSH1 0x1F AND DUP3 ADD SWAP2 JUMPDEST POP POP POP POP POP PUSH1 0x40 MLOAD DUP1 PUSH1 0x20 ADD PUSH1 0x40 MSTORE DUP1 PUSH1 0x0 DUP2 MSTORE POP PUSH2 0x2185 JUMP JUMPDEST ISZERO PUSH2 0x1ABB JUMPI PUSH1 0x40 MLOAD PUSH32 0x8C379A000000000000000000000000000000000000000000000000000000000 DUP2 MSTORE PUSH1 0x4 ADD PUSH2 0x1AB2 SWAP1 PUSH2 0x2B7D JUMP JUMPDEST PUSH1 0x40 MLOAD DUP1 SWAP2 SUB SWAP1 REVERT JUMPDEST PUSH2 0x1B81 PUSH1 0x1 DUP3 DUP2 SLOAD DUP2 LT PUSH2 0x1AD2 JUMPI PUSH2 0x1AD1 PUSH2 0x2F6B JUMP JUMPDEST JUMPDEST SWAP1 PUSH1 0x0 MSTORE PUSH1 0x20 PUSH1 0x0 KECCAK256 SWAP1 PUSH1 0x6 MUL ADD PUSH1 0x4 ADD DUP1 SLOAD PUSH2 0x1AEE SWAP1 PUSH2 0x2E61 JUMP JUMPDEST DUP1 PUSH1 0x1F ADD PUSH1 0x20 DUP1 SWAP2 DIV MUL PUSH1 0x20 ADD PUSH1 0x40 MLOAD SWAP1 DUP2 ADD PUSH1 0x40 MSTORE DUP1 SWAP3 SWAP2 SWAP1 DUP2 DUP2 MSTORE PUSH1 0x20 ADD DUP3 DUP1 SLOAD PUSH2 0x1B1A SWAP1 PUSH2 0x2E61 JUMP JUMPDEST DUP1 ISZERO PUSH2 0x1B67 JUMPI DUP1 PUSH1 0x1F LT PUSH2 0x1B3C JUMPI PUSH2 0x100 DUP1 DUP4 SLOAD DIV MUL DUP4 MSTORE SWAP2 PUSH1 0x20 ADD SWAP2 PUSH2 0x1B67 JUMP JUMPDEST DUP3 ADD SWAP2 SWAP1 PUSH1 0x0 MSTORE PUSH1 0x20 PUSH1 0x0 KECCAK256 SWAP1 JUMPDEST DUP2 SLOAD DUP2 MSTORE SWAP1 PUSH1 0x1 ADD SWAP1 PUSH1 0x20 ADD DUP1 DUP4 GT PUSH2 0x1B4A JUMPI DUP3 SWAP1 SUB PUSH1 0x1F AND DUP3 ADD SWAP2 JUMPDEST POP POP POP POP POP PUSH1 0x40 MLOAD DUP1 PUSH1 0x20 ADD PUSH1 0x40 MSTORE DUP1 PUSH1 0x0 DUP2 MSTORE POP PUSH2 0x2185 JUMP JUMPDEST ISZERO PUSH2 0x1BC1 JUMPI PUSH1 0x40 MLOAD PUSH32 0x8C379A000000000000000000000000000000000000000000000000000000000 DUP2 MSTORE PUSH1 0x4 ADD PUSH2 0x1BB8 SWAP1 PUSH2 0x2B7D JUMP JUMPDEST PUSH1 0x40 MLOAD DUP1 SWAP2 SUB SWAP1 REVERT JUMPDEST PUSH2 0x1BCD DUP4 DUP4 PUSH1 0x0 PUSH2 0xB19 JUMP JUMPDEST POP POP POP JUMP JUMPDEST PUSH1 0x60 PUSH1 0x64 DUP3 LT PUSH2 0x1C17 JUMPI PUSH1 0x40 MLOAD PUSH32 0x8C379A000000000000000000000000000000000000000000000000000000000 DUP2 MSTORE PUSH1 0x4 ADD PUSH2 0x1C0E SWAP1 PUSH2 0x2B5D JUMP JUMPDEST PUSH1 0x40 MLOAD DUP1 SWAP2 SUB SWAP1 REVERT JUMPDEST PUSH1 0x0 DUP1 PUSH1 0x0 SWAP1 POP JUMPDEST PUSH1 0x1 DUP1 SLOAD SWAP1 POP DUP2 LT ISZERO PUSH2 0x1CC7 JUMPI DUP5 PUSH20 0xFFFFFFFFFFFFFFFFFFFFFFFFFFFFFFFFFFFFFFFF AND PUSH1 0x1 DUP3 DUP2 SLOAD DUP2 LT PUSH2 0x1C57 JUMPI PUSH2 0x1C56 PUSH2 0x2F6B JUMP JUMPDEST JUMPDEST SWAP1 PUSH1 0x0 MSTORE PUSH1 0x20 PUSH1 0x0 KECCAK256 SWAP1 PUSH1 0x6 MUL ADD PUSH1 0x2 ADD PUSH1 0x0 SWAP1 SLOAD SWAP1 PUSH2 0x100 EXP SWAP1 DIV PUSH20 0xFFFFFFFFFFFFFFFFFFFFFFFFFFFFFFFFFFFFFFFF AND PUSH20 0xFFFFFFFFFFFFFFFFFFFFFFFFFFFFFFFFFFFFFFFF AND EQ ISZERO PUSH2 0x1CB4 JUMPI DUP2 DUP1 PUSH2 0x1CB0 SWAP1 PUSH2 0x2EC4 JUMP JUMPDEST SWAP3 POP POP JUMPDEST DUP1 DUP1 PUSH2 0x1CBF SWAP1 PUSH2 0x2EC4 JUMP JUMPDEST SWAP2 POP POP PUSH2 0x1C1F JUMP JUMPDEST POP PUSH1 0x0 DUP4 DUP3 LT PUSH2 0x1CD7 JUMPI DUP4 PUSH2 0x1CD9 JUMP JUMPDEST DUP2 JUMPDEST SWAP1 POP PUSH1 0x0 DUP3 PUSH8 0xFFFFFFFFFFFFFFFF DUP2 GT ISZERO PUSH2 0x1CF7 JUMPI PUSH2 0x1CF6 PUSH2 0x2F9A JUMP JUMPDEST JUMPDEST PUSH1 0x40 MLOAD SWAP1 DUP1 DUP3 MSTORE DUP1 PUSH1 0x20 MUL PUSH1 0x20 ADD DUP3 ADD PUSH1 0x40 MSTORE DUP1 ISZERO PUSH2 0x1D30 JUMPI DUP2 PUSH1 0x20 ADD JUMPDEST PUSH2 0x1D1D PUSH2 0x22CE JUMP JUMPDEST DUP2 MSTORE PUSH1 0x20 ADD SWAP1 PUSH1 0x1 SWAP1 SUB SWAP1 DUP2 PUSH2 0x1D15 JUMPI SWAP1 POP JUMPDEST POP SWAP1 POP PUSH1 0x0 DUP1 PUSH1 0x1 DUP1 SLOAD SWAP1 POP SWAP1 POP PUSH1 0x0 DUP2 SWAP1 POP JUMPDEST PUSH1 0x0 DUP2 GT ISZERO PUSH2 0x2073 JUMPI DUP9 PUSH20 0xFFFFFFFFFFFFFFFFFFFFFFFFFFFFFFFFFFFFFFFF AND PUSH1 0x1 DUP1 DUP4 PUSH2 0x1D72 SWAP2 SWAP1 PUSH2 0x2D6C JUMP JUMPDEST DUP2 SLOAD DUP2 LT PUSH2 0x1D83 JUMPI PUSH2 0x1D82 PUSH2 0x2F6B JUMP JUMPDEST JUMPDEST SWAP1 PUSH1 0x0 MSTORE PUSH1 0x20 PUSH1 0x0 KECCAK256 SWAP1 PUSH1 0x6 MUL ADD PUSH1 0x2 ADD PUSH1 0x0 SWAP1 SLOAD SWAP1 PUSH2 0x100 EXP SWAP1 DIV PUSH20 0xFFFFFFFFFFFFFFFFFFFFFFFFFFFFFFFFFFFFFFFF AND PUSH20 0xFFFFFFFFFFFFFFFFFFFFFFFFFFFFFFFFFFFFFFFF AND EQ ISZERO PUSH2 0x2060 JUMPI PUSH1 0x1 DUP1 DUP3 PUSH2 0x1DDF SWAP2 SWAP1 PUSH2 0x2D6C JUMP JUMPDEST DUP2 SLOAD DUP2 LT PUSH2 0x1DF0 JUMPI PUSH2 0x1DEF PUSH2 0x2F6B JUMP JUMPDEST JUMPDEST SWAP1 PUSH1 0x0 MSTORE PUSH1 0x20 PUSH1 0x0 KECCAK256 SWAP1 PUSH1 0x6 MUL ADD PUSH1 0x40 MLOAD DUP1 PUSH1 0xE0 ADD PUSH1 0x40 MSTORE SWAP1 DUP2 PUSH1 0x0 DUP3 ADD SLOAD DUP2 MSTORE PUSH1 0x20 ADD PUSH1 0x1 DUP3 ADD PUSH1 0x0 SWAP1 SLOAD SWAP1 PUSH2 0x100 EXP SWAP1 DIV PUSH20 0xFFFFFFFFFFFFFFFFFFFFFFFFFFFFFFFFFFFFFFFF AND PUSH20 0xFFFFFFFFFFFFFFFFFFFFFFFFFFFFFFFFFFFFFFFF AND PUSH20 0xFFFFFFFFFFFFFFFFFFFFFFFFFFFFFFFFFFFFFFFF AND DUP2 MSTORE PUSH1 0x20 ADD PUSH1 0x2 DUP3 ADD PUSH1 0x0 SWAP1 SLOAD SWAP1 PUSH2 0x100 EXP SWAP1 DIV PUSH20 0xFFFFFFFFFFFFFFFFFFFFFFFFFFFFFFFFFFFFFFFF AND PUSH20 0xFFFFFFFFFFFFFFFFFFFFFFFFFFFFFFFFFFFFFFFF AND PUSH20 0xFFFFFFFFFFFFFFFFFFFFFFFFFFFFFFFFFFFFFFFF AND DUP2 MSTORE PUSH1 0x20 ADD PUSH1 0x3 DUP3 ADD DUP1 SLOAD PUSH2 0x1ECF SWAP1 PUSH2 0x2E61 JUMP JUMPDEST DUP1 PUSH1 0x1F ADD PUSH1 0x20 DUP1 SWAP2 DIV MUL PUSH1 0x20 ADD PUSH1 0x40 MLOAD SWAP1 DUP2 ADD PUSH1 0x40 MSTORE DUP1 SWAP3 SWAP2 SWAP1 DUP2 DUP2 MSTORE PUSH1 0x20 ADD DUP3 DUP1 SLOAD PUSH2 0x1EFB SWAP1 PUSH2 0x2E61 JUMP JUMPDEST DUP1 ISZERO PUSH2 0x1F48 JUMPI DUP1 PUSH1 0x1F LT PUSH2 0x1F1D JUMPI PUSH2 0x100 DUP1 DUP4 SLOAD DIV MUL DUP4 MSTORE SWAP2 PUSH1 0x20 ADD SWAP2 PUSH2 0x1F48 JUMP JUMPDEST DUP3 ADD SWAP2 SWAP1 PUSH1 0x0 MSTORE PUSH1 0x20 PUSH1 0x0 KECCAK256 SWAP1 JUMPDEST DUP2 SLOAD DUP2 MSTORE SWAP1 PUSH1 0x1 ADD SWAP1 PUSH1 0x20 ADD DUP1 DUP4 GT PUSH2 0x1F2B JUMPI DUP3 SWAP1 SUB PUSH1 0x1F AND DUP3 ADD SWAP2 JUMPDEST POP POP POP POP POP DUP2 MSTORE PUSH1 0x20 ADD PUSH1 0x4 DUP3 ADD DUP1 SLOAD PUSH2 0x1F61 SWAP1 PUSH2 0x2E61 JUMP JUMPDEST DUP1 PUSH1 0x1F ADD PUSH1 0x20 DUP1 SWAP2 DIV MUL PUSH1 0x20 ADD PUSH1 0x40 MLOAD SWAP1 DUP2 ADD PUSH1 0x40 MSTORE DUP1 SWAP3 SWAP2 SWAP1 DUP2 DUP2 MSTORE PUSH1 0x20 ADD DUP3 DUP1 SLOAD PUSH2 0x1F8D SWAP1 PUSH2 0x2E61 JUMP JUMPDEST DUP1 ISZERO PUSH2 0x1FDA JUMPI DUP1 PUSH1 0x1F LT PUSH2 0x1FAF JUMPI PUSH2 0x100 DUP1 DUP4 SLOAD DIV MUL DUP4 MSTORE SWAP2 PUSH1 0x20 ADD SWAP2 PUSH2 0x1FDA JUMP JUMPDEST DUP3 ADD SWAP2 SWAP1 PUSH1 0x0 MSTORE PUSH1 0x20 PUSH1 0x0 KECCAK256 SWAP1 JUMPDEST DUP2 SLOAD DUP2 MSTORE SWAP1 PUSH1 0x1 ADD SWAP1 PUSH1 0x20 ADD DUP1 DUP4 GT PUSH2 0x1FBD JUMPI DUP3 SWAP1 SUB PUSH1 0x1F AND DUP3 ADD SWAP2 JUMPDEST POP POP POP POP POP DUP2 MSTORE PUSH1 0x20 ADD PUSH1 0x5 DUP3 ADD PUSH1 0x0 SWAP1 SLOAD SWAP1 PUSH2 0x100 EXP SWAP1 DIV PUSH1 0xFF AND PUSH1 0xFF AND PUSH1 0xFF AND DUP2 MSTORE PUSH1 0x20 ADD PUSH1 0x5 DUP3 ADD PUSH1 0x1 SWAP1 SLOAD SWAP1 PUSH2 0x100 EXP SWAP1 DIV PUSH1 0xFF AND PUSH1 0xFF AND PUSH1 0xFF AND DUP2 MSTORE POP POP DUP5 DUP5 DUP2 MLOAD DUP2 LT PUSH2 0x2030 JUMPI PUSH2 0x202F PUSH2 0x2F6B JUMP JUMPDEST JUMPDEST PUSH1 0x20 MUL PUSH1 0x20 ADD ADD DUP2 SWAP1 MSTORE POP DUP3 DUP1 PUSH2 0x2046 SWAP1 PUSH2 0x2EC4 JUMP JUMPDEST SWAP4 POP POP DUP5 DUP4 EQ ISZERO PUSH2 0x205F JUMPI DUP4 SWAP7 POP POP POP POP POP POP POP PUSH2 0x207D JUMP JUMPDEST JUMPDEST DUP1 DUP1 PUSH2 0x206B SWAP1 PUSH2 0x2E37 JUMP JUMPDEST SWAP2 POP POP PUSH2 0x1D44 JUMP JUMPDEST POP DUP3 SWAP6 POP POP POP POP POP POP JUMPDEST SWAP3 SWAP2 POP POP JUMP JUMPDEST PUSH2 0x208B PUSH2 0x2107 JUMP JUMPDEST PUSH1 0x0 PUSH20 0xFFFFFFFFFFFFFFFFFFFFFFFFFFFFFFFFFFFFFFFF AND DUP2 PUSH20 0xFFFFFFFFFFFFFFFFFFFFFFFFFFFFFFFFFFFFFFFF AND EQ ISZERO PUSH2 0x20FB JUMPI PUSH1 0x40 MLOAD PUSH32 0x8C379A000000000000000000000000000000000000000000000000000000000 DUP2 MSTORE PUSH1 0x4 ADD PUSH2 0x20F2 SWAP1 PUSH2 0x2B1D JUMP JUMPDEST PUSH1 0x40 MLOAD DUP1 SWAP2 SUB SWAP1 REVERT JUMPDEST PUSH2 0x2104 DUP2 PUSH2 0x21DE JUMP JUMPDEST POP JUMP JUMPDEST PUSH2 0x210F PUSH2 0x22A2 JUMP JUMPDEST PUSH20 0xFFFFFFFFFFFFFFFFFFFFFFFFFFFFFFFFFFFFFFFF AND PUSH2 0x212D PUSH2 0x10B6 JUMP JUMPDEST PUSH20 0xFFFFFFFFFFFFFFFFFFFFFFFFFFFFFFFFFFFFFFFF AND EQ PUSH2 0x2183 JUMPI PUSH1 0x40 MLOAD PUSH32 0x8C379A000000000000000000000000000000000000000000000000000000000 DUP2 MSTORE PUSH1 0x4 ADD PUSH2 0x217A SWAP1 PUSH2 0x2B9D JUMP JUMPDEST PUSH1 0x40 MLOAD DUP1 SWAP2 SUB SWAP1 REVERT JUMPDEST JUMP JUMPDEST PUSH1 0x0 DUP2 PUSH1 0x40 MLOAD PUSH1 0x20 ADD PUSH2 0x2198 SWAP2 SWAP1 PUSH2 0x2AC9 JUMP JUMPDEST PUSH1 0x40 MLOAD PUSH1 0x20 DUP2 DUP4 SUB SUB DUP2 MSTORE SWAP1 PUSH1 0x40 MSTORE DUP1 MLOAD SWAP1 PUSH1 0x20 ADD KECCAK256 DUP4 PUSH1 0x40 MLOAD PUSH1 0x20 ADD PUSH2 0x21BF SWAP2 SWAP1 PUSH2 0x2AC9 JUMP JUMPDEST PUSH1 0x40 MLOAD PUSH1 0x20 DUP2 DUP4 SUB SUB DUP2 MSTORE SWAP1 PUSH1 0x40 MSTORE DUP1 MLOAD SWAP1 PUSH1 0x20 ADD KECCAK256 EQ SWAP1 POP SWAP3 SWAP2 POP POP JUMP JUMPDEST PUSH1 0x0 DUP1 PUSH1 0x0 SWAP1 SLOAD SWAP1 PUSH2 0x100 EXP SWAP1 DIV PUSH20 0xFFFFFFFFFFFFFFFFFFFFFFFFFFFFFFFFFFFFFFFF AND SWAP1 POP DUP2 PUSH1 0x0 DUP1 PUSH2 0x100 EXP DUP2 SLOAD DUP2 PUSH20 0xFFFFFFFFFFFFFFFFFFFFFFFFFFFFFFFFFFFFFFFF MUL NOT AND SWAP1 DUP4 PUSH20 0xFFFFFFFFFFFFFFFFFFFFFFFFFFFFFFFFFFFFFFFF AND MUL OR SWAP1 SSTORE POP DUP2 PUSH20 0xFFFFFFFFFFFFFFFFFFFFFFFFFFFFFFFFFFFFFFFF AND DUP2 PUSH20 0xFFFFFFFFFFFFFFFFFFFFFFFFFFFFFFFFFFFFFFFF AND PUSH32 0x8BE0079C531659141344CD1FD0A4F28419497F9722A3DAAFE3B4186F6B6457E0 PUSH1 0x40 MLOAD PUSH1 0x40 MLOAD DUP1 SWAP2 SUB SWAP1 LOG3 POP POP JUMP JUMPDEST PUSH1 0x0 CALLER SWAP1 POP SWAP1 JUMP JUMPDEST POP DUP1 SLOAD PUSH1 0x0 DUP3 SSTORE PUSH1 0x6 MUL SWAP1 PUSH1 0x0 MSTORE PUSH1 0x20 PUSH1 0x0 KECCAK256 SWAP1 DUP2 ADD SWAP1 PUSH2 0x22CB SWAP2 SWAP1 PUSH2 0x23C3 JUMP JUMPDEST POP JUMP JUMPDEST PUSH1 0x40 MLOAD DUP1 PUSH1 0xE0 ADD PUSH1 0x40 MSTORE DUP1 PUSH1 0x0 DUP2 MSTORE PUSH1 0x20 ADD PUSH1 0x0 PUSH20 0xFFFFFFFFFFFFFFFFFFFFFFFFFFFFFFFFFFFFFFFF AND DUP2 MSTORE PUSH1 0x20 ADD PUSH1 0x0 PUSH20 0xFFFFFFFFFFFFFFFFFFFFFFFFFFFFFFFFFFFFFFFF AND DUP2 MSTORE PUSH1 0x20 ADD PUSH1 0x60 DUP2 MSTORE PUSH1 0x20 ADD PUSH1 0x60 DUP2 MSTORE PUSH1 0x20 ADD PUSH1 0x0 PUSH1 0xFF AND DUP2 MSTORE PUSH1 0x20 ADD PUSH1 0x0 PUSH1 0xFF AND DUP2 MSTORE POP SWAP1 JUMP JUMPDEST DUP3 DUP1 SLOAD PUSH2 0x2349 SWAP1 PUSH2 0x2E61 JUMP JUMPDEST SWAP1 PUSH1 0x0 MSTORE PUSH1 0x20 PUSH1 0x0 KECCAK256 SWAP1 PUSH1 0x1F ADD PUSH1 0x20 SWAP1 DIV DUP2 ADD SWAP3 DUP3 PUSH2 0x236B JUMPI PUSH1 0x0 DUP6 SSTORE PUSH2 0x23B2 JUMP JUMPDEST DUP3 PUSH1 0x1F LT PUSH2 0x2384 JUMPI DUP1 MLOAD PUSH1 0xFF NOT AND DUP4 DUP1 ADD OR DUP6 SSTORE PUSH2 0x23B2 JUMP JUMPDEST DUP3 DUP1 ADD PUSH1 0x1 ADD DUP6 SSTORE DUP3 ISZERO PUSH2 0x23B2 JUMPI SWAP2 DUP3 ADD JUMPDEST DUP3 DUP2 GT ISZERO PUSH2 0x23B1 JUMPI DUP3 MLOAD DUP3 SSTORE SWAP2 PUSH1 0x20 ADD SWAP2 SWAP1 PUSH1 0x1 ADD SWAP1 PUSH2 0x2396 JUMP JUMPDEST JUMPDEST POP SWAP1 POP PUSH2 0x23BF SWAP2 SWAP1 PUSH2 0x2478 JUMP JUMPDEST POP SWAP1 JUMP JUMPDEST JUMPDEST DUP1 DUP3 GT ISZERO PUSH2 0x2474 JUMPI PUSH1 0x0 DUP1 DUP3 ADD PUSH1 0x0 SWAP1 SSTORE PUSH1 0x1 DUP3 ADD PUSH1 0x0 PUSH2 0x100 EXP DUP2 SLOAD SWAP1 PUSH20 0xFFFFFFFFFFFFFFFFFFFFFFFFFFFFFFFFFFFFFFFF MUL NOT AND SWAP1 SSTORE PUSH1 0x2 DUP3 ADD PUSH1 0x0 PUSH2 0x100 EXP DUP2 SLOAD SWAP1 PUSH20 0xFFFFFFFFFFFFFFFFFFFFFFFFFFFFFFFFFFFFFFFF MUL NOT AND SWAP1 SSTORE PUSH1 0x3 DUP3 ADD PUSH1 0x0 PUSH2 0x2433 SWAP2 SWAP1 PUSH2 0x2495 JUMP JUMPDEST PUSH1 0x4 DUP3 ADD PUSH1 0x0 PUSH2 0x2443 SWAP2 SWAP1 PUSH2 0x2495 JUMP JUMPDEST PUSH1 0x5 DUP3 ADD PUSH1 0x0 PUSH2 0x100 EXP DUP2 SLOAD SWAP1 PUSH1 0xFF MUL NOT AND SWAP1 SSTORE PUSH1 0x5 DUP3 ADD PUSH1 0x1 PUSH2 0x100 EXP DUP2 SLOAD SWAP1 PUSH1 0xFF MUL NOT AND SWAP1 SSTORE POP PUSH1 0x6 ADD PUSH2 0x23C4 JUMP JUMPDEST POP SWAP1 JUMP JUMPDEST JUMPDEST DUP1 DUP3 GT ISZERO PUSH2 0x2491 JUMPI PUSH1 0x0 DUP2 PUSH1 0x0 SWAP1 SSTORE POP PUSH1 0x1 ADD PUSH2 0x2479 JUMP JUMPDEST POP SWAP1 JUMP JUMPDEST POP DUP1 SLOAD PUSH2 0x24A1 SWAP1 PUSH2 0x2E61 JUMP JUMPDEST PUSH1 0x0 DUP3 SSTORE DUP1 PUSH1 0x1F LT PUSH2 0x24B3 JUMPI POP PUSH2 0x24D2 JUMP JUMPDEST PUSH1 0x1F ADD PUSH1 0x20 SWAP1 DIV SWAP1 PUSH1 0x0 MSTORE PUSH1 0x20 PUSH1 0x0 KECCAK256 SWAP1 DUP2 ADD SWAP1 PUSH2 0x24D1 SWAP2 SWAP1 PUSH2 0x2478 JUMP JUMPDEST JUMPDEST POP JUMP JUMPDEST PUSH1 0x0 PUSH2 0x24E8 PUSH2 0x24E3 DUP5 PUSH2 0x2C74 JUMP JUMPDEST PUSH2 0x2C4F JUMP JUMPDEST SWAP1 POP DUP3 DUP2 MSTORE PUSH1 0x20 DUP2 ADD DUP5 DUP5 DUP5 ADD GT ISZERO PUSH2 0x2504 JUMPI PUSH2 0x2503 PUSH2 0x2FCE JUMP JUMPDEST JUMPDEST PUSH2 0x250F DUP5 DUP3 DUP6 PUSH2 0x2DF5 JUMP JUMPDEST POP SWAP4 SWAP3 POP POP POP JUMP JUMPDEST PUSH1 0x0 DUP2 CALLDATALOAD SWAP1 POP PUSH2 0x2526 DUP2 PUSH2 0x31F1 JUMP JUMPDEST SWAP3 SWAP2 POP POP JUMP JUMPDEST PUSH1 0x0 DUP2 CALLDATALOAD SWAP1 POP PUSH2 0x253B DUP2 PUSH2 0x3208 JUMP JUMPDEST SWAP3 SWAP2 POP POP JUMP JUMPDEST PUSH1 0x0 DUP3 PUSH1 0x1F DUP4 ADD SLT PUSH2 0x2556 JUMPI PUSH2 0x2555 PUSH2 0x2FC9 JUMP JUMPDEST JUMPDEST DUP2 CALLDATALOAD PUSH2 0x2566 DUP5 DUP3 PUSH1 0x20 DUP7 ADD PUSH2 0x24D5 JUMP JUMPDEST SWAP2 POP POP SWAP3 SWAP2 POP POP JUMP JUMPDEST PUSH1 0x0 DUP2 CALLDATALOAD SWAP1 POP PUSH2 0x257E DUP2 PUSH2 0x321F JUMP JUMPDEST SWAP3 SWAP2 POP POP JUMP JUMPDEST PUSH1 0x0 DUP2 CALLDATALOAD SWAP1 POP PUSH2 0x2593 DUP2 PUSH2 0x3236 JUMP JUMPDEST SWAP3 SWAP2 POP POP JUMP JUMPDEST PUSH1 0x0 PUSH1 0x20 DUP3 DUP5 SUB SLT ISZERO PUSH2 0x25AF JUMPI PUSH2 0x25AE PUSH2 0x2FD8 JUMP JUMPDEST JUMPDEST PUSH1 0x0 PUSH2 0x25BD DUP5 DUP3 DUP6 ADD PUSH2 0x2517 JUMP JUMPDEST SWAP2 POP POP SWAP3 SWAP2 POP POP JUMP JUMPDEST PUSH1 0x0 DUP1 PUSH1 0x0 PUSH1 0x60 DUP5 DUP7 SUB SLT ISZERO PUSH2 0x25DF JUMPI PUSH2 0x25DE PUSH2 0x2FD8 JUMP JUMPDEST JUMPDEST PUSH1 0x0 PUSH2 0x25ED DUP7 DUP3 DUP8 ADD PUSH2 0x2517 JUMP JUMPDEST SWAP4 POP POP PUSH1 0x20 PUSH2 0x25FE DUP7 DUP3 DUP8 ADD PUSH2 0x2517 JUMP JUMPDEST SWAP3 POP POP PUSH1 0x40 DUP5 ADD CALLDATALOAD PUSH8 0xFFFFFFFFFFFFFFFF DUP2 GT ISZERO PUSH2 0x261F JUMPI PUSH2 0x261E PUSH2 0x2FD3 JUMP JUMPDEST JUMPDEST PUSH2 0x262B DUP7 DUP3 DUP8 ADD PUSH2 0x2541 JUMP JUMPDEST SWAP2 POP POP SWAP3 POP SWAP3 POP SWAP3 JUMP JUMPDEST PUSH1 0x0 DUP1 PUSH1 0x40 DUP4 DUP6 SUB SLT ISZERO PUSH2 0x264C JUMPI PUSH2 0x264B PUSH2 0x2FD8 JUMP JUMPDEST JUMPDEST PUSH1 0x0 PUSH2 0x265A DUP6 DUP3 DUP7 ADD PUSH2 0x2517 JUMP JUMPDEST SWAP3 POP POP PUSH1 0x20 PUSH2 0x266B DUP6 DUP3 DUP7 ADD PUSH2 0x256F JUMP JUMPDEST SWAP2 POP POP SWAP3 POP SWAP3 SWAP1 POP JUMP JUMPDEST PUSH1 0x0 PUSH1 0x20 DUP3 DUP5 SUB SLT ISZERO PUSH2 0x268B JUMPI PUSH2 0x268A PUSH2 0x2FD8 JUMP JUMPDEST JUMPDEST PUSH1 0x0 PUSH2 0x2699 DUP5 DUP3 DUP6 ADD PUSH2 0x256F JUMP JUMPDEST SWAP2 POP POP SWAP3 SWAP2 POP POP JUMP JUMPDEST PUSH1 0x0 DUP1 PUSH1 0x40 DUP4 DUP6 SUB SLT ISZERO PUSH2 0x26B9 JUMPI PUSH2 0x26B8 PUSH2 0x2FD8 JUMP JUMPDEST JUMPDEST PUSH1 0x0 PUSH2 0x26C7 DUP6 DUP3 DUP7 ADD PUSH2 0x256F JUMP JUMPDEST SWAP3 POP POP PUSH1 0x20 DUP4 ADD CALLDATALOAD PUSH8 0xFFFFFFFFFFFFFFFF DUP2 GT ISZERO PUSH2 0x26E8 JUMPI PUSH2 0x26E7 PUSH2 0x2FD3 JUMP JUMPDEST JUMPDEST PUSH2 0x26F4 DUP6 DUP3 DUP7 ADD PUSH2 0x2541 JUMP JUMPDEST SWAP2 POP POP SWAP3 POP SWAP3 SWAP1 POP JUMP JUMPDEST PUSH1 0x0 DUP1 PUSH1 0x40 DUP4 DUP6 SUB SLT ISZERO PUSH2 0x2715 JUMPI PUSH2 0x2714 PUSH2 0x2FD8 JUMP JUMPDEST JUMPDEST PUSH1 0x0 PUSH2 0x2723 DUP6 DUP3 DUP7 ADD PUSH2 0x256F JUMP JUMPDEST SWAP3 POP POP PUSH1 0x20 PUSH2 0x2734 DUP6 DUP3 DUP7 ADD PUSH2 0x2584 JUMP JUMPDEST SWAP2 POP POP SWAP3 POP SWAP3 SWAP1 POP JUMP JUMPDEST PUSH1 0x0 DUP1 PUSH1 0x0 PUSH1 0x60 DUP5 DUP7 SUB SLT ISZERO PUSH2 0x2757 JUMPI PUSH2 0x2756 PUSH2 0x2FD8 JUMP JUMPDEST JUMPDEST PUSH1 0x0 PUSH2 0x2765 DUP7 DUP3 DUP8 ADD PUSH2 0x256F JUMP JUMPDEST SWAP4 POP POP PUSH1 0x20 PUSH2 0x2776 DUP7 DUP3 DUP8 ADD PUSH2 0x2584 JUMP JUMPDEST SWAP3 POP POP PUSH1 0x40 PUSH2 0x2787 DUP7 DUP3 DUP8 ADD PUSH2 0x252C JUMP JUMPDEST SWAP2 POP POP SWAP3 POP SWAP3 POP SWAP3 JUMP JUMPDEST PUSH1 0x0 DUP1 PUSH1 0x0 PUSH1 0x60 DUP5 DUP7 SUB SLT ISZERO PUSH2 0x27AA JUMPI PUSH2 0x27A9 PUSH2 0x2FD8 JUMP JUMPDEST JUMPDEST PUSH1 0x0 PUSH2 0x27B8 DUP7 DUP3 DUP8 ADD PUSH2 0x256F JUMP JUMPDEST SWAP4 POP POP PUSH1 0x20 PUSH2 0x27C9 DUP7 DUP3 DUP8 ADD PUSH2 0x2584 JUMP JUMPDEST SWAP3 POP POP PUSH1 0x40 PUSH2 0x27DA DUP7 DUP3 DUP8 ADD PUSH2 0x2584 JUMP JUMPDEST SWAP2 POP POP SWAP3 POP SWAP3 POP SWAP3 JUMP JUMPDEST PUSH1 0x0 PUSH2 0x27F0 DUP4 DUP4 PUSH2 0x29EA JUMP JUMPDEST SWAP1 POP SWAP3 SWAP2 POP POP JUMP JUMPDEST PUSH2 0x2801 DUP2 PUSH2 0x2DA0 JUMP JUMPDEST DUP3 MSTORE POP POP JUMP JUMPDEST PUSH2 0x2810 DUP2 PUSH2 0x2DA0 JUMP JUMPDEST DUP3 MSTORE POP POP JUMP JUMPDEST PUSH1 0x0 PUSH2 0x2821 DUP3 PUSH2 0x2CB5 JUMP JUMPDEST PUSH2 0x282B DUP2 DUP6 PUSH2 0x2CD8 JUMP JUMPDEST SWAP4 POP DUP4 PUSH1 0x20 DUP3 MUL DUP6 ADD PUSH2 0x283D DUP6 PUSH2 0x2CA5 JUMP JUMPDEST DUP1 PUSH1 0x0 JUMPDEST DUP6 DUP2 LT ISZERO PUSH2 0x2879 JUMPI DUP5 DUP5 SUB DUP10 MSTORE DUP2 MLOAD PUSH2 0x285A DUP6 DUP3 PUSH2 0x27E4 JUMP JUMPDEST SWAP5 POP PUSH2 0x2865 DUP4 PUSH2 0x2CCB JUMP JUMPDEST SWAP3 POP PUSH1 0x20 DUP11 ADD SWAP10 POP POP PUSH1 0x1 DUP2 ADD SWAP1 POP PUSH2 0x2841 JUMP JUMPDEST POP DUP3 SWAP8 POP DUP8 SWAP6 POP POP POP POP POP POP SWAP3 SWAP2 POP POP JUMP JUMPDEST PUSH1 0x0 PUSH2 0x2896 DUP3 PUSH2 0x2CC0 JUMP JUMPDEST PUSH2 0x28A0 DUP2 DUP6 PUSH2 0x2CE9 JUMP JUMPDEST SWAP4 POP PUSH2 0x28B0 DUP2 DUP6 PUSH1 0x20 DUP7 ADD PUSH2 0x2E04 JUMP JUMPDEST PUSH2 0x28B9 DUP2 PUSH2 0x2FDD JUMP JUMPDEST DUP5 ADD SWAP2 POP POP SWAP3 SWAP2 POP POP JUMP JUMPDEST PUSH1 0x0 PUSH2 0x28CF DUP3 PUSH2 0x2CC0 JUMP JUMPDEST PUSH2 0x28D9 DUP2 DUP6 PUSH2 0x2D0B JUMP JUMPDEST SWAP4 POP PUSH2 0x28E9 DUP2 DUP6 PUSH1 0x20 DUP7 ADD PUSH2 0x2E04 JUMP JUMPDEST DUP1 DUP5 ADD SWAP2 POP POP SWAP3 SWAP2 POP POP JUMP JUMPDEST PUSH1 0x0 PUSH2 0x2902 PUSH1 0x26 DUP4 PUSH2 0x2CFA JUMP JUMPDEST SWAP2 POP PUSH2 0x290D DUP3 PUSH2 0x2FEE JUMP JUMPDEST PUSH1 0x40 DUP3 ADD SWAP1 POP SWAP2 SWAP1 POP JUMP JUMPDEST PUSH1 0x0 PUSH2 0x2925 PUSH1 0x32 DUP4 PUSH2 0x2CFA JUMP JUMPDEST SWAP2 POP PUSH2 0x2930 DUP3 PUSH2 0x303D JUMP JUMPDEST PUSH1 0x40 DUP3 ADD SWAP1 POP SWAP2 SWAP1 POP JUMP JUMPDEST PUSH1 0x0 PUSH2 0x2948 PUSH1 0x44 DUP4 PUSH2 0x2CFA JUMP JUMPDEST SWAP2 POP PUSH2 0x2953 DUP3 PUSH2 0x308C JUMP JUMPDEST PUSH1 0x60 DUP3 ADD SWAP1 POP SWAP2 SWAP1 POP JUMP JUMPDEST PUSH1 0x0 PUSH2 0x296B PUSH1 0x16 DUP4 PUSH2 0x2CFA JUMP JUMPDEST SWAP2 POP PUSH2 0x2976 DUP3 PUSH2 0x3101 JUMP JUMPDEST PUSH1 0x20 DUP3 ADD SWAP1 POP SWAP2 SWAP1 POP JUMP JUMPDEST PUSH1 0x0 PUSH2 0x298E PUSH1 0x20 DUP4 PUSH2 0x2CFA JUMP JUMPDEST SWAP2 POP PUSH2 0x2999 DUP3 PUSH2 0x312A JUMP JUMPDEST PUSH1 0x20 DUP3 ADD SWAP1 POP SWAP2 SWAP1 POP JUMP JUMPDEST PUSH1 0x0 PUSH2 0x29B1 PUSH1 0x27 DUP4 PUSH2 0x2CFA JUMP JUMPDEST SWAP2 POP PUSH2 0x29BC DUP3 PUSH2 0x3153 JUMP JUMPDEST PUSH1 0x40 DUP3 ADD SWAP1 POP SWAP2 SWAP1 POP JUMP JUMPDEST PUSH1 0x0 PUSH2 0x29D4 PUSH1 0x3D DUP4 PUSH2 0x2CFA JUMP JUMPDEST SWAP2 POP PUSH2 0x29DF DUP3 PUSH2 0x31A2 JUMP JUMPDEST PUSH1 0x40 DUP3 ADD SWAP1 POP SWAP2 SWAP1 POP JUMP JUMPDEST PUSH1 0x0 PUSH1 0xE0 DUP4 ADD PUSH1 0x0 DUP4 ADD MLOAD PUSH2 0x2A02 PUSH1 0x0 DUP7 ADD DUP3 PUSH2 0x2A8D JUMP JUMPDEST POP PUSH1 0x20 DUP4 ADD MLOAD PUSH2 0x2A15 PUSH1 0x20 DUP7 ADD DUP3 PUSH2 0x27F8 JUMP JUMPDEST POP PUSH1 0x40 DUP4 ADD MLOAD PUSH2 0x2A28 PUSH1 0x40 DUP7 ADD DUP3 PUSH2 0x27F8 JUMP JUMPDEST POP PUSH1 0x60 DUP4 ADD MLOAD DUP5 DUP3 SUB PUSH1 0x60 DUP7 ADD MSTORE PUSH2 0x2A40 DUP3 DUP3 PUSH2 0x288B JUMP JUMPDEST SWAP2 POP POP PUSH1 0x80 DUP4 ADD MLOAD DUP5 DUP3 SUB PUSH1 0x80 DUP7 ADD MSTORE PUSH2 0x2A5A DUP3 DUP3 PUSH2 0x288B JUMP JUMPDEST SWAP2 POP POP PUSH1 0xA0 DUP4 ADD MLOAD PUSH2 0x2A6F PUSH1 0xA0 DUP7 ADD DUP3 PUSH2 0x2AAB JUMP JUMPDEST POP PUSH1 0xC0 DUP4 ADD MLOAD PUSH2 0x2A82 PUSH1 0xC0 DUP7 ADD DUP3 PUSH2 0x2AAB JUMP JUMPDEST POP DUP1 SWAP2 POP POP SWAP3 SWAP2 POP POP JUMP JUMPDEST PUSH2 0x2A96 DUP2 PUSH2 0x2DDE JUMP JUMPDEST DUP3 MSTORE POP POP JUMP JUMPDEST PUSH2 0x2AA5 DUP2 PUSH2 0x2DDE JUMP JUMPDEST DUP3 MSTORE POP POP JUMP JUMPDEST PUSH2 0x2AB4 DUP2 PUSH2 0x2DE8 JUMP JUMPDEST DUP3 MSTORE POP POP JUMP JUMPDEST PUSH2 0x2AC3 DUP2 PUSH2 0x2DE8 JUMP JUMPDEST DUP3 MSTORE POP POP JUMP JUMPDEST PUSH1 0x0 PUSH2 0x2AD5 DUP3 DUP5 PUSH2 0x28C4 JUMP JUMPDEST SWAP2 POP DUP2 SWAP1 POP SWAP3 SWAP2 POP POP JUMP JUMPDEST PUSH1 0x0 PUSH1 0x20 DUP3 ADD SWAP1 POP PUSH2 0x2AF5 PUSH1 0x0 DUP4 ADD DUP5 PUSH2 0x2807 JUMP JUMPDEST SWAP3 SWAP2 POP POP JUMP JUMPDEST PUSH1 0x0 PUSH1 0x20 DUP3 ADD SWAP1 POP DUP2 DUP2 SUB PUSH1 0x0 DUP4 ADD MSTORE PUSH2 0x2B15 DUP2 DUP5 PUSH2 0x2816 JUMP JUMPDEST SWAP1 POP SWAP3 SWAP2 POP POP JUMP JUMPDEST PUSH1 0x0 PUSH1 0x20 DUP3 ADD SWAP1 POP DUP2 DUP2 SUB PUSH1 0x0 DUP4 ADD MSTORE PUSH2 0x2B36 DUP2 PUSH2 0x28F5 JUMP JUMPDEST SWAP1 POP SWAP2 SWAP1 POP JUMP JUMPDEST PUSH1 0x0 PUSH1 0x20 DUP3 ADD SWAP1 POP DUP2 DUP2 SUB PUSH1 0x0 DUP4 ADD MSTORE PUSH2 0x2B56 DUP2 PUSH2 0x2918 JUMP JUMPDEST SWAP1 POP SWAP2 SWAP1 POP JUMP JUMPDEST PUSH1 0x0 PUSH1 0x20 DUP3 ADD SWAP1 POP DUP2 DUP2 SUB PUSH1 0x0 DUP4 ADD MSTORE PUSH2 0x2B76 DUP2 PUSH2 0x293B JUMP JUMPDEST SWAP1 POP SWAP2 SWAP1 POP JUMP JUMPDEST PUSH1 0x0 PUSH1 0x20 DUP3 ADD SWAP1 POP DUP2 DUP2 SUB PUSH1 0x0 DUP4 ADD MSTORE PUSH2 0x2B96 DUP2 PUSH2 0x295E JUMP JUMPDEST SWAP1 POP SWAP2 SWAP1 POP JUMP JUMPDEST PUSH1 0x0 PUSH1 0x20 DUP3 ADD SWAP1 POP DUP2 DUP2 SUB PUSH1 0x0 DUP4 ADD MSTORE PUSH2 0x2BB6 DUP2 PUSH2 0x2981 JUMP JUMPDEST SWAP1 POP SWAP2 SWAP1 POP JUMP JUMPDEST PUSH1 0x0 PUSH1 0x20 DUP3 ADD SWAP1 POP DUP2 DUP2 SUB PUSH1 0x0 DUP4 ADD MSTORE PUSH2 0x2BD6 DUP2 PUSH2 0x29A4 JUMP JUMPDEST SWAP1 POP SWAP2 SWAP1 POP JUMP JUMPDEST PUSH1 0x0 PUSH1 0x20 DUP3 ADD SWAP1 POP DUP2 DUP2 SUB PUSH1 0x0 DUP4 ADD MSTORE PUSH2 0x2BF6 DUP2 PUSH2 0x29C7 JUMP JUMPDEST SWAP1 POP SWAP2 SWAP1 POP JUMP JUMPDEST PUSH1 0x0 PUSH1 0x20 DUP3 ADD SWAP1 POP PUSH2 0x2C12 PUSH1 0x0 DUP4 ADD DUP5 PUSH2 0x2A9C JUMP JUMPDEST SWAP3 SWAP2 POP POP JUMP JUMPDEST PUSH1 0x0 PUSH1 0x60 DUP3 ADD SWAP1 POP PUSH2 0x2C2D PUSH1 0x0 DUP4 ADD DUP7 PUSH2 0x2A9C JUMP JUMPDEST PUSH2 0x2C3A PUSH1 0x20 DUP4 ADD DUP6 PUSH2 0x2ABA JUMP JUMPDEST PUSH2 0x2C47 PUSH1 0x40 DUP4 ADD DUP5 PUSH2 0x2ABA JUMP JUMPDEST SWAP5 SWAP4 POP POP POP POP JUMP JUMPDEST PUSH1 0x0 PUSH2 0x2C59 PUSH2 0x2C6A JUMP JUMPDEST SWAP1 POP PUSH2 0x2C65 DUP3 DUP3 PUSH2 0x2E93 JUMP JUMPDEST SWAP2 SWAP1 POP JUMP JUMPDEST PUSH1 0x0 PUSH1 0x40 MLOAD SWAP1 POP SWAP1 JUMP JUMPDEST PUSH1 0x0 PUSH8 0xFFFFFFFFFFFFFFFF DUP3 GT ISZERO PUSH2 0x2C8F JUMPI PUSH2 0x2C8E PUSH2 0x2F9A JUMP JUMPDEST JUMPDEST PUSH2 0x2C98 DUP3 PUSH2 0x2FDD JUMP JUMPDEST SWAP1 POP PUSH1 0x20 DUP2 ADD SWAP1 POP SWAP2 SWAP1 POP JUMP JUMPDEST PUSH1 0x0 DUP2 SWAP1 POP PUSH1 0x20 DUP3 ADD SWAP1 POP SWAP2 SWAP1 POP JUMP JUMPDEST PUSH1 0x0 DUP2 MLOAD SWAP1 POP SWAP2 SWAP1 POP JUMP JUMPDEST PUSH1 0x0 DUP2 MLOAD SWAP1 POP SWAP2 SWAP1 POP JUMP JUMPDEST PUSH1 0x0 PUSH1 0x20 DUP3 ADD SWAP1 POP SWAP2 SWAP1 POP JUMP JUMPDEST PUSH1 0x0 DUP3 DUP3 MSTORE PUSH1 0x20 DUP3 ADD SWAP1 POP SWAP3 SWAP2 POP POP JUMP JUMPDEST PUSH1 0x0 DUP3 DUP3 MSTORE PUSH1 0x20 DUP3 ADD SWAP1 POP SWAP3 SWAP2 POP POP JUMP JUMPDEST PUSH1 0x0 DUP3 DUP3 MSTORE PUSH1 0x20 DUP3 ADD SWAP1 POP SWAP3 SWAP2 POP POP JUMP JUMPDEST PUSH1 0x0 DUP2 SWAP1 POP SWAP3 SWAP2 POP POP JUMP JUMPDEST PUSH1 0x0 PUSH2 0x2D21 DUP3 PUSH2 0x2DDE JUMP JUMPDEST SWAP2 POP PUSH2 0x2D2C DUP4 PUSH2 0x2DDE JUMP JUMPDEST SWAP3 POP DUP3 PUSH32 0xFFFFFFFFFFFFFFFFFFFFFFFFFFFFFFFFFFFFFFFFFFFFFFFFFFFFFFFFFFFFFFFF SUB DUP3 GT ISZERO PUSH2 0x2D61 JUMPI PUSH2 0x2D60 PUSH2 0x2F0D JUMP JUMPDEST JUMPDEST DUP3 DUP3 ADD SWAP1 POP SWAP3 SWAP2 POP POP JUMP JUMPDEST PUSH1 0x0 PUSH2 0x2D77 DUP3 PUSH2 0x2DDE JUMP JUMPDEST SWAP2 POP PUSH2 0x2D82 DUP4 PUSH2 0x2DDE JUMP JUMPDEST SWAP3 POP DUP3 DUP3 LT ISZERO PUSH2 0x2D95 JUMPI PUSH2 0x2D94 PUSH2 0x2F0D JUMP JUMPDEST JUMPDEST DUP3 DUP3 SUB SWAP1 POP SWAP3 SWAP2 POP POP JUMP JUMPDEST PUSH1 0x0 PUSH2 0x2DAB DUP3 PUSH2 0x2DBE JUMP JUMPDEST SWAP1 POP SWAP2 SWAP1 POP JUMP JUMPDEST PUSH1 0x0 DUP2 ISZERO ISZERO SWAP1 POP SWAP2 SWAP1 POP JUMP JUMPDEST PUSH1 0x0 PUSH20 0xFFFFFFFFFFFFFFFFFFFFFFFFFFFFFFFFFFFFFFFF DUP3 AND SWAP1 POP SWAP2 SWAP1 POP JUMP JUMPDEST PUSH1 0x0 DUP2 SWAP1 POP SWAP2 SWAP1 POP JUMP JUMPDEST PUSH1 0x0 PUSH1 0xFF DUP3 AND SWAP1 POP SWAP2 SWAP1 POP JUMP JUMPDEST DUP3 DUP2 DUP4 CALLDATACOPY PUSH1 0x0 DUP4 DUP4 ADD MSTORE POP POP POP JUMP JUMPDEST PUSH1 0x0 JUMPDEST DUP4 DUP2 LT ISZERO PUSH2 0x2E22 JUMPI DUP1 DUP3 ADD MLOAD DUP2 DUP5 ADD MSTORE PUSH1 0x20 DUP2 ADD SWAP1 POP PUSH2 0x2E07 JUMP JUMPDEST DUP4 DUP2 GT ISZERO PUSH2 0x2E31 JUMPI PUSH1 0x0 DUP5 DUP5 ADD MSTORE JUMPDEST POP POP POP POP JUMP JUMPDEST PUSH1 0x0 PUSH2 0x2E42 DUP3 PUSH2 0x2DDE JUMP JUMPDEST SWAP2 POP PUSH1 0x0 DUP3 EQ ISZERO PUSH2 0x2E56 JUMPI PUSH2 0x2E55 PUSH2 0x2F0D JUMP JUMPDEST JUMPDEST PUSH1 0x1 DUP3 SUB SWAP1 POP SWAP2 SWAP1 POP JUMP JUMPDEST PUSH1 0x0 PUSH1 0x2 DUP3 DIV SWAP1 POP PUSH1 0x1 DUP3 AND DUP1 PUSH2 0x2E79 JUMPI PUSH1 0x7F DUP3 AND SWAP2 POP JUMPDEST PUSH1 0x20 DUP3 LT DUP2 EQ ISZERO PUSH2 0x2E8D JUMPI PUSH2 0x2E8C PUSH2 0x2F3C JUMP JUMPDEST JUMPDEST POP SWAP2 SWAP1 POP JUMP JUMPDEST PUSH2 0x2E9C DUP3 PUSH2 0x2FDD JUMP JUMPDEST DUP2 ADD DUP2 DUP2 LT PUSH8 0xFFFFFFFFFFFFFFFF DUP3 GT OR ISZERO PUSH2 0x2EBB JUMPI PUSH2 0x2EBA PUSH2 0x2F9A JUMP JUMPDEST JUMPDEST DUP1 PUSH1 0x40 MSTORE POP POP POP JUMP JUMPDEST PUSH1 0x0 PUSH2 0x2ECF DUP3 PUSH2 0x2DDE JUMP JUMPDEST SWAP2 POP PUSH32 0xFFFFFFFFFFFFFFFFFFFFFFFFFFFFFFFFFFFFFFFFFFFFFFFFFFFFFFFFFFFFFFFF DUP3 EQ ISZERO PUSH2 0x2F02 JUMPI PUSH2 0x2F01 PUSH2 0x2F0D JUMP JUMPDEST JUMPDEST PUSH1 0x1 DUP3 ADD SWAP1 POP SWAP2 SWAP1 POP JUMP JUMPDEST PUSH32 0x4E487B7100000000000000000000000000000000000000000000000000000000 PUSH1 0x0 MSTORE PUSH1 0x11 PUSH1 0x4 MSTORE PUSH1 0x24 PUSH1 0x0 REVERT JUMPDEST PUSH32 0x4E487B7100000000000000000000000000000000000000000000000000000000 PUSH1 0x0 MSTORE PUSH1 0x22 PUSH1 0x4 MSTORE PUSH1 0x24 PUSH1 0x0 REVERT JUMPDEST PUSH32 0x4E487B7100000000000000000000000000000000000000000000000000000000 PUSH1 0x0 MSTORE PUSH1 0x32 PUSH1 0x4 MSTORE PUSH1 0x24 PUSH1 0x0 REVERT JUMPDEST PUSH32 0x4E487B7100000000000000000000000000000000000000000000000000000000 PUSH1 0x0 MSTORE PUSH1 0x41 PUSH1 0x4 MSTORE PUSH1 0x24 PUSH1 0x0 REVERT JUMPDEST PUSH1 0x0 DUP1 REVERT JUMPDEST PUSH1 0x0 DUP1 REVERT JUMPDEST PUSH1 0x0 DUP1 REVERT JUMPDEST PUSH1 0x0 DUP1 REVERT JUMPDEST PUSH1 0x0 PUSH1 0x1F NOT PUSH1 0x1F DUP4 ADD AND SWAP1 POP SWAP2 SWAP1 POP JUMP JUMPDEST PUSH32 0x4F776E61626C653A206E6577206F776E657220697320746865207A65726F2061 PUSH1 0x0 DUP3 ADD MSTORE PUSH32 0x6464726573730000000000000000000000000000000000000000000000000000 PUSH1 0x20 DUP3 ADD MSTORE POP JUMP JUMPDEST PUSH32 0x43616E206E6F7420757064617465207472616E73616374696F6E20414D4C2073 PUSH1 0x0 DUP3 ADD MSTORE PUSH32 0x74617475733A20616C7265616479207365740000000000000000000000000000 PUSH1 0x20 DUP3 ADD MSTORE POP JUMP JUMPDEST PUSH32 0x43616E206E6F7420676574207472616E73616374696F6E73206C6973742E2054 PUSH1 0x0 DUP3 ADD MSTORE PUSH32 0x6865206D6178696D756D207472616E73616374696F6E7320636F756E74206973 PUSH1 0x20 DUP3 ADD MSTORE PUSH32 0x2031303000000000000000000000000000000000000000000000000000000000 PUSH1 0x40 DUP3 ADD MSTORE POP JUMP JUMPDEST PUSH32 0x4F6E6C7920666F7220636F6D706C6574656420414D4C00000000000000000000 PUSH1 0x0 DUP3 ADD MSTORE POP JUMP JUMPDEST PUSH32 0x4F776E61626C653A2063616C6C6572206973206E6F7420746865206F776E6572 PUSH1 0x0 DUP3 ADD MSTORE POP JUMP JUMPDEST PUSH32 0x43616E206E6F74207570646174652072656365697665722E20496E76616C6964 PUSH1 0x0 DUP3 ADD MSTORE PUSH32 0x2073656E64657200000000000000000000000000000000000000000000000000 PUSH1 0x20 DUP3 ADD MSTORE POP JUMP JUMPDEST PUSH32 0x43616E206E6F74207570646174652072656365697665722E205472616E736163 PUSH1 0x0 DUP3 ADD MSTORE PUSH32 0x74696F6E20616C726561647920686173206265656E2075706461746564000000 PUSH1 0x20 DUP3 ADD MSTORE POP JUMP JUMPDEST PUSH2 0x31FA DUP2 PUSH2 0x2DA0 JUMP JUMPDEST DUP2 EQ PUSH2 0x3205 JUMPI PUSH1 0x0 DUP1 REVERT JUMPDEST POP JUMP JUMPDEST PUSH2 0x3211 DUP2 PUSH2 0x2DB2 JUMP JUMPDEST DUP2 EQ PUSH2 0x321C JUMPI PUSH1 0x0 DUP1 REVERT JUMPDEST POP JUMP JUMPDEST PUSH2 0x3228 DUP2 PUSH2 0x2DDE JUMP JUMPDEST DUP2 EQ PUSH2 0x3233 JUMPI PUSH1 0x0 DUP1 REVERT JUMPDEST POP JUMP JUMPDEST PUSH2 0x323F DUP2 PUSH2 0x2DE8 JUMP JUMPDEST DUP2 EQ PUSH2 0x324A JUMPI PUSH1 0x0 DUP1 REVERT JUMPDEST POP JUMP INVALID LOG2 PUSH5 0x6970667358 0x22 SLT KECCAK256 RETURNDATACOPY 0xE7 STOP DUP2 0xA7 SHR 0x24 0xB5 PUSH6 0xB5E26C83E2E9 0x22 INVALID 0x1E 0x27 PUSH22 0x44D39BEB5DC1B43FFCB437EC64736F6C634300080700 CALLER "
				},
				"gasEstimates": {
					"creation": {
						"codeDepositCost": "2586200",
						"executionCost": "infinite",
						"totalCost": "infinite"
					},
					"external": {
						"addTransaction(address,address,string)": "infinite",
						"clear()": "infinite",
						"getAllTransactions()": "infinite",
						"getTransactions(uint256)": "infinite",
						"getTransactionsForReceiver(address,uint256)": "infinite",
						"owner()": "2545",
						"renounceOwnership()": "30443",
						"setAmlStatusForReceiver(uint256,uint8)": "infinite",
						"setAmlStatusForReceiver(uint256,uint8,bool)": "infinite",
						"setAmlStatusForSender(uint256,uint8)": "infinite",
						"setAmlStatusForSender(uint256,uint8,bool)": "infinite",
						"setTransactionAmlStatus(uint256,uint8,uint8)": "infinite",
						"transferOwnership(address)": "30835",
						"updateReceiversData(uint256,string)": "infinite"
					},
					"internal": {
						"compareStrings(string memory,string memory)": "infinite",
						"reverseTransactionArray()": "infinite"
					}
				},
				"methodIdentifiers": {
					"addTransaction(address,address,string)": "9b8570f4",
					"clear()": "52efea6e",
					"getAllTransactions()": "27506f53",
					"getTransactions(uint256)": "5742177c",
					"getTransactionsForReceiver(address,uint256)": "e32ab44b",
					"owner()": "8da5cb5b",
					"renounceOwnership()": "715018a6",
					"setAmlStatusForReceiver(uint256,uint8)": "d39d0527",
					"setAmlStatusForReceiver(uint256,uint8,bool)": "7ccc241a",
					"setAmlStatusForSender(uint256,uint8)": "87e8bd12",
					"setAmlStatusForSender(uint256,uint8,bool)": "9a238f6d",
					"setTransactionAmlStatus(uint256,uint8,uint8)": "1167372d",
					"transferOwnership(address)": "f2fde38b",
					"updateReceiversData(uint256,string)": "cf993060"
				}
			},
			"storageLayout": {
				"storage": [
					{
						"astId": 7,
						"contract": "contracts/TravelRuleProgram.sol:TravelRuleProgram",
						"label": "_owner",
						"offset": 0,
						"slot": "0",
						"type": "t_address"
					},
					{
						"astId": 218,
						"contract": "contracts/TravelRuleProgram.sol:TravelRuleProgram",
						"label": "transactions",
						"offset": 0,
						"slot": "1",
						"type": "t_array(t_struct(Transaction)233_storage)dyn_storage"
					}
				],
				"types": {
					"t_address": {
						"encoding": "inplace",
						"label": "address",
						"numberOfBytes": "20"
					},
					"t_array(t_struct(Transaction)233_storage)dyn_storage": {
						"base": "t_struct(Transaction)233_storage",
						"encoding": "dynamic_array",
						"label": "struct TravelRuleProgram.Transaction[]",
						"numberOfBytes": "32"
					},
					"t_string_storage": {
						"encoding": "bytes",
						"label": "string",
						"numberOfBytes": "32"
					},
					"t_struct(Transaction)233_storage": {
						"encoding": "inplace",
						"label": "struct TravelRuleProgram.Transaction",
						"members": [
							{
								"astId": 220,
								"contract": "contracts/TravelRuleProgram.sol:TravelRuleProgram",
								"label": "id",
								"offset": 0,
								"slot": "0",
								"type": "t_uint256"
							},
							{
								"astId": 222,
								"contract": "contracts/TravelRuleProgram.sol:TravelRuleProgram",
								"label": "from",
								"offset": 0,
								"slot": "1",
								"type": "t_address"
							},
							{
								"astId": 224,
								"contract": "contracts/TravelRuleProgram.sol:TravelRuleProgram",
								"label": "to",
								"offset": 0,
								"slot": "2",
								"type": "t_address"
							},
							{
								"astId": 226,
								"contract": "contracts/TravelRuleProgram.sol:TravelRuleProgram",
								"label": "sendersData",
								"offset": 0,
								"slot": "3",
								"type": "t_string_storage"
							},
							{
								"astId": 228,
								"contract": "contracts/TravelRuleProgram.sol:TravelRuleProgram",
								"label": "receiversData",
								"offset": 0,
								"slot": "4",
								"type": "t_string_storage"
							},
							{
								"astId": 230,
								"contract": "contracts/TravelRuleProgram.sol:TravelRuleProgram",
								"label": "amlForSender",
								"offset": 0,
								"slot": "5",
								"type": "t_uint8"
							},
							{
								"astId": 232,
								"contract": "contracts/TravelRuleProgram.sol:TravelRuleProgram",
								"label": "amlForReceiver",
								"offset": 1,
								"slot": "5",
								"type": "t_uint8"
							}
						],
						"numberOfBytes": "192"
					},
					"t_uint256": {
						"encoding": "inplace",
						"label": "uint256",
						"numberOfBytes": "32"
					},
					"t_uint8": {
						"encoding": "inplace",
						"label": "uint8",
						"numberOfBytes": "1"
					}
				}
			},
			"userdoc": {
				"kind": "user",
				"methods": {},
				"version": 1
			}
		}
	}
}