{
	"contracts/TravelRuleProgram.sol": {
		"TravelRuleProgram": {
			"abi": [
				{
					"anonymous": false,
					"inputs": [
						{
							"indexed": false,
							"internalType": "uint256",
							"name": "id",
							"type": "uint256"
						}
					],
					"name": "AddTransaction",
					"type": "event"
				},
				{
					"anonymous": false,
					"inputs": [
						{
							"indexed": true,
							"internalType": "address",
							"name": "previousOwner",
							"type": "address"
						},
						{
							"indexed": true,
							"internalType": "address",
							"name": "newOwner",
							"type": "address"
						}
					],
					"name": "OwnershipTransferred",
					"type": "event"
				},
				{
					"anonymous": false,
					"inputs": [
						{
							"indexed": false,
							"internalType": "uint256",
							"name": "transactionId",
							"type": "uint256"
						},
						{
							"indexed": false,
							"internalType": "uint8",
							"name": "amlForSender",
							"type": "uint8"
						},
						{
							"indexed": false,
							"internalType": "uint8",
							"name": "amlForReceiver",
							"type": "uint8"
						}
					],
					"name": "TransactionAmlStatusUpdated",
					"type": "event"
				},
				{
					"inputs": [
						{
							"internalType": "address",
							"name": "from",
							"type": "address"
						},
						{
							"internalType": "address",
							"name": "to",
							"type": "address"
						},
						{
							"internalType": "string",
							"name": "sendersData",
							"type": "string"
						}
					],
					"name": "addTransaction",
					"outputs": [
						{
							"internalType": "uint256",
							"name": "",
							"type": "uint256"
						}
					],
					"stateMutability": "nonpayable",
					"type": "function"
				},
				{
					"inputs": [],
					"name": "clear",
					"outputs": [],
					"stateMutability": "nonpayable",
					"type": "function"
				},
				{
					"inputs": [],
					"name": "getAllTransactions",
					"outputs": [
						{
							"components": [
								{
									"internalType": "uint256",
									"name": "id",
									"type": "uint256"
								},
								{
									"internalType": "address",
									"name": "from",
									"type": "address"
								},
								{
									"internalType": "address",
									"name": "to",
									"type": "address"
								},
								{
									"internalType": "string",
									"name": "sendersData",
									"type": "string"
								},
								{
									"internalType": "string",
									"name": "receiversData",
									"type": "string"
								},
								{
									"internalType": "uint8",
									"name": "amlForSender",
									"type": "uint8"
								},
								{
									"internalType": "uint8",
									"name": "amlForReceiver",
									"type": "uint8"
								}
							],
							"internalType": "struct TravelRuleProgram.Transaction[]",
							"name": "",
							"type": "tuple[]"
						}
					],
					"stateMutability": "view",
					"type": "function"
				},
				{
					"inputs": [
						{
							"internalType": "uint256",
							"name": "count",
							"type": "uint256"
						}
					],
					"name": "getTransactions",
					"outputs": [
						{
							"components": [
								{
									"internalType": "uint256",
									"name": "id",
									"type": "uint256"
								},
								{
									"internalType": "address",
									"name": "from",
									"type": "address"
								},
								{
									"internalType": "address",
									"name": "to",
									"type": "address"
								},
								{
									"internalType": "string",
									"name": "sendersData",
									"type": "string"
								},
								{
									"internalType": "string",
									"name": "receiversData",
									"type": "string"
								},
								{
									"internalType": "uint8",
									"name": "amlForSender",
									"type": "uint8"
								},
								{
									"internalType": "uint8",
									"name": "amlForReceiver",
									"type": "uint8"
								}
							],
							"internalType": "struct TravelRuleProgram.Transaction[]",
							"name": "",
							"type": "tuple[]"
						}
					],
					"stateMutability": "view",
					"type": "function"
				},
				{
					"inputs": [
						{
							"internalType": "address",
							"name": "to",
							"type": "address"
						},
						{
							"internalType": "uint256",
							"name": "count",
							"type": "uint256"
						}
					],
					"name": "getTransactionsForReceiver",
					"outputs": [
						{
							"components": [
								{
									"internalType": "uint256",
									"name": "id",
									"type": "uint256"
								},
								{
									"internalType": "address",
									"name": "from",
									"type": "address"
								},
								{
									"internalType": "address",
									"name": "to",
									"type": "address"
								},
								{
									"internalType": "string",
									"name": "sendersData",
									"type": "string"
								},
								{
									"internalType": "string",
									"name": "receiversData",
									"type": "string"
								},
								{
									"internalType": "uint8",
									"name": "amlForSender",
									"type": "uint8"
								},
								{
									"internalType": "uint8",
									"name": "amlForReceiver",
									"type": "uint8"
								}
							],
							"internalType": "struct TravelRuleProgram.Transaction[]",
							"name": "",
							"type": "tuple[]"
						}
					],
					"stateMutability": "view",
					"type": "function"
				},
				{
					"inputs": [],
					"name": "owner",
					"outputs": [
						{
							"internalType": "address",
							"name": "",
							"type": "address"
						}
					],
					"stateMutability": "view",
					"type": "function"
				},
				{
					"inputs": [],
					"name": "renounceOwnership",
					"outputs": [],
					"stateMutability": "nonpayable",
					"type": "function"
				},
				{
					"inputs": [
						{
							"internalType": "uint256",
							"name": "transactionId",
							"type": "uint256"
						},
						{
							"internalType": "uint8",
							"name": "status",
							"type": "uint8"
						},
						{
							"internalType": "bool",
							"name": "emitEvent",
							"type": "bool"
						}
					],
					"name": "setAmlStatusForReceiver",
					"outputs": [],
					"stateMutability": "nonpayable",
					"type": "function"
				},
				{
					"inputs": [
						{
							"internalType": "uint256",
							"name": "transactionId",
							"type": "uint256"
						},
						{
							"internalType": "uint8",
							"name": "status",
							"type": "uint8"
						}
					],
					"name": "setAmlStatusForReceiver",
					"outputs": [],
					"stateMutability": "nonpayable",
					"type": "function"
				},
				{
					"inputs": [
						{
							"internalType": "uint256",
							"name": "transactionId",
							"type": "uint256"
						},
						{
							"internalType": "uint8",
							"name": "status",
							"type": "uint8"
						}
					],
					"name": "setAmlStatusForSender",
					"outputs": [],
					"stateMutability": "nonpayable",
					"type": "function"
				},
				{
					"inputs": [
						{
							"internalType": "uint256",
							"name": "transactionId",
							"type": "uint256"
						},
						{
							"internalType": "uint8",
							"name": "status",
							"type": "uint8"
						},
						{
							"internalType": "bool",
							"name": "emitEvent",
							"type": "bool"
						}
					],
					"name": "setAmlStatusForSender",
					"outputs": [],
					"stateMutability": "nonpayable",
					"type": "function"
				},
				{
					"inputs": [
						{
							"internalType": "uint256",
							"name": "transactionId",
							"type": "uint256"
						},
						{
							"internalType": "uint8",
							"name": "senderStatus",
							"type": "uint8"
						},
						{
							"internalType": "uint8",
							"name": "receiverStatus",
							"type": "uint8"
						}
					],
					"name": "setTransactionAmlStatus",
					"outputs": [],
					"stateMutability": "nonpayable",
					"type": "function"
				},
				{
					"inputs": [
						{
							"internalType": "address",
							"name": "newOwner",
							"type": "address"
						}
					],
					"name": "transferOwnership",
					"outputs": [],
					"stateMutability": "nonpayable",
					"type": "function"
				},
				{
					"inputs": [
						{
							"internalType": "uint256",
							"name": "transactionId",
							"type": "uint256"
						},
						{
							"internalType": "string",
							"name": "receiversData",
							"type": "string"
						}
					],
					"name": "updateReceiversData",
					"outputs": [],
					"stateMutability": "nonpayable",
					"type": "function"
				}
			],
			"devdoc": {
				"kind": "dev",
				"methods": {
					"owner()": {
						"details": "Returns the address of the current owner."
					},
					"renounceOwnership()": {
						"details": "Leaves the contract without owner. It will not be possible to call `onlyOwner` functions anymore. Can only be called by the current owner. NOTE: Renouncing ownership will leave the contract without an owner, thereby removing any functionality that is only available to the owner."
					},
					"transferOwnership(address)": {
						"details": "Transfers ownership of the contract to a new account (`newOwner`). Can only be called by the current owner."
					}
				},
				"version": 1
			},
			"evm": {
				"assembly": "    /* \"contracts/TravelRuleProgram.sol\":124:6192  contract TravelRuleProgram is Ownable {... */\n  mstore(0x40, 0x80)\n  callvalue\n  dup1\n  iszero\n  tag_1\n  jumpi\n  0x00\n  dup1\n  revert\ntag_1:\n  pop\n    /* \"@openzeppelin/contracts/access/Ownable.sol\":936:968  _transferOwnership(_msgSender()) */\n  tag_4\n    /* \"@openzeppelin/contracts/access/Ownable.sol\":955:967  _msgSender() */\n  tag_5\n    /* \"@openzeppelin/contracts/access/Ownable.sol\":955:965  _msgSender */\n  shl(0x20, tag_6)\n    /* \"@openzeppelin/contracts/access/Ownable.sol\":955:967  _msgSender() */\n  0x20\n  shr\n  jump\t// in\ntag_5:\n    /* \"@openzeppelin/contracts/access/Ownable.sol\":936:954  _transferOwnership */\n  shl(0x20, tag_7)\n    /* \"@openzeppelin/contracts/access/Ownable.sol\":936:968  _transferOwnership(_msgSender()) */\n  0x20\n  shr\n  jump\t// in\ntag_4:\n    /* \"contracts/TravelRuleProgram.sol\":124:6192  contract TravelRuleProgram is Ownable {... */\n  jump(tag_8)\n    /* \"@openzeppelin/contracts/utils/Context.sol\":640:736  function _msgSender() internal view virtual returns (address) {... */\ntag_6:\n    /* \"@openzeppelin/contracts/utils/Context.sol\":693:700  address */\n  0x00\n    /* \"@openzeppelin/contracts/utils/Context.sol\":719:729  msg.sender */\n  caller\n    /* \"@openzeppelin/contracts/utils/Context.sol\":712:729  return msg.sender */\n  swap1\n  pop\n    /* \"@openzeppelin/contracts/utils/Context.sol\":640:736  function _msgSender() internal view virtual returns (address) {... */\n  swap1\n  jump\t// out\n    /* \"@openzeppelin/contracts/access/Ownable.sol\":2433:2620  function _transferOwnership(address newOwner) internal virtual {... */\ntag_7:\n    /* \"@openzeppelin/contracts/access/Ownable.sol\":2506:2522  address oldOwner */\n  0x00\n    /* \"@openzeppelin/contracts/access/Ownable.sol\":2525:2531  _owner */\n  dup1\n  0x00\n  swap1\n  sload\n  swap1\n  0x0100\n  exp\n  swap1\n  div\n  0xffffffffffffffffffffffffffffffffffffffff\n  and\n    /* \"@openzeppelin/contracts/access/Ownable.sol\":2506:2531  address oldOwner = _owner */\n  swap1\n  pop\n    /* \"@openzeppelin/contracts/access/Ownable.sol\":2550:2558  newOwner */\n  dup2\n    /* \"@openzeppelin/contracts/access/Ownable.sol\":2541:2547  _owner */\n  0x00\n  dup1\n    /* \"@openzeppelin/contracts/access/Ownable.sol\":2541:2558  _owner = newOwner */\n  0x0100\n  exp\n  dup2\n  sload\n  dup2\n  0xffffffffffffffffffffffffffffffffffffffff\n  mul\n  not\n  and\n  swap1\n  dup4\n  0xffffffffffffffffffffffffffffffffffffffff\n  and\n  mul\n  or\n  swap1\n  sstore\n  pop\n    /* \"@openzeppelin/contracts/access/Ownable.sol\":2604:2612  newOwner */\n  dup2\n    /* \"@openzeppelin/contracts/access/Ownable.sol\":2573:2613  OwnershipTransferred(oldOwner, newOwner) */\n  0xffffffffffffffffffffffffffffffffffffffff\n  and\n    /* \"@openzeppelin/contracts/access/Ownable.sol\":2594:2602  oldOwner */\n  dup2\n    /* \"@openzeppelin/contracts/access/Ownable.sol\":2573:2613  OwnershipTransferred(oldOwner, newOwner) */\n  0xffffffffffffffffffffffffffffffffffffffff\n  and\n  0x8be0079c531659141344cd1fd0a4f28419497f9722a3daafe3b4186f6b6457e0\n  mload(0x40)\n  mload(0x40)\n  dup1\n  swap2\n  sub\n  swap1\n  log3\n    /* \"@openzeppelin/contracts/access/Ownable.sol\":2496:2620  {... */\n  pop\n    /* \"@openzeppelin/contracts/access/Ownable.sol\":2433:2620  function _transferOwnership(address newOwner) internal virtual {... */\n  pop\n  jump\t// out\n    /* \"contracts/TravelRuleProgram.sol\":124:6192  contract TravelRuleProgram is Ownable {... */\ntag_8:\n  dataSize(sub_0)\n  dup1\n  dataOffset(sub_0)\n  0x00\n  codecopy\n  0x00\n  return\nstop\n\nsub_0: assembly {\n        /* \"contracts/TravelRuleProgram.sol\":124:6192  contract TravelRuleProgram is Ownable {... */\n      mstore(0x40, 0x80)\n      callvalue\n      dup1\n      iszero\n      tag_1\n      jumpi\n      0x00\n      dup1\n      revert\n    tag_1:\n      pop\n      jumpi(tag_2, lt(calldatasize, 0x04))\n      shr(0xe0, calldataload(0x00))\n      dup1\n      0x8da5cb5b\n      gt\n      tag_17\n      jumpi\n      dup1\n      0xcf993060\n      gt\n      tag_18\n      jumpi\n      dup1\n      0xcf993060\n      eq\n      tag_13\n      jumpi\n      dup1\n      0xd39d0527\n      eq\n      tag_14\n      jumpi\n      dup1\n      0xe32ab44b\n      eq\n      tag_15\n      jumpi\n      dup1\n      0xf2fde38b\n      eq\n      tag_16\n      jumpi\n      jump(tag_2)\n    tag_18:\n      dup1\n      0x8da5cb5b\n      eq\n      tag_10\n      jumpi\n      dup1\n      0x9a238f6d\n      eq\n      tag_11\n      jumpi\n      dup1\n      0x9b8570f4\n      eq\n      tag_12\n      jumpi\n      jump(tag_2)\n    tag_17:\n      dup1\n      0x5742177c\n      gt\n      tag_19\n      jumpi\n      dup1\n      0x5742177c\n      eq\n      tag_6\n      jumpi\n      dup1\n      0x715018a6\n      eq\n      tag_7\n      jumpi\n      dup1\n      0x7ccc241a\n      eq\n      tag_8\n      jumpi\n      dup1\n      0x87e8bd12\n      eq\n      tag_9\n      jumpi\n      jump(tag_2)\n    tag_19:\n      dup1\n      0x1167372d\n      eq\n      tag_3\n      jumpi\n      dup1\n      0x27506f53\n      eq\n      tag_4\n      jumpi\n      dup1\n      0x52efea6e\n      eq\n      tag_5\n      jumpi\n    tag_2:\n      0x00\n      dup1\n      revert\n        /* \"contracts/TravelRuleProgram.sol\":5670:6114  function setTransactionAmlStatus(... */\n    tag_3:\n      tag_20\n      0x04\n      dup1\n      calldatasize\n      sub\n      dup2\n      add\n      swap1\n      tag_21\n      swap2\n      swap1\n      tag_22\n      jump\t// in\n    tag_21:\n      tag_23\n      jump\t// in\n    tag_20:\n      stop\n        /* \"contracts/TravelRuleProgram.sol\":2394:2502  function getAllTransactions() public view returns(Transaction[] memory) {... */\n    tag_4:\n      tag_24\n      tag_25\n      jump\t// in\n    tag_24:\n      mload(0x40)\n      tag_26\n      swap2\n      swap1\n      tag_27\n      jump\t// in\n    tag_26:\n      mload(0x40)\n      dup1\n      swap2\n      sub\n      swap1\n      return\n        /* \"contracts/TravelRuleProgram.sol\":6120:6190  function clear() public onlyOwner {... */\n    tag_5:\n      tag_28\n      tag_29\n      jump\t// in\n    tag_28:\n      stop\n        /* \"contracts/TravelRuleProgram.sol\":2508:3110  function getTransactions(uint256 count) public view returns(Transaction[] memory) {... */\n    tag_6:\n      tag_30\n      0x04\n      dup1\n      calldatasize\n      sub\n      dup2\n      add\n      swap1\n      tag_31\n      swap2\n      swap1\n      tag_32\n      jump\t// in\n    tag_31:\n      tag_33\n      jump\t// in\n    tag_30:\n      mload(0x40)\n      tag_34\n      swap2\n      swap1\n      tag_27\n      jump\t// in\n    tag_34:\n      mload(0x40)\n      dup1\n      swap2\n      sub\n      swap1\n      return\n        /* \"@openzeppelin/contracts/access/Ownable.sol\":1831:1932  function renounceOwnership() public virtual onlyOwner {... */\n    tag_7:\n      tag_35\n      tag_36\n      jump\t// in\n    tag_35:\n      stop\n        /* \"contracts/TravelRuleProgram.sol\":4247:4853  function setAmlStatusForReceiver(... */\n    tag_8:\n      tag_37\n      0x04\n      dup1\n      calldatasize\n      sub\n      dup2\n      add\n      swap1\n      tag_38\n      swap2\n      swap1\n      tag_39\n      jump\t// in\n    tag_38:\n      tag_40\n      jump\t// in\n    tag_37:\n      stop\n        /* \"contracts/TravelRuleProgram.sol\":4859:5066  function setAmlStatusForSender(... */\n    tag_9:\n      tag_41\n      0x04\n      dup1\n      calldatasize\n      sub\n      dup2\n      add\n      swap1\n      tag_42\n      swap2\n      swap1\n      tag_43\n      jump\t// in\n    tag_42:\n      tag_44\n      jump\t// in\n    tag_41:\n      stop\n        /* \"@openzeppelin/contracts/access/Ownable.sol\":1201:1286  function owner() public view virtual returns (address) {... */\n    tag_10:\n      tag_45\n      tag_46\n      jump\t// in\n    tag_45:\n      mload(0x40)\n      tag_47\n      swap2\n      swap1\n      tag_48\n      jump\t// in\n    tag_47:\n      mload(0x40)\n      dup1\n      swap2\n      sub\n      swap1\n      return\n        /* \"contracts/TravelRuleProgram.sol\":5072:5664  function setAmlStatusForSender(... */\n    tag_11:\n      tag_49\n      0x04\n      dup1\n      calldatasize\n      sub\n      dup2\n      add\n      swap1\n      tag_50\n      swap2\n      swap1\n      tag_39\n      jump\t// in\n    tag_50:\n      tag_51\n      jump\t// in\n    tag_49:\n      stop\n        /* \"contracts/TravelRuleProgram.sol\":1464:1869  function addTransaction(... */\n    tag_12:\n      tag_52\n      0x04\n      dup1\n      calldatasize\n      sub\n      dup2\n      add\n      swap1\n      tag_53\n      swap2\n      swap1\n      tag_54\n      jump\t// in\n    tag_53:\n      tag_55\n      jump\t// in\n    tag_52:\n      mload(0x40)\n      tag_56\n      swap2\n      swap1\n      tag_57\n      jump\t// in\n    tag_56:\n      mload(0x40)\n      dup1\n      swap2\n      sub\n      swap1\n      return\n        /* \"contracts/TravelRuleProgram.sol\":1875:2388  function updateReceiversData(... */\n    tag_13:\n      tag_58\n      0x04\n      dup1\n      calldatasize\n      sub\n      dup2\n      add\n      swap1\n      tag_59\n      swap2\n      swap1\n      tag_60\n      jump\t// in\n    tag_59:\n      tag_61\n      jump\t// in\n    tag_58:\n      stop\n        /* \"contracts/TravelRuleProgram.sol\":4030:4241  function setAmlStatusForReceiver(... */\n    tag_14:\n      tag_62\n      0x04\n      dup1\n      calldatasize\n      sub\n      dup2\n      add\n      swap1\n      tag_63\n      swap2\n      swap1\n      tag_43\n      jump\t// in\n    tag_63:\n      tag_64\n      jump\t// in\n    tag_62:\n      stop\n        /* \"contracts/TravelRuleProgram.sol\":3120:4024  function getTransactionsForReceiver(address to, uint256 count) public view returns(Transaction[] memory) {... */\n    tag_15:\n      tag_65\n      0x04\n      dup1\n      calldatasize\n      sub\n      dup2\n      add\n      swap1\n      tag_66\n      swap2\n      swap1\n      tag_67\n      jump\t// in\n    tag_66:\n      tag_68\n      jump\t// in\n    tag_65:\n      mload(0x40)\n      tag_69\n      swap2\n      swap1\n      tag_27\n      jump\t// in\n    tag_69:\n      mload(0x40)\n      dup1\n      swap2\n      sub\n      swap1\n      return\n        /* \"@openzeppelin/contracts/access/Ownable.sol\":2081:2279  function transferOwnership(address newOwner) public virtual onlyOwner {... */\n    tag_16:\n      tag_70\n      0x04\n      dup1\n      calldatasize\n      sub\n      dup2\n      add\n      swap1\n      tag_71\n      swap2\n      swap1\n      tag_72\n      jump\t// in\n    tag_71:\n      tag_73\n      jump\t// in\n    tag_70:\n      stop\n        /* \"contracts/TravelRuleProgram.sol\":5670:6114  function setTransactionAmlStatus(... */\n    tag_23:\n        /* \"@openzeppelin/contracts/access/Ownable.sol\":1094:1107  _checkOwner() */\n      tag_75\n        /* \"@openzeppelin/contracts/access/Ownable.sol\":1094:1105  _checkOwner */\n      tag_76\n        /* \"@openzeppelin/contracts/access/Ownable.sol\":1094:1107  _checkOwner() */\n      jump\t// in\n    tag_75:\n        /* \"contracts/TravelRuleProgram.sol\":5834:5847  transactionId */\n      dup3\n        /* \"contracts/TravelRuleProgram.sol\":1247:1306  compareStrings(transactions[transactionId].sendersData, \"\") */\n      tag_78\n        /* \"contracts/TravelRuleProgram.sol\":1262:1274  transactions */\n      0x01\n        /* \"contracts/TravelRuleProgram.sol\":1275:1288  transactionId */\n      dup3\n        /* \"contracts/TravelRuleProgram.sol\":1262:1289  transactions[transactionId] */\n      dup2\n      sload\n      dup2\n      lt\n      tag_79\n      jumpi\n      tag_80\n      tag_81\n      jump\t// in\n    tag_80:\n    tag_79:\n      swap1\n      0x00\n      mstore\n      keccak256(0x00, 0x20)\n      swap1\n      0x06\n      mul\n      add\n        /* \"contracts/TravelRuleProgram.sol\":1262:1301  transactions[transactionId].sendersData */\n      0x03\n      add\n        /* \"contracts/TravelRuleProgram.sol\":1247:1306  compareStrings(transactions[transactionId].sendersData, \"\") */\n      dup1\n      sload\n      tag_83\n      swap1\n      tag_84\n      jump\t// in\n    tag_83:\n      dup1\n      0x1f\n      add\n      0x20\n      dup1\n      swap2\n      div\n      mul\n      0x20\n      add\n      mload(0x40)\n      swap1\n      dup2\n      add\n      0x40\n      mstore\n      dup1\n      swap3\n      swap2\n      swap1\n      dup2\n      dup2\n      mstore\n      0x20\n      add\n      dup3\n      dup1\n      sload\n      tag_85\n      swap1\n      tag_84\n      jump\t// in\n    tag_85:\n      dup1\n      iszero\n      tag_86\n      jumpi\n      dup1\n      0x1f\n      lt\n      tag_87\n      jumpi\n      0x0100\n      dup1\n      dup4\n      sload\n      div\n      mul\n      dup4\n      mstore\n      swap2\n      0x20\n      add\n      swap2\n      jump(tag_86)\n    tag_87:\n      dup3\n      add\n      swap2\n      swap1\n      0x00\n      mstore\n      keccak256(0x00, 0x20)\n      swap1\n    tag_88:\n      dup2\n      sload\n      dup2\n      mstore\n      swap1\n      0x01\n      add\n      swap1\n      0x20\n      add\n      dup1\n      dup4\n      gt\n      tag_88\n      jumpi\n      dup3\n      swap1\n      sub\n      0x1f\n      and\n      dup3\n      add\n      swap2\n    tag_86:\n      pop\n      pop\n      pop\n      pop\n      pop\n      mload(0x40)\n      dup1\n      0x20\n      add\n      0x40\n      mstore\n      dup1\n      0x00\n      dup2\n      mstore\n      pop\n        /* \"contracts/TravelRuleProgram.sol\":1247:1261  compareStrings */\n      tag_89\n        /* \"contracts/TravelRuleProgram.sol\":1247:1306  compareStrings(transactions[transactionId].sendersData, \"\") */\n      jump\t// in\n    tag_78:\n        /* \"contracts/TravelRuleProgram.sol\":1246:1306  !compareStrings(transactions[transactionId].sendersData, \"\") */\n      iszero\n        /* \"contracts/TravelRuleProgram.sol\":1238:1333  require(!compareStrings(transactions[transactionId].sendersData, \"\"), \"Only for completed AML\") */\n      tag_90\n      jumpi\n      mload(0x40)\n      0x08c379a000000000000000000000000000000000000000000000000000000000\n      dup2\n      mstore\n      0x04\n      add\n      tag_91\n      swap1\n      tag_92\n      jump\t// in\n    tag_91:\n      mload(0x40)\n      dup1\n      swap2\n      sub\n      swap1\n      revert\n    tag_90:\n        /* \"contracts/TravelRuleProgram.sol\":1352:1413  compareStrings(transactions[transactionId].receiversData, \"\") */\n      tag_93\n        /* \"contracts/TravelRuleProgram.sol\":1367:1379  transactions */\n      0x01\n        /* \"contracts/TravelRuleProgram.sol\":1380:1393  transactionId */\n      dup3\n        /* \"contracts/TravelRuleProgram.sol\":1367:1394  transactions[transactionId] */\n      dup2\n      sload\n      dup2\n      lt\n      tag_94\n      jumpi\n      tag_95\n      tag_81\n      jump\t// in\n    tag_95:\n    tag_94:\n      swap1\n      0x00\n      mstore\n      keccak256(0x00, 0x20)\n      swap1\n      0x06\n      mul\n      add\n        /* \"contracts/TravelRuleProgram.sol\":1367:1408  transactions[transactionId].receiversData */\n      0x04\n      add\n        /* \"contracts/TravelRuleProgram.sol\":1352:1413  compareStrings(transactions[transactionId].receiversData, \"\") */\n      dup1\n      sload\n      tag_97\n      swap1\n      tag_84\n      jump\t// in\n    tag_97:\n      dup1\n      0x1f\n      add\n      0x20\n      dup1\n      swap2\n      div\n      mul\n      0x20\n      add\n      mload(0x40)\n      swap1\n      dup2\n      add\n      0x40\n      mstore\n      dup1\n      swap3\n      swap2\n      swap1\n      dup2\n      dup2\n      mstore\n      0x20\n      add\n      dup3\n      dup1\n      sload\n      tag_98\n      swap1\n      tag_84\n      jump\t// in\n    tag_98:\n      dup1\n      iszero\n      tag_99\n      jumpi\n      dup1\n      0x1f\n      lt\n      tag_100\n      jumpi\n      0x0100\n      dup1\n      dup4\n      sload\n      div\n      mul\n      dup4\n      mstore\n      swap2\n      0x20\n      add\n      swap2\n      jump(tag_99)\n    tag_100:\n      dup3\n      add\n      swap2\n      swap1\n      0x00\n      mstore\n      keccak256(0x00, 0x20)\n      swap1\n    tag_101:\n      dup2\n      sload\n      dup2\n      mstore\n      swap1\n      0x01\n      add\n      swap1\n      0x20\n      add\n      dup1\n      dup4\n      gt\n      tag_101\n      jumpi\n      dup3\n      swap1\n      sub\n      0x1f\n      and\n      dup3\n      add\n      swap2\n    tag_99:\n      pop\n      pop\n      pop\n      pop\n      pop\n      mload(0x40)\n      dup1\n      0x20\n      add\n      0x40\n      mstore\n      dup1\n      0x00\n      dup2\n      mstore\n      pop\n        /* \"contracts/TravelRuleProgram.sol\":1352:1366  compareStrings */\n      tag_89\n        /* \"contracts/TravelRuleProgram.sol\":1352:1413  compareStrings(transactions[transactionId].receiversData, \"\") */\n      jump\t// in\n    tag_93:\n        /* \"contracts/TravelRuleProgram.sol\":1351:1413  !compareStrings(transactions[transactionId].receiversData, \"\") */\n      iszero\n        /* \"contracts/TravelRuleProgram.sol\":1343:1440  require(!compareStrings(transactions[transactionId].receiversData, \"\"), \"Only for completed AML\") */\n      tag_102\n      jumpi\n      mload(0x40)\n      0x08c379a000000000000000000000000000000000000000000000000000000000\n      dup2\n      mstore\n      0x04\n      add\n      tag_103\n      swap1\n      tag_92\n      jump\t// in\n    tag_103:\n      mload(0x40)\n      dup1\n      swap2\n      sub\n      swap1\n      revert\n    tag_102:\n        /* \"contracts/TravelRuleProgram.sol\":5859:5913  setAmlStatusForReceiver(transactionId, receiverStatus) */\n      tag_105\n        /* \"contracts/TravelRuleProgram.sol\":5883:5896  transactionId */\n      dup5\n        /* \"contracts/TravelRuleProgram.sol\":5898:5912  receiverStatus */\n      dup4\n        /* \"contracts/TravelRuleProgram.sol\":5859:5882  setAmlStatusForReceiver */\n      tag_64\n        /* \"contracts/TravelRuleProgram.sol\":5859:5913  setAmlStatusForReceiver(transactionId, receiverStatus) */\n      jump\t// in\n    tag_105:\n        /* \"contracts/TravelRuleProgram.sol\":5923:5973  setAmlStatusForSender(transactionId, senderStatus) */\n      tag_106\n        /* \"contracts/TravelRuleProgram.sol\":5945:5958  transactionId */\n      dup5\n        /* \"contracts/TravelRuleProgram.sol\":5960:5972  senderStatus */\n      dup5\n        /* \"contracts/TravelRuleProgram.sol\":5923:5944  setAmlStatusForSender */\n      tag_44\n        /* \"contracts/TravelRuleProgram.sol\":5923:5973  setAmlStatusForSender(transactionId, senderStatus) */\n      jump\t// in\n    tag_106:\n        /* \"contracts/TravelRuleProgram.sol\":5989:6107  TransactionAmlStatusUpdated(... */\n      0x4cea1f87adb8c58c2d35aa0a3723745ff782300a0479866fc1e478a8740df8e5\n        /* \"contracts/TravelRuleProgram.sol\":6030:6043  transactionId */\n      dup5\n        /* \"contracts/TravelRuleProgram.sol\":6057:6069  senderStatus */\n      dup5\n        /* \"contracts/TravelRuleProgram.sol\":6083:6097  receiverStatus */\n      dup5\n        /* \"contracts/TravelRuleProgram.sol\":5989:6107  TransactionAmlStatusUpdated(... */\n      mload(0x40)\n      tag_107\n      swap4\n      swap3\n      swap2\n      swap1\n      tag_108\n      jump\t// in\n    tag_107:\n      mload(0x40)\n      dup1\n      swap2\n      sub\n      swap1\n      log1\n        /* \"@openzeppelin/contracts/access/Ownable.sol\":1117:1118  _ */\n      pop\n        /* \"contracts/TravelRuleProgram.sol\":5670:6114  function setTransactionAmlStatus(... */\n      pop\n      pop\n      pop\n      jump\t// out\n        /* \"contracts/TravelRuleProgram.sol\":2394:2502  function getAllTransactions() public view returns(Transaction[] memory) {... */\n    tag_25:\n        /* \"contracts/TravelRuleProgram.sol\":2444:2464  Transaction[] memory */\n      0x60\n        /* \"contracts/TravelRuleProgram.sol\":2483:2495  transactions */\n      0x01\n        /* \"contracts/TravelRuleProgram.sol\":2476:2495  return transactions */\n      dup1\n      sload\n      dup1\n      0x20\n      mul\n      0x20\n      add\n      mload(0x40)\n      swap1\n      dup2\n      add\n      0x40\n      mstore\n      dup1\n      swap3\n      swap2\n      swap1\n      dup2\n      dup2\n      mstore\n      0x20\n      add\n      0x00\n      swap1\n    tag_110:\n      dup3\n      dup3\n      lt\n      iszero\n      tag_111\n      jumpi\n      dup4\n      dup3\n      swap1\n      0x00\n      mstore\n      keccak256(0x00, 0x20)\n      swap1\n      0x06\n      mul\n      add\n      mload(0x40)\n      dup1\n      0xe0\n      add\n      0x40\n      mstore\n      swap1\n      dup2\n      0x00\n      dup3\n      add\n      sload\n      dup2\n      mstore\n      0x20\n      add\n      0x01\n      dup3\n      add\n      0x00\n      swap1\n      sload\n      swap1\n      0x0100\n      exp\n      swap1\n      div\n      0xffffffffffffffffffffffffffffffffffffffff\n      and\n      0xffffffffffffffffffffffffffffffffffffffff\n      and\n      0xffffffffffffffffffffffffffffffffffffffff\n      and\n      dup2\n      mstore\n      0x20\n      add\n      0x02\n      dup3\n      add\n      0x00\n      swap1\n      sload\n      swap1\n      0x0100\n      exp\n      swap1\n      div\n      0xffffffffffffffffffffffffffffffffffffffff\n      and\n      0xffffffffffffffffffffffffffffffffffffffff\n      and\n      0xffffffffffffffffffffffffffffffffffffffff\n      and\n      dup2\n      mstore\n      0x20\n      add\n      0x03\n      dup3\n      add\n      dup1\n      sload\n      tag_113\n      swap1\n      tag_84\n      jump\t// in\n    tag_113:\n      dup1\n      0x1f\n      add\n      0x20\n      dup1\n      swap2\n      div\n      mul\n      0x20\n      add\n      mload(0x40)\n      swap1\n      dup2\n      add\n      0x40\n      mstore\n      dup1\n      swap3\n      swap2\n      swap1\n      dup2\n      dup2\n      mstore\n      0x20\n      add\n      dup3\n      dup1\n      sload\n      tag_114\n      swap1\n      tag_84\n      jump\t// in\n    tag_114:\n      dup1\n      iszero\n      tag_115\n      jumpi\n      dup1\n      0x1f\n      lt\n      tag_116\n      jumpi\n      0x0100\n      dup1\n      dup4\n      sload\n      div\n      mul\n      dup4\n      mstore\n      swap2\n      0x20\n      add\n      swap2\n      jump(tag_115)\n    tag_116:\n      dup3\n      add\n      swap2\n      swap1\n      0x00\n      mstore\n      keccak256(0x00, 0x20)\n      swap1\n    tag_117:\n      dup2\n      sload\n      dup2\n      mstore\n      swap1\n      0x01\n      add\n      swap1\n      0x20\n      add\n      dup1\n      dup4\n      gt\n      tag_117\n      jumpi\n      dup3\n      swap1\n      sub\n      0x1f\n      and\n      dup3\n      add\n      swap2\n    tag_115:\n      pop\n      pop\n      pop\n      pop\n      pop\n      dup2\n      mstore\n      0x20\n      add\n      0x04\n      dup3\n      add\n      dup1\n      sload\n      tag_118\n      swap1\n      tag_84\n      jump\t// in\n    tag_118:\n      dup1\n      0x1f\n      add\n      0x20\n      dup1\n      swap2\n      div\n      mul\n      0x20\n      add\n      mload(0x40)\n      swap1\n      dup2\n      add\n      0x40\n      mstore\n      dup1\n      swap3\n      swap2\n      swap1\n      dup2\n      dup2\n      mstore\n      0x20\n      add\n      dup3\n      dup1\n      sload\n      tag_119\n      swap1\n      tag_84\n      jump\t// in\n    tag_119:\n      dup1\n      iszero\n      tag_120\n      jumpi\n      dup1\n      0x1f\n      lt\n      tag_121\n      jumpi\n      0x0100\n      dup1\n      dup4\n      sload\n      div\n      mul\n      dup4\n      mstore\n      swap2\n      0x20\n      add\n      swap2\n      jump(tag_120)\n    tag_121:\n      dup3\n      add\n      swap2\n      swap1\n      0x00\n      mstore\n      keccak256(0x00, 0x20)\n      swap1\n    tag_122:\n      dup2\n      sload\n      dup2\n      mstore\n      swap1\n      0x01\n      add\n      swap1\n      0x20\n      add\n      dup1\n      dup4\n      gt\n      tag_122\n      jumpi\n      dup3\n      swap1\n      sub\n      0x1f\n      and\n      dup3\n      add\n      swap2\n    tag_120:\n      pop\n      pop\n      pop\n      pop\n      pop\n      dup2\n      mstore\n      0x20\n      add\n      0x05\n      dup3\n      add\n      0x00\n      swap1\n      sload\n      swap1\n      0x0100\n      exp\n      swap1\n      div\n      0xff\n      and\n      0xff\n      and\n      0xff\n      and\n      dup2\n      mstore\n      0x20\n      add\n      0x05\n      dup3\n      add\n      0x01\n      swap1\n      sload\n      swap1\n      0x0100\n      exp\n      swap1\n      div\n      0xff\n      and\n      0xff\n      and\n      0xff\n      and\n      dup2\n      mstore\n      pop\n      pop\n      dup2\n      mstore\n      0x20\n      add\n      swap1\n      0x01\n      add\n      swap1\n      jump(tag_110)\n    tag_111:\n      pop\n      pop\n      pop\n      pop\n      swap1\n      pop\n        /* \"contracts/TravelRuleProgram.sol\":2394:2502  function getAllTransactions() public view returns(Transaction[] memory) {... */\n      swap1\n      jump\t// out\n        /* \"contracts/TravelRuleProgram.sol\":6120:6190  function clear() public onlyOwner {... */\n    tag_29:\n        /* \"@openzeppelin/contracts/access/Ownable.sol\":1094:1107  _checkOwner() */\n      tag_124\n        /* \"@openzeppelin/contracts/access/Ownable.sol\":1094:1105  _checkOwner */\n      tag_76\n        /* \"@openzeppelin/contracts/access/Ownable.sol\":1094:1107  _checkOwner() */\n      jump\t// in\n    tag_124:\n        /* \"contracts/TravelRuleProgram.sol\":6171:6183  transactions */\n      0x01\n      0x00\n        /* \"contracts/TravelRuleProgram.sol\":6164:6183  delete transactions */\n      tag_126\n      swap2\n      swap1\n      tag_127\n      jump\t// in\n    tag_126:\n        /* \"contracts/TravelRuleProgram.sol\":6120:6190  function clear() public onlyOwner {... */\n      jump\t// out\n        /* \"contracts/TravelRuleProgram.sol\":2508:3110  function getTransactions(uint256 count) public view returns(Transaction[] memory) {... */\n    tag_33:\n        /* \"contracts/TravelRuleProgram.sol\":2568:2588  Transaction[] memory */\n      0x60\n        /* \"contracts/TravelRuleProgram.sol\":2616:2619  100 */\n      0x64\n        /* \"contracts/TravelRuleProgram.sol\":2608:2613  count */\n      dup3\n        /* \"contracts/TravelRuleProgram.sol\":2608:2619  count < 100 */\n      lt\n        /* \"contracts/TravelRuleProgram.sol\":2600:2692  require(count < 100, \"Can not get transactions list. The maximum transactions count is 100\") */\n      tag_129\n      jumpi\n      mload(0x40)\n      0x08c379a000000000000000000000000000000000000000000000000000000000\n      dup2\n      mstore\n      0x04\n      add\n      tag_130\n      swap1\n      tag_131\n      jump\t// in\n    tag_130:\n      mload(0x40)\n      dup1\n      swap2\n      sub\n      swap1\n      revert\n    tag_129:\n        /* \"contracts/TravelRuleProgram.sol\":2703:2717  uint256 length */\n      0x00\n        /* \"contracts/TravelRuleProgram.sol\":2720:2732  transactions */\n      0x01\n        /* \"contracts/TravelRuleProgram.sol\":2720:2739  transactions.length */\n      dup1\n      sload\n      swap1\n      pop\n        /* \"contracts/TravelRuleProgram.sol\":2703:2739  uint256 length = transactions.length */\n      swap1\n      pop\n        /* \"contracts/TravelRuleProgram.sol\":2749:2764  uint256 _length */\n      0x00\n        /* \"contracts/TravelRuleProgram.sol\":2776:2781  count */\n      dup4\n        /* \"contracts/TravelRuleProgram.sol\":2767:2773  length */\n      dup3\n        /* \"contracts/TravelRuleProgram.sol\":2767:2781  length < count */\n      lt\n        /* \"contracts/TravelRuleProgram.sol\":2767:2798  length < count ? length : count */\n      tag_132\n      jumpi\n        /* \"contracts/TravelRuleProgram.sol\":2793:2798  count */\n      dup4\n        /* \"contracts/TravelRuleProgram.sol\":2767:2798  length < count ? length : count */\n      jump(tag_133)\n    tag_132:\n        /* \"contracts/TravelRuleProgram.sol\":2784:2790  length */\n      dup2\n        /* \"contracts/TravelRuleProgram.sol\":2767:2798  length < count ? length : count */\n    tag_133:\n        /* \"contracts/TravelRuleProgram.sol\":2749:2798  uint256 _length = length < count ? length : count */\n      swap1\n      pop\n        /* \"contracts/TravelRuleProgram.sol\":2808:2825  uint256 stopIndex */\n      0x00\n        /* \"contracts/TravelRuleProgram.sol\":2847:2848  1 */\n      0x01\n        /* \"contracts/TravelRuleProgram.sol\":2837:2844  _length */\n      dup3\n        /* \"contracts/TravelRuleProgram.sol\":2828:2834  length */\n      dup5\n        /* \"contracts/TravelRuleProgram.sol\":2828:2844  length - _length */\n      tag_134\n      swap2\n      swap1\n      tag_135\n      jump\t// in\n    tag_134:\n        /* \"contracts/TravelRuleProgram.sol\":2828:2848  length - _length + 1 */\n      tag_136\n      swap2\n      swap1\n      tag_137\n      jump\t// in\n    tag_136:\n        /* \"contracts/TravelRuleProgram.sol\":2808:2848  uint256 stopIndex = length - _length + 1 */\n      swap1\n      pop\n        /* \"contracts/TravelRuleProgram.sol\":2859:2893  Transaction[] memory reversedArray */\n      0x00\n        /* \"contracts/TravelRuleProgram.sol\":2914:2921  _length */\n      dup3\n        /* \"contracts/TravelRuleProgram.sol\":2896:2922  new Transaction[](_length) */\n      0xffffffffffffffff\n      dup2\n      gt\n      iszero\n      tag_138\n      jumpi\n      tag_139\n      tag_140\n      jump\t// in\n    tag_139:\n    tag_138:\n      mload(0x40)\n      swap1\n      dup1\n      dup3\n      mstore\n      dup1\n      0x20\n      mul\n      0x20\n      add\n      dup3\n      add\n      0x40\n      mstore\n      dup1\n      iszero\n      tag_141\n      jumpi\n      dup2\n      0x20\n      add\n    tag_142:\n      tag_143\n      tag_144\n      jump\t// in\n    tag_143:\n      dup2\n      mstore\n      0x20\n      add\n      swap1\n      0x01\n      swap1\n      sub\n      swap1\n      dup2\n      tag_142\n      jumpi\n      swap1\n      pop\n    tag_141:\n      pop\n        /* \"contracts/TravelRuleProgram.sol\":2859:2922  Transaction[] memory reversedArray = new Transaction[](_length) */\n      swap1\n      pop\n        /* \"contracts/TravelRuleProgram.sol\":2932:2938  uint j */\n      0x00\n        /* \"contracts/TravelRuleProgram.sol\":2957:2963  uint i */\n      dup1\n        /* \"contracts/TravelRuleProgram.sol\":2966:2972  length */\n      dup6\n        /* \"contracts/TravelRuleProgram.sol\":2957:2972  uint i = length */\n      swap1\n      pop\n        /* \"contracts/TravelRuleProgram.sol\":2953:3073  for(uint i = length; i >= stopIndex; i--) {... */\n    tag_145:\n        /* \"contracts/TravelRuleProgram.sol\":2979:2988  stopIndex */\n      dup4\n        /* \"contracts/TravelRuleProgram.sol\":2974:2975  i */\n      dup2\n        /* \"contracts/TravelRuleProgram.sol\":2974:2988  i >= stopIndex */\n      lt\n        /* \"contracts/TravelRuleProgram.sol\":2953:3073  for(uint i = length; i >= stopIndex; i--) {... */\n      tag_146\n      jumpi\n        /* \"contracts/TravelRuleProgram.sol\":3028:3040  transactions */\n      0x01\n        /* \"contracts/TravelRuleProgram.sol\":3043:3044  1 */\n      dup1\n        /* \"contracts/TravelRuleProgram.sol\":3041:3042  i */\n      dup3\n        /* \"contracts/TravelRuleProgram.sol\":3041:3044  i-1 */\n      tag_148\n      swap2\n      swap1\n      tag_135\n      jump\t// in\n    tag_148:\n        /* \"contracts/TravelRuleProgram.sol\":3028:3045  transactions[i-1] */\n      dup2\n      sload\n      dup2\n      lt\n      tag_149\n      jumpi\n      tag_150\n      tag_81\n      jump\t// in\n    tag_150:\n    tag_149:\n      swap1\n      0x00\n      mstore\n      keccak256(0x00, 0x20)\n      swap1\n      0x06\n      mul\n      add\n        /* \"contracts/TravelRuleProgram.sol\":3009:3045  reversedArray[j] = transactions[i-1] */\n      mload(0x40)\n      dup1\n      0xe0\n      add\n      0x40\n      mstore\n      swap1\n      dup2\n      0x00\n      dup3\n      add\n      sload\n      dup2\n      mstore\n      0x20\n      add\n      0x01\n      dup3\n      add\n      0x00\n      swap1\n      sload\n      swap1\n      0x0100\n      exp\n      swap1\n      div\n      0xffffffffffffffffffffffffffffffffffffffff\n      and\n      0xffffffffffffffffffffffffffffffffffffffff\n      and\n      0xffffffffffffffffffffffffffffffffffffffff\n      and\n      dup2\n      mstore\n      0x20\n      add\n      0x02\n      dup3\n      add\n      0x00\n      swap1\n      sload\n      swap1\n      0x0100\n      exp\n      swap1\n      div\n      0xffffffffffffffffffffffffffffffffffffffff\n      and\n      0xffffffffffffffffffffffffffffffffffffffff\n      and\n      0xffffffffffffffffffffffffffffffffffffffff\n      and\n      dup2\n      mstore\n      0x20\n      add\n      0x03\n      dup3\n      add\n      dup1\n      sload\n      tag_152\n      swap1\n      tag_84\n      jump\t// in\n    tag_152:\n      dup1\n      0x1f\n      add\n      0x20\n      dup1\n      swap2\n      div\n      mul\n      0x20\n      add\n      mload(0x40)\n      swap1\n      dup2\n      add\n      0x40\n      mstore\n      dup1\n      swap3\n      swap2\n      swap1\n      dup2\n      dup2\n      mstore\n      0x20\n      add\n      dup3\n      dup1\n      sload\n      tag_153\n      swap1\n      tag_84\n      jump\t// in\n    tag_153:\n      dup1\n      iszero\n      tag_154\n      jumpi\n      dup1\n      0x1f\n      lt\n      tag_155\n      jumpi\n      0x0100\n      dup1\n      dup4\n      sload\n      div\n      mul\n      dup4\n      mstore\n      swap2\n      0x20\n      add\n      swap2\n      jump(tag_154)\n    tag_155:\n      dup3\n      add\n      swap2\n      swap1\n      0x00\n      mstore\n      keccak256(0x00, 0x20)\n      swap1\n    tag_156:\n      dup2\n      sload\n      dup2\n      mstore\n      swap1\n      0x01\n      add\n      swap1\n      0x20\n      add\n      dup1\n      dup4\n      gt\n      tag_156\n      jumpi\n      dup3\n      swap1\n      sub\n      0x1f\n      and\n      dup3\n      add\n      swap2\n    tag_154:\n      pop\n      pop\n      pop\n      pop\n      pop\n      dup2\n      mstore\n      0x20\n      add\n      0x04\n      dup3\n      add\n      dup1\n      sload\n      tag_157\n      swap1\n      tag_84\n      jump\t// in\n    tag_157:\n      dup1\n      0x1f\n      add\n      0x20\n      dup1\n      swap2\n      div\n      mul\n      0x20\n      add\n      mload(0x40)\n      swap1\n      dup2\n      add\n      0x40\n      mstore\n      dup1\n      swap3\n      swap2\n      swap1\n      dup2\n      dup2\n      mstore\n      0x20\n      add\n      dup3\n      dup1\n      sload\n      tag_158\n      swap1\n      tag_84\n      jump\t// in\n    tag_158:\n      dup1\n      iszero\n      tag_159\n      jumpi\n      dup1\n      0x1f\n      lt\n      tag_160\n      jumpi\n      0x0100\n      dup1\n      dup4\n      sload\n      div\n      mul\n      dup4\n      mstore\n      swap2\n      0x20\n      add\n      swap2\n      jump(tag_159)\n    tag_160:\n      dup3\n      add\n      swap2\n      swap1\n      0x00\n      mstore\n      keccak256(0x00, 0x20)\n      swap1\n    tag_161:\n      dup2\n      sload\n      dup2\n      mstore\n      swap1\n      0x01\n      add\n      swap1\n      0x20\n      add\n      dup1\n      dup4\n      gt\n      tag_161\n      jumpi\n      dup3\n      swap1\n      sub\n      0x1f\n      and\n      dup3\n      add\n      swap2\n    tag_159:\n      pop\n      pop\n      pop\n      pop\n      pop\n      dup2\n      mstore\n      0x20\n      add\n      0x05\n      dup3\n      add\n      0x00\n      swap1\n      sload\n      swap1\n      0x0100\n      exp\n      swap1\n      div\n      0xff\n      and\n      0xff\n      and\n      0xff\n      and\n      dup2\n      mstore\n      0x20\n      add\n      0x05\n      dup3\n      add\n      0x01\n      swap1\n      sload\n      swap1\n      0x0100\n      exp\n      swap1\n      div\n      0xff\n      and\n      0xff\n      and\n      0xff\n      and\n      dup2\n      mstore\n      pop\n      pop\n        /* \"contracts/TravelRuleProgram.sol\":3009:3022  reversedArray */\n      dup4\n        /* \"contracts/TravelRuleProgram.sol\":3023:3024  j */\n      dup4\n        /* \"contracts/TravelRuleProgram.sol\":3009:3025  reversedArray[j] */\n      dup2\n      mload\n      dup2\n      lt\n      tag_162\n      jumpi\n      tag_163\n      tag_81\n      jump\t// in\n    tag_163:\n    tag_162:\n      0x20\n      mul\n      0x20\n      add\n      add\n        /* \"contracts/TravelRuleProgram.sol\":3009:3045  reversedArray[j] = transactions[i-1] */\n      dup2\n      swap1\n      mstore\n      pop\n        /* \"contracts/TravelRuleProgram.sol\":3059:3062  j++ */\n      dup2\n      dup1\n      tag_164\n      swap1\n      tag_165\n      jump\t// in\n    tag_164:\n      swap3\n      pop\n      pop\n        /* \"contracts/TravelRuleProgram.sol\":2990:2993  i-- */\n      dup1\n      dup1\n      tag_166\n      swap1\n      tag_167\n      jump\t// in\n    tag_166:\n      swap2\n      pop\n      pop\n        /* \"contracts/TravelRuleProgram.sol\":2953:3073  for(uint i = length; i >= stopIndex; i--) {... */\n      jump(tag_145)\n    tag_146:\n      pop\n        /* \"contracts/TravelRuleProgram.sol\":3090:3103  reversedArray */\n      dup2\n        /* \"contracts/TravelRuleProgram.sol\":3083:3103  return reversedArray */\n      swap6\n      pop\n      pop\n      pop\n      pop\n      pop\n      pop\n        /* \"contracts/TravelRuleProgram.sol\":2508:3110  function getTransactions(uint256 count) public view returns(Transaction[] memory) {... */\n      swap2\n      swap1\n      pop\n      jump\t// out\n        /* \"@openzeppelin/contracts/access/Ownable.sol\":1831:1932  function renounceOwnership() public virtual onlyOwner {... */\n    tag_36:\n        /* \"@openzeppelin/contracts/access/Ownable.sol\":1094:1107  _checkOwner() */\n      tag_169\n        /* \"@openzeppelin/contracts/access/Ownable.sol\":1094:1105  _checkOwner */\n      tag_76\n        /* \"@openzeppelin/contracts/access/Ownable.sol\":1094:1107  _checkOwner() */\n      jump\t// in\n    tag_169:\n        /* \"@openzeppelin/contracts/access/Ownable.sol\":1895:1925  _transferOwnership(address(0)) */\n      tag_171\n        /* \"@openzeppelin/contracts/access/Ownable.sol\":1922:1923  0 */\n      0x00\n        /* \"@openzeppelin/contracts/access/Ownable.sol\":1895:1913  _transferOwnership */\n      tag_172\n        /* \"@openzeppelin/contracts/access/Ownable.sol\":1895:1925  _transferOwnership(address(0)) */\n      jump\t// in\n    tag_171:\n        /* \"@openzeppelin/contracts/access/Ownable.sol\":1831:1932  function renounceOwnership() public virtual onlyOwner {... */\n      jump\t// out\n        /* \"contracts/TravelRuleProgram.sol\":4247:4853  function setAmlStatusForReceiver(... */\n    tag_40:\n        /* \"@openzeppelin/contracts/access/Ownable.sol\":1094:1107  _checkOwner() */\n      tag_174\n        /* \"@openzeppelin/contracts/access/Ownable.sol\":1094:1105  _checkOwner */\n      tag_76\n        /* \"@openzeppelin/contracts/access/Ownable.sol\":1094:1107  _checkOwner() */\n      jump\t// in\n    tag_174:\n        /* \"contracts/TravelRuleProgram.sol\":4397:4410  transactionId */\n      dup3\n        /* \"contracts/TravelRuleProgram.sol\":1247:1306  compareStrings(transactions[transactionId].sendersData, \"\") */\n      tag_176\n        /* \"contracts/TravelRuleProgram.sol\":1262:1274  transactions */\n      0x01\n        /* \"contracts/TravelRuleProgram.sol\":1275:1288  transactionId */\n      dup3\n        /* \"contracts/TravelRuleProgram.sol\":1262:1289  transactions[transactionId] */\n      dup2\n      sload\n      dup2\n      lt\n      tag_177\n      jumpi\n      tag_178\n      tag_81\n      jump\t// in\n    tag_178:\n    tag_177:\n      swap1\n      0x00\n      mstore\n      keccak256(0x00, 0x20)\n      swap1\n      0x06\n      mul\n      add\n        /* \"contracts/TravelRuleProgram.sol\":1262:1301  transactions[transactionId].sendersData */\n      0x03\n      add\n        /* \"contracts/TravelRuleProgram.sol\":1247:1306  compareStrings(transactions[transactionId].sendersData, \"\") */\n      dup1\n      sload\n      tag_180\n      swap1\n      tag_84\n      jump\t// in\n    tag_180:\n      dup1\n      0x1f\n      add\n      0x20\n      dup1\n      swap2\n      div\n      mul\n      0x20\n      add\n      mload(0x40)\n      swap1\n      dup2\n      add\n      0x40\n      mstore\n      dup1\n      swap3\n      swap2\n      swap1\n      dup2\n      dup2\n      mstore\n      0x20\n      add\n      dup3\n      dup1\n      sload\n      tag_181\n      swap1\n      tag_84\n      jump\t// in\n    tag_181:\n      dup1\n      iszero\n      tag_182\n      jumpi\n      dup1\n      0x1f\n      lt\n      tag_183\n      jumpi\n      0x0100\n      dup1\n      dup4\n      sload\n      div\n      mul\n      dup4\n      mstore\n      swap2\n      0x20\n      add\n      swap2\n      jump(tag_182)\n    tag_183:\n      dup3\n      add\n      swap2\n      swap1\n      0x00\n      mstore\n      keccak256(0x00, 0x20)\n      swap1\n    tag_184:\n      dup2\n      sload\n      dup2\n      mstore\n      swap1\n      0x01\n      add\n      swap1\n      0x20\n      add\n      dup1\n      dup4\n      gt\n      tag_184\n      jumpi\n      dup3\n      swap1\n      sub\n      0x1f\n      and\n      dup3\n      add\n      swap2\n    tag_182:\n      pop\n      pop\n      pop\n      pop\n      pop\n      mload(0x40)\n      dup1\n      0x20\n      add\n      0x40\n      mstore\n      dup1\n      0x00\n      dup2\n      mstore\n      pop\n        /* \"contracts/TravelRuleProgram.sol\":1247:1261  compareStrings */\n      tag_89\n        /* \"contracts/TravelRuleProgram.sol\":1247:1306  compareStrings(transactions[transactionId].sendersData, \"\") */\n      jump\t// in\n    tag_176:\n        /* \"contracts/TravelRuleProgram.sol\":1246:1306  !compareStrings(transactions[transactionId].sendersData, \"\") */\n      iszero\n        /* \"contracts/TravelRuleProgram.sol\":1238:1333  require(!compareStrings(transactions[transactionId].sendersData, \"\"), \"Only for completed AML\") */\n      tag_185\n      jumpi\n      mload(0x40)\n      0x08c379a000000000000000000000000000000000000000000000000000000000\n      dup2\n      mstore\n      0x04\n      add\n      tag_186\n      swap1\n      tag_92\n      jump\t// in\n    tag_186:\n      mload(0x40)\n      dup1\n      swap2\n      sub\n      swap1\n      revert\n    tag_185:\n        /* \"contracts/TravelRuleProgram.sol\":1352:1413  compareStrings(transactions[transactionId].receiversData, \"\") */\n      tag_187\n        /* \"contracts/TravelRuleProgram.sol\":1367:1379  transactions */\n      0x01\n        /* \"contracts/TravelRuleProgram.sol\":1380:1393  transactionId */\n      dup3\n        /* \"contracts/TravelRuleProgram.sol\":1367:1394  transactions[transactionId] */\n      dup2\n      sload\n      dup2\n      lt\n      tag_188\n      jumpi\n      tag_189\n      tag_81\n      jump\t// in\n    tag_189:\n    tag_188:\n      swap1\n      0x00\n      mstore\n      keccak256(0x00, 0x20)\n      swap1\n      0x06\n      mul\n      add\n        /* \"contracts/TravelRuleProgram.sol\":1367:1408  transactions[transactionId].receiversData */\n      0x04\n      add\n        /* \"contracts/TravelRuleProgram.sol\":1352:1413  compareStrings(transactions[transactionId].receiversData, \"\") */\n      dup1\n      sload\n      tag_191\n      swap1\n      tag_84\n      jump\t// in\n    tag_191:\n      dup1\n      0x1f\n      add\n      0x20\n      dup1\n      swap2\n      div\n      mul\n      0x20\n      add\n      mload(0x40)\n      swap1\n      dup2\n      add\n      0x40\n      mstore\n      dup1\n      swap3\n      swap2\n      swap1\n      dup2\n      dup2\n      mstore\n      0x20\n      add\n      dup3\n      dup1\n      sload\n      tag_192\n      swap1\n      tag_84\n      jump\t// in\n    tag_192:\n      dup1\n      iszero\n      tag_193\n      jumpi\n      dup1\n      0x1f\n      lt\n      tag_194\n      jumpi\n      0x0100\n      dup1\n      dup4\n      sload\n      div\n      mul\n      dup4\n      mstore\n      swap2\n      0x20\n      add\n      swap2\n      jump(tag_193)\n    tag_194:\n      dup3\n      add\n      swap2\n      swap1\n      0x00\n      mstore\n      keccak256(0x00, 0x20)\n      swap1\n    tag_195:\n      dup2\n      sload\n      dup2\n      mstore\n      swap1\n      0x01\n      add\n      swap1\n      0x20\n      add\n      dup1\n      dup4\n      gt\n      tag_195\n      jumpi\n      dup3\n      swap1\n      sub\n      0x1f\n      and\n      dup3\n      add\n      swap2\n    tag_193:\n      pop\n      pop\n      pop\n      pop\n      pop\n      mload(0x40)\n      dup1\n      0x20\n      add\n      0x40\n      mstore\n      dup1\n      0x00\n      dup2\n      mstore\n      pop\n        /* \"contracts/TravelRuleProgram.sol\":1352:1366  compareStrings */\n      tag_89\n        /* \"contracts/TravelRuleProgram.sol\":1352:1413  compareStrings(transactions[transactionId].receiversData, \"\") */\n      jump\t// in\n    tag_187:\n        /* \"contracts/TravelRuleProgram.sol\":1351:1413  !compareStrings(transactions[transactionId].receiversData, \"\") */\n      iszero\n        /* \"contracts/TravelRuleProgram.sol\":1343:1440  require(!compareStrings(transactions[transactionId].receiversData, \"\"), \"Only for completed AML\") */\n      tag_196\n      jumpi\n      mload(0x40)\n      0x08c379a000000000000000000000000000000000000000000000000000000000\n      dup2\n      mstore\n      0x04\n      add\n      tag_197\n      swap1\n      tag_92\n      jump\t// in\n    tag_197:\n      mload(0x40)\n      dup1\n      swap2\n      sub\n      swap1\n      revert\n    tag_196:\n        /* \"contracts/TravelRuleProgram.sol\":4476:4477  0 */\n      0x00\n        /* \"contracts/TravelRuleProgram.sol\":4430:4442  transactions */\n      0x01\n        /* \"contracts/TravelRuleProgram.sol\":4443:4456  transactionId */\n      dup6\n        /* \"contracts/TravelRuleProgram.sol\":4430:4457  transactions[transactionId] */\n      dup2\n      sload\n      dup2\n      lt\n      tag_199\n      jumpi\n      tag_200\n      tag_81\n      jump\t// in\n    tag_200:\n    tag_199:\n      swap1\n      0x00\n      mstore\n      keccak256(0x00, 0x20)\n      swap1\n      0x06\n      mul\n      add\n        /* \"contracts/TravelRuleProgram.sol\":4430:4472  transactions[transactionId].amlForReceiver */\n      0x05\n      add\n      0x01\n      swap1\n      sload\n      swap1\n      0x0100\n      exp\n      swap1\n      div\n      0xff\n      and\n        /* \"contracts/TravelRuleProgram.sol\":4430:4477  transactions[transactionId].amlForReceiver == 0 */\n      0xff\n      and\n      eq\n        /* \"contracts/TravelRuleProgram.sol\":4422:4532  require(transactions[transactionId].amlForReceiver == 0, \"Can not update transaction AML status: already set\") */\n      tag_202\n      jumpi\n      mload(0x40)\n      0x08c379a000000000000000000000000000000000000000000000000000000000\n      dup2\n      mstore\n      0x04\n      add\n      tag_203\n      swap1\n      tag_204\n      jump\t// in\n    tag_203:\n      mload(0x40)\n      dup1\n      swap2\n      sub\n      swap1\n      revert\n    tag_202:\n        /* \"contracts/TravelRuleProgram.sol\":4587:4593  status */\n      dup3\n        /* \"contracts/TravelRuleProgram.sol\":4542:4554  transactions */\n      0x01\n        /* \"contracts/TravelRuleProgram.sol\":4555:4568  transactionId */\n      dup6\n        /* \"contracts/TravelRuleProgram.sol\":4542:4569  transactions[transactionId] */\n      dup2\n      sload\n      dup2\n      lt\n      tag_205\n      jumpi\n      tag_206\n      tag_81\n      jump\t// in\n    tag_206:\n    tag_205:\n      swap1\n      0x00\n      mstore\n      keccak256(0x00, 0x20)\n      swap1\n      0x06\n      mul\n      add\n        /* \"contracts/TravelRuleProgram.sol\":4542:4584  transactions[transactionId].amlForReceiver */\n      0x05\n      add\n      0x01\n        /* \"contracts/TravelRuleProgram.sol\":4542:4593  transactions[transactionId].amlForReceiver = status */\n      0x0100\n      exp\n      dup2\n      sload\n      dup2\n      0xff\n      mul\n      not\n      and\n      swap1\n      dup4\n      0xff\n      and\n      mul\n      or\n      swap1\n      sstore\n      pop\n        /* \"contracts/TravelRuleProgram.sol\":4616:4625  emitEvent */\n      dup2\n        /* \"contracts/TravelRuleProgram.sol\":4612:4847  if (emitEvent) {... */\n      iszero\n      tag_208\n      jumpi\n        /* \"contracts/TravelRuleProgram.sol\":4646:4836  TransactionAmlStatusUpdated(... */\n      0x4cea1f87adb8c58c2d35aa0a3723745ff782300a0479866fc1e478a8740df8e5\n        /* \"contracts/TravelRuleProgram.sol\":4691:4704  transactionId */\n      dup5\n        /* \"contracts/TravelRuleProgram.sol\":4722:4734  transactions */\n      0x01\n        /* \"contracts/TravelRuleProgram.sol\":4735:4748  transactionId */\n      dup7\n        /* \"contracts/TravelRuleProgram.sol\":4722:4749  transactions[transactionId] */\n      dup2\n      sload\n      dup2\n      lt\n      tag_209\n      jumpi\n      tag_210\n      tag_81\n      jump\t// in\n    tag_210:\n    tag_209:\n      swap1\n      0x00\n      mstore\n      keccak256(0x00, 0x20)\n      swap1\n      0x06\n      mul\n      add\n        /* \"contracts/TravelRuleProgram.sol\":4722:4762  transactions[transactionId].amlForSender */\n      0x05\n      add\n      0x00\n      swap1\n      sload\n      swap1\n      0x0100\n      exp\n      swap1\n      div\n      0xff\n      and\n        /* \"contracts/TravelRuleProgram.sol\":4780:4792  transactions */\n      0x01\n        /* \"contracts/TravelRuleProgram.sol\":4793:4806  transactionId */\n      dup8\n        /* \"contracts/TravelRuleProgram.sol\":4780:4807  transactions[transactionId] */\n      dup2\n      sload\n      dup2\n      lt\n      tag_212\n      jumpi\n      tag_213\n      tag_81\n      jump\t// in\n    tag_213:\n    tag_212:\n      swap1\n      0x00\n      mstore\n      keccak256(0x00, 0x20)\n      swap1\n      0x06\n      mul\n      add\n        /* \"contracts/TravelRuleProgram.sol\":4780:4822  transactions[transactionId].amlForReceiver */\n      0x05\n      add\n      0x01\n      swap1\n      sload\n      swap1\n      0x0100\n      exp\n      swap1\n      div\n      0xff\n      and\n        /* \"contracts/TravelRuleProgram.sol\":4646:4836  TransactionAmlStatusUpdated(... */\n      mload(0x40)\n      tag_215\n      swap4\n      swap3\n      swap2\n      swap1\n      tag_108\n      jump\t// in\n    tag_215:\n      mload(0x40)\n      dup1\n      swap2\n      sub\n      swap1\n      log1\n        /* \"contracts/TravelRuleProgram.sol\":4612:4847  if (emitEvent) {... */\n    tag_208:\n        /* \"@openzeppelin/contracts/access/Ownable.sol\":1117:1118  _ */\n      pop\n        /* \"contracts/TravelRuleProgram.sol\":4247:4853  function setAmlStatusForReceiver(... */\n      pop\n      pop\n      pop\n      jump\t// out\n        /* \"contracts/TravelRuleProgram.sol\":4859:5066  function setAmlStatusForSender(... */\n    tag_44:\n        /* \"@openzeppelin/contracts/access/Ownable.sol\":1094:1107  _checkOwner() */\n      tag_217\n        /* \"@openzeppelin/contracts/access/Ownable.sol\":1094:1105  _checkOwner */\n      tag_76\n        /* \"@openzeppelin/contracts/access/Ownable.sol\":1094:1107  _checkOwner() */\n      jump\t// in\n    tag_217:\n        /* \"contracts/TravelRuleProgram.sol\":4983:4996  transactionId */\n      dup2\n        /* \"contracts/TravelRuleProgram.sol\":1247:1306  compareStrings(transactions[transactionId].sendersData, \"\") */\n      tag_219\n        /* \"contracts/TravelRuleProgram.sol\":1262:1274  transactions */\n      0x01\n        /* \"contracts/TravelRuleProgram.sol\":1275:1288  transactionId */\n      dup3\n        /* \"contracts/TravelRuleProgram.sol\":1262:1289  transactions[transactionId] */\n      dup2\n      sload\n      dup2\n      lt\n      tag_220\n      jumpi\n      tag_221\n      tag_81\n      jump\t// in\n    tag_221:\n    tag_220:\n      swap1\n      0x00\n      mstore\n      keccak256(0x00, 0x20)\n      swap1\n      0x06\n      mul\n      add\n        /* \"contracts/TravelRuleProgram.sol\":1262:1301  transactions[transactionId].sendersData */\n      0x03\n      add\n        /* \"contracts/TravelRuleProgram.sol\":1247:1306  compareStrings(transactions[transactionId].sendersData, \"\") */\n      dup1\n      sload\n      tag_223\n      swap1\n      tag_84\n      jump\t// in\n    tag_223:\n      dup1\n      0x1f\n      add\n      0x20\n      dup1\n      swap2\n      div\n      mul\n      0x20\n      add\n      mload(0x40)\n      swap1\n      dup2\n      add\n      0x40\n      mstore\n      dup1\n      swap3\n      swap2\n      swap1\n      dup2\n      dup2\n      mstore\n      0x20\n      add\n      dup3\n      dup1\n      sload\n      tag_224\n      swap1\n      tag_84\n      jump\t// in\n    tag_224:\n      dup1\n      iszero\n      tag_225\n      jumpi\n      dup1\n      0x1f\n      lt\n      tag_226\n      jumpi\n      0x0100\n      dup1\n      dup4\n      sload\n      div\n      mul\n      dup4\n      mstore\n      swap2\n      0x20\n      add\n      swap2\n      jump(tag_225)\n    tag_226:\n      dup3\n      add\n      swap2\n      swap1\n      0x00\n      mstore\n      keccak256(0x00, 0x20)\n      swap1\n    tag_227:\n      dup2\n      sload\n      dup2\n      mstore\n      swap1\n      0x01\n      add\n      swap1\n      0x20\n      add\n      dup1\n      dup4\n      gt\n      tag_227\n      jumpi\n      dup3\n      swap1\n      sub\n      0x1f\n      and\n      dup3\n      add\n      swap2\n    tag_225:\n      pop\n      pop\n      pop\n      pop\n      pop\n      mload(0x40)\n      dup1\n      0x20\n      add\n      0x40\n      mstore\n      dup1\n      0x00\n      dup2\n      mstore\n      pop\n        /* \"contracts/TravelRuleProgram.sol\":1247:1261  compareStrings */\n      tag_89\n        /* \"contracts/TravelRuleProgram.sol\":1247:1306  compareStrings(transactions[transactionId].sendersData, \"\") */\n      jump\t// in\n    tag_219:\n        /* \"contracts/TravelRuleProgram.sol\":1246:1306  !compareStrings(transactions[transactionId].sendersData, \"\") */\n      iszero\n        /* \"contracts/TravelRuleProgram.sol\":1238:1333  require(!compareStrings(transactions[transactionId].sendersData, \"\"), \"Only for completed AML\") */\n      tag_228\n      jumpi\n      mload(0x40)\n      0x08c379a000000000000000000000000000000000000000000000000000000000\n      dup2\n      mstore\n      0x04\n      add\n      tag_229\n      swap1\n      tag_92\n      jump\t// in\n    tag_229:\n      mload(0x40)\n      dup1\n      swap2\n      sub\n      swap1\n      revert\n    tag_228:\n        /* \"contracts/TravelRuleProgram.sol\":1352:1413  compareStrings(transactions[transactionId].receiversData, \"\") */\n      tag_230\n        /* \"contracts/TravelRuleProgram.sol\":1367:1379  transactions */\n      0x01\n        /* \"contracts/TravelRuleProgram.sol\":1380:1393  transactionId */\n      dup3\n        /* \"contracts/TravelRuleProgram.sol\":1367:1394  transactions[transactionId] */\n      dup2\n      sload\n      dup2\n      lt\n      tag_231\n      jumpi\n      tag_232\n      tag_81\n      jump\t// in\n    tag_232:\n    tag_231:\n      swap1\n      0x00\n      mstore\n      keccak256(0x00, 0x20)\n      swap1\n      0x06\n      mul\n      add\n        /* \"contracts/TravelRuleProgram.sol\":1367:1408  transactions[transactionId].receiversData */\n      0x04\n      add\n        /* \"contracts/TravelRuleProgram.sol\":1352:1413  compareStrings(transactions[transactionId].receiversData, \"\") */\n      dup1\n      sload\n      tag_234\n      swap1\n      tag_84\n      jump\t// in\n    tag_234:\n      dup1\n      0x1f\n      add\n      0x20\n      dup1\n      swap2\n      div\n      mul\n      0x20\n      add\n      mload(0x40)\n      swap1\n      dup2\n      add\n      0x40\n      mstore\n      dup1\n      swap3\n      swap2\n      swap1\n      dup2\n      dup2\n      mstore\n      0x20\n      add\n      dup3\n      dup1\n      sload\n      tag_235\n      swap1\n      tag_84\n      jump\t// in\n    tag_235:\n      dup1\n      iszero\n      tag_236\n      jumpi\n      dup1\n      0x1f\n      lt\n      tag_237\n      jumpi\n      0x0100\n      dup1\n      dup4\n      sload\n      div\n      mul\n      dup4\n      mstore\n      swap2\n      0x20\n      add\n      swap2\n      jump(tag_236)\n    tag_237:\n      dup3\n      add\n      swap2\n      swap1\n      0x00\n      mstore\n      keccak256(0x00, 0x20)\n      swap1\n    tag_238:\n      dup2\n      sload\n      dup2\n      mstore\n      swap1\n      0x01\n      add\n      swap1\n      0x20\n      add\n      dup1\n      dup4\n      gt\n      tag_238\n      jumpi\n      dup3\n      swap1\n      sub\n      0x1f\n      and\n      dup3\n      add\n      swap2\n    tag_236:\n      pop\n      pop\n      pop\n      pop\n      pop\n      mload(0x40)\n      dup1\n      0x20\n      add\n      0x40\n      mstore\n      dup1\n      0x00\n      dup2\n      mstore\n      pop\n        /* \"contracts/TravelRuleProgram.sol\":1352:1366  compareStrings */\n      tag_89\n        /* \"contracts/TravelRuleProgram.sol\":1352:1413  compareStrings(transactions[transactionId].receiversData, \"\") */\n      jump\t// in\n    tag_230:\n        /* \"contracts/TravelRuleProgram.sol\":1351:1413  !compareStrings(transactions[transactionId].receiversData, \"\") */\n      iszero\n        /* \"contracts/TravelRuleProgram.sol\":1343:1440  require(!compareStrings(transactions[transactionId].receiversData, \"\"), \"Only for completed AML\") */\n      tag_239\n      jumpi\n      mload(0x40)\n      0x08c379a000000000000000000000000000000000000000000000000000000000\n      dup2\n      mstore\n      0x04\n      add\n      tag_240\n      swap1\n      tag_92\n      jump\t// in\n    tag_240:\n      mload(0x40)\n      dup1\n      swap2\n      sub\n      swap1\n      revert\n    tag_239:\n        /* \"contracts/TravelRuleProgram.sol\":5008:5059  setAmlStatusForSender(transactionId, status, false) */\n      tag_242\n        /* \"contracts/TravelRuleProgram.sol\":5030:5043  transactionId */\n      dup4\n        /* \"contracts/TravelRuleProgram.sol\":5045:5051  status */\n      dup4\n        /* \"contracts/TravelRuleProgram.sol\":5053:5058  false */\n      0x00\n        /* \"contracts/TravelRuleProgram.sol\":5008:5029  setAmlStatusForSender */\n      tag_51\n        /* \"contracts/TravelRuleProgram.sol\":5008:5059  setAmlStatusForSender(transactionId, status, false) */\n      jump\t// in\n    tag_242:\n        /* \"@openzeppelin/contracts/access/Ownable.sol\":1117:1118  _ */\n      pop\n        /* \"contracts/TravelRuleProgram.sol\":4859:5066  function setAmlStatusForSender(... */\n      pop\n      pop\n      jump\t// out\n        /* \"@openzeppelin/contracts/access/Ownable.sol\":1201:1286  function owner() public view virtual returns (address) {... */\n    tag_46:\n        /* \"@openzeppelin/contracts/access/Ownable.sol\":1247:1254  address */\n      0x00\n        /* \"@openzeppelin/contracts/access/Ownable.sol\":1273:1279  _owner */\n      dup1\n      0x00\n      swap1\n      sload\n      swap1\n      0x0100\n      exp\n      swap1\n      div\n      0xffffffffffffffffffffffffffffffffffffffff\n      and\n        /* \"@openzeppelin/contracts/access/Ownable.sol\":1266:1279  return _owner */\n      swap1\n      pop\n        /* \"@openzeppelin/contracts/access/Ownable.sol\":1201:1286  function owner() public view virtual returns (address) {... */\n      swap1\n      jump\t// out\n        /* \"contracts/TravelRuleProgram.sol\":5072:5664  function setAmlStatusForSender(... */\n    tag_51:\n        /* \"@openzeppelin/contracts/access/Ownable.sol\":1094:1107  _checkOwner() */\n      tag_245\n        /* \"@openzeppelin/contracts/access/Ownable.sol\":1094:1105  _checkOwner */\n      tag_76\n        /* \"@openzeppelin/contracts/access/Ownable.sol\":1094:1107  _checkOwner() */\n      jump\t// in\n    tag_245:\n        /* \"contracts/TravelRuleProgram.sol\":5220:5233  transactionId */\n      dup3\n        /* \"contracts/TravelRuleProgram.sol\":1247:1306  compareStrings(transactions[transactionId].sendersData, \"\") */\n      tag_247\n        /* \"contracts/TravelRuleProgram.sol\":1262:1274  transactions */\n      0x01\n        /* \"contracts/TravelRuleProgram.sol\":1275:1288  transactionId */\n      dup3\n        /* \"contracts/TravelRuleProgram.sol\":1262:1289  transactions[transactionId] */\n      dup2\n      sload\n      dup2\n      lt\n      tag_248\n      jumpi\n      tag_249\n      tag_81\n      jump\t// in\n    tag_249:\n    tag_248:\n      swap1\n      0x00\n      mstore\n      keccak256(0x00, 0x20)\n      swap1\n      0x06\n      mul\n      add\n        /* \"contracts/TravelRuleProgram.sol\":1262:1301  transactions[transactionId].sendersData */\n      0x03\n      add\n        /* \"contracts/TravelRuleProgram.sol\":1247:1306  compareStrings(transactions[transactionId].sendersData, \"\") */\n      dup1\n      sload\n      tag_251\n      swap1\n      tag_84\n      jump\t// in\n    tag_251:\n      dup1\n      0x1f\n      add\n      0x20\n      dup1\n      swap2\n      div\n      mul\n      0x20\n      add\n      mload(0x40)\n      swap1\n      dup2\n      add\n      0x40\n      mstore\n      dup1\n      swap3\n      swap2\n      swap1\n      dup2\n      dup2\n      mstore\n      0x20\n      add\n      dup3\n      dup1\n      sload\n      tag_252\n      swap1\n      tag_84\n      jump\t// in\n    tag_252:\n      dup1\n      iszero\n      tag_253\n      jumpi\n      dup1\n      0x1f\n      lt\n      tag_254\n      jumpi\n      0x0100\n      dup1\n      dup4\n      sload\n      div\n      mul\n      dup4\n      mstore\n      swap2\n      0x20\n      add\n      swap2\n      jump(tag_253)\n    tag_254:\n      dup3\n      add\n      swap2\n      swap1\n      0x00\n      mstore\n      keccak256(0x00, 0x20)\n      swap1\n    tag_255:\n      dup2\n      sload\n      dup2\n      mstore\n      swap1\n      0x01\n      add\n      swap1\n      0x20\n      add\n      dup1\n      dup4\n      gt\n      tag_255\n      jumpi\n      dup3\n      swap1\n      sub\n      0x1f\n      and\n      dup3\n      add\n      swap2\n    tag_253:\n      pop\n      pop\n      pop\n      pop\n      pop\n      mload(0x40)\n      dup1\n      0x20\n      add\n      0x40\n      mstore\n      dup1\n      0x00\n      dup2\n      mstore\n      pop\n        /* \"contracts/TravelRuleProgram.sol\":1247:1261  compareStrings */\n      tag_89\n        /* \"contracts/TravelRuleProgram.sol\":1247:1306  compareStrings(transactions[transactionId].sendersData, \"\") */\n      jump\t// in\n    tag_247:\n        /* \"contracts/TravelRuleProgram.sol\":1246:1306  !compareStrings(transactions[transactionId].sendersData, \"\") */\n      iszero\n        /* \"contracts/TravelRuleProgram.sol\":1238:1333  require(!compareStrings(transactions[transactionId].sendersData, \"\"), \"Only for completed AML\") */\n      tag_256\n      jumpi\n      mload(0x40)\n      0x08c379a000000000000000000000000000000000000000000000000000000000\n      dup2\n      mstore\n      0x04\n      add\n      tag_257\n      swap1\n      tag_92\n      jump\t// in\n    tag_257:\n      mload(0x40)\n      dup1\n      swap2\n      sub\n      swap1\n      revert\n    tag_256:\n        /* \"contracts/TravelRuleProgram.sol\":1352:1413  compareStrings(transactions[transactionId].receiversData, \"\") */\n      tag_258\n        /* \"contracts/TravelRuleProgram.sol\":1367:1379  transactions */\n      0x01\n        /* \"contracts/TravelRuleProgram.sol\":1380:1393  transactionId */\n      dup3\n        /* \"contracts/TravelRuleProgram.sol\":1367:1394  transactions[transactionId] */\n      dup2\n      sload\n      dup2\n      lt\n      tag_259\n      jumpi\n      tag_260\n      tag_81\n      jump\t// in\n    tag_260:\n    tag_259:\n      swap1\n      0x00\n      mstore\n      keccak256(0x00, 0x20)\n      swap1\n      0x06\n      mul\n      add\n        /* \"contracts/TravelRuleProgram.sol\":1367:1408  transactions[transactionId].receiversData */\n      0x04\n      add\n        /* \"contracts/TravelRuleProgram.sol\":1352:1413  compareStrings(transactions[transactionId].receiversData, \"\") */\n      dup1\n      sload\n      tag_262\n      swap1\n      tag_84\n      jump\t// in\n    tag_262:\n      dup1\n      0x1f\n      add\n      0x20\n      dup1\n      swap2\n      div\n      mul\n      0x20\n      add\n      mload(0x40)\n      swap1\n      dup2\n      add\n      0x40\n      mstore\n      dup1\n      swap3\n      swap2\n      swap1\n      dup2\n      dup2\n      mstore\n      0x20\n      add\n      dup3\n      dup1\n      sload\n      tag_263\n      swap1\n      tag_84\n      jump\t// in\n    tag_263:\n      dup1\n      iszero\n      tag_264\n      jumpi\n      dup1\n      0x1f\n      lt\n      tag_265\n      jumpi\n      0x0100\n      dup1\n      dup4\n      sload\n      div\n      mul\n      dup4\n      mstore\n      swap2\n      0x20\n      add\n      swap2\n      jump(tag_264)\n    tag_265:\n      dup3\n      add\n      swap2\n      swap1\n      0x00\n      mstore\n      keccak256(0x00, 0x20)\n      swap1\n    tag_266:\n      dup2\n      sload\n      dup2\n      mstore\n      swap1\n      0x01\n      add\n      swap1\n      0x20\n      add\n      dup1\n      dup4\n      gt\n      tag_266\n      jumpi\n      dup3\n      swap1\n      sub\n      0x1f\n      and\n      dup3\n      add\n      swap2\n    tag_264:\n      pop\n      pop\n      pop\n      pop\n      pop\n      mload(0x40)\n      dup1\n      0x20\n      add\n      0x40\n      mstore\n      dup1\n      0x00\n      dup2\n      mstore\n      pop\n        /* \"contracts/TravelRuleProgram.sol\":1352:1366  compareStrings */\n      tag_89\n        /* \"contracts/TravelRuleProgram.sol\":1352:1413  compareStrings(transactions[transactionId].receiversData, \"\") */\n      jump\t// in\n    tag_258:\n        /* \"contracts/TravelRuleProgram.sol\":1351:1413  !compareStrings(transactions[transactionId].receiversData, \"\") */\n      iszero\n        /* \"contracts/TravelRuleProgram.sol\":1343:1440  require(!compareStrings(transactions[transactionId].receiversData, \"\"), \"Only for completed AML\") */\n      tag_267\n      jumpi\n      mload(0x40)\n      0x08c379a000000000000000000000000000000000000000000000000000000000\n      dup2\n      mstore\n      0x04\n      add\n      tag_268\n      swap1\n      tag_92\n      jump\t// in\n    tag_268:\n      mload(0x40)\n      dup1\n      swap2\n      sub\n      swap1\n      revert\n    tag_267:\n        /* \"contracts/TravelRuleProgram.sol\":5297:5298  0 */\n      0x00\n        /* \"contracts/TravelRuleProgram.sol\":5253:5265  transactions */\n      0x01\n        /* \"contracts/TravelRuleProgram.sol\":5266:5279  transactionId */\n      dup6\n        /* \"contracts/TravelRuleProgram.sol\":5253:5280  transactions[transactionId] */\n      dup2\n      sload\n      dup2\n      lt\n      tag_270\n      jumpi\n      tag_271\n      tag_81\n      jump\t// in\n    tag_271:\n    tag_270:\n      swap1\n      0x00\n      mstore\n      keccak256(0x00, 0x20)\n      swap1\n      0x06\n      mul\n      add\n        /* \"contracts/TravelRuleProgram.sol\":5253:5293  transactions[transactionId].amlForSender */\n      0x05\n      add\n      0x00\n      swap1\n      sload\n      swap1\n      0x0100\n      exp\n      swap1\n      div\n      0xff\n      and\n        /* \"contracts/TravelRuleProgram.sol\":5253:5298  transactions[transactionId].amlForSender == 0 */\n      0xff\n      and\n      eq\n        /* \"contracts/TravelRuleProgram.sol\":5245:5353  require(transactions[transactionId].amlForSender == 0, \"Can not update transaction AML status: already set\") */\n      tag_273\n      jumpi\n      mload(0x40)\n      0x08c379a000000000000000000000000000000000000000000000000000000000\n      dup2\n      mstore\n      0x04\n      add\n      tag_274\n      swap1\n      tag_204\n      jump\t// in\n    tag_274:\n      mload(0x40)\n      dup1\n      swap2\n      sub\n      swap1\n      revert\n    tag_273:\n        /* \"contracts/TravelRuleProgram.sol\":5406:5412  status */\n      dup3\n        /* \"contracts/TravelRuleProgram.sol\":5363:5375  transactions */\n      0x01\n        /* \"contracts/TravelRuleProgram.sol\":5376:5389  transactionId */\n      dup6\n        /* \"contracts/TravelRuleProgram.sol\":5363:5390  transactions[transactionId] */\n      dup2\n      sload\n      dup2\n      lt\n      tag_275\n      jumpi\n      tag_276\n      tag_81\n      jump\t// in\n    tag_276:\n    tag_275:\n      swap1\n      0x00\n      mstore\n      keccak256(0x00, 0x20)\n      swap1\n      0x06\n      mul\n      add\n        /* \"contracts/TravelRuleProgram.sol\":5363:5403  transactions[transactionId].amlForSender */\n      0x05\n      add\n      0x00\n        /* \"contracts/TravelRuleProgram.sol\":5363:5412  transactions[transactionId].amlForSender = status */\n      0x0100\n      exp\n      dup2\n      sload\n      dup2\n      0xff\n      mul\n      not\n      and\n      swap1\n      dup4\n      0xff\n      and\n      mul\n      or\n      swap1\n      sstore\n      pop\n        /* \"contracts/TravelRuleProgram.sol\":5427:5436  emitEvent */\n      dup2\n        /* \"contracts/TravelRuleProgram.sol\":5423:5658  if (emitEvent) {... */\n      iszero\n      tag_278\n      jumpi\n        /* \"contracts/TravelRuleProgram.sol\":5457:5647  TransactionAmlStatusUpdated(... */\n      0x4cea1f87adb8c58c2d35aa0a3723745ff782300a0479866fc1e478a8740df8e5\n        /* \"contracts/TravelRuleProgram.sol\":5502:5515  transactionId */\n      dup5\n        /* \"contracts/TravelRuleProgram.sol\":5533:5545  transactions */\n      0x01\n        /* \"contracts/TravelRuleProgram.sol\":5546:5559  transactionId */\n      dup7\n        /* \"contracts/TravelRuleProgram.sol\":5533:5560  transactions[transactionId] */\n      dup2\n      sload\n      dup2\n      lt\n      tag_279\n      jumpi\n      tag_280\n      tag_81\n      jump\t// in\n    tag_280:\n    tag_279:\n      swap1\n      0x00\n      mstore\n      keccak256(0x00, 0x20)\n      swap1\n      0x06\n      mul\n      add\n        /* \"contracts/TravelRuleProgram.sol\":5533:5573  transactions[transactionId].amlForSender */\n      0x05\n      add\n      0x00\n      swap1\n      sload\n      swap1\n      0x0100\n      exp\n      swap1\n      div\n      0xff\n      and\n        /* \"contracts/TravelRuleProgram.sol\":5591:5603  transactions */\n      0x01\n        /* \"contracts/TravelRuleProgram.sol\":5604:5617  transactionId */\n      dup8\n        /* \"contracts/TravelRuleProgram.sol\":5591:5618  transactions[transactionId] */\n      dup2\n      sload\n      dup2\n      lt\n      tag_282\n      jumpi\n      tag_283\n      tag_81\n      jump\t// in\n    tag_283:\n    tag_282:\n      swap1\n      0x00\n      mstore\n      keccak256(0x00, 0x20)\n      swap1\n      0x06\n      mul\n      add\n        /* \"contracts/TravelRuleProgram.sol\":5591:5633  transactions[transactionId].amlForReceiver */\n      0x05\n      add\n      0x01\n      swap1\n      sload\n      swap1\n      0x0100\n      exp\n      swap1\n      div\n      0xff\n      and\n        /* \"contracts/TravelRuleProgram.sol\":5457:5647  TransactionAmlStatusUpdated(... */\n      mload(0x40)\n      tag_285\n      swap4\n      swap3\n      swap2\n      swap1\n      tag_108\n      jump\t// in\n    tag_285:\n      mload(0x40)\n      dup1\n      swap2\n      sub\n      swap1\n      log1\n        /* \"contracts/TravelRuleProgram.sol\":5423:5658  if (emitEvent) {... */\n    tag_278:\n        /* \"@openzeppelin/contracts/access/Ownable.sol\":1117:1118  _ */\n      pop\n        /* \"contracts/TravelRuleProgram.sol\":5072:5664  function setAmlStatusForSender(... */\n      pop\n      pop\n      pop\n      jump\t// out\n        /* \"contracts/TravelRuleProgram.sol\":1464:1869  function addTransaction(... */\n    tag_55:\n        /* \"contracts/TravelRuleProgram.sol\":1586:1593  uint256 */\n      0x00\n        /* \"contracts/TravelRuleProgram.sol\":1605:1615  uint256 id */\n      dup1\n        /* \"contracts/TravelRuleProgram.sol\":1618:1630  transactions */\n      0x01\n        /* \"contracts/TravelRuleProgram.sol\":1618:1637  transactions.length */\n      dup1\n      sload\n      swap1\n      pop\n        /* \"contracts/TravelRuleProgram.sol\":1605:1637  uint256 id = transactions.length */\n      swap1\n      pop\n        /* \"contracts/TravelRuleProgram.sol\":1647:1659  transactions */\n      0x01\n        /* \"contracts/TravelRuleProgram.sol\":1665:1807  Transaction(... */\n      mload(0x40)\n      dup1\n      0xe0\n      add\n      0x40\n      mstore\n      dup1\n        /* \"contracts/TravelRuleProgram.sol\":1690:1692  id */\n      dup4\n        /* \"contracts/TravelRuleProgram.sol\":1665:1807  Transaction(... */\n      dup2\n      mstore\n      0x20\n      add\n        /* \"contracts/TravelRuleProgram.sol\":1706:1710  from */\n      dup8\n        /* \"contracts/TravelRuleProgram.sol\":1665:1807  Transaction(... */\n      0xffffffffffffffffffffffffffffffffffffffff\n      and\n      dup2\n      mstore\n      0x20\n      add\n        /* \"contracts/TravelRuleProgram.sol\":1724:1726  to */\n      dup7\n        /* \"contracts/TravelRuleProgram.sol\":1665:1807  Transaction(... */\n      0xffffffffffffffffffffffffffffffffffffffff\n      and\n      dup2\n      mstore\n      0x20\n      add\n        /* \"contracts/TravelRuleProgram.sol\":1740:1751  sendersData */\n      dup6\n        /* \"contracts/TravelRuleProgram.sol\":1665:1807  Transaction(... */\n      dup2\n      mstore\n      0x20\n      add\n      mload(0x40)\n      dup1\n      0x20\n      add\n      0x40\n      mstore\n      dup1\n      0x00\n      dup2\n      mstore\n      pop\n      dup2\n      mstore\n      0x20\n      add\n        /* \"contracts/TravelRuleProgram.sol\":1781:1782  0 */\n      0x00\n        /* \"contracts/TravelRuleProgram.sol\":1665:1807  Transaction(... */\n      0xff\n      and\n      dup2\n      mstore\n      0x20\n      add\n        /* \"contracts/TravelRuleProgram.sol\":1796:1797  0 */\n      0x00\n        /* \"contracts/TravelRuleProgram.sol\":1665:1807  Transaction(... */\n      0xff\n      and\n      dup2\n      mstore\n      pop\n        /* \"contracts/TravelRuleProgram.sol\":1647:1808  transactions.push(Transaction(... */\n      swap1\n      dup1\n      0x01\n      dup2\n      sload\n      add\n      dup1\n      dup3\n      sstore\n      dup1\n      swap2\n      pop\n      pop\n      0x01\n      swap1\n      sub\n      swap1\n      0x00\n      mstore\n      keccak256(0x00, 0x20)\n      swap1\n      0x06\n      mul\n      add\n      0x00\n      swap1\n      swap2\n      swap1\n      swap2\n      swap1\n      swap2\n      pop\n      0x00\n      dup3\n      add\n      mload\n      dup2\n      0x00\n      add\n      sstore\n      0x20\n      dup3\n      add\n      mload\n      dup2\n      0x01\n      add\n      exp(0x0100, 0x00)\n      dup2\n      sload\n      dup2\n      0xffffffffffffffffffffffffffffffffffffffff\n      mul\n      not\n      and\n      swap1\n      dup4\n      0xffffffffffffffffffffffffffffffffffffffff\n      and\n      mul\n      or\n      swap1\n      sstore\n      pop\n      0x40\n      dup3\n      add\n      mload\n      dup2\n      0x02\n      add\n      exp(0x0100, 0x00)\n      dup2\n      sload\n      dup2\n      0xffffffffffffffffffffffffffffffffffffffff\n      mul\n      not\n      and\n      swap1\n      dup4\n      0xffffffffffffffffffffffffffffffffffffffff\n      and\n      mul\n      or\n      swap1\n      sstore\n      pop\n      0x60\n      dup3\n      add\n      mload\n      dup2\n      0x03\n      add\n      swap1\n      dup1\n      mload\n      swap1\n      0x20\n      add\n      swap1\n      tag_288\n      swap3\n      swap2\n      swap1\n      tag_289\n      jump\t// in\n    tag_288:\n      pop\n      0x80\n      dup3\n      add\n      mload\n      dup2\n      0x04\n      add\n      swap1\n      dup1\n      mload\n      swap1\n      0x20\n      add\n      swap1\n      tag_290\n      swap3\n      swap2\n      swap1\n      tag_289\n      jump\t// in\n    tag_290:\n      pop\n      0xa0\n      dup3\n      add\n      mload\n      dup2\n      0x05\n      add\n      exp(0x0100, 0x00)\n      dup2\n      sload\n      dup2\n      0xff\n      mul\n      not\n      and\n      swap1\n      dup4\n      0xff\n      and\n      mul\n      or\n      swap1\n      sstore\n      pop\n      0xc0\n      dup3\n      add\n      mload\n      dup2\n      0x05\n      add\n      exp(0x0100, 0x01)\n      dup2\n      sload\n      dup2\n      0xff\n      mul\n      not\n      and\n      swap1\n      dup4\n      0xff\n      and\n      mul\n      or\n      swap1\n      sstore\n      pop\n      pop\n      pop\n        /* \"contracts/TravelRuleProgram.sol\":1824:1842  AddTransaction(id) */\n      0x9ae2c53c3ca5e00a02cd45d501b75b8f6aeb8e6fe512b7bbe1e8691b9d3c8ce8\n        /* \"contracts/TravelRuleProgram.sol\":1839:1841  id */\n      dup2\n        /* \"contracts/TravelRuleProgram.sol\":1824:1842  AddTransaction(id) */\n      mload(0x40)\n      tag_291\n      swap2\n      swap1\n      tag_57\n      jump\t// in\n    tag_291:\n      mload(0x40)\n      dup1\n      swap2\n      sub\n      swap1\n      log1\n        /* \"contracts/TravelRuleProgram.sol\":1860:1862  id */\n      dup1\n        /* \"contracts/TravelRuleProgram.sol\":1853:1862  return id */\n      swap2\n      pop\n      pop\n        /* \"contracts/TravelRuleProgram.sol\":1464:1869  function addTransaction(... */\n      swap4\n      swap3\n      pop\n      pop\n      pop\n      jump\t// out\n        /* \"contracts/TravelRuleProgram.sol\":1875:2388  function updateReceiversData(... */\n    tag_61:\n        /* \"contracts/TravelRuleProgram.sol\":1995:2025  Transaction memory transaction */\n      0x00\n        /* \"contracts/TravelRuleProgram.sol\":2028:2040  transactions */\n      0x01\n        /* \"contracts/TravelRuleProgram.sol\":2041:2054  transactionId */\n      dup4\n        /* \"contracts/TravelRuleProgram.sol\":2028:2055  transactions[transactionId] */\n      dup2\n      sload\n      dup2\n      lt\n      tag_293\n      jumpi\n      tag_294\n      tag_81\n      jump\t// in\n    tag_294:\n    tag_293:\n      swap1\n      0x00\n      mstore\n      keccak256(0x00, 0x20)\n      swap1\n      0x06\n      mul\n      add\n        /* \"contracts/TravelRuleProgram.sol\":1995:2055  Transaction memory transaction = transactions[transactionId] */\n      mload(0x40)\n      dup1\n      0xe0\n      add\n      0x40\n      mstore\n      swap1\n      dup2\n      0x00\n      dup3\n      add\n      sload\n      dup2\n      mstore\n      0x20\n      add\n      0x01\n      dup3\n      add\n      0x00\n      swap1\n      sload\n      swap1\n      0x0100\n      exp\n      swap1\n      div\n      0xffffffffffffffffffffffffffffffffffffffff\n      and\n      0xffffffffffffffffffffffffffffffffffffffff\n      and\n      0xffffffffffffffffffffffffffffffffffffffff\n      and\n      dup2\n      mstore\n      0x20\n      add\n      0x02\n      dup3\n      add\n      0x00\n      swap1\n      sload\n      swap1\n      0x0100\n      exp\n      swap1\n      div\n      0xffffffffffffffffffffffffffffffffffffffff\n      and\n      0xffffffffffffffffffffffffffffffffffffffff\n      and\n      0xffffffffffffffffffffffffffffffffffffffff\n      and\n      dup2\n      mstore\n      0x20\n      add\n      0x03\n      dup3\n      add\n      dup1\n      sload\n      tag_296\n      swap1\n      tag_84\n      jump\t// in\n    tag_296:\n      dup1\n      0x1f\n      add\n      0x20\n      dup1\n      swap2\n      div\n      mul\n      0x20\n      add\n      mload(0x40)\n      swap1\n      dup2\n      add\n      0x40\n      mstore\n      dup1\n      swap3\n      swap2\n      swap1\n      dup2\n      dup2\n      mstore\n      0x20\n      add\n      dup3\n      dup1\n      sload\n      tag_297\n      swap1\n      tag_84\n      jump\t// in\n    tag_297:\n      dup1\n      iszero\n      tag_298\n      jumpi\n      dup1\n      0x1f\n      lt\n      tag_299\n      jumpi\n      0x0100\n      dup1\n      dup4\n      sload\n      div\n      mul\n      dup4\n      mstore\n      swap2\n      0x20\n      add\n      swap2\n      jump(tag_298)\n    tag_299:\n      dup3\n      add\n      swap2\n      swap1\n      0x00\n      mstore\n      keccak256(0x00, 0x20)\n      swap1\n    tag_300:\n      dup2\n      sload\n      dup2\n      mstore\n      swap1\n      0x01\n      add\n      swap1\n      0x20\n      add\n      dup1\n      dup4\n      gt\n      tag_300\n      jumpi\n      dup3\n      swap1\n      sub\n      0x1f\n      and\n      dup3\n      add\n      swap2\n    tag_298:\n      pop\n      pop\n      pop\n      pop\n      pop\n      dup2\n      mstore\n      0x20\n      add\n      0x04\n      dup3\n      add\n      dup1\n      sload\n      tag_301\n      swap1\n      tag_84\n      jump\t// in\n    tag_301:\n      dup1\n      0x1f\n      add\n      0x20\n      dup1\n      swap2\n      div\n      mul\n      0x20\n      add\n      mload(0x40)\n      swap1\n      dup2\n      add\n      0x40\n      mstore\n      dup1\n      swap3\n      swap2\n      swap1\n      dup2\n      dup2\n      mstore\n      0x20\n      add\n      dup3\n      dup1\n      sload\n      tag_302\n      swap1\n      tag_84\n      jump\t// in\n    tag_302:\n      dup1\n      iszero\n      tag_303\n      jumpi\n      dup1\n      0x1f\n      lt\n      tag_304\n      jumpi\n      0x0100\n      dup1\n      dup4\n      sload\n      div\n      mul\n      dup4\n      mstore\n      swap2\n      0x20\n      add\n      swap2\n      jump(tag_303)\n    tag_304:\n      dup3\n      add\n      swap2\n      swap1\n      0x00\n      mstore\n      keccak256(0x00, 0x20)\n      swap1\n    tag_305:\n      dup2\n      sload\n      dup2\n      mstore\n      swap1\n      0x01\n      add\n      swap1\n      0x20\n      add\n      dup1\n      dup4\n      gt\n      tag_305\n      jumpi\n      dup3\n      swap1\n      sub\n      0x1f\n      and\n      dup3\n      add\n      swap2\n    tag_303:\n      pop\n      pop\n      pop\n      pop\n      pop\n      dup2\n      mstore\n      0x20\n      add\n      0x05\n      dup3\n      add\n      0x00\n      swap1\n      sload\n      swap1\n      0x0100\n      exp\n      swap1\n      div\n      0xff\n      and\n      0xff\n      and\n      0xff\n      and\n      dup2\n      mstore\n      0x20\n      add\n      0x05\n      dup3\n      add\n      0x01\n      swap1\n      sload\n      swap1\n      0x0100\n      exp\n      swap1\n      div\n      0xff\n      and\n      0xff\n      and\n      0xff\n      and\n      dup2\n      mstore\n      pop\n      pop\n      swap1\n      pop\n        /* \"contracts/TravelRuleProgram.sol\":2082:2127  compareStrings(transaction.receiversData, \"\") */\n      tag_306\n        /* \"contracts/TravelRuleProgram.sol\":2097:2108  transaction */\n      dup2\n        /* \"contracts/TravelRuleProgram.sol\":2097:2122  transaction.receiversData */\n      0x80\n      add\n      mload\n        /* \"contracts/TravelRuleProgram.sol\":2082:2127  compareStrings(transaction.receiversData, \"\") */\n      mload(0x40)\n      dup1\n      0x20\n      add\n      0x40\n      mstore\n      dup1\n      0x00\n      dup2\n      mstore\n      pop\n        /* \"contracts/TravelRuleProgram.sol\":2082:2096  compareStrings */\n      tag_89\n        /* \"contracts/TravelRuleProgram.sol\":2082:2127  compareStrings(transaction.receiversData, \"\") */\n      jump\t// in\n    tag_306:\n        /* \"contracts/TravelRuleProgram.sol\":2074:2193  require(compareStrings(transaction.receiversData, \"\"), \"Can not update receiver. Transaction already has been updated\") */\n      tag_307\n      jumpi\n      mload(0x40)\n      0x08c379a000000000000000000000000000000000000000000000000000000000\n      dup2\n      mstore\n      0x04\n      add\n      tag_308\n      swap1\n      tag_309\n      jump\t// in\n    tag_308:\n      mload(0x40)\n      dup1\n      swap2\n      sub\n      swap1\n      revert\n    tag_307:\n        /* \"contracts/TravelRuleProgram.sol\":2229:2239  msg.sender */\n      caller\n        /* \"contracts/TravelRuleProgram.sol\":2211:2239  transaction.to == msg.sender */\n      0xffffffffffffffffffffffffffffffffffffffff\n      and\n        /* \"contracts/TravelRuleProgram.sol\":2211:2222  transaction */\n      dup2\n        /* \"contracts/TravelRuleProgram.sol\":2211:2225  transaction.to */\n      0x40\n      add\n      mload\n        /* \"contracts/TravelRuleProgram.sol\":2211:2239  transaction.to == msg.sender */\n      0xffffffffffffffffffffffffffffffffffffffff\n      and\n      eq\n        /* \"contracts/TravelRuleProgram.sol\":2211:2269  transaction.to == msg.sender || this.owner() == msg.sender */\n      dup1\n      tag_310\n      jumpi\n      pop\n        /* \"contracts/TravelRuleProgram.sol\":2259:2269  msg.sender */\n      caller\n        /* \"contracts/TravelRuleProgram.sol\":2243:2269  this.owner() == msg.sender */\n      0xffffffffffffffffffffffffffffffffffffffff\n      and\n        /* \"contracts/TravelRuleProgram.sol\":2243:2247  this */\n      address\n        /* \"contracts/TravelRuleProgram.sol\":2243:2253  this.owner */\n      0xffffffffffffffffffffffffffffffffffffffff\n      and\n      0x8da5cb5b\n        /* \"contracts/TravelRuleProgram.sol\":2243:2255  this.owner() */\n      mload(0x40)\n      dup2\n      0xffffffff\n      and\n      0xe0\n      shl\n      dup2\n      mstore\n      0x04\n      add\n      0x20\n      mload(0x40)\n      dup1\n      dup4\n      sub\n      dup2\n      dup7\n      dup1\n      extcodesize\n      iszero\n      dup1\n      iszero\n      tag_311\n      jumpi\n      0x00\n      dup1\n      revert\n    tag_311:\n      pop\n      gas\n      staticcall\n      iszero\n      dup1\n      iszero\n      tag_313\n      jumpi\n      returndatasize\n      0x00\n      dup1\n      returndatacopy\n      revert(0x00, returndatasize)\n    tag_313:\n      pop\n      pop\n      pop\n      pop\n      mload(0x40)\n      returndatasize\n      not(0x1f)\n      0x1f\n      dup3\n      add\n      and\n      dup3\n      add\n      dup1\n      0x40\n      mstore\n      pop\n      dup2\n      add\n      swap1\n      tag_314\n      swap2\n      swap1\n      tag_315\n      jump\t// in\n    tag_314:\n        /* \"contracts/TravelRuleProgram.sol\":2243:2269  this.owner() == msg.sender */\n      0xffffffffffffffffffffffffffffffffffffffff\n      and\n      eq\n        /* \"contracts/TravelRuleProgram.sol\":2211:2269  transaction.to == msg.sender || this.owner() == msg.sender */\n    tag_310:\n        /* \"contracts/TravelRuleProgram.sol\":2203:2313  require(transaction.to == msg.sender || this.owner() == msg.sender, \"Can not update receiver. Invalid sender\") */\n      tag_316\n      jumpi\n      mload(0x40)\n      0x08c379a000000000000000000000000000000000000000000000000000000000\n      dup2\n      mstore\n      0x04\n      add\n      tag_317\n      swap1\n      tag_318\n      jump\t// in\n    tag_317:\n      mload(0x40)\n      dup1\n      swap2\n      sub\n      swap1\n      revert\n    tag_316:\n        /* \"contracts/TravelRuleProgram.sol\":2368:2381  receiversData */\n      dup2\n        /* \"contracts/TravelRuleProgram.sol\":2324:2336  transactions */\n      0x01\n        /* \"contracts/TravelRuleProgram.sol\":2337:2350  transactionId */\n      dup5\n        /* \"contracts/TravelRuleProgram.sol\":2324:2351  transactions[transactionId] */\n      dup2\n      sload\n      dup2\n      lt\n      tag_319\n      jumpi\n      tag_320\n      tag_81\n      jump\t// in\n    tag_320:\n    tag_319:\n      swap1\n      0x00\n      mstore\n      keccak256(0x00, 0x20)\n      swap1\n      0x06\n      mul\n      add\n        /* \"contracts/TravelRuleProgram.sol\":2324:2365  transactions[transactionId].receiversData */\n      0x04\n      add\n        /* \"contracts/TravelRuleProgram.sol\":2324:2381  transactions[transactionId].receiversData = receiversData */\n      swap1\n      dup1\n      mload\n      swap1\n      0x20\n      add\n      swap1\n      tag_322\n      swap3\n      swap2\n      swap1\n      tag_289\n      jump\t// in\n    tag_322:\n      pop\n        /* \"contracts/TravelRuleProgram.sol\":1985:2388  {... */\n      pop\n        /* \"contracts/TravelRuleProgram.sol\":1875:2388  function updateReceiversData(... */\n      pop\n      pop\n      jump\t// out\n        /* \"contracts/TravelRuleProgram.sol\":4030:4241  function setAmlStatusForReceiver(... */\n    tag_64:\n        /* \"@openzeppelin/contracts/access/Ownable.sol\":1094:1107  _checkOwner() */\n      tag_324\n        /* \"@openzeppelin/contracts/access/Ownable.sol\":1094:1105  _checkOwner */\n      tag_76\n        /* \"@openzeppelin/contracts/access/Ownable.sol\":1094:1107  _checkOwner() */\n      jump\t// in\n    tag_324:\n        /* \"contracts/TravelRuleProgram.sol\":4156:4169  transactionId */\n      dup2\n        /* \"contracts/TravelRuleProgram.sol\":1247:1306  compareStrings(transactions[transactionId].sendersData, \"\") */\n      tag_326\n        /* \"contracts/TravelRuleProgram.sol\":1262:1274  transactions */\n      0x01\n        /* \"contracts/TravelRuleProgram.sol\":1275:1288  transactionId */\n      dup3\n        /* \"contracts/TravelRuleProgram.sol\":1262:1289  transactions[transactionId] */\n      dup2\n      sload\n      dup2\n      lt\n      tag_327\n      jumpi\n      tag_328\n      tag_81\n      jump\t// in\n    tag_328:\n    tag_327:\n      swap1\n      0x00\n      mstore\n      keccak256(0x00, 0x20)\n      swap1\n      0x06\n      mul\n      add\n        /* \"contracts/TravelRuleProgram.sol\":1262:1301  transactions[transactionId].sendersData */\n      0x03\n      add\n        /* \"contracts/TravelRuleProgram.sol\":1247:1306  compareStrings(transactions[transactionId].sendersData, \"\") */\n      dup1\n      sload\n      tag_330\n      swap1\n      tag_84\n      jump\t// in\n    tag_330:\n      dup1\n      0x1f\n      add\n      0x20\n      dup1\n      swap2\n      div\n      mul\n      0x20\n      add\n      mload(0x40)\n      swap1\n      dup2\n      add\n      0x40\n      mstore\n      dup1\n      swap3\n      swap2\n      swap1\n      dup2\n      dup2\n      mstore\n      0x20\n      add\n      dup3\n      dup1\n      sload\n      tag_331\n      swap1\n      tag_84\n      jump\t// in\n    tag_331:\n      dup1\n      iszero\n      tag_332\n      jumpi\n      dup1\n      0x1f\n      lt\n      tag_333\n      jumpi\n      0x0100\n      dup1\n      dup4\n      sload\n      div\n      mul\n      dup4\n      mstore\n      swap2\n      0x20\n      add\n      swap2\n      jump(tag_332)\n    tag_333:\n      dup3\n      add\n      swap2\n      swap1\n      0x00\n      mstore\n      keccak256(0x00, 0x20)\n      swap1\n    tag_334:\n      dup2\n      sload\n      dup2\n      mstore\n      swap1\n      0x01\n      add\n      swap1\n      0x20\n      add\n      dup1\n      dup4\n      gt\n      tag_334\n      jumpi\n      dup3\n      swap1\n      sub\n      0x1f\n      and\n      dup3\n      add\n      swap2\n    tag_332:\n      pop\n      pop\n      pop\n      pop\n      pop\n      mload(0x40)\n      dup1\n      0x20\n      add\n      0x40\n      mstore\n      dup1\n      0x00\n      dup2\n      mstore\n      pop\n        /* \"contracts/TravelRuleProgram.sol\":1247:1261  compareStrings */\n      tag_89\n        /* \"contracts/TravelRuleProgram.sol\":1247:1306  compareStrings(transactions[transactionId].sendersData, \"\") */\n      jump\t// in\n    tag_326:\n        /* \"contracts/TravelRuleProgram.sol\":1246:1306  !compareStrings(transactions[transactionId].sendersData, \"\") */\n      iszero\n        /* \"contracts/TravelRuleProgram.sol\":1238:1333  require(!compareStrings(transactions[transactionId].sendersData, \"\"), \"Only for completed AML\") */\n      tag_335\n      jumpi\n      mload(0x40)\n      0x08c379a000000000000000000000000000000000000000000000000000000000\n      dup2\n      mstore\n      0x04\n      add\n      tag_336\n      swap1\n      tag_92\n      jump\t// in\n    tag_336:\n      mload(0x40)\n      dup1\n      swap2\n      sub\n      swap1\n      revert\n    tag_335:\n        /* \"contracts/TravelRuleProgram.sol\":1352:1413  compareStrings(transactions[transactionId].receiversData, \"\") */\n      tag_337\n        /* \"contracts/TravelRuleProgram.sol\":1367:1379  transactions */\n      0x01\n        /* \"contracts/TravelRuleProgram.sol\":1380:1393  transactionId */\n      dup3\n        /* \"contracts/TravelRuleProgram.sol\":1367:1394  transactions[transactionId] */\n      dup2\n      sload\n      dup2\n      lt\n      tag_338\n      jumpi\n      tag_339\n      tag_81\n      jump\t// in\n    tag_339:\n    tag_338:\n      swap1\n      0x00\n      mstore\n      keccak256(0x00, 0x20)\n      swap1\n      0x06\n      mul\n      add\n        /* \"contracts/TravelRuleProgram.sol\":1367:1408  transactions[transactionId].receiversData */\n      0x04\n      add\n        /* \"contracts/TravelRuleProgram.sol\":1352:1413  compareStrings(transactions[transactionId].receiversData, \"\") */\n      dup1\n      sload\n      tag_341\n      swap1\n      tag_84\n      jump\t// in\n    tag_341:\n      dup1\n      0x1f\n      add\n      0x20\n      dup1\n      swap2\n      div\n      mul\n      0x20\n      add\n      mload(0x40)\n      swap1\n      dup2\n      add\n      0x40\n      mstore\n      dup1\n      swap3\n      swap2\n      swap1\n      dup2\n      dup2\n      mstore\n      0x20\n      add\n      dup3\n      dup1\n      sload\n      tag_342\n      swap1\n      tag_84\n      jump\t// in\n    tag_342:\n      dup1\n      iszero\n      tag_343\n      jumpi\n      dup1\n      0x1f\n      lt\n      tag_344\n      jumpi\n      0x0100\n      dup1\n      dup4\n      sload\n      div\n      mul\n      dup4\n      mstore\n      swap2\n      0x20\n      add\n      swap2\n      jump(tag_343)\n    tag_344:\n      dup3\n      add\n      swap2\n      swap1\n      0x00\n      mstore\n      keccak256(0x00, 0x20)\n      swap1\n    tag_345:\n      dup2\n      sload\n      dup2\n      mstore\n      swap1\n      0x01\n      add\n      swap1\n      0x20\n      add\n      dup1\n      dup4\n      gt\n      tag_345\n      jumpi\n      dup3\n      swap1\n      sub\n      0x1f\n      and\n      dup3\n      add\n      swap2\n    tag_343:\n      pop\n      pop\n      pop\n      pop\n      pop\n      mload(0x40)\n      dup1\n      0x20\n      add\n      0x40\n      mstore\n      dup1\n      0x00\n      dup2\n      mstore\n      pop\n        /* \"contracts/TravelRuleProgram.sol\":1352:1366  compareStrings */\n      tag_89\n        /* \"contracts/TravelRuleProgram.sol\":1352:1413  compareStrings(transactions[transactionId].receiversData, \"\") */\n      jump\t// in\n    tag_337:\n        /* \"contracts/TravelRuleProgram.sol\":1351:1413  !compareStrings(transactions[transactionId].receiversData, \"\") */\n      iszero\n        /* \"contracts/TravelRuleProgram.sol\":1343:1440  require(!compareStrings(transactions[transactionId].receiversData, \"\"), \"Only for completed AML\") */\n      tag_346\n      jumpi\n      mload(0x40)\n      0x08c379a000000000000000000000000000000000000000000000000000000000\n      dup2\n      mstore\n      0x04\n      add\n      tag_347\n      swap1\n      tag_92\n      jump\t// in\n    tag_347:\n      mload(0x40)\n      dup1\n      swap2\n      sub\n      swap1\n      revert\n    tag_346:\n        /* \"contracts/TravelRuleProgram.sol\":4181:4234  setAmlStatusForReceiver(transactionId, status, false) */\n      tag_349\n        /* \"contracts/TravelRuleProgram.sol\":4205:4218  transactionId */\n      dup4\n        /* \"contracts/TravelRuleProgram.sol\":4220:4226  status */\n      dup4\n        /* \"contracts/TravelRuleProgram.sol\":4228:4233  false */\n      0x00\n        /* \"contracts/TravelRuleProgram.sol\":4181:4204  setAmlStatusForReceiver */\n      tag_40\n        /* \"contracts/TravelRuleProgram.sol\":4181:4234  setAmlStatusForReceiver(transactionId, status, false) */\n      jump\t// in\n    tag_349:\n        /* \"@openzeppelin/contracts/access/Ownable.sol\":1117:1118  _ */\n      pop\n        /* \"contracts/TravelRuleProgram.sol\":4030:4241  function setAmlStatusForReceiver(... */\n      pop\n      pop\n      jump\t// out\n        /* \"contracts/TravelRuleProgram.sol\":3120:4024  function getTransactionsForReceiver(address to, uint256 count) public view returns(Transaction[] memory) {... */\n    tag_68:\n        /* \"contracts/TravelRuleProgram.sol\":3203:3223  Transaction[] memory */\n      0x60\n        /* \"contracts/TravelRuleProgram.sol\":3251:3254  100 */\n      0x64\n        /* \"contracts/TravelRuleProgram.sol\":3243:3248  count */\n      dup3\n        /* \"contracts/TravelRuleProgram.sol\":3243:3254  count < 100 */\n      lt\n        /* \"contracts/TravelRuleProgram.sol\":3235:3327  require(count < 100, \"Can not get transactions list. The maximum transactions count is 100\") */\n      tag_351\n      jumpi\n      mload(0x40)\n      0x08c379a000000000000000000000000000000000000000000000000000000000\n      dup2\n      mstore\n      0x04\n      add\n      tag_352\n      swap1\n      tag_131\n      jump\t// in\n    tag_352:\n      mload(0x40)\n      dup1\n      swap2\n      sub\n      swap1\n      revert\n    tag_351:\n        /* \"contracts/TravelRuleProgram.sol\":3338:3357  uint256 resultCount */\n      0x00\n        /* \"contracts/TravelRuleProgram.sol\":3373:3379  uint i */\n      dup1\n        /* \"contracts/TravelRuleProgram.sol\":3382:3383  0 */\n      0x00\n        /* \"contracts/TravelRuleProgram.sol\":3373:3383  uint i = 0 */\n      swap1\n      pop\n        /* \"contracts/TravelRuleProgram.sol\":3368:3515  for (uint i = 0; i < transactions.length; i++) {... */\n    tag_353:\n        /* \"contracts/TravelRuleProgram.sol\":3389:3401  transactions */\n      0x01\n        /* \"contracts/TravelRuleProgram.sol\":3389:3408  transactions.length */\n      dup1\n      sload\n      swap1\n      pop\n        /* \"contracts/TravelRuleProgram.sol\":3385:3386  i */\n      dup2\n        /* \"contracts/TravelRuleProgram.sol\":3385:3408  i < transactions.length */\n      lt\n        /* \"contracts/TravelRuleProgram.sol\":3368:3515  for (uint i = 0; i < transactions.length; i++) {... */\n      iszero\n      tag_354\n      jumpi\n        /* \"contracts/TravelRuleProgram.sol\":3455:3457  to */\n      dup5\n        /* \"contracts/TravelRuleProgram.sol\":3433:3457  transactions[i].to == to */\n      0xffffffffffffffffffffffffffffffffffffffff\n      and\n        /* \"contracts/TravelRuleProgram.sol\":3433:3445  transactions */\n      0x01\n        /* \"contracts/TravelRuleProgram.sol\":3446:3447  i */\n      dup3\n        /* \"contracts/TravelRuleProgram.sol\":3433:3448  transactions[i] */\n      dup2\n      sload\n      dup2\n      lt\n      tag_356\n      jumpi\n      tag_357\n      tag_81\n      jump\t// in\n    tag_357:\n    tag_356:\n      swap1\n      0x00\n      mstore\n      keccak256(0x00, 0x20)\n      swap1\n      0x06\n      mul\n      add\n        /* \"contracts/TravelRuleProgram.sol\":3433:3451  transactions[i].to */\n      0x02\n      add\n      0x00\n      swap1\n      sload\n      swap1\n      0x0100\n      exp\n      swap1\n      div\n      0xffffffffffffffffffffffffffffffffffffffff\n      and\n        /* \"contracts/TravelRuleProgram.sol\":3433:3457  transactions[i].to == to */\n      0xffffffffffffffffffffffffffffffffffffffff\n      and\n      eq\n        /* \"contracts/TravelRuleProgram.sol\":3429:3505  if (transactions[i].to == to) {... */\n      iszero\n      tag_359\n      jumpi\n        /* \"contracts/TravelRuleProgram.sol\":3477:3490  resultCount++ */\n      dup2\n      dup1\n      tag_360\n      swap1\n      tag_165\n      jump\t// in\n    tag_360:\n      swap3\n      pop\n      pop\n        /* \"contracts/TravelRuleProgram.sol\":3429:3505  if (transactions[i].to == to) {... */\n    tag_359:\n        /* \"contracts/TravelRuleProgram.sol\":3410:3413  i++ */\n      dup1\n      dup1\n      tag_361\n      swap1\n      tag_165\n      jump\t// in\n    tag_361:\n      swap2\n      pop\n      pop\n        /* \"contracts/TravelRuleProgram.sol\":3368:3515  for (uint i = 0; i < transactions.length; i++) {... */\n      jump(tag_353)\n    tag_354:\n      pop\n        /* \"contracts/TravelRuleProgram.sol\":3525:3539  uint256 length */\n      0x00\n        /* \"contracts/TravelRuleProgram.sol\":3556:3561  count */\n      dup4\n        /* \"contracts/TravelRuleProgram.sol\":3542:3553  resultCount */\n      dup3\n        /* \"contracts/TravelRuleProgram.sol\":3542:3561  resultCount < count */\n      lt\n        /* \"contracts/TravelRuleProgram.sol\":3542:3583  resultCount < count ? resultCount : count */\n      tag_362\n      jumpi\n        /* \"contracts/TravelRuleProgram.sol\":3578:3583  count */\n      dup4\n        /* \"contracts/TravelRuleProgram.sol\":3542:3583  resultCount < count ? resultCount : count */\n      jump(tag_363)\n    tag_362:\n        /* \"contracts/TravelRuleProgram.sol\":3564:3575  resultCount */\n      dup2\n        /* \"contracts/TravelRuleProgram.sol\":3542:3583  resultCount < count ? resultCount : count */\n    tag_363:\n        /* \"contracts/TravelRuleProgram.sol\":3525:3583  uint256 length = resultCount < count ? resultCount : count */\n      swap1\n      pop\n        /* \"contracts/TravelRuleProgram.sol\":3602:3626  Transaction[] memory txs */\n      0x00\n        /* \"contracts/TravelRuleProgram.sol\":3647:3658  resultCount */\n      dup3\n        /* \"contracts/TravelRuleProgram.sol\":3629:3659  new Transaction[](resultCount) */\n      0xffffffffffffffff\n      dup2\n      gt\n      iszero\n      tag_364\n      jumpi\n      tag_365\n      tag_140\n      jump\t// in\n    tag_365:\n    tag_364:\n      mload(0x40)\n      swap1\n      dup1\n      dup3\n      mstore\n      dup1\n      0x20\n      mul\n      0x20\n      add\n      dup3\n      add\n      0x40\n      mstore\n      dup1\n      iszero\n      tag_366\n      jumpi\n      dup2\n      0x20\n      add\n    tag_367:\n      tag_368\n      tag_144\n      jump\t// in\n    tag_368:\n      dup2\n      mstore\n      0x20\n      add\n      swap1\n      0x01\n      swap1\n      sub\n      swap1\n      dup2\n      tag_367\n      jumpi\n      swap1\n      pop\n    tag_366:\n      pop\n        /* \"contracts/TravelRuleProgram.sol\":3602:3659  Transaction[] memory txs = new Transaction[](resultCount) */\n      swap1\n      pop\n        /* \"contracts/TravelRuleProgram.sol\":3669:3678  uint256 k */\n      0x00\n        /* \"contracts/TravelRuleProgram.sol\":3689:3704  uint256 _length */\n      dup1\n        /* \"contracts/TravelRuleProgram.sol\":3707:3719  transactions */\n      0x01\n        /* \"contracts/TravelRuleProgram.sol\":3707:3726  transactions.length */\n      dup1\n      sload\n      swap1\n      pop\n        /* \"contracts/TravelRuleProgram.sol\":3689:3726  uint256 _length = transactions.length */\n      swap1\n      pop\n        /* \"contracts/TravelRuleProgram.sol\":3741:3747  uint i */\n      0x00\n        /* \"contracts/TravelRuleProgram.sol\":3750:3757  _length */\n      dup2\n        /* \"contracts/TravelRuleProgram.sol\":3741:3757  uint i = _length */\n      swap1\n      pop\n        /* \"contracts/TravelRuleProgram.sol\":3736:3997  for (uint i = _length; i > 0; i--) {... */\n    tag_369:\n        /* \"contracts/TravelRuleProgram.sol\":3763:3764  0 */\n      0x00\n        /* \"contracts/TravelRuleProgram.sol\":3759:3760  i */\n      dup2\n        /* \"contracts/TravelRuleProgram.sol\":3759:3764  i > 0 */\n      gt\n        /* \"contracts/TravelRuleProgram.sol\":3736:3997  for (uint i = _length; i > 0; i--) {... */\n      iszero\n      tag_370\n      jumpi\n        /* \"contracts/TravelRuleProgram.sol\":3815:3817  to */\n      dup9\n        /* \"contracts/TravelRuleProgram.sol\":3789:3817  transactions[i - 1].to == to */\n      0xffffffffffffffffffffffffffffffffffffffff\n      and\n        /* \"contracts/TravelRuleProgram.sol\":3789:3801  transactions */\n      0x01\n        /* \"contracts/TravelRuleProgram.sol\":3806:3807  1 */\n      dup1\n        /* \"contracts/TravelRuleProgram.sol\":3802:3803  i */\n      dup4\n        /* \"contracts/TravelRuleProgram.sol\":3802:3807  i - 1 */\n      tag_372\n      swap2\n      swap1\n      tag_135\n      jump\t// in\n    tag_372:\n        /* \"contracts/TravelRuleProgram.sol\":3789:3808  transactions[i - 1] */\n      dup2\n      sload\n      dup2\n      lt\n      tag_373\n      jumpi\n      tag_374\n      tag_81\n      jump\t// in\n    tag_374:\n    tag_373:\n      swap1\n      0x00\n      mstore\n      keccak256(0x00, 0x20)\n      swap1\n      0x06\n      mul\n      add\n        /* \"contracts/TravelRuleProgram.sol\":3789:3811  transactions[i - 1].to */\n      0x02\n      add\n      0x00\n      swap1\n      sload\n      swap1\n      0x0100\n      exp\n      swap1\n      div\n      0xffffffffffffffffffffffffffffffffffffffff\n      and\n        /* \"contracts/TravelRuleProgram.sol\":3789:3817  transactions[i - 1].to == to */\n      0xffffffffffffffffffffffffffffffffffffffff\n      and\n      eq\n        /* \"contracts/TravelRuleProgram.sol\":3785:3987  if (transactions[i - 1].to == to) {... */\n      iszero\n      tag_376\n      jumpi\n        /* \"contracts/TravelRuleProgram.sol\":3846:3858  transactions */\n      0x01\n        /* \"contracts/TravelRuleProgram.sol\":3863:3864  1 */\n      dup1\n        /* \"contracts/TravelRuleProgram.sol\":3859:3860  i */\n      dup3\n        /* \"contracts/TravelRuleProgram.sol\":3859:3864  i - 1 */\n      tag_377\n      swap2\n      swap1\n      tag_135\n      jump\t// in\n    tag_377:\n        /* \"contracts/TravelRuleProgram.sol\":3846:3865  transactions[i - 1] */\n      dup2\n      sload\n      dup2\n      lt\n      tag_378\n      jumpi\n      tag_379\n      tag_81\n      jump\t// in\n    tag_379:\n    tag_378:\n      swap1\n      0x00\n      mstore\n      keccak256(0x00, 0x20)\n      swap1\n      0x06\n      mul\n      add\n        /* \"contracts/TravelRuleProgram.sol\":3837:3865  txs[k] = transactions[i - 1] */\n      mload(0x40)\n      dup1\n      0xe0\n      add\n      0x40\n      mstore\n      swap1\n      dup2\n      0x00\n      dup3\n      add\n      sload\n      dup2\n      mstore\n      0x20\n      add\n      0x01\n      dup3\n      add\n      0x00\n      swap1\n      sload\n      swap1\n      0x0100\n      exp\n      swap1\n      div\n      0xffffffffffffffffffffffffffffffffffffffff\n      and\n      0xffffffffffffffffffffffffffffffffffffffff\n      and\n      0xffffffffffffffffffffffffffffffffffffffff\n      and\n      dup2\n      mstore\n      0x20\n      add\n      0x02\n      dup3\n      add\n      0x00\n      swap1\n      sload\n      swap1\n      0x0100\n      exp\n      swap1\n      div\n      0xffffffffffffffffffffffffffffffffffffffff\n      and\n      0xffffffffffffffffffffffffffffffffffffffff\n      and\n      0xffffffffffffffffffffffffffffffffffffffff\n      and\n      dup2\n      mstore\n      0x20\n      add\n      0x03\n      dup3\n      add\n      dup1\n      sload\n      tag_381\n      swap1\n      tag_84\n      jump\t// in\n    tag_381:\n      dup1\n      0x1f\n      add\n      0x20\n      dup1\n      swap2\n      div\n      mul\n      0x20\n      add\n      mload(0x40)\n      swap1\n      dup2\n      add\n      0x40\n      mstore\n      dup1\n      swap3\n      swap2\n      swap1\n      dup2\n      dup2\n      mstore\n      0x20\n      add\n      dup3\n      dup1\n      sload\n      tag_382\n      swap1\n      tag_84\n      jump\t// in\n    tag_382:\n      dup1\n      iszero\n      tag_383\n      jumpi\n      dup1\n      0x1f\n      lt\n      tag_384\n      jumpi\n      0x0100\n      dup1\n      dup4\n      sload\n      div\n      mul\n      dup4\n      mstore\n      swap2\n      0x20\n      add\n      swap2\n      jump(tag_383)\n    tag_384:\n      dup3\n      add\n      swap2\n      swap1\n      0x00\n      mstore\n      keccak256(0x00, 0x20)\n      swap1\n    tag_385:\n      dup2\n      sload\n      dup2\n      mstore\n      swap1\n      0x01\n      add\n      swap1\n      0x20\n      add\n      dup1\n      dup4\n      gt\n      tag_385\n      jumpi\n      dup3\n      swap1\n      sub\n      0x1f\n      and\n      dup3\n      add\n      swap2\n    tag_383:\n      pop\n      pop\n      pop\n      pop\n      pop\n      dup2\n      mstore\n      0x20\n      add\n      0x04\n      dup3\n      add\n      dup1\n      sload\n      tag_386\n      swap1\n      tag_84\n      jump\t// in\n    tag_386:\n      dup1\n      0x1f\n      add\n      0x20\n      dup1\n      swap2\n      div\n      mul\n      0x20\n      add\n      mload(0x40)\n      swap1\n      dup2\n      add\n      0x40\n      mstore\n      dup1\n      swap3\n      swap2\n      swap1\n      dup2\n      dup2\n      mstore\n      0x20\n      add\n      dup3\n      dup1\n      sload\n      tag_387\n      swap1\n      tag_84\n      jump\t// in\n    tag_387:\n      dup1\n      iszero\n      tag_388\n      jumpi\n      dup1\n      0x1f\n      lt\n      tag_389\n      jumpi\n      0x0100\n      dup1\n      dup4\n      sload\n      div\n      mul\n      dup4\n      mstore\n      swap2\n      0x20\n      add\n      swap2\n      jump(tag_388)\n    tag_389:\n      dup3\n      add\n      swap2\n      swap1\n      0x00\n      mstore\n      keccak256(0x00, 0x20)\n      swap1\n    tag_390:\n      dup2\n      sload\n      dup2\n      mstore\n      swap1\n      0x01\n      add\n      swap1\n      0x20\n      add\n      dup1\n      dup4\n      gt\n      tag_390\n      jumpi\n      dup3\n      swap1\n      sub\n      0x1f\n      and\n      dup3\n      add\n      swap2\n    tag_388:\n      pop\n      pop\n      pop\n      pop\n      pop\n      dup2\n      mstore\n      0x20\n      add\n      0x05\n      dup3\n      add\n      0x00\n      swap1\n      sload\n      swap1\n      0x0100\n      exp\n      swap1\n      div\n      0xff\n      and\n      0xff\n      and\n      0xff\n      and\n      dup2\n      mstore\n      0x20\n      add\n      0x05\n      dup3\n      add\n      0x01\n      swap1\n      sload\n      swap1\n      0x0100\n      exp\n      swap1\n      div\n      0xff\n      and\n      0xff\n      and\n      0xff\n      and\n      dup2\n      mstore\n      pop\n      pop\n        /* \"contracts/TravelRuleProgram.sol\":3837:3840  txs */\n      dup5\n        /* \"contracts/TravelRuleProgram.sol\":3841:3842  k */\n      dup5\n        /* \"contracts/TravelRuleProgram.sol\":3837:3843  txs[k] */\n      dup2\n      mload\n      dup2\n      lt\n      tag_391\n      jumpi\n      tag_392\n      tag_81\n      jump\t// in\n    tag_392:\n    tag_391:\n      0x20\n      mul\n      0x20\n      add\n      add\n        /* \"contracts/TravelRuleProgram.sol\":3837:3865  txs[k] = transactions[i - 1] */\n      dup2\n      swap1\n      mstore\n      pop\n        /* \"contracts/TravelRuleProgram.sol\":3883:3886  k++ */\n      dup3\n      dup1\n      tag_393\n      swap1\n      tag_165\n      jump\t// in\n    tag_393:\n      swap4\n      pop\n      pop\n        /* \"contracts/TravelRuleProgram.sol\":3914:3920  length */\n      dup5\n        /* \"contracts/TravelRuleProgram.sol\":3909:3910  k */\n      dup4\n        /* \"contracts/TravelRuleProgram.sol\":3909:3920  k == length */\n      eq\n        /* \"contracts/TravelRuleProgram.sol\":3905:3973  if (k == length) {... */\n      iszero\n      tag_394\n      jumpi\n        /* \"contracts/TravelRuleProgram.sol\":3951:3954  txs */\n      dup4\n        /* \"contracts/TravelRuleProgram.sol\":3944:3954  return txs */\n      swap7\n      pop\n      pop\n      pop\n      pop\n      pop\n      pop\n      pop\n      jump(tag_350)\n        /* \"contracts/TravelRuleProgram.sol\":3905:3973  if (k == length) {... */\n    tag_394:\n        /* \"contracts/TravelRuleProgram.sol\":3785:3987  if (transactions[i - 1].to == to) {... */\n    tag_376:\n        /* \"contracts/TravelRuleProgram.sol\":3766:3769  i-- */\n      dup1\n      dup1\n      tag_395\n      swap1\n      tag_167\n      jump\t// in\n    tag_395:\n      swap2\n      pop\n      pop\n        /* \"contracts/TravelRuleProgram.sol\":3736:3997  for (uint i = _length; i > 0; i--) {... */\n      jump(tag_369)\n    tag_370:\n      pop\n        /* \"contracts/TravelRuleProgram.sol\":4014:4017  txs */\n      dup3\n        /* \"contracts/TravelRuleProgram.sol\":4007:4017  return txs */\n      swap6\n      pop\n      pop\n      pop\n      pop\n      pop\n      pop\n        /* \"contracts/TravelRuleProgram.sol\":3120:4024  function getTransactionsForReceiver(address to, uint256 count) public view returns(Transaction[] memory) {... */\n    tag_350:\n      swap3\n      swap2\n      pop\n      pop\n      jump\t// out\n        /* \"@openzeppelin/contracts/access/Ownable.sol\":2081:2279  function transferOwnership(address newOwner) public virtual onlyOwner {... */\n    tag_73:\n        /* \"@openzeppelin/contracts/access/Ownable.sol\":1094:1107  _checkOwner() */\n      tag_397\n        /* \"@openzeppelin/contracts/access/Ownable.sol\":1094:1105  _checkOwner */\n      tag_76\n        /* \"@openzeppelin/contracts/access/Ownable.sol\":1094:1107  _checkOwner() */\n      jump\t// in\n    tag_397:\n        /* \"@openzeppelin/contracts/access/Ownable.sol\":2189:2190  0 */\n      0x00\n        /* \"@openzeppelin/contracts/access/Ownable.sol\":2169:2191  newOwner != address(0) */\n      0xffffffffffffffffffffffffffffffffffffffff\n      and\n        /* \"@openzeppelin/contracts/access/Ownable.sol\":2169:2177  newOwner */\n      dup2\n        /* \"@openzeppelin/contracts/access/Ownable.sol\":2169:2191  newOwner != address(0) */\n      0xffffffffffffffffffffffffffffffffffffffff\n      and\n      eq\n      iszero\n        /* \"@openzeppelin/contracts/access/Ownable.sol\":2161:2234  require(newOwner != address(0), \"Ownable: new owner is the zero address\") */\n      tag_399\n      jumpi\n      mload(0x40)\n      0x08c379a000000000000000000000000000000000000000000000000000000000\n      dup2\n      mstore\n      0x04\n      add\n      tag_400\n      swap1\n      tag_401\n      jump\t// in\n    tag_400:\n      mload(0x40)\n      dup1\n      swap2\n      sub\n      swap1\n      revert\n    tag_399:\n        /* \"@openzeppelin/contracts/access/Ownable.sol\":2244:2272  _transferOwnership(newOwner) */\n      tag_402\n        /* \"@openzeppelin/contracts/access/Ownable.sol\":2263:2271  newOwner */\n      dup2\n        /* \"@openzeppelin/contracts/access/Ownable.sol\":2244:2262  _transferOwnership */\n      tag_172\n        /* \"@openzeppelin/contracts/access/Ownable.sol\":2244:2272  _transferOwnership(newOwner) */\n      jump\t// in\n    tag_402:\n        /* \"@openzeppelin/contracts/access/Ownable.sol\":2081:2279  function transferOwnership(address newOwner) public virtual onlyOwner {... */\n      pop\n      jump\t// out\n        /* \"@openzeppelin/contracts/access/Ownable.sol\":1359:1489  function _checkOwner() internal view virtual {... */\n    tag_76:\n        /* \"@openzeppelin/contracts/access/Ownable.sol\":1433:1445  _msgSender() */\n      tag_404\n        /* \"@openzeppelin/contracts/access/Ownable.sol\":1433:1443  _msgSender */\n      tag_405\n        /* \"@openzeppelin/contracts/access/Ownable.sol\":1433:1445  _msgSender() */\n      jump\t// in\n    tag_404:\n        /* \"@openzeppelin/contracts/access/Ownable.sol\":1422:1445  owner() == _msgSender() */\n      0xffffffffffffffffffffffffffffffffffffffff\n      and\n        /* \"@openzeppelin/contracts/access/Ownable.sol\":1422:1429  owner() */\n      tag_406\n        /* \"@openzeppelin/contracts/access/Ownable.sol\":1422:1427  owner */\n      tag_46\n        /* \"@openzeppelin/contracts/access/Ownable.sol\":1422:1429  owner() */\n      jump\t// in\n    tag_406:\n        /* \"@openzeppelin/contracts/access/Ownable.sol\":1422:1445  owner() == _msgSender() */\n      0xffffffffffffffffffffffffffffffffffffffff\n      and\n      eq\n        /* \"@openzeppelin/contracts/access/Ownable.sol\":1414:1482  require(owner() == _msgSender(), \"Ownable: caller is not the owner\") */\n      tag_407\n      jumpi\n      mload(0x40)\n      0x08c379a000000000000000000000000000000000000000000000000000000000\n      dup2\n      mstore\n      0x04\n      add\n      tag_408\n      swap1\n      tag_409\n      jump\t// in\n    tag_408:\n      mload(0x40)\n      dup1\n      swap2\n      sub\n      swap1\n      revert\n    tag_407:\n        /* \"@openzeppelin/contracts/access/Ownable.sol\":1359:1489  function _checkOwner() internal view virtual {... */\n      jump\t// out\n        /* \"contracts/TravelRuleProgram.sol\":610:790  function compareStrings(string memory a, string memory b) private pure returns (bool) {... */\n    tag_89:\n        /* \"contracts/TravelRuleProgram.sol\":690:694  bool */\n      0x00\n        /* \"contracts/TravelRuleProgram.sol\":778:779  b */\n      dup2\n        /* \"contracts/TravelRuleProgram.sol\":760:781  abi.encodePacked((b)) */\n      add(0x20, mload(0x40))\n      tag_411\n      swap2\n      swap1\n      tag_412\n      jump\t// in\n    tag_411:\n      mload(0x40)\n      0x20\n      dup2\n      dup4\n      sub\n      sub\n      dup2\n      mstore\n      swap1\n      0x40\n      mstore\n        /* \"contracts/TravelRuleProgram.sol\":750:782  keccak256(abi.encodePacked((b))) */\n      dup1\n      mload\n      swap1\n      0x20\n      add\n      keccak256\n        /* \"contracts/TravelRuleProgram.sol\":742:743  a */\n      dup4\n        /* \"contracts/TravelRuleProgram.sol\":724:745  abi.encodePacked((a)) */\n      add(0x20, mload(0x40))\n      tag_413\n      swap2\n      swap1\n      tag_412\n      jump\t// in\n    tag_413:\n      mload(0x40)\n      0x20\n      dup2\n      dup4\n      sub\n      sub\n      dup2\n      mstore\n      swap1\n      0x40\n      mstore\n        /* \"contracts/TravelRuleProgram.sol\":714:746  keccak256(abi.encodePacked((a))) */\n      dup1\n      mload\n      swap1\n      0x20\n      add\n      keccak256\n        /* \"contracts/TravelRuleProgram.sol\":714:782  keccak256(abi.encodePacked((a))) == keccak256(abi.encodePacked((b))) */\n      eq\n        /* \"contracts/TravelRuleProgram.sol\":706:783  return (keccak256(abi.encodePacked((a))) == keccak256(abi.encodePacked((b)))) */\n      swap1\n      pop\n        /* \"contracts/TravelRuleProgram.sol\":610:790  function compareStrings(string memory a, string memory b) private pure returns (bool) {... */\n      swap3\n      swap2\n      pop\n      pop\n      jump\t// out\n        /* \"@openzeppelin/contracts/access/Ownable.sol\":2433:2620  function _transferOwnership(address newOwner) internal virtual {... */\n    tag_172:\n        /* \"@openzeppelin/contracts/access/Ownable.sol\":2506:2522  address oldOwner */\n      0x00\n        /* \"@openzeppelin/contracts/access/Ownable.sol\":2525:2531  _owner */\n      dup1\n      0x00\n      swap1\n      sload\n      swap1\n      0x0100\n      exp\n      swap1\n      div\n      0xffffffffffffffffffffffffffffffffffffffff\n      and\n        /* \"@openzeppelin/contracts/access/Ownable.sol\":2506:2531  address oldOwner = _owner */\n      swap1\n      pop\n        /* \"@openzeppelin/contracts/access/Ownable.sol\":2550:2558  newOwner */\n      dup2\n        /* \"@openzeppelin/contracts/access/Ownable.sol\":2541:2547  _owner */\n      0x00\n      dup1\n        /* \"@openzeppelin/contracts/access/Ownable.sol\":2541:2558  _owner = newOwner */\n      0x0100\n      exp\n      dup2\n      sload\n      dup2\n      0xffffffffffffffffffffffffffffffffffffffff\n      mul\n      not\n      and\n      swap1\n      dup4\n      0xffffffffffffffffffffffffffffffffffffffff\n      and\n      mul\n      or\n      swap1\n      sstore\n      pop\n        /* \"@openzeppelin/contracts/access/Ownable.sol\":2604:2612  newOwner */\n      dup2\n        /* \"@openzeppelin/contracts/access/Ownable.sol\":2573:2613  OwnershipTransferred(oldOwner, newOwner) */\n      0xffffffffffffffffffffffffffffffffffffffff\n      and\n        /* \"@openzeppelin/contracts/access/Ownable.sol\":2594:2602  oldOwner */\n      dup2\n        /* \"@openzeppelin/contracts/access/Ownable.sol\":2573:2613  OwnershipTransferred(oldOwner, newOwner) */\n      0xffffffffffffffffffffffffffffffffffffffff\n      and\n      0x8be0079c531659141344cd1fd0a4f28419497f9722a3daafe3b4186f6b6457e0\n      mload(0x40)\n      mload(0x40)\n      dup1\n      swap2\n      sub\n      swap1\n      log3\n        /* \"@openzeppelin/contracts/access/Ownable.sol\":2496:2620  {... */\n      pop\n        /* \"@openzeppelin/contracts/access/Ownable.sol\":2433:2620  function _transferOwnership(address newOwner) internal virtual {... */\n      pop\n      jump\t// out\n        /* \"@openzeppelin/contracts/utils/Context.sol\":640:736  function _msgSender() internal view virtual returns (address) {... */\n    tag_405:\n        /* \"@openzeppelin/contracts/utils/Context.sol\":693:700  address */\n      0x00\n        /* \"@openzeppelin/contracts/utils/Context.sol\":719:729  msg.sender */\n      caller\n        /* \"@openzeppelin/contracts/utils/Context.sol\":712:729  return msg.sender */\n      swap1\n      pop\n        /* \"@openzeppelin/contracts/utils/Context.sol\":640:736  function _msgSender() internal view virtual returns (address) {... */\n      swap1\n      jump\t// out\n    tag_127:\n      pop\n      dup1\n      sload\n      0x00\n      dup3\n      sstore\n      0x06\n      mul\n      swap1\n      0x00\n      mstore\n      keccak256(0x00, 0x20)\n      swap1\n      dup2\n      add\n      swap1\n      tag_417\n      swap2\n      swap1\n      tag_418\n      jump\t// in\n    tag_417:\n      pop\n      jump\t// out\n    tag_144:\n      mload(0x40)\n      dup1\n      0xe0\n      add\n      0x40\n      mstore\n      dup1\n      0x00\n      dup2\n      mstore\n      0x20\n      add\n      and(0xffffffffffffffffffffffffffffffffffffffff, 0x00)\n      dup2\n      mstore\n      0x20\n      add\n      and(0xffffffffffffffffffffffffffffffffffffffff, 0x00)\n      dup2\n      mstore\n      0x20\n      add\n      0x60\n      dup2\n      mstore\n      0x20\n      add\n      0x60\n      dup2\n      mstore\n      0x20\n      add\n      and(0xff, 0x00)\n      dup2\n      mstore\n      0x20\n      add\n      and(0xff, 0x00)\n      dup2\n      mstore\n      pop\n      swap1\n      jump\t// out\n    tag_289:\n      dup3\n      dup1\n      sload\n      tag_419\n      swap1\n      tag_84\n      jump\t// in\n    tag_419:\n      swap1\n      0x00\n      mstore\n      keccak256(0x00, 0x20)\n      swap1\n      0x1f\n      add\n      0x20\n      swap1\n      div\n      dup2\n      add\n      swap3\n      dup3\n      tag_421\n      jumpi\n      0x00\n      dup6\n      sstore\n      jump(tag_420)\n    tag_421:\n      dup3\n      0x1f\n      lt\n      tag_422\n      jumpi\n      dup1\n      mload\n      not(0xff)\n      and\n      dup4\n      dup1\n      add\n      or\n      dup6\n      sstore\n      jump(tag_420)\n    tag_422:\n      dup3\n      dup1\n      add\n      0x01\n      add\n      dup6\n      sstore\n      dup3\n      iszero\n      tag_420\n      jumpi\n      swap2\n      dup3\n      add\n    tag_423:\n      dup3\n      dup2\n      gt\n      iszero\n      tag_424\n      jumpi\n      dup3\n      mload\n      dup3\n      sstore\n      swap2\n      0x20\n      add\n      swap2\n      swap1\n      0x01\n      add\n      swap1\n      jump(tag_423)\n    tag_424:\n    tag_420:\n      pop\n      swap1\n      pop\n      tag_425\n      swap2\n      swap1\n      tag_426\n      jump\t// in\n    tag_425:\n      pop\n      swap1\n      jump\t// out\n    tag_418:\n    tag_427:\n      dup1\n      dup3\n      gt\n      iszero\n      tag_428\n      jumpi\n      0x00\n      dup1\n      dup3\n      add\n      0x00\n      swap1\n      sstore\n      0x01\n      dup3\n      add\n      exp(0x0100, 0x00)\n      dup2\n      sload\n      swap1\n      0xffffffffffffffffffffffffffffffffffffffff\n      mul\n      not\n      and\n      swap1\n      sstore\n      0x02\n      dup3\n      add\n      exp(0x0100, 0x00)\n      dup2\n      sload\n      swap1\n      0xffffffffffffffffffffffffffffffffffffffff\n      mul\n      not\n      and\n      swap1\n      sstore\n      0x03\n      dup3\n      add\n      0x00\n      tag_429\n      swap2\n      swap1\n      tag_430\n      jump\t// in\n    tag_429:\n      0x04\n      dup3\n      add\n      0x00\n      tag_431\n      swap2\n      swap1\n      tag_430\n      jump\t// in\n    tag_431:\n      0x05\n      dup3\n      add\n      exp(0x0100, 0x00)\n      dup2\n      sload\n      swap1\n      0xff\n      mul\n      not\n      and\n      swap1\n      sstore\n      0x05\n      dup3\n      add\n      exp(0x0100, 0x01)\n      dup2\n      sload\n      swap1\n      0xff\n      mul\n      not\n      and\n      swap1\n      sstore\n      pop\n      0x06\n      add\n      jump(tag_427)\n    tag_428:\n      pop\n      swap1\n      jump\t// out\n    tag_426:\n    tag_432:\n      dup1\n      dup3\n      gt\n      iszero\n      tag_433\n      jumpi\n      0x00\n      dup2\n      0x00\n      swap1\n      sstore\n      pop\n      0x01\n      add\n      jump(tag_432)\n    tag_433:\n      pop\n      swap1\n      jump\t// out\n    tag_430:\n      pop\n      dup1\n      sload\n      tag_434\n      swap1\n      tag_84\n      jump\t// in\n    tag_434:\n      0x00\n      dup3\n      sstore\n      dup1\n      0x1f\n      lt\n      tag_436\n      jumpi\n      pop\n      jump(tag_435)\n    tag_436:\n      0x1f\n      add\n      0x20\n      swap1\n      div\n      swap1\n      0x00\n      mstore\n      keccak256(0x00, 0x20)\n      swap1\n      dup2\n      add\n      swap1\n      tag_437\n      swap2\n      swap1\n      tag_426\n      jump\t// in\n    tag_437:\n    tag_435:\n      pop\n      jump\t// out\n        /* \"#utility.yul\":7:419   */\n    tag_439:\n        /* \"#utility.yul\":85:90   */\n      0x00\n        /* \"#utility.yul\":110:176   */\n      tag_441\n        /* \"#utility.yul\":126:175   */\n      tag_442\n        /* \"#utility.yul\":168:174   */\n      dup5\n        /* \"#utility.yul\":126:175   */\n      tag_443\n      jump\t// in\n    tag_442:\n        /* \"#utility.yul\":110:176   */\n      tag_444\n      jump\t// in\n    tag_441:\n        /* \"#utility.yul\":101:176   */\n      swap1\n      pop\n        /* \"#utility.yul\":199:205   */\n      dup3\n        /* \"#utility.yul\":192:197   */\n      dup2\n        /* \"#utility.yul\":185:206   */\n      mstore\n        /* \"#utility.yul\":237:241   */\n      0x20\n        /* \"#utility.yul\":230:235   */\n      dup2\n        /* \"#utility.yul\":226:242   */\n      add\n        /* \"#utility.yul\":275:278   */\n      dup5\n        /* \"#utility.yul\":266:272   */\n      dup5\n        /* \"#utility.yul\":261:264   */\n      dup5\n        /* \"#utility.yul\":257:273   */\n      add\n        /* \"#utility.yul\":254:279   */\n      gt\n        /* \"#utility.yul\":251:363   */\n      iszero\n      tag_445\n      jumpi\n        /* \"#utility.yul\":282:361   */\n      tag_446\n      tag_447\n      jump\t// in\n    tag_446:\n        /* \"#utility.yul\":251:363   */\n    tag_445:\n        /* \"#utility.yul\":372:413   */\n      tag_448\n        /* \"#utility.yul\":406:412   */\n      dup5\n        /* \"#utility.yul\":401:404   */\n      dup3\n        /* \"#utility.yul\":396:399   */\n      dup6\n        /* \"#utility.yul\":372:413   */\n      tag_449\n      jump\t// in\n    tag_448:\n        /* \"#utility.yul\":91:419   */\n      pop\n        /* \"#utility.yul\":7:419   */\n      swap4\n      swap3\n      pop\n      pop\n      pop\n      jump\t// out\n        /* \"#utility.yul\":425:564   */\n    tag_450:\n        /* \"#utility.yul\":471:476   */\n      0x00\n        /* \"#utility.yul\":509:515   */\n      dup2\n        /* \"#utility.yul\":496:516   */\n      calldataload\n        /* \"#utility.yul\":487:516   */\n      swap1\n      pop\n        /* \"#utility.yul\":525:558   */\n      tag_452\n        /* \"#utility.yul\":552:557   */\n      dup2\n        /* \"#utility.yul\":525:558   */\n      tag_453\n      jump\t// in\n    tag_452:\n        /* \"#utility.yul\":425:564   */\n      swap3\n      swap2\n      pop\n      pop\n      jump\t// out\n        /* \"#utility.yul\":570:713   */\n    tag_454:\n        /* \"#utility.yul\":627:632   */\n      0x00\n        /* \"#utility.yul\":658:664   */\n      dup2\n        /* \"#utility.yul\":652:665   */\n      mload\n        /* \"#utility.yul\":643:665   */\n      swap1\n      pop\n        /* \"#utility.yul\":674:707   */\n      tag_456\n        /* \"#utility.yul\":701:706   */\n      dup2\n        /* \"#utility.yul\":674:707   */\n      tag_453\n      jump\t// in\n    tag_456:\n        /* \"#utility.yul\":570:713   */\n      swap3\n      swap2\n      pop\n      pop\n      jump\t// out\n        /* \"#utility.yul\":719:852   */\n    tag_457:\n        /* \"#utility.yul\":762:767   */\n      0x00\n        /* \"#utility.yul\":800:806   */\n      dup2\n        /* \"#utility.yul\":787:807   */\n      calldataload\n        /* \"#utility.yul\":778:807   */\n      swap1\n      pop\n        /* \"#utility.yul\":816:846   */\n      tag_459\n        /* \"#utility.yul\":840:845   */\n      dup2\n        /* \"#utility.yul\":816:846   */\n      tag_460\n      jump\t// in\n    tag_459:\n        /* \"#utility.yul\":719:852   */\n      swap3\n      swap2\n      pop\n      pop\n      jump\t// out\n        /* \"#utility.yul\":872:1212   */\n    tag_461:\n        /* \"#utility.yul\":928:933   */\n      0x00\n        /* \"#utility.yul\":977:980   */\n      dup3\n        /* \"#utility.yul\":970:974   */\n      0x1f\n        /* \"#utility.yul\":962:968   */\n      dup4\n        /* \"#utility.yul\":958:975   */\n      add\n        /* \"#utility.yul\":954:981   */\n      slt\n        /* \"#utility.yul\":944:1066   */\n      tag_463\n      jumpi\n        /* \"#utility.yul\":985:1064   */\n      tag_464\n      tag_465\n      jump\t// in\n    tag_464:\n        /* \"#utility.yul\":944:1066   */\n    tag_463:\n        /* \"#utility.yul\":1102:1108   */\n      dup2\n        /* \"#utility.yul\":1089:1109   */\n      calldataload\n        /* \"#utility.yul\":1127:1206   */\n      tag_466\n        /* \"#utility.yul\":1202:1205   */\n      dup5\n        /* \"#utility.yul\":1194:1200   */\n      dup3\n        /* \"#utility.yul\":1187:1191   */\n      0x20\n        /* \"#utility.yul\":1179:1185   */\n      dup7\n        /* \"#utility.yul\":1175:1192   */\n      add\n        /* \"#utility.yul\":1127:1206   */\n      tag_439\n      jump\t// in\n    tag_466:\n        /* \"#utility.yul\":1118:1206   */\n      swap2\n      pop\n        /* \"#utility.yul\":934:1212   */\n      pop\n        /* \"#utility.yul\":872:1212   */\n      swap3\n      swap2\n      pop\n      pop\n      jump\t// out\n        /* \"#utility.yul\":1218:1357   */\n    tag_467:\n        /* \"#utility.yul\":1264:1269   */\n      0x00\n        /* \"#utility.yul\":1302:1308   */\n      dup2\n        /* \"#utility.yul\":1289:1309   */\n      calldataload\n        /* \"#utility.yul\":1280:1309   */\n      swap1\n      pop\n        /* \"#utility.yul\":1318:1351   */\n      tag_469\n        /* \"#utility.yul\":1345:1350   */\n      dup2\n        /* \"#utility.yul\":1318:1351   */\n      tag_470\n      jump\t// in\n    tag_469:\n        /* \"#utility.yul\":1218:1357   */\n      swap3\n      swap2\n      pop\n      pop\n      jump\t// out\n        /* \"#utility.yul\":1363:1498   */\n    tag_471:\n        /* \"#utility.yul\":1407:1412   */\n      0x00\n        /* \"#utility.yul\":1445:1451   */\n      dup2\n        /* \"#utility.yul\":1432:1452   */\n      calldataload\n        /* \"#utility.yul\":1423:1452   */\n      swap1\n      pop\n        /* \"#utility.yul\":1461:1492   */\n      tag_473\n        /* \"#utility.yul\":1486:1491   */\n      dup2\n        /* \"#utility.yul\":1461:1492   */\n      tag_474\n      jump\t// in\n    tag_473:\n        /* \"#utility.yul\":1363:1498   */\n      swap3\n      swap2\n      pop\n      pop\n      jump\t// out\n        /* \"#utility.yul\":1504:1833   */\n    tag_72:\n        /* \"#utility.yul\":1563:1569   */\n      0x00\n        /* \"#utility.yul\":1612:1614   */\n      0x20\n        /* \"#utility.yul\":1600:1609   */\n      dup3\n        /* \"#utility.yul\":1591:1598   */\n      dup5\n        /* \"#utility.yul\":1587:1610   */\n      sub\n        /* \"#utility.yul\":1583:1615   */\n      slt\n        /* \"#utility.yul\":1580:1699   */\n      iszero\n      tag_476\n      jumpi\n        /* \"#utility.yul\":1618:1697   */\n      tag_477\n      tag_478\n      jump\t// in\n    tag_477:\n        /* \"#utility.yul\":1580:1699   */\n    tag_476:\n        /* \"#utility.yul\":1738:1739   */\n      0x00\n        /* \"#utility.yul\":1763:1816   */\n      tag_479\n        /* \"#utility.yul\":1808:1815   */\n      dup5\n        /* \"#utility.yul\":1799:1805   */\n      dup3\n        /* \"#utility.yul\":1788:1797   */\n      dup6\n        /* \"#utility.yul\":1784:1806   */\n      add\n        /* \"#utility.yul\":1763:1816   */\n      tag_450\n      jump\t// in\n    tag_479:\n        /* \"#utility.yul\":1753:1816   */\n      swap2\n      pop\n        /* \"#utility.yul\":1709:1826   */\n      pop\n        /* \"#utility.yul\":1504:1833   */\n      swap3\n      swap2\n      pop\n      pop\n      jump\t// out\n        /* \"#utility.yul\":1839:2190   */\n    tag_315:\n        /* \"#utility.yul\":1909:1915   */\n      0x00\n        /* \"#utility.yul\":1958:1960   */\n      0x20\n        /* \"#utility.yul\":1946:1955   */\n      dup3\n        /* \"#utility.yul\":1937:1944   */\n      dup5\n        /* \"#utility.yul\":1933:1956   */\n      sub\n        /* \"#utility.yul\":1929:1961   */\n      slt\n        /* \"#utility.yul\":1926:2045   */\n      iszero\n      tag_481\n      jumpi\n        /* \"#utility.yul\":1964:2043   */\n      tag_482\n      tag_478\n      jump\t// in\n    tag_482:\n        /* \"#utility.yul\":1926:2045   */\n    tag_481:\n        /* \"#utility.yul\":2084:2085   */\n      0x00\n        /* \"#utility.yul\":2109:2173   */\n      tag_483\n        /* \"#utility.yul\":2165:2172   */\n      dup5\n        /* \"#utility.yul\":2156:2162   */\n      dup3\n        /* \"#utility.yul\":2145:2154   */\n      dup6\n        /* \"#utility.yul\":2141:2163   */\n      add\n        /* \"#utility.yul\":2109:2173   */\n      tag_454\n      jump\t// in\n    tag_483:\n        /* \"#utility.yul\":2099:2173   */\n      swap2\n      pop\n        /* \"#utility.yul\":2055:2183   */\n      pop\n        /* \"#utility.yul\":1839:2190   */\n      swap3\n      swap2\n      pop\n      pop\n      jump\t// out\n        /* \"#utility.yul\":2196:2995   */\n    tag_54:\n        /* \"#utility.yul\":2283:2289   */\n      0x00\n        /* \"#utility.yul\":2291:2297   */\n      dup1\n        /* \"#utility.yul\":2299:2305   */\n      0x00\n        /* \"#utility.yul\":2348:2350   */\n      0x60\n        /* \"#utility.yul\":2336:2345   */\n      dup5\n        /* \"#utility.yul\":2327:2334   */\n      dup7\n        /* \"#utility.yul\":2323:2346   */\n      sub\n        /* \"#utility.yul\":2319:2351   */\n      slt\n        /* \"#utility.yul\":2316:2435   */\n      iszero\n      tag_485\n      jumpi\n        /* \"#utility.yul\":2354:2433   */\n      tag_486\n      tag_478\n      jump\t// in\n    tag_486:\n        /* \"#utility.yul\":2316:2435   */\n    tag_485:\n        /* \"#utility.yul\":2474:2475   */\n      0x00\n        /* \"#utility.yul\":2499:2552   */\n      tag_487\n        /* \"#utility.yul\":2544:2551   */\n      dup7\n        /* \"#utility.yul\":2535:2541   */\n      dup3\n        /* \"#utility.yul\":2524:2533   */\n      dup8\n        /* \"#utility.yul\":2520:2542   */\n      add\n        /* \"#utility.yul\":2499:2552   */\n      tag_450\n      jump\t// in\n    tag_487:\n        /* \"#utility.yul\":2489:2552   */\n      swap4\n      pop\n        /* \"#utility.yul\":2445:2562   */\n      pop\n        /* \"#utility.yul\":2601:2603   */\n      0x20\n        /* \"#utility.yul\":2627:2680   */\n      tag_488\n        /* \"#utility.yul\":2672:2679   */\n      dup7\n        /* \"#utility.yul\":2663:2669   */\n      dup3\n        /* \"#utility.yul\":2652:2661   */\n      dup8\n        /* \"#utility.yul\":2648:2670   */\n      add\n        /* \"#utility.yul\":2627:2680   */\n      tag_450\n      jump\t// in\n    tag_488:\n        /* \"#utility.yul\":2617:2680   */\n      swap3\n      pop\n        /* \"#utility.yul\":2572:2690   */\n      pop\n        /* \"#utility.yul\":2757:2759   */\n      0x40\n        /* \"#utility.yul\":2746:2755   */\n      dup5\n        /* \"#utility.yul\":2742:2760   */\n      add\n        /* \"#utility.yul\":2729:2761   */\n      calldataload\n        /* \"#utility.yul\":2788:2806   */\n      0xffffffffffffffff\n        /* \"#utility.yul\":2780:2786   */\n      dup2\n        /* \"#utility.yul\":2777:2807   */\n      gt\n        /* \"#utility.yul\":2774:2891   */\n      iszero\n      tag_489\n      jumpi\n        /* \"#utility.yul\":2810:2889   */\n      tag_490\n      tag_491\n      jump\t// in\n    tag_490:\n        /* \"#utility.yul\":2774:2891   */\n    tag_489:\n        /* \"#utility.yul\":2915:2978   */\n      tag_492\n        /* \"#utility.yul\":2970:2977   */\n      dup7\n        /* \"#utility.yul\":2961:2967   */\n      dup3\n        /* \"#utility.yul\":2950:2959   */\n      dup8\n        /* \"#utility.yul\":2946:2968   */\n      add\n        /* \"#utility.yul\":2915:2978   */\n      tag_461\n      jump\t// in\n    tag_492:\n        /* \"#utility.yul\":2905:2978   */\n      swap2\n      pop\n        /* \"#utility.yul\":2700:2988   */\n      pop\n        /* \"#utility.yul\":2196:2995   */\n      swap3\n      pop\n      swap3\n      pop\n      swap3\n      jump\t// out\n        /* \"#utility.yul\":3001:3475   */\n    tag_67:\n        /* \"#utility.yul\":3069:3075   */\n      0x00\n        /* \"#utility.yul\":3077:3083   */\n      dup1\n        /* \"#utility.yul\":3126:3128   */\n      0x40\n        /* \"#utility.yul\":3114:3123   */\n      dup4\n        /* \"#utility.yul\":3105:3112   */\n      dup6\n        /* \"#utility.yul\":3101:3124   */\n      sub\n        /* \"#utility.yul\":3097:3129   */\n      slt\n        /* \"#utility.yul\":3094:3213   */\n      iszero\n      tag_494\n      jumpi\n        /* \"#utility.yul\":3132:3211   */\n      tag_495\n      tag_478\n      jump\t// in\n    tag_495:\n        /* \"#utility.yul\":3094:3213   */\n    tag_494:\n        /* \"#utility.yul\":3252:3253   */\n      0x00\n        /* \"#utility.yul\":3277:3330   */\n      tag_496\n        /* \"#utility.yul\":3322:3329   */\n      dup6\n        /* \"#utility.yul\":3313:3319   */\n      dup3\n        /* \"#utility.yul\":3302:3311   */\n      dup7\n        /* \"#utility.yul\":3298:3320   */\n      add\n        /* \"#utility.yul\":3277:3330   */\n      tag_450\n      jump\t// in\n    tag_496:\n        /* \"#utility.yul\":3267:3330   */\n      swap3\n      pop\n        /* \"#utility.yul\":3223:3340   */\n      pop\n        /* \"#utility.yul\":3379:3381   */\n      0x20\n        /* \"#utility.yul\":3405:3458   */\n      tag_497\n        /* \"#utility.yul\":3450:3457   */\n      dup6\n        /* \"#utility.yul\":3441:3447   */\n      dup3\n        /* \"#utility.yul\":3430:3439   */\n      dup7\n        /* \"#utility.yul\":3426:3448   */\n      add\n        /* \"#utility.yul\":3405:3458   */\n      tag_467\n      jump\t// in\n    tag_497:\n        /* \"#utility.yul\":3395:3458   */\n      swap2\n      pop\n        /* \"#utility.yul\":3350:3468   */\n      pop\n        /* \"#utility.yul\":3001:3475   */\n      swap3\n      pop\n      swap3\n      swap1\n      pop\n      jump\t// out\n        /* \"#utility.yul\":3481:3810   */\n    tag_32:\n        /* \"#utility.yul\":3540:3546   */\n      0x00\n        /* \"#utility.yul\":3589:3591   */\n      0x20\n        /* \"#utility.yul\":3577:3586   */\n      dup3\n        /* \"#utility.yul\":3568:3575   */\n      dup5\n        /* \"#utility.yul\":3564:3587   */\n      sub\n        /* \"#utility.yul\":3560:3592   */\n      slt\n        /* \"#utility.yul\":3557:3676   */\n      iszero\n      tag_499\n      jumpi\n        /* \"#utility.yul\":3595:3674   */\n      tag_500\n      tag_478\n      jump\t// in\n    tag_500:\n        /* \"#utility.yul\":3557:3676   */\n    tag_499:\n        /* \"#utility.yul\":3715:3716   */\n      0x00\n        /* \"#utility.yul\":3740:3793   */\n      tag_501\n        /* \"#utility.yul\":3785:3792   */\n      dup5\n        /* \"#utility.yul\":3776:3782   */\n      dup3\n        /* \"#utility.yul\":3765:3774   */\n      dup6\n        /* \"#utility.yul\":3761:3783   */\n      add\n        /* \"#utility.yul\":3740:3793   */\n      tag_467\n      jump\t// in\n    tag_501:\n        /* \"#utility.yul\":3730:3793   */\n      swap2\n      pop\n        /* \"#utility.yul\":3686:3803   */\n      pop\n        /* \"#utility.yul\":3481:3810   */\n      swap3\n      swap2\n      pop\n      pop\n      jump\t// out\n        /* \"#utility.yul\":3816:4470   */\n    tag_60:\n        /* \"#utility.yul\":3894:3900   */\n      0x00\n        /* \"#utility.yul\":3902:3908   */\n      dup1\n        /* \"#utility.yul\":3951:3953   */\n      0x40\n        /* \"#utility.yul\":3939:3948   */\n      dup4\n        /* \"#utility.yul\":3930:3937   */\n      dup6\n        /* \"#utility.yul\":3926:3949   */\n      sub\n        /* \"#utility.yul\":3922:3954   */\n      slt\n        /* \"#utility.yul\":3919:4038   */\n      iszero\n      tag_503\n      jumpi\n        /* \"#utility.yul\":3957:4036   */\n      tag_504\n      tag_478\n      jump\t// in\n    tag_504:\n        /* \"#utility.yul\":3919:4038   */\n    tag_503:\n        /* \"#utility.yul\":4077:4078   */\n      0x00\n        /* \"#utility.yul\":4102:4155   */\n      tag_505\n        /* \"#utility.yul\":4147:4154   */\n      dup6\n        /* \"#utility.yul\":4138:4144   */\n      dup3\n        /* \"#utility.yul\":4127:4136   */\n      dup7\n        /* \"#utility.yul\":4123:4145   */\n      add\n        /* \"#utility.yul\":4102:4155   */\n      tag_467\n      jump\t// in\n    tag_505:\n        /* \"#utility.yul\":4092:4155   */\n      swap3\n      pop\n        /* \"#utility.yul\":4048:4165   */\n      pop\n        /* \"#utility.yul\":4232:4234   */\n      0x20\n        /* \"#utility.yul\":4221:4230   */\n      dup4\n        /* \"#utility.yul\":4217:4235   */\n      add\n        /* \"#utility.yul\":4204:4236   */\n      calldataload\n        /* \"#utility.yul\":4263:4281   */\n      0xffffffffffffffff\n        /* \"#utility.yul\":4255:4261   */\n      dup2\n        /* \"#utility.yul\":4252:4282   */\n      gt\n        /* \"#utility.yul\":4249:4366   */\n      iszero\n      tag_506\n      jumpi\n        /* \"#utility.yul\":4285:4364   */\n      tag_507\n      tag_491\n      jump\t// in\n    tag_507:\n        /* \"#utility.yul\":4249:4366   */\n    tag_506:\n        /* \"#utility.yul\":4390:4453   */\n      tag_508\n        /* \"#utility.yul\":4445:4452   */\n      dup6\n        /* \"#utility.yul\":4436:4442   */\n      dup3\n        /* \"#utility.yul\":4425:4434   */\n      dup7\n        /* \"#utility.yul\":4421:4443   */\n      add\n        /* \"#utility.yul\":4390:4453   */\n      tag_461\n      jump\t// in\n    tag_508:\n        /* \"#utility.yul\":4380:4453   */\n      swap2\n      pop\n        /* \"#utility.yul\":4175:4463   */\n      pop\n        /* \"#utility.yul\":3816:4470   */\n      swap3\n      pop\n      swap3\n      swap1\n      pop\n      jump\t// out\n        /* \"#utility.yul\":4476:4946   */\n    tag_43:\n        /* \"#utility.yul\":4542:4548   */\n      0x00\n        /* \"#utility.yul\":4550:4556   */\n      dup1\n        /* \"#utility.yul\":4599:4601   */\n      0x40\n        /* \"#utility.yul\":4587:4596   */\n      dup4\n        /* \"#utility.yul\":4578:4585   */\n      dup6\n        /* \"#utility.yul\":4574:4597   */\n      sub\n        /* \"#utility.yul\":4570:4602   */\n      slt\n        /* \"#utility.yul\":4567:4686   */\n      iszero\n      tag_510\n      jumpi\n        /* \"#utility.yul\":4605:4684   */\n      tag_511\n      tag_478\n      jump\t// in\n    tag_511:\n        /* \"#utility.yul\":4567:4686   */\n    tag_510:\n        /* \"#utility.yul\":4725:4726   */\n      0x00\n        /* \"#utility.yul\":4750:4803   */\n      tag_512\n        /* \"#utility.yul\":4795:4802   */\n      dup6\n        /* \"#utility.yul\":4786:4792   */\n      dup3\n        /* \"#utility.yul\":4775:4784   */\n      dup7\n        /* \"#utility.yul\":4771:4793   */\n      add\n        /* \"#utility.yul\":4750:4803   */\n      tag_467\n      jump\t// in\n    tag_512:\n        /* \"#utility.yul\":4740:4803   */\n      swap3\n      pop\n        /* \"#utility.yul\":4696:4813   */\n      pop\n        /* \"#utility.yul\":4852:4854   */\n      0x20\n        /* \"#utility.yul\":4878:4929   */\n      tag_513\n        /* \"#utility.yul\":4921:4928   */\n      dup6\n        /* \"#utility.yul\":4912:4918   */\n      dup3\n        /* \"#utility.yul\":4901:4910   */\n      dup7\n        /* \"#utility.yul\":4897:4919   */\n      add\n        /* \"#utility.yul\":4878:4929   */\n      tag_471\n      jump\t// in\n    tag_513:\n        /* \"#utility.yul\":4868:4929   */\n      swap2\n      pop\n        /* \"#utility.yul\":4823:4939   */\n      pop\n        /* \"#utility.yul\":4476:4946   */\n      swap3\n      pop\n      swap3\n      swap1\n      pop\n      jump\t// out\n        /* \"#utility.yul\":4952:5561   */\n    tag_39:\n        /* \"#utility.yul\":5024:5030   */\n      0x00\n        /* \"#utility.yul\":5032:5038   */\n      dup1\n        /* \"#utility.yul\":5040:5046   */\n      0x00\n        /* \"#utility.yul\":5089:5091   */\n      0x60\n        /* \"#utility.yul\":5077:5086   */\n      dup5\n        /* \"#utility.yul\":5068:5075   */\n      dup7\n        /* \"#utility.yul\":5064:5087   */\n      sub\n        /* \"#utility.yul\":5060:5092   */\n      slt\n        /* \"#utility.yul\":5057:5176   */\n      iszero\n      tag_515\n      jumpi\n        /* \"#utility.yul\":5095:5174   */\n      tag_516\n      tag_478\n      jump\t// in\n    tag_516:\n        /* \"#utility.yul\":5057:5176   */\n    tag_515:\n        /* \"#utility.yul\":5215:5216   */\n      0x00\n        /* \"#utility.yul\":5240:5293   */\n      tag_517\n        /* \"#utility.yul\":5285:5292   */\n      dup7\n        /* \"#utility.yul\":5276:5282   */\n      dup3\n        /* \"#utility.yul\":5265:5274   */\n      dup8\n        /* \"#utility.yul\":5261:5283   */\n      add\n        /* \"#utility.yul\":5240:5293   */\n      tag_467\n      jump\t// in\n    tag_517:\n        /* \"#utility.yul\":5230:5293   */\n      swap4\n      pop\n        /* \"#utility.yul\":5186:5303   */\n      pop\n        /* \"#utility.yul\":5342:5344   */\n      0x20\n        /* \"#utility.yul\":5368:5419   */\n      tag_518\n        /* \"#utility.yul\":5411:5418   */\n      dup7\n        /* \"#utility.yul\":5402:5408   */\n      dup3\n        /* \"#utility.yul\":5391:5400   */\n      dup8\n        /* \"#utility.yul\":5387:5409   */\n      add\n        /* \"#utility.yul\":5368:5419   */\n      tag_471\n      jump\t// in\n    tag_518:\n        /* \"#utility.yul\":5358:5419   */\n      swap3\n      pop\n        /* \"#utility.yul\":5313:5429   */\n      pop\n        /* \"#utility.yul\":5468:5470   */\n      0x40\n        /* \"#utility.yul\":5494:5544   */\n      tag_519\n        /* \"#utility.yul\":5536:5543   */\n      dup7\n        /* \"#utility.yul\":5527:5533   */\n      dup3\n        /* \"#utility.yul\":5516:5525   */\n      dup8\n        /* \"#utility.yul\":5512:5534   */\n      add\n        /* \"#utility.yul\":5494:5544   */\n      tag_457\n      jump\t// in\n    tag_519:\n        /* \"#utility.yul\":5484:5544   */\n      swap2\n      pop\n        /* \"#utility.yul\":5439:5554   */\n      pop\n        /* \"#utility.yul\":4952:5561   */\n      swap3\n      pop\n      swap3\n      pop\n      swap3\n      jump\t// out\n        /* \"#utility.yul\":5567:6178   */\n    tag_22:\n        /* \"#utility.yul\":5640:5646   */\n      0x00\n        /* \"#utility.yul\":5648:5654   */\n      dup1\n        /* \"#utility.yul\":5656:5662   */\n      0x00\n        /* \"#utility.yul\":5705:5707   */\n      0x60\n        /* \"#utility.yul\":5693:5702   */\n      dup5\n        /* \"#utility.yul\":5684:5691   */\n      dup7\n        /* \"#utility.yul\":5680:5703   */\n      sub\n        /* \"#utility.yul\":5676:5708   */\n      slt\n        /* \"#utility.yul\":5673:5792   */\n      iszero\n      tag_521\n      jumpi\n        /* \"#utility.yul\":5711:5790   */\n      tag_522\n      tag_478\n      jump\t// in\n    tag_522:\n        /* \"#utility.yul\":5673:5792   */\n    tag_521:\n        /* \"#utility.yul\":5831:5832   */\n      0x00\n        /* \"#utility.yul\":5856:5909   */\n      tag_523\n        /* \"#utility.yul\":5901:5908   */\n      dup7\n        /* \"#utility.yul\":5892:5898   */\n      dup3\n        /* \"#utility.yul\":5881:5890   */\n      dup8\n        /* \"#utility.yul\":5877:5899   */\n      add\n        /* \"#utility.yul\":5856:5909   */\n      tag_467\n      jump\t// in\n    tag_523:\n        /* \"#utility.yul\":5846:5909   */\n      swap4\n      pop\n        /* \"#utility.yul\":5802:5919   */\n      pop\n        /* \"#utility.yul\":5958:5960   */\n      0x20\n        /* \"#utility.yul\":5984:6035   */\n      tag_524\n        /* \"#utility.yul\":6027:6034   */\n      dup7\n        /* \"#utility.yul\":6018:6024   */\n      dup3\n        /* \"#utility.yul\":6007:6016   */\n      dup8\n        /* \"#utility.yul\":6003:6025   */\n      add\n        /* \"#utility.yul\":5984:6035   */\n      tag_471\n      jump\t// in\n    tag_524:\n        /* \"#utility.yul\":5974:6035   */\n      swap3\n      pop\n        /* \"#utility.yul\":5929:6045   */\n      pop\n        /* \"#utility.yul\":6084:6086   */\n      0x40\n        /* \"#utility.yul\":6110:6161   */\n      tag_525\n        /* \"#utility.yul\":6153:6160   */\n      dup7\n        /* \"#utility.yul\":6144:6150   */\n      dup3\n        /* \"#utility.yul\":6133:6142   */\n      dup8\n        /* \"#utility.yul\":6129:6151   */\n      add\n        /* \"#utility.yul\":6110:6161   */\n      tag_471\n      jump\t// in\n    tag_525:\n        /* \"#utility.yul\":6100:6161   */\n      swap2\n      pop\n        /* \"#utility.yul\":6055:6171   */\n      pop\n        /* \"#utility.yul\":5567:6178   */\n      swap3\n      pop\n      swap3\n      pop\n      swap3\n      jump\t// out\n        /* \"#utility.yul\":6184:6452   */\n    tag_526:\n        /* \"#utility.yul\":6309:6319   */\n      0x00\n        /* \"#utility.yul\":6344:6446   */\n      tag_528\n        /* \"#utility.yul\":6442:6445   */\n      dup4\n        /* \"#utility.yul\":6434:6440   */\n      dup4\n        /* \"#utility.yul\":6344:6446   */\n      tag_529\n      jump\t// in\n    tag_528:\n        /* \"#utility.yul\":6330:6446   */\n      swap1\n      pop\n        /* \"#utility.yul\":6184:6452   */\n      swap3\n      swap2\n      pop\n      pop\n      jump\t// out\n        /* \"#utility.yul\":6458:6566   */\n    tag_530:\n        /* \"#utility.yul\":6535:6559   */\n      tag_532\n        /* \"#utility.yul\":6553:6558   */\n      dup2\n        /* \"#utility.yul\":6535:6559   */\n      tag_533\n      jump\t// in\n    tag_532:\n        /* \"#utility.yul\":6530:6533   */\n      dup3\n        /* \"#utility.yul\":6523:6560   */\n      mstore\n        /* \"#utility.yul\":6458:6566   */\n      pop\n      pop\n      jump\t// out\n        /* \"#utility.yul\":6572:6690   */\n    tag_534:\n        /* \"#utility.yul\":6659:6683   */\n      tag_536\n        /* \"#utility.yul\":6677:6682   */\n      dup2\n        /* \"#utility.yul\":6659:6683   */\n      tag_533\n      jump\t// in\n    tag_536:\n        /* \"#utility.yul\":6654:6657   */\n      dup3\n        /* \"#utility.yul\":6647:6684   */\n      mstore\n        /* \"#utility.yul\":6572:6690   */\n      pop\n      pop\n      jump\t// out\n        /* \"#utility.yul\":6784:7919   */\n    tag_537:\n        /* \"#utility.yul\":6959:6962   */\n      0x00\n        /* \"#utility.yul\":6988:7070   */\n      tag_539\n        /* \"#utility.yul\":7064:7069   */\n      dup3\n        /* \"#utility.yul\":6988:7070   */\n      tag_540\n      jump\t// in\n    tag_539:\n        /* \"#utility.yul\":7086:7200   */\n      tag_541\n        /* \"#utility.yul\":7193:7199   */\n      dup2\n        /* \"#utility.yul\":7188:7191   */\n      dup6\n        /* \"#utility.yul\":7086:7200   */\n      tag_542\n      jump\t// in\n    tag_541:\n        /* \"#utility.yul\":7079:7200   */\n      swap4\n      pop\n        /* \"#utility.yul\":7226:7229   */\n      dup4\n        /* \"#utility.yul\":7271:7275   */\n      0x20\n        /* \"#utility.yul\":7263:7269   */\n      dup3\n        /* \"#utility.yul\":7259:7276   */\n      mul\n        /* \"#utility.yul\":7254:7257   */\n      dup6\n        /* \"#utility.yul\":7250:7277   */\n      add\n        /* \"#utility.yul\":7301:7385   */\n      tag_543\n        /* \"#utility.yul\":7379:7384   */\n      dup6\n        /* \"#utility.yul\":7301:7385   */\n      tag_544\n      jump\t// in\n    tag_543:\n        /* \"#utility.yul\":7408:7415   */\n      dup1\n        /* \"#utility.yul\":7439:7440   */\n      0x00\n        /* \"#utility.yul\":7424:7874   */\n    tag_545:\n        /* \"#utility.yul\":7449:7455   */\n      dup6\n        /* \"#utility.yul\":7446:7447   */\n      dup2\n        /* \"#utility.yul\":7443:7456   */\n      lt\n        /* \"#utility.yul\":7424:7874   */\n      iszero\n      tag_547\n      jumpi\n        /* \"#utility.yul\":7520:7529   */\n      dup5\n        /* \"#utility.yul\":7514:7518   */\n      dup5\n        /* \"#utility.yul\":7510:7530   */\n      sub\n        /* \"#utility.yul\":7505:7508   */\n      dup10\n        /* \"#utility.yul\":7498:7531   */\n      mstore\n        /* \"#utility.yul\":7571:7577   */\n      dup2\n        /* \"#utility.yul\":7565:7578   */\n      mload\n        /* \"#utility.yul\":7599:7719   */\n      tag_548\n        /* \"#utility.yul\":7714:7718   */\n      dup6\n        /* \"#utility.yul\":7699:7712   */\n      dup3\n        /* \"#utility.yul\":7599:7719   */\n      tag_526\n      jump\t// in\n    tag_548:\n        /* \"#utility.yul\":7591:7719   */\n      swap5\n      pop\n        /* \"#utility.yul\":7742:7830   */\n      tag_549\n        /* \"#utility.yul\":7823:7829   */\n      dup4\n        /* \"#utility.yul\":7742:7830   */\n      tag_550\n      jump\t// in\n    tag_549:\n        /* \"#utility.yul\":7732:7830   */\n      swap3\n      pop\n        /* \"#utility.yul\":7859:7863   */\n      0x20\n        /* \"#utility.yul\":7854:7857   */\n      dup11\n        /* \"#utility.yul\":7850:7864   */\n      add\n        /* \"#utility.yul\":7843:7864   */\n      swap10\n      pop\n        /* \"#utility.yul\":7484:7874   */\n      pop\n        /* \"#utility.yul\":7471:7472   */\n      0x01\n        /* \"#utility.yul\":7468:7469   */\n      dup2\n        /* \"#utility.yul\":7464:7473   */\n      add\n        /* \"#utility.yul\":7459:7473   */\n      swap1\n      pop\n        /* \"#utility.yul\":7424:7874   */\n      jump(tag_545)\n    tag_547:\n        /* \"#utility.yul\":7428:7442   */\n      pop\n        /* \"#utility.yul\":7890:7894   */\n      dup3\n        /* \"#utility.yul\":7883:7894   */\n      swap8\n      pop\n        /* \"#utility.yul\":7910:7913   */\n      dup8\n        /* \"#utility.yul\":7903:7913   */\n      swap6\n      pop\n        /* \"#utility.yul\":6964:7919   */\n      pop\n      pop\n      pop\n      pop\n      pop\n        /* \"#utility.yul\":6784:7919   */\n      swap3\n      swap2\n      pop\n      pop\n      jump\t// out\n        /* \"#utility.yul\":7925:8269   */\n    tag_551:\n        /* \"#utility.yul\":8003:8006   */\n      0x00\n        /* \"#utility.yul\":8031:8070   */\n      tag_553\n        /* \"#utility.yul\":8064:8069   */\n      dup3\n        /* \"#utility.yul\":8031:8070   */\n      tag_554\n      jump\t// in\n    tag_553:\n        /* \"#utility.yul\":8086:8147   */\n      tag_555\n        /* \"#utility.yul\":8140:8146   */\n      dup2\n        /* \"#utility.yul\":8135:8138   */\n      dup6\n        /* \"#utility.yul\":8086:8147   */\n      tag_556\n      jump\t// in\n    tag_555:\n        /* \"#utility.yul\":8079:8147   */\n      swap4\n      pop\n        /* \"#utility.yul\":8156:8208   */\n      tag_557\n        /* \"#utility.yul\":8201:8207   */\n      dup2\n        /* \"#utility.yul\":8196:8199   */\n      dup6\n        /* \"#utility.yul\":8189:8193   */\n      0x20\n        /* \"#utility.yul\":8182:8187   */\n      dup7\n        /* \"#utility.yul\":8178:8194   */\n      add\n        /* \"#utility.yul\":8156:8208   */\n      tag_558\n      jump\t// in\n    tag_557:\n        /* \"#utility.yul\":8233:8262   */\n      tag_559\n        /* \"#utility.yul\":8255:8261   */\n      dup2\n        /* \"#utility.yul\":8233:8262   */\n      tag_560\n      jump\t// in\n    tag_559:\n        /* \"#utility.yul\":8228:8231   */\n      dup5\n        /* \"#utility.yul\":8224:8263   */\n      add\n        /* \"#utility.yul\":8217:8263   */\n      swap2\n      pop\n        /* \"#utility.yul\":8007:8269   */\n      pop\n        /* \"#utility.yul\":7925:8269   */\n      swap3\n      swap2\n      pop\n      pop\n      jump\t// out\n        /* \"#utility.yul\":8275:8652   */\n    tag_561:\n        /* \"#utility.yul\":8381:8384   */\n      0x00\n        /* \"#utility.yul\":8409:8448   */\n      tag_563\n        /* \"#utility.yul\":8442:8447   */\n      dup3\n        /* \"#utility.yul\":8409:8448   */\n      tag_554\n      jump\t// in\n    tag_563:\n        /* \"#utility.yul\":8464:8553   */\n      tag_564\n        /* \"#utility.yul\":8546:8552   */\n      dup2\n        /* \"#utility.yul\":8541:8544   */\n      dup6\n        /* \"#utility.yul\":8464:8553   */\n      tag_565\n      jump\t// in\n    tag_564:\n        /* \"#utility.yul\":8457:8553   */\n      swap4\n      pop\n        /* \"#utility.yul\":8562:8614   */\n      tag_566\n        /* \"#utility.yul\":8607:8613   */\n      dup2\n        /* \"#utility.yul\":8602:8605   */\n      dup6\n        /* \"#utility.yul\":8595:8599   */\n      0x20\n        /* \"#utility.yul\":8588:8593   */\n      dup7\n        /* \"#utility.yul\":8584:8600   */\n      add\n        /* \"#utility.yul\":8562:8614   */\n      tag_558\n      jump\t// in\n    tag_566:\n        /* \"#utility.yul\":8639:8645   */\n      dup1\n        /* \"#utility.yul\":8634:8637   */\n      dup5\n        /* \"#utility.yul\":8630:8646   */\n      add\n        /* \"#utility.yul\":8623:8646   */\n      swap2\n      pop\n        /* \"#utility.yul\":8385:8652   */\n      pop\n        /* \"#utility.yul\":8275:8652   */\n      swap3\n      swap2\n      pop\n      pop\n      jump\t// out\n        /* \"#utility.yul\":8658:9024   */\n    tag_567:\n        /* \"#utility.yul\":8800:8803   */\n      0x00\n        /* \"#utility.yul\":8821:8888   */\n      tag_569\n        /* \"#utility.yul\":8885:8887   */\n      0x26\n        /* \"#utility.yul\":8880:8883   */\n      dup4\n        /* \"#utility.yul\":8821:8888   */\n      tag_570\n      jump\t// in\n    tag_569:\n        /* \"#utility.yul\":8814:8888   */\n      swap2\n      pop\n        /* \"#utility.yul\":8897:8990   */\n      tag_571\n        /* \"#utility.yul\":8986:8989   */\n      dup3\n        /* \"#utility.yul\":8897:8990   */\n      tag_572\n      jump\t// in\n    tag_571:\n        /* \"#utility.yul\":9015:9017   */\n      0x40\n        /* \"#utility.yul\":9010:9013   */\n      dup3\n        /* \"#utility.yul\":9006:9018   */\n      add\n        /* \"#utility.yul\":8999:9018   */\n      swap1\n      pop\n        /* \"#utility.yul\":8658:9024   */\n      swap2\n      swap1\n      pop\n      jump\t// out\n        /* \"#utility.yul\":9030:9396   */\n    tag_573:\n        /* \"#utility.yul\":9172:9175   */\n      0x00\n        /* \"#utility.yul\":9193:9260   */\n      tag_575\n        /* \"#utility.yul\":9257:9259   */\n      0x32\n        /* \"#utility.yul\":9252:9255   */\n      dup4\n        /* \"#utility.yul\":9193:9260   */\n      tag_570\n      jump\t// in\n    tag_575:\n        /* \"#utility.yul\":9186:9260   */\n      swap2\n      pop\n        /* \"#utility.yul\":9269:9362   */\n      tag_576\n        /* \"#utility.yul\":9358:9361   */\n      dup3\n        /* \"#utility.yul\":9269:9362   */\n      tag_577\n      jump\t// in\n    tag_576:\n        /* \"#utility.yul\":9387:9389   */\n      0x40\n        /* \"#utility.yul\":9382:9385   */\n      dup3\n        /* \"#utility.yul\":9378:9390   */\n      add\n        /* \"#utility.yul\":9371:9390   */\n      swap1\n      pop\n        /* \"#utility.yul\":9030:9396   */\n      swap2\n      swap1\n      pop\n      jump\t// out\n        /* \"#utility.yul\":9402:9768   */\n    tag_578:\n        /* \"#utility.yul\":9544:9547   */\n      0x00\n        /* \"#utility.yul\":9565:9632   */\n      tag_580\n        /* \"#utility.yul\":9629:9631   */\n      0x44\n        /* \"#utility.yul\":9624:9627   */\n      dup4\n        /* \"#utility.yul\":9565:9632   */\n      tag_570\n      jump\t// in\n    tag_580:\n        /* \"#utility.yul\":9558:9632   */\n      swap2\n      pop\n        /* \"#utility.yul\":9641:9734   */\n      tag_581\n        /* \"#utility.yul\":9730:9733   */\n      dup3\n        /* \"#utility.yul\":9641:9734   */\n      tag_582\n      jump\t// in\n    tag_581:\n        /* \"#utility.yul\":9759:9761   */\n      0x60\n        /* \"#utility.yul\":9754:9757   */\n      dup3\n        /* \"#utility.yul\":9750:9762   */\n      add\n        /* \"#utility.yul\":9743:9762   */\n      swap1\n      pop\n        /* \"#utility.yul\":9402:9768   */\n      swap2\n      swap1\n      pop\n      jump\t// out\n        /* \"#utility.yul\":9774:10140   */\n    tag_583:\n        /* \"#utility.yul\":9916:9919   */\n      0x00\n        /* \"#utility.yul\":9937:10004   */\n      tag_585\n        /* \"#utility.yul\":10001:10003   */\n      0x16\n        /* \"#utility.yul\":9996:9999   */\n      dup4\n        /* \"#utility.yul\":9937:10004   */\n      tag_570\n      jump\t// in\n    tag_585:\n        /* \"#utility.yul\":9930:10004   */\n      swap2\n      pop\n        /* \"#utility.yul\":10013:10106   */\n      tag_586\n        /* \"#utility.yul\":10102:10105   */\n      dup3\n        /* \"#utility.yul\":10013:10106   */\n      tag_587\n      jump\t// in\n    tag_586:\n        /* \"#utility.yul\":10131:10133   */\n      0x20\n        /* \"#utility.yul\":10126:10129   */\n      dup3\n        /* \"#utility.yul\":10122:10134   */\n      add\n        /* \"#utility.yul\":10115:10134   */\n      swap1\n      pop\n        /* \"#utility.yul\":9774:10140   */\n      swap2\n      swap1\n      pop\n      jump\t// out\n        /* \"#utility.yul\":10146:10512   */\n    tag_588:\n        /* \"#utility.yul\":10288:10291   */\n      0x00\n        /* \"#utility.yul\":10309:10376   */\n      tag_590\n        /* \"#utility.yul\":10373:10375   */\n      0x20\n        /* \"#utility.yul\":10368:10371   */\n      dup4\n        /* \"#utility.yul\":10309:10376   */\n      tag_570\n      jump\t// in\n    tag_590:\n        /* \"#utility.yul\":10302:10376   */\n      swap2\n      pop\n        /* \"#utility.yul\":10385:10478   */\n      tag_591\n        /* \"#utility.yul\":10474:10477   */\n      dup3\n        /* \"#utility.yul\":10385:10478   */\n      tag_592\n      jump\t// in\n    tag_591:\n        /* \"#utility.yul\":10503:10505   */\n      0x20\n        /* \"#utility.yul\":10498:10501   */\n      dup3\n        /* \"#utility.yul\":10494:10506   */\n      add\n        /* \"#utility.yul\":10487:10506   */\n      swap1\n      pop\n        /* \"#utility.yul\":10146:10512   */\n      swap2\n      swap1\n      pop\n      jump\t// out\n        /* \"#utility.yul\":10518:10884   */\n    tag_593:\n        /* \"#utility.yul\":10660:10663   */\n      0x00\n        /* \"#utility.yul\":10681:10748   */\n      tag_595\n        /* \"#utility.yul\":10745:10747   */\n      0x27\n        /* \"#utility.yul\":10740:10743   */\n      dup4\n        /* \"#utility.yul\":10681:10748   */\n      tag_570\n      jump\t// in\n    tag_595:\n        /* \"#utility.yul\":10674:10748   */\n      swap2\n      pop\n        /* \"#utility.yul\":10757:10850   */\n      tag_596\n        /* \"#utility.yul\":10846:10849   */\n      dup3\n        /* \"#utility.yul\":10757:10850   */\n      tag_597\n      jump\t// in\n    tag_596:\n        /* \"#utility.yul\":10875:10877   */\n      0x40\n        /* \"#utility.yul\":10870:10873   */\n      dup3\n        /* \"#utility.yul\":10866:10878   */\n      add\n        /* \"#utility.yul\":10859:10878   */\n      swap1\n      pop\n        /* \"#utility.yul\":10518:10884   */\n      swap2\n      swap1\n      pop\n      jump\t// out\n        /* \"#utility.yul\":10890:11256   */\n    tag_598:\n        /* \"#utility.yul\":11032:11035   */\n      0x00\n        /* \"#utility.yul\":11053:11120   */\n      tag_600\n        /* \"#utility.yul\":11117:11119   */\n      0x3d\n        /* \"#utility.yul\":11112:11115   */\n      dup4\n        /* \"#utility.yul\":11053:11120   */\n      tag_570\n      jump\t// in\n    tag_600:\n        /* \"#utility.yul\":11046:11120   */\n      swap2\n      pop\n        /* \"#utility.yul\":11129:11222   */\n      tag_601\n        /* \"#utility.yul\":11218:11221   */\n      dup3\n        /* \"#utility.yul\":11129:11222   */\n      tag_602\n      jump\t// in\n    tag_601:\n        /* \"#utility.yul\":11247:11249   */\n      0x40\n        /* \"#utility.yul\":11242:11245   */\n      dup3\n        /* \"#utility.yul\":11238:11250   */\n      add\n        /* \"#utility.yul\":11231:11250   */\n      swap1\n      pop\n        /* \"#utility.yul\":10890:11256   */\n      swap2\n      swap1\n      pop\n      jump\t// out\n        /* \"#utility.yul\":11346:12911   */\n    tag_529:\n        /* \"#utility.yul\":11461:11464   */\n      0x00\n        /* \"#utility.yul\":11497:11501   */\n      0xe0\n        /* \"#utility.yul\":11492:11495   */\n      dup4\n        /* \"#utility.yul\":11488:11502   */\n      add\n        /* \"#utility.yul\":11582:11586   */\n      0x00\n        /* \"#utility.yul\":11575:11580   */\n      dup4\n        /* \"#utility.yul\":11571:11587   */\n      add\n        /* \"#utility.yul\":11565:11588   */\n      mload\n        /* \"#utility.yul\":11601:11664   */\n      tag_604\n        /* \"#utility.yul\":11658:11662   */\n      0x00\n        /* \"#utility.yul\":11653:11656   */\n      dup7\n        /* \"#utility.yul\":11649:11663   */\n      add\n        /* \"#utility.yul\":11635:11647   */\n      dup3\n        /* \"#utility.yul\":11601:11664   */\n      tag_605\n      jump\t// in\n    tag_604:\n        /* \"#utility.yul\":11512:11674   */\n      pop\n        /* \"#utility.yul\":11756:11760   */\n      0x20\n        /* \"#utility.yul\":11749:11754   */\n      dup4\n        /* \"#utility.yul\":11745:11761   */\n      add\n        /* \"#utility.yul\":11739:11762   */\n      mload\n        /* \"#utility.yul\":11775:11838   */\n      tag_606\n        /* \"#utility.yul\":11832:11836   */\n      0x20\n        /* \"#utility.yul\":11827:11830   */\n      dup7\n        /* \"#utility.yul\":11823:11837   */\n      add\n        /* \"#utility.yul\":11809:11821   */\n      dup3\n        /* \"#utility.yul\":11775:11838   */\n      tag_530\n      jump\t// in\n    tag_606:\n        /* \"#utility.yul\":11684:11848   */\n      pop\n        /* \"#utility.yul\":11928:11932   */\n      0x40\n        /* \"#utility.yul\":11921:11926   */\n      dup4\n        /* \"#utility.yul\":11917:11933   */\n      add\n        /* \"#utility.yul\":11911:11934   */\n      mload\n        /* \"#utility.yul\":11947:12010   */\n      tag_607\n        /* \"#utility.yul\":12004:12008   */\n      0x40\n        /* \"#utility.yul\":11999:12002   */\n      dup7\n        /* \"#utility.yul\":11995:12009   */\n      add\n        /* \"#utility.yul\":11981:11993   */\n      dup3\n        /* \"#utility.yul\":11947:12010   */\n      tag_530\n      jump\t// in\n    tag_607:\n        /* \"#utility.yul\":11858:12020   */\n      pop\n        /* \"#utility.yul\":12109:12113   */\n      0x60\n        /* \"#utility.yul\":12102:12107   */\n      dup4\n        /* \"#utility.yul\":12098:12114   */\n      add\n        /* \"#utility.yul\":12092:12115   */\n      mload\n        /* \"#utility.yul\":12162:12165   */\n      dup5\n        /* \"#utility.yul\":12156:12160   */\n      dup3\n        /* \"#utility.yul\":12152:12166   */\n      sub\n        /* \"#utility.yul\":12145:12149   */\n      0x60\n        /* \"#utility.yul\":12140:12143   */\n      dup7\n        /* \"#utility.yul\":12136:12150   */\n      add\n        /* \"#utility.yul\":12129:12167   */\n      mstore\n        /* \"#utility.yul\":12188:12261   */\n      tag_608\n        /* \"#utility.yul\":12256:12260   */\n      dup3\n        /* \"#utility.yul\":12242:12254   */\n      dup3\n        /* \"#utility.yul\":12188:12261   */\n      tag_551\n      jump\t// in\n    tag_608:\n        /* \"#utility.yul\":12180:12261   */\n      swap2\n      pop\n        /* \"#utility.yul\":12030:12272   */\n      pop\n        /* \"#utility.yul\":12363:12367   */\n      0x80\n        /* \"#utility.yul\":12356:12361   */\n      dup4\n        /* \"#utility.yul\":12352:12368   */\n      add\n        /* \"#utility.yul\":12346:12369   */\n      mload\n        /* \"#utility.yul\":12416:12419   */\n      dup5\n        /* \"#utility.yul\":12410:12414   */\n      dup3\n        /* \"#utility.yul\":12406:12420   */\n      sub\n        /* \"#utility.yul\":12399:12403   */\n      0x80\n        /* \"#utility.yul\":12394:12397   */\n      dup7\n        /* \"#utility.yul\":12390:12404   */\n      add\n        /* \"#utility.yul\":12383:12421   */\n      mstore\n        /* \"#utility.yul\":12442:12515   */\n      tag_609\n        /* \"#utility.yul\":12510:12514   */\n      dup3\n        /* \"#utility.yul\":12496:12508   */\n      dup3\n        /* \"#utility.yul\":12442:12515   */\n      tag_551\n      jump\t// in\n    tag_609:\n        /* \"#utility.yul\":12434:12515   */\n      swap2\n      pop\n        /* \"#utility.yul\":12282:12526   */\n      pop\n        /* \"#utility.yul\":12616:12620   */\n      0xa0\n        /* \"#utility.yul\":12609:12614   */\n      dup4\n        /* \"#utility.yul\":12605:12621   */\n      add\n        /* \"#utility.yul\":12599:12622   */\n      mload\n        /* \"#utility.yul\":12635:12694   */\n      tag_610\n        /* \"#utility.yul\":12688:12692   */\n      0xa0\n        /* \"#utility.yul\":12683:12686   */\n      dup7\n        /* \"#utility.yul\":12679:12693   */\n      add\n        /* \"#utility.yul\":12665:12677   */\n      dup3\n        /* \"#utility.yul\":12635:12694   */\n      tag_611\n      jump\t// in\n    tag_610:\n        /* \"#utility.yul\":12536:12704   */\n      pop\n        /* \"#utility.yul\":12796:12800   */\n      0xc0\n        /* \"#utility.yul\":12789:12794   */\n      dup4\n        /* \"#utility.yul\":12785:12801   */\n      add\n        /* \"#utility.yul\":12779:12802   */\n      mload\n        /* \"#utility.yul\":12815:12874   */\n      tag_612\n        /* \"#utility.yul\":12868:12872   */\n      0xc0\n        /* \"#utility.yul\":12863:12866   */\n      dup7\n        /* \"#utility.yul\":12859:12873   */\n      add\n        /* \"#utility.yul\":12845:12857   */\n      dup3\n        /* \"#utility.yul\":12815:12874   */\n      tag_611\n      jump\t// in\n    tag_612:\n        /* \"#utility.yul\":12714:12884   */\n      pop\n        /* \"#utility.yul\":12901:12905   */\n      dup1\n        /* \"#utility.yul\":12894:12905   */\n      swap2\n      pop\n        /* \"#utility.yul\":11466:12911   */\n      pop\n        /* \"#utility.yul\":11346:12911   */\n      swap3\n      swap2\n      pop\n      pop\n      jump\t// out\n        /* \"#utility.yul\":12917:13025   */\n    tag_605:\n        /* \"#utility.yul\":12994:13018   */\n      tag_614\n        /* \"#utility.yul\":13012:13017   */\n      dup2\n        /* \"#utility.yul\":12994:13018   */\n      tag_615\n      jump\t// in\n    tag_614:\n        /* \"#utility.yul\":12989:12992   */\n      dup3\n        /* \"#utility.yul\":12982:13019   */\n      mstore\n        /* \"#utility.yul\":12917:13025   */\n      pop\n      pop\n      jump\t// out\n        /* \"#utility.yul\":13031:13149   */\n    tag_616:\n        /* \"#utility.yul\":13118:13142   */\n      tag_618\n        /* \"#utility.yul\":13136:13141   */\n      dup2\n        /* \"#utility.yul\":13118:13142   */\n      tag_615\n      jump\t// in\n    tag_618:\n        /* \"#utility.yul\":13113:13116   */\n      dup3\n        /* \"#utility.yul\":13106:13143   */\n      mstore\n        /* \"#utility.yul\":13031:13149   */\n      pop\n      pop\n      jump\t// out\n        /* \"#utility.yul\":13155:13257   */\n    tag_611:\n        /* \"#utility.yul\":13228:13250   */\n      tag_620\n        /* \"#utility.yul\":13244:13249   */\n      dup2\n        /* \"#utility.yul\":13228:13250   */\n      tag_621\n      jump\t// in\n    tag_620:\n        /* \"#utility.yul\":13223:13226   */\n      dup3\n        /* \"#utility.yul\":13216:13251   */\n      mstore\n        /* \"#utility.yul\":13155:13257   */\n      pop\n      pop\n      jump\t// out\n        /* \"#utility.yul\":13263:13375   */\n    tag_622:\n        /* \"#utility.yul\":13346:13368   */\n      tag_624\n        /* \"#utility.yul\":13362:13367   */\n      dup2\n        /* \"#utility.yul\":13346:13368   */\n      tag_621\n      jump\t// in\n    tag_624:\n        /* \"#utility.yul\":13341:13344   */\n      dup3\n        /* \"#utility.yul\":13334:13369   */\n      mstore\n        /* \"#utility.yul\":13263:13375   */\n      pop\n      pop\n      jump\t// out\n        /* \"#utility.yul\":13381:13656   */\n    tag_412:\n        /* \"#utility.yul\":13513:13516   */\n      0x00\n        /* \"#utility.yul\":13535:13630   */\n      tag_626\n        /* \"#utility.yul\":13626:13629   */\n      dup3\n        /* \"#utility.yul\":13617:13623   */\n      dup5\n        /* \"#utility.yul\":13535:13630   */\n      tag_561\n      jump\t// in\n    tag_626:\n        /* \"#utility.yul\":13528:13630   */\n      swap2\n      pop\n        /* \"#utility.yul\":13647:13650   */\n      dup2\n        /* \"#utility.yul\":13640:13650   */\n      swap1\n      pop\n        /* \"#utility.yul\":13381:13656   */\n      swap3\n      swap2\n      pop\n      pop\n      jump\t// out\n        /* \"#utility.yul\":13662:13884   */\n    tag_48:\n        /* \"#utility.yul\":13755:13759   */\n      0x00\n        /* \"#utility.yul\":13793:13795   */\n      0x20\n        /* \"#utility.yul\":13782:13791   */\n      dup3\n        /* \"#utility.yul\":13778:13796   */\n      add\n        /* \"#utility.yul\":13770:13796   */\n      swap1\n      pop\n        /* \"#utility.yul\":13806:13877   */\n      tag_628\n        /* \"#utility.yul\":13874:13875   */\n      0x00\n        /* \"#utility.yul\":13863:13872   */\n      dup4\n        /* \"#utility.yul\":13859:13876   */\n      add\n        /* \"#utility.yul\":13850:13856   */\n      dup5\n        /* \"#utility.yul\":13806:13877   */\n      tag_534\n      jump\t// in\n    tag_628:\n        /* \"#utility.yul\":13662:13884   */\n      swap3\n      swap2\n      pop\n      pop\n      jump\t// out\n        /* \"#utility.yul\":13890:14375   */\n    tag_27:\n        /* \"#utility.yul\":14089:14093   */\n      0x00\n        /* \"#utility.yul\":14127:14129   */\n      0x20\n        /* \"#utility.yul\":14116:14125   */\n      dup3\n        /* \"#utility.yul\":14112:14130   */\n      add\n        /* \"#utility.yul\":14104:14130   */\n      swap1\n      pop\n        /* \"#utility.yul\":14176:14185   */\n      dup2\n        /* \"#utility.yul\":14170:14174   */\n      dup2\n        /* \"#utility.yul\":14166:14186   */\n      sub\n        /* \"#utility.yul\":14162:14163   */\n      0x00\n        /* \"#utility.yul\":14151:14160   */\n      dup4\n        /* \"#utility.yul\":14147:14164   */\n      add\n        /* \"#utility.yul\":14140:14187   */\n      mstore\n        /* \"#utility.yul\":14204:14368   */\n      tag_630\n        /* \"#utility.yul\":14363:14367   */\n      dup2\n        /* \"#utility.yul\":14354:14360   */\n      dup5\n        /* \"#utility.yul\":14204:14368   */\n      tag_537\n      jump\t// in\n    tag_630:\n        /* \"#utility.yul\":14196:14368   */\n      swap1\n      pop\n        /* \"#utility.yul\":13890:14375   */\n      swap3\n      swap2\n      pop\n      pop\n      jump\t// out\n        /* \"#utility.yul\":14381:14800   */\n    tag_401:\n        /* \"#utility.yul\":14547:14551   */\n      0x00\n        /* \"#utility.yul\":14585:14587   */\n      0x20\n        /* \"#utility.yul\":14574:14583   */\n      dup3\n        /* \"#utility.yul\":14570:14588   */\n      add\n        /* \"#utility.yul\":14562:14588   */\n      swap1\n      pop\n        /* \"#utility.yul\":14634:14643   */\n      dup2\n        /* \"#utility.yul\":14628:14632   */\n      dup2\n        /* \"#utility.yul\":14624:14644   */\n      sub\n        /* \"#utility.yul\":14620:14621   */\n      0x00\n        /* \"#utility.yul\":14609:14618   */\n      dup4\n        /* \"#utility.yul\":14605:14622   */\n      add\n        /* \"#utility.yul\":14598:14645   */\n      mstore\n        /* \"#utility.yul\":14662:14793   */\n      tag_632\n        /* \"#utility.yul\":14788:14792   */\n      dup2\n        /* \"#utility.yul\":14662:14793   */\n      tag_567\n      jump\t// in\n    tag_632:\n        /* \"#utility.yul\":14654:14793   */\n      swap1\n      pop\n        /* \"#utility.yul\":14381:14800   */\n      swap2\n      swap1\n      pop\n      jump\t// out\n        /* \"#utility.yul\":14806:15225   */\n    tag_204:\n        /* \"#utility.yul\":14972:14976   */\n      0x00\n        /* \"#utility.yul\":15010:15012   */\n      0x20\n        /* \"#utility.yul\":14999:15008   */\n      dup3\n        /* \"#utility.yul\":14995:15013   */\n      add\n        /* \"#utility.yul\":14987:15013   */\n      swap1\n      pop\n        /* \"#utility.yul\":15059:15068   */\n      dup2\n        /* \"#utility.yul\":15053:15057   */\n      dup2\n        /* \"#utility.yul\":15049:15069   */\n      sub\n        /* \"#utility.yul\":15045:15046   */\n      0x00\n        /* \"#utility.yul\":15034:15043   */\n      dup4\n        /* \"#utility.yul\":15030:15047   */\n      add\n        /* \"#utility.yul\":15023:15070   */\n      mstore\n        /* \"#utility.yul\":15087:15218   */\n      tag_634\n        /* \"#utility.yul\":15213:15217   */\n      dup2\n        /* \"#utility.yul\":15087:15218   */\n      tag_573\n      jump\t// in\n    tag_634:\n        /* \"#utility.yul\":15079:15218   */\n      swap1\n      pop\n        /* \"#utility.yul\":14806:15225   */\n      swap2\n      swap1\n      pop\n      jump\t// out\n        /* \"#utility.yul\":15231:15650   */\n    tag_131:\n        /* \"#utility.yul\":15397:15401   */\n      0x00\n        /* \"#utility.yul\":15435:15437   */\n      0x20\n        /* \"#utility.yul\":15424:15433   */\n      dup3\n        /* \"#utility.yul\":15420:15438   */\n      add\n        /* \"#utility.yul\":15412:15438   */\n      swap1\n      pop\n        /* \"#utility.yul\":15484:15493   */\n      dup2\n        /* \"#utility.yul\":15478:15482   */\n      dup2\n        /* \"#utility.yul\":15474:15494   */\n      sub\n        /* \"#utility.yul\":15470:15471   */\n      0x00\n        /* \"#utility.yul\":15459:15468   */\n      dup4\n        /* \"#utility.yul\":15455:15472   */\n      add\n        /* \"#utility.yul\":15448:15495   */\n      mstore\n        /* \"#utility.yul\":15512:15643   */\n      tag_636\n        /* \"#utility.yul\":15638:15642   */\n      dup2\n        /* \"#utility.yul\":15512:15643   */\n      tag_578\n      jump\t// in\n    tag_636:\n        /* \"#utility.yul\":15504:15643   */\n      swap1\n      pop\n        /* \"#utility.yul\":15231:15650   */\n      swap2\n      swap1\n      pop\n      jump\t// out\n        /* \"#utility.yul\":15656:16075   */\n    tag_92:\n        /* \"#utility.yul\":15822:15826   */\n      0x00\n        /* \"#utility.yul\":15860:15862   */\n      0x20\n        /* \"#utility.yul\":15849:15858   */\n      dup3\n        /* \"#utility.yul\":15845:15863   */\n      add\n        /* \"#utility.yul\":15837:15863   */\n      swap1\n      pop\n        /* \"#utility.yul\":15909:15918   */\n      dup2\n        /* \"#utility.yul\":15903:15907   */\n      dup2\n        /* \"#utility.yul\":15899:15919   */\n      sub\n        /* \"#utility.yul\":15895:15896   */\n      0x00\n        /* \"#utility.yul\":15884:15893   */\n      dup4\n        /* \"#utility.yul\":15880:15897   */\n      add\n        /* \"#utility.yul\":15873:15920   */\n      mstore\n        /* \"#utility.yul\":15937:16068   */\n      tag_638\n        /* \"#utility.yul\":16063:16067   */\n      dup2\n        /* \"#utility.yul\":15937:16068   */\n      tag_583\n      jump\t// in\n    tag_638:\n        /* \"#utility.yul\":15929:16068   */\n      swap1\n      pop\n        /* \"#utility.yul\":15656:16075   */\n      swap2\n      swap1\n      pop\n      jump\t// out\n        /* \"#utility.yul\":16081:16500   */\n    tag_409:\n        /* \"#utility.yul\":16247:16251   */\n      0x00\n        /* \"#utility.yul\":16285:16287   */\n      0x20\n        /* \"#utility.yul\":16274:16283   */\n      dup3\n        /* \"#utility.yul\":16270:16288   */\n      add\n        /* \"#utility.yul\":16262:16288   */\n      swap1\n      pop\n        /* \"#utility.yul\":16334:16343   */\n      dup2\n        /* \"#utility.yul\":16328:16332   */\n      dup2\n        /* \"#utility.yul\":16324:16344   */\n      sub\n        /* \"#utility.yul\":16320:16321   */\n      0x00\n        /* \"#utility.yul\":16309:16318   */\n      dup4\n        /* \"#utility.yul\":16305:16322   */\n      add\n        /* \"#utility.yul\":16298:16345   */\n      mstore\n        /* \"#utility.yul\":16362:16493   */\n      tag_640\n        /* \"#utility.yul\":16488:16492   */\n      dup2\n        /* \"#utility.yul\":16362:16493   */\n      tag_588\n      jump\t// in\n    tag_640:\n        /* \"#utility.yul\":16354:16493   */\n      swap1\n      pop\n        /* \"#utility.yul\":16081:16500   */\n      swap2\n      swap1\n      pop\n      jump\t// out\n        /* \"#utility.yul\":16506:16925   */\n    tag_318:\n        /* \"#utility.yul\":16672:16676   */\n      0x00\n        /* \"#utility.yul\":16710:16712   */\n      0x20\n        /* \"#utility.yul\":16699:16708   */\n      dup3\n        /* \"#utility.yul\":16695:16713   */\n      add\n        /* \"#utility.yul\":16687:16713   */\n      swap1\n      pop\n        /* \"#utility.yul\":16759:16768   */\n      dup2\n        /* \"#utility.yul\":16753:16757   */\n      dup2\n        /* \"#utility.yul\":16749:16769   */\n      sub\n        /* \"#utility.yul\":16745:16746   */\n      0x00\n        /* \"#utility.yul\":16734:16743   */\n      dup4\n        /* \"#utility.yul\":16730:16747   */\n      add\n        /* \"#utility.yul\":16723:16770   */\n      mstore\n        /* \"#utility.yul\":16787:16918   */\n      tag_642\n        /* \"#utility.yul\":16913:16917   */\n      dup2\n        /* \"#utility.yul\":16787:16918   */\n      tag_593\n      jump\t// in\n    tag_642:\n        /* \"#utility.yul\":16779:16918   */\n      swap1\n      pop\n        /* \"#utility.yul\":16506:16925   */\n      swap2\n      swap1\n      pop\n      jump\t// out\n        /* \"#utility.yul\":16931:17350   */\n    tag_309:\n        /* \"#utility.yul\":17097:17101   */\n      0x00\n        /* \"#utility.yul\":17135:17137   */\n      0x20\n        /* \"#utility.yul\":17124:17133   */\n      dup3\n        /* \"#utility.yul\":17120:17138   */\n      add\n        /* \"#utility.yul\":17112:17138   */\n      swap1\n      pop\n        /* \"#utility.yul\":17184:17193   */\n      dup2\n        /* \"#utility.yul\":17178:17182   */\n      dup2\n        /* \"#utility.yul\":17174:17194   */\n      sub\n        /* \"#utility.yul\":17170:17171   */\n      0x00\n        /* \"#utility.yul\":17159:17168   */\n      dup4\n        /* \"#utility.yul\":17155:17172   */\n      add\n        /* \"#utility.yul\":17148:17195   */\n      mstore\n        /* \"#utility.yul\":17212:17343   */\n      tag_644\n        /* \"#utility.yul\":17338:17342   */\n      dup2\n        /* \"#utility.yul\":17212:17343   */\n      tag_598\n      jump\t// in\n    tag_644:\n        /* \"#utility.yul\":17204:17343   */\n      swap1\n      pop\n        /* \"#utility.yul\":16931:17350   */\n      swap2\n      swap1\n      pop\n      jump\t// out\n        /* \"#utility.yul\":17356:17578   */\n    tag_57:\n        /* \"#utility.yul\":17449:17453   */\n      0x00\n        /* \"#utility.yul\":17487:17489   */\n      0x20\n        /* \"#utility.yul\":17476:17485   */\n      dup3\n        /* \"#utility.yul\":17472:17490   */\n      add\n        /* \"#utility.yul\":17464:17490   */\n      swap1\n      pop\n        /* \"#utility.yul\":17500:17571   */\n      tag_646\n        /* \"#utility.yul\":17568:17569   */\n      0x00\n        /* \"#utility.yul\":17557:17566   */\n      dup4\n        /* \"#utility.yul\":17553:17570   */\n      add\n        /* \"#utility.yul\":17544:17550   */\n      dup5\n        /* \"#utility.yul\":17500:17571   */\n      tag_616\n      jump\t// in\n    tag_646:\n        /* \"#utility.yul\":17356:17578   */\n      swap3\n      swap2\n      pop\n      pop\n      jump\t// out\n        /* \"#utility.yul\":17584:18010   */\n    tag_108:\n        /* \"#utility.yul\":17725:17729   */\n      0x00\n        /* \"#utility.yul\":17763:17765   */\n      0x60\n        /* \"#utility.yul\":17752:17761   */\n      dup3\n        /* \"#utility.yul\":17748:17766   */\n      add\n        /* \"#utility.yul\":17740:17766   */\n      swap1\n      pop\n        /* \"#utility.yul\":17776:17847   */\n      tag_648\n        /* \"#utility.yul\":17844:17845   */\n      0x00\n        /* \"#utility.yul\":17833:17842   */\n      dup4\n        /* \"#utility.yul\":17829:17846   */\n      add\n        /* \"#utility.yul\":17820:17826   */\n      dup7\n        /* \"#utility.yul\":17776:17847   */\n      tag_616\n      jump\t// in\n    tag_648:\n        /* \"#utility.yul\":17857:17925   */\n      tag_649\n        /* \"#utility.yul\":17921:17923   */\n      0x20\n        /* \"#utility.yul\":17910:17919   */\n      dup4\n        /* \"#utility.yul\":17906:17924   */\n      add\n        /* \"#utility.yul\":17897:17903   */\n      dup6\n        /* \"#utility.yul\":17857:17925   */\n      tag_622\n      jump\t// in\n    tag_649:\n        /* \"#utility.yul\":17935:18003   */\n      tag_650\n        /* \"#utility.yul\":17999:18001   */\n      0x40\n        /* \"#utility.yul\":17988:17997   */\n      dup4\n        /* \"#utility.yul\":17984:18002   */\n      add\n        /* \"#utility.yul\":17975:17981   */\n      dup5\n        /* \"#utility.yul\":17935:18003   */\n      tag_622\n      jump\t// in\n    tag_650:\n        /* \"#utility.yul\":17584:18010   */\n      swap5\n      swap4\n      pop\n      pop\n      pop\n      pop\n      jump\t// out\n        /* \"#utility.yul\":18016:18145   */\n    tag_444:\n        /* \"#utility.yul\":18050:18056   */\n      0x00\n        /* \"#utility.yul\":18077:18097   */\n      tag_652\n      tag_653\n      jump\t// in\n    tag_652:\n        /* \"#utility.yul\":18067:18097   */\n      swap1\n      pop\n        /* \"#utility.yul\":18106:18139   */\n      tag_654\n        /* \"#utility.yul\":18134:18138   */\n      dup3\n        /* \"#utility.yul\":18126:18132   */\n      dup3\n        /* \"#utility.yul\":18106:18139   */\n      tag_655\n      jump\t// in\n    tag_654:\n        /* \"#utility.yul\":18016:18145   */\n      swap2\n      swap1\n      pop\n      jump\t// out\n        /* \"#utility.yul\":18151:18226   */\n    tag_653:\n        /* \"#utility.yul\":18184:18190   */\n      0x00\n        /* \"#utility.yul\":18217:18219   */\n      0x40\n        /* \"#utility.yul\":18211:18220   */\n      mload\n        /* \"#utility.yul\":18201:18220   */\n      swap1\n      pop\n        /* \"#utility.yul\":18151:18226   */\n      swap1\n      jump\t// out\n        /* \"#utility.yul\":18232:18540   */\n    tag_443:\n        /* \"#utility.yul\":18294:18298   */\n      0x00\n        /* \"#utility.yul\":18384:18402   */\n      0xffffffffffffffff\n        /* \"#utility.yul\":18376:18382   */\n      dup3\n        /* \"#utility.yul\":18373:18403   */\n      gt\n        /* \"#utility.yul\":18370:18426   */\n      iszero\n      tag_658\n      jumpi\n        /* \"#utility.yul\":18406:18424   */\n      tag_659\n      tag_140\n      jump\t// in\n    tag_659:\n        /* \"#utility.yul\":18370:18426   */\n    tag_658:\n        /* \"#utility.yul\":18444:18473   */\n      tag_660\n        /* \"#utility.yul\":18466:18472   */\n      dup3\n        /* \"#utility.yul\":18444:18473   */\n      tag_560\n      jump\t// in\n    tag_660:\n        /* \"#utility.yul\":18436:18473   */\n      swap1\n      pop\n        /* \"#utility.yul\":18528:18532   */\n      0x20\n        /* \"#utility.yul\":18522:18526   */\n      dup2\n        /* \"#utility.yul\":18518:18533   */\n      add\n        /* \"#utility.yul\":18510:18533   */\n      swap1\n      pop\n        /* \"#utility.yul\":18232:18540   */\n      swap2\n      swap1\n      pop\n      jump\t// out\n        /* \"#utility.yul\":18546:18706   */\n    tag_544:\n        /* \"#utility.yul\":18641:18645   */\n      0x00\n        /* \"#utility.yul\":18664:18667   */\n      dup2\n        /* \"#utility.yul\":18656:18667   */\n      swap1\n      pop\n        /* \"#utility.yul\":18694:18698   */\n      0x20\n        /* \"#utility.yul\":18689:18692   */\n      dup3\n        /* \"#utility.yul\":18685:18699   */\n      add\n        /* \"#utility.yul\":18677:18699   */\n      swap1\n      pop\n        /* \"#utility.yul\":18546:18706   */\n      swap2\n      swap1\n      pop\n      jump\t// out\n        /* \"#utility.yul\":18712:18854   */\n    tag_540:\n        /* \"#utility.yul\":18807:18813   */\n      0x00\n        /* \"#utility.yul\":18841:18846   */\n      dup2\n        /* \"#utility.yul\":18835:18847   */\n      mload\n        /* \"#utility.yul\":18825:18847   */\n      swap1\n      pop\n        /* \"#utility.yul\":18712:18854   */\n      swap2\n      swap1\n      pop\n      jump\t// out\n        /* \"#utility.yul\":18860:18959   */\n    tag_554:\n        /* \"#utility.yul\":18912:18918   */\n      0x00\n        /* \"#utility.yul\":18946:18951   */\n      dup2\n        /* \"#utility.yul\":18940:18952   */\n      mload\n        /* \"#utility.yul\":18930:18952   */\n      swap1\n      pop\n        /* \"#utility.yul\":18860:18959   */\n      swap2\n      swap1\n      pop\n      jump\t// out\n        /* \"#utility.yul\":18965:19106   */\n    tag_550:\n        /* \"#utility.yul\":19063:19067   */\n      0x00\n        /* \"#utility.yul\":19095:19099   */\n      0x20\n        /* \"#utility.yul\":19090:19093   */\n      dup3\n        /* \"#utility.yul\":19086:19100   */\n      add\n        /* \"#utility.yul\":19078:19100   */\n      swap1\n      pop\n        /* \"#utility.yul\":18965:19106   */\n      swap2\n      swap1\n      pop\n      jump\t// out\n        /* \"#utility.yul\":19112:19324   */\n    tag_542:\n        /* \"#utility.yul\":19239:19250   */\n      0x00\n        /* \"#utility.yul\":19273:19279   */\n      dup3\n        /* \"#utility.yul\":19268:19271   */\n      dup3\n        /* \"#utility.yul\":19261:19280   */\n      mstore\n        /* \"#utility.yul\":19313:19317   */\n      0x20\n        /* \"#utility.yul\":19308:19311   */\n      dup3\n        /* \"#utility.yul\":19304:19318   */\n      add\n        /* \"#utility.yul\":19289:19318   */\n      swap1\n      pop\n        /* \"#utility.yul\":19112:19324   */\n      swap3\n      swap2\n      pop\n      pop\n      jump\t// out\n        /* \"#utility.yul\":19330:19489   */\n    tag_556:\n        /* \"#utility.yul\":19404:19415   */\n      0x00\n        /* \"#utility.yul\":19438:19444   */\n      dup3\n        /* \"#utility.yul\":19433:19436   */\n      dup3\n        /* \"#utility.yul\":19426:19445   */\n      mstore\n        /* \"#utility.yul\":19478:19482   */\n      0x20\n        /* \"#utility.yul\":19473:19476   */\n      dup3\n        /* \"#utility.yul\":19469:19483   */\n      add\n        /* \"#utility.yul\":19454:19483   */\n      swap1\n      pop\n        /* \"#utility.yul\":19330:19489   */\n      swap3\n      swap2\n      pop\n      pop\n      jump\t// out\n        /* \"#utility.yul\":19495:19664   */\n    tag_570:\n        /* \"#utility.yul\":19579:19590   */\n      0x00\n        /* \"#utility.yul\":19613:19619   */\n      dup3\n        /* \"#utility.yul\":19608:19611   */\n      dup3\n        /* \"#utility.yul\":19601:19620   */\n      mstore\n        /* \"#utility.yul\":19653:19657   */\n      0x20\n        /* \"#utility.yul\":19648:19651   */\n      dup3\n        /* \"#utility.yul\":19644:19658   */\n      add\n        /* \"#utility.yul\":19629:19658   */\n      swap1\n      pop\n        /* \"#utility.yul\":19495:19664   */\n      swap3\n      swap2\n      pop\n      pop\n      jump\t// out\n        /* \"#utility.yul\":19670:19818   */\n    tag_565:\n        /* \"#utility.yul\":19772:19783   */\n      0x00\n        /* \"#utility.yul\":19809:19812   */\n      dup2\n        /* \"#utility.yul\":19794:19812   */\n      swap1\n      pop\n        /* \"#utility.yul\":19670:19818   */\n      swap3\n      swap2\n      pop\n      pop\n      jump\t// out\n        /* \"#utility.yul\":19824:20129   */\n    tag_137:\n        /* \"#utility.yul\":19864:19867   */\n      0x00\n        /* \"#utility.yul\":19883:19903   */\n      tag_670\n        /* \"#utility.yul\":19901:19902   */\n      dup3\n        /* \"#utility.yul\":19883:19903   */\n      tag_615\n      jump\t// in\n    tag_670:\n        /* \"#utility.yul\":19878:19903   */\n      swap2\n      pop\n        /* \"#utility.yul\":19917:19937   */\n      tag_671\n        /* \"#utility.yul\":19935:19936   */\n      dup4\n        /* \"#utility.yul\":19917:19937   */\n      tag_615\n      jump\t// in\n    tag_671:\n        /* \"#utility.yul\":19912:19937   */\n      swap3\n      pop\n        /* \"#utility.yul\":20071:20072   */\n      dup3\n        /* \"#utility.yul\":20003:20069   */\n      0xffffffffffffffffffffffffffffffffffffffffffffffffffffffffffffffff\n        /* \"#utility.yul\":19999:20073   */\n      sub\n        /* \"#utility.yul\":19996:19997   */\n      dup3\n        /* \"#utility.yul\":19993:20074   */\n      gt\n        /* \"#utility.yul\":19990:20097   */\n      iszero\n      tag_672\n      jumpi\n        /* \"#utility.yul\":20077:20095   */\n      tag_673\n      tag_674\n      jump\t// in\n    tag_673:\n        /* \"#utility.yul\":19990:20097   */\n    tag_672:\n        /* \"#utility.yul\":20121:20122   */\n      dup3\n        /* \"#utility.yul\":20118:20119   */\n      dup3\n        /* \"#utility.yul\":20114:20123   */\n      add\n        /* \"#utility.yul\":20107:20123   */\n      swap1\n      pop\n        /* \"#utility.yul\":19824:20129   */\n      swap3\n      swap2\n      pop\n      pop\n      jump\t// out\n        /* \"#utility.yul\":20135:20326   */\n    tag_135:\n        /* \"#utility.yul\":20175:20179   */\n      0x00\n        /* \"#utility.yul\":20195:20215   */\n      tag_676\n        /* \"#utility.yul\":20213:20214   */\n      dup3\n        /* \"#utility.yul\":20195:20215   */\n      tag_615\n      jump\t// in\n    tag_676:\n        /* \"#utility.yul\":20190:20215   */\n      swap2\n      pop\n        /* \"#utility.yul\":20229:20249   */\n      tag_677\n        /* \"#utility.yul\":20247:20248   */\n      dup4\n        /* \"#utility.yul\":20229:20249   */\n      tag_615\n      jump\t// in\n    tag_677:\n        /* \"#utility.yul\":20224:20249   */\n      swap3\n      pop\n        /* \"#utility.yul\":20268:20269   */\n      dup3\n        /* \"#utility.yul\":20265:20266   */\n      dup3\n        /* \"#utility.yul\":20262:20270   */\n      lt\n        /* \"#utility.yul\":20259:20293   */\n      iszero\n      tag_678\n      jumpi\n        /* \"#utility.yul\":20273:20291   */\n      tag_679\n      tag_674\n      jump\t// in\n    tag_679:\n        /* \"#utility.yul\":20259:20293   */\n    tag_678:\n        /* \"#utility.yul\":20318:20319   */\n      dup3\n        /* \"#utility.yul\":20315:20316   */\n      dup3\n        /* \"#utility.yul\":20311:20320   */\n      sub\n        /* \"#utility.yul\":20303:20320   */\n      swap1\n      pop\n        /* \"#utility.yul\":20135:20326   */\n      swap3\n      swap2\n      pop\n      pop\n      jump\t// out\n        /* \"#utility.yul\":20332:20428   */\n    tag_533:\n        /* \"#utility.yul\":20369:20376   */\n      0x00\n        /* \"#utility.yul\":20398:20422   */\n      tag_681\n        /* \"#utility.yul\":20416:20421   */\n      dup3\n        /* \"#utility.yul\":20398:20422   */\n      tag_682\n      jump\t// in\n    tag_681:\n        /* \"#utility.yul\":20387:20422   */\n      swap1\n      pop\n        /* \"#utility.yul\":20332:20428   */\n      swap2\n      swap1\n      pop\n      jump\t// out\n        /* \"#utility.yul\":20434:20524   */\n    tag_683:\n        /* \"#utility.yul\":20468:20475   */\n      0x00\n        /* \"#utility.yul\":20511:20516   */\n      dup2\n        /* \"#utility.yul\":20504:20517   */\n      iszero\n        /* \"#utility.yul\":20497:20518   */\n      iszero\n        /* \"#utility.yul\":20486:20518   */\n      swap1\n      pop\n        /* \"#utility.yul\":20434:20524   */\n      swap2\n      swap1\n      pop\n      jump\t// out\n        /* \"#utility.yul\":20530:20656   */\n    tag_682:\n        /* \"#utility.yul\":20567:20574   */\n      0x00\n        /* \"#utility.yul\":20607:20649   */\n      0xffffffffffffffffffffffffffffffffffffffff\n        /* \"#utility.yul\":20600:20605   */\n      dup3\n        /* \"#utility.yul\":20596:20650   */\n      and\n        /* \"#utility.yul\":20585:20650   */\n      swap1\n      pop\n        /* \"#utility.yul\":20530:20656   */\n      swap2\n      swap1\n      pop\n      jump\t// out\n        /* \"#utility.yul\":20662:20739   */\n    tag_615:\n        /* \"#utility.yul\":20699:20706   */\n      0x00\n        /* \"#utility.yul\":20728:20733   */\n      dup2\n        /* \"#utility.yul\":20717:20733   */\n      swap1\n      pop\n        /* \"#utility.yul\":20662:20739   */\n      swap2\n      swap1\n      pop\n      jump\t// out\n        /* \"#utility.yul\":20745:20831   */\n    tag_621:\n        /* \"#utility.yul\":20780:20787   */\n      0x00\n        /* \"#utility.yul\":20820:20824   */\n      0xff\n        /* \"#utility.yul\":20813:20818   */\n      dup3\n        /* \"#utility.yul\":20809:20825   */\n      and\n        /* \"#utility.yul\":20798:20825   */\n      swap1\n      pop\n        /* \"#utility.yul\":20745:20831   */\n      swap2\n      swap1\n      pop\n      jump\t// out\n        /* \"#utility.yul\":20837:20991   */\n    tag_449:\n        /* \"#utility.yul\":20921:20927   */\n      dup3\n        /* \"#utility.yul\":20916:20919   */\n      dup2\n        /* \"#utility.yul\":20911:20914   */\n      dup4\n        /* \"#utility.yul\":20898:20928   */\n      calldatacopy\n        /* \"#utility.yul\":20983:20984   */\n      0x00\n        /* \"#utility.yul\":20974:20980   */\n      dup4\n        /* \"#utility.yul\":20969:20972   */\n      dup4\n        /* \"#utility.yul\":20965:20981   */\n      add\n        /* \"#utility.yul\":20958:20985   */\n      mstore\n        /* \"#utility.yul\":20837:20991   */\n      pop\n      pop\n      pop\n      jump\t// out\n        /* \"#utility.yul\":20997:21304   */\n    tag_558:\n        /* \"#utility.yul\":21065:21066   */\n      0x00\n        /* \"#utility.yul\":21075:21188   */\n    tag_690:\n        /* \"#utility.yul\":21089:21095   */\n      dup4\n        /* \"#utility.yul\":21086:21087   */\n      dup2\n        /* \"#utility.yul\":21083:21096   */\n      lt\n        /* \"#utility.yul\":21075:21188   */\n      iszero\n      tag_692\n      jumpi\n        /* \"#utility.yul\":21174:21175   */\n      dup1\n        /* \"#utility.yul\":21169:21172   */\n      dup3\n        /* \"#utility.yul\":21165:21176   */\n      add\n        /* \"#utility.yul\":21159:21177   */\n      mload\n        /* \"#utility.yul\":21155:21156   */\n      dup2\n        /* \"#utility.yul\":21150:21153   */\n      dup5\n        /* \"#utility.yul\":21146:21157   */\n      add\n        /* \"#utility.yul\":21139:21178   */\n      mstore\n        /* \"#utility.yul\":21111:21113   */\n      0x20\n        /* \"#utility.yul\":21108:21109   */\n      dup2\n        /* \"#utility.yul\":21104:21114   */\n      add\n        /* \"#utility.yul\":21099:21114   */\n      swap1\n      pop\n        /* \"#utility.yul\":21075:21188   */\n      jump(tag_690)\n    tag_692:\n        /* \"#utility.yul\":21206:21212   */\n      dup4\n        /* \"#utility.yul\":21203:21204   */\n      dup2\n        /* \"#utility.yul\":21200:21213   */\n      gt\n        /* \"#utility.yul\":21197:21298   */\n      iszero\n      tag_693\n      jumpi\n        /* \"#utility.yul\":21286:21287   */\n      0x00\n        /* \"#utility.yul\":21277:21283   */\n      dup5\n        /* \"#utility.yul\":21272:21275   */\n      dup5\n        /* \"#utility.yul\":21268:21284   */\n      add\n        /* \"#utility.yul\":21261:21288   */\n      mstore\n        /* \"#utility.yul\":21197:21298   */\n    tag_693:\n        /* \"#utility.yul\":21046:21304   */\n      pop\n        /* \"#utility.yul\":20997:21304   */\n      pop\n      pop\n      pop\n      jump\t// out\n        /* \"#utility.yul\":21310:21481   */\n    tag_167:\n        /* \"#utility.yul\":21349:21352   */\n      0x00\n        /* \"#utility.yul\":21372:21396   */\n      tag_695\n        /* \"#utility.yul\":21390:21395   */\n      dup3\n        /* \"#utility.yul\":21372:21396   */\n      tag_615\n      jump\t// in\n    tag_695:\n        /* \"#utility.yul\":21363:21396   */\n      swap2\n      pop\n        /* \"#utility.yul\":21418:21422   */\n      0x00\n        /* \"#utility.yul\":21411:21416   */\n      dup3\n        /* \"#utility.yul\":21408:21423   */\n      eq\n        /* \"#utility.yul\":21405:21446   */\n      iszero\n      tag_696\n      jumpi\n        /* \"#utility.yul\":21426:21444   */\n      tag_697\n      tag_674\n      jump\t// in\n    tag_697:\n        /* \"#utility.yul\":21405:21446   */\n    tag_696:\n        /* \"#utility.yul\":21473:21474   */\n      0x01\n        /* \"#utility.yul\":21466:21471   */\n      dup3\n        /* \"#utility.yul\":21462:21475   */\n      sub\n        /* \"#utility.yul\":21455:21475   */\n      swap1\n      pop\n        /* \"#utility.yul\":21310:21481   */\n      swap2\n      swap1\n      pop\n      jump\t// out\n        /* \"#utility.yul\":21487:21807   */\n    tag_84:\n        /* \"#utility.yul\":21531:21537   */\n      0x00\n        /* \"#utility.yul\":21568:21569   */\n      0x02\n        /* \"#utility.yul\":21562:21566   */\n      dup3\n        /* \"#utility.yul\":21558:21570   */\n      div\n        /* \"#utility.yul\":21548:21570   */\n      swap1\n      pop\n        /* \"#utility.yul\":21615:21616   */\n      0x01\n        /* \"#utility.yul\":21609:21613   */\n      dup3\n        /* \"#utility.yul\":21605:21617   */\n      and\n        /* \"#utility.yul\":21636:21654   */\n      dup1\n        /* \"#utility.yul\":21626:21707   */\n      tag_699\n      jumpi\n        /* \"#utility.yul\":21692:21696   */\n      0x7f\n        /* \"#utility.yul\":21684:21690   */\n      dup3\n        /* \"#utility.yul\":21680:21697   */\n      and\n        /* \"#utility.yul\":21670:21697   */\n      swap2\n      pop\n        /* \"#utility.yul\":21626:21707   */\n    tag_699:\n        /* \"#utility.yul\":21754:21756   */\n      0x20\n        /* \"#utility.yul\":21746:21752   */\n      dup3\n        /* \"#utility.yul\":21743:21757   */\n      lt\n        /* \"#utility.yul\":21723:21741   */\n      dup2\n        /* \"#utility.yul\":21720:21758   */\n      eq\n        /* \"#utility.yul\":21717:21801   */\n      iszero\n      tag_700\n      jumpi\n        /* \"#utility.yul\":21773:21791   */\n      tag_701\n      tag_702\n      jump\t// in\n    tag_701:\n        /* \"#utility.yul\":21717:21801   */\n    tag_700:\n        /* \"#utility.yul\":21538:21807   */\n      pop\n        /* \"#utility.yul\":21487:21807   */\n      swap2\n      swap1\n      pop\n      jump\t// out\n        /* \"#utility.yul\":21813:22094   */\n    tag_655:\n        /* \"#utility.yul\":21896:21923   */\n      tag_704\n        /* \"#utility.yul\":21918:21922   */\n      dup3\n        /* \"#utility.yul\":21896:21923   */\n      tag_560\n      jump\t// in\n    tag_704:\n        /* \"#utility.yul\":21888:21894   */\n      dup2\n        /* \"#utility.yul\":21884:21924   */\n      add\n        /* \"#utility.yul\":22026:22032   */\n      dup2\n        /* \"#utility.yul\":22014:22024   */\n      dup2\n        /* \"#utility.yul\":22011:22033   */\n      lt\n        /* \"#utility.yul\":21990:22008   */\n      0xffffffffffffffff\n        /* \"#utility.yul\":21978:21988   */\n      dup3\n        /* \"#utility.yul\":21975:22009   */\n      gt\n        /* \"#utility.yul\":21972:22034   */\n      or\n        /* \"#utility.yul\":21969:22057   */\n      iszero\n      tag_705\n      jumpi\n        /* \"#utility.yul\":22037:22055   */\n      tag_706\n      tag_140\n      jump\t// in\n    tag_706:\n        /* \"#utility.yul\":21969:22057   */\n    tag_705:\n        /* \"#utility.yul\":22077:22087   */\n      dup1\n        /* \"#utility.yul\":22073:22075   */\n      0x40\n        /* \"#utility.yul\":22066:22088   */\n      mstore\n        /* \"#utility.yul\":21856:22094   */\n      pop\n        /* \"#utility.yul\":21813:22094   */\n      pop\n      pop\n      jump\t// out\n        /* \"#utility.yul\":22100:22333   */\n    tag_165:\n        /* \"#utility.yul\":22139:22142   */\n      0x00\n        /* \"#utility.yul\":22162:22186   */\n      tag_708\n        /* \"#utility.yul\":22180:22185   */\n      dup3\n        /* \"#utility.yul\":22162:22186   */\n      tag_615\n      jump\t// in\n    tag_708:\n        /* \"#utility.yul\":22153:22186   */\n      swap2\n      pop\n        /* \"#utility.yul\":22208:22274   */\n      0xffffffffffffffffffffffffffffffffffffffffffffffffffffffffffffffff\n        /* \"#utility.yul\":22201:22206   */\n      dup3\n        /* \"#utility.yul\":22198:22275   */\n      eq\n        /* \"#utility.yul\":22195:22298   */\n      iszero\n      tag_709\n      jumpi\n        /* \"#utility.yul\":22278:22296   */\n      tag_710\n      tag_674\n      jump\t// in\n    tag_710:\n        /* \"#utility.yul\":22195:22298   */\n    tag_709:\n        /* \"#utility.yul\":22325:22326   */\n      0x01\n        /* \"#utility.yul\":22318:22323   */\n      dup3\n        /* \"#utility.yul\":22314:22327   */\n      add\n        /* \"#utility.yul\":22307:22327   */\n      swap1\n      pop\n        /* \"#utility.yul\":22100:22333   */\n      swap2\n      swap1\n      pop\n      jump\t// out\n        /* \"#utility.yul\":22339:22519   */\n    tag_674:\n        /* \"#utility.yul\":22387:22464   */\n      0x4e487b7100000000000000000000000000000000000000000000000000000000\n        /* \"#utility.yul\":22384:22385   */\n      0x00\n        /* \"#utility.yul\":22377:22465   */\n      mstore\n        /* \"#utility.yul\":22484:22488   */\n      0x11\n        /* \"#utility.yul\":22481:22482   */\n      0x04\n        /* \"#utility.yul\":22474:22489   */\n      mstore\n        /* \"#utility.yul\":22508:22512   */\n      0x24\n        /* \"#utility.yul\":22505:22506   */\n      0x00\n        /* \"#utility.yul\":22498:22513   */\n      revert\n        /* \"#utility.yul\":22525:22705   */\n    tag_702:\n        /* \"#utility.yul\":22573:22650   */\n      0x4e487b7100000000000000000000000000000000000000000000000000000000\n        /* \"#utility.yul\":22570:22571   */\n      0x00\n        /* \"#utility.yul\":22563:22651   */\n      mstore\n        /* \"#utility.yul\":22670:22674   */\n      0x22\n        /* \"#utility.yul\":22667:22668   */\n      0x04\n        /* \"#utility.yul\":22660:22675   */\n      mstore\n        /* \"#utility.yul\":22694:22698   */\n      0x24\n        /* \"#utility.yul\":22691:22692   */\n      0x00\n        /* \"#utility.yul\":22684:22699   */\n      revert\n        /* \"#utility.yul\":22711:22891   */\n    tag_81:\n        /* \"#utility.yul\":22759:22836   */\n      0x4e487b7100000000000000000000000000000000000000000000000000000000\n        /* \"#utility.yul\":22756:22757   */\n      0x00\n        /* \"#utility.yul\":22749:22837   */\n      mstore\n        /* \"#utility.yul\":22856:22860   */\n      0x32\n        /* \"#utility.yul\":22853:22854   */\n      0x04\n        /* \"#utility.yul\":22846:22861   */\n      mstore\n        /* \"#utility.yul\":22880:22884   */\n      0x24\n        /* \"#utility.yul\":22877:22878   */\n      0x00\n        /* \"#utility.yul\":22870:22885   */\n      revert\n        /* \"#utility.yul\":22897:23077   */\n    tag_140:\n        /* \"#utility.yul\":22945:23022   */\n      0x4e487b7100000000000000000000000000000000000000000000000000000000\n        /* \"#utility.yul\":22942:22943   */\n      0x00\n        /* \"#utility.yul\":22935:23023   */\n      mstore\n        /* \"#utility.yul\":23042:23046   */\n      0x41\n        /* \"#utility.yul\":23039:23040   */\n      0x04\n        /* \"#utility.yul\":23032:23047   */\n      mstore\n        /* \"#utility.yul\":23066:23070   */\n      0x24\n        /* \"#utility.yul\":23063:23064   */\n      0x00\n        /* \"#utility.yul\":23056:23071   */\n      revert\n        /* \"#utility.yul\":23083:23200   */\n    tag_465:\n        /* \"#utility.yul\":23192:23193   */\n      0x00\n        /* \"#utility.yul\":23189:23190   */\n      dup1\n        /* \"#utility.yul\":23182:23194   */\n      revert\n        /* \"#utility.yul\":23206:23323   */\n    tag_447:\n        /* \"#utility.yul\":23315:23316   */\n      0x00\n        /* \"#utility.yul\":23312:23313   */\n      dup1\n        /* \"#utility.yul\":23305:23317   */\n      revert\n        /* \"#utility.yul\":23329:23446   */\n    tag_491:\n        /* \"#utility.yul\":23438:23439   */\n      0x00\n        /* \"#utility.yul\":23435:23436   */\n      dup1\n        /* \"#utility.yul\":23428:23440   */\n      revert\n        /* \"#utility.yul\":23452:23569   */\n    tag_478:\n        /* \"#utility.yul\":23561:23562   */\n      0x00\n        /* \"#utility.yul\":23558:23559   */\n      dup1\n        /* \"#utility.yul\":23551:23563   */\n      revert\n        /* \"#utility.yul\":23575:23677   */\n    tag_560:\n        /* \"#utility.yul\":23616:23622   */\n      0x00\n        /* \"#utility.yul\":23667:23669   */\n      0x1f\n        /* \"#utility.yul\":23663:23670   */\n      not\n        /* \"#utility.yul\":23658:23660   */\n      0x1f\n        /* \"#utility.yul\":23651:23656   */\n      dup4\n        /* \"#utility.yul\":23647:23661   */\n      add\n        /* \"#utility.yul\":23643:23671   */\n      and\n        /* \"#utility.yul\":23633:23671   */\n      swap1\n      pop\n        /* \"#utility.yul\":23575:23677   */\n      swap2\n      swap1\n      pop\n      jump\t// out\n        /* \"#utility.yul\":23683:23908   */\n    tag_572:\n        /* \"#utility.yul\":23823:23857   */\n      0x4f776e61626c653a206e6577206f776e657220697320746865207a65726f2061\n        /* \"#utility.yul\":23819:23820   */\n      0x00\n        /* \"#utility.yul\":23811:23817   */\n      dup3\n        /* \"#utility.yul\":23807:23821   */\n      add\n        /* \"#utility.yul\":23800:23858   */\n      mstore\n        /* \"#utility.yul\":23892:23900   */\n      0x6464726573730000000000000000000000000000000000000000000000000000\n        /* \"#utility.yul\":23887:23889   */\n      0x20\n        /* \"#utility.yul\":23879:23885   */\n      dup3\n        /* \"#utility.yul\":23875:23890   */\n      add\n        /* \"#utility.yul\":23868:23901   */\n      mstore\n        /* \"#utility.yul\":23683:23908   */\n      pop\n      jump\t// out\n        /* \"#utility.yul\":23914:24151   */\n    tag_577:\n        /* \"#utility.yul\":24054:24088   */\n      0x43616e206e6f7420757064617465207472616e73616374696f6e20414d4c2073\n        /* \"#utility.yul\":24050:24051   */\n      0x00\n        /* \"#utility.yul\":24042:24048   */\n      dup3\n        /* \"#utility.yul\":24038:24052   */\n      add\n        /* \"#utility.yul\":24031:24089   */\n      mstore\n        /* \"#utility.yul\":24123:24143   */\n      0x74617475733a20616c7265616479207365740000000000000000000000000000\n        /* \"#utility.yul\":24118:24120   */\n      0x20\n        /* \"#utility.yul\":24110:24116   */\n      dup3\n        /* \"#utility.yul\":24106:24121   */\n      add\n        /* \"#utility.yul\":24099:24144   */\n      mstore\n        /* \"#utility.yul\":23914:24151   */\n      pop\n      jump\t// out\n        /* \"#utility.yul\":24157:24449   */\n    tag_582:\n        /* \"#utility.yul\":24297:24331   */\n      0x43616e206e6f7420676574207472616e73616374696f6e73206c6973742e2054\n        /* \"#utility.yul\":24293:24294   */\n      0x00\n        /* \"#utility.yul\":24285:24291   */\n      dup3\n        /* \"#utility.yul\":24281:24295   */\n      add\n        /* \"#utility.yul\":24274:24332   */\n      mstore\n        /* \"#utility.yul\":24366:24400   */\n      0x6865206d6178696d756d207472616e73616374696f6e7320636f756e74206973\n        /* \"#utility.yul\":24361:24363   */\n      0x20\n        /* \"#utility.yul\":24353:24359   */\n      dup3\n        /* \"#utility.yul\":24349:24364   */\n      add\n        /* \"#utility.yul\":24342:24401   */\n      mstore\n        /* \"#utility.yul\":24435:24441   */\n      0x2031303000000000000000000000000000000000000000000000000000000000\n        /* \"#utility.yul\":24430:24432   */\n      0x40\n        /* \"#utility.yul\":24422:24428   */\n      dup3\n        /* \"#utility.yul\":24418:24433   */\n      add\n        /* \"#utility.yul\":24411:24442   */\n      mstore\n        /* \"#utility.yul\":24157:24449   */\n      pop\n      jump\t// out\n        /* \"#utility.yul\":24455:24627   */\n    tag_587:\n        /* \"#utility.yul\":24595:24619   */\n      0x4f6e6c7920666f7220636f6d706c6574656420414d4c00000000000000000000\n        /* \"#utility.yul\":24591:24592   */\n      0x00\n        /* \"#utility.yul\":24583:24589   */\n      dup3\n        /* \"#utility.yul\":24579:24593   */\n      add\n        /* \"#utility.yul\":24572:24620   */\n      mstore\n        /* \"#utility.yul\":24455:24627   */\n      pop\n      jump\t// out\n        /* \"#utility.yul\":24633:24815   */\n    tag_592:\n        /* \"#utility.yul\":24773:24807   */\n      0x4f776e61626c653a2063616c6c6572206973206e6f7420746865206f776e6572\n        /* \"#utility.yul\":24769:24770   */\n      0x00\n        /* \"#utility.yul\":24761:24767   */\n      dup3\n        /* \"#utility.yul\":24757:24771   */\n      add\n        /* \"#utility.yul\":24750:24808   */\n      mstore\n        /* \"#utility.yul\":24633:24815   */\n      pop\n      jump\t// out\n        /* \"#utility.yul\":24821:25047   */\n    tag_597:\n        /* \"#utility.yul\":24961:24995   */\n      0x43616e206e6f74207570646174652072656365697665722e20496e76616c6964\n        /* \"#utility.yul\":24957:24958   */\n      0x00\n        /* \"#utility.yul\":24949:24955   */\n      dup3\n        /* \"#utility.yul\":24945:24959   */\n      add\n        /* \"#utility.yul\":24938:24996   */\n      mstore\n        /* \"#utility.yul\":25030:25039   */\n      0x2073656e64657200000000000000000000000000000000000000000000000000\n        /* \"#utility.yul\":25025:25027   */\n      0x20\n        /* \"#utility.yul\":25017:25023   */\n      dup3\n        /* \"#utility.yul\":25013:25028   */\n      add\n        /* \"#utility.yul\":25006:25040   */\n      mstore\n        /* \"#utility.yul\":24821:25047   */\n      pop\n      jump\t// out\n        /* \"#utility.yul\":25053:25301   */\n    tag_602:\n        /* \"#utility.yul\":25193:25227   */\n      0x43616e206e6f74207570646174652072656365697665722e205472616e736163\n        /* \"#utility.yul\":25189:25190   */\n      0x00\n        /* \"#utility.yul\":25181:25187   */\n      dup3\n        /* \"#utility.yul\":25177:25191   */\n      add\n        /* \"#utility.yul\":25170:25228   */\n      mstore\n        /* \"#utility.yul\":25262:25293   */\n      0x74696f6e20616c726561647920686173206265656e2075706461746564000000\n        /* \"#utility.yul\":25257:25259   */\n      0x20\n        /* \"#utility.yul\":25249:25255   */\n      dup3\n        /* \"#utility.yul\":25245:25260   */\n      add\n        /* \"#utility.yul\":25238:25294   */\n      mstore\n        /* \"#utility.yul\":25053:25301   */\n      pop\n      jump\t// out\n        /* \"#utility.yul\":25307:25429   */\n    tag_453:\n        /* \"#utility.yul\":25380:25404   */\n      tag_728\n        /* \"#utility.yul\":25398:25403   */\n      dup2\n        /* \"#utility.yul\":25380:25404   */\n      tag_533\n      jump\t// in\n    tag_728:\n        /* \"#utility.yul\":25373:25378   */\n      dup2\n        /* \"#utility.yul\":25370:25405   */\n      eq\n        /* \"#utility.yul\":25360:25423   */\n      tag_729\n      jumpi\n        /* \"#utility.yul\":25419:25420   */\n      0x00\n        /* \"#utility.yul\":25416:25417   */\n      dup1\n        /* \"#utility.yul\":25409:25421   */\n      revert\n        /* \"#utility.yul\":25360:25423   */\n    tag_729:\n        /* \"#utility.yul\":25307:25429   */\n      pop\n      jump\t// out\n        /* \"#utility.yul\":25435:25551   */\n    tag_460:\n        /* \"#utility.yul\":25505:25526   */\n      tag_731\n        /* \"#utility.yul\":25520:25525   */\n      dup2\n        /* \"#utility.yul\":25505:25526   */\n      tag_683\n      jump\t// in\n    tag_731:\n        /* \"#utility.yul\":25498:25503   */\n      dup2\n        /* \"#utility.yul\":25495:25527   */\n      eq\n        /* \"#utility.yul\":25485:25545   */\n      tag_732\n      jumpi\n        /* \"#utility.yul\":25541:25542   */\n      0x00\n        /* \"#utility.yul\":25538:25539   */\n      dup1\n        /* \"#utility.yul\":25531:25543   */\n      revert\n        /* \"#utility.yul\":25485:25545   */\n    tag_732:\n        /* \"#utility.yul\":25435:25551   */\n      pop\n      jump\t// out\n        /* \"#utility.yul\":25557:25679   */\n    tag_470:\n        /* \"#utility.yul\":25630:25654   */\n      tag_734\n        /* \"#utility.yul\":25648:25653   */\n      dup2\n        /* \"#utility.yul\":25630:25654   */\n      tag_615\n      jump\t// in\n    tag_734:\n        /* \"#utility.yul\":25623:25628   */\n      dup2\n        /* \"#utility.yul\":25620:25655   */\n      eq\n        /* \"#utility.yul\":25610:25673   */\n      tag_735\n      jumpi\n        /* \"#utility.yul\":25669:25670   */\n      0x00\n        /* \"#utility.yul\":25666:25667   */\n      dup1\n        /* \"#utility.yul\":25659:25671   */\n      revert\n        /* \"#utility.yul\":25610:25673   */\n    tag_735:\n        /* \"#utility.yul\":25557:25679   */\n      pop\n      jump\t// out\n        /* \"#utility.yul\":25685:25803   */\n    tag_474:\n        /* \"#utility.yul\":25756:25778   */\n      tag_737\n        /* \"#utility.yul\":25772:25777   */\n      dup2\n        /* \"#utility.yul\":25756:25778   */\n      tag_621\n      jump\t// in\n    tag_737:\n        /* \"#utility.yul\":25749:25754   */\n      dup2\n        /* \"#utility.yul\":25746:25779   */\n      eq\n        /* \"#utility.yul\":25736:25797   */\n      tag_738\n      jumpi\n        /* \"#utility.yul\":25793:25794   */\n      0x00\n        /* \"#utility.yul\":25790:25791   */\n      dup1\n        /* \"#utility.yul\":25783:25795   */\n      revert\n        /* \"#utility.yul\":25736:25797   */\n    tag_738:\n        /* \"#utility.yul\":25685:25803   */\n      pop\n      jump\t// out\n\n    auxdata: 0xa2646970667358221220dc0b2d8dd450ad3016757293965bcffeb3444f3aebe3e27bd0313d6d6717525064736f6c63430008070033\n}\n",
				"bytecode": {
					"linkReferences": {},
					"object": "60806040523480156200001157600080fd5b5062000032620000266200003860201b60201c565b6200004060201b60201c565b62000104565b600033905090565b60008060009054906101000a900473ffffffffffffffffffffffffffffffffffffffff169050816000806101000a81548173ffffffffffffffffffffffffffffffffffffffff021916908373ffffffffffffffffffffffffffffffffffffffff1602179055508173ffffffffffffffffffffffffffffffffffffffff168173ffffffffffffffffffffffffffffffffffffffff167f8be0079c531659141344cd1fd0a4f28419497f9722a3daafe3b4186f6b6457e060405160405180910390a35050565b61337880620001146000396000f3fe608060405234801561001057600080fd5b50600436106100ea5760003560e01c80638da5cb5b1161008c578063cf99306011610066578063cf9930601461020f578063d39d05271461022b578063e32ab44b14610247578063f2fde38b14610277576100ea565b80638da5cb5b146101a55780639a238f6d146101c35780639b8570f4146101df576100ea565b80635742177c116100c85780635742177c14610133578063715018a6146101635780637ccc241a1461016d57806387e8bd1214610189576100ea565b80631167372d146100ef57806327506f531461010b57806352efea6e14610129575b600080fd5b61010960048036038101906101049190612886565b610293565b005b6101136104fd565b6040516101209190612bf0565b60405180910390f35b610131610770565b005b61014d6004803603810190610148919061276a565b610788565b60405161015a9190612bf0565b60405180910390f35b61016b610b05565b005b61018760048036038101906101829190612833565b610b19565b005b6101a3600480360381019061019e91906127f3565b610e90565b005b6101ad6110b6565b6040516101ba9190612bd5565b60405180910390f35b6101dd60048036038101906101d89190612833565b6110df565b005b6101f960048036038101906101f491906126bb565b611456565b6040516102069190612cf2565b60405180910390f35b61022960048036038101906102249190612797565b61165a565b005b610245600480360381019061024091906127f3565b611a5f565b005b610261600480360381019061025c919061272a565b611c85565b60405161026e9190612bf0565b60405180910390f35b610291600480360381019061028c9190612661565b612136565b005b61029b6121ba565b82610362600182815481106102b3576102b2613060565b5b906000526020600020906006020160030180546102cf90612f56565b80601f01602080910402602001604051908101604052809291908181526020018280546102fb90612f56565b80156103485780601f1061031d57610100808354040283529160200191610348565b820191906000526020600020905b81548152906001019060200180831161032b57829003601f168201915b505050505060405180602001604052806000815250612238565b156103a2576040517f08c379a000000000000000000000000000000000000000000000000000000000815260040161039990612c72565b60405180910390fd5b610468600182815481106103b9576103b8613060565b5b906000526020600020906006020160040180546103d590612f56565b80601f016020809104026020016040519081016040528092919081815260200182805461040190612f56565b801561044e5780601f106104235761010080835404028352916020019161044e565b820191906000526020600020905b81548152906001019060200180831161043157829003601f168201915b505050505060405180602001604052806000815250612238565b156104a8576040517f08c379a000000000000000000000000000000000000000000000000000000000815260040161049f90612c72565b60405180910390fd5b6104b28483611a5f565b6104bc8484610e90565b7f4cea1f87adb8c58c2d35aa0a3723745ff782300a0479866fc1e478a8740df8e58484846040516104ef93929190612d0d565b60405180910390a150505050565b60606001805480602002602001604051908101604052809291908181526020016000905b8282101561076757838290600052602060002090600602016040518060e0016040529081600082015481526020016001820160009054906101000a900473ffffffffffffffffffffffffffffffffffffffff1673ffffffffffffffffffffffffffffffffffffffff1673ffffffffffffffffffffffffffffffffffffffff1681526020016002820160009054906101000a900473ffffffffffffffffffffffffffffffffffffffff1673ffffffffffffffffffffffffffffffffffffffff1673ffffffffffffffffffffffffffffffffffffffff16815260200160038201805461060a90612f56565b80601f016020809104026020016040519081016040528092919081815260200182805461063690612f56565b80156106835780601f1061065857610100808354040283529160200191610683565b820191906000526020600020905b81548152906001019060200180831161066657829003601f168201915b5050505050815260200160048201805461069c90612f56565b80601f01602080910402602001604051908101604052809291908181526020018280546106c890612f56565b80156107155780601f106106ea57610100808354040283529160200191610715565b820191906000526020600020905b8154815290600101906020018083116106f857829003601f168201915b505050505081526020016005820160009054906101000a900460ff1660ff1660ff1681526020016005820160019054906101000a900460ff1660ff1660ff168152505081526020019060010190610521565b50505050905090565b6107786121ba565b60016000610786919061235d565b565b6060606482106107cd576040517f08c379a00000000000000000000000000000000000000000000000000000000081526004016107c490612c52565b60405180910390fd5b6000600180549050905060008382106107e657836107e8565b815b90506000600182846107fa9190612e61565b6108049190612e0b565b905060008267ffffffffffffffff8111156108225761082161308f565b5b60405190808252806020026020018201604052801561085b57816020015b610848612381565b8152602001906001900390816108405790505b5090506000808590505b838110610af7576001808261087a9190612e61565b8154811061088b5761088a613060565b5b90600052602060002090600602016040518060e0016040529081600082015481526020016001820160009054906101000a900473ffffffffffffffffffffffffffffffffffffffff1673ffffffffffffffffffffffffffffffffffffffff1673ffffffffffffffffffffffffffffffffffffffff1681526020016002820160009054906101000a900473ffffffffffffffffffffffffffffffffffffffff1673ffffffffffffffffffffffffffffffffffffffff1673ffffffffffffffffffffffffffffffffffffffff16815260200160038201805461096a90612f56565b80601f016020809104026020016040519081016040528092919081815260200182805461099690612f56565b80156109e35780601f106109b8576101008083540402835291602001916109e3565b820191906000526020600020905b8154815290600101906020018083116109c657829003601f168201915b505050505081526020016004820180546109fc90612f56565b80601f0160208091040260200160405190810160405280929190818152602001828054610a2890612f56565b8015610a755780601f10610a4a57610100808354040283529160200191610a75565b820191906000526020600020905b815481529060010190602001808311610a5857829003601f168201915b505050505081526020016005820160009054906101000a900460ff1660ff1660ff1681526020016005820160019054906101000a900460ff1660ff1660ff1681525050838381518110610acb57610aca613060565b5b60200260200101819052508180610ae190612fb9565b9250508080610aef90612f2c565b915050610865565b508195505050505050919050565b610b0d6121ba565b610b176000612291565b565b610b216121ba565b82610be860018281548110610b3957610b38613060565b5b90600052602060002090600602016003018054610b5590612f56565b80601f0160208091040260200160405190810160405280929190818152602001828054610b8190612f56565b8015610bce5780601f10610ba357610100808354040283529160200191610bce565b820191906000526020600020905b815481529060010190602001808311610bb157829003601f168201915b505050505060405180602001604052806000815250612238565b15610c28576040517f08c379a0000000000000000000000000000000000000000000000000000000008152600401610c1f90612c72565b60405180910390fd5b610cee60018281548110610c3f57610c3e613060565b5b90600052602060002090600602016004018054610c5b90612f56565b80601f0160208091040260200160405190810160405280929190818152602001828054610c8790612f56565b8015610cd45780601f10610ca957610100808354040283529160200191610cd4565b820191906000526020600020905b815481529060010190602001808311610cb757829003601f168201915b505050505060405180602001604052806000815250612238565b15610d2e576040517f08c379a0000000000000000000000000000000000000000000000000000000008152600401610d2590612c72565b60405180910390fd5b600060018581548110610d4457610d43613060565b5b906000526020600020906006020160050160019054906101000a900460ff1660ff1614610da6576040517f08c379a0000000000000000000000000000000000000000000000000000000008152600401610d9d90612c32565b60405180910390fd5b8260018581548110610dbb57610dba613060565b5b906000526020600020906006020160050160016101000a81548160ff021916908360ff1602179055508115610e8a577f4cea1f87adb8c58c2d35aa0a3723745ff782300a0479866fc1e478a8740df8e58460018681548110610e2057610e1f613060565b5b906000526020600020906006020160050160009054906101000a900460ff1660018781548110610e5357610e52613060565b5b906000526020600020906006020160050160019054906101000a900460ff16604051610e8193929190612d0d565b60405180910390a15b50505050565b610e986121ba565b81610f5f60018281548110610eb057610eaf613060565b5b90600052602060002090600602016003018054610ecc90612f56565b80601f0160208091040260200160405190810160405280929190818152602001828054610ef890612f56565b8015610f455780601f10610f1a57610100808354040283529160200191610f45565b820191906000526020600020905b815481529060010190602001808311610f2857829003601f168201915b505050505060405180602001604052806000815250612238565b15610f9f576040517f08c379a0000000000000000000000000000000000000000000000000000000008152600401610f9690612c72565b60405180910390fd5b61106560018281548110610fb657610fb5613060565b5b90600052602060002090600602016004018054610fd290612f56565b80601f0160208091040260200160405190810160405280929190818152602001828054610ffe90612f56565b801561104b5780601f106110205761010080835404028352916020019161104b565b820191906000526020600020905b81548152906001019060200180831161102e57829003601f168201915b505050505060405180602001604052806000815250612238565b156110a5576040517f08c379a000000000000000000000000000000000000000000000000000000000815260040161109c90612c72565b60405180910390fd5b6110b1838360006110df565b505050565b60008060009054906101000a900473ffffffffffffffffffffffffffffffffffffffff16905090565b6110e76121ba565b826111ae600182815481106110ff576110fe613060565b5b9060005260206000209060060201600301805461111b90612f56565b80601f016020809104026020016040519081016040528092919081815260200182805461114790612f56565b80156111945780601f1061116957610100808354040283529160200191611194565b820191906000526020600020905b81548152906001019060200180831161117757829003601f168201915b505050505060405180602001604052806000815250612238565b156111ee576040517f08c379a00000000000000000000000000000000000000000000000000000000081526004016111e590612c72565b60405180910390fd5b6112b46001828154811061120557611204613060565b5b9060005260206000209060060201600401805461122190612f56565b80601f016020809104026020016040519081016040528092919081815260200182805461124d90612f56565b801561129a5780601f1061126f5761010080835404028352916020019161129a565b820191906000526020600020905b81548152906001019060200180831161127d57829003601f168201915b505050505060405180602001604052806000815250612238565b156112f4576040517f08c379a00000000000000000000000000000000000000000000000000000000081526004016112eb90612c72565b60405180910390fd5b60006001858154811061130a57611309613060565b5b906000526020600020906006020160050160009054906101000a900460ff1660ff161461136c576040517f08c379a000000000000000000000000000000000000000000000000000000000815260040161136390612c32565b60405180910390fd5b826001858154811061138157611380613060565b5b906000526020600020906006020160050160006101000a81548160ff021916908360ff1602179055508115611450577f4cea1f87adb8c58c2d35aa0a3723745ff782300a0479866fc1e478a8740df8e584600186815481106113e6576113e5613060565b5b906000526020600020906006020160050160009054906101000a900460ff166001878154811061141957611418613060565b5b906000526020600020906006020160050160019054906101000a900460ff1660405161144793929190612d0d565b60405180910390a15b50505050565b600080600180549050905060016040518060e001604052808381526020018773ffffffffffffffffffffffffffffffffffffffff1681526020018673ffffffffffffffffffffffffffffffffffffffff168152602001858152602001604051806020016040528060008152508152602001600060ff168152602001600060ff1681525090806001815401808255809150506001900390600052602060002090600602016000909190919091506000820151816000015560208201518160010160006101000a81548173ffffffffffffffffffffffffffffffffffffffff021916908373ffffffffffffffffffffffffffffffffffffffff16021790555060408201518160020160006101000a81548173ffffffffffffffffffffffffffffffffffffffff021916908373ffffffffffffffffffffffffffffffffffffffff16021790555060608201518160030190805190602001906115b69291906123f0565b5060808201518160040190805190602001906115d39291906123f0565b5060a08201518160050160006101000a81548160ff021916908360ff16021790555060c08201518160050160016101000a81548160ff021916908360ff16021790555050507f9ae2c53c3ca5e00a02cd45d501b75b8f6aeb8e6fe512b7bbe1e8691b9d3c8ce8816040516116479190612cf2565b60405180910390a1809150509392505050565b6000600183815481106116705761166f613060565b5b90600052602060002090600602016040518060e0016040529081600082015481526020016001820160009054906101000a900473ffffffffffffffffffffffffffffffffffffffff1673ffffffffffffffffffffffffffffffffffffffff1673ffffffffffffffffffffffffffffffffffffffff1681526020016002820160009054906101000a900473ffffffffffffffffffffffffffffffffffffffff1673ffffffffffffffffffffffffffffffffffffffff1673ffffffffffffffffffffffffffffffffffffffff16815260200160038201805461174f90612f56565b80601f016020809104026020016040519081016040528092919081815260200182805461177b90612f56565b80156117c85780601f1061179d576101008083540402835291602001916117c8565b820191906000526020600020905b8154815290600101906020018083116117ab57829003601f168201915b505050505081526020016004820180546117e190612f56565b80601f016020809104026020016040519081016040528092919081815260200182805461180d90612f56565b801561185a5780601f1061182f5761010080835404028352916020019161185a565b820191906000526020600020905b81548152906001019060200180831161183d57829003601f168201915b505050505081526020016005820160009054906101000a900460ff1660ff1660ff1681526020016005820160019054906101000a900460ff1660ff1660ff168152505090506118bc816080015160405180602001604052806000815250612238565b6118fb576040517f08c379a00000000000000000000000000000000000000000000000000000000081526004016118f290612cd2565b60405180910390fd5b3373ffffffffffffffffffffffffffffffffffffffff16816040015173ffffffffffffffffffffffffffffffffffffffff1614806119e157503373ffffffffffffffffffffffffffffffffffffffff163073ffffffffffffffffffffffffffffffffffffffff16638da5cb5b6040518163ffffffff1660e01b815260040160206040518083038186803b15801561199157600080fd5b505afa1580156119a5573d6000803e3d6000fd5b505050506040513d601f19601f820116820180604052508101906119c9919061268e565b73ffffffffffffffffffffffffffffffffffffffff16145b611a20576040517f08c379a0000000000000000000000000000000000000000000000000000000008152600401611a1790612cb2565b60405180910390fd5b8160018481548110611a3557611a34613060565b5b90600052602060002090600602016004019080519060200190611a599291906123f0565b50505050565b611a676121ba565b81611b2e60018281548110611a7f57611a7e613060565b5b90600052602060002090600602016003018054611a9b90612f56565b80601f0160208091040260200160405190810160405280929190818152602001828054611ac790612f56565b8015611b145780601f10611ae957610100808354040283529160200191611b14565b820191906000526020600020905b815481529060010190602001808311611af757829003601f168201915b505050505060405180602001604052806000815250612238565b15611b6e576040517f08c379a0000000000000000000000000000000000000000000000000000000008152600401611b6590612c72565b60405180910390fd5b611c3460018281548110611b8557611b84613060565b5b90600052602060002090600602016004018054611ba190612f56565b80601f0160208091040260200160405190810160405280929190818152602001828054611bcd90612f56565b8015611c1a5780601f10611bef57610100808354040283529160200191611c1a565b820191906000526020600020905b815481529060010190602001808311611bfd57829003601f168201915b505050505060405180602001604052806000815250612238565b15611c74576040517f08c379a0000000000000000000000000000000000000000000000000000000008152600401611c6b90612c72565b60405180910390fd5b611c8083836000610b19565b505050565b606060648210611cca576040517f08c379a0000000000000000000000000000000000000000000000000000000008152600401611cc190612c52565b60405180910390fd5b600080600090505b600180549050811015611d7a578473ffffffffffffffffffffffffffffffffffffffff1660018281548110611d0a57611d09613060565b5b906000526020600020906006020160020160009054906101000a900473ffffffffffffffffffffffffffffffffffffffff1673ffffffffffffffffffffffffffffffffffffffff161415611d67578180611d6390612fb9565b9250505b8080611d7290612fb9565b915050611cd2565b506000838210611d8a5783611d8c565b815b905060008267ffffffffffffffff811115611daa57611da961308f565b5b604051908082528060200260200182016040528015611de357816020015b611dd0612381565b815260200190600190039081611dc85790505b509050600080600180549050905060008190505b6000811115612126578873ffffffffffffffffffffffffffffffffffffffff1660018083611e259190612e61565b81548110611e3657611e35613060565b5b906000526020600020906006020160020160009054906101000a900473ffffffffffffffffffffffffffffffffffffffff1673ffffffffffffffffffffffffffffffffffffffff1614156121135760018082611e929190612e61565b81548110611ea357611ea2613060565b5b90600052602060002090600602016040518060e0016040529081600082015481526020016001820160009054906101000a900473ffffffffffffffffffffffffffffffffffffffff1673ffffffffffffffffffffffffffffffffffffffff1673ffffffffffffffffffffffffffffffffffffffff1681526020016002820160009054906101000a900473ffffffffffffffffffffffffffffffffffffffff1673ffffffffffffffffffffffffffffffffffffffff1673ffffffffffffffffffffffffffffffffffffffff168152602001600382018054611f8290612f56565b80601f0160208091040260200160405190810160405280929190818152602001828054611fae90612f56565b8015611ffb5780601f10611fd057610100808354040283529160200191611ffb565b820191906000526020600020905b815481529060010190602001808311611fde57829003601f168201915b5050505050815260200160048201805461201490612f56565b80601f016020809104026020016040519081016040528092919081815260200182805461204090612f56565b801561208d5780601f106120625761010080835404028352916020019161208d565b820191906000526020600020905b81548152906001019060200180831161207057829003601f168201915b505050505081526020016005820160009054906101000a900460ff1660ff1660ff1681526020016005820160019054906101000a900460ff1660ff1660ff16815250508484815181106120e3576120e2613060565b5b602002602001018190525082806120f990612fb9565b9350508483141561211257839650505050505050612130565b5b808061211e90612f2c565b915050611df7565b5082955050505050505b92915050565b61213e6121ba565b600073ffffffffffffffffffffffffffffffffffffffff168173ffffffffffffffffffffffffffffffffffffffff1614156121ae576040517f08c379a00000000000000000000000000000000000000000000000000000000081526004016121a590612c12565b60405180910390fd5b6121b781612291565b50565b6121c2612355565b73ffffffffffffffffffffffffffffffffffffffff166121e06110b6565b73ffffffffffffffffffffffffffffffffffffffff1614612236576040517f08c379a000000000000000000000000000000000000000000000000000000000815260040161222d90612c92565b60405180910390fd5b565b60008160405160200161224b9190612bbe565b60405160208183030381529060405280519060200120836040516020016122729190612bbe565b6040516020818303038152906040528051906020012014905092915050565b60008060009054906101000a900473ffffffffffffffffffffffffffffffffffffffff169050816000806101000a81548173ffffffffffffffffffffffffffffffffffffffff021916908373ffffffffffffffffffffffffffffffffffffffff1602179055508173ffffffffffffffffffffffffffffffffffffffff168173ffffffffffffffffffffffffffffffffffffffff167f8be0079c531659141344cd1fd0a4f28419497f9722a3daafe3b4186f6b6457e060405160405180910390a35050565b600033905090565b508054600082556006029060005260206000209081019061237e9190612476565b50565b6040518060e0016040528060008152602001600073ffffffffffffffffffffffffffffffffffffffff168152602001600073ffffffffffffffffffffffffffffffffffffffff1681526020016060815260200160608152602001600060ff168152602001600060ff1681525090565b8280546123fc90612f56565b90600052602060002090601f01602090048101928261241e5760008555612465565b82601f1061243757805160ff1916838001178555612465565b82800160010185558215612465579182015b82811115612464578251825591602001919060010190612449565b5b509050612472919061252b565b5090565b5b80821115612527576000808201600090556001820160006101000a81549073ffffffffffffffffffffffffffffffffffffffff02191690556002820160006101000a81549073ffffffffffffffffffffffffffffffffffffffff02191690556003820160006124e69190612548565b6004820160006124f69190612548565b6005820160006101000a81549060ff02191690556005820160016101000a81549060ff021916905550600601612477565b5090565b5b8082111561254457600081600090555060010161252c565b5090565b50805461255490612f56565b6000825580601f106125665750612585565b601f016020900490600052602060002090810190612584919061252b565b5b50565b600061259b61259684612d69565b612d44565b9050828152602081018484840111156125b7576125b66130c3565b5b6125c2848285612eea565b509392505050565b6000813590506125d9816132e6565b92915050565b6000815190506125ee816132e6565b92915050565b600081359050612603816132fd565b92915050565b600082601f83011261261e5761261d6130be565b5b813561262e848260208601612588565b91505092915050565b60008135905061264681613314565b92915050565b60008135905061265b8161332b565b92915050565b600060208284031215612677576126766130cd565b5b6000612685848285016125ca565b91505092915050565b6000602082840312156126a4576126a36130cd565b5b60006126b2848285016125df565b91505092915050565b6000806000606084860312156126d4576126d36130cd565b5b60006126e2868287016125ca565b93505060206126f3868287016125ca565b925050604084013567ffffffffffffffff811115612714576127136130c8565b5b61272086828701612609565b9150509250925092565b60008060408385031215612741576127406130cd565b5b600061274f858286016125ca565b925050602061276085828601612637565b9150509250929050565b6000602082840312156127805761277f6130cd565b5b600061278e84828501612637565b91505092915050565b600080604083850312156127ae576127ad6130cd565b5b60006127bc85828601612637565b925050602083013567ffffffffffffffff8111156127dd576127dc6130c8565b5b6127e985828601612609565b9150509250929050565b6000806040838503121561280a576128096130cd565b5b600061281885828601612637565b92505060206128298582860161264c565b9150509250929050565b60008060006060848603121561284c5761284b6130cd565b5b600061285a86828701612637565b935050602061286b8682870161264c565b925050604061287c868287016125f4565b9150509250925092565b60008060006060848603121561289f5761289e6130cd565b5b60006128ad86828701612637565b93505060206128be8682870161264c565b92505060406128cf8682870161264c565b9150509250925092565b60006128e58383612adf565b905092915050565b6128f681612e95565b82525050565b61290581612e95565b82525050565b600061291682612daa565b6129208185612dcd565b93508360208202850161293285612d9a565b8060005b8581101561296e578484038952815161294f85826128d9565b945061295a83612dc0565b925060208a01995050600181019050612936565b50829750879550505050505092915050565b600061298b82612db5565b6129958185612dde565b93506129a5818560208601612ef9565b6129ae816130d2565b840191505092915050565b60006129c482612db5565b6129ce8185612e00565b93506129de818560208601612ef9565b80840191505092915050565b60006129f7602683612def565b9150612a02826130e3565b604082019050919050565b6000612a1a603283612def565b9150612a2582613132565b604082019050919050565b6000612a3d604483612def565b9150612a4882613181565b606082019050919050565b6000612a60601683612def565b9150612a6b826131f6565b602082019050919050565b6000612a83602083612def565b9150612a8e8261321f565b602082019050919050565b6000612aa6602783612def565b9150612ab182613248565b604082019050919050565b6000612ac9603d83612def565b9150612ad482613297565b604082019050919050565b600060e083016000830151612af76000860182612b82565b506020830151612b0a60208601826128ed565b506040830151612b1d60408601826128ed565b5060608301518482036060860152612b358282612980565b91505060808301518482036080860152612b4f8282612980565b91505060a0830151612b6460a0860182612ba0565b5060c0830151612b7760c0860182612ba0565b508091505092915050565b612b8b81612ed3565b82525050565b612b9a81612ed3565b82525050565b612ba981612edd565b82525050565b612bb881612edd565b82525050565b6000612bca82846129b9565b915081905092915050565b6000602082019050612bea60008301846128fc565b92915050565b60006020820190508181036000830152612c0a818461290b565b905092915050565b60006020820190508181036000830152612c2b816129ea565b9050919050565b60006020820190508181036000830152612c4b81612a0d565b9050919050565b60006020820190508181036000830152612c6b81612a30565b9050919050565b60006020820190508181036000830152612c8b81612a53565b9050919050565b60006020820190508181036000830152612cab81612a76565b9050919050565b60006020820190508181036000830152612ccb81612a99565b9050919050565b60006020820190508181036000830152612ceb81612abc565b9050919050565b6000602082019050612d076000830184612b91565b92915050565b6000606082019050612d226000830186612b91565b612d2f6020830185612baf565b612d3c6040830184612baf565b949350505050565b6000612d4e612d5f565b9050612d5a8282612f88565b919050565b6000604051905090565b600067ffffffffffffffff821115612d8457612d8361308f565b5b612d8d826130d2565b9050602081019050919050565b6000819050602082019050919050565b600081519050919050565b600081519050919050565b6000602082019050919050565b600082825260208201905092915050565b600082825260208201905092915050565b600082825260208201905092915050565b600081905092915050565b6000612e1682612ed3565b9150612e2183612ed3565b9250827fffffffffffffffffffffffffffffffffffffffffffffffffffffffffffffffff03821115612e5657612e55613002565b5b828201905092915050565b6000612e6c82612ed3565b9150612e7783612ed3565b925082821015612e8a57612e89613002565b5b828203905092915050565b6000612ea082612eb3565b9050919050565b60008115159050919050565b600073ffffffffffffffffffffffffffffffffffffffff82169050919050565b6000819050919050565b600060ff82169050919050565b82818337600083830152505050565b60005b83811015612f17578082015181840152602081019050612efc565b83811115612f26576000848401525b50505050565b6000612f3782612ed3565b91506000821415612f4b57612f4a613002565b5b600182039050919050565b60006002820490506001821680612f6e57607f821691505b60208210811415612f8257612f81613031565b5b50919050565b612f91826130d2565b810181811067ffffffffffffffff82111715612fb057612faf61308f565b5b80604052505050565b6000612fc482612ed3565b91507fffffffffffffffffffffffffffffffffffffffffffffffffffffffffffffffff821415612ff757612ff6613002565b5b600182019050919050565b7f4e487b7100000000000000000000000000000000000000000000000000000000600052601160045260246000fd5b7f4e487b7100000000000000000000000000000000000000000000000000000000600052602260045260246000fd5b7f4e487b7100000000000000000000000000000000000000000000000000000000600052603260045260246000fd5b7f4e487b7100000000000000000000000000000000000000000000000000000000600052604160045260246000fd5b600080fd5b600080fd5b600080fd5b600080fd5b6000601f19601f8301169050919050565b7f4f776e61626c653a206e6577206f776e657220697320746865207a65726f206160008201527f6464726573730000000000000000000000000000000000000000000000000000602082015250565b7f43616e206e6f7420757064617465207472616e73616374696f6e20414d4c207360008201527f74617475733a20616c7265616479207365740000000000000000000000000000602082015250565b7f43616e206e6f7420676574207472616e73616374696f6e73206c6973742e205460008201527f6865206d6178696d756d207472616e73616374696f6e7320636f756e7420697360208201527f2031303000000000000000000000000000000000000000000000000000000000604082015250565b7f4f6e6c7920666f7220636f6d706c6574656420414d4c00000000000000000000600082015250565b7f4f776e61626c653a2063616c6c6572206973206e6f7420746865206f776e6572600082015250565b7f43616e206e6f74207570646174652072656365697665722e20496e76616c696460008201527f2073656e64657200000000000000000000000000000000000000000000000000602082015250565b7f43616e206e6f74207570646174652072656365697665722e205472616e73616360008201527f74696f6e20616c726561647920686173206265656e2075706461746564000000602082015250565b6132ef81612e95565b81146132fa57600080fd5b50565b61330681612ea7565b811461331157600080fd5b50565b61331d81612ed3565b811461332857600080fd5b50565b61333481612edd565b811461333f57600080fd5b5056fea2646970667358221220dc0b2d8dd450ad3016757293965bcffeb3444f3aebe3e27bd0313d6d6717525064736f6c63430008070033",
					"opcodes": "PUSH1 0x80 PUSH1 0x40 MSTORE CALLVALUE DUP1 ISZERO PUSH3 0x11 JUMPI PUSH1 0x0 DUP1 REVERT JUMPDEST POP PUSH3 0x32 PUSH3 0x26 PUSH3 0x38 PUSH1 0x20 SHL PUSH1 0x20 SHR JUMP JUMPDEST PUSH3 0x40 PUSH1 0x20 SHL PUSH1 0x20 SHR JUMP JUMPDEST PUSH3 0x104 JUMP JUMPDEST PUSH1 0x0 CALLER SWAP1 POP SWAP1 JUMP JUMPDEST PUSH1 0x0 DUP1 PUSH1 0x0 SWAP1 SLOAD SWAP1 PUSH2 0x100 EXP SWAP1 DIV PUSH20 0xFFFFFFFFFFFFFFFFFFFFFFFFFFFFFFFFFFFFFFFF AND SWAP1 POP DUP2 PUSH1 0x0 DUP1 PUSH2 0x100 EXP DUP2 SLOAD DUP2 PUSH20 0xFFFFFFFFFFFFFFFFFFFFFFFFFFFFFFFFFFFFFFFF MUL NOT AND SWAP1 DUP4 PUSH20 0xFFFFFFFFFFFFFFFFFFFFFFFFFFFFFFFFFFFFFFFF AND MUL OR SWAP1 SSTORE POP DUP2 PUSH20 0xFFFFFFFFFFFFFFFFFFFFFFFFFFFFFFFFFFFFFFFF AND DUP2 PUSH20 0xFFFFFFFFFFFFFFFFFFFFFFFFFFFFFFFFFFFFFFFF AND PUSH32 0x8BE0079C531659141344CD1FD0A4F28419497F9722A3DAAFE3B4186F6B6457E0 PUSH1 0x40 MLOAD PUSH1 0x40 MLOAD DUP1 SWAP2 SUB SWAP1 LOG3 POP POP JUMP JUMPDEST PUSH2 0x3378 DUP1 PUSH3 0x114 PUSH1 0x0 CODECOPY PUSH1 0x0 RETURN INVALID PUSH1 0x80 PUSH1 0x40 MSTORE CALLVALUE DUP1 ISZERO PUSH2 0x10 JUMPI PUSH1 0x0 DUP1 REVERT JUMPDEST POP PUSH1 0x4 CALLDATASIZE LT PUSH2 0xEA JUMPI PUSH1 0x0 CALLDATALOAD PUSH1 0xE0 SHR DUP1 PUSH4 0x8DA5CB5B GT PUSH2 0x8C JUMPI DUP1 PUSH4 0xCF993060 GT PUSH2 0x66 JUMPI DUP1 PUSH4 0xCF993060 EQ PUSH2 0x20F JUMPI DUP1 PUSH4 0xD39D0527 EQ PUSH2 0x22B JUMPI DUP1 PUSH4 0xE32AB44B EQ PUSH2 0x247 JUMPI DUP1 PUSH4 0xF2FDE38B EQ PUSH2 0x277 JUMPI PUSH2 0xEA JUMP JUMPDEST DUP1 PUSH4 0x8DA5CB5B EQ PUSH2 0x1A5 JUMPI DUP1 PUSH4 0x9A238F6D EQ PUSH2 0x1C3 JUMPI DUP1 PUSH4 0x9B8570F4 EQ PUSH2 0x1DF JUMPI PUSH2 0xEA JUMP JUMPDEST DUP1 PUSH4 0x5742177C GT PUSH2 0xC8 JUMPI DUP1 PUSH4 0x5742177C EQ PUSH2 0x133 JUMPI DUP1 PUSH4 0x715018A6 EQ PUSH2 0x163 JUMPI DUP1 PUSH4 0x7CCC241A EQ PUSH2 0x16D JUMPI DUP1 PUSH4 0x87E8BD12 EQ PUSH2 0x189 JUMPI PUSH2 0xEA JUMP JUMPDEST DUP1 PUSH4 0x1167372D EQ PUSH2 0xEF JUMPI DUP1 PUSH4 0x27506F53 EQ PUSH2 0x10B JUMPI DUP1 PUSH4 0x52EFEA6E EQ PUSH2 0x129 JUMPI JUMPDEST PUSH1 0x0 DUP1 REVERT JUMPDEST PUSH2 0x109 PUSH1 0x4 DUP1 CALLDATASIZE SUB DUP2 ADD SWAP1 PUSH2 0x104 SWAP2 SWAP1 PUSH2 0x2886 JUMP JUMPDEST PUSH2 0x293 JUMP JUMPDEST STOP JUMPDEST PUSH2 0x113 PUSH2 0x4FD JUMP JUMPDEST PUSH1 0x40 MLOAD PUSH2 0x120 SWAP2 SWAP1 PUSH2 0x2BF0 JUMP JUMPDEST PUSH1 0x40 MLOAD DUP1 SWAP2 SUB SWAP1 RETURN JUMPDEST PUSH2 0x131 PUSH2 0x770 JUMP JUMPDEST STOP JUMPDEST PUSH2 0x14D PUSH1 0x4 DUP1 CALLDATASIZE SUB DUP2 ADD SWAP1 PUSH2 0x148 SWAP2 SWAP1 PUSH2 0x276A JUMP JUMPDEST PUSH2 0x788 JUMP JUMPDEST PUSH1 0x40 MLOAD PUSH2 0x15A SWAP2 SWAP1 PUSH2 0x2BF0 JUMP JUMPDEST PUSH1 0x40 MLOAD DUP1 SWAP2 SUB SWAP1 RETURN JUMPDEST PUSH2 0x16B PUSH2 0xB05 JUMP JUMPDEST STOP JUMPDEST PUSH2 0x187 PUSH1 0x4 DUP1 CALLDATASIZE SUB DUP2 ADD SWAP1 PUSH2 0x182 SWAP2 SWAP1 PUSH2 0x2833 JUMP JUMPDEST PUSH2 0xB19 JUMP JUMPDEST STOP JUMPDEST PUSH2 0x1A3 PUSH1 0x4 DUP1 CALLDATASIZE SUB DUP2 ADD SWAP1 PUSH2 0x19E SWAP2 SWAP1 PUSH2 0x27F3 JUMP JUMPDEST PUSH2 0xE90 JUMP JUMPDEST STOP JUMPDEST PUSH2 0x1AD PUSH2 0x10B6 JUMP JUMPDEST PUSH1 0x40 MLOAD PUSH2 0x1BA SWAP2 SWAP1 PUSH2 0x2BD5 JUMP JUMPDEST PUSH1 0x40 MLOAD DUP1 SWAP2 SUB SWAP1 RETURN JUMPDEST PUSH2 0x1DD PUSH1 0x4 DUP1 CALLDATASIZE SUB DUP2 ADD SWAP1 PUSH2 0x1D8 SWAP2 SWAP1 PUSH2 0x2833 JUMP JUMPDEST PUSH2 0x10DF JUMP JUMPDEST STOP JUMPDEST PUSH2 0x1F9 PUSH1 0x4 DUP1 CALLDATASIZE SUB DUP2 ADD SWAP1 PUSH2 0x1F4 SWAP2 SWAP1 PUSH2 0x26BB JUMP JUMPDEST PUSH2 0x1456 JUMP JUMPDEST PUSH1 0x40 MLOAD PUSH2 0x206 SWAP2 SWAP1 PUSH2 0x2CF2 JUMP JUMPDEST PUSH1 0x40 MLOAD DUP1 SWAP2 SUB SWAP1 RETURN JUMPDEST PUSH2 0x229 PUSH1 0x4 DUP1 CALLDATASIZE SUB DUP2 ADD SWAP1 PUSH2 0x224 SWAP2 SWAP1 PUSH2 0x2797 JUMP JUMPDEST PUSH2 0x165A JUMP JUMPDEST STOP JUMPDEST PUSH2 0x245 PUSH1 0x4 DUP1 CALLDATASIZE SUB DUP2 ADD SWAP1 PUSH2 0x240 SWAP2 SWAP1 PUSH2 0x27F3 JUMP JUMPDEST PUSH2 0x1A5F JUMP JUMPDEST STOP JUMPDEST PUSH2 0x261 PUSH1 0x4 DUP1 CALLDATASIZE SUB DUP2 ADD SWAP1 PUSH2 0x25C SWAP2 SWAP1 PUSH2 0x272A JUMP JUMPDEST PUSH2 0x1C85 JUMP JUMPDEST PUSH1 0x40 MLOAD PUSH2 0x26E SWAP2 SWAP1 PUSH2 0x2BF0 JUMP JUMPDEST PUSH1 0x40 MLOAD DUP1 SWAP2 SUB SWAP1 RETURN JUMPDEST PUSH2 0x291 PUSH1 0x4 DUP1 CALLDATASIZE SUB DUP2 ADD SWAP1 PUSH2 0x28C SWAP2 SWAP1 PUSH2 0x2661 JUMP JUMPDEST PUSH2 0x2136 JUMP JUMPDEST STOP JUMPDEST PUSH2 0x29B PUSH2 0x21BA JUMP JUMPDEST DUP3 PUSH2 0x362 PUSH1 0x1 DUP3 DUP2 SLOAD DUP2 LT PUSH2 0x2B3 JUMPI PUSH2 0x2B2 PUSH2 0x3060 JUMP JUMPDEST JUMPDEST SWAP1 PUSH1 0x0 MSTORE PUSH1 0x20 PUSH1 0x0 KECCAK256 SWAP1 PUSH1 0x6 MUL ADD PUSH1 0x3 ADD DUP1 SLOAD PUSH2 0x2CF SWAP1 PUSH2 0x2F56 JUMP JUMPDEST DUP1 PUSH1 0x1F ADD PUSH1 0x20 DUP1 SWAP2 DIV MUL PUSH1 0x20 ADD PUSH1 0x40 MLOAD SWAP1 DUP2 ADD PUSH1 0x40 MSTORE DUP1 SWAP3 SWAP2 SWAP1 DUP2 DUP2 MSTORE PUSH1 0x20 ADD DUP3 DUP1 SLOAD PUSH2 0x2FB SWAP1 PUSH2 0x2F56 JUMP JUMPDEST DUP1 ISZERO PUSH2 0x348 JUMPI DUP1 PUSH1 0x1F LT PUSH2 0x31D JUMPI PUSH2 0x100 DUP1 DUP4 SLOAD DIV MUL DUP4 MSTORE SWAP2 PUSH1 0x20 ADD SWAP2 PUSH2 0x348 JUMP JUMPDEST DUP3 ADD SWAP2 SWAP1 PUSH1 0x0 MSTORE PUSH1 0x20 PUSH1 0x0 KECCAK256 SWAP1 JUMPDEST DUP2 SLOAD DUP2 MSTORE SWAP1 PUSH1 0x1 ADD SWAP1 PUSH1 0x20 ADD DUP1 DUP4 GT PUSH2 0x32B JUMPI DUP3 SWAP1 SUB PUSH1 0x1F AND DUP3 ADD SWAP2 JUMPDEST POP POP POP POP POP PUSH1 0x40 MLOAD DUP1 PUSH1 0x20 ADD PUSH1 0x40 MSTORE DUP1 PUSH1 0x0 DUP2 MSTORE POP PUSH2 0x2238 JUMP JUMPDEST ISZERO PUSH2 0x3A2 JUMPI PUSH1 0x40 MLOAD PUSH32 0x8C379A000000000000000000000000000000000000000000000000000000000 DUP2 MSTORE PUSH1 0x4 ADD PUSH2 0x399 SWAP1 PUSH2 0x2C72 JUMP JUMPDEST PUSH1 0x40 MLOAD DUP1 SWAP2 SUB SWAP1 REVERT JUMPDEST PUSH2 0x468 PUSH1 0x1 DUP3 DUP2 SLOAD DUP2 LT PUSH2 0x3B9 JUMPI PUSH2 0x3B8 PUSH2 0x3060 JUMP JUMPDEST JUMPDEST SWAP1 PUSH1 0x0 MSTORE PUSH1 0x20 PUSH1 0x0 KECCAK256 SWAP1 PUSH1 0x6 MUL ADD PUSH1 0x4 ADD DUP1 SLOAD PUSH2 0x3D5 SWAP1 PUSH2 0x2F56 JUMP JUMPDEST DUP1 PUSH1 0x1F ADD PUSH1 0x20 DUP1 SWAP2 DIV MUL PUSH1 0x20 ADD PUSH1 0x40 MLOAD SWAP1 DUP2 ADD PUSH1 0x40 MSTORE DUP1 SWAP3 SWAP2 SWAP1 DUP2 DUP2 MSTORE PUSH1 0x20 ADD DUP3 DUP1 SLOAD PUSH2 0x401 SWAP1 PUSH2 0x2F56 JUMP JUMPDEST DUP1 ISZERO PUSH2 0x44E JUMPI DUP1 PUSH1 0x1F LT PUSH2 0x423 JUMPI PUSH2 0x100 DUP1 DUP4 SLOAD DIV MUL DUP4 MSTORE SWAP2 PUSH1 0x20 ADD SWAP2 PUSH2 0x44E JUMP JUMPDEST DUP3 ADD SWAP2 SWAP1 PUSH1 0x0 MSTORE PUSH1 0x20 PUSH1 0x0 KECCAK256 SWAP1 JUMPDEST DUP2 SLOAD DUP2 MSTORE SWAP1 PUSH1 0x1 ADD SWAP1 PUSH1 0x20 ADD DUP1 DUP4 GT PUSH2 0x431 JUMPI DUP3 SWAP1 SUB PUSH1 0x1F AND DUP3 ADD SWAP2 JUMPDEST POP POP POP POP POP PUSH1 0x40 MLOAD DUP1 PUSH1 0x20 ADD PUSH1 0x40 MSTORE DUP1 PUSH1 0x0 DUP2 MSTORE POP PUSH2 0x2238 JUMP JUMPDEST ISZERO PUSH2 0x4A8 JUMPI PUSH1 0x40 MLOAD PUSH32 0x8C379A000000000000000000000000000000000000000000000000000000000 DUP2 MSTORE PUSH1 0x4 ADD PUSH2 0x49F SWAP1 PUSH2 0x2C72 JUMP JUMPDEST PUSH1 0x40 MLOAD DUP1 SWAP2 SUB SWAP1 REVERT JUMPDEST PUSH2 0x4B2 DUP5 DUP4 PUSH2 0x1A5F JUMP JUMPDEST PUSH2 0x4BC DUP5 DUP5 PUSH2 0xE90 JUMP JUMPDEST PUSH32 0x4CEA1F87ADB8C58C2D35AA0A3723745FF782300A0479866FC1E478A8740DF8E5 DUP5 DUP5 DUP5 PUSH1 0x40 MLOAD PUSH2 0x4EF SWAP4 SWAP3 SWAP2 SWAP1 PUSH2 0x2D0D JUMP JUMPDEST PUSH1 0x40 MLOAD DUP1 SWAP2 SUB SWAP1 LOG1 POP POP POP POP JUMP JUMPDEST PUSH1 0x60 PUSH1 0x1 DUP1 SLOAD DUP1 PUSH1 0x20 MUL PUSH1 0x20 ADD PUSH1 0x40 MLOAD SWAP1 DUP2 ADD PUSH1 0x40 MSTORE DUP1 SWAP3 SWAP2 SWAP1 DUP2 DUP2 MSTORE PUSH1 0x20 ADD PUSH1 0x0 SWAP1 JUMPDEST DUP3 DUP3 LT ISZERO PUSH2 0x767 JUMPI DUP4 DUP3 SWAP1 PUSH1 0x0 MSTORE PUSH1 0x20 PUSH1 0x0 KECCAK256 SWAP1 PUSH1 0x6 MUL ADD PUSH1 0x40 MLOAD DUP1 PUSH1 0xE0 ADD PUSH1 0x40 MSTORE SWAP1 DUP2 PUSH1 0x0 DUP3 ADD SLOAD DUP2 MSTORE PUSH1 0x20 ADD PUSH1 0x1 DUP3 ADD PUSH1 0x0 SWAP1 SLOAD SWAP1 PUSH2 0x100 EXP SWAP1 DIV PUSH20 0xFFFFFFFFFFFFFFFFFFFFFFFFFFFFFFFFFFFFFFFF AND PUSH20 0xFFFFFFFFFFFFFFFFFFFFFFFFFFFFFFFFFFFFFFFF AND PUSH20 0xFFFFFFFFFFFFFFFFFFFFFFFFFFFFFFFFFFFFFFFF AND DUP2 MSTORE PUSH1 0x20 ADD PUSH1 0x2 DUP3 ADD PUSH1 0x0 SWAP1 SLOAD SWAP1 PUSH2 0x100 EXP SWAP1 DIV PUSH20 0xFFFFFFFFFFFFFFFFFFFFFFFFFFFFFFFFFFFFFFFF AND PUSH20 0xFFFFFFFFFFFFFFFFFFFFFFFFFFFFFFFFFFFFFFFF AND PUSH20 0xFFFFFFFFFFFFFFFFFFFFFFFFFFFFFFFFFFFFFFFF AND DUP2 MSTORE PUSH1 0x20 ADD PUSH1 0x3 DUP3 ADD DUP1 SLOAD PUSH2 0x60A SWAP1 PUSH2 0x2F56 JUMP JUMPDEST DUP1 PUSH1 0x1F ADD PUSH1 0x20 DUP1 SWAP2 DIV MUL PUSH1 0x20 ADD PUSH1 0x40 MLOAD SWAP1 DUP2 ADD PUSH1 0x40 MSTORE DUP1 SWAP3 SWAP2 SWAP1 DUP2 DUP2 MSTORE PUSH1 0x20 ADD DUP3 DUP1 SLOAD PUSH2 0x636 SWAP1 PUSH2 0x2F56 JUMP JUMPDEST DUP1 ISZERO PUSH2 0x683 JUMPI DUP1 PUSH1 0x1F LT PUSH2 0x658 JUMPI PUSH2 0x100 DUP1 DUP4 SLOAD DIV MUL DUP4 MSTORE SWAP2 PUSH1 0x20 ADD SWAP2 PUSH2 0x683 JUMP JUMPDEST DUP3 ADD SWAP2 SWAP1 PUSH1 0x0 MSTORE PUSH1 0x20 PUSH1 0x0 KECCAK256 SWAP1 JUMPDEST DUP2 SLOAD DUP2 MSTORE SWAP1 PUSH1 0x1 ADD SWAP1 PUSH1 0x20 ADD DUP1 DUP4 GT PUSH2 0x666 JUMPI DUP3 SWAP1 SUB PUSH1 0x1F AND DUP3 ADD SWAP2 JUMPDEST POP POP POP POP POP DUP2 MSTORE PUSH1 0x20 ADD PUSH1 0x4 DUP3 ADD DUP1 SLOAD PUSH2 0x69C SWAP1 PUSH2 0x2F56 JUMP JUMPDEST DUP1 PUSH1 0x1F ADD PUSH1 0x20 DUP1 SWAP2 DIV MUL PUSH1 0x20 ADD PUSH1 0x40 MLOAD SWAP1 DUP2 ADD PUSH1 0x40 MSTORE DUP1 SWAP3 SWAP2 SWAP1 DUP2 DUP2 MSTORE PUSH1 0x20 ADD DUP3 DUP1 SLOAD PUSH2 0x6C8 SWAP1 PUSH2 0x2F56 JUMP JUMPDEST DUP1 ISZERO PUSH2 0x715 JUMPI DUP1 PUSH1 0x1F LT PUSH2 0x6EA JUMPI PUSH2 0x100 DUP1 DUP4 SLOAD DIV MUL DUP4 MSTORE SWAP2 PUSH1 0x20 ADD SWAP2 PUSH2 0x715 JUMP JUMPDEST DUP3 ADD SWAP2 SWAP1 PUSH1 0x0 MSTORE PUSH1 0x20 PUSH1 0x0 KECCAK256 SWAP1 JUMPDEST DUP2 SLOAD DUP2 MSTORE SWAP1 PUSH1 0x1 ADD SWAP1 PUSH1 0x20 ADD DUP1 DUP4 GT PUSH2 0x6F8 JUMPI DUP3 SWAP1 SUB PUSH1 0x1F AND DUP3 ADD SWAP2 JUMPDEST POP POP POP POP POP DUP2 MSTORE PUSH1 0x20 ADD PUSH1 0x5 DUP3 ADD PUSH1 0x0 SWAP1 SLOAD SWAP1 PUSH2 0x100 EXP SWAP1 DIV PUSH1 0xFF AND PUSH1 0xFF AND PUSH1 0xFF AND DUP2 MSTORE PUSH1 0x20 ADD PUSH1 0x5 DUP3 ADD PUSH1 0x1 SWAP1 SLOAD SWAP1 PUSH2 0x100 EXP SWAP1 DIV PUSH1 0xFF AND PUSH1 0xFF AND PUSH1 0xFF AND DUP2 MSTORE POP POP DUP2 MSTORE PUSH1 0x20 ADD SWAP1 PUSH1 0x1 ADD SWAP1 PUSH2 0x521 JUMP JUMPDEST POP POP POP POP SWAP1 POP SWAP1 JUMP JUMPDEST PUSH2 0x778 PUSH2 0x21BA JUMP JUMPDEST PUSH1 0x1 PUSH1 0x0 PUSH2 0x786 SWAP2 SWAP1 PUSH2 0x235D JUMP JUMPDEST JUMP JUMPDEST PUSH1 0x60 PUSH1 0x64 DUP3 LT PUSH2 0x7CD JUMPI PUSH1 0x40 MLOAD PUSH32 0x8C379A000000000000000000000000000000000000000000000000000000000 DUP2 MSTORE PUSH1 0x4 ADD PUSH2 0x7C4 SWAP1 PUSH2 0x2C52 JUMP JUMPDEST PUSH1 0x40 MLOAD DUP1 SWAP2 SUB SWAP1 REVERT JUMPDEST PUSH1 0x0 PUSH1 0x1 DUP1 SLOAD SWAP1 POP SWAP1 POP PUSH1 0x0 DUP4 DUP3 LT PUSH2 0x7E6 JUMPI DUP4 PUSH2 0x7E8 JUMP JUMPDEST DUP2 JUMPDEST SWAP1 POP PUSH1 0x0 PUSH1 0x1 DUP3 DUP5 PUSH2 0x7FA SWAP2 SWAP1 PUSH2 0x2E61 JUMP JUMPDEST PUSH2 0x804 SWAP2 SWAP1 PUSH2 0x2E0B JUMP JUMPDEST SWAP1 POP PUSH1 0x0 DUP3 PUSH8 0xFFFFFFFFFFFFFFFF DUP2 GT ISZERO PUSH2 0x822 JUMPI PUSH2 0x821 PUSH2 0x308F JUMP JUMPDEST JUMPDEST PUSH1 0x40 MLOAD SWAP1 DUP1 DUP3 MSTORE DUP1 PUSH1 0x20 MUL PUSH1 0x20 ADD DUP3 ADD PUSH1 0x40 MSTORE DUP1 ISZERO PUSH2 0x85B JUMPI DUP2 PUSH1 0x20 ADD JUMPDEST PUSH2 0x848 PUSH2 0x2381 JUMP JUMPDEST DUP2 MSTORE PUSH1 0x20 ADD SWAP1 PUSH1 0x1 SWAP1 SUB SWAP1 DUP2 PUSH2 0x840 JUMPI SWAP1 POP JUMPDEST POP SWAP1 POP PUSH1 0x0 DUP1 DUP6 SWAP1 POP JUMPDEST DUP4 DUP2 LT PUSH2 0xAF7 JUMPI PUSH1 0x1 DUP1 DUP3 PUSH2 0x87A SWAP2 SWAP1 PUSH2 0x2E61 JUMP JUMPDEST DUP2 SLOAD DUP2 LT PUSH2 0x88B JUMPI PUSH2 0x88A PUSH2 0x3060 JUMP JUMPDEST JUMPDEST SWAP1 PUSH1 0x0 MSTORE PUSH1 0x20 PUSH1 0x0 KECCAK256 SWAP1 PUSH1 0x6 MUL ADD PUSH1 0x40 MLOAD DUP1 PUSH1 0xE0 ADD PUSH1 0x40 MSTORE SWAP1 DUP2 PUSH1 0x0 DUP3 ADD SLOAD DUP2 MSTORE PUSH1 0x20 ADD PUSH1 0x1 DUP3 ADD PUSH1 0x0 SWAP1 SLOAD SWAP1 PUSH2 0x100 EXP SWAP1 DIV PUSH20 0xFFFFFFFFFFFFFFFFFFFFFFFFFFFFFFFFFFFFFFFF AND PUSH20 0xFFFFFFFFFFFFFFFFFFFFFFFFFFFFFFFFFFFFFFFF AND PUSH20 0xFFFFFFFFFFFFFFFFFFFFFFFFFFFFFFFFFFFFFFFF AND DUP2 MSTORE PUSH1 0x20 ADD PUSH1 0x2 DUP3 ADD PUSH1 0x0 SWAP1 SLOAD SWAP1 PUSH2 0x100 EXP SWAP1 DIV PUSH20 0xFFFFFFFFFFFFFFFFFFFFFFFFFFFFFFFFFFFFFFFF AND PUSH20 0xFFFFFFFFFFFFFFFFFFFFFFFFFFFFFFFFFFFFFFFF AND PUSH20 0xFFFFFFFFFFFFFFFFFFFFFFFFFFFFFFFFFFFFFFFF AND DUP2 MSTORE PUSH1 0x20 ADD PUSH1 0x3 DUP3 ADD DUP1 SLOAD PUSH2 0x96A SWAP1 PUSH2 0x2F56 JUMP JUMPDEST DUP1 PUSH1 0x1F ADD PUSH1 0x20 DUP1 SWAP2 DIV MUL PUSH1 0x20 ADD PUSH1 0x40 MLOAD SWAP1 DUP2 ADD PUSH1 0x40 MSTORE DUP1 SWAP3 SWAP2 SWAP1 DUP2 DUP2 MSTORE PUSH1 0x20 ADD DUP3 DUP1 SLOAD PUSH2 0x996 SWAP1 PUSH2 0x2F56 JUMP JUMPDEST DUP1 ISZERO PUSH2 0x9E3 JUMPI DUP1 PUSH1 0x1F LT PUSH2 0x9B8 JUMPI PUSH2 0x100 DUP1 DUP4 SLOAD DIV MUL DUP4 MSTORE SWAP2 PUSH1 0x20 ADD SWAP2 PUSH2 0x9E3 JUMP JUMPDEST DUP3 ADD SWAP2 SWAP1 PUSH1 0x0 MSTORE PUSH1 0x20 PUSH1 0x0 KECCAK256 SWAP1 JUMPDEST DUP2 SLOAD DUP2 MSTORE SWAP1 PUSH1 0x1 ADD SWAP1 PUSH1 0x20 ADD DUP1 DUP4 GT PUSH2 0x9C6 JUMPI DUP3 SWAP1 SUB PUSH1 0x1F AND DUP3 ADD SWAP2 JUMPDEST POP POP POP POP POP DUP2 MSTORE PUSH1 0x20 ADD PUSH1 0x4 DUP3 ADD DUP1 SLOAD PUSH2 0x9FC SWAP1 PUSH2 0x2F56 JUMP JUMPDEST DUP1 PUSH1 0x1F ADD PUSH1 0x20 DUP1 SWAP2 DIV MUL PUSH1 0x20 ADD PUSH1 0x40 MLOAD SWAP1 DUP2 ADD PUSH1 0x40 MSTORE DUP1 SWAP3 SWAP2 SWAP1 DUP2 DUP2 MSTORE PUSH1 0x20 ADD DUP3 DUP1 SLOAD PUSH2 0xA28 SWAP1 PUSH2 0x2F56 JUMP JUMPDEST DUP1 ISZERO PUSH2 0xA75 JUMPI DUP1 PUSH1 0x1F LT PUSH2 0xA4A JUMPI PUSH2 0x100 DUP1 DUP4 SLOAD DIV MUL DUP4 MSTORE SWAP2 PUSH1 0x20 ADD SWAP2 PUSH2 0xA75 JUMP JUMPDEST DUP3 ADD SWAP2 SWAP1 PUSH1 0x0 MSTORE PUSH1 0x20 PUSH1 0x0 KECCAK256 SWAP1 JUMPDEST DUP2 SLOAD DUP2 MSTORE SWAP1 PUSH1 0x1 ADD SWAP1 PUSH1 0x20 ADD DUP1 DUP4 GT PUSH2 0xA58 JUMPI DUP3 SWAP1 SUB PUSH1 0x1F AND DUP3 ADD SWAP2 JUMPDEST POP POP POP POP POP DUP2 MSTORE PUSH1 0x20 ADD PUSH1 0x5 DUP3 ADD PUSH1 0x0 SWAP1 SLOAD SWAP1 PUSH2 0x100 EXP SWAP1 DIV PUSH1 0xFF AND PUSH1 0xFF AND PUSH1 0xFF AND DUP2 MSTORE PUSH1 0x20 ADD PUSH1 0x5 DUP3 ADD PUSH1 0x1 SWAP1 SLOAD SWAP1 PUSH2 0x100 EXP SWAP1 DIV PUSH1 0xFF AND PUSH1 0xFF AND PUSH1 0xFF AND DUP2 MSTORE POP POP DUP4 DUP4 DUP2 MLOAD DUP2 LT PUSH2 0xACB JUMPI PUSH2 0xACA PUSH2 0x3060 JUMP JUMPDEST JUMPDEST PUSH1 0x20 MUL PUSH1 0x20 ADD ADD DUP2 SWAP1 MSTORE POP DUP2 DUP1 PUSH2 0xAE1 SWAP1 PUSH2 0x2FB9 JUMP JUMPDEST SWAP3 POP POP DUP1 DUP1 PUSH2 0xAEF SWAP1 PUSH2 0x2F2C JUMP JUMPDEST SWAP2 POP POP PUSH2 0x865 JUMP JUMPDEST POP DUP2 SWAP6 POP POP POP POP POP POP SWAP2 SWAP1 POP JUMP JUMPDEST PUSH2 0xB0D PUSH2 0x21BA JUMP JUMPDEST PUSH2 0xB17 PUSH1 0x0 PUSH2 0x2291 JUMP JUMPDEST JUMP JUMPDEST PUSH2 0xB21 PUSH2 0x21BA JUMP JUMPDEST DUP3 PUSH2 0xBE8 PUSH1 0x1 DUP3 DUP2 SLOAD DUP2 LT PUSH2 0xB39 JUMPI PUSH2 0xB38 PUSH2 0x3060 JUMP JUMPDEST JUMPDEST SWAP1 PUSH1 0x0 MSTORE PUSH1 0x20 PUSH1 0x0 KECCAK256 SWAP1 PUSH1 0x6 MUL ADD PUSH1 0x3 ADD DUP1 SLOAD PUSH2 0xB55 SWAP1 PUSH2 0x2F56 JUMP JUMPDEST DUP1 PUSH1 0x1F ADD PUSH1 0x20 DUP1 SWAP2 DIV MUL PUSH1 0x20 ADD PUSH1 0x40 MLOAD SWAP1 DUP2 ADD PUSH1 0x40 MSTORE DUP1 SWAP3 SWAP2 SWAP1 DUP2 DUP2 MSTORE PUSH1 0x20 ADD DUP3 DUP1 SLOAD PUSH2 0xB81 SWAP1 PUSH2 0x2F56 JUMP JUMPDEST DUP1 ISZERO PUSH2 0xBCE JUMPI DUP1 PUSH1 0x1F LT PUSH2 0xBA3 JUMPI PUSH2 0x100 DUP1 DUP4 SLOAD DIV MUL DUP4 MSTORE SWAP2 PUSH1 0x20 ADD SWAP2 PUSH2 0xBCE JUMP JUMPDEST DUP3 ADD SWAP2 SWAP1 PUSH1 0x0 MSTORE PUSH1 0x20 PUSH1 0x0 KECCAK256 SWAP1 JUMPDEST DUP2 SLOAD DUP2 MSTORE SWAP1 PUSH1 0x1 ADD SWAP1 PUSH1 0x20 ADD DUP1 DUP4 GT PUSH2 0xBB1 JUMPI DUP3 SWAP1 SUB PUSH1 0x1F AND DUP3 ADD SWAP2 JUMPDEST POP POP POP POP POP PUSH1 0x40 MLOAD DUP1 PUSH1 0x20 ADD PUSH1 0x40 MSTORE DUP1 PUSH1 0x0 DUP2 MSTORE POP PUSH2 0x2238 JUMP JUMPDEST ISZERO PUSH2 0xC28 JUMPI PUSH1 0x40 MLOAD PUSH32 0x8C379A000000000000000000000000000000000000000000000000000000000 DUP2 MSTORE PUSH1 0x4 ADD PUSH2 0xC1F SWAP1 PUSH2 0x2C72 JUMP JUMPDEST PUSH1 0x40 MLOAD DUP1 SWAP2 SUB SWAP1 REVERT JUMPDEST PUSH2 0xCEE PUSH1 0x1 DUP3 DUP2 SLOAD DUP2 LT PUSH2 0xC3F JUMPI PUSH2 0xC3E PUSH2 0x3060 JUMP JUMPDEST JUMPDEST SWAP1 PUSH1 0x0 MSTORE PUSH1 0x20 PUSH1 0x0 KECCAK256 SWAP1 PUSH1 0x6 MUL ADD PUSH1 0x4 ADD DUP1 SLOAD PUSH2 0xC5B SWAP1 PUSH2 0x2F56 JUMP JUMPDEST DUP1 PUSH1 0x1F ADD PUSH1 0x20 DUP1 SWAP2 DIV MUL PUSH1 0x20 ADD PUSH1 0x40 MLOAD SWAP1 DUP2 ADD PUSH1 0x40 MSTORE DUP1 SWAP3 SWAP2 SWAP1 DUP2 DUP2 MSTORE PUSH1 0x20 ADD DUP3 DUP1 SLOAD PUSH2 0xC87 SWAP1 PUSH2 0x2F56 JUMP JUMPDEST DUP1 ISZERO PUSH2 0xCD4 JUMPI DUP1 PUSH1 0x1F LT PUSH2 0xCA9 JUMPI PUSH2 0x100 DUP1 DUP4 SLOAD DIV MUL DUP4 MSTORE SWAP2 PUSH1 0x20 ADD SWAP2 PUSH2 0xCD4 JUMP JUMPDEST DUP3 ADD SWAP2 SWAP1 PUSH1 0x0 MSTORE PUSH1 0x20 PUSH1 0x0 KECCAK256 SWAP1 JUMPDEST DUP2 SLOAD DUP2 MSTORE SWAP1 PUSH1 0x1 ADD SWAP1 PUSH1 0x20 ADD DUP1 DUP4 GT PUSH2 0xCB7 JUMPI DUP3 SWAP1 SUB PUSH1 0x1F AND DUP3 ADD SWAP2 JUMPDEST POP POP POP POP POP PUSH1 0x40 MLOAD DUP1 PUSH1 0x20 ADD PUSH1 0x40 MSTORE DUP1 PUSH1 0x0 DUP2 MSTORE POP PUSH2 0x2238 JUMP JUMPDEST ISZERO PUSH2 0xD2E JUMPI PUSH1 0x40 MLOAD PUSH32 0x8C379A000000000000000000000000000000000000000000000000000000000 DUP2 MSTORE PUSH1 0x4 ADD PUSH2 0xD25 SWAP1 PUSH2 0x2C72 JUMP JUMPDEST PUSH1 0x40 MLOAD DUP1 SWAP2 SUB SWAP1 REVERT JUMPDEST PUSH1 0x0 PUSH1 0x1 DUP6 DUP2 SLOAD DUP2 LT PUSH2 0xD44 JUMPI PUSH2 0xD43 PUSH2 0x3060 JUMP JUMPDEST JUMPDEST SWAP1 PUSH1 0x0 MSTORE PUSH1 0x20 PUSH1 0x0 KECCAK256 SWAP1 PUSH1 0x6 MUL ADD PUSH1 0x5 ADD PUSH1 0x1 SWAP1 SLOAD SWAP1 PUSH2 0x100 EXP SWAP1 DIV PUSH1 0xFF AND PUSH1 0xFF AND EQ PUSH2 0xDA6 JUMPI PUSH1 0x40 MLOAD PUSH32 0x8C379A000000000000000000000000000000000000000000000000000000000 DUP2 MSTORE PUSH1 0x4 ADD PUSH2 0xD9D SWAP1 PUSH2 0x2C32 JUMP JUMPDEST PUSH1 0x40 MLOAD DUP1 SWAP2 SUB SWAP1 REVERT JUMPDEST DUP3 PUSH1 0x1 DUP6 DUP2 SLOAD DUP2 LT PUSH2 0xDBB JUMPI PUSH2 0xDBA PUSH2 0x3060 JUMP JUMPDEST JUMPDEST SWAP1 PUSH1 0x0 MSTORE PUSH1 0x20 PUSH1 0x0 KECCAK256 SWAP1 PUSH1 0x6 MUL ADD PUSH1 0x5 ADD PUSH1 0x1 PUSH2 0x100 EXP DUP2 SLOAD DUP2 PUSH1 0xFF MUL NOT AND SWAP1 DUP4 PUSH1 0xFF AND MUL OR SWAP1 SSTORE POP DUP2 ISZERO PUSH2 0xE8A JUMPI PUSH32 0x4CEA1F87ADB8C58C2D35AA0A3723745FF782300A0479866FC1E478A8740DF8E5 DUP5 PUSH1 0x1 DUP7 DUP2 SLOAD DUP2 LT PUSH2 0xE20 JUMPI PUSH2 0xE1F PUSH2 0x3060 JUMP JUMPDEST JUMPDEST SWAP1 PUSH1 0x0 MSTORE PUSH1 0x20 PUSH1 0x0 KECCAK256 SWAP1 PUSH1 0x6 MUL ADD PUSH1 0x5 ADD PUSH1 0x0 SWAP1 SLOAD SWAP1 PUSH2 0x100 EXP SWAP1 DIV PUSH1 0xFF AND PUSH1 0x1 DUP8 DUP2 SLOAD DUP2 LT PUSH2 0xE53 JUMPI PUSH2 0xE52 PUSH2 0x3060 JUMP JUMPDEST JUMPDEST SWAP1 PUSH1 0x0 MSTORE PUSH1 0x20 PUSH1 0x0 KECCAK256 SWAP1 PUSH1 0x6 MUL ADD PUSH1 0x5 ADD PUSH1 0x1 SWAP1 SLOAD SWAP1 PUSH2 0x100 EXP SWAP1 DIV PUSH1 0xFF AND PUSH1 0x40 MLOAD PUSH2 0xE81 SWAP4 SWAP3 SWAP2 SWAP1 PUSH2 0x2D0D JUMP JUMPDEST PUSH1 0x40 MLOAD DUP1 SWAP2 SUB SWAP1 LOG1 JUMPDEST POP POP POP POP JUMP JUMPDEST PUSH2 0xE98 PUSH2 0x21BA JUMP JUMPDEST DUP2 PUSH2 0xF5F PUSH1 0x1 DUP3 DUP2 SLOAD DUP2 LT PUSH2 0xEB0 JUMPI PUSH2 0xEAF PUSH2 0x3060 JUMP JUMPDEST JUMPDEST SWAP1 PUSH1 0x0 MSTORE PUSH1 0x20 PUSH1 0x0 KECCAK256 SWAP1 PUSH1 0x6 MUL ADD PUSH1 0x3 ADD DUP1 SLOAD PUSH2 0xECC SWAP1 PUSH2 0x2F56 JUMP JUMPDEST DUP1 PUSH1 0x1F ADD PUSH1 0x20 DUP1 SWAP2 DIV MUL PUSH1 0x20 ADD PUSH1 0x40 MLOAD SWAP1 DUP2 ADD PUSH1 0x40 MSTORE DUP1 SWAP3 SWAP2 SWAP1 DUP2 DUP2 MSTORE PUSH1 0x20 ADD DUP3 DUP1 SLOAD PUSH2 0xEF8 SWAP1 PUSH2 0x2F56 JUMP JUMPDEST DUP1 ISZERO PUSH2 0xF45 JUMPI DUP1 PUSH1 0x1F LT PUSH2 0xF1A JUMPI PUSH2 0x100 DUP1 DUP4 SLOAD DIV MUL DUP4 MSTORE SWAP2 PUSH1 0x20 ADD SWAP2 PUSH2 0xF45 JUMP JUMPDEST DUP3 ADD SWAP2 SWAP1 PUSH1 0x0 MSTORE PUSH1 0x20 PUSH1 0x0 KECCAK256 SWAP1 JUMPDEST DUP2 SLOAD DUP2 MSTORE SWAP1 PUSH1 0x1 ADD SWAP1 PUSH1 0x20 ADD DUP1 DUP4 GT PUSH2 0xF28 JUMPI DUP3 SWAP1 SUB PUSH1 0x1F AND DUP3 ADD SWAP2 JUMPDEST POP POP POP POP POP PUSH1 0x40 MLOAD DUP1 PUSH1 0x20 ADD PUSH1 0x40 MSTORE DUP1 PUSH1 0x0 DUP2 MSTORE POP PUSH2 0x2238 JUMP JUMPDEST ISZERO PUSH2 0xF9F JUMPI PUSH1 0x40 MLOAD PUSH32 0x8C379A000000000000000000000000000000000000000000000000000000000 DUP2 MSTORE PUSH1 0x4 ADD PUSH2 0xF96 SWAP1 PUSH2 0x2C72 JUMP JUMPDEST PUSH1 0x40 MLOAD DUP1 SWAP2 SUB SWAP1 REVERT JUMPDEST PUSH2 0x1065 PUSH1 0x1 DUP3 DUP2 SLOAD DUP2 LT PUSH2 0xFB6 JUMPI PUSH2 0xFB5 PUSH2 0x3060 JUMP JUMPDEST JUMPDEST SWAP1 PUSH1 0x0 MSTORE PUSH1 0x20 PUSH1 0x0 KECCAK256 SWAP1 PUSH1 0x6 MUL ADD PUSH1 0x4 ADD DUP1 SLOAD PUSH2 0xFD2 SWAP1 PUSH2 0x2F56 JUMP JUMPDEST DUP1 PUSH1 0x1F ADD PUSH1 0x20 DUP1 SWAP2 DIV MUL PUSH1 0x20 ADD PUSH1 0x40 MLOAD SWAP1 DUP2 ADD PUSH1 0x40 MSTORE DUP1 SWAP3 SWAP2 SWAP1 DUP2 DUP2 MSTORE PUSH1 0x20 ADD DUP3 DUP1 SLOAD PUSH2 0xFFE SWAP1 PUSH2 0x2F56 JUMP JUMPDEST DUP1 ISZERO PUSH2 0x104B JUMPI DUP1 PUSH1 0x1F LT PUSH2 0x1020 JUMPI PUSH2 0x100 DUP1 DUP4 SLOAD DIV MUL DUP4 MSTORE SWAP2 PUSH1 0x20 ADD SWAP2 PUSH2 0x104B JUMP JUMPDEST DUP3 ADD SWAP2 SWAP1 PUSH1 0x0 MSTORE PUSH1 0x20 PUSH1 0x0 KECCAK256 SWAP1 JUMPDEST DUP2 SLOAD DUP2 MSTORE SWAP1 PUSH1 0x1 ADD SWAP1 PUSH1 0x20 ADD DUP1 DUP4 GT PUSH2 0x102E JUMPI DUP3 SWAP1 SUB PUSH1 0x1F AND DUP3 ADD SWAP2 JUMPDEST POP POP POP POP POP PUSH1 0x40 MLOAD DUP1 PUSH1 0x20 ADD PUSH1 0x40 MSTORE DUP1 PUSH1 0x0 DUP2 MSTORE POP PUSH2 0x2238 JUMP JUMPDEST ISZERO PUSH2 0x10A5 JUMPI PUSH1 0x40 MLOAD PUSH32 0x8C379A000000000000000000000000000000000000000000000000000000000 DUP2 MSTORE PUSH1 0x4 ADD PUSH2 0x109C SWAP1 PUSH2 0x2C72 JUMP JUMPDEST PUSH1 0x40 MLOAD DUP1 SWAP2 SUB SWAP1 REVERT JUMPDEST PUSH2 0x10B1 DUP4 DUP4 PUSH1 0x0 PUSH2 0x10DF JUMP JUMPDEST POP POP POP JUMP JUMPDEST PUSH1 0x0 DUP1 PUSH1 0x0 SWAP1 SLOAD SWAP1 PUSH2 0x100 EXP SWAP1 DIV PUSH20 0xFFFFFFFFFFFFFFFFFFFFFFFFFFFFFFFFFFFFFFFF AND SWAP1 POP SWAP1 JUMP JUMPDEST PUSH2 0x10E7 PUSH2 0x21BA JUMP JUMPDEST DUP3 PUSH2 0x11AE PUSH1 0x1 DUP3 DUP2 SLOAD DUP2 LT PUSH2 0x10FF JUMPI PUSH2 0x10FE PUSH2 0x3060 JUMP JUMPDEST JUMPDEST SWAP1 PUSH1 0x0 MSTORE PUSH1 0x20 PUSH1 0x0 KECCAK256 SWAP1 PUSH1 0x6 MUL ADD PUSH1 0x3 ADD DUP1 SLOAD PUSH2 0x111B SWAP1 PUSH2 0x2F56 JUMP JUMPDEST DUP1 PUSH1 0x1F ADD PUSH1 0x20 DUP1 SWAP2 DIV MUL PUSH1 0x20 ADD PUSH1 0x40 MLOAD SWAP1 DUP2 ADD PUSH1 0x40 MSTORE DUP1 SWAP3 SWAP2 SWAP1 DUP2 DUP2 MSTORE PUSH1 0x20 ADD DUP3 DUP1 SLOAD PUSH2 0x1147 SWAP1 PUSH2 0x2F56 JUMP JUMPDEST DUP1 ISZERO PUSH2 0x1194 JUMPI DUP1 PUSH1 0x1F LT PUSH2 0x1169 JUMPI PUSH2 0x100 DUP1 DUP4 SLOAD DIV MUL DUP4 MSTORE SWAP2 PUSH1 0x20 ADD SWAP2 PUSH2 0x1194 JUMP JUMPDEST DUP3 ADD SWAP2 SWAP1 PUSH1 0x0 MSTORE PUSH1 0x20 PUSH1 0x0 KECCAK256 SWAP1 JUMPDEST DUP2 SLOAD DUP2 MSTORE SWAP1 PUSH1 0x1 ADD SWAP1 PUSH1 0x20 ADD DUP1 DUP4 GT PUSH2 0x1177 JUMPI DUP3 SWAP1 SUB PUSH1 0x1F AND DUP3 ADD SWAP2 JUMPDEST POP POP POP POP POP PUSH1 0x40 MLOAD DUP1 PUSH1 0x20 ADD PUSH1 0x40 MSTORE DUP1 PUSH1 0x0 DUP2 MSTORE POP PUSH2 0x2238 JUMP JUMPDEST ISZERO PUSH2 0x11EE JUMPI PUSH1 0x40 MLOAD PUSH32 0x8C379A000000000000000000000000000000000000000000000000000000000 DUP2 MSTORE PUSH1 0x4 ADD PUSH2 0x11E5 SWAP1 PUSH2 0x2C72 JUMP JUMPDEST PUSH1 0x40 MLOAD DUP1 SWAP2 SUB SWAP1 REVERT JUMPDEST PUSH2 0x12B4 PUSH1 0x1 DUP3 DUP2 SLOAD DUP2 LT PUSH2 0x1205 JUMPI PUSH2 0x1204 PUSH2 0x3060 JUMP JUMPDEST JUMPDEST SWAP1 PUSH1 0x0 MSTORE PUSH1 0x20 PUSH1 0x0 KECCAK256 SWAP1 PUSH1 0x6 MUL ADD PUSH1 0x4 ADD DUP1 SLOAD PUSH2 0x1221 SWAP1 PUSH2 0x2F56 JUMP JUMPDEST DUP1 PUSH1 0x1F ADD PUSH1 0x20 DUP1 SWAP2 DIV MUL PUSH1 0x20 ADD PUSH1 0x40 MLOAD SWAP1 DUP2 ADD PUSH1 0x40 MSTORE DUP1 SWAP3 SWAP2 SWAP1 DUP2 DUP2 MSTORE PUSH1 0x20 ADD DUP3 DUP1 SLOAD PUSH2 0x124D SWAP1 PUSH2 0x2F56 JUMP JUMPDEST DUP1 ISZERO PUSH2 0x129A JUMPI DUP1 PUSH1 0x1F LT PUSH2 0x126F JUMPI PUSH2 0x100 DUP1 DUP4 SLOAD DIV MUL DUP4 MSTORE SWAP2 PUSH1 0x20 ADD SWAP2 PUSH2 0x129A JUMP JUMPDEST DUP3 ADD SWAP2 SWAP1 PUSH1 0x0 MSTORE PUSH1 0x20 PUSH1 0x0 KECCAK256 SWAP1 JUMPDEST DUP2 SLOAD DUP2 MSTORE SWAP1 PUSH1 0x1 ADD SWAP1 PUSH1 0x20 ADD DUP1 DUP4 GT PUSH2 0x127D JUMPI DUP3 SWAP1 SUB PUSH1 0x1F AND DUP3 ADD SWAP2 JUMPDEST POP POP POP POP POP PUSH1 0x40 MLOAD DUP1 PUSH1 0x20 ADD PUSH1 0x40 MSTORE DUP1 PUSH1 0x0 DUP2 MSTORE POP PUSH2 0x2238 JUMP JUMPDEST ISZERO PUSH2 0x12F4 JUMPI PUSH1 0x40 MLOAD PUSH32 0x8C379A000000000000000000000000000000000000000000000000000000000 DUP2 MSTORE PUSH1 0x4 ADD PUSH2 0x12EB SWAP1 PUSH2 0x2C72 JUMP JUMPDEST PUSH1 0x40 MLOAD DUP1 SWAP2 SUB SWAP1 REVERT JUMPDEST PUSH1 0x0 PUSH1 0x1 DUP6 DUP2 SLOAD DUP2 LT PUSH2 0x130A JUMPI PUSH2 0x1309 PUSH2 0x3060 JUMP JUMPDEST JUMPDEST SWAP1 PUSH1 0x0 MSTORE PUSH1 0x20 PUSH1 0x0 KECCAK256 SWAP1 PUSH1 0x6 MUL ADD PUSH1 0x5 ADD PUSH1 0x0 SWAP1 SLOAD SWAP1 PUSH2 0x100 EXP SWAP1 DIV PUSH1 0xFF AND PUSH1 0xFF AND EQ PUSH2 0x136C JUMPI PUSH1 0x40 MLOAD PUSH32 0x8C379A000000000000000000000000000000000000000000000000000000000 DUP2 MSTORE PUSH1 0x4 ADD PUSH2 0x1363 SWAP1 PUSH2 0x2C32 JUMP JUMPDEST PUSH1 0x40 MLOAD DUP1 SWAP2 SUB SWAP1 REVERT JUMPDEST DUP3 PUSH1 0x1 DUP6 DUP2 SLOAD DUP2 LT PUSH2 0x1381 JUMPI PUSH2 0x1380 PUSH2 0x3060 JUMP JUMPDEST JUMPDEST SWAP1 PUSH1 0x0 MSTORE PUSH1 0x20 PUSH1 0x0 KECCAK256 SWAP1 PUSH1 0x6 MUL ADD PUSH1 0x5 ADD PUSH1 0x0 PUSH2 0x100 EXP DUP2 SLOAD DUP2 PUSH1 0xFF MUL NOT AND SWAP1 DUP4 PUSH1 0xFF AND MUL OR SWAP1 SSTORE POP DUP2 ISZERO PUSH2 0x1450 JUMPI PUSH32 0x4CEA1F87ADB8C58C2D35AA0A3723745FF782300A0479866FC1E478A8740DF8E5 DUP5 PUSH1 0x1 DUP7 DUP2 SLOAD DUP2 LT PUSH2 0x13E6 JUMPI PUSH2 0x13E5 PUSH2 0x3060 JUMP JUMPDEST JUMPDEST SWAP1 PUSH1 0x0 MSTORE PUSH1 0x20 PUSH1 0x0 KECCAK256 SWAP1 PUSH1 0x6 MUL ADD PUSH1 0x5 ADD PUSH1 0x0 SWAP1 SLOAD SWAP1 PUSH2 0x100 EXP SWAP1 DIV PUSH1 0xFF AND PUSH1 0x1 DUP8 DUP2 SLOAD DUP2 LT PUSH2 0x1419 JUMPI PUSH2 0x1418 PUSH2 0x3060 JUMP JUMPDEST JUMPDEST SWAP1 PUSH1 0x0 MSTORE PUSH1 0x20 PUSH1 0x0 KECCAK256 SWAP1 PUSH1 0x6 MUL ADD PUSH1 0x5 ADD PUSH1 0x1 SWAP1 SLOAD SWAP1 PUSH2 0x100 EXP SWAP1 DIV PUSH1 0xFF AND PUSH1 0x40 MLOAD PUSH2 0x1447 SWAP4 SWAP3 SWAP2 SWAP1 PUSH2 0x2D0D JUMP JUMPDEST PUSH1 0x40 MLOAD DUP1 SWAP2 SUB SWAP1 LOG1 JUMPDEST POP POP POP POP JUMP JUMPDEST PUSH1 0x0 DUP1 PUSH1 0x1 DUP1 SLOAD SWAP1 POP SWAP1 POP PUSH1 0x1 PUSH1 0x40 MLOAD DUP1 PUSH1 0xE0 ADD PUSH1 0x40 MSTORE DUP1 DUP4 DUP2 MSTORE PUSH1 0x20 ADD DUP8 PUSH20 0xFFFFFFFFFFFFFFFFFFFFFFFFFFFFFFFFFFFFFFFF AND DUP2 MSTORE PUSH1 0x20 ADD DUP7 PUSH20 0xFFFFFFFFFFFFFFFFFFFFFFFFFFFFFFFFFFFFFFFF AND DUP2 MSTORE PUSH1 0x20 ADD DUP6 DUP2 MSTORE PUSH1 0x20 ADD PUSH1 0x40 MLOAD DUP1 PUSH1 0x20 ADD PUSH1 0x40 MSTORE DUP1 PUSH1 0x0 DUP2 MSTORE POP DUP2 MSTORE PUSH1 0x20 ADD PUSH1 0x0 PUSH1 0xFF AND DUP2 MSTORE PUSH1 0x20 ADD PUSH1 0x0 PUSH1 0xFF AND DUP2 MSTORE POP SWAP1 DUP1 PUSH1 0x1 DUP2 SLOAD ADD DUP1 DUP3 SSTORE DUP1 SWAP2 POP POP PUSH1 0x1 SWAP1 SUB SWAP1 PUSH1 0x0 MSTORE PUSH1 0x20 PUSH1 0x0 KECCAK256 SWAP1 PUSH1 0x6 MUL ADD PUSH1 0x0 SWAP1 SWAP2 SWAP1 SWAP2 SWAP1 SWAP2 POP PUSH1 0x0 DUP3 ADD MLOAD DUP2 PUSH1 0x0 ADD SSTORE PUSH1 0x20 DUP3 ADD MLOAD DUP2 PUSH1 0x1 ADD PUSH1 0x0 PUSH2 0x100 EXP DUP2 SLOAD DUP2 PUSH20 0xFFFFFFFFFFFFFFFFFFFFFFFFFFFFFFFFFFFFFFFF MUL NOT AND SWAP1 DUP4 PUSH20 0xFFFFFFFFFFFFFFFFFFFFFFFFFFFFFFFFFFFFFFFF AND MUL OR SWAP1 SSTORE POP PUSH1 0x40 DUP3 ADD MLOAD DUP2 PUSH1 0x2 ADD PUSH1 0x0 PUSH2 0x100 EXP DUP2 SLOAD DUP2 PUSH20 0xFFFFFFFFFFFFFFFFFFFFFFFFFFFFFFFFFFFFFFFF MUL NOT AND SWAP1 DUP4 PUSH20 0xFFFFFFFFFFFFFFFFFFFFFFFFFFFFFFFFFFFFFFFF AND MUL OR SWAP1 SSTORE POP PUSH1 0x60 DUP3 ADD MLOAD DUP2 PUSH1 0x3 ADD SWAP1 DUP1 MLOAD SWAP1 PUSH1 0x20 ADD SWAP1 PUSH2 0x15B6 SWAP3 SWAP2 SWAP1 PUSH2 0x23F0 JUMP JUMPDEST POP PUSH1 0x80 DUP3 ADD MLOAD DUP2 PUSH1 0x4 ADD SWAP1 DUP1 MLOAD SWAP1 PUSH1 0x20 ADD SWAP1 PUSH2 0x15D3 SWAP3 SWAP2 SWAP1 PUSH2 0x23F0 JUMP JUMPDEST POP PUSH1 0xA0 DUP3 ADD MLOAD DUP2 PUSH1 0x5 ADD PUSH1 0x0 PUSH2 0x100 EXP DUP2 SLOAD DUP2 PUSH1 0xFF MUL NOT AND SWAP1 DUP4 PUSH1 0xFF AND MUL OR SWAP1 SSTORE POP PUSH1 0xC0 DUP3 ADD MLOAD DUP2 PUSH1 0x5 ADD PUSH1 0x1 PUSH2 0x100 EXP DUP2 SLOAD DUP2 PUSH1 0xFF MUL NOT AND SWAP1 DUP4 PUSH1 0xFF AND MUL OR SWAP1 SSTORE POP POP POP PUSH32 0x9AE2C53C3CA5E00A02CD45D501B75B8F6AEB8E6FE512B7BBE1E8691B9D3C8CE8 DUP2 PUSH1 0x40 MLOAD PUSH2 0x1647 SWAP2 SWAP1 PUSH2 0x2CF2 JUMP JUMPDEST PUSH1 0x40 MLOAD DUP1 SWAP2 SUB SWAP1 LOG1 DUP1 SWAP2 POP POP SWAP4 SWAP3 POP POP POP JUMP JUMPDEST PUSH1 0x0 PUSH1 0x1 DUP4 DUP2 SLOAD DUP2 LT PUSH2 0x1670 JUMPI PUSH2 0x166F PUSH2 0x3060 JUMP JUMPDEST JUMPDEST SWAP1 PUSH1 0x0 MSTORE PUSH1 0x20 PUSH1 0x0 KECCAK256 SWAP1 PUSH1 0x6 MUL ADD PUSH1 0x40 MLOAD DUP1 PUSH1 0xE0 ADD PUSH1 0x40 MSTORE SWAP1 DUP2 PUSH1 0x0 DUP3 ADD SLOAD DUP2 MSTORE PUSH1 0x20 ADD PUSH1 0x1 DUP3 ADD PUSH1 0x0 SWAP1 SLOAD SWAP1 PUSH2 0x100 EXP SWAP1 DIV PUSH20 0xFFFFFFFFFFFFFFFFFFFFFFFFFFFFFFFFFFFFFFFF AND PUSH20 0xFFFFFFFFFFFFFFFFFFFFFFFFFFFFFFFFFFFFFFFF AND PUSH20 0xFFFFFFFFFFFFFFFFFFFFFFFFFFFFFFFFFFFFFFFF AND DUP2 MSTORE PUSH1 0x20 ADD PUSH1 0x2 DUP3 ADD PUSH1 0x0 SWAP1 SLOAD SWAP1 PUSH2 0x100 EXP SWAP1 DIV PUSH20 0xFFFFFFFFFFFFFFFFFFFFFFFFFFFFFFFFFFFFFFFF AND PUSH20 0xFFFFFFFFFFFFFFFFFFFFFFFFFFFFFFFFFFFFFFFF AND PUSH20 0xFFFFFFFFFFFFFFFFFFFFFFFFFFFFFFFFFFFFFFFF AND DUP2 MSTORE PUSH1 0x20 ADD PUSH1 0x3 DUP3 ADD DUP1 SLOAD PUSH2 0x174F SWAP1 PUSH2 0x2F56 JUMP JUMPDEST DUP1 PUSH1 0x1F ADD PUSH1 0x20 DUP1 SWAP2 DIV MUL PUSH1 0x20 ADD PUSH1 0x40 MLOAD SWAP1 DUP2 ADD PUSH1 0x40 MSTORE DUP1 SWAP3 SWAP2 SWAP1 DUP2 DUP2 MSTORE PUSH1 0x20 ADD DUP3 DUP1 SLOAD PUSH2 0x177B SWAP1 PUSH2 0x2F56 JUMP JUMPDEST DUP1 ISZERO PUSH2 0x17C8 JUMPI DUP1 PUSH1 0x1F LT PUSH2 0x179D JUMPI PUSH2 0x100 DUP1 DUP4 SLOAD DIV MUL DUP4 MSTORE SWAP2 PUSH1 0x20 ADD SWAP2 PUSH2 0x17C8 JUMP JUMPDEST DUP3 ADD SWAP2 SWAP1 PUSH1 0x0 MSTORE PUSH1 0x20 PUSH1 0x0 KECCAK256 SWAP1 JUMPDEST DUP2 SLOAD DUP2 MSTORE SWAP1 PUSH1 0x1 ADD SWAP1 PUSH1 0x20 ADD DUP1 DUP4 GT PUSH2 0x17AB JUMPI DUP3 SWAP1 SUB PUSH1 0x1F AND DUP3 ADD SWAP2 JUMPDEST POP POP POP POP POP DUP2 MSTORE PUSH1 0x20 ADD PUSH1 0x4 DUP3 ADD DUP1 SLOAD PUSH2 0x17E1 SWAP1 PUSH2 0x2F56 JUMP JUMPDEST DUP1 PUSH1 0x1F ADD PUSH1 0x20 DUP1 SWAP2 DIV MUL PUSH1 0x20 ADD PUSH1 0x40 MLOAD SWAP1 DUP2 ADD PUSH1 0x40 MSTORE DUP1 SWAP3 SWAP2 SWAP1 DUP2 DUP2 MSTORE PUSH1 0x20 ADD DUP3 DUP1 SLOAD PUSH2 0x180D SWAP1 PUSH2 0x2F56 JUMP JUMPDEST DUP1 ISZERO PUSH2 0x185A JUMPI DUP1 PUSH1 0x1F LT PUSH2 0x182F JUMPI PUSH2 0x100 DUP1 DUP4 SLOAD DIV MUL DUP4 MSTORE SWAP2 PUSH1 0x20 ADD SWAP2 PUSH2 0x185A JUMP JUMPDEST DUP3 ADD SWAP2 SWAP1 PUSH1 0x0 MSTORE PUSH1 0x20 PUSH1 0x0 KECCAK256 SWAP1 JUMPDEST DUP2 SLOAD DUP2 MSTORE SWAP1 PUSH1 0x1 ADD SWAP1 PUSH1 0x20 ADD DUP1 DUP4 GT PUSH2 0x183D JUMPI DUP3 SWAP1 SUB PUSH1 0x1F AND DUP3 ADD SWAP2 JUMPDEST POP POP POP POP POP DUP2 MSTORE PUSH1 0x20 ADD PUSH1 0x5 DUP3 ADD PUSH1 0x0 SWAP1 SLOAD SWAP1 PUSH2 0x100 EXP SWAP1 DIV PUSH1 0xFF AND PUSH1 0xFF AND PUSH1 0xFF AND DUP2 MSTORE PUSH1 0x20 ADD PUSH1 0x5 DUP3 ADD PUSH1 0x1 SWAP1 SLOAD SWAP1 PUSH2 0x100 EXP SWAP1 DIV PUSH1 0xFF AND PUSH1 0xFF AND PUSH1 0xFF AND DUP2 MSTORE POP POP SWAP1 POP PUSH2 0x18BC DUP2 PUSH1 0x80 ADD MLOAD PUSH1 0x40 MLOAD DUP1 PUSH1 0x20 ADD PUSH1 0x40 MSTORE DUP1 PUSH1 0x0 DUP2 MSTORE POP PUSH2 0x2238 JUMP JUMPDEST PUSH2 0x18FB JUMPI PUSH1 0x40 MLOAD PUSH32 0x8C379A000000000000000000000000000000000000000000000000000000000 DUP2 MSTORE PUSH1 0x4 ADD PUSH2 0x18F2 SWAP1 PUSH2 0x2CD2 JUMP JUMPDEST PUSH1 0x40 MLOAD DUP1 SWAP2 SUB SWAP1 REVERT JUMPDEST CALLER PUSH20 0xFFFFFFFFFFFFFFFFFFFFFFFFFFFFFFFFFFFFFFFF AND DUP2 PUSH1 0x40 ADD MLOAD PUSH20 0xFFFFFFFFFFFFFFFFFFFFFFFFFFFFFFFFFFFFFFFF AND EQ DUP1 PUSH2 0x19E1 JUMPI POP CALLER PUSH20 0xFFFFFFFFFFFFFFFFFFFFFFFFFFFFFFFFFFFFFFFF AND ADDRESS PUSH20 0xFFFFFFFFFFFFFFFFFFFFFFFFFFFFFFFFFFFFFFFF AND PUSH4 0x8DA5CB5B PUSH1 0x40 MLOAD DUP2 PUSH4 0xFFFFFFFF AND PUSH1 0xE0 SHL DUP2 MSTORE PUSH1 0x4 ADD PUSH1 0x20 PUSH1 0x40 MLOAD DUP1 DUP4 SUB DUP2 DUP7 DUP1 EXTCODESIZE ISZERO DUP1 ISZERO PUSH2 0x1991 JUMPI PUSH1 0x0 DUP1 REVERT JUMPDEST POP GAS STATICCALL ISZERO DUP1 ISZERO PUSH2 0x19A5 JUMPI RETURNDATASIZE PUSH1 0x0 DUP1 RETURNDATACOPY RETURNDATASIZE PUSH1 0x0 REVERT JUMPDEST POP POP POP POP PUSH1 0x40 MLOAD RETURNDATASIZE PUSH1 0x1F NOT PUSH1 0x1F DUP3 ADD AND DUP3 ADD DUP1 PUSH1 0x40 MSTORE POP DUP2 ADD SWAP1 PUSH2 0x19C9 SWAP2 SWAP1 PUSH2 0x268E JUMP JUMPDEST PUSH20 0xFFFFFFFFFFFFFFFFFFFFFFFFFFFFFFFFFFFFFFFF AND EQ JUMPDEST PUSH2 0x1A20 JUMPI PUSH1 0x40 MLOAD PUSH32 0x8C379A000000000000000000000000000000000000000000000000000000000 DUP2 MSTORE PUSH1 0x4 ADD PUSH2 0x1A17 SWAP1 PUSH2 0x2CB2 JUMP JUMPDEST PUSH1 0x40 MLOAD DUP1 SWAP2 SUB SWAP1 REVERT JUMPDEST DUP2 PUSH1 0x1 DUP5 DUP2 SLOAD DUP2 LT PUSH2 0x1A35 JUMPI PUSH2 0x1A34 PUSH2 0x3060 JUMP JUMPDEST JUMPDEST SWAP1 PUSH1 0x0 MSTORE PUSH1 0x20 PUSH1 0x0 KECCAK256 SWAP1 PUSH1 0x6 MUL ADD PUSH1 0x4 ADD SWAP1 DUP1 MLOAD SWAP1 PUSH1 0x20 ADD SWAP1 PUSH2 0x1A59 SWAP3 SWAP2 SWAP1 PUSH2 0x23F0 JUMP JUMPDEST POP POP POP POP JUMP JUMPDEST PUSH2 0x1A67 PUSH2 0x21BA JUMP JUMPDEST DUP2 PUSH2 0x1B2E PUSH1 0x1 DUP3 DUP2 SLOAD DUP2 LT PUSH2 0x1A7F JUMPI PUSH2 0x1A7E PUSH2 0x3060 JUMP JUMPDEST JUMPDEST SWAP1 PUSH1 0x0 MSTORE PUSH1 0x20 PUSH1 0x0 KECCAK256 SWAP1 PUSH1 0x6 MUL ADD PUSH1 0x3 ADD DUP1 SLOAD PUSH2 0x1A9B SWAP1 PUSH2 0x2F56 JUMP JUMPDEST DUP1 PUSH1 0x1F ADD PUSH1 0x20 DUP1 SWAP2 DIV MUL PUSH1 0x20 ADD PUSH1 0x40 MLOAD SWAP1 DUP2 ADD PUSH1 0x40 MSTORE DUP1 SWAP3 SWAP2 SWAP1 DUP2 DUP2 MSTORE PUSH1 0x20 ADD DUP3 DUP1 SLOAD PUSH2 0x1AC7 SWAP1 PUSH2 0x2F56 JUMP JUMPDEST DUP1 ISZERO PUSH2 0x1B14 JUMPI DUP1 PUSH1 0x1F LT PUSH2 0x1AE9 JUMPI PUSH2 0x100 DUP1 DUP4 SLOAD DIV MUL DUP4 MSTORE SWAP2 PUSH1 0x20 ADD SWAP2 PUSH2 0x1B14 JUMP JUMPDEST DUP3 ADD SWAP2 SWAP1 PUSH1 0x0 MSTORE PUSH1 0x20 PUSH1 0x0 KECCAK256 SWAP1 JUMPDEST DUP2 SLOAD DUP2 MSTORE SWAP1 PUSH1 0x1 ADD SWAP1 PUSH1 0x20 ADD DUP1 DUP4 GT PUSH2 0x1AF7 JUMPI DUP3 SWAP1 SUB PUSH1 0x1F AND DUP3 ADD SWAP2 JUMPDEST POP POP POP POP POP PUSH1 0x40 MLOAD DUP1 PUSH1 0x20 ADD PUSH1 0x40 MSTORE DUP1 PUSH1 0x0 DUP2 MSTORE POP PUSH2 0x2238 JUMP JUMPDEST ISZERO PUSH2 0x1B6E JUMPI PUSH1 0x40 MLOAD PUSH32 0x8C379A000000000000000000000000000000000000000000000000000000000 DUP2 MSTORE PUSH1 0x4 ADD PUSH2 0x1B65 SWAP1 PUSH2 0x2C72 JUMP JUMPDEST PUSH1 0x40 MLOAD DUP1 SWAP2 SUB SWAP1 REVERT JUMPDEST PUSH2 0x1C34 PUSH1 0x1 DUP3 DUP2 SLOAD DUP2 LT PUSH2 0x1B85 JUMPI PUSH2 0x1B84 PUSH2 0x3060 JUMP JUMPDEST JUMPDEST SWAP1 PUSH1 0x0 MSTORE PUSH1 0x20 PUSH1 0x0 KECCAK256 SWAP1 PUSH1 0x6 MUL ADD PUSH1 0x4 ADD DUP1 SLOAD PUSH2 0x1BA1 SWAP1 PUSH2 0x2F56 JUMP JUMPDEST DUP1 PUSH1 0x1F ADD PUSH1 0x20 DUP1 SWAP2 DIV MUL PUSH1 0x20 ADD PUSH1 0x40 MLOAD SWAP1 DUP2 ADD PUSH1 0x40 MSTORE DUP1 SWAP3 SWAP2 SWAP1 DUP2 DUP2 MSTORE PUSH1 0x20 ADD DUP3 DUP1 SLOAD PUSH2 0x1BCD SWAP1 PUSH2 0x2F56 JUMP JUMPDEST DUP1 ISZERO PUSH2 0x1C1A JUMPI DUP1 PUSH1 0x1F LT PUSH2 0x1BEF JUMPI PUSH2 0x100 DUP1 DUP4 SLOAD DIV MUL DUP4 MSTORE SWAP2 PUSH1 0x20 ADD SWAP2 PUSH2 0x1C1A JUMP JUMPDEST DUP3 ADD SWAP2 SWAP1 PUSH1 0x0 MSTORE PUSH1 0x20 PUSH1 0x0 KECCAK256 SWAP1 JUMPDEST DUP2 SLOAD DUP2 MSTORE SWAP1 PUSH1 0x1 ADD SWAP1 PUSH1 0x20 ADD DUP1 DUP4 GT PUSH2 0x1BFD JUMPI DUP3 SWAP1 SUB PUSH1 0x1F AND DUP3 ADD SWAP2 JUMPDEST POP POP POP POP POP PUSH1 0x40 MLOAD DUP1 PUSH1 0x20 ADD PUSH1 0x40 MSTORE DUP1 PUSH1 0x0 DUP2 MSTORE POP PUSH2 0x2238 JUMP JUMPDEST ISZERO PUSH2 0x1C74 JUMPI PUSH1 0x40 MLOAD PUSH32 0x8C379A000000000000000000000000000000000000000000000000000000000 DUP2 MSTORE PUSH1 0x4 ADD PUSH2 0x1C6B SWAP1 PUSH2 0x2C72 JUMP JUMPDEST PUSH1 0x40 MLOAD DUP1 SWAP2 SUB SWAP1 REVERT JUMPDEST PUSH2 0x1C80 DUP4 DUP4 PUSH1 0x0 PUSH2 0xB19 JUMP JUMPDEST POP POP POP JUMP JUMPDEST PUSH1 0x60 PUSH1 0x64 DUP3 LT PUSH2 0x1CCA JUMPI PUSH1 0x40 MLOAD PUSH32 0x8C379A000000000000000000000000000000000000000000000000000000000 DUP2 MSTORE PUSH1 0x4 ADD PUSH2 0x1CC1 SWAP1 PUSH2 0x2C52 JUMP JUMPDEST PUSH1 0x40 MLOAD DUP1 SWAP2 SUB SWAP1 REVERT JUMPDEST PUSH1 0x0 DUP1 PUSH1 0x0 SWAP1 POP JUMPDEST PUSH1 0x1 DUP1 SLOAD SWAP1 POP DUP2 LT ISZERO PUSH2 0x1D7A JUMPI DUP5 PUSH20 0xFFFFFFFFFFFFFFFFFFFFFFFFFFFFFFFFFFFFFFFF AND PUSH1 0x1 DUP3 DUP2 SLOAD DUP2 LT PUSH2 0x1D0A JUMPI PUSH2 0x1D09 PUSH2 0x3060 JUMP JUMPDEST JUMPDEST SWAP1 PUSH1 0x0 MSTORE PUSH1 0x20 PUSH1 0x0 KECCAK256 SWAP1 PUSH1 0x6 MUL ADD PUSH1 0x2 ADD PUSH1 0x0 SWAP1 SLOAD SWAP1 PUSH2 0x100 EXP SWAP1 DIV PUSH20 0xFFFFFFFFFFFFFFFFFFFFFFFFFFFFFFFFFFFFFFFF AND PUSH20 0xFFFFFFFFFFFFFFFFFFFFFFFFFFFFFFFFFFFFFFFF AND EQ ISZERO PUSH2 0x1D67 JUMPI DUP2 DUP1 PUSH2 0x1D63 SWAP1 PUSH2 0x2FB9 JUMP JUMPDEST SWAP3 POP POP JUMPDEST DUP1 DUP1 PUSH2 0x1D72 SWAP1 PUSH2 0x2FB9 JUMP JUMPDEST SWAP2 POP POP PUSH2 0x1CD2 JUMP JUMPDEST POP PUSH1 0x0 DUP4 DUP3 LT PUSH2 0x1D8A JUMPI DUP4 PUSH2 0x1D8C JUMP JUMPDEST DUP2 JUMPDEST SWAP1 POP PUSH1 0x0 DUP3 PUSH8 0xFFFFFFFFFFFFFFFF DUP2 GT ISZERO PUSH2 0x1DAA JUMPI PUSH2 0x1DA9 PUSH2 0x308F JUMP JUMPDEST JUMPDEST PUSH1 0x40 MLOAD SWAP1 DUP1 DUP3 MSTORE DUP1 PUSH1 0x20 MUL PUSH1 0x20 ADD DUP3 ADD PUSH1 0x40 MSTORE DUP1 ISZERO PUSH2 0x1DE3 JUMPI DUP2 PUSH1 0x20 ADD JUMPDEST PUSH2 0x1DD0 PUSH2 0x2381 JUMP JUMPDEST DUP2 MSTORE PUSH1 0x20 ADD SWAP1 PUSH1 0x1 SWAP1 SUB SWAP1 DUP2 PUSH2 0x1DC8 JUMPI SWAP1 POP JUMPDEST POP SWAP1 POP PUSH1 0x0 DUP1 PUSH1 0x1 DUP1 SLOAD SWAP1 POP SWAP1 POP PUSH1 0x0 DUP2 SWAP1 POP JUMPDEST PUSH1 0x0 DUP2 GT ISZERO PUSH2 0x2126 JUMPI DUP9 PUSH20 0xFFFFFFFFFFFFFFFFFFFFFFFFFFFFFFFFFFFFFFFF AND PUSH1 0x1 DUP1 DUP4 PUSH2 0x1E25 SWAP2 SWAP1 PUSH2 0x2E61 JUMP JUMPDEST DUP2 SLOAD DUP2 LT PUSH2 0x1E36 JUMPI PUSH2 0x1E35 PUSH2 0x3060 JUMP JUMPDEST JUMPDEST SWAP1 PUSH1 0x0 MSTORE PUSH1 0x20 PUSH1 0x0 KECCAK256 SWAP1 PUSH1 0x6 MUL ADD PUSH1 0x2 ADD PUSH1 0x0 SWAP1 SLOAD SWAP1 PUSH2 0x100 EXP SWAP1 DIV PUSH20 0xFFFFFFFFFFFFFFFFFFFFFFFFFFFFFFFFFFFFFFFF AND PUSH20 0xFFFFFFFFFFFFFFFFFFFFFFFFFFFFFFFFFFFFFFFF AND EQ ISZERO PUSH2 0x2113 JUMPI PUSH1 0x1 DUP1 DUP3 PUSH2 0x1E92 SWAP2 SWAP1 PUSH2 0x2E61 JUMP JUMPDEST DUP2 SLOAD DUP2 LT PUSH2 0x1EA3 JUMPI PUSH2 0x1EA2 PUSH2 0x3060 JUMP JUMPDEST JUMPDEST SWAP1 PUSH1 0x0 MSTORE PUSH1 0x20 PUSH1 0x0 KECCAK256 SWAP1 PUSH1 0x6 MUL ADD PUSH1 0x40 MLOAD DUP1 PUSH1 0xE0 ADD PUSH1 0x40 MSTORE SWAP1 DUP2 PUSH1 0x0 DUP3 ADD SLOAD DUP2 MSTORE PUSH1 0x20 ADD PUSH1 0x1 DUP3 ADD PUSH1 0x0 SWAP1 SLOAD SWAP1 PUSH2 0x100 EXP SWAP1 DIV PUSH20 0xFFFFFFFFFFFFFFFFFFFFFFFFFFFFFFFFFFFFFFFF AND PUSH20 0xFFFFFFFFFFFFFFFFFFFFFFFFFFFFFFFFFFFFFFFF AND PUSH20 0xFFFFFFFFFFFFFFFFFFFFFFFFFFFFFFFFFFFFFFFF AND DUP2 MSTORE PUSH1 0x20 ADD PUSH1 0x2 DUP3 ADD PUSH1 0x0 SWAP1 SLOAD SWAP1 PUSH2 0x100 EXP SWAP1 DIV PUSH20 0xFFFFFFFFFFFFFFFFFFFFFFFFFFFFFFFFFFFFFFFF AND PUSH20 0xFFFFFFFFFFFFFFFFFFFFFFFFFFFFFFFFFFFFFFFF AND PUSH20 0xFFFFFFFFFFFFFFFFFFFFFFFFFFFFFFFFFFFFFFFF AND DUP2 MSTORE PUSH1 0x20 ADD PUSH1 0x3 DUP3 ADD DUP1 SLOAD PUSH2 0x1F82 SWAP1 PUSH2 0x2F56 JUMP JUMPDEST DUP1 PUSH1 0x1F ADD PUSH1 0x20 DUP1 SWAP2 DIV MUL PUSH1 0x20 ADD PUSH1 0x40 MLOAD SWAP1 DUP2 ADD PUSH1 0x40 MSTORE DUP1 SWAP3 SWAP2 SWAP1 DUP2 DUP2 MSTORE PUSH1 0x20 ADD DUP3 DUP1 SLOAD PUSH2 0x1FAE SWAP1 PUSH2 0x2F56 JUMP JUMPDEST DUP1 ISZERO PUSH2 0x1FFB JUMPI DUP1 PUSH1 0x1F LT PUSH2 0x1FD0 JUMPI PUSH2 0x100 DUP1 DUP4 SLOAD DIV MUL DUP4 MSTORE SWAP2 PUSH1 0x20 ADD SWAP2 PUSH2 0x1FFB JUMP JUMPDEST DUP3 ADD SWAP2 SWAP1 PUSH1 0x0 MSTORE PUSH1 0x20 PUSH1 0x0 KECCAK256 SWAP1 JUMPDEST DUP2 SLOAD DUP2 MSTORE SWAP1 PUSH1 0x1 ADD SWAP1 PUSH1 0x20 ADD DUP1 DUP4 GT PUSH2 0x1FDE JUMPI DUP3 SWAP1 SUB PUSH1 0x1F AND DUP3 ADD SWAP2 JUMPDEST POP POP POP POP POP DUP2 MSTORE PUSH1 0x20 ADD PUSH1 0x4 DUP3 ADD DUP1 SLOAD PUSH2 0x2014 SWAP1 PUSH2 0x2F56 JUMP JUMPDEST DUP1 PUSH1 0x1F ADD PUSH1 0x20 DUP1 SWAP2 DIV MUL PUSH1 0x20 ADD PUSH1 0x40 MLOAD SWAP1 DUP2 ADD PUSH1 0x40 MSTORE DUP1 SWAP3 SWAP2 SWAP1 DUP2 DUP2 MSTORE PUSH1 0x20 ADD DUP3 DUP1 SLOAD PUSH2 0x2040 SWAP1 PUSH2 0x2F56 JUMP JUMPDEST DUP1 ISZERO PUSH2 0x208D JUMPI DUP1 PUSH1 0x1F LT PUSH2 0x2062 JUMPI PUSH2 0x100 DUP1 DUP4 SLOAD DIV MUL DUP4 MSTORE SWAP2 PUSH1 0x20 ADD SWAP2 PUSH2 0x208D JUMP JUMPDEST DUP3 ADD SWAP2 SWAP1 PUSH1 0x0 MSTORE PUSH1 0x20 PUSH1 0x0 KECCAK256 SWAP1 JUMPDEST DUP2 SLOAD DUP2 MSTORE SWAP1 PUSH1 0x1 ADD SWAP1 PUSH1 0x20 ADD DUP1 DUP4 GT PUSH2 0x2070 JUMPI DUP3 SWAP1 SUB PUSH1 0x1F AND DUP3 ADD SWAP2 JUMPDEST POP POP POP POP POP DUP2 MSTORE PUSH1 0x20 ADD PUSH1 0x5 DUP3 ADD PUSH1 0x0 SWAP1 SLOAD SWAP1 PUSH2 0x100 EXP SWAP1 DIV PUSH1 0xFF AND PUSH1 0xFF AND PUSH1 0xFF AND DUP2 MSTORE PUSH1 0x20 ADD PUSH1 0x5 DUP3 ADD PUSH1 0x1 SWAP1 SLOAD SWAP1 PUSH2 0x100 EXP SWAP1 DIV PUSH1 0xFF AND PUSH1 0xFF AND PUSH1 0xFF AND DUP2 MSTORE POP POP DUP5 DUP5 DUP2 MLOAD DUP2 LT PUSH2 0x20E3 JUMPI PUSH2 0x20E2 PUSH2 0x3060 JUMP JUMPDEST JUMPDEST PUSH1 0x20 MUL PUSH1 0x20 ADD ADD DUP2 SWAP1 MSTORE POP DUP3 DUP1 PUSH2 0x20F9 SWAP1 PUSH2 0x2FB9 JUMP JUMPDEST SWAP4 POP POP DUP5 DUP4 EQ ISZERO PUSH2 0x2112 JUMPI DUP4 SWAP7 POP POP POP POP POP POP POP PUSH2 0x2130 JUMP JUMPDEST JUMPDEST DUP1 DUP1 PUSH2 0x211E SWAP1 PUSH2 0x2F2C JUMP JUMPDEST SWAP2 POP POP PUSH2 0x1DF7 JUMP JUMPDEST POP DUP3 SWAP6 POP POP POP POP POP POP JUMPDEST SWAP3 SWAP2 POP POP JUMP JUMPDEST PUSH2 0x213E PUSH2 0x21BA JUMP JUMPDEST PUSH1 0x0 PUSH20 0xFFFFFFFFFFFFFFFFFFFFFFFFFFFFFFFFFFFFFFFF AND DUP2 PUSH20 0xFFFFFFFFFFFFFFFFFFFFFFFFFFFFFFFFFFFFFFFF AND EQ ISZERO PUSH2 0x21AE JUMPI PUSH1 0x40 MLOAD PUSH32 0x8C379A000000000000000000000000000000000000000000000000000000000 DUP2 MSTORE PUSH1 0x4 ADD PUSH2 0x21A5 SWAP1 PUSH2 0x2C12 JUMP JUMPDEST PUSH1 0x40 MLOAD DUP1 SWAP2 SUB SWAP1 REVERT JUMPDEST PUSH2 0x21B7 DUP2 PUSH2 0x2291 JUMP JUMPDEST POP JUMP JUMPDEST PUSH2 0x21C2 PUSH2 0x2355 JUMP JUMPDEST PUSH20 0xFFFFFFFFFFFFFFFFFFFFFFFFFFFFFFFFFFFFFFFF AND PUSH2 0x21E0 PUSH2 0x10B6 JUMP JUMPDEST PUSH20 0xFFFFFFFFFFFFFFFFFFFFFFFFFFFFFFFFFFFFFFFF AND EQ PUSH2 0x2236 JUMPI PUSH1 0x40 MLOAD PUSH32 0x8C379A000000000000000000000000000000000000000000000000000000000 DUP2 MSTORE PUSH1 0x4 ADD PUSH2 0x222D SWAP1 PUSH2 0x2C92 JUMP JUMPDEST PUSH1 0x40 MLOAD DUP1 SWAP2 SUB SWAP1 REVERT JUMPDEST JUMP JUMPDEST PUSH1 0x0 DUP2 PUSH1 0x40 MLOAD PUSH1 0x20 ADD PUSH2 0x224B SWAP2 SWAP1 PUSH2 0x2BBE JUMP JUMPDEST PUSH1 0x40 MLOAD PUSH1 0x20 DUP2 DUP4 SUB SUB DUP2 MSTORE SWAP1 PUSH1 0x40 MSTORE DUP1 MLOAD SWAP1 PUSH1 0x20 ADD KECCAK256 DUP4 PUSH1 0x40 MLOAD PUSH1 0x20 ADD PUSH2 0x2272 SWAP2 SWAP1 PUSH2 0x2BBE JUMP JUMPDEST PUSH1 0x40 MLOAD PUSH1 0x20 DUP2 DUP4 SUB SUB DUP2 MSTORE SWAP1 PUSH1 0x40 MSTORE DUP1 MLOAD SWAP1 PUSH1 0x20 ADD KECCAK256 EQ SWAP1 POP SWAP3 SWAP2 POP POP JUMP JUMPDEST PUSH1 0x0 DUP1 PUSH1 0x0 SWAP1 SLOAD SWAP1 PUSH2 0x100 EXP SWAP1 DIV PUSH20 0xFFFFFFFFFFFFFFFFFFFFFFFFFFFFFFFFFFFFFFFF AND SWAP1 POP DUP2 PUSH1 0x0 DUP1 PUSH2 0x100 EXP DUP2 SLOAD DUP2 PUSH20 0xFFFFFFFFFFFFFFFFFFFFFFFFFFFFFFFFFFFFFFFF MUL NOT AND SWAP1 DUP4 PUSH20 0xFFFFFFFFFFFFFFFFFFFFFFFFFFFFFFFFFFFFFFFF AND MUL OR SWAP1 SSTORE POP DUP2 PUSH20 0xFFFFFFFFFFFFFFFFFFFFFFFFFFFFFFFFFFFFFFFF AND DUP2 PUSH20 0xFFFFFFFFFFFFFFFFFFFFFFFFFFFFFFFFFFFFFFFF AND PUSH32 0x8BE0079C531659141344CD1FD0A4F28419497F9722A3DAAFE3B4186F6B6457E0 PUSH1 0x40 MLOAD PUSH1 0x40 MLOAD DUP1 SWAP2 SUB SWAP1 LOG3 POP POP JUMP JUMPDEST PUSH1 0x0 CALLER SWAP1 POP SWAP1 JUMP JUMPDEST POP DUP1 SLOAD PUSH1 0x0 DUP3 SSTORE PUSH1 0x6 MUL SWAP1 PUSH1 0x0 MSTORE PUSH1 0x20 PUSH1 0x0 KECCAK256 SWAP1 DUP2 ADD SWAP1 PUSH2 0x237E SWAP2 SWAP1 PUSH2 0x2476 JUMP JUMPDEST POP JUMP JUMPDEST PUSH1 0x40 MLOAD DUP1 PUSH1 0xE0 ADD PUSH1 0x40 MSTORE DUP1 PUSH1 0x0 DUP2 MSTORE PUSH1 0x20 ADD PUSH1 0x0 PUSH20 0xFFFFFFFFFFFFFFFFFFFFFFFFFFFFFFFFFFFFFFFF AND DUP2 MSTORE PUSH1 0x20 ADD PUSH1 0x0 PUSH20 0xFFFFFFFFFFFFFFFFFFFFFFFFFFFFFFFFFFFFFFFF AND DUP2 MSTORE PUSH1 0x20 ADD PUSH1 0x60 DUP2 MSTORE PUSH1 0x20 ADD PUSH1 0x60 DUP2 MSTORE PUSH1 0x20 ADD PUSH1 0x0 PUSH1 0xFF AND DUP2 MSTORE PUSH1 0x20 ADD PUSH1 0x0 PUSH1 0xFF AND DUP2 MSTORE POP SWAP1 JUMP JUMPDEST DUP3 DUP1 SLOAD PUSH2 0x23FC SWAP1 PUSH2 0x2F56 JUMP JUMPDEST SWAP1 PUSH1 0x0 MSTORE PUSH1 0x20 PUSH1 0x0 KECCAK256 SWAP1 PUSH1 0x1F ADD PUSH1 0x20 SWAP1 DIV DUP2 ADD SWAP3 DUP3 PUSH2 0x241E JUMPI PUSH1 0x0 DUP6 SSTORE PUSH2 0x2465 JUMP JUMPDEST DUP3 PUSH1 0x1F LT PUSH2 0x2437 JUMPI DUP1 MLOAD PUSH1 0xFF NOT AND DUP4 DUP1 ADD OR DUP6 SSTORE PUSH2 0x2465 JUMP JUMPDEST DUP3 DUP1 ADD PUSH1 0x1 ADD DUP6 SSTORE DUP3 ISZERO PUSH2 0x2465 JUMPI SWAP2 DUP3 ADD JUMPDEST DUP3 DUP2 GT ISZERO PUSH2 0x2464 JUMPI DUP3 MLOAD DUP3 SSTORE SWAP2 PUSH1 0x20 ADD SWAP2 SWAP1 PUSH1 0x1 ADD SWAP1 PUSH2 0x2449 JUMP JUMPDEST JUMPDEST POP SWAP1 POP PUSH2 0x2472 SWAP2 SWAP1 PUSH2 0x252B JUMP JUMPDEST POP SWAP1 JUMP JUMPDEST JUMPDEST DUP1 DUP3 GT ISZERO PUSH2 0x2527 JUMPI PUSH1 0x0 DUP1 DUP3 ADD PUSH1 0x0 SWAP1 SSTORE PUSH1 0x1 DUP3 ADD PUSH1 0x0 PUSH2 0x100 EXP DUP2 SLOAD SWAP1 PUSH20 0xFFFFFFFFFFFFFFFFFFFFFFFFFFFFFFFFFFFFFFFF MUL NOT AND SWAP1 SSTORE PUSH1 0x2 DUP3 ADD PUSH1 0x0 PUSH2 0x100 EXP DUP2 SLOAD SWAP1 PUSH20 0xFFFFFFFFFFFFFFFFFFFFFFFFFFFFFFFFFFFFFFFF MUL NOT AND SWAP1 SSTORE PUSH1 0x3 DUP3 ADD PUSH1 0x0 PUSH2 0x24E6 SWAP2 SWAP1 PUSH2 0x2548 JUMP JUMPDEST PUSH1 0x4 DUP3 ADD PUSH1 0x0 PUSH2 0x24F6 SWAP2 SWAP1 PUSH2 0x2548 JUMP JUMPDEST PUSH1 0x5 DUP3 ADD PUSH1 0x0 PUSH2 0x100 EXP DUP2 SLOAD SWAP1 PUSH1 0xFF MUL NOT AND SWAP1 SSTORE PUSH1 0x5 DUP3 ADD PUSH1 0x1 PUSH2 0x100 EXP DUP2 SLOAD SWAP1 PUSH1 0xFF MUL NOT AND SWAP1 SSTORE POP PUSH1 0x6 ADD PUSH2 0x2477 JUMP JUMPDEST POP SWAP1 JUMP JUMPDEST JUMPDEST DUP1 DUP3 GT ISZERO PUSH2 0x2544 JUMPI PUSH1 0x0 DUP2 PUSH1 0x0 SWAP1 SSTORE POP PUSH1 0x1 ADD PUSH2 0x252C JUMP JUMPDEST POP SWAP1 JUMP JUMPDEST POP DUP1 SLOAD PUSH2 0x2554 SWAP1 PUSH2 0x2F56 JUMP JUMPDEST PUSH1 0x0 DUP3 SSTORE DUP1 PUSH1 0x1F LT PUSH2 0x2566 JUMPI POP PUSH2 0x2585 JUMP JUMPDEST PUSH1 0x1F ADD PUSH1 0x20 SWAP1 DIV SWAP1 PUSH1 0x0 MSTORE PUSH1 0x20 PUSH1 0x0 KECCAK256 SWAP1 DUP2 ADD SWAP1 PUSH2 0x2584 SWAP2 SWAP1 PUSH2 0x252B JUMP JUMPDEST JUMPDEST POP JUMP JUMPDEST PUSH1 0x0 PUSH2 0x259B PUSH2 0x2596 DUP5 PUSH2 0x2D69 JUMP JUMPDEST PUSH2 0x2D44 JUMP JUMPDEST SWAP1 POP DUP3 DUP2 MSTORE PUSH1 0x20 DUP2 ADD DUP5 DUP5 DUP5 ADD GT ISZERO PUSH2 0x25B7 JUMPI PUSH2 0x25B6 PUSH2 0x30C3 JUMP JUMPDEST JUMPDEST PUSH2 0x25C2 DUP5 DUP3 DUP6 PUSH2 0x2EEA JUMP JUMPDEST POP SWAP4 SWAP3 POP POP POP JUMP JUMPDEST PUSH1 0x0 DUP2 CALLDATALOAD SWAP1 POP PUSH2 0x25D9 DUP2 PUSH2 0x32E6 JUMP JUMPDEST SWAP3 SWAP2 POP POP JUMP JUMPDEST PUSH1 0x0 DUP2 MLOAD SWAP1 POP PUSH2 0x25EE DUP2 PUSH2 0x32E6 JUMP JUMPDEST SWAP3 SWAP2 POP POP JUMP JUMPDEST PUSH1 0x0 DUP2 CALLDATALOAD SWAP1 POP PUSH2 0x2603 DUP2 PUSH2 0x32FD JUMP JUMPDEST SWAP3 SWAP2 POP POP JUMP JUMPDEST PUSH1 0x0 DUP3 PUSH1 0x1F DUP4 ADD SLT PUSH2 0x261E JUMPI PUSH2 0x261D PUSH2 0x30BE JUMP JUMPDEST JUMPDEST DUP2 CALLDATALOAD PUSH2 0x262E DUP5 DUP3 PUSH1 0x20 DUP7 ADD PUSH2 0x2588 JUMP JUMPDEST SWAP2 POP POP SWAP3 SWAP2 POP POP JUMP JUMPDEST PUSH1 0x0 DUP2 CALLDATALOAD SWAP1 POP PUSH2 0x2646 DUP2 PUSH2 0x3314 JUMP JUMPDEST SWAP3 SWAP2 POP POP JUMP JUMPDEST PUSH1 0x0 DUP2 CALLDATALOAD SWAP1 POP PUSH2 0x265B DUP2 PUSH2 0x332B JUMP JUMPDEST SWAP3 SWAP2 POP POP JUMP JUMPDEST PUSH1 0x0 PUSH1 0x20 DUP3 DUP5 SUB SLT ISZERO PUSH2 0x2677 JUMPI PUSH2 0x2676 PUSH2 0x30CD JUMP JUMPDEST JUMPDEST PUSH1 0x0 PUSH2 0x2685 DUP5 DUP3 DUP6 ADD PUSH2 0x25CA JUMP JUMPDEST SWAP2 POP POP SWAP3 SWAP2 POP POP JUMP JUMPDEST PUSH1 0x0 PUSH1 0x20 DUP3 DUP5 SUB SLT ISZERO PUSH2 0x26A4 JUMPI PUSH2 0x26A3 PUSH2 0x30CD JUMP JUMPDEST JUMPDEST PUSH1 0x0 PUSH2 0x26B2 DUP5 DUP3 DUP6 ADD PUSH2 0x25DF JUMP JUMPDEST SWAP2 POP POP SWAP3 SWAP2 POP POP JUMP JUMPDEST PUSH1 0x0 DUP1 PUSH1 0x0 PUSH1 0x60 DUP5 DUP7 SUB SLT ISZERO PUSH2 0x26D4 JUMPI PUSH2 0x26D3 PUSH2 0x30CD JUMP JUMPDEST JUMPDEST PUSH1 0x0 PUSH2 0x26E2 DUP7 DUP3 DUP8 ADD PUSH2 0x25CA JUMP JUMPDEST SWAP4 POP POP PUSH1 0x20 PUSH2 0x26F3 DUP7 DUP3 DUP8 ADD PUSH2 0x25CA JUMP JUMPDEST SWAP3 POP POP PUSH1 0x40 DUP5 ADD CALLDATALOAD PUSH8 0xFFFFFFFFFFFFFFFF DUP2 GT ISZERO PUSH2 0x2714 JUMPI PUSH2 0x2713 PUSH2 0x30C8 JUMP JUMPDEST JUMPDEST PUSH2 0x2720 DUP7 DUP3 DUP8 ADD PUSH2 0x2609 JUMP JUMPDEST SWAP2 POP POP SWAP3 POP SWAP3 POP SWAP3 JUMP JUMPDEST PUSH1 0x0 DUP1 PUSH1 0x40 DUP4 DUP6 SUB SLT ISZERO PUSH2 0x2741 JUMPI PUSH2 0x2740 PUSH2 0x30CD JUMP JUMPDEST JUMPDEST PUSH1 0x0 PUSH2 0x274F DUP6 DUP3 DUP7 ADD PUSH2 0x25CA JUMP JUMPDEST SWAP3 POP POP PUSH1 0x20 PUSH2 0x2760 DUP6 DUP3 DUP7 ADD PUSH2 0x2637 JUMP JUMPDEST SWAP2 POP POP SWAP3 POP SWAP3 SWAP1 POP JUMP JUMPDEST PUSH1 0x0 PUSH1 0x20 DUP3 DUP5 SUB SLT ISZERO PUSH2 0x2780 JUMPI PUSH2 0x277F PUSH2 0x30CD JUMP JUMPDEST JUMPDEST PUSH1 0x0 PUSH2 0x278E DUP5 DUP3 DUP6 ADD PUSH2 0x2637 JUMP JUMPDEST SWAP2 POP POP SWAP3 SWAP2 POP POP JUMP JUMPDEST PUSH1 0x0 DUP1 PUSH1 0x40 DUP4 DUP6 SUB SLT ISZERO PUSH2 0x27AE JUMPI PUSH2 0x27AD PUSH2 0x30CD JUMP JUMPDEST JUMPDEST PUSH1 0x0 PUSH2 0x27BC DUP6 DUP3 DUP7 ADD PUSH2 0x2637 JUMP JUMPDEST SWAP3 POP POP PUSH1 0x20 DUP4 ADD CALLDATALOAD PUSH8 0xFFFFFFFFFFFFFFFF DUP2 GT ISZERO PUSH2 0x27DD JUMPI PUSH2 0x27DC PUSH2 0x30C8 JUMP JUMPDEST JUMPDEST PUSH2 0x27E9 DUP6 DUP3 DUP7 ADD PUSH2 0x2609 JUMP JUMPDEST SWAP2 POP POP SWAP3 POP SWAP3 SWAP1 POP JUMP JUMPDEST PUSH1 0x0 DUP1 PUSH1 0x40 DUP4 DUP6 SUB SLT ISZERO PUSH2 0x280A JUMPI PUSH2 0x2809 PUSH2 0x30CD JUMP JUMPDEST JUMPDEST PUSH1 0x0 PUSH2 0x2818 DUP6 DUP3 DUP7 ADD PUSH2 0x2637 JUMP JUMPDEST SWAP3 POP POP PUSH1 0x20 PUSH2 0x2829 DUP6 DUP3 DUP7 ADD PUSH2 0x264C JUMP JUMPDEST SWAP2 POP POP SWAP3 POP SWAP3 SWAP1 POP JUMP JUMPDEST PUSH1 0x0 DUP1 PUSH1 0x0 PUSH1 0x60 DUP5 DUP7 SUB SLT ISZERO PUSH2 0x284C JUMPI PUSH2 0x284B PUSH2 0x30CD JUMP JUMPDEST JUMPDEST PUSH1 0x0 PUSH2 0x285A DUP7 DUP3 DUP8 ADD PUSH2 0x2637 JUMP JUMPDEST SWAP4 POP POP PUSH1 0x20 PUSH2 0x286B DUP7 DUP3 DUP8 ADD PUSH2 0x264C JUMP JUMPDEST SWAP3 POP POP PUSH1 0x40 PUSH2 0x287C DUP7 DUP3 DUP8 ADD PUSH2 0x25F4 JUMP JUMPDEST SWAP2 POP POP SWAP3 POP SWAP3 POP SWAP3 JUMP JUMPDEST PUSH1 0x0 DUP1 PUSH1 0x0 PUSH1 0x60 DUP5 DUP7 SUB SLT ISZERO PUSH2 0x289F JUMPI PUSH2 0x289E PUSH2 0x30CD JUMP JUMPDEST JUMPDEST PUSH1 0x0 PUSH2 0x28AD DUP7 DUP3 DUP8 ADD PUSH2 0x2637 JUMP JUMPDEST SWAP4 POP POP PUSH1 0x20 PUSH2 0x28BE DUP7 DUP3 DUP8 ADD PUSH2 0x264C JUMP JUMPDEST SWAP3 POP POP PUSH1 0x40 PUSH2 0x28CF DUP7 DUP3 DUP8 ADD PUSH2 0x264C JUMP JUMPDEST SWAP2 POP POP SWAP3 POP SWAP3 POP SWAP3 JUMP JUMPDEST PUSH1 0x0 PUSH2 0x28E5 DUP4 DUP4 PUSH2 0x2ADF JUMP JUMPDEST SWAP1 POP SWAP3 SWAP2 POP POP JUMP JUMPDEST PUSH2 0x28F6 DUP2 PUSH2 0x2E95 JUMP JUMPDEST DUP3 MSTORE POP POP JUMP JUMPDEST PUSH2 0x2905 DUP2 PUSH2 0x2E95 JUMP JUMPDEST DUP3 MSTORE POP POP JUMP JUMPDEST PUSH1 0x0 PUSH2 0x2916 DUP3 PUSH2 0x2DAA JUMP JUMPDEST PUSH2 0x2920 DUP2 DUP6 PUSH2 0x2DCD JUMP JUMPDEST SWAP4 POP DUP4 PUSH1 0x20 DUP3 MUL DUP6 ADD PUSH2 0x2932 DUP6 PUSH2 0x2D9A JUMP JUMPDEST DUP1 PUSH1 0x0 JUMPDEST DUP6 DUP2 LT ISZERO PUSH2 0x296E JUMPI DUP5 DUP5 SUB DUP10 MSTORE DUP2 MLOAD PUSH2 0x294F DUP6 DUP3 PUSH2 0x28D9 JUMP JUMPDEST SWAP5 POP PUSH2 0x295A DUP4 PUSH2 0x2DC0 JUMP JUMPDEST SWAP3 POP PUSH1 0x20 DUP11 ADD SWAP10 POP POP PUSH1 0x1 DUP2 ADD SWAP1 POP PUSH2 0x2936 JUMP JUMPDEST POP DUP3 SWAP8 POP DUP8 SWAP6 POP POP POP POP POP POP SWAP3 SWAP2 POP POP JUMP JUMPDEST PUSH1 0x0 PUSH2 0x298B DUP3 PUSH2 0x2DB5 JUMP JUMPDEST PUSH2 0x2995 DUP2 DUP6 PUSH2 0x2DDE JUMP JUMPDEST SWAP4 POP PUSH2 0x29A5 DUP2 DUP6 PUSH1 0x20 DUP7 ADD PUSH2 0x2EF9 JUMP JUMPDEST PUSH2 0x29AE DUP2 PUSH2 0x30D2 JUMP JUMPDEST DUP5 ADD SWAP2 POP POP SWAP3 SWAP2 POP POP JUMP JUMPDEST PUSH1 0x0 PUSH2 0x29C4 DUP3 PUSH2 0x2DB5 JUMP JUMPDEST PUSH2 0x29CE DUP2 DUP6 PUSH2 0x2E00 JUMP JUMPDEST SWAP4 POP PUSH2 0x29DE DUP2 DUP6 PUSH1 0x20 DUP7 ADD PUSH2 0x2EF9 JUMP JUMPDEST DUP1 DUP5 ADD SWAP2 POP POP SWAP3 SWAP2 POP POP JUMP JUMPDEST PUSH1 0x0 PUSH2 0x29F7 PUSH1 0x26 DUP4 PUSH2 0x2DEF JUMP JUMPDEST SWAP2 POP PUSH2 0x2A02 DUP3 PUSH2 0x30E3 JUMP JUMPDEST PUSH1 0x40 DUP3 ADD SWAP1 POP SWAP2 SWAP1 POP JUMP JUMPDEST PUSH1 0x0 PUSH2 0x2A1A PUSH1 0x32 DUP4 PUSH2 0x2DEF JUMP JUMPDEST SWAP2 POP PUSH2 0x2A25 DUP3 PUSH2 0x3132 JUMP JUMPDEST PUSH1 0x40 DUP3 ADD SWAP1 POP SWAP2 SWAP1 POP JUMP JUMPDEST PUSH1 0x0 PUSH2 0x2A3D PUSH1 0x44 DUP4 PUSH2 0x2DEF JUMP JUMPDEST SWAP2 POP PUSH2 0x2A48 DUP3 PUSH2 0x3181 JUMP JUMPDEST PUSH1 0x60 DUP3 ADD SWAP1 POP SWAP2 SWAP1 POP JUMP JUMPDEST PUSH1 0x0 PUSH2 0x2A60 PUSH1 0x16 DUP4 PUSH2 0x2DEF JUMP JUMPDEST SWAP2 POP PUSH2 0x2A6B DUP3 PUSH2 0x31F6 JUMP JUMPDEST PUSH1 0x20 DUP3 ADD SWAP1 POP SWAP2 SWAP1 POP JUMP JUMPDEST PUSH1 0x0 PUSH2 0x2A83 PUSH1 0x20 DUP4 PUSH2 0x2DEF JUMP JUMPDEST SWAP2 POP PUSH2 0x2A8E DUP3 PUSH2 0x321F JUMP JUMPDEST PUSH1 0x20 DUP3 ADD SWAP1 POP SWAP2 SWAP1 POP JUMP JUMPDEST PUSH1 0x0 PUSH2 0x2AA6 PUSH1 0x27 DUP4 PUSH2 0x2DEF JUMP JUMPDEST SWAP2 POP PUSH2 0x2AB1 DUP3 PUSH2 0x3248 JUMP JUMPDEST PUSH1 0x40 DUP3 ADD SWAP1 POP SWAP2 SWAP1 POP JUMP JUMPDEST PUSH1 0x0 PUSH2 0x2AC9 PUSH1 0x3D DUP4 PUSH2 0x2DEF JUMP JUMPDEST SWAP2 POP PUSH2 0x2AD4 DUP3 PUSH2 0x3297 JUMP JUMPDEST PUSH1 0x40 DUP3 ADD SWAP1 POP SWAP2 SWAP1 POP JUMP JUMPDEST PUSH1 0x0 PUSH1 0xE0 DUP4 ADD PUSH1 0x0 DUP4 ADD MLOAD PUSH2 0x2AF7 PUSH1 0x0 DUP7 ADD DUP3 PUSH2 0x2B82 JUMP JUMPDEST POP PUSH1 0x20 DUP4 ADD MLOAD PUSH2 0x2B0A PUSH1 0x20 DUP7 ADD DUP3 PUSH2 0x28ED JUMP JUMPDEST POP PUSH1 0x40 DUP4 ADD MLOAD PUSH2 0x2B1D PUSH1 0x40 DUP7 ADD DUP3 PUSH2 0x28ED JUMP JUMPDEST POP PUSH1 0x60 DUP4 ADD MLOAD DUP5 DUP3 SUB PUSH1 0x60 DUP7 ADD MSTORE PUSH2 0x2B35 DUP3 DUP3 PUSH2 0x2980 JUMP JUMPDEST SWAP2 POP POP PUSH1 0x80 DUP4 ADD MLOAD DUP5 DUP3 SUB PUSH1 0x80 DUP7 ADD MSTORE PUSH2 0x2B4F DUP3 DUP3 PUSH2 0x2980 JUMP JUMPDEST SWAP2 POP POP PUSH1 0xA0 DUP4 ADD MLOAD PUSH2 0x2B64 PUSH1 0xA0 DUP7 ADD DUP3 PUSH2 0x2BA0 JUMP JUMPDEST POP PUSH1 0xC0 DUP4 ADD MLOAD PUSH2 0x2B77 PUSH1 0xC0 DUP7 ADD DUP3 PUSH2 0x2BA0 JUMP JUMPDEST POP DUP1 SWAP2 POP POP SWAP3 SWAP2 POP POP JUMP JUMPDEST PUSH2 0x2B8B DUP2 PUSH2 0x2ED3 JUMP JUMPDEST DUP3 MSTORE POP POP JUMP JUMPDEST PUSH2 0x2B9A DUP2 PUSH2 0x2ED3 JUMP JUMPDEST DUP3 MSTORE POP POP JUMP JUMPDEST PUSH2 0x2BA9 DUP2 PUSH2 0x2EDD JUMP JUMPDEST DUP3 MSTORE POP POP JUMP JUMPDEST PUSH2 0x2BB8 DUP2 PUSH2 0x2EDD JUMP JUMPDEST DUP3 MSTORE POP POP JUMP JUMPDEST PUSH1 0x0 PUSH2 0x2BCA DUP3 DUP5 PUSH2 0x29B9 JUMP JUMPDEST SWAP2 POP DUP2 SWAP1 POP SWAP3 SWAP2 POP POP JUMP JUMPDEST PUSH1 0x0 PUSH1 0x20 DUP3 ADD SWAP1 POP PUSH2 0x2BEA PUSH1 0x0 DUP4 ADD DUP5 PUSH2 0x28FC JUMP JUMPDEST SWAP3 SWAP2 POP POP JUMP JUMPDEST PUSH1 0x0 PUSH1 0x20 DUP3 ADD SWAP1 POP DUP2 DUP2 SUB PUSH1 0x0 DUP4 ADD MSTORE PUSH2 0x2C0A DUP2 DUP5 PUSH2 0x290B JUMP JUMPDEST SWAP1 POP SWAP3 SWAP2 POP POP JUMP JUMPDEST PUSH1 0x0 PUSH1 0x20 DUP3 ADD SWAP1 POP DUP2 DUP2 SUB PUSH1 0x0 DUP4 ADD MSTORE PUSH2 0x2C2B DUP2 PUSH2 0x29EA JUMP JUMPDEST SWAP1 POP SWAP2 SWAP1 POP JUMP JUMPDEST PUSH1 0x0 PUSH1 0x20 DUP3 ADD SWAP1 POP DUP2 DUP2 SUB PUSH1 0x0 DUP4 ADD MSTORE PUSH2 0x2C4B DUP2 PUSH2 0x2A0D JUMP JUMPDEST SWAP1 POP SWAP2 SWAP1 POP JUMP JUMPDEST PUSH1 0x0 PUSH1 0x20 DUP3 ADD SWAP1 POP DUP2 DUP2 SUB PUSH1 0x0 DUP4 ADD MSTORE PUSH2 0x2C6B DUP2 PUSH2 0x2A30 JUMP JUMPDEST SWAP1 POP SWAP2 SWAP1 POP JUMP JUMPDEST PUSH1 0x0 PUSH1 0x20 DUP3 ADD SWAP1 POP DUP2 DUP2 SUB PUSH1 0x0 DUP4 ADD MSTORE PUSH2 0x2C8B DUP2 PUSH2 0x2A53 JUMP JUMPDEST SWAP1 POP SWAP2 SWAP1 POP JUMP JUMPDEST PUSH1 0x0 PUSH1 0x20 DUP3 ADD SWAP1 POP DUP2 DUP2 SUB PUSH1 0x0 DUP4 ADD MSTORE PUSH2 0x2CAB DUP2 PUSH2 0x2A76 JUMP JUMPDEST SWAP1 POP SWAP2 SWAP1 POP JUMP JUMPDEST PUSH1 0x0 PUSH1 0x20 DUP3 ADD SWAP1 POP DUP2 DUP2 SUB PUSH1 0x0 DUP4 ADD MSTORE PUSH2 0x2CCB DUP2 PUSH2 0x2A99 JUMP JUMPDEST SWAP1 POP SWAP2 SWAP1 POP JUMP JUMPDEST PUSH1 0x0 PUSH1 0x20 DUP3 ADD SWAP1 POP DUP2 DUP2 SUB PUSH1 0x0 DUP4 ADD MSTORE PUSH2 0x2CEB DUP2 PUSH2 0x2ABC JUMP JUMPDEST SWAP1 POP SWAP2 SWAP1 POP JUMP JUMPDEST PUSH1 0x0 PUSH1 0x20 DUP3 ADD SWAP1 POP PUSH2 0x2D07 PUSH1 0x0 DUP4 ADD DUP5 PUSH2 0x2B91 JUMP JUMPDEST SWAP3 SWAP2 POP POP JUMP JUMPDEST PUSH1 0x0 PUSH1 0x60 DUP3 ADD SWAP1 POP PUSH2 0x2D22 PUSH1 0x0 DUP4 ADD DUP7 PUSH2 0x2B91 JUMP JUMPDEST PUSH2 0x2D2F PUSH1 0x20 DUP4 ADD DUP6 PUSH2 0x2BAF JUMP JUMPDEST PUSH2 0x2D3C PUSH1 0x40 DUP4 ADD DUP5 PUSH2 0x2BAF JUMP JUMPDEST SWAP5 SWAP4 POP POP POP POP JUMP JUMPDEST PUSH1 0x0 PUSH2 0x2D4E PUSH2 0x2D5F JUMP JUMPDEST SWAP1 POP PUSH2 0x2D5A DUP3 DUP3 PUSH2 0x2F88 JUMP JUMPDEST SWAP2 SWAP1 POP JUMP JUMPDEST PUSH1 0x0 PUSH1 0x40 MLOAD SWAP1 POP SWAP1 JUMP JUMPDEST PUSH1 0x0 PUSH8 0xFFFFFFFFFFFFFFFF DUP3 GT ISZERO PUSH2 0x2D84 JUMPI PUSH2 0x2D83 PUSH2 0x308F JUMP JUMPDEST JUMPDEST PUSH2 0x2D8D DUP3 PUSH2 0x30D2 JUMP JUMPDEST SWAP1 POP PUSH1 0x20 DUP2 ADD SWAP1 POP SWAP2 SWAP1 POP JUMP JUMPDEST PUSH1 0x0 DUP2 SWAP1 POP PUSH1 0x20 DUP3 ADD SWAP1 POP SWAP2 SWAP1 POP JUMP JUMPDEST PUSH1 0x0 DUP2 MLOAD SWAP1 POP SWAP2 SWAP1 POP JUMP JUMPDEST PUSH1 0x0 DUP2 MLOAD SWAP1 POP SWAP2 SWAP1 POP JUMP JUMPDEST PUSH1 0x0 PUSH1 0x20 DUP3 ADD SWAP1 POP SWAP2 SWAP1 POP JUMP JUMPDEST PUSH1 0x0 DUP3 DUP3 MSTORE PUSH1 0x20 DUP3 ADD SWAP1 POP SWAP3 SWAP2 POP POP JUMP JUMPDEST PUSH1 0x0 DUP3 DUP3 MSTORE PUSH1 0x20 DUP3 ADD SWAP1 POP SWAP3 SWAP2 POP POP JUMP JUMPDEST PUSH1 0x0 DUP3 DUP3 MSTORE PUSH1 0x20 DUP3 ADD SWAP1 POP SWAP3 SWAP2 POP POP JUMP JUMPDEST PUSH1 0x0 DUP2 SWAP1 POP SWAP3 SWAP2 POP POP JUMP JUMPDEST PUSH1 0x0 PUSH2 0x2E16 DUP3 PUSH2 0x2ED3 JUMP JUMPDEST SWAP2 POP PUSH2 0x2E21 DUP4 PUSH2 0x2ED3 JUMP JUMPDEST SWAP3 POP DUP3 PUSH32 0xFFFFFFFFFFFFFFFFFFFFFFFFFFFFFFFFFFFFFFFFFFFFFFFFFFFFFFFFFFFFFFFF SUB DUP3 GT ISZERO PUSH2 0x2E56 JUMPI PUSH2 0x2E55 PUSH2 0x3002 JUMP JUMPDEST JUMPDEST DUP3 DUP3 ADD SWAP1 POP SWAP3 SWAP2 POP POP JUMP JUMPDEST PUSH1 0x0 PUSH2 0x2E6C DUP3 PUSH2 0x2ED3 JUMP JUMPDEST SWAP2 POP PUSH2 0x2E77 DUP4 PUSH2 0x2ED3 JUMP JUMPDEST SWAP3 POP DUP3 DUP3 LT ISZERO PUSH2 0x2E8A JUMPI PUSH2 0x2E89 PUSH2 0x3002 JUMP JUMPDEST JUMPDEST DUP3 DUP3 SUB SWAP1 POP SWAP3 SWAP2 POP POP JUMP JUMPDEST PUSH1 0x0 PUSH2 0x2EA0 DUP3 PUSH2 0x2EB3 JUMP JUMPDEST SWAP1 POP SWAP2 SWAP1 POP JUMP JUMPDEST PUSH1 0x0 DUP2 ISZERO ISZERO SWAP1 POP SWAP2 SWAP1 POP JUMP JUMPDEST PUSH1 0x0 PUSH20 0xFFFFFFFFFFFFFFFFFFFFFFFFFFFFFFFFFFFFFFFF DUP3 AND SWAP1 POP SWAP2 SWAP1 POP JUMP JUMPDEST PUSH1 0x0 DUP2 SWAP1 POP SWAP2 SWAP1 POP JUMP JUMPDEST PUSH1 0x0 PUSH1 0xFF DUP3 AND SWAP1 POP SWAP2 SWAP1 POP JUMP JUMPDEST DUP3 DUP2 DUP4 CALLDATACOPY PUSH1 0x0 DUP4 DUP4 ADD MSTORE POP POP POP JUMP JUMPDEST PUSH1 0x0 JUMPDEST DUP4 DUP2 LT ISZERO PUSH2 0x2F17 JUMPI DUP1 DUP3 ADD MLOAD DUP2 DUP5 ADD MSTORE PUSH1 0x20 DUP2 ADD SWAP1 POP PUSH2 0x2EFC JUMP JUMPDEST DUP4 DUP2 GT ISZERO PUSH2 0x2F26 JUMPI PUSH1 0x0 DUP5 DUP5 ADD MSTORE JUMPDEST POP POP POP POP JUMP JUMPDEST PUSH1 0x0 PUSH2 0x2F37 DUP3 PUSH2 0x2ED3 JUMP JUMPDEST SWAP2 POP PUSH1 0x0 DUP3 EQ ISZERO PUSH2 0x2F4B JUMPI PUSH2 0x2F4A PUSH2 0x3002 JUMP JUMPDEST JUMPDEST PUSH1 0x1 DUP3 SUB SWAP1 POP SWAP2 SWAP1 POP JUMP JUMPDEST PUSH1 0x0 PUSH1 0x2 DUP3 DIV SWAP1 POP PUSH1 0x1 DUP3 AND DUP1 PUSH2 0x2F6E JUMPI PUSH1 0x7F DUP3 AND SWAP2 POP JUMPDEST PUSH1 0x20 DUP3 LT DUP2 EQ ISZERO PUSH2 0x2F82 JUMPI PUSH2 0x2F81 PUSH2 0x3031 JUMP JUMPDEST JUMPDEST POP SWAP2 SWAP1 POP JUMP JUMPDEST PUSH2 0x2F91 DUP3 PUSH2 0x30D2 JUMP JUMPDEST DUP2 ADD DUP2 DUP2 LT PUSH8 0xFFFFFFFFFFFFFFFF DUP3 GT OR ISZERO PUSH2 0x2FB0 JUMPI PUSH2 0x2FAF PUSH2 0x308F JUMP JUMPDEST JUMPDEST DUP1 PUSH1 0x40 MSTORE POP POP POP JUMP JUMPDEST PUSH1 0x0 PUSH2 0x2FC4 DUP3 PUSH2 0x2ED3 JUMP JUMPDEST SWAP2 POP PUSH32 0xFFFFFFFFFFFFFFFFFFFFFFFFFFFFFFFFFFFFFFFFFFFFFFFFFFFFFFFFFFFFFFFF DUP3 EQ ISZERO PUSH2 0x2FF7 JUMPI PUSH2 0x2FF6 PUSH2 0x3002 JUMP JUMPDEST JUMPDEST PUSH1 0x1 DUP3 ADD SWAP1 POP SWAP2 SWAP1 POP JUMP JUMPDEST PUSH32 0x4E487B7100000000000000000000000000000000000000000000000000000000 PUSH1 0x0 MSTORE PUSH1 0x11 PUSH1 0x4 MSTORE PUSH1 0x24 PUSH1 0x0 REVERT JUMPDEST PUSH32 0x4E487B7100000000000000000000000000000000000000000000000000000000 PUSH1 0x0 MSTORE PUSH1 0x22 PUSH1 0x4 MSTORE PUSH1 0x24 PUSH1 0x0 REVERT JUMPDEST PUSH32 0x4E487B7100000000000000000000000000000000000000000000000000000000 PUSH1 0x0 MSTORE PUSH1 0x32 PUSH1 0x4 MSTORE PUSH1 0x24 PUSH1 0x0 REVERT JUMPDEST PUSH32 0x4E487B7100000000000000000000000000000000000000000000000000000000 PUSH1 0x0 MSTORE PUSH1 0x41 PUSH1 0x4 MSTORE PUSH1 0x24 PUSH1 0x0 REVERT JUMPDEST PUSH1 0x0 DUP1 REVERT JUMPDEST PUSH1 0x0 DUP1 REVERT JUMPDEST PUSH1 0x0 DUP1 REVERT JUMPDEST PUSH1 0x0 DUP1 REVERT JUMPDEST PUSH1 0x0 PUSH1 0x1F NOT PUSH1 0x1F DUP4 ADD AND SWAP1 POP SWAP2 SWAP1 POP JUMP JUMPDEST PUSH32 0x4F776E61626C653A206E6577206F776E657220697320746865207A65726F2061 PUSH1 0x0 DUP3 ADD MSTORE PUSH32 0x6464726573730000000000000000000000000000000000000000000000000000 PUSH1 0x20 DUP3 ADD MSTORE POP JUMP JUMPDEST PUSH32 0x43616E206E6F7420757064617465207472616E73616374696F6E20414D4C2073 PUSH1 0x0 DUP3 ADD MSTORE PUSH32 0x74617475733A20616C7265616479207365740000000000000000000000000000 PUSH1 0x20 DUP3 ADD MSTORE POP JUMP JUMPDEST PUSH32 0x43616E206E6F7420676574207472616E73616374696F6E73206C6973742E2054 PUSH1 0x0 DUP3 ADD MSTORE PUSH32 0x6865206D6178696D756D207472616E73616374696F6E7320636F756E74206973 PUSH1 0x20 DUP3 ADD MSTORE PUSH32 0x2031303000000000000000000000000000000000000000000000000000000000 PUSH1 0x40 DUP3 ADD MSTORE POP JUMP JUMPDEST PUSH32 0x4F6E6C7920666F7220636F6D706C6574656420414D4C00000000000000000000 PUSH1 0x0 DUP3 ADD MSTORE POP JUMP JUMPDEST PUSH32 0x4F776E61626C653A2063616C6C6572206973206E6F7420746865206F776E6572 PUSH1 0x0 DUP3 ADD MSTORE POP JUMP JUMPDEST PUSH32 0x43616E206E6F74207570646174652072656365697665722E20496E76616C6964 PUSH1 0x0 DUP3 ADD MSTORE PUSH32 0x2073656E64657200000000000000000000000000000000000000000000000000 PUSH1 0x20 DUP3 ADD MSTORE POP JUMP JUMPDEST PUSH32 0x43616E206E6F74207570646174652072656365697665722E205472616E736163 PUSH1 0x0 DUP3 ADD MSTORE PUSH32 0x74696F6E20616C726561647920686173206265656E2075706461746564000000 PUSH1 0x20 DUP3 ADD MSTORE POP JUMP JUMPDEST PUSH2 0x32EF DUP2 PUSH2 0x2E95 JUMP JUMPDEST DUP2 EQ PUSH2 0x32FA JUMPI PUSH1 0x0 DUP1 REVERT JUMPDEST POP JUMP JUMPDEST PUSH2 0x3306 DUP2 PUSH2 0x2EA7 JUMP JUMPDEST DUP2 EQ PUSH2 0x3311 JUMPI PUSH1 0x0 DUP1 REVERT JUMPDEST POP JUMP JUMPDEST PUSH2 0x331D DUP2 PUSH2 0x2ED3 JUMP JUMPDEST DUP2 EQ PUSH2 0x3328 JUMPI PUSH1 0x0 DUP1 REVERT JUMPDEST POP JUMP JUMPDEST PUSH2 0x3334 DUP2 PUSH2 0x2EDD JUMP JUMPDEST DUP2 EQ PUSH2 0x333F JUMPI PUSH1 0x0 DUP1 REVERT JUMPDEST POP JUMP INVALID LOG2 PUSH5 0x6970667358 0x22 SLT KECCAK256 0xDC SIGNEXTEND 0x2D DUP14 0xD4 POP 0xAD ADDRESS AND PUSH22 0x7293965BCFFEB3444F3AEBE3E27BD0313D6D67175250 PUSH5 0x736F6C6343 STOP ADDMOD SMOD STOP CALLER "
				},
				"gasEstimates": {
					"creation": {
						"codeDepositCost": "2635200",
						"executionCost": "infinite",
						"totalCost": "infinite"
					},
					"external": {
						"addTransaction(address,address,string)": "infinite",
						"clear()": "infinite",
						"getAllTransactions()": "infinite",
						"getTransactions(uint256)": "infinite",
						"getTransactionsForReceiver(address,uint256)": "infinite",
						"owner()": "2545",
						"renounceOwnership()": "30443",
						"setAmlStatusForReceiver(uint256,uint8)": "infinite",
						"setAmlStatusForReceiver(uint256,uint8,bool)": "infinite",
						"setAmlStatusForSender(uint256,uint8)": "infinite",
						"setAmlStatusForSender(uint256,uint8,bool)": "infinite",
						"setTransactionAmlStatus(uint256,uint8,uint8)": "infinite",
						"transferOwnership(address)": "30835",
						"updateReceiversData(uint256,string)": "infinite"
					},
					"internal": {
						"compareStrings(string memory,string memory)": "infinite",
						"reverseTransactionArray()": "infinite"
					}
				},
				"methodIdentifiers": {
					"addTransaction(address,address,string)": "9b8570f4",
					"clear()": "52efea6e",
					"getAllTransactions()": "27506f53",
					"getTransactions(uint256)": "5742177c",
					"getTransactionsForReceiver(address,uint256)": "e32ab44b",
					"owner()": "8da5cb5b",
					"renounceOwnership()": "715018a6",
					"setAmlStatusForReceiver(uint256,uint8)": "d39d0527",
					"setAmlStatusForReceiver(uint256,uint8,bool)": "7ccc241a",
					"setAmlStatusForSender(uint256,uint8)": "87e8bd12",
					"setAmlStatusForSender(uint256,uint8,bool)": "9a238f6d",
					"setTransactionAmlStatus(uint256,uint8,uint8)": "1167372d",
					"transferOwnership(address)": "f2fde38b",
					"updateReceiversData(uint256,string)": "cf993060"
				}
			},
			"storageLayout": {
				"storage": [
					{
						"astId": 7,
						"contract": "contracts/TravelRuleProgram.sol:TravelRuleProgram",
						"label": "_owner",
						"offset": 0,
						"slot": "0",
						"type": "t_address"
					},
					{
						"astId": 143,
						"contract": "contracts/TravelRuleProgram.sol:TravelRuleProgram",
						"label": "transactions",
						"offset": 0,
						"slot": "1",
						"type": "t_array(t_struct(Transaction)158_storage)dyn_storage"
					}
				],
				"types": {
					"t_address": {
						"encoding": "inplace",
						"label": "address",
						"numberOfBytes": "20"
					},
					"t_array(t_struct(Transaction)158_storage)dyn_storage": {
						"base": "t_struct(Transaction)158_storage",
						"encoding": "dynamic_array",
						"label": "struct TravelRuleProgram.Transaction[]",
						"numberOfBytes": "32"
					},
					"t_string_storage": {
						"encoding": "bytes",
						"label": "string",
						"numberOfBytes": "32"
					},
					"t_struct(Transaction)158_storage": {
						"encoding": "inplace",
						"label": "struct TravelRuleProgram.Transaction",
						"members": [
							{
								"astId": 145,
								"contract": "contracts/TravelRuleProgram.sol:TravelRuleProgram",
								"label": "id",
								"offset": 0,
								"slot": "0",
								"type": "t_uint256"
							},
							{
								"astId": 147,
								"contract": "contracts/TravelRuleProgram.sol:TravelRuleProgram",
								"label": "from",
								"offset": 0,
								"slot": "1",
								"type": "t_address"
							},
							{
								"astId": 149,
								"contract": "contracts/TravelRuleProgram.sol:TravelRuleProgram",
								"label": "to",
								"offset": 0,
								"slot": "2",
								"type": "t_address"
							},
							{
								"astId": 151,
								"contract": "contracts/TravelRuleProgram.sol:TravelRuleProgram",
								"label": "sendersData",
								"offset": 0,
								"slot": "3",
								"type": "t_string_storage"
							},
							{
								"astId": 153,
								"contract": "contracts/TravelRuleProgram.sol:TravelRuleProgram",
								"label": "receiversData",
								"offset": 0,
								"slot": "4",
								"type": "t_string_storage"
							},
							{
								"astId": 155,
								"contract": "contracts/TravelRuleProgram.sol:TravelRuleProgram",
								"label": "amlForSender",
								"offset": 0,
								"slot": "5",
								"type": "t_uint8"
							},
							{
								"astId": 157,
								"contract": "contracts/TravelRuleProgram.sol:TravelRuleProgram",
								"label": "amlForReceiver",
								"offset": 1,
								"slot": "5",
								"type": "t_uint8"
							}
						],
						"numberOfBytes": "192"
					},
					"t_uint256": {
						"encoding": "inplace",
						"label": "uint256",
						"numberOfBytes": "32"
					},
					"t_uint8": {
						"encoding": "inplace",
						"label": "uint8",
						"numberOfBytes": "1"
					}
				}
			},
			"userdoc": {
				"kind": "user",
				"methods": {},
				"version": 1
			}
		}
	}
}