{
	"contracts/TravelRuleProgram.sol": {
		"TravelRuleProgram": {
			"abi": [
				{
					"anonymous": false,
					"inputs": [
						{
							"indexed": true,
							"internalType": "address",
							"name": "previousOwner",
							"type": "address"
						},
						{
							"indexed": true,
							"internalType": "address",
							"name": "newOwner",
							"type": "address"
						}
					],
					"name": "OwnershipTransferred",
					"type": "event"
				},
				{
					"anonymous": false,
					"inputs": [
						{
							"indexed": false,
							"internalType": "uint256",
							"name": "transactionId",
							"type": "uint256"
						},
						{
							"indexed": false,
							"internalType": "uint8",
							"name": "amlForSender",
							"type": "uint8"
						},
						{
							"indexed": false,
							"internalType": "uint8",
							"name": "amlForReceiver",
							"type": "uint8"
						}
					],
					"name": "TransactionAmlStatusUpdated",
					"type": "event"
				},
				{
					"inputs": [
						{
							"internalType": "address",
							"name": "from",
							"type": "address"
						},
						{
							"internalType": "address",
							"name": "to",
							"type": "address"
						},
						{
							"internalType": "string",
							"name": "sendersData",
							"type": "string"
						}
					],
					"name": "addTransaction",
					"outputs": [
						{
							"internalType": "uint256",
							"name": "",
							"type": "uint256"
						}
					],
					"stateMutability": "nonpayable",
					"type": "function"
				},
				{
					"inputs": [
						{
							"internalType": "uint256",
							"name": "count",
							"type": "uint256"
						}
					],
					"name": "getTransactions",
					"outputs": [
						{
							"components": [
								{
									"internalType": "uint256",
									"name": "id",
									"type": "uint256"
								},
								{
									"internalType": "address",
									"name": "from",
									"type": "address"
								},
								{
									"internalType": "address",
									"name": "to",
									"type": "address"
								},
								{
									"internalType": "string",
									"name": "sendersData",
									"type": "string"
								},
								{
									"internalType": "string",
									"name": "receiversData",
									"type": "string"
								},
								{
									"internalType": "uint8",
									"name": "amlForSender",
									"type": "uint8"
								},
								{
									"internalType": "uint8",
									"name": "amlForReceiver",
									"type": "uint8"
								}
							],
							"internalType": "struct TravelRuleProgram.Transaction[]",
							"name": "",
							"type": "tuple[]"
						}
					],
					"stateMutability": "view",
					"type": "function"
				},
				{
					"inputs": [
						{
							"internalType": "address",
							"name": "to",
							"type": "address"
						},
						{
							"internalType": "uint256",
							"name": "count",
							"type": "uint256"
						}
					],
					"name": "getTransactionsForReceiver",
					"outputs": [
						{
							"components": [
								{
									"internalType": "uint256",
									"name": "id",
									"type": "uint256"
								},
								{
									"internalType": "address",
									"name": "from",
									"type": "address"
								},
								{
									"internalType": "address",
									"name": "to",
									"type": "address"
								},
								{
									"internalType": "string",
									"name": "sendersData",
									"type": "string"
								},
								{
									"internalType": "string",
									"name": "receiversData",
									"type": "string"
								},
								{
									"internalType": "uint8",
									"name": "amlForSender",
									"type": "uint8"
								},
								{
									"internalType": "uint8",
									"name": "amlForReceiver",
									"type": "uint8"
								}
							],
							"internalType": "struct TravelRuleProgram.Transaction[]",
							"name": "",
							"type": "tuple[]"
						}
					],
					"stateMutability": "view",
					"type": "function"
				},
				{
					"inputs": [],
					"name": "owner",
					"outputs": [
						{
							"internalType": "address",
							"name": "",
							"type": "address"
						}
					],
					"stateMutability": "view",
					"type": "function"
				},
				{
					"inputs": [],
					"name": "renounceOwnership",
					"outputs": [],
					"stateMutability": "nonpayable",
					"type": "function"
				},
				{
					"inputs": [
						{
							"internalType": "uint256",
							"name": "transactionId",
							"type": "uint256"
						},
						{
							"internalType": "uint8",
							"name": "status",
							"type": "uint8"
						},
						{
							"internalType": "bool",
							"name": "emitEvent",
							"type": "bool"
						}
					],
					"name": "setAmlStatusForReceiver",
					"outputs": [],
					"stateMutability": "nonpayable",
					"type": "function"
				},
				{
					"inputs": [
						{
							"internalType": "uint256",
							"name": "transactionId",
							"type": "uint256"
						},
						{
							"internalType": "uint8",
							"name": "status",
							"type": "uint8"
						}
					],
					"name": "setAmlStatusForReceiver",
					"outputs": [],
					"stateMutability": "nonpayable",
					"type": "function"
				},
				{
					"inputs": [
						{
							"internalType": "uint256",
							"name": "transactionId",
							"type": "uint256"
						},
						{
							"internalType": "uint8",
							"name": "status",
							"type": "uint8"
						}
					],
					"name": "setAmlStatusForSender",
					"outputs": [],
					"stateMutability": "nonpayable",
					"type": "function"
				},
				{
					"inputs": [
						{
							"internalType": "uint256",
							"name": "transactionId",
							"type": "uint256"
						},
						{
							"internalType": "uint8",
							"name": "status",
							"type": "uint8"
						},
						{
							"internalType": "bool",
							"name": "emitEvent",
							"type": "bool"
						}
					],
					"name": "setAmlStatusForSender",
					"outputs": [],
					"stateMutability": "nonpayable",
					"type": "function"
				},
				{
					"inputs": [
						{
							"internalType": "uint256",
							"name": "transactionId",
							"type": "uint256"
						},
						{
							"internalType": "uint8",
							"name": "senderStatus",
							"type": "uint8"
						},
						{
							"internalType": "uint8",
							"name": "receiverStatus",
							"type": "uint8"
						}
					],
					"name": "setTransactionAmlStatus",
					"outputs": [],
					"stateMutability": "nonpayable",
					"type": "function"
				},
				{
					"inputs": [
						{
							"internalType": "address",
							"name": "newOwner",
							"type": "address"
						}
					],
					"name": "transferOwnership",
					"outputs": [],
					"stateMutability": "nonpayable",
					"type": "function"
				},
				{
					"inputs": [
						{
							"internalType": "uint256",
							"name": "transactionId",
							"type": "uint256"
						},
						{
							"internalType": "string",
							"name": "receiversData",
							"type": "string"
						}
					],
					"name": "updateReceiversData",
					"outputs": [],
					"stateMutability": "nonpayable",
					"type": "function"
				}
			],
			"devdoc": {
				"kind": "dev",
				"methods": {
					"owner()": {
						"details": "Returns the address of the current owner."
					},
					"renounceOwnership()": {
						"details": "Leaves the contract without owner. It will not be possible to call `onlyOwner` functions anymore. Can only be called by the current owner. NOTE: Renouncing ownership will leave the contract without an owner, thereby removing any functionality that is only available to the owner."
					},
					"transferOwnership(address)": {
						"details": "Transfers ownership of the contract to a new account (`newOwner`). Can only be called by the current owner."
					}
				},
				"version": 1
			},
			"evm": {
				"assembly": "    /* \"contracts/TravelRuleProgram.sol\":177:6022  contract TravelRuleProgram is Ownable {... */\n  mstore(0x40, 0x80)\n  callvalue\n  dup1\n  iszero\n  tag_1\n  jumpi\n  0x00\n  dup1\n  revert\ntag_1:\n  pop\n    /* \"@openzeppelin/contracts/access/Ownable.sol\":936:968  _transferOwnership(_msgSender()) */\n  tag_4\n    /* \"@openzeppelin/contracts/access/Ownable.sol\":955:967  _msgSender() */\n  tag_5\n    /* \"@openzeppelin/contracts/access/Ownable.sol\":955:965  _msgSender */\n  shl(0x20, tag_6)\n    /* \"@openzeppelin/contracts/access/Ownable.sol\":955:967  _msgSender() */\n  0x20\n  shr\n  jump\t// in\ntag_5:\n    /* \"@openzeppelin/contracts/access/Ownable.sol\":936:954  _transferOwnership */\n  shl(0x20, tag_7)\n    /* \"@openzeppelin/contracts/access/Ownable.sol\":936:968  _transferOwnership(_msgSender()) */\n  0x20\n  shr\n  jump\t// in\ntag_4:\n    /* \"contracts/TravelRuleProgram.sol\":177:6022  contract TravelRuleProgram is Ownable {... */\n  jump(tag_8)\n    /* \"@openzeppelin/contracts/utils/Context.sol\":640:736  function _msgSender() internal view virtual returns (address) {... */\ntag_6:\n    /* \"@openzeppelin/contracts/utils/Context.sol\":693:700  address */\n  0x00\n    /* \"@openzeppelin/contracts/utils/Context.sol\":719:729  msg.sender */\n  caller\n    /* \"@openzeppelin/contracts/utils/Context.sol\":712:729  return msg.sender */\n  swap1\n  pop\n    /* \"@openzeppelin/contracts/utils/Context.sol\":640:736  function _msgSender() internal view virtual returns (address) {... */\n  swap1\n  jump\t// out\n    /* \"@openzeppelin/contracts/access/Ownable.sol\":2433:2620  function _transferOwnership(address newOwner) internal virtual {... */\ntag_7:\n    /* \"@openzeppelin/contracts/access/Ownable.sol\":2506:2522  address oldOwner */\n  0x00\n    /* \"@openzeppelin/contracts/access/Ownable.sol\":2525:2531  _owner */\n  dup1\n  0x00\n  swap1\n  sload\n  swap1\n  0x0100\n  exp\n  swap1\n  div\n  0xffffffffffffffffffffffffffffffffffffffff\n  and\n    /* \"@openzeppelin/contracts/access/Ownable.sol\":2506:2531  address oldOwner = _owner */\n  swap1\n  pop\n    /* \"@openzeppelin/contracts/access/Ownable.sol\":2550:2558  newOwner */\n  dup2\n    /* \"@openzeppelin/contracts/access/Ownable.sol\":2541:2547  _owner */\n  0x00\n  dup1\n    /* \"@openzeppelin/contracts/access/Ownable.sol\":2541:2558  _owner = newOwner */\n  0x0100\n  exp\n  dup2\n  sload\n  dup2\n  0xffffffffffffffffffffffffffffffffffffffff\n  mul\n  not\n  and\n  swap1\n  dup4\n  0xffffffffffffffffffffffffffffffffffffffff\n  and\n  mul\n  or\n  swap1\n  sstore\n  pop\n    /* \"@openzeppelin/contracts/access/Ownable.sol\":2604:2612  newOwner */\n  dup2\n    /* \"@openzeppelin/contracts/access/Ownable.sol\":2573:2613  OwnershipTransferred(oldOwner, newOwner) */\n  0xffffffffffffffffffffffffffffffffffffffff\n  and\n    /* \"@openzeppelin/contracts/access/Ownable.sol\":2594:2602  oldOwner */\n  dup2\n    /* \"@openzeppelin/contracts/access/Ownable.sol\":2573:2613  OwnershipTransferred(oldOwner, newOwner) */\n  0xffffffffffffffffffffffffffffffffffffffff\n  and\n  0x8be0079c531659141344cd1fd0a4f28419497f9722a3daafe3b4186f6b6457e0\n  mload(0x40)\n  mload(0x40)\n  dup1\n  swap2\n  sub\n  swap1\n  log3\n    /* \"@openzeppelin/contracts/access/Ownable.sol\":2496:2620  {... */\n  pop\n    /* \"@openzeppelin/contracts/access/Ownable.sol\":2433:2620  function _transferOwnership(address newOwner) internal virtual {... */\n  pop\n  jump\t// out\n    /* \"contracts/TravelRuleProgram.sol\":177:6022  contract TravelRuleProgram is Ownable {... */\ntag_8:\n  dataSize(sub_0)\n  dup1\n  dataOffset(sub_0)\n  0x00\n  codecopy\n  0x00\n  return\nstop\n\nsub_0: assembly {\n        /* \"contracts/TravelRuleProgram.sol\":177:6022  contract TravelRuleProgram is Ownable {... */\n      mstore(0x40, 0x80)\n      callvalue\n      dup1\n      iszero\n      tag_1\n      jumpi\n      0x00\n      dup1\n      revert\n    tag_1:\n      pop\n      jumpi(tag_2, lt(calldatasize, 0x04))\n      shr(0xe0, calldataload(0x00))\n      dup1\n      0x9a238f6d\n      gt\n      tag_15\n      jumpi\n      dup1\n      0x9a238f6d\n      eq\n      tag_9\n      jumpi\n      dup1\n      0x9b8570f4\n      eq\n      tag_10\n      jumpi\n      dup1\n      0xcf993060\n      eq\n      tag_11\n      jumpi\n      dup1\n      0xd39d0527\n      eq\n      tag_12\n      jumpi\n      dup1\n      0xe32ab44b\n      eq\n      tag_13\n      jumpi\n      dup1\n      0xf2fde38b\n      eq\n      tag_14\n      jumpi\n      jump(tag_2)\n    tag_15:\n      dup1\n      0x1167372d\n      eq\n      tag_3\n      jumpi\n      dup1\n      0x5742177c\n      eq\n      tag_4\n      jumpi\n      dup1\n      0x715018a6\n      eq\n      tag_5\n      jumpi\n      dup1\n      0x7ccc241a\n      eq\n      tag_6\n      jumpi\n      dup1\n      0x87e8bd12\n      eq\n      tag_7\n      jumpi\n      dup1\n      0x8da5cb5b\n      eq\n      tag_8\n      jumpi\n    tag_2:\n      0x00\n      dup1\n      revert\n        /* \"contracts/TravelRuleProgram.sol\":5576:6020  function setTransactionAmlStatus(... */\n    tag_3:\n      tag_16\n      0x04\n      dup1\n      calldatasize\n      sub\n      dup2\n      add\n      swap1\n      tag_17\n      swap2\n      swap1\n      tag_18\n      jump\t// in\n    tag_17:\n      tag_19\n      jump\t// in\n    tag_16:\n      stop\n        /* \"contracts/TravelRuleProgram.sol\":2414:3016  function getTransactions(uint256 count) public view returns(Transaction[] memory) {... */\n    tag_4:\n      tag_20\n      0x04\n      dup1\n      calldatasize\n      sub\n      dup2\n      add\n      swap1\n      tag_21\n      swap2\n      swap1\n      tag_22\n      jump\t// in\n    tag_21:\n      tag_23\n      jump\t// in\n    tag_20:\n      mload(0x40)\n      tag_24\n      swap2\n      swap1\n      tag_25\n      jump\t// in\n    tag_24:\n      mload(0x40)\n      dup1\n      swap2\n      sub\n      swap1\n      return\n        /* \"@openzeppelin/contracts/access/Ownable.sol\":1831:1932  function renounceOwnership() public virtual onlyOwner {... */\n    tag_5:\n      tag_26\n      tag_27\n      jump\t// in\n    tag_26:\n      stop\n        /* \"contracts/TravelRuleProgram.sol\":4153:4759  function setAmlStatusForReceiver(... */\n    tag_6:\n      tag_28\n      0x04\n      dup1\n      calldatasize\n      sub\n      dup2\n      add\n      swap1\n      tag_29\n      swap2\n      swap1\n      tag_30\n      jump\t// in\n    tag_29:\n      tag_31\n      jump\t// in\n    tag_28:\n      stop\n        /* \"contracts/TravelRuleProgram.sol\":4765:4972  function setAmlStatusForSender(... */\n    tag_7:\n      tag_32\n      0x04\n      dup1\n      calldatasize\n      sub\n      dup2\n      add\n      swap1\n      tag_33\n      swap2\n      swap1\n      tag_34\n      jump\t// in\n    tag_33:\n      tag_35\n      jump\t// in\n    tag_32:\n      stop\n        /* \"@openzeppelin/contracts/access/Ownable.sol\":1201:1286  function owner() public view virtual returns (address) {... */\n    tag_8:\n      tag_36\n      tag_37\n      jump\t// in\n    tag_36:\n      mload(0x40)\n      tag_38\n      swap2\n      swap1\n      tag_39\n      jump\t// in\n    tag_38:\n      mload(0x40)\n      dup1\n      swap2\n      sub\n      swap1\n      return\n        /* \"contracts/TravelRuleProgram.sol\":4978:5570  function setAmlStatusForSender(... */\n    tag_9:\n      tag_40\n      0x04\n      dup1\n      calldatasize\n      sub\n      dup2\n      add\n      swap1\n      tag_41\n      swap2\n      swap1\n      tag_30\n      jump\t// in\n    tag_41:\n      tag_42\n      jump\t// in\n    tag_40:\n      stop\n        /* \"contracts/TravelRuleProgram.sol\":1538:1919  function addTransaction(... */\n    tag_10:\n      tag_43\n      0x04\n      dup1\n      calldatasize\n      sub\n      dup2\n      add\n      swap1\n      tag_44\n      swap2\n      swap1\n      tag_45\n      jump\t// in\n    tag_44:\n      tag_46\n      jump\t// in\n    tag_43:\n      mload(0x40)\n      tag_47\n      swap2\n      swap1\n      tag_48\n      jump\t// in\n    tag_47:\n      mload(0x40)\n      dup1\n      swap2\n      sub\n      swap1\n      return\n        /* \"contracts/TravelRuleProgram.sol\":1925:2408  function updateReceiversData(... */\n    tag_11:\n      tag_49\n      0x04\n      dup1\n      calldatasize\n      sub\n      dup2\n      add\n      swap1\n      tag_50\n      swap2\n      swap1\n      tag_51\n      jump\t// in\n    tag_50:\n      tag_52\n      jump\t// in\n    tag_49:\n      stop\n        /* \"contracts/TravelRuleProgram.sol\":3936:4147  function setAmlStatusForReceiver(... */\n    tag_12:\n      tag_53\n      0x04\n      dup1\n      calldatasize\n      sub\n      dup2\n      add\n      swap1\n      tag_54\n      swap2\n      swap1\n      tag_34\n      jump\t// in\n    tag_54:\n      tag_55\n      jump\t// in\n    tag_53:\n      stop\n        /* \"contracts/TravelRuleProgram.sol\":3026:3930  function getTransactionsForReceiver(address to, uint256 count) public view returns(Transaction[] memory) {... */\n    tag_13:\n      tag_56\n      0x04\n      dup1\n      calldatasize\n      sub\n      dup2\n      add\n      swap1\n      tag_57\n      swap2\n      swap1\n      tag_58\n      jump\t// in\n    tag_57:\n      tag_59\n      jump\t// in\n    tag_56:\n      mload(0x40)\n      tag_60\n      swap2\n      swap1\n      tag_25\n      jump\t// in\n    tag_60:\n      mload(0x40)\n      dup1\n      swap2\n      sub\n      swap1\n      return\n        /* \"@openzeppelin/contracts/access/Ownable.sol\":2081:2279  function transferOwnership(address newOwner) public virtual onlyOwner {... */\n    tag_14:\n      tag_61\n      0x04\n      dup1\n      calldatasize\n      sub\n      dup2\n      add\n      swap1\n      tag_62\n      swap2\n      swap1\n      tag_63\n      jump\t// in\n    tag_62:\n      tag_64\n      jump\t// in\n    tag_61:\n      stop\n        /* \"contracts/TravelRuleProgram.sol\":5576:6020  function setTransactionAmlStatus(... */\n    tag_19:\n        /* \"@openzeppelin/contracts/access/Ownable.sol\":1094:1107  _checkOwner() */\n      tag_66\n        /* \"@openzeppelin/contracts/access/Ownable.sol\":1094:1105  _checkOwner */\n      tag_67\n        /* \"@openzeppelin/contracts/access/Ownable.sol\":1094:1107  _checkOwner() */\n      jump\t// in\n    tag_66:\n        /* \"contracts/TravelRuleProgram.sol\":5740:5753  transactionId */\n      dup3\n        /* \"contracts/TravelRuleProgram.sol\":1321:1380  compareStrings(transactions[transactionId].sendersData, \"\") */\n      tag_69\n        /* \"contracts/TravelRuleProgram.sol\":1336:1348  transactions */\n      0x02\n        /* \"contracts/TravelRuleProgram.sol\":1349:1362  transactionId */\n      dup3\n        /* \"contracts/TravelRuleProgram.sol\":1336:1363  transactions[transactionId] */\n      dup2\n      sload\n      dup2\n      lt\n      tag_70\n      jumpi\n      tag_71\n      tag_72\n      jump\t// in\n    tag_71:\n    tag_70:\n      swap1\n      0x00\n      mstore\n      keccak256(0x00, 0x20)\n      swap1\n      0x06\n      mul\n      add\n        /* \"contracts/TravelRuleProgram.sol\":1336:1375  transactions[transactionId].sendersData */\n      0x03\n      add\n        /* \"contracts/TravelRuleProgram.sol\":1321:1380  compareStrings(transactions[transactionId].sendersData, \"\") */\n      dup1\n      sload\n      tag_74\n      swap1\n      tag_75\n      jump\t// in\n    tag_74:\n      dup1\n      0x1f\n      add\n      0x20\n      dup1\n      swap2\n      div\n      mul\n      0x20\n      add\n      mload(0x40)\n      swap1\n      dup2\n      add\n      0x40\n      mstore\n      dup1\n      swap3\n      swap2\n      swap1\n      dup2\n      dup2\n      mstore\n      0x20\n      add\n      dup3\n      dup1\n      sload\n      tag_76\n      swap1\n      tag_75\n      jump\t// in\n    tag_76:\n      dup1\n      iszero\n      tag_77\n      jumpi\n      dup1\n      0x1f\n      lt\n      tag_78\n      jumpi\n      0x0100\n      dup1\n      dup4\n      sload\n      div\n      mul\n      dup4\n      mstore\n      swap2\n      0x20\n      add\n      swap2\n      jump(tag_77)\n    tag_78:\n      dup3\n      add\n      swap2\n      swap1\n      0x00\n      mstore\n      keccak256(0x00, 0x20)\n      swap1\n    tag_79:\n      dup2\n      sload\n      dup2\n      mstore\n      swap1\n      0x01\n      add\n      swap1\n      0x20\n      add\n      dup1\n      dup4\n      gt\n      tag_79\n      jumpi\n      dup3\n      swap1\n      sub\n      0x1f\n      and\n      dup3\n      add\n      swap2\n    tag_77:\n      pop\n      pop\n      pop\n      pop\n      pop\n      mload(0x40)\n      dup1\n      0x20\n      add\n      0x40\n      mstore\n      dup1\n      0x00\n      dup2\n      mstore\n      pop\n        /* \"contracts/TravelRuleProgram.sol\":1321:1335  compareStrings */\n      tag_80\n        /* \"contracts/TravelRuleProgram.sol\":1321:1380  compareStrings(transactions[transactionId].sendersData, \"\") */\n      jump\t// in\n    tag_69:\n        /* \"contracts/TravelRuleProgram.sol\":1320:1380  !compareStrings(transactions[transactionId].sendersData, \"\") */\n      iszero\n        /* \"contracts/TravelRuleProgram.sol\":1312:1407  require(!compareStrings(transactions[transactionId].sendersData, \"\"), \"Only for completed AML\") */\n      tag_81\n      jumpi\n      mload(0x40)\n      0x08c379a000000000000000000000000000000000000000000000000000000000\n      dup2\n      mstore\n      0x04\n      add\n      tag_82\n      swap1\n      tag_83\n      jump\t// in\n    tag_82:\n      mload(0x40)\n      dup1\n      swap2\n      sub\n      swap1\n      revert\n    tag_81:\n        /* \"contracts/TravelRuleProgram.sol\":1426:1487  compareStrings(transactions[transactionId].receiversData, \"\") */\n      tag_84\n        /* \"contracts/TravelRuleProgram.sol\":1441:1453  transactions */\n      0x02\n        /* \"contracts/TravelRuleProgram.sol\":1454:1467  transactionId */\n      dup3\n        /* \"contracts/TravelRuleProgram.sol\":1441:1468  transactions[transactionId] */\n      dup2\n      sload\n      dup2\n      lt\n      tag_85\n      jumpi\n      tag_86\n      tag_72\n      jump\t// in\n    tag_86:\n    tag_85:\n      swap1\n      0x00\n      mstore\n      keccak256(0x00, 0x20)\n      swap1\n      0x06\n      mul\n      add\n        /* \"contracts/TravelRuleProgram.sol\":1441:1482  transactions[transactionId].receiversData */\n      0x04\n      add\n        /* \"contracts/TravelRuleProgram.sol\":1426:1487  compareStrings(transactions[transactionId].receiversData, \"\") */\n      dup1\n      sload\n      tag_88\n      swap1\n      tag_75\n      jump\t// in\n    tag_88:\n      dup1\n      0x1f\n      add\n      0x20\n      dup1\n      swap2\n      div\n      mul\n      0x20\n      add\n      mload(0x40)\n      swap1\n      dup2\n      add\n      0x40\n      mstore\n      dup1\n      swap3\n      swap2\n      swap1\n      dup2\n      dup2\n      mstore\n      0x20\n      add\n      dup3\n      dup1\n      sload\n      tag_89\n      swap1\n      tag_75\n      jump\t// in\n    tag_89:\n      dup1\n      iszero\n      tag_90\n      jumpi\n      dup1\n      0x1f\n      lt\n      tag_91\n      jumpi\n      0x0100\n      dup1\n      dup4\n      sload\n      div\n      mul\n      dup4\n      mstore\n      swap2\n      0x20\n      add\n      swap2\n      jump(tag_90)\n    tag_91:\n      dup3\n      add\n      swap2\n      swap1\n      0x00\n      mstore\n      keccak256(0x00, 0x20)\n      swap1\n    tag_92:\n      dup2\n      sload\n      dup2\n      mstore\n      swap1\n      0x01\n      add\n      swap1\n      0x20\n      add\n      dup1\n      dup4\n      gt\n      tag_92\n      jumpi\n      dup3\n      swap1\n      sub\n      0x1f\n      and\n      dup3\n      add\n      swap2\n    tag_90:\n      pop\n      pop\n      pop\n      pop\n      pop\n      mload(0x40)\n      dup1\n      0x20\n      add\n      0x40\n      mstore\n      dup1\n      0x00\n      dup2\n      mstore\n      pop\n        /* \"contracts/TravelRuleProgram.sol\":1426:1440  compareStrings */\n      tag_80\n        /* \"contracts/TravelRuleProgram.sol\":1426:1487  compareStrings(transactions[transactionId].receiversData, \"\") */\n      jump\t// in\n    tag_84:\n        /* \"contracts/TravelRuleProgram.sol\":1425:1487  !compareStrings(transactions[transactionId].receiversData, \"\") */\n      iszero\n        /* \"contracts/TravelRuleProgram.sol\":1417:1514  require(!compareStrings(transactions[transactionId].receiversData, \"\"), \"Only for completed AML\") */\n      tag_93\n      jumpi\n      mload(0x40)\n      0x08c379a000000000000000000000000000000000000000000000000000000000\n      dup2\n      mstore\n      0x04\n      add\n      tag_94\n      swap1\n      tag_83\n      jump\t// in\n    tag_94:\n      mload(0x40)\n      dup1\n      swap2\n      sub\n      swap1\n      revert\n    tag_93:\n        /* \"contracts/TravelRuleProgram.sol\":5765:5819  setAmlStatusForReceiver(transactionId, receiverStatus) */\n      tag_96\n        /* \"contracts/TravelRuleProgram.sol\":5789:5802  transactionId */\n      dup5\n        /* \"contracts/TravelRuleProgram.sol\":5804:5818  receiverStatus */\n      dup4\n        /* \"contracts/TravelRuleProgram.sol\":5765:5788  setAmlStatusForReceiver */\n      tag_55\n        /* \"contracts/TravelRuleProgram.sol\":5765:5819  setAmlStatusForReceiver(transactionId, receiverStatus) */\n      jump\t// in\n    tag_96:\n        /* \"contracts/TravelRuleProgram.sol\":5829:5879  setAmlStatusForSender(transactionId, senderStatus) */\n      tag_97\n        /* \"contracts/TravelRuleProgram.sol\":5851:5864  transactionId */\n      dup5\n        /* \"contracts/TravelRuleProgram.sol\":5866:5878  senderStatus */\n      dup5\n        /* \"contracts/TravelRuleProgram.sol\":5829:5850  setAmlStatusForSender */\n      tag_35\n        /* \"contracts/TravelRuleProgram.sol\":5829:5879  setAmlStatusForSender(transactionId, senderStatus) */\n      jump\t// in\n    tag_97:\n        /* \"contracts/TravelRuleProgram.sol\":5895:6013  TransactionAmlStatusUpdated(... */\n      0x4cea1f87adb8c58c2d35aa0a3723745ff782300a0479866fc1e478a8740df8e5\n        /* \"contracts/TravelRuleProgram.sol\":5936:5949  transactionId */\n      dup5\n        /* \"contracts/TravelRuleProgram.sol\":5963:5975  senderStatus */\n      dup5\n        /* \"contracts/TravelRuleProgram.sol\":5989:6003  receiverStatus */\n      dup5\n        /* \"contracts/TravelRuleProgram.sol\":5895:6013  TransactionAmlStatusUpdated(... */\n      mload(0x40)\n      tag_98\n      swap4\n      swap3\n      swap2\n      swap1\n      tag_99\n      jump\t// in\n    tag_98:\n      mload(0x40)\n      dup1\n      swap2\n      sub\n      swap1\n      log1\n        /* \"@openzeppelin/contracts/access/Ownable.sol\":1117:1118  _ */\n      pop\n        /* \"contracts/TravelRuleProgram.sol\":5576:6020  function setTransactionAmlStatus(... */\n      pop\n      pop\n      pop\n      jump\t// out\n        /* \"contracts/TravelRuleProgram.sol\":2414:3016  function getTransactions(uint256 count) public view returns(Transaction[] memory) {... */\n    tag_23:\n        /* \"contracts/TravelRuleProgram.sol\":2474:2494  Transaction[] memory */\n      0x60\n        /* \"contracts/TravelRuleProgram.sol\":2522:2525  100 */\n      0x64\n        /* \"contracts/TravelRuleProgram.sol\":2514:2519  count */\n      dup3\n        /* \"contracts/TravelRuleProgram.sol\":2514:2525  count < 100 */\n      lt\n        /* \"contracts/TravelRuleProgram.sol\":2506:2598  require(count < 100, \"Can not get transactions list. The maximum transactions count is 100\") */\n      tag_101\n      jumpi\n      mload(0x40)\n      0x08c379a000000000000000000000000000000000000000000000000000000000\n      dup2\n      mstore\n      0x04\n      add\n      tag_102\n      swap1\n      tag_103\n      jump\t// in\n    tag_102:\n      mload(0x40)\n      dup1\n      swap2\n      sub\n      swap1\n      revert\n    tag_101:\n        /* \"contracts/TravelRuleProgram.sol\":2609:2623  uint256 length */\n      0x00\n        /* \"contracts/TravelRuleProgram.sol\":2626:2638  transactions */\n      0x02\n        /* \"contracts/TravelRuleProgram.sol\":2626:2645  transactions.length */\n      dup1\n      sload\n      swap1\n      pop\n        /* \"contracts/TravelRuleProgram.sol\":2609:2645  uint256 length = transactions.length */\n      swap1\n      pop\n        /* \"contracts/TravelRuleProgram.sol\":2655:2670  uint256 _length */\n      0x00\n        /* \"contracts/TravelRuleProgram.sol\":2682:2687  count */\n      dup4\n        /* \"contracts/TravelRuleProgram.sol\":2673:2679  length */\n      dup3\n        /* \"contracts/TravelRuleProgram.sol\":2673:2687  length < count */\n      lt\n        /* \"contracts/TravelRuleProgram.sol\":2673:2704  length < count ? length : count */\n      tag_104\n      jumpi\n        /* \"contracts/TravelRuleProgram.sol\":2699:2704  count */\n      dup4\n        /* \"contracts/TravelRuleProgram.sol\":2673:2704  length < count ? length : count */\n      jump(tag_105)\n    tag_104:\n        /* \"contracts/TravelRuleProgram.sol\":2690:2696  length */\n      dup2\n        /* \"contracts/TravelRuleProgram.sol\":2673:2704  length < count ? length : count */\n    tag_105:\n        /* \"contracts/TravelRuleProgram.sol\":2655:2704  uint256 _length = length < count ? length : count */\n      swap1\n      pop\n        /* \"contracts/TravelRuleProgram.sol\":2714:2731  uint256 stopIndex */\n      0x00\n        /* \"contracts/TravelRuleProgram.sol\":2753:2754  1 */\n      0x01\n        /* \"contracts/TravelRuleProgram.sol\":2743:2750  _length */\n      dup3\n        /* \"contracts/TravelRuleProgram.sol\":2734:2740  length */\n      dup5\n        /* \"contracts/TravelRuleProgram.sol\":2734:2750  length - _length */\n      tag_106\n      swap2\n      swap1\n      tag_107\n      jump\t// in\n    tag_106:\n        /* \"contracts/TravelRuleProgram.sol\":2734:2754  length - _length + 1 */\n      tag_108\n      swap2\n      swap1\n      tag_109\n      jump\t// in\n    tag_108:\n        /* \"contracts/TravelRuleProgram.sol\":2714:2754  uint256 stopIndex = length - _length + 1 */\n      swap1\n      pop\n        /* \"contracts/TravelRuleProgram.sol\":2765:2799  Transaction[] memory reversedArray */\n      0x00\n        /* \"contracts/TravelRuleProgram.sol\":2820:2827  _length */\n      dup3\n        /* \"contracts/TravelRuleProgram.sol\":2802:2828  new Transaction[](_length) */\n      0xffffffffffffffff\n      dup2\n      gt\n      iszero\n      tag_110\n      jumpi\n      tag_111\n      tag_112\n      jump\t// in\n    tag_111:\n    tag_110:\n      mload(0x40)\n      swap1\n      dup1\n      dup3\n      mstore\n      dup1\n      0x20\n      mul\n      0x20\n      add\n      dup3\n      add\n      0x40\n      mstore\n      dup1\n      iszero\n      tag_113\n      jumpi\n      dup2\n      0x20\n      add\n    tag_114:\n      tag_115\n      tag_116\n      jump\t// in\n    tag_115:\n      dup2\n      mstore\n      0x20\n      add\n      swap1\n      0x01\n      swap1\n      sub\n      swap1\n      dup2\n      tag_114\n      jumpi\n      swap1\n      pop\n    tag_113:\n      pop\n        /* \"contracts/TravelRuleProgram.sol\":2765:2828  Transaction[] memory reversedArray = new Transaction[](_length) */\n      swap1\n      pop\n        /* \"contracts/TravelRuleProgram.sol\":2838:2844  uint j */\n      0x00\n        /* \"contracts/TravelRuleProgram.sol\":2863:2869  uint i */\n      dup1\n        /* \"contracts/TravelRuleProgram.sol\":2872:2878  length */\n      dup6\n        /* \"contracts/TravelRuleProgram.sol\":2863:2878  uint i = length */\n      swap1\n      pop\n        /* \"contracts/TravelRuleProgram.sol\":2859:2979  for(uint i = length; i >= stopIndex; i--) {... */\n    tag_117:\n        /* \"contracts/TravelRuleProgram.sol\":2885:2894  stopIndex */\n      dup4\n        /* \"contracts/TravelRuleProgram.sol\":2880:2881  i */\n      dup2\n        /* \"contracts/TravelRuleProgram.sol\":2880:2894  i >= stopIndex */\n      lt\n        /* \"contracts/TravelRuleProgram.sol\":2859:2979  for(uint i = length; i >= stopIndex; i--) {... */\n      tag_118\n      jumpi\n        /* \"contracts/TravelRuleProgram.sol\":2934:2946  transactions */\n      0x02\n        /* \"contracts/TravelRuleProgram.sol\":2949:2950  1 */\n      0x01\n        /* \"contracts/TravelRuleProgram.sol\":2947:2948  i */\n      dup3\n        /* \"contracts/TravelRuleProgram.sol\":2947:2950  i-1 */\n      tag_120\n      swap2\n      swap1\n      tag_107\n      jump\t// in\n    tag_120:\n        /* \"contracts/TravelRuleProgram.sol\":2934:2951  transactions[i-1] */\n      dup2\n      sload\n      dup2\n      lt\n      tag_121\n      jumpi\n      tag_122\n      tag_72\n      jump\t// in\n    tag_122:\n    tag_121:\n      swap1\n      0x00\n      mstore\n      keccak256(0x00, 0x20)\n      swap1\n      0x06\n      mul\n      add\n        /* \"contracts/TravelRuleProgram.sol\":2915:2951  reversedArray[j] = transactions[i-1] */\n      mload(0x40)\n      dup1\n      0xe0\n      add\n      0x40\n      mstore\n      swap1\n      dup2\n      0x00\n      dup3\n      add\n      sload\n      dup2\n      mstore\n      0x20\n      add\n      0x01\n      dup3\n      add\n      0x00\n      swap1\n      sload\n      swap1\n      0x0100\n      exp\n      swap1\n      div\n      0xffffffffffffffffffffffffffffffffffffffff\n      and\n      0xffffffffffffffffffffffffffffffffffffffff\n      and\n      0xffffffffffffffffffffffffffffffffffffffff\n      and\n      dup2\n      mstore\n      0x20\n      add\n      0x02\n      dup3\n      add\n      0x00\n      swap1\n      sload\n      swap1\n      0x0100\n      exp\n      swap1\n      div\n      0xffffffffffffffffffffffffffffffffffffffff\n      and\n      0xffffffffffffffffffffffffffffffffffffffff\n      and\n      0xffffffffffffffffffffffffffffffffffffffff\n      and\n      dup2\n      mstore\n      0x20\n      add\n      0x03\n      dup3\n      add\n      dup1\n      sload\n      tag_124\n      swap1\n      tag_75\n      jump\t// in\n    tag_124:\n      dup1\n      0x1f\n      add\n      0x20\n      dup1\n      swap2\n      div\n      mul\n      0x20\n      add\n      mload(0x40)\n      swap1\n      dup2\n      add\n      0x40\n      mstore\n      dup1\n      swap3\n      swap2\n      swap1\n      dup2\n      dup2\n      mstore\n      0x20\n      add\n      dup3\n      dup1\n      sload\n      tag_125\n      swap1\n      tag_75\n      jump\t// in\n    tag_125:\n      dup1\n      iszero\n      tag_126\n      jumpi\n      dup1\n      0x1f\n      lt\n      tag_127\n      jumpi\n      0x0100\n      dup1\n      dup4\n      sload\n      div\n      mul\n      dup4\n      mstore\n      swap2\n      0x20\n      add\n      swap2\n      jump(tag_126)\n    tag_127:\n      dup3\n      add\n      swap2\n      swap1\n      0x00\n      mstore\n      keccak256(0x00, 0x20)\n      swap1\n    tag_128:\n      dup2\n      sload\n      dup2\n      mstore\n      swap1\n      0x01\n      add\n      swap1\n      0x20\n      add\n      dup1\n      dup4\n      gt\n      tag_128\n      jumpi\n      dup3\n      swap1\n      sub\n      0x1f\n      and\n      dup3\n      add\n      swap2\n    tag_126:\n      pop\n      pop\n      pop\n      pop\n      pop\n      dup2\n      mstore\n      0x20\n      add\n      0x04\n      dup3\n      add\n      dup1\n      sload\n      tag_129\n      swap1\n      tag_75\n      jump\t// in\n    tag_129:\n      dup1\n      0x1f\n      add\n      0x20\n      dup1\n      swap2\n      div\n      mul\n      0x20\n      add\n      mload(0x40)\n      swap1\n      dup2\n      add\n      0x40\n      mstore\n      dup1\n      swap3\n      swap2\n      swap1\n      dup2\n      dup2\n      mstore\n      0x20\n      add\n      dup3\n      dup1\n      sload\n      tag_130\n      swap1\n      tag_75\n      jump\t// in\n    tag_130:\n      dup1\n      iszero\n      tag_131\n      jumpi\n      dup1\n      0x1f\n      lt\n      tag_132\n      jumpi\n      0x0100\n      dup1\n      dup4\n      sload\n      div\n      mul\n      dup4\n      mstore\n      swap2\n      0x20\n      add\n      swap2\n      jump(tag_131)\n    tag_132:\n      dup3\n      add\n      swap2\n      swap1\n      0x00\n      mstore\n      keccak256(0x00, 0x20)\n      swap1\n    tag_133:\n      dup2\n      sload\n      dup2\n      mstore\n      swap1\n      0x01\n      add\n      swap1\n      0x20\n      add\n      dup1\n      dup4\n      gt\n      tag_133\n      jumpi\n      dup3\n      swap1\n      sub\n      0x1f\n      and\n      dup3\n      add\n      swap2\n    tag_131:\n      pop\n      pop\n      pop\n      pop\n      pop\n      dup2\n      mstore\n      0x20\n      add\n      0x05\n      dup3\n      add\n      0x00\n      swap1\n      sload\n      swap1\n      0x0100\n      exp\n      swap1\n      div\n      0xff\n      and\n      0xff\n      and\n      0xff\n      and\n      dup2\n      mstore\n      0x20\n      add\n      0x05\n      dup3\n      add\n      0x01\n      swap1\n      sload\n      swap1\n      0x0100\n      exp\n      swap1\n      div\n      0xff\n      and\n      0xff\n      and\n      0xff\n      and\n      dup2\n      mstore\n      pop\n      pop\n        /* \"contracts/TravelRuleProgram.sol\":2915:2928  reversedArray */\n      dup4\n        /* \"contracts/TravelRuleProgram.sol\":2929:2930  j */\n      dup4\n        /* \"contracts/TravelRuleProgram.sol\":2915:2931  reversedArray[j] */\n      dup2\n      mload\n      dup2\n      lt\n      tag_134\n      jumpi\n      tag_135\n      tag_72\n      jump\t// in\n    tag_135:\n    tag_134:\n      0x20\n      mul\n      0x20\n      add\n      add\n        /* \"contracts/TravelRuleProgram.sol\":2915:2951  reversedArray[j] = transactions[i-1] */\n      dup2\n      swap1\n      mstore\n      pop\n        /* \"contracts/TravelRuleProgram.sol\":2965:2968  j++ */\n      dup2\n      dup1\n      tag_136\n      swap1\n      tag_137\n      jump\t// in\n    tag_136:\n      swap3\n      pop\n      pop\n        /* \"contracts/TravelRuleProgram.sol\":2896:2899  i-- */\n      dup1\n      dup1\n      tag_138\n      swap1\n      tag_139\n      jump\t// in\n    tag_138:\n      swap2\n      pop\n      pop\n        /* \"contracts/TravelRuleProgram.sol\":2859:2979  for(uint i = length; i >= stopIndex; i--) {... */\n      jump(tag_117)\n    tag_118:\n      pop\n        /* \"contracts/TravelRuleProgram.sol\":2996:3009  reversedArray */\n      dup2\n        /* \"contracts/TravelRuleProgram.sol\":2989:3009  return reversedArray */\n      swap6\n      pop\n      pop\n      pop\n      pop\n      pop\n      pop\n        /* \"contracts/TravelRuleProgram.sol\":2414:3016  function getTransactions(uint256 count) public view returns(Transaction[] memory) {... */\n      swap2\n      swap1\n      pop\n      jump\t// out\n        /* \"@openzeppelin/contracts/access/Ownable.sol\":1831:1932  function renounceOwnership() public virtual onlyOwner {... */\n    tag_27:\n        /* \"@openzeppelin/contracts/access/Ownable.sol\":1094:1107  _checkOwner() */\n      tag_141\n        /* \"@openzeppelin/contracts/access/Ownable.sol\":1094:1105  _checkOwner */\n      tag_67\n        /* \"@openzeppelin/contracts/access/Ownable.sol\":1094:1107  _checkOwner() */\n      jump\t// in\n    tag_141:\n        /* \"@openzeppelin/contracts/access/Ownable.sol\":1895:1925  _transferOwnership(address(0)) */\n      tag_143\n        /* \"@openzeppelin/contracts/access/Ownable.sol\":1922:1923  0 */\n      0x00\n        /* \"@openzeppelin/contracts/access/Ownable.sol\":1895:1913  _transferOwnership */\n      tag_144\n        /* \"@openzeppelin/contracts/access/Ownable.sol\":1895:1925  _transferOwnership(address(0)) */\n      jump\t// in\n    tag_143:\n        /* \"@openzeppelin/contracts/access/Ownable.sol\":1831:1932  function renounceOwnership() public virtual onlyOwner {... */\n      jump\t// out\n        /* \"contracts/TravelRuleProgram.sol\":4153:4759  function setAmlStatusForReceiver(... */\n    tag_31:\n        /* \"@openzeppelin/contracts/access/Ownable.sol\":1094:1107  _checkOwner() */\n      tag_146\n        /* \"@openzeppelin/contracts/access/Ownable.sol\":1094:1105  _checkOwner */\n      tag_67\n        /* \"@openzeppelin/contracts/access/Ownable.sol\":1094:1107  _checkOwner() */\n      jump\t// in\n    tag_146:\n        /* \"contracts/TravelRuleProgram.sol\":4303:4316  transactionId */\n      dup3\n        /* \"contracts/TravelRuleProgram.sol\":1321:1380  compareStrings(transactions[transactionId].sendersData, \"\") */\n      tag_148\n        /* \"contracts/TravelRuleProgram.sol\":1336:1348  transactions */\n      0x02\n        /* \"contracts/TravelRuleProgram.sol\":1349:1362  transactionId */\n      dup3\n        /* \"contracts/TravelRuleProgram.sol\":1336:1363  transactions[transactionId] */\n      dup2\n      sload\n      dup2\n      lt\n      tag_149\n      jumpi\n      tag_150\n      tag_72\n      jump\t// in\n    tag_150:\n    tag_149:\n      swap1\n      0x00\n      mstore\n      keccak256(0x00, 0x20)\n      swap1\n      0x06\n      mul\n      add\n        /* \"contracts/TravelRuleProgram.sol\":1336:1375  transactions[transactionId].sendersData */\n      0x03\n      add\n        /* \"contracts/TravelRuleProgram.sol\":1321:1380  compareStrings(transactions[transactionId].sendersData, \"\") */\n      dup1\n      sload\n      tag_152\n      swap1\n      tag_75\n      jump\t// in\n    tag_152:\n      dup1\n      0x1f\n      add\n      0x20\n      dup1\n      swap2\n      div\n      mul\n      0x20\n      add\n      mload(0x40)\n      swap1\n      dup2\n      add\n      0x40\n      mstore\n      dup1\n      swap3\n      swap2\n      swap1\n      dup2\n      dup2\n      mstore\n      0x20\n      add\n      dup3\n      dup1\n      sload\n      tag_153\n      swap1\n      tag_75\n      jump\t// in\n    tag_153:\n      dup1\n      iszero\n      tag_154\n      jumpi\n      dup1\n      0x1f\n      lt\n      tag_155\n      jumpi\n      0x0100\n      dup1\n      dup4\n      sload\n      div\n      mul\n      dup4\n      mstore\n      swap2\n      0x20\n      add\n      swap2\n      jump(tag_154)\n    tag_155:\n      dup3\n      add\n      swap2\n      swap1\n      0x00\n      mstore\n      keccak256(0x00, 0x20)\n      swap1\n    tag_156:\n      dup2\n      sload\n      dup2\n      mstore\n      swap1\n      0x01\n      add\n      swap1\n      0x20\n      add\n      dup1\n      dup4\n      gt\n      tag_156\n      jumpi\n      dup3\n      swap1\n      sub\n      0x1f\n      and\n      dup3\n      add\n      swap2\n    tag_154:\n      pop\n      pop\n      pop\n      pop\n      pop\n      mload(0x40)\n      dup1\n      0x20\n      add\n      0x40\n      mstore\n      dup1\n      0x00\n      dup2\n      mstore\n      pop\n        /* \"contracts/TravelRuleProgram.sol\":1321:1335  compareStrings */\n      tag_80\n        /* \"contracts/TravelRuleProgram.sol\":1321:1380  compareStrings(transactions[transactionId].sendersData, \"\") */\n      jump\t// in\n    tag_148:\n        /* \"contracts/TravelRuleProgram.sol\":1320:1380  !compareStrings(transactions[transactionId].sendersData, \"\") */\n      iszero\n        /* \"contracts/TravelRuleProgram.sol\":1312:1407  require(!compareStrings(transactions[transactionId].sendersData, \"\"), \"Only for completed AML\") */\n      tag_157\n      jumpi\n      mload(0x40)\n      0x08c379a000000000000000000000000000000000000000000000000000000000\n      dup2\n      mstore\n      0x04\n      add\n      tag_158\n      swap1\n      tag_83\n      jump\t// in\n    tag_158:\n      mload(0x40)\n      dup1\n      swap2\n      sub\n      swap1\n      revert\n    tag_157:\n        /* \"contracts/TravelRuleProgram.sol\":1426:1487  compareStrings(transactions[transactionId].receiversData, \"\") */\n      tag_159\n        /* \"contracts/TravelRuleProgram.sol\":1441:1453  transactions */\n      0x02\n        /* \"contracts/TravelRuleProgram.sol\":1454:1467  transactionId */\n      dup3\n        /* \"contracts/TravelRuleProgram.sol\":1441:1468  transactions[transactionId] */\n      dup2\n      sload\n      dup2\n      lt\n      tag_160\n      jumpi\n      tag_161\n      tag_72\n      jump\t// in\n    tag_161:\n    tag_160:\n      swap1\n      0x00\n      mstore\n      keccak256(0x00, 0x20)\n      swap1\n      0x06\n      mul\n      add\n        /* \"contracts/TravelRuleProgram.sol\":1441:1482  transactions[transactionId].receiversData */\n      0x04\n      add\n        /* \"contracts/TravelRuleProgram.sol\":1426:1487  compareStrings(transactions[transactionId].receiversData, \"\") */\n      dup1\n      sload\n      tag_163\n      swap1\n      tag_75\n      jump\t// in\n    tag_163:\n      dup1\n      0x1f\n      add\n      0x20\n      dup1\n      swap2\n      div\n      mul\n      0x20\n      add\n      mload(0x40)\n      swap1\n      dup2\n      add\n      0x40\n      mstore\n      dup1\n      swap3\n      swap2\n      swap1\n      dup2\n      dup2\n      mstore\n      0x20\n      add\n      dup3\n      dup1\n      sload\n      tag_164\n      swap1\n      tag_75\n      jump\t// in\n    tag_164:\n      dup1\n      iszero\n      tag_165\n      jumpi\n      dup1\n      0x1f\n      lt\n      tag_166\n      jumpi\n      0x0100\n      dup1\n      dup4\n      sload\n      div\n      mul\n      dup4\n      mstore\n      swap2\n      0x20\n      add\n      swap2\n      jump(tag_165)\n    tag_166:\n      dup3\n      add\n      swap2\n      swap1\n      0x00\n      mstore\n      keccak256(0x00, 0x20)\n      swap1\n    tag_167:\n      dup2\n      sload\n      dup2\n      mstore\n      swap1\n      0x01\n      add\n      swap1\n      0x20\n      add\n      dup1\n      dup4\n      gt\n      tag_167\n      jumpi\n      dup3\n      swap1\n      sub\n      0x1f\n      and\n      dup3\n      add\n      swap2\n    tag_165:\n      pop\n      pop\n      pop\n      pop\n      pop\n      mload(0x40)\n      dup1\n      0x20\n      add\n      0x40\n      mstore\n      dup1\n      0x00\n      dup2\n      mstore\n      pop\n        /* \"contracts/TravelRuleProgram.sol\":1426:1440  compareStrings */\n      tag_80\n        /* \"contracts/TravelRuleProgram.sol\":1426:1487  compareStrings(transactions[transactionId].receiversData, \"\") */\n      jump\t// in\n    tag_159:\n        /* \"contracts/TravelRuleProgram.sol\":1425:1487  !compareStrings(transactions[transactionId].receiversData, \"\") */\n      iszero\n        /* \"contracts/TravelRuleProgram.sol\":1417:1514  require(!compareStrings(transactions[transactionId].receiversData, \"\"), \"Only for completed AML\") */\n      tag_168\n      jumpi\n      mload(0x40)\n      0x08c379a000000000000000000000000000000000000000000000000000000000\n      dup2\n      mstore\n      0x04\n      add\n      tag_169\n      swap1\n      tag_83\n      jump\t// in\n    tag_169:\n      mload(0x40)\n      dup1\n      swap2\n      sub\n      swap1\n      revert\n    tag_168:\n        /* \"contracts/TravelRuleProgram.sol\":4382:4383  0 */\n      0x00\n        /* \"contracts/TravelRuleProgram.sol\":4336:4348  transactions */\n      0x02\n        /* \"contracts/TravelRuleProgram.sol\":4349:4362  transactionId */\n      dup6\n        /* \"contracts/TravelRuleProgram.sol\":4336:4363  transactions[transactionId] */\n      dup2\n      sload\n      dup2\n      lt\n      tag_171\n      jumpi\n      tag_172\n      tag_72\n      jump\t// in\n    tag_172:\n    tag_171:\n      swap1\n      0x00\n      mstore\n      keccak256(0x00, 0x20)\n      swap1\n      0x06\n      mul\n      add\n        /* \"contracts/TravelRuleProgram.sol\":4336:4378  transactions[transactionId].amlForReceiver */\n      0x05\n      add\n      0x01\n      swap1\n      sload\n      swap1\n      0x0100\n      exp\n      swap1\n      div\n      0xff\n      and\n        /* \"contracts/TravelRuleProgram.sol\":4336:4383  transactions[transactionId].amlForReceiver == 0 */\n      0xff\n      and\n      eq\n        /* \"contracts/TravelRuleProgram.sol\":4328:4438  require(transactions[transactionId].amlForReceiver == 0, \"Can not update transaction AML status: already set\") */\n      tag_174\n      jumpi\n      mload(0x40)\n      0x08c379a000000000000000000000000000000000000000000000000000000000\n      dup2\n      mstore\n      0x04\n      add\n      tag_175\n      swap1\n      tag_176\n      jump\t// in\n    tag_175:\n      mload(0x40)\n      dup1\n      swap2\n      sub\n      swap1\n      revert\n    tag_174:\n        /* \"contracts/TravelRuleProgram.sol\":4493:4499  status */\n      dup3\n        /* \"contracts/TravelRuleProgram.sol\":4448:4460  transactions */\n      0x02\n        /* \"contracts/TravelRuleProgram.sol\":4461:4474  transactionId */\n      dup6\n        /* \"contracts/TravelRuleProgram.sol\":4448:4475  transactions[transactionId] */\n      dup2\n      sload\n      dup2\n      lt\n      tag_177\n      jumpi\n      tag_178\n      tag_72\n      jump\t// in\n    tag_178:\n    tag_177:\n      swap1\n      0x00\n      mstore\n      keccak256(0x00, 0x20)\n      swap1\n      0x06\n      mul\n      add\n        /* \"contracts/TravelRuleProgram.sol\":4448:4490  transactions[transactionId].amlForReceiver */\n      0x05\n      add\n      0x01\n        /* \"contracts/TravelRuleProgram.sol\":4448:4499  transactions[transactionId].amlForReceiver = status */\n      0x0100\n      exp\n      dup2\n      sload\n      dup2\n      0xff\n      mul\n      not\n      and\n      swap1\n      dup4\n      0xff\n      and\n      mul\n      or\n      swap1\n      sstore\n      pop\n        /* \"contracts/TravelRuleProgram.sol\":4522:4531  emitEvent */\n      dup2\n        /* \"contracts/TravelRuleProgram.sol\":4518:4753  if (emitEvent) {... */\n      iszero\n      tag_180\n      jumpi\n        /* \"contracts/TravelRuleProgram.sol\":4552:4742  TransactionAmlStatusUpdated(... */\n      0x4cea1f87adb8c58c2d35aa0a3723745ff782300a0479866fc1e478a8740df8e5\n        /* \"contracts/TravelRuleProgram.sol\":4597:4610  transactionId */\n      dup5\n        /* \"contracts/TravelRuleProgram.sol\":4628:4640  transactions */\n      0x02\n        /* \"contracts/TravelRuleProgram.sol\":4641:4654  transactionId */\n      dup7\n        /* \"contracts/TravelRuleProgram.sol\":4628:4655  transactions[transactionId] */\n      dup2\n      sload\n      dup2\n      lt\n      tag_181\n      jumpi\n      tag_182\n      tag_72\n      jump\t// in\n    tag_182:\n    tag_181:\n      swap1\n      0x00\n      mstore\n      keccak256(0x00, 0x20)\n      swap1\n      0x06\n      mul\n      add\n        /* \"contracts/TravelRuleProgram.sol\":4628:4668  transactions[transactionId].amlForSender */\n      0x05\n      add\n      0x00\n      swap1\n      sload\n      swap1\n      0x0100\n      exp\n      swap1\n      div\n      0xff\n      and\n        /* \"contracts/TravelRuleProgram.sol\":4686:4698  transactions */\n      0x02\n        /* \"contracts/TravelRuleProgram.sol\":4699:4712  transactionId */\n      dup8\n        /* \"contracts/TravelRuleProgram.sol\":4686:4713  transactions[transactionId] */\n      dup2\n      sload\n      dup2\n      lt\n      tag_184\n      jumpi\n      tag_185\n      tag_72\n      jump\t// in\n    tag_185:\n    tag_184:\n      swap1\n      0x00\n      mstore\n      keccak256(0x00, 0x20)\n      swap1\n      0x06\n      mul\n      add\n        /* \"contracts/TravelRuleProgram.sol\":4686:4728  transactions[transactionId].amlForReceiver */\n      0x05\n      add\n      0x01\n      swap1\n      sload\n      swap1\n      0x0100\n      exp\n      swap1\n      div\n      0xff\n      and\n        /* \"contracts/TravelRuleProgram.sol\":4552:4742  TransactionAmlStatusUpdated(... */\n      mload(0x40)\n      tag_187\n      swap4\n      swap3\n      swap2\n      swap1\n      tag_99\n      jump\t// in\n    tag_187:\n      mload(0x40)\n      dup1\n      swap2\n      sub\n      swap1\n      log1\n        /* \"contracts/TravelRuleProgram.sol\":4518:4753  if (emitEvent) {... */\n    tag_180:\n        /* \"@openzeppelin/contracts/access/Ownable.sol\":1117:1118  _ */\n      pop\n        /* \"contracts/TravelRuleProgram.sol\":4153:4759  function setAmlStatusForReceiver(... */\n      pop\n      pop\n      pop\n      jump\t// out\n        /* \"contracts/TravelRuleProgram.sol\":4765:4972  function setAmlStatusForSender(... */\n    tag_35:\n        /* \"@openzeppelin/contracts/access/Ownable.sol\":1094:1107  _checkOwner() */\n      tag_189\n        /* \"@openzeppelin/contracts/access/Ownable.sol\":1094:1105  _checkOwner */\n      tag_67\n        /* \"@openzeppelin/contracts/access/Ownable.sol\":1094:1107  _checkOwner() */\n      jump\t// in\n    tag_189:\n        /* \"contracts/TravelRuleProgram.sol\":4889:4902  transactionId */\n      dup2\n        /* \"contracts/TravelRuleProgram.sol\":1321:1380  compareStrings(transactions[transactionId].sendersData, \"\") */\n      tag_191\n        /* \"contracts/TravelRuleProgram.sol\":1336:1348  transactions */\n      0x02\n        /* \"contracts/TravelRuleProgram.sol\":1349:1362  transactionId */\n      dup3\n        /* \"contracts/TravelRuleProgram.sol\":1336:1363  transactions[transactionId] */\n      dup2\n      sload\n      dup2\n      lt\n      tag_192\n      jumpi\n      tag_193\n      tag_72\n      jump\t// in\n    tag_193:\n    tag_192:\n      swap1\n      0x00\n      mstore\n      keccak256(0x00, 0x20)\n      swap1\n      0x06\n      mul\n      add\n        /* \"contracts/TravelRuleProgram.sol\":1336:1375  transactions[transactionId].sendersData */\n      0x03\n      add\n        /* \"contracts/TravelRuleProgram.sol\":1321:1380  compareStrings(transactions[transactionId].sendersData, \"\") */\n      dup1\n      sload\n      tag_195\n      swap1\n      tag_75\n      jump\t// in\n    tag_195:\n      dup1\n      0x1f\n      add\n      0x20\n      dup1\n      swap2\n      div\n      mul\n      0x20\n      add\n      mload(0x40)\n      swap1\n      dup2\n      add\n      0x40\n      mstore\n      dup1\n      swap3\n      swap2\n      swap1\n      dup2\n      dup2\n      mstore\n      0x20\n      add\n      dup3\n      dup1\n      sload\n      tag_196\n      swap1\n      tag_75\n      jump\t// in\n    tag_196:\n      dup1\n      iszero\n      tag_197\n      jumpi\n      dup1\n      0x1f\n      lt\n      tag_198\n      jumpi\n      0x0100\n      dup1\n      dup4\n      sload\n      div\n      mul\n      dup4\n      mstore\n      swap2\n      0x20\n      add\n      swap2\n      jump(tag_197)\n    tag_198:\n      dup3\n      add\n      swap2\n      swap1\n      0x00\n      mstore\n      keccak256(0x00, 0x20)\n      swap1\n    tag_199:\n      dup2\n      sload\n      dup2\n      mstore\n      swap1\n      0x01\n      add\n      swap1\n      0x20\n      add\n      dup1\n      dup4\n      gt\n      tag_199\n      jumpi\n      dup3\n      swap1\n      sub\n      0x1f\n      and\n      dup3\n      add\n      swap2\n    tag_197:\n      pop\n      pop\n      pop\n      pop\n      pop\n      mload(0x40)\n      dup1\n      0x20\n      add\n      0x40\n      mstore\n      dup1\n      0x00\n      dup2\n      mstore\n      pop\n        /* \"contracts/TravelRuleProgram.sol\":1321:1335  compareStrings */\n      tag_80\n        /* \"contracts/TravelRuleProgram.sol\":1321:1380  compareStrings(transactions[transactionId].sendersData, \"\") */\n      jump\t// in\n    tag_191:\n        /* \"contracts/TravelRuleProgram.sol\":1320:1380  !compareStrings(transactions[transactionId].sendersData, \"\") */\n      iszero\n        /* \"contracts/TravelRuleProgram.sol\":1312:1407  require(!compareStrings(transactions[transactionId].sendersData, \"\"), \"Only for completed AML\") */\n      tag_200\n      jumpi\n      mload(0x40)\n      0x08c379a000000000000000000000000000000000000000000000000000000000\n      dup2\n      mstore\n      0x04\n      add\n      tag_201\n      swap1\n      tag_83\n      jump\t// in\n    tag_201:\n      mload(0x40)\n      dup1\n      swap2\n      sub\n      swap1\n      revert\n    tag_200:\n        /* \"contracts/TravelRuleProgram.sol\":1426:1487  compareStrings(transactions[transactionId].receiversData, \"\") */\n      tag_202\n        /* \"contracts/TravelRuleProgram.sol\":1441:1453  transactions */\n      0x02\n        /* \"contracts/TravelRuleProgram.sol\":1454:1467  transactionId */\n      dup3\n        /* \"contracts/TravelRuleProgram.sol\":1441:1468  transactions[transactionId] */\n      dup2\n      sload\n      dup2\n      lt\n      tag_203\n      jumpi\n      tag_204\n      tag_72\n      jump\t// in\n    tag_204:\n    tag_203:\n      swap1\n      0x00\n      mstore\n      keccak256(0x00, 0x20)\n      swap1\n      0x06\n      mul\n      add\n        /* \"contracts/TravelRuleProgram.sol\":1441:1482  transactions[transactionId].receiversData */\n      0x04\n      add\n        /* \"contracts/TravelRuleProgram.sol\":1426:1487  compareStrings(transactions[transactionId].receiversData, \"\") */\n      dup1\n      sload\n      tag_206\n      swap1\n      tag_75\n      jump\t// in\n    tag_206:\n      dup1\n      0x1f\n      add\n      0x20\n      dup1\n      swap2\n      div\n      mul\n      0x20\n      add\n      mload(0x40)\n      swap1\n      dup2\n      add\n      0x40\n      mstore\n      dup1\n      swap3\n      swap2\n      swap1\n      dup2\n      dup2\n      mstore\n      0x20\n      add\n      dup3\n      dup1\n      sload\n      tag_207\n      swap1\n      tag_75\n      jump\t// in\n    tag_207:\n      dup1\n      iszero\n      tag_208\n      jumpi\n      dup1\n      0x1f\n      lt\n      tag_209\n      jumpi\n      0x0100\n      dup1\n      dup4\n      sload\n      div\n      mul\n      dup4\n      mstore\n      swap2\n      0x20\n      add\n      swap2\n      jump(tag_208)\n    tag_209:\n      dup3\n      add\n      swap2\n      swap1\n      0x00\n      mstore\n      keccak256(0x00, 0x20)\n      swap1\n    tag_210:\n      dup2\n      sload\n      dup2\n      mstore\n      swap1\n      0x01\n      add\n      swap1\n      0x20\n      add\n      dup1\n      dup4\n      gt\n      tag_210\n      jumpi\n      dup3\n      swap1\n      sub\n      0x1f\n      and\n      dup3\n      add\n      swap2\n    tag_208:\n      pop\n      pop\n      pop\n      pop\n      pop\n      mload(0x40)\n      dup1\n      0x20\n      add\n      0x40\n      mstore\n      dup1\n      0x00\n      dup2\n      mstore\n      pop\n        /* \"contracts/TravelRuleProgram.sol\":1426:1440  compareStrings */\n      tag_80\n        /* \"contracts/TravelRuleProgram.sol\":1426:1487  compareStrings(transactions[transactionId].receiversData, \"\") */\n      jump\t// in\n    tag_202:\n        /* \"contracts/TravelRuleProgram.sol\":1425:1487  !compareStrings(transactions[transactionId].receiversData, \"\") */\n      iszero\n        /* \"contracts/TravelRuleProgram.sol\":1417:1514  require(!compareStrings(transactions[transactionId].receiversData, \"\"), \"Only for completed AML\") */\n      tag_211\n      jumpi\n      mload(0x40)\n      0x08c379a000000000000000000000000000000000000000000000000000000000\n      dup2\n      mstore\n      0x04\n      add\n      tag_212\n      swap1\n      tag_83\n      jump\t// in\n    tag_212:\n      mload(0x40)\n      dup1\n      swap2\n      sub\n      swap1\n      revert\n    tag_211:\n        /* \"contracts/TravelRuleProgram.sol\":4914:4965  setAmlStatusForSender(transactionId, status, false) */\n      tag_214\n        /* \"contracts/TravelRuleProgram.sol\":4936:4949  transactionId */\n      dup4\n        /* \"contracts/TravelRuleProgram.sol\":4951:4957  status */\n      dup4\n        /* \"contracts/TravelRuleProgram.sol\":4959:4964  false */\n      0x00\n        /* \"contracts/TravelRuleProgram.sol\":4914:4935  setAmlStatusForSender */\n      tag_42\n        /* \"contracts/TravelRuleProgram.sol\":4914:4965  setAmlStatusForSender(transactionId, status, false) */\n      jump\t// in\n    tag_214:\n        /* \"@openzeppelin/contracts/access/Ownable.sol\":1117:1118  _ */\n      pop\n        /* \"contracts/TravelRuleProgram.sol\":4765:4972  function setAmlStatusForSender(... */\n      pop\n      pop\n      jump\t// out\n        /* \"@openzeppelin/contracts/access/Ownable.sol\":1201:1286  function owner() public view virtual returns (address) {... */\n    tag_37:\n        /* \"@openzeppelin/contracts/access/Ownable.sol\":1247:1254  address */\n      0x00\n        /* \"@openzeppelin/contracts/access/Ownable.sol\":1273:1279  _owner */\n      dup1\n      0x00\n      swap1\n      sload\n      swap1\n      0x0100\n      exp\n      swap1\n      div\n      0xffffffffffffffffffffffffffffffffffffffff\n      and\n        /* \"@openzeppelin/contracts/access/Ownable.sol\":1266:1279  return _owner */\n      swap1\n      pop\n        /* \"@openzeppelin/contracts/access/Ownable.sol\":1201:1286  function owner() public view virtual returns (address) {... */\n      swap1\n      jump\t// out\n        /* \"contracts/TravelRuleProgram.sol\":4978:5570  function setAmlStatusForSender(... */\n    tag_42:\n        /* \"@openzeppelin/contracts/access/Ownable.sol\":1094:1107  _checkOwner() */\n      tag_217\n        /* \"@openzeppelin/contracts/access/Ownable.sol\":1094:1105  _checkOwner */\n      tag_67\n        /* \"@openzeppelin/contracts/access/Ownable.sol\":1094:1107  _checkOwner() */\n      jump\t// in\n    tag_217:\n        /* \"contracts/TravelRuleProgram.sol\":5126:5139  transactionId */\n      dup3\n        /* \"contracts/TravelRuleProgram.sol\":1321:1380  compareStrings(transactions[transactionId].sendersData, \"\") */\n      tag_219\n        /* \"contracts/TravelRuleProgram.sol\":1336:1348  transactions */\n      0x02\n        /* \"contracts/TravelRuleProgram.sol\":1349:1362  transactionId */\n      dup3\n        /* \"contracts/TravelRuleProgram.sol\":1336:1363  transactions[transactionId] */\n      dup2\n      sload\n      dup2\n      lt\n      tag_220\n      jumpi\n      tag_221\n      tag_72\n      jump\t// in\n    tag_221:\n    tag_220:\n      swap1\n      0x00\n      mstore\n      keccak256(0x00, 0x20)\n      swap1\n      0x06\n      mul\n      add\n        /* \"contracts/TravelRuleProgram.sol\":1336:1375  transactions[transactionId].sendersData */\n      0x03\n      add\n        /* \"contracts/TravelRuleProgram.sol\":1321:1380  compareStrings(transactions[transactionId].sendersData, \"\") */\n      dup1\n      sload\n      tag_223\n      swap1\n      tag_75\n      jump\t// in\n    tag_223:\n      dup1\n      0x1f\n      add\n      0x20\n      dup1\n      swap2\n      div\n      mul\n      0x20\n      add\n      mload(0x40)\n      swap1\n      dup2\n      add\n      0x40\n      mstore\n      dup1\n      swap3\n      swap2\n      swap1\n      dup2\n      dup2\n      mstore\n      0x20\n      add\n      dup3\n      dup1\n      sload\n      tag_224\n      swap1\n      tag_75\n      jump\t// in\n    tag_224:\n      dup1\n      iszero\n      tag_225\n      jumpi\n      dup1\n      0x1f\n      lt\n      tag_226\n      jumpi\n      0x0100\n      dup1\n      dup4\n      sload\n      div\n      mul\n      dup4\n      mstore\n      swap2\n      0x20\n      add\n      swap2\n      jump(tag_225)\n    tag_226:\n      dup3\n      add\n      swap2\n      swap1\n      0x00\n      mstore\n      keccak256(0x00, 0x20)\n      swap1\n    tag_227:\n      dup2\n      sload\n      dup2\n      mstore\n      swap1\n      0x01\n      add\n      swap1\n      0x20\n      add\n      dup1\n      dup4\n      gt\n      tag_227\n      jumpi\n      dup3\n      swap1\n      sub\n      0x1f\n      and\n      dup3\n      add\n      swap2\n    tag_225:\n      pop\n      pop\n      pop\n      pop\n      pop\n      mload(0x40)\n      dup1\n      0x20\n      add\n      0x40\n      mstore\n      dup1\n      0x00\n      dup2\n      mstore\n      pop\n        /* \"contracts/TravelRuleProgram.sol\":1321:1335  compareStrings */\n      tag_80\n        /* \"contracts/TravelRuleProgram.sol\":1321:1380  compareStrings(transactions[transactionId].sendersData, \"\") */\n      jump\t// in\n    tag_219:\n        /* \"contracts/TravelRuleProgram.sol\":1320:1380  !compareStrings(transactions[transactionId].sendersData, \"\") */\n      iszero\n        /* \"contracts/TravelRuleProgram.sol\":1312:1407  require(!compareStrings(transactions[transactionId].sendersData, \"\"), \"Only for completed AML\") */\n      tag_228\n      jumpi\n      mload(0x40)\n      0x08c379a000000000000000000000000000000000000000000000000000000000\n      dup2\n      mstore\n      0x04\n      add\n      tag_229\n      swap1\n      tag_83\n      jump\t// in\n    tag_229:\n      mload(0x40)\n      dup1\n      swap2\n      sub\n      swap1\n      revert\n    tag_228:\n        /* \"contracts/TravelRuleProgram.sol\":1426:1487  compareStrings(transactions[transactionId].receiversData, \"\") */\n      tag_230\n        /* \"contracts/TravelRuleProgram.sol\":1441:1453  transactions */\n      0x02\n        /* \"contracts/TravelRuleProgram.sol\":1454:1467  transactionId */\n      dup3\n        /* \"contracts/TravelRuleProgram.sol\":1441:1468  transactions[transactionId] */\n      dup2\n      sload\n      dup2\n      lt\n      tag_231\n      jumpi\n      tag_232\n      tag_72\n      jump\t// in\n    tag_232:\n    tag_231:\n      swap1\n      0x00\n      mstore\n      keccak256(0x00, 0x20)\n      swap1\n      0x06\n      mul\n      add\n        /* \"contracts/TravelRuleProgram.sol\":1441:1482  transactions[transactionId].receiversData */\n      0x04\n      add\n        /* \"contracts/TravelRuleProgram.sol\":1426:1487  compareStrings(transactions[transactionId].receiversData, \"\") */\n      dup1\n      sload\n      tag_234\n      swap1\n      tag_75\n      jump\t// in\n    tag_234:\n      dup1\n      0x1f\n      add\n      0x20\n      dup1\n      swap2\n      div\n      mul\n      0x20\n      add\n      mload(0x40)\n      swap1\n      dup2\n      add\n      0x40\n      mstore\n      dup1\n      swap3\n      swap2\n      swap1\n      dup2\n      dup2\n      mstore\n      0x20\n      add\n      dup3\n      dup1\n      sload\n      tag_235\n      swap1\n      tag_75\n      jump\t// in\n    tag_235:\n      dup1\n      iszero\n      tag_236\n      jumpi\n      dup1\n      0x1f\n      lt\n      tag_237\n      jumpi\n      0x0100\n      dup1\n      dup4\n      sload\n      div\n      mul\n      dup4\n      mstore\n      swap2\n      0x20\n      add\n      swap2\n      jump(tag_236)\n    tag_237:\n      dup3\n      add\n      swap2\n      swap1\n      0x00\n      mstore\n      keccak256(0x00, 0x20)\n      swap1\n    tag_238:\n      dup2\n      sload\n      dup2\n      mstore\n      swap1\n      0x01\n      add\n      swap1\n      0x20\n      add\n      dup1\n      dup4\n      gt\n      tag_238\n      jumpi\n      dup3\n      swap1\n      sub\n      0x1f\n      and\n      dup3\n      add\n      swap2\n    tag_236:\n      pop\n      pop\n      pop\n      pop\n      pop\n      mload(0x40)\n      dup1\n      0x20\n      add\n      0x40\n      mstore\n      dup1\n      0x00\n      dup2\n      mstore\n      pop\n        /* \"contracts/TravelRuleProgram.sol\":1426:1440  compareStrings */\n      tag_80\n        /* \"contracts/TravelRuleProgram.sol\":1426:1487  compareStrings(transactions[transactionId].receiversData, \"\") */\n      jump\t// in\n    tag_230:\n        /* \"contracts/TravelRuleProgram.sol\":1425:1487  !compareStrings(transactions[transactionId].receiversData, \"\") */\n      iszero\n        /* \"contracts/TravelRuleProgram.sol\":1417:1514  require(!compareStrings(transactions[transactionId].receiversData, \"\"), \"Only for completed AML\") */\n      tag_239\n      jumpi\n      mload(0x40)\n      0x08c379a000000000000000000000000000000000000000000000000000000000\n      dup2\n      mstore\n      0x04\n      add\n      tag_240\n      swap1\n      tag_83\n      jump\t// in\n    tag_240:\n      mload(0x40)\n      dup1\n      swap2\n      sub\n      swap1\n      revert\n    tag_239:\n        /* \"contracts/TravelRuleProgram.sol\":5203:5204  0 */\n      0x00\n        /* \"contracts/TravelRuleProgram.sol\":5159:5171  transactions */\n      0x02\n        /* \"contracts/TravelRuleProgram.sol\":5172:5185  transactionId */\n      dup6\n        /* \"contracts/TravelRuleProgram.sol\":5159:5186  transactions[transactionId] */\n      dup2\n      sload\n      dup2\n      lt\n      tag_242\n      jumpi\n      tag_243\n      tag_72\n      jump\t// in\n    tag_243:\n    tag_242:\n      swap1\n      0x00\n      mstore\n      keccak256(0x00, 0x20)\n      swap1\n      0x06\n      mul\n      add\n        /* \"contracts/TravelRuleProgram.sol\":5159:5199  transactions[transactionId].amlForSender */\n      0x05\n      add\n      0x00\n      swap1\n      sload\n      swap1\n      0x0100\n      exp\n      swap1\n      div\n      0xff\n      and\n        /* \"contracts/TravelRuleProgram.sol\":5159:5204  transactions[transactionId].amlForSender == 0 */\n      0xff\n      and\n      eq\n        /* \"contracts/TravelRuleProgram.sol\":5151:5259  require(transactions[transactionId].amlForSender == 0, \"Can not update transaction AML status: already set\") */\n      tag_245\n      jumpi\n      mload(0x40)\n      0x08c379a000000000000000000000000000000000000000000000000000000000\n      dup2\n      mstore\n      0x04\n      add\n      tag_246\n      swap1\n      tag_176\n      jump\t// in\n    tag_246:\n      mload(0x40)\n      dup1\n      swap2\n      sub\n      swap1\n      revert\n    tag_245:\n        /* \"contracts/TravelRuleProgram.sol\":5312:5318  status */\n      dup3\n        /* \"contracts/TravelRuleProgram.sol\":5269:5281  transactions */\n      0x02\n        /* \"contracts/TravelRuleProgram.sol\":5282:5295  transactionId */\n      dup6\n        /* \"contracts/TravelRuleProgram.sol\":5269:5296  transactions[transactionId] */\n      dup2\n      sload\n      dup2\n      lt\n      tag_247\n      jumpi\n      tag_248\n      tag_72\n      jump\t// in\n    tag_248:\n    tag_247:\n      swap1\n      0x00\n      mstore\n      keccak256(0x00, 0x20)\n      swap1\n      0x06\n      mul\n      add\n        /* \"contracts/TravelRuleProgram.sol\":5269:5309  transactions[transactionId].amlForSender */\n      0x05\n      add\n      0x00\n        /* \"contracts/TravelRuleProgram.sol\":5269:5318  transactions[transactionId].amlForSender = status */\n      0x0100\n      exp\n      dup2\n      sload\n      dup2\n      0xff\n      mul\n      not\n      and\n      swap1\n      dup4\n      0xff\n      and\n      mul\n      or\n      swap1\n      sstore\n      pop\n        /* \"contracts/TravelRuleProgram.sol\":5333:5342  emitEvent */\n      dup2\n        /* \"contracts/TravelRuleProgram.sol\":5329:5564  if (emitEvent) {... */\n      iszero\n      tag_250\n      jumpi\n        /* \"contracts/TravelRuleProgram.sol\":5363:5553  TransactionAmlStatusUpdated(... */\n      0x4cea1f87adb8c58c2d35aa0a3723745ff782300a0479866fc1e478a8740df8e5\n        /* \"contracts/TravelRuleProgram.sol\":5408:5421  transactionId */\n      dup5\n        /* \"contracts/TravelRuleProgram.sol\":5439:5451  transactions */\n      0x02\n        /* \"contracts/TravelRuleProgram.sol\":5452:5465  transactionId */\n      dup7\n        /* \"contracts/TravelRuleProgram.sol\":5439:5466  transactions[transactionId] */\n      dup2\n      sload\n      dup2\n      lt\n      tag_251\n      jumpi\n      tag_252\n      tag_72\n      jump\t// in\n    tag_252:\n    tag_251:\n      swap1\n      0x00\n      mstore\n      keccak256(0x00, 0x20)\n      swap1\n      0x06\n      mul\n      add\n        /* \"contracts/TravelRuleProgram.sol\":5439:5479  transactions[transactionId].amlForSender */\n      0x05\n      add\n      0x00\n      swap1\n      sload\n      swap1\n      0x0100\n      exp\n      swap1\n      div\n      0xff\n      and\n        /* \"contracts/TravelRuleProgram.sol\":5497:5509  transactions */\n      0x02\n        /* \"contracts/TravelRuleProgram.sol\":5510:5523  transactionId */\n      dup8\n        /* \"contracts/TravelRuleProgram.sol\":5497:5524  transactions[transactionId] */\n      dup2\n      sload\n      dup2\n      lt\n      tag_254\n      jumpi\n      tag_255\n      tag_72\n      jump\t// in\n    tag_255:\n    tag_254:\n      swap1\n      0x00\n      mstore\n      keccak256(0x00, 0x20)\n      swap1\n      0x06\n      mul\n      add\n        /* \"contracts/TravelRuleProgram.sol\":5497:5539  transactions[transactionId].amlForReceiver */\n      0x05\n      add\n      0x01\n      swap1\n      sload\n      swap1\n      0x0100\n      exp\n      swap1\n      div\n      0xff\n      and\n        /* \"contracts/TravelRuleProgram.sol\":5363:5553  TransactionAmlStatusUpdated(... */\n      mload(0x40)\n      tag_257\n      swap4\n      swap3\n      swap2\n      swap1\n      tag_99\n      jump\t// in\n    tag_257:\n      mload(0x40)\n      dup1\n      swap2\n      sub\n      swap1\n      log1\n        /* \"contracts/TravelRuleProgram.sol\":5329:5564  if (emitEvent) {... */\n    tag_250:\n        /* \"@openzeppelin/contracts/access/Ownable.sol\":1117:1118  _ */\n      pop\n        /* \"contracts/TravelRuleProgram.sol\":4978:5570  function setAmlStatusForSender(... */\n      pop\n      pop\n      pop\n      jump\t// out\n        /* \"contracts/TravelRuleProgram.sol\":1538:1919  function addTransaction(... */\n    tag_46:\n        /* \"contracts/TravelRuleProgram.sol\":1660:1667  uint256 */\n      0x00\n        /* \"contracts/TravelRuleProgram.sol\":1679:1691  transactions */\n      0x02\n        /* \"contracts/TravelRuleProgram.sol\":1697:1850  Transaction(... */\n      mload(0x40)\n      dup1\n      0xe0\n      add\n      0x40\n      mstore\n      dup1\n        /* \"contracts/TravelRuleProgram.sol\":1722:1735  _id.current() */\n      tag_259\n        /* \"contracts/TravelRuleProgram.sol\":1722:1725  _id */\n      0x01\n        /* \"contracts/TravelRuleProgram.sol\":1722:1733  _id.current */\n      tag_260\n        /* \"contracts/TravelRuleProgram.sol\":1722:1735  _id.current() */\n      jump\t// in\n    tag_259:\n        /* \"contracts/TravelRuleProgram.sol\":1697:1850  Transaction(... */\n      dup2\n      mstore\n      0x20\n      add\n        /* \"contracts/TravelRuleProgram.sol\":1749:1753  from */\n      dup7\n        /* \"contracts/TravelRuleProgram.sol\":1697:1850  Transaction(... */\n      0xffffffffffffffffffffffffffffffffffffffff\n      and\n      dup2\n      mstore\n      0x20\n      add\n        /* \"contracts/TravelRuleProgram.sol\":1767:1769  to */\n      dup6\n        /* \"contracts/TravelRuleProgram.sol\":1697:1850  Transaction(... */\n      0xffffffffffffffffffffffffffffffffffffffff\n      and\n      dup2\n      mstore\n      0x20\n      add\n        /* \"contracts/TravelRuleProgram.sol\":1783:1794  sendersData */\n      dup5\n        /* \"contracts/TravelRuleProgram.sol\":1697:1850  Transaction(... */\n      dup2\n      mstore\n      0x20\n      add\n      mload(0x40)\n      dup1\n      0x20\n      add\n      0x40\n      mstore\n      dup1\n      0x00\n      dup2\n      mstore\n      pop\n      dup2\n      mstore\n      0x20\n      add\n        /* \"contracts/TravelRuleProgram.sol\":1824:1825  0 */\n      0x00\n        /* \"contracts/TravelRuleProgram.sol\":1697:1850  Transaction(... */\n      0xff\n      and\n      dup2\n      mstore\n      0x20\n      add\n        /* \"contracts/TravelRuleProgram.sol\":1839:1840  0 */\n      0x00\n        /* \"contracts/TravelRuleProgram.sol\":1697:1850  Transaction(... */\n      0xff\n      and\n      dup2\n      mstore\n      pop\n        /* \"contracts/TravelRuleProgram.sol\":1679:1851  transactions.push(Transaction(... */\n      swap1\n      dup1\n      0x01\n      dup2\n      sload\n      add\n      dup1\n      dup3\n      sstore\n      dup1\n      swap2\n      pop\n      pop\n      0x01\n      swap1\n      sub\n      swap1\n      0x00\n      mstore\n      keccak256(0x00, 0x20)\n      swap1\n      0x06\n      mul\n      add\n      0x00\n      swap1\n      swap2\n      swap1\n      swap2\n      swap1\n      swap2\n      pop\n      0x00\n      dup3\n      add\n      mload\n      dup2\n      0x00\n      add\n      sstore\n      0x20\n      dup3\n      add\n      mload\n      dup2\n      0x01\n      add\n      exp(0x0100, 0x00)\n      dup2\n      sload\n      dup2\n      0xffffffffffffffffffffffffffffffffffffffff\n      mul\n      not\n      and\n      swap1\n      dup4\n      0xffffffffffffffffffffffffffffffffffffffff\n      and\n      mul\n      or\n      swap1\n      sstore\n      pop\n      0x40\n      dup3\n      add\n      mload\n      dup2\n      0x02\n      add\n      exp(0x0100, 0x00)\n      dup2\n      sload\n      dup2\n      0xffffffffffffffffffffffffffffffffffffffff\n      mul\n      not\n      and\n      swap1\n      dup4\n      0xffffffffffffffffffffffffffffffffffffffff\n      and\n      mul\n      or\n      swap1\n      sstore\n      pop\n      0x60\n      dup3\n      add\n      mload\n      dup2\n      0x03\n      add\n      swap1\n      dup1\n      mload\n      swap1\n      0x20\n      add\n      swap1\n      tag_262\n      swap3\n      swap2\n      swap1\n      tag_263\n      jump\t// in\n    tag_262:\n      pop\n      0x80\n      dup3\n      add\n      mload\n      dup2\n      0x04\n      add\n      swap1\n      dup1\n      mload\n      swap1\n      0x20\n      add\n      swap1\n      tag_264\n      swap3\n      swap2\n      swap1\n      tag_263\n      jump\t// in\n    tag_264:\n      pop\n      0xa0\n      dup3\n      add\n      mload\n      dup2\n      0x05\n      add\n      exp(0x0100, 0x00)\n      dup2\n      sload\n      dup2\n      0xff\n      mul\n      not\n      and\n      swap1\n      dup4\n      0xff\n      and\n      mul\n      or\n      swap1\n      sstore\n      pop\n      0xc0\n      dup3\n      add\n      mload\n      dup2\n      0x05\n      add\n      exp(0x0100, 0x01)\n      dup2\n      sload\n      dup2\n      0xff\n      mul\n      not\n      and\n      swap1\n      dup4\n      0xff\n      and\n      mul\n      or\n      swap1\n      sstore\n      pop\n      pop\n      pop\n        /* \"contracts/TravelRuleProgram.sol\":1862:1877  _id.increment() */\n      tag_265\n        /* \"contracts/TravelRuleProgram.sol\":1862:1865  _id */\n      0x01\n        /* \"contracts/TravelRuleProgram.sol\":1862:1875  _id.increment */\n      tag_266\n        /* \"contracts/TravelRuleProgram.sol\":1862:1877  _id.increment() */\n      jump\t// in\n    tag_265:\n        /* \"contracts/TravelRuleProgram.sol\":1911:1912  1 */\n      0x01\n        /* \"contracts/TravelRuleProgram.sol\":1895:1908  _id.current() */\n      tag_267\n        /* \"contracts/TravelRuleProgram.sol\":1895:1898  _id */\n      0x01\n        /* \"contracts/TravelRuleProgram.sol\":1895:1906  _id.current */\n      tag_260\n        /* \"contracts/TravelRuleProgram.sol\":1895:1908  _id.current() */\n      jump\t// in\n    tag_267:\n        /* \"contracts/TravelRuleProgram.sol\":1895:1912  _id.current() - 1 */\n      tag_268\n      swap2\n      swap1\n      tag_107\n      jump\t// in\n    tag_268:\n        /* \"contracts/TravelRuleProgram.sol\":1888:1912  return _id.current() - 1 */\n      swap1\n      pop\n        /* \"contracts/TravelRuleProgram.sol\":1538:1919  function addTransaction(... */\n      swap4\n      swap3\n      pop\n      pop\n      pop\n      jump\t// out\n        /* \"contracts/TravelRuleProgram.sol\":1925:2408  function updateReceiversData(... */\n    tag_52:\n        /* \"contracts/TravelRuleProgram.sol\":2045:2075  Transaction memory transaction */\n      0x00\n        /* \"contracts/TravelRuleProgram.sol\":2078:2090  transactions */\n      0x02\n        /* \"contracts/TravelRuleProgram.sol\":2091:2104  transactionId */\n      dup4\n        /* \"contracts/TravelRuleProgram.sol\":2078:2105  transactions[transactionId] */\n      dup2\n      sload\n      dup2\n      lt\n      tag_270\n      jumpi\n      tag_271\n      tag_72\n      jump\t// in\n    tag_271:\n    tag_270:\n      swap1\n      0x00\n      mstore\n      keccak256(0x00, 0x20)\n      swap1\n      0x06\n      mul\n      add\n        /* \"contracts/TravelRuleProgram.sol\":2045:2105  Transaction memory transaction = transactions[transactionId] */\n      mload(0x40)\n      dup1\n      0xe0\n      add\n      0x40\n      mstore\n      swap1\n      dup2\n      0x00\n      dup3\n      add\n      sload\n      dup2\n      mstore\n      0x20\n      add\n      0x01\n      dup3\n      add\n      0x00\n      swap1\n      sload\n      swap1\n      0x0100\n      exp\n      swap1\n      div\n      0xffffffffffffffffffffffffffffffffffffffff\n      and\n      0xffffffffffffffffffffffffffffffffffffffff\n      and\n      0xffffffffffffffffffffffffffffffffffffffff\n      and\n      dup2\n      mstore\n      0x20\n      add\n      0x02\n      dup3\n      add\n      0x00\n      swap1\n      sload\n      swap1\n      0x0100\n      exp\n      swap1\n      div\n      0xffffffffffffffffffffffffffffffffffffffff\n      and\n      0xffffffffffffffffffffffffffffffffffffffff\n      and\n      0xffffffffffffffffffffffffffffffffffffffff\n      and\n      dup2\n      mstore\n      0x20\n      add\n      0x03\n      dup3\n      add\n      dup1\n      sload\n      tag_273\n      swap1\n      tag_75\n      jump\t// in\n    tag_273:\n      dup1\n      0x1f\n      add\n      0x20\n      dup1\n      swap2\n      div\n      mul\n      0x20\n      add\n      mload(0x40)\n      swap1\n      dup2\n      add\n      0x40\n      mstore\n      dup1\n      swap3\n      swap2\n      swap1\n      dup2\n      dup2\n      mstore\n      0x20\n      add\n      dup3\n      dup1\n      sload\n      tag_274\n      swap1\n      tag_75\n      jump\t// in\n    tag_274:\n      dup1\n      iszero\n      tag_275\n      jumpi\n      dup1\n      0x1f\n      lt\n      tag_276\n      jumpi\n      0x0100\n      dup1\n      dup4\n      sload\n      div\n      mul\n      dup4\n      mstore\n      swap2\n      0x20\n      add\n      swap2\n      jump(tag_275)\n    tag_276:\n      dup3\n      add\n      swap2\n      swap1\n      0x00\n      mstore\n      keccak256(0x00, 0x20)\n      swap1\n    tag_277:\n      dup2\n      sload\n      dup2\n      mstore\n      swap1\n      0x01\n      add\n      swap1\n      0x20\n      add\n      dup1\n      dup4\n      gt\n      tag_277\n      jumpi\n      dup3\n      swap1\n      sub\n      0x1f\n      and\n      dup3\n      add\n      swap2\n    tag_275:\n      pop\n      pop\n      pop\n      pop\n      pop\n      dup2\n      mstore\n      0x20\n      add\n      0x04\n      dup3\n      add\n      dup1\n      sload\n      tag_278\n      swap1\n      tag_75\n      jump\t// in\n    tag_278:\n      dup1\n      0x1f\n      add\n      0x20\n      dup1\n      swap2\n      div\n      mul\n      0x20\n      add\n      mload(0x40)\n      swap1\n      dup2\n      add\n      0x40\n      mstore\n      dup1\n      swap3\n      swap2\n      swap1\n      dup2\n      dup2\n      mstore\n      0x20\n      add\n      dup3\n      dup1\n      sload\n      tag_279\n      swap1\n      tag_75\n      jump\t// in\n    tag_279:\n      dup1\n      iszero\n      tag_280\n      jumpi\n      dup1\n      0x1f\n      lt\n      tag_281\n      jumpi\n      0x0100\n      dup1\n      dup4\n      sload\n      div\n      mul\n      dup4\n      mstore\n      swap2\n      0x20\n      add\n      swap2\n      jump(tag_280)\n    tag_281:\n      dup3\n      add\n      swap2\n      swap1\n      0x00\n      mstore\n      keccak256(0x00, 0x20)\n      swap1\n    tag_282:\n      dup2\n      sload\n      dup2\n      mstore\n      swap1\n      0x01\n      add\n      swap1\n      0x20\n      add\n      dup1\n      dup4\n      gt\n      tag_282\n      jumpi\n      dup3\n      swap1\n      sub\n      0x1f\n      and\n      dup3\n      add\n      swap2\n    tag_280:\n      pop\n      pop\n      pop\n      pop\n      pop\n      dup2\n      mstore\n      0x20\n      add\n      0x05\n      dup3\n      add\n      0x00\n      swap1\n      sload\n      swap1\n      0x0100\n      exp\n      swap1\n      div\n      0xff\n      and\n      0xff\n      and\n      0xff\n      and\n      dup2\n      mstore\n      0x20\n      add\n      0x05\n      dup3\n      add\n      0x01\n      swap1\n      sload\n      swap1\n      0x0100\n      exp\n      swap1\n      div\n      0xff\n      and\n      0xff\n      and\n      0xff\n      and\n      dup2\n      mstore\n      pop\n      pop\n      swap1\n      pop\n        /* \"contracts/TravelRuleProgram.sol\":2132:2177  compareStrings(transaction.receiversData, \"\") */\n      tag_283\n        /* \"contracts/TravelRuleProgram.sol\":2147:2158  transaction */\n      dup2\n        /* \"contracts/TravelRuleProgram.sol\":2147:2172  transaction.receiversData */\n      0x80\n      add\n      mload\n        /* \"contracts/TravelRuleProgram.sol\":2132:2177  compareStrings(transaction.receiversData, \"\") */\n      mload(0x40)\n      dup1\n      0x20\n      add\n      0x40\n      mstore\n      dup1\n      0x00\n      dup2\n      mstore\n      pop\n        /* \"contracts/TravelRuleProgram.sol\":2132:2146  compareStrings */\n      tag_80\n        /* \"contracts/TravelRuleProgram.sol\":2132:2177  compareStrings(transaction.receiversData, \"\") */\n      jump\t// in\n    tag_283:\n        /* \"contracts/TravelRuleProgram.sol\":2124:2243  require(compareStrings(transaction.receiversData, \"\"), \"Can not update receiver. Transaction already has been updated\") */\n      tag_284\n      jumpi\n      mload(0x40)\n      0x08c379a000000000000000000000000000000000000000000000000000000000\n      dup2\n      mstore\n      0x04\n      add\n      tag_285\n      swap1\n      tag_286\n      jump\t// in\n    tag_285:\n      mload(0x40)\n      dup1\n      swap2\n      sub\n      swap1\n      revert\n    tag_284:\n        /* \"contracts/TravelRuleProgram.sol\":2279:2289  msg.sender */\n      caller\n        /* \"contracts/TravelRuleProgram.sol\":2261:2289  transaction.to == msg.sender */\n      0xffffffffffffffffffffffffffffffffffffffff\n      and\n        /* \"contracts/TravelRuleProgram.sol\":2261:2272  transaction */\n      dup2\n        /* \"contracts/TravelRuleProgram.sol\":2261:2275  transaction.to */\n      0x40\n      add\n      mload\n        /* \"contracts/TravelRuleProgram.sol\":2261:2289  transaction.to == msg.sender */\n      0xffffffffffffffffffffffffffffffffffffffff\n      and\n      eq\n        /* \"contracts/TravelRuleProgram.sol\":2253:2333  require(transaction.to == msg.sender, \"Can not update receiver. Invalid sender\") */\n      tag_287\n      jumpi\n      mload(0x40)\n      0x08c379a000000000000000000000000000000000000000000000000000000000\n      dup2\n      mstore\n      0x04\n      add\n      tag_288\n      swap1\n      tag_289\n      jump\t// in\n    tag_288:\n      mload(0x40)\n      dup1\n      swap2\n      sub\n      swap1\n      revert\n    tag_287:\n        /* \"contracts/TravelRuleProgram.sol\":2388:2401  receiversData */\n      dup2\n        /* \"contracts/TravelRuleProgram.sol\":2344:2356  transactions */\n      0x02\n        /* \"contracts/TravelRuleProgram.sol\":2357:2370  transactionId */\n      dup5\n        /* \"contracts/TravelRuleProgram.sol\":2344:2371  transactions[transactionId] */\n      dup2\n      sload\n      dup2\n      lt\n      tag_290\n      jumpi\n      tag_291\n      tag_72\n      jump\t// in\n    tag_291:\n    tag_290:\n      swap1\n      0x00\n      mstore\n      keccak256(0x00, 0x20)\n      swap1\n      0x06\n      mul\n      add\n        /* \"contracts/TravelRuleProgram.sol\":2344:2385  transactions[transactionId].receiversData */\n      0x04\n      add\n        /* \"contracts/TravelRuleProgram.sol\":2344:2401  transactions[transactionId].receiversData = receiversData */\n      swap1\n      dup1\n      mload\n      swap1\n      0x20\n      add\n      swap1\n      tag_293\n      swap3\n      swap2\n      swap1\n      tag_263\n      jump\t// in\n    tag_293:\n      pop\n        /* \"contracts/TravelRuleProgram.sol\":2035:2408  {... */\n      pop\n        /* \"contracts/TravelRuleProgram.sol\":1925:2408  function updateReceiversData(... */\n      pop\n      pop\n      jump\t// out\n        /* \"contracts/TravelRuleProgram.sol\":3936:4147  function setAmlStatusForReceiver(... */\n    tag_55:\n        /* \"@openzeppelin/contracts/access/Ownable.sol\":1094:1107  _checkOwner() */\n      tag_295\n        /* \"@openzeppelin/contracts/access/Ownable.sol\":1094:1105  _checkOwner */\n      tag_67\n        /* \"@openzeppelin/contracts/access/Ownable.sol\":1094:1107  _checkOwner() */\n      jump\t// in\n    tag_295:\n        /* \"contracts/TravelRuleProgram.sol\":4062:4075  transactionId */\n      dup2\n        /* \"contracts/TravelRuleProgram.sol\":1321:1380  compareStrings(transactions[transactionId].sendersData, \"\") */\n      tag_297\n        /* \"contracts/TravelRuleProgram.sol\":1336:1348  transactions */\n      0x02\n        /* \"contracts/TravelRuleProgram.sol\":1349:1362  transactionId */\n      dup3\n        /* \"contracts/TravelRuleProgram.sol\":1336:1363  transactions[transactionId] */\n      dup2\n      sload\n      dup2\n      lt\n      tag_298\n      jumpi\n      tag_299\n      tag_72\n      jump\t// in\n    tag_299:\n    tag_298:\n      swap1\n      0x00\n      mstore\n      keccak256(0x00, 0x20)\n      swap1\n      0x06\n      mul\n      add\n        /* \"contracts/TravelRuleProgram.sol\":1336:1375  transactions[transactionId].sendersData */\n      0x03\n      add\n        /* \"contracts/TravelRuleProgram.sol\":1321:1380  compareStrings(transactions[transactionId].sendersData, \"\") */\n      dup1\n      sload\n      tag_301\n      swap1\n      tag_75\n      jump\t// in\n    tag_301:\n      dup1\n      0x1f\n      add\n      0x20\n      dup1\n      swap2\n      div\n      mul\n      0x20\n      add\n      mload(0x40)\n      swap1\n      dup2\n      add\n      0x40\n      mstore\n      dup1\n      swap3\n      swap2\n      swap1\n      dup2\n      dup2\n      mstore\n      0x20\n      add\n      dup3\n      dup1\n      sload\n      tag_302\n      swap1\n      tag_75\n      jump\t// in\n    tag_302:\n      dup1\n      iszero\n      tag_303\n      jumpi\n      dup1\n      0x1f\n      lt\n      tag_304\n      jumpi\n      0x0100\n      dup1\n      dup4\n      sload\n      div\n      mul\n      dup4\n      mstore\n      swap2\n      0x20\n      add\n      swap2\n      jump(tag_303)\n    tag_304:\n      dup3\n      add\n      swap2\n      swap1\n      0x00\n      mstore\n      keccak256(0x00, 0x20)\n      swap1\n    tag_305:\n      dup2\n      sload\n      dup2\n      mstore\n      swap1\n      0x01\n      add\n      swap1\n      0x20\n      add\n      dup1\n      dup4\n      gt\n      tag_305\n      jumpi\n      dup3\n      swap1\n      sub\n      0x1f\n      and\n      dup3\n      add\n      swap2\n    tag_303:\n      pop\n      pop\n      pop\n      pop\n      pop\n      mload(0x40)\n      dup1\n      0x20\n      add\n      0x40\n      mstore\n      dup1\n      0x00\n      dup2\n      mstore\n      pop\n        /* \"contracts/TravelRuleProgram.sol\":1321:1335  compareStrings */\n      tag_80\n        /* \"contracts/TravelRuleProgram.sol\":1321:1380  compareStrings(transactions[transactionId].sendersData, \"\") */\n      jump\t// in\n    tag_297:\n        /* \"contracts/TravelRuleProgram.sol\":1320:1380  !compareStrings(transactions[transactionId].sendersData, \"\") */\n      iszero\n        /* \"contracts/TravelRuleProgram.sol\":1312:1407  require(!compareStrings(transactions[transactionId].sendersData, \"\"), \"Only for completed AML\") */\n      tag_306\n      jumpi\n      mload(0x40)\n      0x08c379a000000000000000000000000000000000000000000000000000000000\n      dup2\n      mstore\n      0x04\n      add\n      tag_307\n      swap1\n      tag_83\n      jump\t// in\n    tag_307:\n      mload(0x40)\n      dup1\n      swap2\n      sub\n      swap1\n      revert\n    tag_306:\n        /* \"contracts/TravelRuleProgram.sol\":1426:1487  compareStrings(transactions[transactionId].receiversData, \"\") */\n      tag_308\n        /* \"contracts/TravelRuleProgram.sol\":1441:1453  transactions */\n      0x02\n        /* \"contracts/TravelRuleProgram.sol\":1454:1467  transactionId */\n      dup3\n        /* \"contracts/TravelRuleProgram.sol\":1441:1468  transactions[transactionId] */\n      dup2\n      sload\n      dup2\n      lt\n      tag_309\n      jumpi\n      tag_310\n      tag_72\n      jump\t// in\n    tag_310:\n    tag_309:\n      swap1\n      0x00\n      mstore\n      keccak256(0x00, 0x20)\n      swap1\n      0x06\n      mul\n      add\n        /* \"contracts/TravelRuleProgram.sol\":1441:1482  transactions[transactionId].receiversData */\n      0x04\n      add\n        /* \"contracts/TravelRuleProgram.sol\":1426:1487  compareStrings(transactions[transactionId].receiversData, \"\") */\n      dup1\n      sload\n      tag_312\n      swap1\n      tag_75\n      jump\t// in\n    tag_312:\n      dup1\n      0x1f\n      add\n      0x20\n      dup1\n      swap2\n      div\n      mul\n      0x20\n      add\n      mload(0x40)\n      swap1\n      dup2\n      add\n      0x40\n      mstore\n      dup1\n      swap3\n      swap2\n      swap1\n      dup2\n      dup2\n      mstore\n      0x20\n      add\n      dup3\n      dup1\n      sload\n      tag_313\n      swap1\n      tag_75\n      jump\t// in\n    tag_313:\n      dup1\n      iszero\n      tag_314\n      jumpi\n      dup1\n      0x1f\n      lt\n      tag_315\n      jumpi\n      0x0100\n      dup1\n      dup4\n      sload\n      div\n      mul\n      dup4\n      mstore\n      swap2\n      0x20\n      add\n      swap2\n      jump(tag_314)\n    tag_315:\n      dup3\n      add\n      swap2\n      swap1\n      0x00\n      mstore\n      keccak256(0x00, 0x20)\n      swap1\n    tag_316:\n      dup2\n      sload\n      dup2\n      mstore\n      swap1\n      0x01\n      add\n      swap1\n      0x20\n      add\n      dup1\n      dup4\n      gt\n      tag_316\n      jumpi\n      dup3\n      swap1\n      sub\n      0x1f\n      and\n      dup3\n      add\n      swap2\n    tag_314:\n      pop\n      pop\n      pop\n      pop\n      pop\n      mload(0x40)\n      dup1\n      0x20\n      add\n      0x40\n      mstore\n      dup1\n      0x00\n      dup2\n      mstore\n      pop\n        /* \"contracts/TravelRuleProgram.sol\":1426:1440  compareStrings */\n      tag_80\n        /* \"contracts/TravelRuleProgram.sol\":1426:1487  compareStrings(transactions[transactionId].receiversData, \"\") */\n      jump\t// in\n    tag_308:\n        /* \"contracts/TravelRuleProgram.sol\":1425:1487  !compareStrings(transactions[transactionId].receiversData, \"\") */\n      iszero\n        /* \"contracts/TravelRuleProgram.sol\":1417:1514  require(!compareStrings(transactions[transactionId].receiversData, \"\"), \"Only for completed AML\") */\n      tag_317\n      jumpi\n      mload(0x40)\n      0x08c379a000000000000000000000000000000000000000000000000000000000\n      dup2\n      mstore\n      0x04\n      add\n      tag_318\n      swap1\n      tag_83\n      jump\t// in\n    tag_318:\n      mload(0x40)\n      dup1\n      swap2\n      sub\n      swap1\n      revert\n    tag_317:\n        /* \"contracts/TravelRuleProgram.sol\":4087:4140  setAmlStatusForReceiver(transactionId, status, false) */\n      tag_320\n        /* \"contracts/TravelRuleProgram.sol\":4111:4124  transactionId */\n      dup4\n        /* \"contracts/TravelRuleProgram.sol\":4126:4132  status */\n      dup4\n        /* \"contracts/TravelRuleProgram.sol\":4134:4139  false */\n      0x00\n        /* \"contracts/TravelRuleProgram.sol\":4087:4110  setAmlStatusForReceiver */\n      tag_31\n        /* \"contracts/TravelRuleProgram.sol\":4087:4140  setAmlStatusForReceiver(transactionId, status, false) */\n      jump\t// in\n    tag_320:\n        /* \"@openzeppelin/contracts/access/Ownable.sol\":1117:1118  _ */\n      pop\n        /* \"contracts/TravelRuleProgram.sol\":3936:4147  function setAmlStatusForReceiver(... */\n      pop\n      pop\n      jump\t// out\n        /* \"contracts/TravelRuleProgram.sol\":3026:3930  function getTransactionsForReceiver(address to, uint256 count) public view returns(Transaction[] memory) {... */\n    tag_59:\n        /* \"contracts/TravelRuleProgram.sol\":3109:3129  Transaction[] memory */\n      0x60\n        /* \"contracts/TravelRuleProgram.sol\":3157:3160  100 */\n      0x64\n        /* \"contracts/TravelRuleProgram.sol\":3149:3154  count */\n      dup3\n        /* \"contracts/TravelRuleProgram.sol\":3149:3160  count < 100 */\n      lt\n        /* \"contracts/TravelRuleProgram.sol\":3141:3233  require(count < 100, \"Can not get transactions list. The maximum transactions count is 100\") */\n      tag_322\n      jumpi\n      mload(0x40)\n      0x08c379a000000000000000000000000000000000000000000000000000000000\n      dup2\n      mstore\n      0x04\n      add\n      tag_323\n      swap1\n      tag_103\n      jump\t// in\n    tag_323:\n      mload(0x40)\n      dup1\n      swap2\n      sub\n      swap1\n      revert\n    tag_322:\n        /* \"contracts/TravelRuleProgram.sol\":3244:3263  uint256 resultCount */\n      0x00\n        /* \"contracts/TravelRuleProgram.sol\":3279:3285  uint i */\n      dup1\n        /* \"contracts/TravelRuleProgram.sol\":3288:3289  0 */\n      0x00\n        /* \"contracts/TravelRuleProgram.sol\":3279:3289  uint i = 0 */\n      swap1\n      pop\n        /* \"contracts/TravelRuleProgram.sol\":3274:3421  for (uint i = 0; i < transactions.length; i++) {... */\n    tag_324:\n        /* \"contracts/TravelRuleProgram.sol\":3295:3307  transactions */\n      0x02\n        /* \"contracts/TravelRuleProgram.sol\":3295:3314  transactions.length */\n      dup1\n      sload\n      swap1\n      pop\n        /* \"contracts/TravelRuleProgram.sol\":3291:3292  i */\n      dup2\n        /* \"contracts/TravelRuleProgram.sol\":3291:3314  i < transactions.length */\n      lt\n        /* \"contracts/TravelRuleProgram.sol\":3274:3421  for (uint i = 0; i < transactions.length; i++) {... */\n      iszero\n      tag_325\n      jumpi\n        /* \"contracts/TravelRuleProgram.sol\":3361:3363  to */\n      dup5\n        /* \"contracts/TravelRuleProgram.sol\":3339:3363  transactions[i].to == to */\n      0xffffffffffffffffffffffffffffffffffffffff\n      and\n        /* \"contracts/TravelRuleProgram.sol\":3339:3351  transactions */\n      0x02\n        /* \"contracts/TravelRuleProgram.sol\":3352:3353  i */\n      dup3\n        /* \"contracts/TravelRuleProgram.sol\":3339:3354  transactions[i] */\n      dup2\n      sload\n      dup2\n      lt\n      tag_327\n      jumpi\n      tag_328\n      tag_72\n      jump\t// in\n    tag_328:\n    tag_327:\n      swap1\n      0x00\n      mstore\n      keccak256(0x00, 0x20)\n      swap1\n      0x06\n      mul\n      add\n        /* \"contracts/TravelRuleProgram.sol\":3339:3357  transactions[i].to */\n      0x02\n      add\n      0x00\n      swap1\n      sload\n      swap1\n      0x0100\n      exp\n      swap1\n      div\n      0xffffffffffffffffffffffffffffffffffffffff\n      and\n        /* \"contracts/TravelRuleProgram.sol\":3339:3363  transactions[i].to == to */\n      0xffffffffffffffffffffffffffffffffffffffff\n      and\n      eq\n        /* \"contracts/TravelRuleProgram.sol\":3335:3411  if (transactions[i].to == to) {... */\n      iszero\n      tag_330\n      jumpi\n        /* \"contracts/TravelRuleProgram.sol\":3383:3396  resultCount++ */\n      dup2\n      dup1\n      tag_331\n      swap1\n      tag_137\n      jump\t// in\n    tag_331:\n      swap3\n      pop\n      pop\n        /* \"contracts/TravelRuleProgram.sol\":3335:3411  if (transactions[i].to == to) {... */\n    tag_330:\n        /* \"contracts/TravelRuleProgram.sol\":3316:3319  i++ */\n      dup1\n      dup1\n      tag_332\n      swap1\n      tag_137\n      jump\t// in\n    tag_332:\n      swap2\n      pop\n      pop\n        /* \"contracts/TravelRuleProgram.sol\":3274:3421  for (uint i = 0; i < transactions.length; i++) {... */\n      jump(tag_324)\n    tag_325:\n      pop\n        /* \"contracts/TravelRuleProgram.sol\":3431:3445  uint256 length */\n      0x00\n        /* \"contracts/TravelRuleProgram.sol\":3462:3467  count */\n      dup4\n        /* \"contracts/TravelRuleProgram.sol\":3448:3459  resultCount */\n      dup3\n        /* \"contracts/TravelRuleProgram.sol\":3448:3467  resultCount < count */\n      lt\n        /* \"contracts/TravelRuleProgram.sol\":3448:3489  resultCount < count ? resultCount : count */\n      tag_333\n      jumpi\n        /* \"contracts/TravelRuleProgram.sol\":3484:3489  count */\n      dup4\n        /* \"contracts/TravelRuleProgram.sol\":3448:3489  resultCount < count ? resultCount : count */\n      jump(tag_334)\n    tag_333:\n        /* \"contracts/TravelRuleProgram.sol\":3470:3481  resultCount */\n      dup2\n        /* \"contracts/TravelRuleProgram.sol\":3448:3489  resultCount < count ? resultCount : count */\n    tag_334:\n        /* \"contracts/TravelRuleProgram.sol\":3431:3489  uint256 length = resultCount < count ? resultCount : count */\n      swap1\n      pop\n        /* \"contracts/TravelRuleProgram.sol\":3508:3532  Transaction[] memory txs */\n      0x00\n        /* \"contracts/TravelRuleProgram.sol\":3553:3564  resultCount */\n      dup3\n        /* \"contracts/TravelRuleProgram.sol\":3535:3565  new Transaction[](resultCount) */\n      0xffffffffffffffff\n      dup2\n      gt\n      iszero\n      tag_335\n      jumpi\n      tag_336\n      tag_112\n      jump\t// in\n    tag_336:\n    tag_335:\n      mload(0x40)\n      swap1\n      dup1\n      dup3\n      mstore\n      dup1\n      0x20\n      mul\n      0x20\n      add\n      dup3\n      add\n      0x40\n      mstore\n      dup1\n      iszero\n      tag_337\n      jumpi\n      dup2\n      0x20\n      add\n    tag_338:\n      tag_339\n      tag_116\n      jump\t// in\n    tag_339:\n      dup2\n      mstore\n      0x20\n      add\n      swap1\n      0x01\n      swap1\n      sub\n      swap1\n      dup2\n      tag_338\n      jumpi\n      swap1\n      pop\n    tag_337:\n      pop\n        /* \"contracts/TravelRuleProgram.sol\":3508:3565  Transaction[] memory txs = new Transaction[](resultCount) */\n      swap1\n      pop\n        /* \"contracts/TravelRuleProgram.sol\":3575:3584  uint256 k */\n      0x00\n        /* \"contracts/TravelRuleProgram.sol\":3595:3610  uint256 _length */\n      dup1\n        /* \"contracts/TravelRuleProgram.sol\":3613:3625  transactions */\n      0x02\n        /* \"contracts/TravelRuleProgram.sol\":3613:3632  transactions.length */\n      dup1\n      sload\n      swap1\n      pop\n        /* \"contracts/TravelRuleProgram.sol\":3595:3632  uint256 _length = transactions.length */\n      swap1\n      pop\n        /* \"contracts/TravelRuleProgram.sol\":3647:3653  uint i */\n      0x00\n        /* \"contracts/TravelRuleProgram.sol\":3656:3663  _length */\n      dup2\n        /* \"contracts/TravelRuleProgram.sol\":3647:3663  uint i = _length */\n      swap1\n      pop\n        /* \"contracts/TravelRuleProgram.sol\":3642:3903  for (uint i = _length; i > 0; i--) {... */\n    tag_340:\n        /* \"contracts/TravelRuleProgram.sol\":3669:3670  0 */\n      0x00\n        /* \"contracts/TravelRuleProgram.sol\":3665:3666  i */\n      dup2\n        /* \"contracts/TravelRuleProgram.sol\":3665:3670  i > 0 */\n      gt\n        /* \"contracts/TravelRuleProgram.sol\":3642:3903  for (uint i = _length; i > 0; i--) {... */\n      iszero\n      tag_341\n      jumpi\n        /* \"contracts/TravelRuleProgram.sol\":3721:3723  to */\n      dup9\n        /* \"contracts/TravelRuleProgram.sol\":3695:3723  transactions[i - 1].to == to */\n      0xffffffffffffffffffffffffffffffffffffffff\n      and\n        /* \"contracts/TravelRuleProgram.sol\":3695:3707  transactions */\n      0x02\n        /* \"contracts/TravelRuleProgram.sol\":3712:3713  1 */\n      0x01\n        /* \"contracts/TravelRuleProgram.sol\":3708:3709  i */\n      dup4\n        /* \"contracts/TravelRuleProgram.sol\":3708:3713  i - 1 */\n      tag_343\n      swap2\n      swap1\n      tag_107\n      jump\t// in\n    tag_343:\n        /* \"contracts/TravelRuleProgram.sol\":3695:3714  transactions[i - 1] */\n      dup2\n      sload\n      dup2\n      lt\n      tag_344\n      jumpi\n      tag_345\n      tag_72\n      jump\t// in\n    tag_345:\n    tag_344:\n      swap1\n      0x00\n      mstore\n      keccak256(0x00, 0x20)\n      swap1\n      0x06\n      mul\n      add\n        /* \"contracts/TravelRuleProgram.sol\":3695:3717  transactions[i - 1].to */\n      0x02\n      add\n      0x00\n      swap1\n      sload\n      swap1\n      0x0100\n      exp\n      swap1\n      div\n      0xffffffffffffffffffffffffffffffffffffffff\n      and\n        /* \"contracts/TravelRuleProgram.sol\":3695:3723  transactions[i - 1].to == to */\n      0xffffffffffffffffffffffffffffffffffffffff\n      and\n      eq\n        /* \"contracts/TravelRuleProgram.sol\":3691:3893  if (transactions[i - 1].to == to) {... */\n      iszero\n      tag_347\n      jumpi\n        /* \"contracts/TravelRuleProgram.sol\":3752:3764  transactions */\n      0x02\n        /* \"contracts/TravelRuleProgram.sol\":3769:3770  1 */\n      0x01\n        /* \"contracts/TravelRuleProgram.sol\":3765:3766  i */\n      dup3\n        /* \"contracts/TravelRuleProgram.sol\":3765:3770  i - 1 */\n      tag_348\n      swap2\n      swap1\n      tag_107\n      jump\t// in\n    tag_348:\n        /* \"contracts/TravelRuleProgram.sol\":3752:3771  transactions[i - 1] */\n      dup2\n      sload\n      dup2\n      lt\n      tag_349\n      jumpi\n      tag_350\n      tag_72\n      jump\t// in\n    tag_350:\n    tag_349:\n      swap1\n      0x00\n      mstore\n      keccak256(0x00, 0x20)\n      swap1\n      0x06\n      mul\n      add\n        /* \"contracts/TravelRuleProgram.sol\":3743:3771  txs[k] = transactions[i - 1] */\n      mload(0x40)\n      dup1\n      0xe0\n      add\n      0x40\n      mstore\n      swap1\n      dup2\n      0x00\n      dup3\n      add\n      sload\n      dup2\n      mstore\n      0x20\n      add\n      0x01\n      dup3\n      add\n      0x00\n      swap1\n      sload\n      swap1\n      0x0100\n      exp\n      swap1\n      div\n      0xffffffffffffffffffffffffffffffffffffffff\n      and\n      0xffffffffffffffffffffffffffffffffffffffff\n      and\n      0xffffffffffffffffffffffffffffffffffffffff\n      and\n      dup2\n      mstore\n      0x20\n      add\n      0x02\n      dup3\n      add\n      0x00\n      swap1\n      sload\n      swap1\n      0x0100\n      exp\n      swap1\n      div\n      0xffffffffffffffffffffffffffffffffffffffff\n      and\n      0xffffffffffffffffffffffffffffffffffffffff\n      and\n      0xffffffffffffffffffffffffffffffffffffffff\n      and\n      dup2\n      mstore\n      0x20\n      add\n      0x03\n      dup3\n      add\n      dup1\n      sload\n      tag_352\n      swap1\n      tag_75\n      jump\t// in\n    tag_352:\n      dup1\n      0x1f\n      add\n      0x20\n      dup1\n      swap2\n      div\n      mul\n      0x20\n      add\n      mload(0x40)\n      swap1\n      dup2\n      add\n      0x40\n      mstore\n      dup1\n      swap3\n      swap2\n      swap1\n      dup2\n      dup2\n      mstore\n      0x20\n      add\n      dup3\n      dup1\n      sload\n      tag_353\n      swap1\n      tag_75\n      jump\t// in\n    tag_353:\n      dup1\n      iszero\n      tag_354\n      jumpi\n      dup1\n      0x1f\n      lt\n      tag_355\n      jumpi\n      0x0100\n      dup1\n      dup4\n      sload\n      div\n      mul\n      dup4\n      mstore\n      swap2\n      0x20\n      add\n      swap2\n      jump(tag_354)\n    tag_355:\n      dup3\n      add\n      swap2\n      swap1\n      0x00\n      mstore\n      keccak256(0x00, 0x20)\n      swap1\n    tag_356:\n      dup2\n      sload\n      dup2\n      mstore\n      swap1\n      0x01\n      add\n      swap1\n      0x20\n      add\n      dup1\n      dup4\n      gt\n      tag_356\n      jumpi\n      dup3\n      swap1\n      sub\n      0x1f\n      and\n      dup3\n      add\n      swap2\n    tag_354:\n      pop\n      pop\n      pop\n      pop\n      pop\n      dup2\n      mstore\n      0x20\n      add\n      0x04\n      dup3\n      add\n      dup1\n      sload\n      tag_357\n      swap1\n      tag_75\n      jump\t// in\n    tag_357:\n      dup1\n      0x1f\n      add\n      0x20\n      dup1\n      swap2\n      div\n      mul\n      0x20\n      add\n      mload(0x40)\n      swap1\n      dup2\n      add\n      0x40\n      mstore\n      dup1\n      swap3\n      swap2\n      swap1\n      dup2\n      dup2\n      mstore\n      0x20\n      add\n      dup3\n      dup1\n      sload\n      tag_358\n      swap1\n      tag_75\n      jump\t// in\n    tag_358:\n      dup1\n      iszero\n      tag_359\n      jumpi\n      dup1\n      0x1f\n      lt\n      tag_360\n      jumpi\n      0x0100\n      dup1\n      dup4\n      sload\n      div\n      mul\n      dup4\n      mstore\n      swap2\n      0x20\n      add\n      swap2\n      jump(tag_359)\n    tag_360:\n      dup3\n      add\n      swap2\n      swap1\n      0x00\n      mstore\n      keccak256(0x00, 0x20)\n      swap1\n    tag_361:\n      dup2\n      sload\n      dup2\n      mstore\n      swap1\n      0x01\n      add\n      swap1\n      0x20\n      add\n      dup1\n      dup4\n      gt\n      tag_361\n      jumpi\n      dup3\n      swap1\n      sub\n      0x1f\n      and\n      dup3\n      add\n      swap2\n    tag_359:\n      pop\n      pop\n      pop\n      pop\n      pop\n      dup2\n      mstore\n      0x20\n      add\n      0x05\n      dup3\n      add\n      0x00\n      swap1\n      sload\n      swap1\n      0x0100\n      exp\n      swap1\n      div\n      0xff\n      and\n      0xff\n      and\n      0xff\n      and\n      dup2\n      mstore\n      0x20\n      add\n      0x05\n      dup3\n      add\n      0x01\n      swap1\n      sload\n      swap1\n      0x0100\n      exp\n      swap1\n      div\n      0xff\n      and\n      0xff\n      and\n      0xff\n      and\n      dup2\n      mstore\n      pop\n      pop\n        /* \"contracts/TravelRuleProgram.sol\":3743:3746  txs */\n      dup5\n        /* \"contracts/TravelRuleProgram.sol\":3747:3748  k */\n      dup5\n        /* \"contracts/TravelRuleProgram.sol\":3743:3749  txs[k] */\n      dup2\n      mload\n      dup2\n      lt\n      tag_362\n      jumpi\n      tag_363\n      tag_72\n      jump\t// in\n    tag_363:\n    tag_362:\n      0x20\n      mul\n      0x20\n      add\n      add\n        /* \"contracts/TravelRuleProgram.sol\":3743:3771  txs[k] = transactions[i - 1] */\n      dup2\n      swap1\n      mstore\n      pop\n        /* \"contracts/TravelRuleProgram.sol\":3789:3792  k++ */\n      dup3\n      dup1\n      tag_364\n      swap1\n      tag_137\n      jump\t// in\n    tag_364:\n      swap4\n      pop\n      pop\n        /* \"contracts/TravelRuleProgram.sol\":3820:3826  length */\n      dup5\n        /* \"contracts/TravelRuleProgram.sol\":3815:3816  k */\n      dup4\n        /* \"contracts/TravelRuleProgram.sol\":3815:3826  k == length */\n      eq\n        /* \"contracts/TravelRuleProgram.sol\":3811:3879  if (k == length) {... */\n      iszero\n      tag_365\n      jumpi\n        /* \"contracts/TravelRuleProgram.sol\":3857:3860  txs */\n      dup4\n        /* \"contracts/TravelRuleProgram.sol\":3850:3860  return txs */\n      swap7\n      pop\n      pop\n      pop\n      pop\n      pop\n      pop\n      pop\n      jump(tag_321)\n        /* \"contracts/TravelRuleProgram.sol\":3811:3879  if (k == length) {... */\n    tag_365:\n        /* \"contracts/TravelRuleProgram.sol\":3691:3893  if (transactions[i - 1].to == to) {... */\n    tag_347:\n        /* \"contracts/TravelRuleProgram.sol\":3672:3675  i-- */\n      dup1\n      dup1\n      tag_366\n      swap1\n      tag_139\n      jump\t// in\n    tag_366:\n      swap2\n      pop\n      pop\n        /* \"contracts/TravelRuleProgram.sol\":3642:3903  for (uint i = _length; i > 0; i--) {... */\n      jump(tag_340)\n    tag_341:\n      pop\n        /* \"contracts/TravelRuleProgram.sol\":3920:3923  txs */\n      dup3\n        /* \"contracts/TravelRuleProgram.sol\":3913:3923  return txs */\n      swap6\n      pop\n      pop\n      pop\n      pop\n      pop\n      pop\n        /* \"contracts/TravelRuleProgram.sol\":3026:3930  function getTransactionsForReceiver(address to, uint256 count) public view returns(Transaction[] memory) {... */\n    tag_321:\n      swap3\n      swap2\n      pop\n      pop\n      jump\t// out\n        /* \"@openzeppelin/contracts/access/Ownable.sol\":2081:2279  function transferOwnership(address newOwner) public virtual onlyOwner {... */\n    tag_64:\n        /* \"@openzeppelin/contracts/access/Ownable.sol\":1094:1107  _checkOwner() */\n      tag_368\n        /* \"@openzeppelin/contracts/access/Ownable.sol\":1094:1105  _checkOwner */\n      tag_67\n        /* \"@openzeppelin/contracts/access/Ownable.sol\":1094:1107  _checkOwner() */\n      jump\t// in\n    tag_368:\n        /* \"@openzeppelin/contracts/access/Ownable.sol\":2189:2190  0 */\n      0x00\n        /* \"@openzeppelin/contracts/access/Ownable.sol\":2169:2191  newOwner != address(0) */\n      0xffffffffffffffffffffffffffffffffffffffff\n      and\n        /* \"@openzeppelin/contracts/access/Ownable.sol\":2169:2177  newOwner */\n      dup2\n        /* \"@openzeppelin/contracts/access/Ownable.sol\":2169:2191  newOwner != address(0) */\n      0xffffffffffffffffffffffffffffffffffffffff\n      and\n      eq\n      iszero\n        /* \"@openzeppelin/contracts/access/Ownable.sol\":2161:2234  require(newOwner != address(0), \"Ownable: new owner is the zero address\") */\n      tag_370\n      jumpi\n      mload(0x40)\n      0x08c379a000000000000000000000000000000000000000000000000000000000\n      dup2\n      mstore\n      0x04\n      add\n      tag_371\n      swap1\n      tag_372\n      jump\t// in\n    tag_371:\n      mload(0x40)\n      dup1\n      swap2\n      sub\n      swap1\n      revert\n    tag_370:\n        /* \"@openzeppelin/contracts/access/Ownable.sol\":2244:2272  _transferOwnership(newOwner) */\n      tag_373\n        /* \"@openzeppelin/contracts/access/Ownable.sol\":2263:2271  newOwner */\n      dup2\n        /* \"@openzeppelin/contracts/access/Ownable.sol\":2244:2262  _transferOwnership */\n      tag_144\n        /* \"@openzeppelin/contracts/access/Ownable.sol\":2244:2272  _transferOwnership(newOwner) */\n      jump\t// in\n    tag_373:\n        /* \"@openzeppelin/contracts/access/Ownable.sol\":2081:2279  function transferOwnership(address newOwner) public virtual onlyOwner {... */\n      pop\n      jump\t// out\n        /* \"@openzeppelin/contracts/access/Ownable.sol\":1359:1489  function _checkOwner() internal view virtual {... */\n    tag_67:\n        /* \"@openzeppelin/contracts/access/Ownable.sol\":1433:1445  _msgSender() */\n      tag_375\n        /* \"@openzeppelin/contracts/access/Ownable.sol\":1433:1443  _msgSender */\n      tag_376\n        /* \"@openzeppelin/contracts/access/Ownable.sol\":1433:1445  _msgSender() */\n      jump\t// in\n    tag_375:\n        /* \"@openzeppelin/contracts/access/Ownable.sol\":1422:1445  owner() == _msgSender() */\n      0xffffffffffffffffffffffffffffffffffffffff\n      and\n        /* \"@openzeppelin/contracts/access/Ownable.sol\":1422:1429  owner() */\n      tag_377\n        /* \"@openzeppelin/contracts/access/Ownable.sol\":1422:1427  owner */\n      tag_37\n        /* \"@openzeppelin/contracts/access/Ownable.sol\":1422:1429  owner() */\n      jump\t// in\n    tag_377:\n        /* \"@openzeppelin/contracts/access/Ownable.sol\":1422:1445  owner() == _msgSender() */\n      0xffffffffffffffffffffffffffffffffffffffff\n      and\n      eq\n        /* \"@openzeppelin/contracts/access/Ownable.sol\":1414:1482  require(owner() == _msgSender(), \"Ownable: caller is not the owner\") */\n      tag_378\n      jumpi\n      mload(0x40)\n      0x08c379a000000000000000000000000000000000000000000000000000000000\n      dup2\n      mstore\n      0x04\n      add\n      tag_379\n      swap1\n      tag_380\n      jump\t// in\n    tag_379:\n      mload(0x40)\n      dup1\n      swap2\n      sub\n      swap1\n      revert\n    tag_378:\n        /* \"@openzeppelin/contracts/access/Ownable.sol\":1359:1489  function _checkOwner() internal view virtual {... */\n      jump\t// out\n        /* \"contracts/TravelRuleProgram.sol\":684:864  function compareStrings(string memory a, string memory b) private pure returns (bool) {... */\n    tag_80:\n        /* \"contracts/TravelRuleProgram.sol\":764:768  bool */\n      0x00\n        /* \"contracts/TravelRuleProgram.sol\":852:853  b */\n      dup2\n        /* \"contracts/TravelRuleProgram.sol\":834:855  abi.encodePacked((b)) */\n      add(0x20, mload(0x40))\n      tag_382\n      swap2\n      swap1\n      tag_383\n      jump\t// in\n    tag_382:\n      mload(0x40)\n      0x20\n      dup2\n      dup4\n      sub\n      sub\n      dup2\n      mstore\n      swap1\n      0x40\n      mstore\n        /* \"contracts/TravelRuleProgram.sol\":824:856  keccak256(abi.encodePacked((b))) */\n      dup1\n      mload\n      swap1\n      0x20\n      add\n      keccak256\n        /* \"contracts/TravelRuleProgram.sol\":816:817  a */\n      dup4\n        /* \"contracts/TravelRuleProgram.sol\":798:819  abi.encodePacked((a)) */\n      add(0x20, mload(0x40))\n      tag_384\n      swap2\n      swap1\n      tag_383\n      jump\t// in\n    tag_384:\n      mload(0x40)\n      0x20\n      dup2\n      dup4\n      sub\n      sub\n      dup2\n      mstore\n      swap1\n      0x40\n      mstore\n        /* \"contracts/TravelRuleProgram.sol\":788:820  keccak256(abi.encodePacked((a))) */\n      dup1\n      mload\n      swap1\n      0x20\n      add\n      keccak256\n        /* \"contracts/TravelRuleProgram.sol\":788:856  keccak256(abi.encodePacked((a))) == keccak256(abi.encodePacked((b))) */\n      eq\n        /* \"contracts/TravelRuleProgram.sol\":780:857  return (keccak256(abi.encodePacked((a))) == keccak256(abi.encodePacked((b)))) */\n      swap1\n      pop\n        /* \"contracts/TravelRuleProgram.sol\":684:864  function compareStrings(string memory a, string memory b) private pure returns (bool) {... */\n      swap3\n      swap2\n      pop\n      pop\n      jump\t// out\n        /* \"@openzeppelin/contracts/access/Ownable.sol\":2433:2620  function _transferOwnership(address newOwner) internal virtual {... */\n    tag_144:\n        /* \"@openzeppelin/contracts/access/Ownable.sol\":2506:2522  address oldOwner */\n      0x00\n        /* \"@openzeppelin/contracts/access/Ownable.sol\":2525:2531  _owner */\n      dup1\n      0x00\n      swap1\n      sload\n      swap1\n      0x0100\n      exp\n      swap1\n      div\n      0xffffffffffffffffffffffffffffffffffffffff\n      and\n        /* \"@openzeppelin/contracts/access/Ownable.sol\":2506:2531  address oldOwner = _owner */\n      swap1\n      pop\n        /* \"@openzeppelin/contracts/access/Ownable.sol\":2550:2558  newOwner */\n      dup2\n        /* \"@openzeppelin/contracts/access/Ownable.sol\":2541:2547  _owner */\n      0x00\n      dup1\n        /* \"@openzeppelin/contracts/access/Ownable.sol\":2541:2558  _owner = newOwner */\n      0x0100\n      exp\n      dup2\n      sload\n      dup2\n      0xffffffffffffffffffffffffffffffffffffffff\n      mul\n      not\n      and\n      swap1\n      dup4\n      0xffffffffffffffffffffffffffffffffffffffff\n      and\n      mul\n      or\n      swap1\n      sstore\n      pop\n        /* \"@openzeppelin/contracts/access/Ownable.sol\":2604:2612  newOwner */\n      dup2\n        /* \"@openzeppelin/contracts/access/Ownable.sol\":2573:2613  OwnershipTransferred(oldOwner, newOwner) */\n      0xffffffffffffffffffffffffffffffffffffffff\n      and\n        /* \"@openzeppelin/contracts/access/Ownable.sol\":2594:2602  oldOwner */\n      dup2\n        /* \"@openzeppelin/contracts/access/Ownable.sol\":2573:2613  OwnershipTransferred(oldOwner, newOwner) */\n      0xffffffffffffffffffffffffffffffffffffffff\n      and\n      0x8be0079c531659141344cd1fd0a4f28419497f9722a3daafe3b4186f6b6457e0\n      mload(0x40)\n      mload(0x40)\n      dup1\n      swap2\n      sub\n      swap1\n      log3\n        /* \"@openzeppelin/contracts/access/Ownable.sol\":2496:2620  {... */\n      pop\n        /* \"@openzeppelin/contracts/access/Ownable.sol\":2433:2620  function _transferOwnership(address newOwner) internal virtual {... */\n      pop\n      jump\t// out\n        /* \"@openzeppelin/contracts/utils/Counters.sol\":827:939  function current(Counter storage counter) internal view returns (uint256) {... */\n    tag_260:\n        /* \"@openzeppelin/contracts/utils/Counters.sol\":892:899  uint256 */\n      0x00\n        /* \"@openzeppelin/contracts/utils/Counters.sol\":918:925  counter */\n      dup2\n        /* \"@openzeppelin/contracts/utils/Counters.sol\":918:932  counter._value */\n      0x00\n      add\n      sload\n        /* \"@openzeppelin/contracts/utils/Counters.sol\":911:932  return counter._value */\n      swap1\n      pop\n        /* \"@openzeppelin/contracts/utils/Counters.sol\":827:939  function current(Counter storage counter) internal view returns (uint256) {... */\n      swap2\n      swap1\n      pop\n      jump\t// out\n        /* \"@openzeppelin/contracts/utils/Counters.sol\":945:1068  function increment(Counter storage counter) internal {... */\n    tag_266:\n        /* \"@openzeppelin/contracts/utils/Counters.sol\":1050:1051  1 */\n      0x01\n        /* \"@openzeppelin/contracts/utils/Counters.sol\":1032:1039  counter */\n      dup2\n        /* \"@openzeppelin/contracts/utils/Counters.sol\":1032:1046  counter._value */\n      0x00\n      add\n      0x00\n        /* \"@openzeppelin/contracts/utils/Counters.sol\":1032:1051  counter._value += 1 */\n      dup3\n      dup3\n      sload\n      add\n      swap3\n      pop\n      pop\n      dup2\n      swap1\n      sstore\n      pop\n        /* \"@openzeppelin/contracts/utils/Counters.sol\":945:1068  function increment(Counter storage counter) internal {... */\n      pop\n      jump\t// out\n        /* \"@openzeppelin/contracts/utils/Context.sol\":640:736  function _msgSender() internal view virtual returns (address) {... */\n    tag_376:\n        /* \"@openzeppelin/contracts/utils/Context.sol\":693:700  address */\n      0x00\n        /* \"@openzeppelin/contracts/utils/Context.sol\":719:729  msg.sender */\n      caller\n        /* \"@openzeppelin/contracts/utils/Context.sol\":712:729  return msg.sender */\n      swap1\n      pop\n        /* \"@openzeppelin/contracts/utils/Context.sol\":640:736  function _msgSender() internal view virtual returns (address) {... */\n      swap1\n      jump\t// out\n    tag_116:\n      mload(0x40)\n      dup1\n      0xe0\n      add\n      0x40\n      mstore\n      dup1\n      0x00\n      dup2\n      mstore\n      0x20\n      add\n      and(0xffffffffffffffffffffffffffffffffffffffff, 0x00)\n      dup2\n      mstore\n      0x20\n      add\n      and(0xffffffffffffffffffffffffffffffffffffffff, 0x00)\n      dup2\n      mstore\n      0x20\n      add\n      0x60\n      dup2\n      mstore\n      0x20\n      add\n      0x60\n      dup2\n      mstore\n      0x20\n      add\n      and(0xff, 0x00)\n      dup2\n      mstore\n      0x20\n      add\n      and(0xff, 0x00)\n      dup2\n      mstore\n      pop\n      swap1\n      jump\t// out\n    tag_263:\n      dup3\n      dup1\n      sload\n      tag_389\n      swap1\n      tag_75\n      jump\t// in\n    tag_389:\n      swap1\n      0x00\n      mstore\n      keccak256(0x00, 0x20)\n      swap1\n      0x1f\n      add\n      0x20\n      swap1\n      div\n      dup2\n      add\n      swap3\n      dup3\n      tag_391\n      jumpi\n      0x00\n      dup6\n      sstore\n      jump(tag_390)\n    tag_391:\n      dup3\n      0x1f\n      lt\n      tag_392\n      jumpi\n      dup1\n      mload\n      not(0xff)\n      and\n      dup4\n      dup1\n      add\n      or\n      dup6\n      sstore\n      jump(tag_390)\n    tag_392:\n      dup3\n      dup1\n      add\n      0x01\n      add\n      dup6\n      sstore\n      dup3\n      iszero\n      tag_390\n      jumpi\n      swap2\n      dup3\n      add\n    tag_393:\n      dup3\n      dup2\n      gt\n      iszero\n      tag_394\n      jumpi\n      dup3\n      mload\n      dup3\n      sstore\n      swap2\n      0x20\n      add\n      swap2\n      swap1\n      0x01\n      add\n      swap1\n      jump(tag_393)\n    tag_394:\n    tag_390:\n      pop\n      swap1\n      pop\n      tag_395\n      swap2\n      swap1\n      tag_396\n      jump\t// in\n    tag_395:\n      pop\n      swap1\n      jump\t// out\n    tag_396:\n    tag_397:\n      dup1\n      dup3\n      gt\n      iszero\n      tag_398\n      jumpi\n      0x00\n      dup2\n      0x00\n      swap1\n      sstore\n      pop\n      0x01\n      add\n      jump(tag_397)\n    tag_398:\n      pop\n      swap1\n      jump\t// out\n        /* \"#utility.yul\":7:419   */\n    tag_400:\n        /* \"#utility.yul\":85:90   */\n      0x00\n        /* \"#utility.yul\":110:176   */\n      tag_402\n        /* \"#utility.yul\":126:175   */\n      tag_403\n        /* \"#utility.yul\":168:174   */\n      dup5\n        /* \"#utility.yul\":126:175   */\n      tag_404\n      jump\t// in\n    tag_403:\n        /* \"#utility.yul\":110:176   */\n      tag_405\n      jump\t// in\n    tag_402:\n        /* \"#utility.yul\":101:176   */\n      swap1\n      pop\n        /* \"#utility.yul\":199:205   */\n      dup3\n        /* \"#utility.yul\":192:197   */\n      dup2\n        /* \"#utility.yul\":185:206   */\n      mstore\n        /* \"#utility.yul\":237:241   */\n      0x20\n        /* \"#utility.yul\":230:235   */\n      dup2\n        /* \"#utility.yul\":226:242   */\n      add\n        /* \"#utility.yul\":275:278   */\n      dup5\n        /* \"#utility.yul\":266:272   */\n      dup5\n        /* \"#utility.yul\":261:264   */\n      dup5\n        /* \"#utility.yul\":257:273   */\n      add\n        /* \"#utility.yul\":254:279   */\n      gt\n        /* \"#utility.yul\":251:363   */\n      iszero\n      tag_406\n      jumpi\n        /* \"#utility.yul\":282:361   */\n      tag_407\n      tag_408\n      jump\t// in\n    tag_407:\n        /* \"#utility.yul\":251:363   */\n    tag_406:\n        /* \"#utility.yul\":372:413   */\n      tag_409\n        /* \"#utility.yul\":406:412   */\n      dup5\n        /* \"#utility.yul\":401:404   */\n      dup3\n        /* \"#utility.yul\":396:399   */\n      dup6\n        /* \"#utility.yul\":372:413   */\n      tag_410\n      jump\t// in\n    tag_409:\n        /* \"#utility.yul\":91:419   */\n      pop\n        /* \"#utility.yul\":7:419   */\n      swap4\n      swap3\n      pop\n      pop\n      pop\n      jump\t// out\n        /* \"#utility.yul\":425:564   */\n    tag_411:\n        /* \"#utility.yul\":471:476   */\n      0x00\n        /* \"#utility.yul\":509:515   */\n      dup2\n        /* \"#utility.yul\":496:516   */\n      calldataload\n        /* \"#utility.yul\":487:516   */\n      swap1\n      pop\n        /* \"#utility.yul\":525:558   */\n      tag_413\n        /* \"#utility.yul\":552:557   */\n      dup2\n        /* \"#utility.yul\":525:558   */\n      tag_414\n      jump\t// in\n    tag_413:\n        /* \"#utility.yul\":425:564   */\n      swap3\n      swap2\n      pop\n      pop\n      jump\t// out\n        /* \"#utility.yul\":570:703   */\n    tag_415:\n        /* \"#utility.yul\":613:618   */\n      0x00\n        /* \"#utility.yul\":651:657   */\n      dup2\n        /* \"#utility.yul\":638:658   */\n      calldataload\n        /* \"#utility.yul\":629:658   */\n      swap1\n      pop\n        /* \"#utility.yul\":667:697   */\n      tag_417\n        /* \"#utility.yul\":691:696   */\n      dup2\n        /* \"#utility.yul\":667:697   */\n      tag_418\n      jump\t// in\n    tag_417:\n        /* \"#utility.yul\":570:703   */\n      swap3\n      swap2\n      pop\n      pop\n      jump\t// out\n        /* \"#utility.yul\":723:1063   */\n    tag_419:\n        /* \"#utility.yul\":779:784   */\n      0x00\n        /* \"#utility.yul\":828:831   */\n      dup3\n        /* \"#utility.yul\":821:825   */\n      0x1f\n        /* \"#utility.yul\":813:819   */\n      dup4\n        /* \"#utility.yul\":809:826   */\n      add\n        /* \"#utility.yul\":805:832   */\n      slt\n        /* \"#utility.yul\":795:917   */\n      tag_421\n      jumpi\n        /* \"#utility.yul\":836:915   */\n      tag_422\n      tag_423\n      jump\t// in\n    tag_422:\n        /* \"#utility.yul\":795:917   */\n    tag_421:\n        /* \"#utility.yul\":953:959   */\n      dup2\n        /* \"#utility.yul\":940:960   */\n      calldataload\n        /* \"#utility.yul\":978:1057   */\n      tag_424\n        /* \"#utility.yul\":1053:1056   */\n      dup5\n        /* \"#utility.yul\":1045:1051   */\n      dup3\n        /* \"#utility.yul\":1038:1042   */\n      0x20\n        /* \"#utility.yul\":1030:1036   */\n      dup7\n        /* \"#utility.yul\":1026:1043   */\n      add\n        /* \"#utility.yul\":978:1057   */\n      tag_400\n      jump\t// in\n    tag_424:\n        /* \"#utility.yul\":969:1057   */\n      swap2\n      pop\n        /* \"#utility.yul\":785:1063   */\n      pop\n        /* \"#utility.yul\":723:1063   */\n      swap3\n      swap2\n      pop\n      pop\n      jump\t// out\n        /* \"#utility.yul\":1069:1208   */\n    tag_425:\n        /* \"#utility.yul\":1115:1120   */\n      0x00\n        /* \"#utility.yul\":1153:1159   */\n      dup2\n        /* \"#utility.yul\":1140:1160   */\n      calldataload\n        /* \"#utility.yul\":1131:1160   */\n      swap1\n      pop\n        /* \"#utility.yul\":1169:1202   */\n      tag_427\n        /* \"#utility.yul\":1196:1201   */\n      dup2\n        /* \"#utility.yul\":1169:1202   */\n      tag_428\n      jump\t// in\n    tag_427:\n        /* \"#utility.yul\":1069:1208   */\n      swap3\n      swap2\n      pop\n      pop\n      jump\t// out\n        /* \"#utility.yul\":1214:1349   */\n    tag_429:\n        /* \"#utility.yul\":1258:1263   */\n      0x00\n        /* \"#utility.yul\":1296:1302   */\n      dup2\n        /* \"#utility.yul\":1283:1303   */\n      calldataload\n        /* \"#utility.yul\":1274:1303   */\n      swap1\n      pop\n        /* \"#utility.yul\":1312:1343   */\n      tag_431\n        /* \"#utility.yul\":1337:1342   */\n      dup2\n        /* \"#utility.yul\":1312:1343   */\n      tag_432\n      jump\t// in\n    tag_431:\n        /* \"#utility.yul\":1214:1349   */\n      swap3\n      swap2\n      pop\n      pop\n      jump\t// out\n        /* \"#utility.yul\":1355:1684   */\n    tag_63:\n        /* \"#utility.yul\":1414:1420   */\n      0x00\n        /* \"#utility.yul\":1463:1465   */\n      0x20\n        /* \"#utility.yul\":1451:1460   */\n      dup3\n        /* \"#utility.yul\":1442:1449   */\n      dup5\n        /* \"#utility.yul\":1438:1461   */\n      sub\n        /* \"#utility.yul\":1434:1466   */\n      slt\n        /* \"#utility.yul\":1431:1550   */\n      iszero\n      tag_434\n      jumpi\n        /* \"#utility.yul\":1469:1548   */\n      tag_435\n      tag_436\n      jump\t// in\n    tag_435:\n        /* \"#utility.yul\":1431:1550   */\n    tag_434:\n        /* \"#utility.yul\":1589:1590   */\n      0x00\n        /* \"#utility.yul\":1614:1667   */\n      tag_437\n        /* \"#utility.yul\":1659:1666   */\n      dup5\n        /* \"#utility.yul\":1650:1656   */\n      dup3\n        /* \"#utility.yul\":1639:1648   */\n      dup6\n        /* \"#utility.yul\":1635:1657   */\n      add\n        /* \"#utility.yul\":1614:1667   */\n      tag_411\n      jump\t// in\n    tag_437:\n        /* \"#utility.yul\":1604:1667   */\n      swap2\n      pop\n        /* \"#utility.yul\":1560:1677   */\n      pop\n        /* \"#utility.yul\":1355:1684   */\n      swap3\n      swap2\n      pop\n      pop\n      jump\t// out\n        /* \"#utility.yul\":1690:2489   */\n    tag_45:\n        /* \"#utility.yul\":1777:1783   */\n      0x00\n        /* \"#utility.yul\":1785:1791   */\n      dup1\n        /* \"#utility.yul\":1793:1799   */\n      0x00\n        /* \"#utility.yul\":1842:1844   */\n      0x60\n        /* \"#utility.yul\":1830:1839   */\n      dup5\n        /* \"#utility.yul\":1821:1828   */\n      dup7\n        /* \"#utility.yul\":1817:1840   */\n      sub\n        /* \"#utility.yul\":1813:1845   */\n      slt\n        /* \"#utility.yul\":1810:1929   */\n      iszero\n      tag_439\n      jumpi\n        /* \"#utility.yul\":1848:1927   */\n      tag_440\n      tag_436\n      jump\t// in\n    tag_440:\n        /* \"#utility.yul\":1810:1929   */\n    tag_439:\n        /* \"#utility.yul\":1968:1969   */\n      0x00\n        /* \"#utility.yul\":1993:2046   */\n      tag_441\n        /* \"#utility.yul\":2038:2045   */\n      dup7\n        /* \"#utility.yul\":2029:2035   */\n      dup3\n        /* \"#utility.yul\":2018:2027   */\n      dup8\n        /* \"#utility.yul\":2014:2036   */\n      add\n        /* \"#utility.yul\":1993:2046   */\n      tag_411\n      jump\t// in\n    tag_441:\n        /* \"#utility.yul\":1983:2046   */\n      swap4\n      pop\n        /* \"#utility.yul\":1939:2056   */\n      pop\n        /* \"#utility.yul\":2095:2097   */\n      0x20\n        /* \"#utility.yul\":2121:2174   */\n      tag_442\n        /* \"#utility.yul\":2166:2173   */\n      dup7\n        /* \"#utility.yul\":2157:2163   */\n      dup3\n        /* \"#utility.yul\":2146:2155   */\n      dup8\n        /* \"#utility.yul\":2142:2164   */\n      add\n        /* \"#utility.yul\":2121:2174   */\n      tag_411\n      jump\t// in\n    tag_442:\n        /* \"#utility.yul\":2111:2174   */\n      swap3\n      pop\n        /* \"#utility.yul\":2066:2184   */\n      pop\n        /* \"#utility.yul\":2251:2253   */\n      0x40\n        /* \"#utility.yul\":2240:2249   */\n      dup5\n        /* \"#utility.yul\":2236:2254   */\n      add\n        /* \"#utility.yul\":2223:2255   */\n      calldataload\n        /* \"#utility.yul\":2282:2300   */\n      0xffffffffffffffff\n        /* \"#utility.yul\":2274:2280   */\n      dup2\n        /* \"#utility.yul\":2271:2301   */\n      gt\n        /* \"#utility.yul\":2268:2385   */\n      iszero\n      tag_443\n      jumpi\n        /* \"#utility.yul\":2304:2383   */\n      tag_444\n      tag_445\n      jump\t// in\n    tag_444:\n        /* \"#utility.yul\":2268:2385   */\n    tag_443:\n        /* \"#utility.yul\":2409:2472   */\n      tag_446\n        /* \"#utility.yul\":2464:2471   */\n      dup7\n        /* \"#utility.yul\":2455:2461   */\n      dup3\n        /* \"#utility.yul\":2444:2453   */\n      dup8\n        /* \"#utility.yul\":2440:2462   */\n      add\n        /* \"#utility.yul\":2409:2472   */\n      tag_419\n      jump\t// in\n    tag_446:\n        /* \"#utility.yul\":2399:2472   */\n      swap2\n      pop\n        /* \"#utility.yul\":2194:2482   */\n      pop\n        /* \"#utility.yul\":1690:2489   */\n      swap3\n      pop\n      swap3\n      pop\n      swap3\n      jump\t// out\n        /* \"#utility.yul\":2495:2969   */\n    tag_58:\n        /* \"#utility.yul\":2563:2569   */\n      0x00\n        /* \"#utility.yul\":2571:2577   */\n      dup1\n        /* \"#utility.yul\":2620:2622   */\n      0x40\n        /* \"#utility.yul\":2608:2617   */\n      dup4\n        /* \"#utility.yul\":2599:2606   */\n      dup6\n        /* \"#utility.yul\":2595:2618   */\n      sub\n        /* \"#utility.yul\":2591:2623   */\n      slt\n        /* \"#utility.yul\":2588:2707   */\n      iszero\n      tag_448\n      jumpi\n        /* \"#utility.yul\":2626:2705   */\n      tag_449\n      tag_436\n      jump\t// in\n    tag_449:\n        /* \"#utility.yul\":2588:2707   */\n    tag_448:\n        /* \"#utility.yul\":2746:2747   */\n      0x00\n        /* \"#utility.yul\":2771:2824   */\n      tag_450\n        /* \"#utility.yul\":2816:2823   */\n      dup6\n        /* \"#utility.yul\":2807:2813   */\n      dup3\n        /* \"#utility.yul\":2796:2805   */\n      dup7\n        /* \"#utility.yul\":2792:2814   */\n      add\n        /* \"#utility.yul\":2771:2824   */\n      tag_411\n      jump\t// in\n    tag_450:\n        /* \"#utility.yul\":2761:2824   */\n      swap3\n      pop\n        /* \"#utility.yul\":2717:2834   */\n      pop\n        /* \"#utility.yul\":2873:2875   */\n      0x20\n        /* \"#utility.yul\":2899:2952   */\n      tag_451\n        /* \"#utility.yul\":2944:2951   */\n      dup6\n        /* \"#utility.yul\":2935:2941   */\n      dup3\n        /* \"#utility.yul\":2924:2933   */\n      dup7\n        /* \"#utility.yul\":2920:2942   */\n      add\n        /* \"#utility.yul\":2899:2952   */\n      tag_425\n      jump\t// in\n    tag_451:\n        /* \"#utility.yul\":2889:2952   */\n      swap2\n      pop\n        /* \"#utility.yul\":2844:2962   */\n      pop\n        /* \"#utility.yul\":2495:2969   */\n      swap3\n      pop\n      swap3\n      swap1\n      pop\n      jump\t// out\n        /* \"#utility.yul\":2975:3304   */\n    tag_22:\n        /* \"#utility.yul\":3034:3040   */\n      0x00\n        /* \"#utility.yul\":3083:3085   */\n      0x20\n        /* \"#utility.yul\":3071:3080   */\n      dup3\n        /* \"#utility.yul\":3062:3069   */\n      dup5\n        /* \"#utility.yul\":3058:3081   */\n      sub\n        /* \"#utility.yul\":3054:3086   */\n      slt\n        /* \"#utility.yul\":3051:3170   */\n      iszero\n      tag_453\n      jumpi\n        /* \"#utility.yul\":3089:3168   */\n      tag_454\n      tag_436\n      jump\t// in\n    tag_454:\n        /* \"#utility.yul\":3051:3170   */\n    tag_453:\n        /* \"#utility.yul\":3209:3210   */\n      0x00\n        /* \"#utility.yul\":3234:3287   */\n      tag_455\n        /* \"#utility.yul\":3279:3286   */\n      dup5\n        /* \"#utility.yul\":3270:3276   */\n      dup3\n        /* \"#utility.yul\":3259:3268   */\n      dup6\n        /* \"#utility.yul\":3255:3277   */\n      add\n        /* \"#utility.yul\":3234:3287   */\n      tag_425\n      jump\t// in\n    tag_455:\n        /* \"#utility.yul\":3224:3287   */\n      swap2\n      pop\n        /* \"#utility.yul\":3180:3297   */\n      pop\n        /* \"#utility.yul\":2975:3304   */\n      swap3\n      swap2\n      pop\n      pop\n      jump\t// out\n        /* \"#utility.yul\":3310:3964   */\n    tag_51:\n        /* \"#utility.yul\":3388:3394   */\n      0x00\n        /* \"#utility.yul\":3396:3402   */\n      dup1\n        /* \"#utility.yul\":3445:3447   */\n      0x40\n        /* \"#utility.yul\":3433:3442   */\n      dup4\n        /* \"#utility.yul\":3424:3431   */\n      dup6\n        /* \"#utility.yul\":3420:3443   */\n      sub\n        /* \"#utility.yul\":3416:3448   */\n      slt\n        /* \"#utility.yul\":3413:3532   */\n      iszero\n      tag_457\n      jumpi\n        /* \"#utility.yul\":3451:3530   */\n      tag_458\n      tag_436\n      jump\t// in\n    tag_458:\n        /* \"#utility.yul\":3413:3532   */\n    tag_457:\n        /* \"#utility.yul\":3571:3572   */\n      0x00\n        /* \"#utility.yul\":3596:3649   */\n      tag_459\n        /* \"#utility.yul\":3641:3648   */\n      dup6\n        /* \"#utility.yul\":3632:3638   */\n      dup3\n        /* \"#utility.yul\":3621:3630   */\n      dup7\n        /* \"#utility.yul\":3617:3639   */\n      add\n        /* \"#utility.yul\":3596:3649   */\n      tag_425\n      jump\t// in\n    tag_459:\n        /* \"#utility.yul\":3586:3649   */\n      swap3\n      pop\n        /* \"#utility.yul\":3542:3659   */\n      pop\n        /* \"#utility.yul\":3726:3728   */\n      0x20\n        /* \"#utility.yul\":3715:3724   */\n      dup4\n        /* \"#utility.yul\":3711:3729   */\n      add\n        /* \"#utility.yul\":3698:3730   */\n      calldataload\n        /* \"#utility.yul\":3757:3775   */\n      0xffffffffffffffff\n        /* \"#utility.yul\":3749:3755   */\n      dup2\n        /* \"#utility.yul\":3746:3776   */\n      gt\n        /* \"#utility.yul\":3743:3860   */\n      iszero\n      tag_460\n      jumpi\n        /* \"#utility.yul\":3779:3858   */\n      tag_461\n      tag_445\n      jump\t// in\n    tag_461:\n        /* \"#utility.yul\":3743:3860   */\n    tag_460:\n        /* \"#utility.yul\":3884:3947   */\n      tag_462\n        /* \"#utility.yul\":3939:3946   */\n      dup6\n        /* \"#utility.yul\":3930:3936   */\n      dup3\n        /* \"#utility.yul\":3919:3928   */\n      dup7\n        /* \"#utility.yul\":3915:3937   */\n      add\n        /* \"#utility.yul\":3884:3947   */\n      tag_419\n      jump\t// in\n    tag_462:\n        /* \"#utility.yul\":3874:3947   */\n      swap2\n      pop\n        /* \"#utility.yul\":3669:3957   */\n      pop\n        /* \"#utility.yul\":3310:3964   */\n      swap3\n      pop\n      swap3\n      swap1\n      pop\n      jump\t// out\n        /* \"#utility.yul\":3970:4440   */\n    tag_34:\n        /* \"#utility.yul\":4036:4042   */\n      0x00\n        /* \"#utility.yul\":4044:4050   */\n      dup1\n        /* \"#utility.yul\":4093:4095   */\n      0x40\n        /* \"#utility.yul\":4081:4090   */\n      dup4\n        /* \"#utility.yul\":4072:4079   */\n      dup6\n        /* \"#utility.yul\":4068:4091   */\n      sub\n        /* \"#utility.yul\":4064:4096   */\n      slt\n        /* \"#utility.yul\":4061:4180   */\n      iszero\n      tag_464\n      jumpi\n        /* \"#utility.yul\":4099:4178   */\n      tag_465\n      tag_436\n      jump\t// in\n    tag_465:\n        /* \"#utility.yul\":4061:4180   */\n    tag_464:\n        /* \"#utility.yul\":4219:4220   */\n      0x00\n        /* \"#utility.yul\":4244:4297   */\n      tag_466\n        /* \"#utility.yul\":4289:4296   */\n      dup6\n        /* \"#utility.yul\":4280:4286   */\n      dup3\n        /* \"#utility.yul\":4269:4278   */\n      dup7\n        /* \"#utility.yul\":4265:4287   */\n      add\n        /* \"#utility.yul\":4244:4297   */\n      tag_425\n      jump\t// in\n    tag_466:\n        /* \"#utility.yul\":4234:4297   */\n      swap3\n      pop\n        /* \"#utility.yul\":4190:4307   */\n      pop\n        /* \"#utility.yul\":4346:4348   */\n      0x20\n        /* \"#utility.yul\":4372:4423   */\n      tag_467\n        /* \"#utility.yul\":4415:4422   */\n      dup6\n        /* \"#utility.yul\":4406:4412   */\n      dup3\n        /* \"#utility.yul\":4395:4404   */\n      dup7\n        /* \"#utility.yul\":4391:4413   */\n      add\n        /* \"#utility.yul\":4372:4423   */\n      tag_429\n      jump\t// in\n    tag_467:\n        /* \"#utility.yul\":4362:4423   */\n      swap2\n      pop\n        /* \"#utility.yul\":4317:4433   */\n      pop\n        /* \"#utility.yul\":3970:4440   */\n      swap3\n      pop\n      swap3\n      swap1\n      pop\n      jump\t// out\n        /* \"#utility.yul\":4446:5055   */\n    tag_30:\n        /* \"#utility.yul\":4518:4524   */\n      0x00\n        /* \"#utility.yul\":4526:4532   */\n      dup1\n        /* \"#utility.yul\":4534:4540   */\n      0x00\n        /* \"#utility.yul\":4583:4585   */\n      0x60\n        /* \"#utility.yul\":4571:4580   */\n      dup5\n        /* \"#utility.yul\":4562:4569   */\n      dup7\n        /* \"#utility.yul\":4558:4581   */\n      sub\n        /* \"#utility.yul\":4554:4586   */\n      slt\n        /* \"#utility.yul\":4551:4670   */\n      iszero\n      tag_469\n      jumpi\n        /* \"#utility.yul\":4589:4668   */\n      tag_470\n      tag_436\n      jump\t// in\n    tag_470:\n        /* \"#utility.yul\":4551:4670   */\n    tag_469:\n        /* \"#utility.yul\":4709:4710   */\n      0x00\n        /* \"#utility.yul\":4734:4787   */\n      tag_471\n        /* \"#utility.yul\":4779:4786   */\n      dup7\n        /* \"#utility.yul\":4770:4776   */\n      dup3\n        /* \"#utility.yul\":4759:4768   */\n      dup8\n        /* \"#utility.yul\":4755:4777   */\n      add\n        /* \"#utility.yul\":4734:4787   */\n      tag_425\n      jump\t// in\n    tag_471:\n        /* \"#utility.yul\":4724:4787   */\n      swap4\n      pop\n        /* \"#utility.yul\":4680:4797   */\n      pop\n        /* \"#utility.yul\":4836:4838   */\n      0x20\n        /* \"#utility.yul\":4862:4913   */\n      tag_472\n        /* \"#utility.yul\":4905:4912   */\n      dup7\n        /* \"#utility.yul\":4896:4902   */\n      dup3\n        /* \"#utility.yul\":4885:4894   */\n      dup8\n        /* \"#utility.yul\":4881:4903   */\n      add\n        /* \"#utility.yul\":4862:4913   */\n      tag_429\n      jump\t// in\n    tag_472:\n        /* \"#utility.yul\":4852:4913   */\n      swap3\n      pop\n        /* \"#utility.yul\":4807:4923   */\n      pop\n        /* \"#utility.yul\":4962:4964   */\n      0x40\n        /* \"#utility.yul\":4988:5038   */\n      tag_473\n        /* \"#utility.yul\":5030:5037   */\n      dup7\n        /* \"#utility.yul\":5021:5027   */\n      dup3\n        /* \"#utility.yul\":5010:5019   */\n      dup8\n        /* \"#utility.yul\":5006:5028   */\n      add\n        /* \"#utility.yul\":4988:5038   */\n      tag_415\n      jump\t// in\n    tag_473:\n        /* \"#utility.yul\":4978:5038   */\n      swap2\n      pop\n        /* \"#utility.yul\":4933:5048   */\n      pop\n        /* \"#utility.yul\":4446:5055   */\n      swap3\n      pop\n      swap3\n      pop\n      swap3\n      jump\t// out\n        /* \"#utility.yul\":5061:5672   */\n    tag_18:\n        /* \"#utility.yul\":5134:5140   */\n      0x00\n        /* \"#utility.yul\":5142:5148   */\n      dup1\n        /* \"#utility.yul\":5150:5156   */\n      0x00\n        /* \"#utility.yul\":5199:5201   */\n      0x60\n        /* \"#utility.yul\":5187:5196   */\n      dup5\n        /* \"#utility.yul\":5178:5185   */\n      dup7\n        /* \"#utility.yul\":5174:5197   */\n      sub\n        /* \"#utility.yul\":5170:5202   */\n      slt\n        /* \"#utility.yul\":5167:5286   */\n      iszero\n      tag_475\n      jumpi\n        /* \"#utility.yul\":5205:5284   */\n      tag_476\n      tag_436\n      jump\t// in\n    tag_476:\n        /* \"#utility.yul\":5167:5286   */\n    tag_475:\n        /* \"#utility.yul\":5325:5326   */\n      0x00\n        /* \"#utility.yul\":5350:5403   */\n      tag_477\n        /* \"#utility.yul\":5395:5402   */\n      dup7\n        /* \"#utility.yul\":5386:5392   */\n      dup3\n        /* \"#utility.yul\":5375:5384   */\n      dup8\n        /* \"#utility.yul\":5371:5393   */\n      add\n        /* \"#utility.yul\":5350:5403   */\n      tag_425\n      jump\t// in\n    tag_477:\n        /* \"#utility.yul\":5340:5403   */\n      swap4\n      pop\n        /* \"#utility.yul\":5296:5413   */\n      pop\n        /* \"#utility.yul\":5452:5454   */\n      0x20\n        /* \"#utility.yul\":5478:5529   */\n      tag_478\n        /* \"#utility.yul\":5521:5528   */\n      dup7\n        /* \"#utility.yul\":5512:5518   */\n      dup3\n        /* \"#utility.yul\":5501:5510   */\n      dup8\n        /* \"#utility.yul\":5497:5519   */\n      add\n        /* \"#utility.yul\":5478:5529   */\n      tag_429\n      jump\t// in\n    tag_478:\n        /* \"#utility.yul\":5468:5529   */\n      swap3\n      pop\n        /* \"#utility.yul\":5423:5539   */\n      pop\n        /* \"#utility.yul\":5578:5580   */\n      0x40\n        /* \"#utility.yul\":5604:5655   */\n      tag_479\n        /* \"#utility.yul\":5647:5654   */\n      dup7\n        /* \"#utility.yul\":5638:5644   */\n      dup3\n        /* \"#utility.yul\":5627:5636   */\n      dup8\n        /* \"#utility.yul\":5623:5645   */\n      add\n        /* \"#utility.yul\":5604:5655   */\n      tag_429\n      jump\t// in\n    tag_479:\n        /* \"#utility.yul\":5594:5655   */\n      swap2\n      pop\n        /* \"#utility.yul\":5549:5665   */\n      pop\n        /* \"#utility.yul\":5061:5672   */\n      swap3\n      pop\n      swap3\n      pop\n      swap3\n      jump\t// out\n        /* \"#utility.yul\":5678:5946   */\n    tag_480:\n        /* \"#utility.yul\":5803:5813   */\n      0x00\n        /* \"#utility.yul\":5838:5940   */\n      tag_482\n        /* \"#utility.yul\":5936:5939   */\n      dup4\n        /* \"#utility.yul\":5928:5934   */\n      dup4\n        /* \"#utility.yul\":5838:5940   */\n      tag_483\n      jump\t// in\n    tag_482:\n        /* \"#utility.yul\":5824:5940   */\n      swap1\n      pop\n        /* \"#utility.yul\":5678:5946   */\n      swap3\n      swap2\n      pop\n      pop\n      jump\t// out\n        /* \"#utility.yul\":5952:6060   */\n    tag_484:\n        /* \"#utility.yul\":6029:6053   */\n      tag_486\n        /* \"#utility.yul\":6047:6052   */\n      dup2\n        /* \"#utility.yul\":6029:6053   */\n      tag_487\n      jump\t// in\n    tag_486:\n        /* \"#utility.yul\":6024:6027   */\n      dup3\n        /* \"#utility.yul\":6017:6054   */\n      mstore\n        /* \"#utility.yul\":5952:6060   */\n      pop\n      pop\n      jump\t// out\n        /* \"#utility.yul\":6066:6184   */\n    tag_488:\n        /* \"#utility.yul\":6153:6177   */\n      tag_490\n        /* \"#utility.yul\":6171:6176   */\n      dup2\n        /* \"#utility.yul\":6153:6177   */\n      tag_487\n      jump\t// in\n    tag_490:\n        /* \"#utility.yul\":6148:6151   */\n      dup3\n        /* \"#utility.yul\":6141:6178   */\n      mstore\n        /* \"#utility.yul\":6066:6184   */\n      pop\n      pop\n      jump\t// out\n        /* \"#utility.yul\":6278:7413   */\n    tag_491:\n        /* \"#utility.yul\":6453:6456   */\n      0x00\n        /* \"#utility.yul\":6482:6564   */\n      tag_493\n        /* \"#utility.yul\":6558:6563   */\n      dup3\n        /* \"#utility.yul\":6482:6564   */\n      tag_494\n      jump\t// in\n    tag_493:\n        /* \"#utility.yul\":6580:6694   */\n      tag_495\n        /* \"#utility.yul\":6687:6693   */\n      dup2\n        /* \"#utility.yul\":6682:6685   */\n      dup6\n        /* \"#utility.yul\":6580:6694   */\n      tag_496\n      jump\t// in\n    tag_495:\n        /* \"#utility.yul\":6573:6694   */\n      swap4\n      pop\n        /* \"#utility.yul\":6720:6723   */\n      dup4\n        /* \"#utility.yul\":6765:6769   */\n      0x20\n        /* \"#utility.yul\":6757:6763   */\n      dup3\n        /* \"#utility.yul\":6753:6770   */\n      mul\n        /* \"#utility.yul\":6748:6751   */\n      dup6\n        /* \"#utility.yul\":6744:6771   */\n      add\n        /* \"#utility.yul\":6795:6879   */\n      tag_497\n        /* \"#utility.yul\":6873:6878   */\n      dup6\n        /* \"#utility.yul\":6795:6879   */\n      tag_498\n      jump\t// in\n    tag_497:\n        /* \"#utility.yul\":6902:6909   */\n      dup1\n        /* \"#utility.yul\":6933:6934   */\n      0x00\n        /* \"#utility.yul\":6918:7368   */\n    tag_499:\n        /* \"#utility.yul\":6943:6949   */\n      dup6\n        /* \"#utility.yul\":6940:6941   */\n      dup2\n        /* \"#utility.yul\":6937:6950   */\n      lt\n        /* \"#utility.yul\":6918:7368   */\n      iszero\n      tag_501\n      jumpi\n        /* \"#utility.yul\":7014:7023   */\n      dup5\n        /* \"#utility.yul\":7008:7012   */\n      dup5\n        /* \"#utility.yul\":7004:7024   */\n      sub\n        /* \"#utility.yul\":6999:7002   */\n      dup10\n        /* \"#utility.yul\":6992:7025   */\n      mstore\n        /* \"#utility.yul\":7065:7071   */\n      dup2\n        /* \"#utility.yul\":7059:7072   */\n      mload\n        /* \"#utility.yul\":7093:7213   */\n      tag_502\n        /* \"#utility.yul\":7208:7212   */\n      dup6\n        /* \"#utility.yul\":7193:7206   */\n      dup3\n        /* \"#utility.yul\":7093:7213   */\n      tag_480\n      jump\t// in\n    tag_502:\n        /* \"#utility.yul\":7085:7213   */\n      swap5\n      pop\n        /* \"#utility.yul\":7236:7324   */\n      tag_503\n        /* \"#utility.yul\":7317:7323   */\n      dup4\n        /* \"#utility.yul\":7236:7324   */\n      tag_504\n      jump\t// in\n    tag_503:\n        /* \"#utility.yul\":7226:7324   */\n      swap3\n      pop\n        /* \"#utility.yul\":7353:7357   */\n      0x20\n        /* \"#utility.yul\":7348:7351   */\n      dup11\n        /* \"#utility.yul\":7344:7358   */\n      add\n        /* \"#utility.yul\":7337:7358   */\n      swap10\n      pop\n        /* \"#utility.yul\":6978:7368   */\n      pop\n        /* \"#utility.yul\":6965:6966   */\n      0x01\n        /* \"#utility.yul\":6962:6963   */\n      dup2\n        /* \"#utility.yul\":6958:6967   */\n      add\n        /* \"#utility.yul\":6953:6967   */\n      swap1\n      pop\n        /* \"#utility.yul\":6918:7368   */\n      jump(tag_499)\n    tag_501:\n        /* \"#utility.yul\":6922:6936   */\n      pop\n        /* \"#utility.yul\":7384:7388   */\n      dup3\n        /* \"#utility.yul\":7377:7388   */\n      swap8\n      pop\n        /* \"#utility.yul\":7404:7407   */\n      dup8\n        /* \"#utility.yul\":7397:7407   */\n      swap6\n      pop\n        /* \"#utility.yul\":6458:7413   */\n      pop\n      pop\n      pop\n      pop\n      pop\n        /* \"#utility.yul\":6278:7413   */\n      swap3\n      swap2\n      pop\n      pop\n      jump\t// out\n        /* \"#utility.yul\":7419:7763   */\n    tag_505:\n        /* \"#utility.yul\":7497:7500   */\n      0x00\n        /* \"#utility.yul\":7525:7564   */\n      tag_507\n        /* \"#utility.yul\":7558:7563   */\n      dup3\n        /* \"#utility.yul\":7525:7564   */\n      tag_508\n      jump\t// in\n    tag_507:\n        /* \"#utility.yul\":7580:7641   */\n      tag_509\n        /* \"#utility.yul\":7634:7640   */\n      dup2\n        /* \"#utility.yul\":7629:7632   */\n      dup6\n        /* \"#utility.yul\":7580:7641   */\n      tag_510\n      jump\t// in\n    tag_509:\n        /* \"#utility.yul\":7573:7641   */\n      swap4\n      pop\n        /* \"#utility.yul\":7650:7702   */\n      tag_511\n        /* \"#utility.yul\":7695:7701   */\n      dup2\n        /* \"#utility.yul\":7690:7693   */\n      dup6\n        /* \"#utility.yul\":7683:7687   */\n      0x20\n        /* \"#utility.yul\":7676:7681   */\n      dup7\n        /* \"#utility.yul\":7672:7688   */\n      add\n        /* \"#utility.yul\":7650:7702   */\n      tag_512\n      jump\t// in\n    tag_511:\n        /* \"#utility.yul\":7727:7756   */\n      tag_513\n        /* \"#utility.yul\":7749:7755   */\n      dup2\n        /* \"#utility.yul\":7727:7756   */\n      tag_514\n      jump\t// in\n    tag_513:\n        /* \"#utility.yul\":7722:7725   */\n      dup5\n        /* \"#utility.yul\":7718:7757   */\n      add\n        /* \"#utility.yul\":7711:7757   */\n      swap2\n      pop\n        /* \"#utility.yul\":7501:7763   */\n      pop\n        /* \"#utility.yul\":7419:7763   */\n      swap3\n      swap2\n      pop\n      pop\n      jump\t// out\n        /* \"#utility.yul\":7769:8146   */\n    tag_515:\n        /* \"#utility.yul\":7875:7878   */\n      0x00\n        /* \"#utility.yul\":7903:7942   */\n      tag_517\n        /* \"#utility.yul\":7936:7941   */\n      dup3\n        /* \"#utility.yul\":7903:7942   */\n      tag_508\n      jump\t// in\n    tag_517:\n        /* \"#utility.yul\":7958:8047   */\n      tag_518\n        /* \"#utility.yul\":8040:8046   */\n      dup2\n        /* \"#utility.yul\":8035:8038   */\n      dup6\n        /* \"#utility.yul\":7958:8047   */\n      tag_519\n      jump\t// in\n    tag_518:\n        /* \"#utility.yul\":7951:8047   */\n      swap4\n      pop\n        /* \"#utility.yul\":8056:8108   */\n      tag_520\n        /* \"#utility.yul\":8101:8107   */\n      dup2\n        /* \"#utility.yul\":8096:8099   */\n      dup6\n        /* \"#utility.yul\":8089:8093   */\n      0x20\n        /* \"#utility.yul\":8082:8087   */\n      dup7\n        /* \"#utility.yul\":8078:8094   */\n      add\n        /* \"#utility.yul\":8056:8108   */\n      tag_512\n      jump\t// in\n    tag_520:\n        /* \"#utility.yul\":8133:8139   */\n      dup1\n        /* \"#utility.yul\":8128:8131   */\n      dup5\n        /* \"#utility.yul\":8124:8140   */\n      add\n        /* \"#utility.yul\":8117:8140   */\n      swap2\n      pop\n        /* \"#utility.yul\":7879:8146   */\n      pop\n        /* \"#utility.yul\":7769:8146   */\n      swap3\n      swap2\n      pop\n      pop\n      jump\t// out\n        /* \"#utility.yul\":8152:8518   */\n    tag_521:\n        /* \"#utility.yul\":8294:8297   */\n      0x00\n        /* \"#utility.yul\":8315:8382   */\n      tag_523\n        /* \"#utility.yul\":8379:8381   */\n      0x26\n        /* \"#utility.yul\":8374:8377   */\n      dup4\n        /* \"#utility.yul\":8315:8382   */\n      tag_524\n      jump\t// in\n    tag_523:\n        /* \"#utility.yul\":8308:8382   */\n      swap2\n      pop\n        /* \"#utility.yul\":8391:8484   */\n      tag_525\n        /* \"#utility.yul\":8480:8483   */\n      dup3\n        /* \"#utility.yul\":8391:8484   */\n      tag_526\n      jump\t// in\n    tag_525:\n        /* \"#utility.yul\":8509:8511   */\n      0x40\n        /* \"#utility.yul\":8504:8507   */\n      dup3\n        /* \"#utility.yul\":8500:8512   */\n      add\n        /* \"#utility.yul\":8493:8512   */\n      swap1\n      pop\n        /* \"#utility.yul\":8152:8518   */\n      swap2\n      swap1\n      pop\n      jump\t// out\n        /* \"#utility.yul\":8524:8890   */\n    tag_527:\n        /* \"#utility.yul\":8666:8669   */\n      0x00\n        /* \"#utility.yul\":8687:8754   */\n      tag_529\n        /* \"#utility.yul\":8751:8753   */\n      0x32\n        /* \"#utility.yul\":8746:8749   */\n      dup4\n        /* \"#utility.yul\":8687:8754   */\n      tag_524\n      jump\t// in\n    tag_529:\n        /* \"#utility.yul\":8680:8754   */\n      swap2\n      pop\n        /* \"#utility.yul\":8763:8856   */\n      tag_530\n        /* \"#utility.yul\":8852:8855   */\n      dup3\n        /* \"#utility.yul\":8763:8856   */\n      tag_531\n      jump\t// in\n    tag_530:\n        /* \"#utility.yul\":8881:8883   */\n      0x40\n        /* \"#utility.yul\":8876:8879   */\n      dup3\n        /* \"#utility.yul\":8872:8884   */\n      add\n        /* \"#utility.yul\":8865:8884   */\n      swap1\n      pop\n        /* \"#utility.yul\":8524:8890   */\n      swap2\n      swap1\n      pop\n      jump\t// out\n        /* \"#utility.yul\":8896:9262   */\n    tag_532:\n        /* \"#utility.yul\":9038:9041   */\n      0x00\n        /* \"#utility.yul\":9059:9126   */\n      tag_534\n        /* \"#utility.yul\":9123:9125   */\n      0x44\n        /* \"#utility.yul\":9118:9121   */\n      dup4\n        /* \"#utility.yul\":9059:9126   */\n      tag_524\n      jump\t// in\n    tag_534:\n        /* \"#utility.yul\":9052:9126   */\n      swap2\n      pop\n        /* \"#utility.yul\":9135:9228   */\n      tag_535\n        /* \"#utility.yul\":9224:9227   */\n      dup3\n        /* \"#utility.yul\":9135:9228   */\n      tag_536\n      jump\t// in\n    tag_535:\n        /* \"#utility.yul\":9253:9255   */\n      0x60\n        /* \"#utility.yul\":9248:9251   */\n      dup3\n        /* \"#utility.yul\":9244:9256   */\n      add\n        /* \"#utility.yul\":9237:9256   */\n      swap1\n      pop\n        /* \"#utility.yul\":8896:9262   */\n      swap2\n      swap1\n      pop\n      jump\t// out\n        /* \"#utility.yul\":9268:9634   */\n    tag_537:\n        /* \"#utility.yul\":9410:9413   */\n      0x00\n        /* \"#utility.yul\":9431:9498   */\n      tag_539\n        /* \"#utility.yul\":9495:9497   */\n      0x16\n        /* \"#utility.yul\":9490:9493   */\n      dup4\n        /* \"#utility.yul\":9431:9498   */\n      tag_524\n      jump\t// in\n    tag_539:\n        /* \"#utility.yul\":9424:9498   */\n      swap2\n      pop\n        /* \"#utility.yul\":9507:9600   */\n      tag_540\n        /* \"#utility.yul\":9596:9599   */\n      dup3\n        /* \"#utility.yul\":9507:9600   */\n      tag_541\n      jump\t// in\n    tag_540:\n        /* \"#utility.yul\":9625:9627   */\n      0x20\n        /* \"#utility.yul\":9620:9623   */\n      dup3\n        /* \"#utility.yul\":9616:9628   */\n      add\n        /* \"#utility.yul\":9609:9628   */\n      swap1\n      pop\n        /* \"#utility.yul\":9268:9634   */\n      swap2\n      swap1\n      pop\n      jump\t// out\n        /* \"#utility.yul\":9640:10006   */\n    tag_542:\n        /* \"#utility.yul\":9782:9785   */\n      0x00\n        /* \"#utility.yul\":9803:9870   */\n      tag_544\n        /* \"#utility.yul\":9867:9869   */\n      0x20\n        /* \"#utility.yul\":9862:9865   */\n      dup4\n        /* \"#utility.yul\":9803:9870   */\n      tag_524\n      jump\t// in\n    tag_544:\n        /* \"#utility.yul\":9796:9870   */\n      swap2\n      pop\n        /* \"#utility.yul\":9879:9972   */\n      tag_545\n        /* \"#utility.yul\":9968:9971   */\n      dup3\n        /* \"#utility.yul\":9879:9972   */\n      tag_546\n      jump\t// in\n    tag_545:\n        /* \"#utility.yul\":9997:9999   */\n      0x20\n        /* \"#utility.yul\":9992:9995   */\n      dup3\n        /* \"#utility.yul\":9988:10000   */\n      add\n        /* \"#utility.yul\":9981:10000   */\n      swap1\n      pop\n        /* \"#utility.yul\":9640:10006   */\n      swap2\n      swap1\n      pop\n      jump\t// out\n        /* \"#utility.yul\":10012:10378   */\n    tag_547:\n        /* \"#utility.yul\":10154:10157   */\n      0x00\n        /* \"#utility.yul\":10175:10242   */\n      tag_549\n        /* \"#utility.yul\":10239:10241   */\n      0x27\n        /* \"#utility.yul\":10234:10237   */\n      dup4\n        /* \"#utility.yul\":10175:10242   */\n      tag_524\n      jump\t// in\n    tag_549:\n        /* \"#utility.yul\":10168:10242   */\n      swap2\n      pop\n        /* \"#utility.yul\":10251:10344   */\n      tag_550\n        /* \"#utility.yul\":10340:10343   */\n      dup3\n        /* \"#utility.yul\":10251:10344   */\n      tag_551\n      jump\t// in\n    tag_550:\n        /* \"#utility.yul\":10369:10371   */\n      0x40\n        /* \"#utility.yul\":10364:10367   */\n      dup3\n        /* \"#utility.yul\":10360:10372   */\n      add\n        /* \"#utility.yul\":10353:10372   */\n      swap1\n      pop\n        /* \"#utility.yul\":10012:10378   */\n      swap2\n      swap1\n      pop\n      jump\t// out\n        /* \"#utility.yul\":10384:10750   */\n    tag_552:\n        /* \"#utility.yul\":10526:10529   */\n      0x00\n        /* \"#utility.yul\":10547:10614   */\n      tag_554\n        /* \"#utility.yul\":10611:10613   */\n      0x3d\n        /* \"#utility.yul\":10606:10609   */\n      dup4\n        /* \"#utility.yul\":10547:10614   */\n      tag_524\n      jump\t// in\n    tag_554:\n        /* \"#utility.yul\":10540:10614   */\n      swap2\n      pop\n        /* \"#utility.yul\":10623:10716   */\n      tag_555\n        /* \"#utility.yul\":10712:10715   */\n      dup3\n        /* \"#utility.yul\":10623:10716   */\n      tag_556\n      jump\t// in\n    tag_555:\n        /* \"#utility.yul\":10741:10743   */\n      0x40\n        /* \"#utility.yul\":10736:10739   */\n      dup3\n        /* \"#utility.yul\":10732:10744   */\n      add\n        /* \"#utility.yul\":10725:10744   */\n      swap1\n      pop\n        /* \"#utility.yul\":10384:10750   */\n      swap2\n      swap1\n      pop\n      jump\t// out\n        /* \"#utility.yul\":10840:12405   */\n    tag_483:\n        /* \"#utility.yul\":10955:10958   */\n      0x00\n        /* \"#utility.yul\":10991:10995   */\n      0xe0\n        /* \"#utility.yul\":10986:10989   */\n      dup4\n        /* \"#utility.yul\":10982:10996   */\n      add\n        /* \"#utility.yul\":11076:11080   */\n      0x00\n        /* \"#utility.yul\":11069:11074   */\n      dup4\n        /* \"#utility.yul\":11065:11081   */\n      add\n        /* \"#utility.yul\":11059:11082   */\n      mload\n        /* \"#utility.yul\":11095:11158   */\n      tag_558\n        /* \"#utility.yul\":11152:11156   */\n      0x00\n        /* \"#utility.yul\":11147:11150   */\n      dup7\n        /* \"#utility.yul\":11143:11157   */\n      add\n        /* \"#utility.yul\":11129:11141   */\n      dup3\n        /* \"#utility.yul\":11095:11158   */\n      tag_559\n      jump\t// in\n    tag_558:\n        /* \"#utility.yul\":11006:11168   */\n      pop\n        /* \"#utility.yul\":11250:11254   */\n      0x20\n        /* \"#utility.yul\":11243:11248   */\n      dup4\n        /* \"#utility.yul\":11239:11255   */\n      add\n        /* \"#utility.yul\":11233:11256   */\n      mload\n        /* \"#utility.yul\":11269:11332   */\n      tag_560\n        /* \"#utility.yul\":11326:11330   */\n      0x20\n        /* \"#utility.yul\":11321:11324   */\n      dup7\n        /* \"#utility.yul\":11317:11331   */\n      add\n        /* \"#utility.yul\":11303:11315   */\n      dup3\n        /* \"#utility.yul\":11269:11332   */\n      tag_484\n      jump\t// in\n    tag_560:\n        /* \"#utility.yul\":11178:11342   */\n      pop\n        /* \"#utility.yul\":11422:11426   */\n      0x40\n        /* \"#utility.yul\":11415:11420   */\n      dup4\n        /* \"#utility.yul\":11411:11427   */\n      add\n        /* \"#utility.yul\":11405:11428   */\n      mload\n        /* \"#utility.yul\":11441:11504   */\n      tag_561\n        /* \"#utility.yul\":11498:11502   */\n      0x40\n        /* \"#utility.yul\":11493:11496   */\n      dup7\n        /* \"#utility.yul\":11489:11503   */\n      add\n        /* \"#utility.yul\":11475:11487   */\n      dup3\n        /* \"#utility.yul\":11441:11504   */\n      tag_484\n      jump\t// in\n    tag_561:\n        /* \"#utility.yul\":11352:11514   */\n      pop\n        /* \"#utility.yul\":11603:11607   */\n      0x60\n        /* \"#utility.yul\":11596:11601   */\n      dup4\n        /* \"#utility.yul\":11592:11608   */\n      add\n        /* \"#utility.yul\":11586:11609   */\n      mload\n        /* \"#utility.yul\":11656:11659   */\n      dup5\n        /* \"#utility.yul\":11650:11654   */\n      dup3\n        /* \"#utility.yul\":11646:11660   */\n      sub\n        /* \"#utility.yul\":11639:11643   */\n      0x60\n        /* \"#utility.yul\":11634:11637   */\n      dup7\n        /* \"#utility.yul\":11630:11644   */\n      add\n        /* \"#utility.yul\":11623:11661   */\n      mstore\n        /* \"#utility.yul\":11682:11755   */\n      tag_562\n        /* \"#utility.yul\":11750:11754   */\n      dup3\n        /* \"#utility.yul\":11736:11748   */\n      dup3\n        /* \"#utility.yul\":11682:11755   */\n      tag_505\n      jump\t// in\n    tag_562:\n        /* \"#utility.yul\":11674:11755   */\n      swap2\n      pop\n        /* \"#utility.yul\":11524:11766   */\n      pop\n        /* \"#utility.yul\":11857:11861   */\n      0x80\n        /* \"#utility.yul\":11850:11855   */\n      dup4\n        /* \"#utility.yul\":11846:11862   */\n      add\n        /* \"#utility.yul\":11840:11863   */\n      mload\n        /* \"#utility.yul\":11910:11913   */\n      dup5\n        /* \"#utility.yul\":11904:11908   */\n      dup3\n        /* \"#utility.yul\":11900:11914   */\n      sub\n        /* \"#utility.yul\":11893:11897   */\n      0x80\n        /* \"#utility.yul\":11888:11891   */\n      dup7\n        /* \"#utility.yul\":11884:11898   */\n      add\n        /* \"#utility.yul\":11877:11915   */\n      mstore\n        /* \"#utility.yul\":11936:12009   */\n      tag_563\n        /* \"#utility.yul\":12004:12008   */\n      dup3\n        /* \"#utility.yul\":11990:12002   */\n      dup3\n        /* \"#utility.yul\":11936:12009   */\n      tag_505\n      jump\t// in\n    tag_563:\n        /* \"#utility.yul\":11928:12009   */\n      swap2\n      pop\n        /* \"#utility.yul\":11776:12020   */\n      pop\n        /* \"#utility.yul\":12110:12114   */\n      0xa0\n        /* \"#utility.yul\":12103:12108   */\n      dup4\n        /* \"#utility.yul\":12099:12115   */\n      add\n        /* \"#utility.yul\":12093:12116   */\n      mload\n        /* \"#utility.yul\":12129:12188   */\n      tag_564\n        /* \"#utility.yul\":12182:12186   */\n      0xa0\n        /* \"#utility.yul\":12177:12180   */\n      dup7\n        /* \"#utility.yul\":12173:12187   */\n      add\n        /* \"#utility.yul\":12159:12171   */\n      dup3\n        /* \"#utility.yul\":12129:12188   */\n      tag_565\n      jump\t// in\n    tag_564:\n        /* \"#utility.yul\":12030:12198   */\n      pop\n        /* \"#utility.yul\":12290:12294   */\n      0xc0\n        /* \"#utility.yul\":12283:12288   */\n      dup4\n        /* \"#utility.yul\":12279:12295   */\n      add\n        /* \"#utility.yul\":12273:12296   */\n      mload\n        /* \"#utility.yul\":12309:12368   */\n      tag_566\n        /* \"#utility.yul\":12362:12366   */\n      0xc0\n        /* \"#utility.yul\":12357:12360   */\n      dup7\n        /* \"#utility.yul\":12353:12367   */\n      add\n        /* \"#utility.yul\":12339:12351   */\n      dup3\n        /* \"#utility.yul\":12309:12368   */\n      tag_565\n      jump\t// in\n    tag_566:\n        /* \"#utility.yul\":12208:12378   */\n      pop\n        /* \"#utility.yul\":12395:12399   */\n      dup1\n        /* \"#utility.yul\":12388:12399   */\n      swap2\n      pop\n        /* \"#utility.yul\":10960:12405   */\n      pop\n        /* \"#utility.yul\":10840:12405   */\n      swap3\n      swap2\n      pop\n      pop\n      jump\t// out\n        /* \"#utility.yul\":12411:12519   */\n    tag_559:\n        /* \"#utility.yul\":12488:12512   */\n      tag_568\n        /* \"#utility.yul\":12506:12511   */\n      dup2\n        /* \"#utility.yul\":12488:12512   */\n      tag_569\n      jump\t// in\n    tag_568:\n        /* \"#utility.yul\":12483:12486   */\n      dup3\n        /* \"#utility.yul\":12476:12513   */\n      mstore\n        /* \"#utility.yul\":12411:12519   */\n      pop\n      pop\n      jump\t// out\n        /* \"#utility.yul\":12525:12643   */\n    tag_570:\n        /* \"#utility.yul\":12612:12636   */\n      tag_572\n        /* \"#utility.yul\":12630:12635   */\n      dup2\n        /* \"#utility.yul\":12612:12636   */\n      tag_569\n      jump\t// in\n    tag_572:\n        /* \"#utility.yul\":12607:12610   */\n      dup3\n        /* \"#utility.yul\":12600:12637   */\n      mstore\n        /* \"#utility.yul\":12525:12643   */\n      pop\n      pop\n      jump\t// out\n        /* \"#utility.yul\":12649:12751   */\n    tag_565:\n        /* \"#utility.yul\":12722:12744   */\n      tag_574\n        /* \"#utility.yul\":12738:12743   */\n      dup2\n        /* \"#utility.yul\":12722:12744   */\n      tag_575\n      jump\t// in\n    tag_574:\n        /* \"#utility.yul\":12717:12720   */\n      dup3\n        /* \"#utility.yul\":12710:12745   */\n      mstore\n        /* \"#utility.yul\":12649:12751   */\n      pop\n      pop\n      jump\t// out\n        /* \"#utility.yul\":12757:12869   */\n    tag_576:\n        /* \"#utility.yul\":12840:12862   */\n      tag_578\n        /* \"#utility.yul\":12856:12861   */\n      dup2\n        /* \"#utility.yul\":12840:12862   */\n      tag_575\n      jump\t// in\n    tag_578:\n        /* \"#utility.yul\":12835:12838   */\n      dup3\n        /* \"#utility.yul\":12828:12863   */\n      mstore\n        /* \"#utility.yul\":12757:12869   */\n      pop\n      pop\n      jump\t// out\n        /* \"#utility.yul\":12875:13150   */\n    tag_383:\n        /* \"#utility.yul\":13007:13010   */\n      0x00\n        /* \"#utility.yul\":13029:13124   */\n      tag_580\n        /* \"#utility.yul\":13120:13123   */\n      dup3\n        /* \"#utility.yul\":13111:13117   */\n      dup5\n        /* \"#utility.yul\":13029:13124   */\n      tag_515\n      jump\t// in\n    tag_580:\n        /* \"#utility.yul\":13022:13124   */\n      swap2\n      pop\n        /* \"#utility.yul\":13141:13144   */\n      dup2\n        /* \"#utility.yul\":13134:13144   */\n      swap1\n      pop\n        /* \"#utility.yul\":12875:13150   */\n      swap3\n      swap2\n      pop\n      pop\n      jump\t// out\n        /* \"#utility.yul\":13156:13378   */\n    tag_39:\n        /* \"#utility.yul\":13249:13253   */\n      0x00\n        /* \"#utility.yul\":13287:13289   */\n      0x20\n        /* \"#utility.yul\":13276:13285   */\n      dup3\n        /* \"#utility.yul\":13272:13290   */\n      add\n        /* \"#utility.yul\":13264:13290   */\n      swap1\n      pop\n        /* \"#utility.yul\":13300:13371   */\n      tag_582\n        /* \"#utility.yul\":13368:13369   */\n      0x00\n        /* \"#utility.yul\":13357:13366   */\n      dup4\n        /* \"#utility.yul\":13353:13370   */\n      add\n        /* \"#utility.yul\":13344:13350   */\n      dup5\n        /* \"#utility.yul\":13300:13371   */\n      tag_488\n      jump\t// in\n    tag_582:\n        /* \"#utility.yul\":13156:13378   */\n      swap3\n      swap2\n      pop\n      pop\n      jump\t// out\n        /* \"#utility.yul\":13384:13869   */\n    tag_25:\n        /* \"#utility.yul\":13583:13587   */\n      0x00\n        /* \"#utility.yul\":13621:13623   */\n      0x20\n        /* \"#utility.yul\":13610:13619   */\n      dup3\n        /* \"#utility.yul\":13606:13624   */\n      add\n        /* \"#utility.yul\":13598:13624   */\n      swap1\n      pop\n        /* \"#utility.yul\":13670:13679   */\n      dup2\n        /* \"#utility.yul\":13664:13668   */\n      dup2\n        /* \"#utility.yul\":13660:13680   */\n      sub\n        /* \"#utility.yul\":13656:13657   */\n      0x00\n        /* \"#utility.yul\":13645:13654   */\n      dup4\n        /* \"#utility.yul\":13641:13658   */\n      add\n        /* \"#utility.yul\":13634:13681   */\n      mstore\n        /* \"#utility.yul\":13698:13862   */\n      tag_584\n        /* \"#utility.yul\":13857:13861   */\n      dup2\n        /* \"#utility.yul\":13848:13854   */\n      dup5\n        /* \"#utility.yul\":13698:13862   */\n      tag_491\n      jump\t// in\n    tag_584:\n        /* \"#utility.yul\":13690:13862   */\n      swap1\n      pop\n        /* \"#utility.yul\":13384:13869   */\n      swap3\n      swap2\n      pop\n      pop\n      jump\t// out\n        /* \"#utility.yul\":13875:14294   */\n    tag_372:\n        /* \"#utility.yul\":14041:14045   */\n      0x00\n        /* \"#utility.yul\":14079:14081   */\n      0x20\n        /* \"#utility.yul\":14068:14077   */\n      dup3\n        /* \"#utility.yul\":14064:14082   */\n      add\n        /* \"#utility.yul\":14056:14082   */\n      swap1\n      pop\n        /* \"#utility.yul\":14128:14137   */\n      dup2\n        /* \"#utility.yul\":14122:14126   */\n      dup2\n        /* \"#utility.yul\":14118:14138   */\n      sub\n        /* \"#utility.yul\":14114:14115   */\n      0x00\n        /* \"#utility.yul\":14103:14112   */\n      dup4\n        /* \"#utility.yul\":14099:14116   */\n      add\n        /* \"#utility.yul\":14092:14139   */\n      mstore\n        /* \"#utility.yul\":14156:14287   */\n      tag_586\n        /* \"#utility.yul\":14282:14286   */\n      dup2\n        /* \"#utility.yul\":14156:14287   */\n      tag_521\n      jump\t// in\n    tag_586:\n        /* \"#utility.yul\":14148:14287   */\n      swap1\n      pop\n        /* \"#utility.yul\":13875:14294   */\n      swap2\n      swap1\n      pop\n      jump\t// out\n        /* \"#utility.yul\":14300:14719   */\n    tag_176:\n        /* \"#utility.yul\":14466:14470   */\n      0x00\n        /* \"#utility.yul\":14504:14506   */\n      0x20\n        /* \"#utility.yul\":14493:14502   */\n      dup3\n        /* \"#utility.yul\":14489:14507   */\n      add\n        /* \"#utility.yul\":14481:14507   */\n      swap1\n      pop\n        /* \"#utility.yul\":14553:14562   */\n      dup2\n        /* \"#utility.yul\":14547:14551   */\n      dup2\n        /* \"#utility.yul\":14543:14563   */\n      sub\n        /* \"#utility.yul\":14539:14540   */\n      0x00\n        /* \"#utility.yul\":14528:14537   */\n      dup4\n        /* \"#utility.yul\":14524:14541   */\n      add\n        /* \"#utility.yul\":14517:14564   */\n      mstore\n        /* \"#utility.yul\":14581:14712   */\n      tag_588\n        /* \"#utility.yul\":14707:14711   */\n      dup2\n        /* \"#utility.yul\":14581:14712   */\n      tag_527\n      jump\t// in\n    tag_588:\n        /* \"#utility.yul\":14573:14712   */\n      swap1\n      pop\n        /* \"#utility.yul\":14300:14719   */\n      swap2\n      swap1\n      pop\n      jump\t// out\n        /* \"#utility.yul\":14725:15144   */\n    tag_103:\n        /* \"#utility.yul\":14891:14895   */\n      0x00\n        /* \"#utility.yul\":14929:14931   */\n      0x20\n        /* \"#utility.yul\":14918:14927   */\n      dup3\n        /* \"#utility.yul\":14914:14932   */\n      add\n        /* \"#utility.yul\":14906:14932   */\n      swap1\n      pop\n        /* \"#utility.yul\":14978:14987   */\n      dup2\n        /* \"#utility.yul\":14972:14976   */\n      dup2\n        /* \"#utility.yul\":14968:14988   */\n      sub\n        /* \"#utility.yul\":14964:14965   */\n      0x00\n        /* \"#utility.yul\":14953:14962   */\n      dup4\n        /* \"#utility.yul\":14949:14966   */\n      add\n        /* \"#utility.yul\":14942:14989   */\n      mstore\n        /* \"#utility.yul\":15006:15137   */\n      tag_590\n        /* \"#utility.yul\":15132:15136   */\n      dup2\n        /* \"#utility.yul\":15006:15137   */\n      tag_532\n      jump\t// in\n    tag_590:\n        /* \"#utility.yul\":14998:15137   */\n      swap1\n      pop\n        /* \"#utility.yul\":14725:15144   */\n      swap2\n      swap1\n      pop\n      jump\t// out\n        /* \"#utility.yul\":15150:15569   */\n    tag_83:\n        /* \"#utility.yul\":15316:15320   */\n      0x00\n        /* \"#utility.yul\":15354:15356   */\n      0x20\n        /* \"#utility.yul\":15343:15352   */\n      dup3\n        /* \"#utility.yul\":15339:15357   */\n      add\n        /* \"#utility.yul\":15331:15357   */\n      swap1\n      pop\n        /* \"#utility.yul\":15403:15412   */\n      dup2\n        /* \"#utility.yul\":15397:15401   */\n      dup2\n        /* \"#utility.yul\":15393:15413   */\n      sub\n        /* \"#utility.yul\":15389:15390   */\n      0x00\n        /* \"#utility.yul\":15378:15387   */\n      dup4\n        /* \"#utility.yul\":15374:15391   */\n      add\n        /* \"#utility.yul\":15367:15414   */\n      mstore\n        /* \"#utility.yul\":15431:15562   */\n      tag_592\n        /* \"#utility.yul\":15557:15561   */\n      dup2\n        /* \"#utility.yul\":15431:15562   */\n      tag_537\n      jump\t// in\n    tag_592:\n        /* \"#utility.yul\":15423:15562   */\n      swap1\n      pop\n        /* \"#utility.yul\":15150:15569   */\n      swap2\n      swap1\n      pop\n      jump\t// out\n        /* \"#utility.yul\":15575:15994   */\n    tag_380:\n        /* \"#utility.yul\":15741:15745   */\n      0x00\n        /* \"#utility.yul\":15779:15781   */\n      0x20\n        /* \"#utility.yul\":15768:15777   */\n      dup3\n        /* \"#utility.yul\":15764:15782   */\n      add\n        /* \"#utility.yul\":15756:15782   */\n      swap1\n      pop\n        /* \"#utility.yul\":15828:15837   */\n      dup2\n        /* \"#utility.yul\":15822:15826   */\n      dup2\n        /* \"#utility.yul\":15818:15838   */\n      sub\n        /* \"#utility.yul\":15814:15815   */\n      0x00\n        /* \"#utility.yul\":15803:15812   */\n      dup4\n        /* \"#utility.yul\":15799:15816   */\n      add\n        /* \"#utility.yul\":15792:15839   */\n      mstore\n        /* \"#utility.yul\":15856:15987   */\n      tag_594\n        /* \"#utility.yul\":15982:15986   */\n      dup2\n        /* \"#utility.yul\":15856:15987   */\n      tag_542\n      jump\t// in\n    tag_594:\n        /* \"#utility.yul\":15848:15987   */\n      swap1\n      pop\n        /* \"#utility.yul\":15575:15994   */\n      swap2\n      swap1\n      pop\n      jump\t// out\n        /* \"#utility.yul\":16000:16419   */\n    tag_289:\n        /* \"#utility.yul\":16166:16170   */\n      0x00\n        /* \"#utility.yul\":16204:16206   */\n      0x20\n        /* \"#utility.yul\":16193:16202   */\n      dup3\n        /* \"#utility.yul\":16189:16207   */\n      add\n        /* \"#utility.yul\":16181:16207   */\n      swap1\n      pop\n        /* \"#utility.yul\":16253:16262   */\n      dup2\n        /* \"#utility.yul\":16247:16251   */\n      dup2\n        /* \"#utility.yul\":16243:16263   */\n      sub\n        /* \"#utility.yul\":16239:16240   */\n      0x00\n        /* \"#utility.yul\":16228:16237   */\n      dup4\n        /* \"#utility.yul\":16224:16241   */\n      add\n        /* \"#utility.yul\":16217:16264   */\n      mstore\n        /* \"#utility.yul\":16281:16412   */\n      tag_596\n        /* \"#utility.yul\":16407:16411   */\n      dup2\n        /* \"#utility.yul\":16281:16412   */\n      tag_547\n      jump\t// in\n    tag_596:\n        /* \"#utility.yul\":16273:16412   */\n      swap1\n      pop\n        /* \"#utility.yul\":16000:16419   */\n      swap2\n      swap1\n      pop\n      jump\t// out\n        /* \"#utility.yul\":16425:16844   */\n    tag_286:\n        /* \"#utility.yul\":16591:16595   */\n      0x00\n        /* \"#utility.yul\":16629:16631   */\n      0x20\n        /* \"#utility.yul\":16618:16627   */\n      dup3\n        /* \"#utility.yul\":16614:16632   */\n      add\n        /* \"#utility.yul\":16606:16632   */\n      swap1\n      pop\n        /* \"#utility.yul\":16678:16687   */\n      dup2\n        /* \"#utility.yul\":16672:16676   */\n      dup2\n        /* \"#utility.yul\":16668:16688   */\n      sub\n        /* \"#utility.yul\":16664:16665   */\n      0x00\n        /* \"#utility.yul\":16653:16662   */\n      dup4\n        /* \"#utility.yul\":16649:16666   */\n      add\n        /* \"#utility.yul\":16642:16689   */\n      mstore\n        /* \"#utility.yul\":16706:16837   */\n      tag_598\n        /* \"#utility.yul\":16832:16836   */\n      dup2\n        /* \"#utility.yul\":16706:16837   */\n      tag_552\n      jump\t// in\n    tag_598:\n        /* \"#utility.yul\":16698:16837   */\n      swap1\n      pop\n        /* \"#utility.yul\":16425:16844   */\n      swap2\n      swap1\n      pop\n      jump\t// out\n        /* \"#utility.yul\":16850:17072   */\n    tag_48:\n        /* \"#utility.yul\":16943:16947   */\n      0x00\n        /* \"#utility.yul\":16981:16983   */\n      0x20\n        /* \"#utility.yul\":16970:16979   */\n      dup3\n        /* \"#utility.yul\":16966:16984   */\n      add\n        /* \"#utility.yul\":16958:16984   */\n      swap1\n      pop\n        /* \"#utility.yul\":16994:17065   */\n      tag_600\n        /* \"#utility.yul\":17062:17063   */\n      0x00\n        /* \"#utility.yul\":17051:17060   */\n      dup4\n        /* \"#utility.yul\":17047:17064   */\n      add\n        /* \"#utility.yul\":17038:17044   */\n      dup5\n        /* \"#utility.yul\":16994:17065   */\n      tag_570\n      jump\t// in\n    tag_600:\n        /* \"#utility.yul\":16850:17072   */\n      swap3\n      swap2\n      pop\n      pop\n      jump\t// out\n        /* \"#utility.yul\":17078:17504   */\n    tag_99:\n        /* \"#utility.yul\":17219:17223   */\n      0x00\n        /* \"#utility.yul\":17257:17259   */\n      0x60\n        /* \"#utility.yul\":17246:17255   */\n      dup3\n        /* \"#utility.yul\":17242:17260   */\n      add\n        /* \"#utility.yul\":17234:17260   */\n      swap1\n      pop\n        /* \"#utility.yul\":17270:17341   */\n      tag_602\n        /* \"#utility.yul\":17338:17339   */\n      0x00\n        /* \"#utility.yul\":17327:17336   */\n      dup4\n        /* \"#utility.yul\":17323:17340   */\n      add\n        /* \"#utility.yul\":17314:17320   */\n      dup7\n        /* \"#utility.yul\":17270:17341   */\n      tag_570\n      jump\t// in\n    tag_602:\n        /* \"#utility.yul\":17351:17419   */\n      tag_603\n        /* \"#utility.yul\":17415:17417   */\n      0x20\n        /* \"#utility.yul\":17404:17413   */\n      dup4\n        /* \"#utility.yul\":17400:17418   */\n      add\n        /* \"#utility.yul\":17391:17397   */\n      dup6\n        /* \"#utility.yul\":17351:17419   */\n      tag_576\n      jump\t// in\n    tag_603:\n        /* \"#utility.yul\":17429:17497   */\n      tag_604\n        /* \"#utility.yul\":17493:17495   */\n      0x40\n        /* \"#utility.yul\":17482:17491   */\n      dup4\n        /* \"#utility.yul\":17478:17496   */\n      add\n        /* \"#utility.yul\":17469:17475   */\n      dup5\n        /* \"#utility.yul\":17429:17497   */\n      tag_576\n      jump\t// in\n    tag_604:\n        /* \"#utility.yul\":17078:17504   */\n      swap5\n      swap4\n      pop\n      pop\n      pop\n      pop\n      jump\t// out\n        /* \"#utility.yul\":17510:17639   */\n    tag_405:\n        /* \"#utility.yul\":17544:17550   */\n      0x00\n        /* \"#utility.yul\":17571:17591   */\n      tag_606\n      tag_607\n      jump\t// in\n    tag_606:\n        /* \"#utility.yul\":17561:17591   */\n      swap1\n      pop\n        /* \"#utility.yul\":17600:17633   */\n      tag_608\n        /* \"#utility.yul\":17628:17632   */\n      dup3\n        /* \"#utility.yul\":17620:17626   */\n      dup3\n        /* \"#utility.yul\":17600:17633   */\n      tag_609\n      jump\t// in\n    tag_608:\n        /* \"#utility.yul\":17510:17639   */\n      swap2\n      swap1\n      pop\n      jump\t// out\n        /* \"#utility.yul\":17645:17720   */\n    tag_607:\n        /* \"#utility.yul\":17678:17684   */\n      0x00\n        /* \"#utility.yul\":17711:17713   */\n      0x40\n        /* \"#utility.yul\":17705:17714   */\n      mload\n        /* \"#utility.yul\":17695:17714   */\n      swap1\n      pop\n        /* \"#utility.yul\":17645:17720   */\n      swap1\n      jump\t// out\n        /* \"#utility.yul\":17726:18034   */\n    tag_404:\n        /* \"#utility.yul\":17788:17792   */\n      0x00\n        /* \"#utility.yul\":17878:17896   */\n      0xffffffffffffffff\n        /* \"#utility.yul\":17870:17876   */\n      dup3\n        /* \"#utility.yul\":17867:17897   */\n      gt\n        /* \"#utility.yul\":17864:17920   */\n      iszero\n      tag_612\n      jumpi\n        /* \"#utility.yul\":17900:17918   */\n      tag_613\n      tag_112\n      jump\t// in\n    tag_613:\n        /* \"#utility.yul\":17864:17920   */\n    tag_612:\n        /* \"#utility.yul\":17938:17967   */\n      tag_614\n        /* \"#utility.yul\":17960:17966   */\n      dup3\n        /* \"#utility.yul\":17938:17967   */\n      tag_514\n      jump\t// in\n    tag_614:\n        /* \"#utility.yul\":17930:17967   */\n      swap1\n      pop\n        /* \"#utility.yul\":18022:18026   */\n      0x20\n        /* \"#utility.yul\":18016:18020   */\n      dup2\n        /* \"#utility.yul\":18012:18027   */\n      add\n        /* \"#utility.yul\":18004:18027   */\n      swap1\n      pop\n        /* \"#utility.yul\":17726:18034   */\n      swap2\n      swap1\n      pop\n      jump\t// out\n        /* \"#utility.yul\":18040:18200   */\n    tag_498:\n        /* \"#utility.yul\":18135:18139   */\n      0x00\n        /* \"#utility.yul\":18158:18161   */\n      dup2\n        /* \"#utility.yul\":18150:18161   */\n      swap1\n      pop\n        /* \"#utility.yul\":18188:18192   */\n      0x20\n        /* \"#utility.yul\":18183:18186   */\n      dup3\n        /* \"#utility.yul\":18179:18193   */\n      add\n        /* \"#utility.yul\":18171:18193   */\n      swap1\n      pop\n        /* \"#utility.yul\":18040:18200   */\n      swap2\n      swap1\n      pop\n      jump\t// out\n        /* \"#utility.yul\":18206:18348   */\n    tag_494:\n        /* \"#utility.yul\":18301:18307   */\n      0x00\n        /* \"#utility.yul\":18335:18340   */\n      dup2\n        /* \"#utility.yul\":18329:18341   */\n      mload\n        /* \"#utility.yul\":18319:18341   */\n      swap1\n      pop\n        /* \"#utility.yul\":18206:18348   */\n      swap2\n      swap1\n      pop\n      jump\t// out\n        /* \"#utility.yul\":18354:18453   */\n    tag_508:\n        /* \"#utility.yul\":18406:18412   */\n      0x00\n        /* \"#utility.yul\":18440:18445   */\n      dup2\n        /* \"#utility.yul\":18434:18446   */\n      mload\n        /* \"#utility.yul\":18424:18446   */\n      swap1\n      pop\n        /* \"#utility.yul\":18354:18453   */\n      swap2\n      swap1\n      pop\n      jump\t// out\n        /* \"#utility.yul\":18459:18600   */\n    tag_504:\n        /* \"#utility.yul\":18557:18561   */\n      0x00\n        /* \"#utility.yul\":18589:18593   */\n      0x20\n        /* \"#utility.yul\":18584:18587   */\n      dup3\n        /* \"#utility.yul\":18580:18594   */\n      add\n        /* \"#utility.yul\":18572:18594   */\n      swap1\n      pop\n        /* \"#utility.yul\":18459:18600   */\n      swap2\n      swap1\n      pop\n      jump\t// out\n        /* \"#utility.yul\":18606:18818   */\n    tag_496:\n        /* \"#utility.yul\":18733:18744   */\n      0x00\n        /* \"#utility.yul\":18767:18773   */\n      dup3\n        /* \"#utility.yul\":18762:18765   */\n      dup3\n        /* \"#utility.yul\":18755:18774   */\n      mstore\n        /* \"#utility.yul\":18807:18811   */\n      0x20\n        /* \"#utility.yul\":18802:18805   */\n      dup3\n        /* \"#utility.yul\":18798:18812   */\n      add\n        /* \"#utility.yul\":18783:18812   */\n      swap1\n      pop\n        /* \"#utility.yul\":18606:18818   */\n      swap3\n      swap2\n      pop\n      pop\n      jump\t// out\n        /* \"#utility.yul\":18824:18983   */\n    tag_510:\n        /* \"#utility.yul\":18898:18909   */\n      0x00\n        /* \"#utility.yul\":18932:18938   */\n      dup3\n        /* \"#utility.yul\":18927:18930   */\n      dup3\n        /* \"#utility.yul\":18920:18939   */\n      mstore\n        /* \"#utility.yul\":18972:18976   */\n      0x20\n        /* \"#utility.yul\":18967:18970   */\n      dup3\n        /* \"#utility.yul\":18963:18977   */\n      add\n        /* \"#utility.yul\":18948:18977   */\n      swap1\n      pop\n        /* \"#utility.yul\":18824:18983   */\n      swap3\n      swap2\n      pop\n      pop\n      jump\t// out\n        /* \"#utility.yul\":18989:19158   */\n    tag_524:\n        /* \"#utility.yul\":19073:19084   */\n      0x00\n        /* \"#utility.yul\":19107:19113   */\n      dup3\n        /* \"#utility.yul\":19102:19105   */\n      dup3\n        /* \"#utility.yul\":19095:19114   */\n      mstore\n        /* \"#utility.yul\":19147:19151   */\n      0x20\n        /* \"#utility.yul\":19142:19145   */\n      dup3\n        /* \"#utility.yul\":19138:19152   */\n      add\n        /* \"#utility.yul\":19123:19152   */\n      swap1\n      pop\n        /* \"#utility.yul\":18989:19158   */\n      swap3\n      swap2\n      pop\n      pop\n      jump\t// out\n        /* \"#utility.yul\":19164:19312   */\n    tag_519:\n        /* \"#utility.yul\":19266:19277   */\n      0x00\n        /* \"#utility.yul\":19303:19306   */\n      dup2\n        /* \"#utility.yul\":19288:19306   */\n      swap1\n      pop\n        /* \"#utility.yul\":19164:19312   */\n      swap3\n      swap2\n      pop\n      pop\n      jump\t// out\n        /* \"#utility.yul\":19318:19623   */\n    tag_109:\n        /* \"#utility.yul\":19358:19361   */\n      0x00\n        /* \"#utility.yul\":19377:19397   */\n      tag_624\n        /* \"#utility.yul\":19395:19396   */\n      dup3\n        /* \"#utility.yul\":19377:19397   */\n      tag_569\n      jump\t// in\n    tag_624:\n        /* \"#utility.yul\":19372:19397   */\n      swap2\n      pop\n        /* \"#utility.yul\":19411:19431   */\n      tag_625\n        /* \"#utility.yul\":19429:19430   */\n      dup4\n        /* \"#utility.yul\":19411:19431   */\n      tag_569\n      jump\t// in\n    tag_625:\n        /* \"#utility.yul\":19406:19431   */\n      swap3\n      pop\n        /* \"#utility.yul\":19565:19566   */\n      dup3\n        /* \"#utility.yul\":19497:19563   */\n      0xffffffffffffffffffffffffffffffffffffffffffffffffffffffffffffffff\n        /* \"#utility.yul\":19493:19567   */\n      sub\n        /* \"#utility.yul\":19490:19491   */\n      dup3\n        /* \"#utility.yul\":19487:19568   */\n      gt\n        /* \"#utility.yul\":19484:19591   */\n      iszero\n      tag_626\n      jumpi\n        /* \"#utility.yul\":19571:19589   */\n      tag_627\n      tag_628\n      jump\t// in\n    tag_627:\n        /* \"#utility.yul\":19484:19591   */\n    tag_626:\n        /* \"#utility.yul\":19615:19616   */\n      dup3\n        /* \"#utility.yul\":19612:19613   */\n      dup3\n        /* \"#utility.yul\":19608:19617   */\n      add\n        /* \"#utility.yul\":19601:19617   */\n      swap1\n      pop\n        /* \"#utility.yul\":19318:19623   */\n      swap3\n      swap2\n      pop\n      pop\n      jump\t// out\n        /* \"#utility.yul\":19629:19820   */\n    tag_107:\n        /* \"#utility.yul\":19669:19673   */\n      0x00\n        /* \"#utility.yul\":19689:19709   */\n      tag_630\n        /* \"#utility.yul\":19707:19708   */\n      dup3\n        /* \"#utility.yul\":19689:19709   */\n      tag_569\n      jump\t// in\n    tag_630:\n        /* \"#utility.yul\":19684:19709   */\n      swap2\n      pop\n        /* \"#utility.yul\":19723:19743   */\n      tag_631\n        /* \"#utility.yul\":19741:19742   */\n      dup4\n        /* \"#utility.yul\":19723:19743   */\n      tag_569\n      jump\t// in\n    tag_631:\n        /* \"#utility.yul\":19718:19743   */\n      swap3\n      pop\n        /* \"#utility.yul\":19762:19763   */\n      dup3\n        /* \"#utility.yul\":19759:19760   */\n      dup3\n        /* \"#utility.yul\":19756:19764   */\n      lt\n        /* \"#utility.yul\":19753:19787   */\n      iszero\n      tag_632\n      jumpi\n        /* \"#utility.yul\":19767:19785   */\n      tag_633\n      tag_628\n      jump\t// in\n    tag_633:\n        /* \"#utility.yul\":19753:19787   */\n    tag_632:\n        /* \"#utility.yul\":19812:19813   */\n      dup3\n        /* \"#utility.yul\":19809:19810   */\n      dup3\n        /* \"#utility.yul\":19805:19814   */\n      sub\n        /* \"#utility.yul\":19797:19814   */\n      swap1\n      pop\n        /* \"#utility.yul\":19629:19820   */\n      swap3\n      swap2\n      pop\n      pop\n      jump\t// out\n        /* \"#utility.yul\":19826:19922   */\n    tag_487:\n        /* \"#utility.yul\":19863:19870   */\n      0x00\n        /* \"#utility.yul\":19892:19916   */\n      tag_635\n        /* \"#utility.yul\":19910:19915   */\n      dup3\n        /* \"#utility.yul\":19892:19916   */\n      tag_636\n      jump\t// in\n    tag_635:\n        /* \"#utility.yul\":19881:19916   */\n      swap1\n      pop\n        /* \"#utility.yul\":19826:19922   */\n      swap2\n      swap1\n      pop\n      jump\t// out\n        /* \"#utility.yul\":19928:20018   */\n    tag_637:\n        /* \"#utility.yul\":19962:19969   */\n      0x00\n        /* \"#utility.yul\":20005:20010   */\n      dup2\n        /* \"#utility.yul\":19998:20011   */\n      iszero\n        /* \"#utility.yul\":19991:20012   */\n      iszero\n        /* \"#utility.yul\":19980:20012   */\n      swap1\n      pop\n        /* \"#utility.yul\":19928:20018   */\n      swap2\n      swap1\n      pop\n      jump\t// out\n        /* \"#utility.yul\":20024:20150   */\n    tag_636:\n        /* \"#utility.yul\":20061:20068   */\n      0x00\n        /* \"#utility.yul\":20101:20143   */\n      0xffffffffffffffffffffffffffffffffffffffff\n        /* \"#utility.yul\":20094:20099   */\n      dup3\n        /* \"#utility.yul\":20090:20144   */\n      and\n        /* \"#utility.yul\":20079:20144   */\n      swap1\n      pop\n        /* \"#utility.yul\":20024:20150   */\n      swap2\n      swap1\n      pop\n      jump\t// out\n        /* \"#utility.yul\":20156:20233   */\n    tag_569:\n        /* \"#utility.yul\":20193:20200   */\n      0x00\n        /* \"#utility.yul\":20222:20227   */\n      dup2\n        /* \"#utility.yul\":20211:20227   */\n      swap1\n      pop\n        /* \"#utility.yul\":20156:20233   */\n      swap2\n      swap1\n      pop\n      jump\t// out\n        /* \"#utility.yul\":20239:20325   */\n    tag_575:\n        /* \"#utility.yul\":20274:20281   */\n      0x00\n        /* \"#utility.yul\":20314:20318   */\n      0xff\n        /* \"#utility.yul\":20307:20312   */\n      dup3\n        /* \"#utility.yul\":20303:20319   */\n      and\n        /* \"#utility.yul\":20292:20319   */\n      swap1\n      pop\n        /* \"#utility.yul\":20239:20325   */\n      swap2\n      swap1\n      pop\n      jump\t// out\n        /* \"#utility.yul\":20331:20485   */\n    tag_410:\n        /* \"#utility.yul\":20415:20421   */\n      dup3\n        /* \"#utility.yul\":20410:20413   */\n      dup2\n        /* \"#utility.yul\":20405:20408   */\n      dup4\n        /* \"#utility.yul\":20392:20422   */\n      calldatacopy\n        /* \"#utility.yul\":20477:20478   */\n      0x00\n        /* \"#utility.yul\":20468:20474   */\n      dup4\n        /* \"#utility.yul\":20463:20466   */\n      dup4\n        /* \"#utility.yul\":20459:20475   */\n      add\n        /* \"#utility.yul\":20452:20479   */\n      mstore\n        /* \"#utility.yul\":20331:20485   */\n      pop\n      pop\n      pop\n      jump\t// out\n        /* \"#utility.yul\":20491:20798   */\n    tag_512:\n        /* \"#utility.yul\":20559:20560   */\n      0x00\n        /* \"#utility.yul\":20569:20682   */\n    tag_644:\n        /* \"#utility.yul\":20583:20589   */\n      dup4\n        /* \"#utility.yul\":20580:20581   */\n      dup2\n        /* \"#utility.yul\":20577:20590   */\n      lt\n        /* \"#utility.yul\":20569:20682   */\n      iszero\n      tag_646\n      jumpi\n        /* \"#utility.yul\":20668:20669   */\n      dup1\n        /* \"#utility.yul\":20663:20666   */\n      dup3\n        /* \"#utility.yul\":20659:20670   */\n      add\n        /* \"#utility.yul\":20653:20671   */\n      mload\n        /* \"#utility.yul\":20649:20650   */\n      dup2\n        /* \"#utility.yul\":20644:20647   */\n      dup5\n        /* \"#utility.yul\":20640:20651   */\n      add\n        /* \"#utility.yul\":20633:20672   */\n      mstore\n        /* \"#utility.yul\":20605:20607   */\n      0x20\n        /* \"#utility.yul\":20602:20603   */\n      dup2\n        /* \"#utility.yul\":20598:20608   */\n      add\n        /* \"#utility.yul\":20593:20608   */\n      swap1\n      pop\n        /* \"#utility.yul\":20569:20682   */\n      jump(tag_644)\n    tag_646:\n        /* \"#utility.yul\":20700:20706   */\n      dup4\n        /* \"#utility.yul\":20697:20698   */\n      dup2\n        /* \"#utility.yul\":20694:20707   */\n      gt\n        /* \"#utility.yul\":20691:20792   */\n      iszero\n      tag_647\n      jumpi\n        /* \"#utility.yul\":20780:20781   */\n      0x00\n        /* \"#utility.yul\":20771:20777   */\n      dup5\n        /* \"#utility.yul\":20766:20769   */\n      dup5\n        /* \"#utility.yul\":20762:20778   */\n      add\n        /* \"#utility.yul\":20755:20782   */\n      mstore\n        /* \"#utility.yul\":20691:20792   */\n    tag_647:\n        /* \"#utility.yul\":20540:20798   */\n      pop\n        /* \"#utility.yul\":20491:20798   */\n      pop\n      pop\n      pop\n      jump\t// out\n        /* \"#utility.yul\":20804:20975   */\n    tag_139:\n        /* \"#utility.yul\":20843:20846   */\n      0x00\n        /* \"#utility.yul\":20866:20890   */\n      tag_649\n        /* \"#utility.yul\":20884:20889   */\n      dup3\n        /* \"#utility.yul\":20866:20890   */\n      tag_569\n      jump\t// in\n    tag_649:\n        /* \"#utility.yul\":20857:20890   */\n      swap2\n      pop\n        /* \"#utility.yul\":20912:20916   */\n      0x00\n        /* \"#utility.yul\":20905:20910   */\n      dup3\n        /* \"#utility.yul\":20902:20917   */\n      eq\n        /* \"#utility.yul\":20899:20940   */\n      iszero\n      tag_650\n      jumpi\n        /* \"#utility.yul\":20920:20938   */\n      tag_651\n      tag_628\n      jump\t// in\n    tag_651:\n        /* \"#utility.yul\":20899:20940   */\n    tag_650:\n        /* \"#utility.yul\":20967:20968   */\n      0x01\n        /* \"#utility.yul\":20960:20965   */\n      dup3\n        /* \"#utility.yul\":20956:20969   */\n      sub\n        /* \"#utility.yul\":20949:20969   */\n      swap1\n      pop\n        /* \"#utility.yul\":20804:20975   */\n      swap2\n      swap1\n      pop\n      jump\t// out\n        /* \"#utility.yul\":20981:21301   */\n    tag_75:\n        /* \"#utility.yul\":21025:21031   */\n      0x00\n        /* \"#utility.yul\":21062:21063   */\n      0x02\n        /* \"#utility.yul\":21056:21060   */\n      dup3\n        /* \"#utility.yul\":21052:21064   */\n      div\n        /* \"#utility.yul\":21042:21064   */\n      swap1\n      pop\n        /* \"#utility.yul\":21109:21110   */\n      0x01\n        /* \"#utility.yul\":21103:21107   */\n      dup3\n        /* \"#utility.yul\":21099:21111   */\n      and\n        /* \"#utility.yul\":21130:21148   */\n      dup1\n        /* \"#utility.yul\":21120:21201   */\n      tag_653\n      jumpi\n        /* \"#utility.yul\":21186:21190   */\n      0x7f\n        /* \"#utility.yul\":21178:21184   */\n      dup3\n        /* \"#utility.yul\":21174:21191   */\n      and\n        /* \"#utility.yul\":21164:21191   */\n      swap2\n      pop\n        /* \"#utility.yul\":21120:21201   */\n    tag_653:\n        /* \"#utility.yul\":21248:21250   */\n      0x20\n        /* \"#utility.yul\":21240:21246   */\n      dup3\n        /* \"#utility.yul\":21237:21251   */\n      lt\n        /* \"#utility.yul\":21217:21235   */\n      dup2\n        /* \"#utility.yul\":21214:21252   */\n      eq\n        /* \"#utility.yul\":21211:21295   */\n      iszero\n      tag_654\n      jumpi\n        /* \"#utility.yul\":21267:21285   */\n      tag_655\n      tag_656\n      jump\t// in\n    tag_655:\n        /* \"#utility.yul\":21211:21295   */\n    tag_654:\n        /* \"#utility.yul\":21032:21301   */\n      pop\n        /* \"#utility.yul\":20981:21301   */\n      swap2\n      swap1\n      pop\n      jump\t// out\n        /* \"#utility.yul\":21307:21588   */\n    tag_609:\n        /* \"#utility.yul\":21390:21417   */\n      tag_658\n        /* \"#utility.yul\":21412:21416   */\n      dup3\n        /* \"#utility.yul\":21390:21417   */\n      tag_514\n      jump\t// in\n    tag_658:\n        /* \"#utility.yul\":21382:21388   */\n      dup2\n        /* \"#utility.yul\":21378:21418   */\n      add\n        /* \"#utility.yul\":21520:21526   */\n      dup2\n        /* \"#utility.yul\":21508:21518   */\n      dup2\n        /* \"#utility.yul\":21505:21527   */\n      lt\n        /* \"#utility.yul\":21484:21502   */\n      0xffffffffffffffff\n        /* \"#utility.yul\":21472:21482   */\n      dup3\n        /* \"#utility.yul\":21469:21503   */\n      gt\n        /* \"#utility.yul\":21466:21528   */\n      or\n        /* \"#utility.yul\":21463:21551   */\n      iszero\n      tag_659\n      jumpi\n        /* \"#utility.yul\":21531:21549   */\n      tag_660\n      tag_112\n      jump\t// in\n    tag_660:\n        /* \"#utility.yul\":21463:21551   */\n    tag_659:\n        /* \"#utility.yul\":21571:21581   */\n      dup1\n        /* \"#utility.yul\":21567:21569   */\n      0x40\n        /* \"#utility.yul\":21560:21582   */\n      mstore\n        /* \"#utility.yul\":21350:21588   */\n      pop\n        /* \"#utility.yul\":21307:21588   */\n      pop\n      pop\n      jump\t// out\n        /* \"#utility.yul\":21594:21827   */\n    tag_137:\n        /* \"#utility.yul\":21633:21636   */\n      0x00\n        /* \"#utility.yul\":21656:21680   */\n      tag_662\n        /* \"#utility.yul\":21674:21679   */\n      dup3\n        /* \"#utility.yul\":21656:21680   */\n      tag_569\n      jump\t// in\n    tag_662:\n        /* \"#utility.yul\":21647:21680   */\n      swap2\n      pop\n        /* \"#utility.yul\":21702:21768   */\n      0xffffffffffffffffffffffffffffffffffffffffffffffffffffffffffffffff\n        /* \"#utility.yul\":21695:21700   */\n      dup3\n        /* \"#utility.yul\":21692:21769   */\n      eq\n        /* \"#utility.yul\":21689:21792   */\n      iszero\n      tag_663\n      jumpi\n        /* \"#utility.yul\":21772:21790   */\n      tag_664\n      tag_628\n      jump\t// in\n    tag_664:\n        /* \"#utility.yul\":21689:21792   */\n    tag_663:\n        /* \"#utility.yul\":21819:21820   */\n      0x01\n        /* \"#utility.yul\":21812:21817   */\n      dup3\n        /* \"#utility.yul\":21808:21821   */\n      add\n        /* \"#utility.yul\":21801:21821   */\n      swap1\n      pop\n        /* \"#utility.yul\":21594:21827   */\n      swap2\n      swap1\n      pop\n      jump\t// out\n        /* \"#utility.yul\":21833:22013   */\n    tag_628:\n        /* \"#utility.yul\":21881:21958   */\n      0x4e487b7100000000000000000000000000000000000000000000000000000000\n        /* \"#utility.yul\":21878:21879   */\n      0x00\n        /* \"#utility.yul\":21871:21959   */\n      mstore\n        /* \"#utility.yul\":21978:21982   */\n      0x11\n        /* \"#utility.yul\":21975:21976   */\n      0x04\n        /* \"#utility.yul\":21968:21983   */\n      mstore\n        /* \"#utility.yul\":22002:22006   */\n      0x24\n        /* \"#utility.yul\":21999:22000   */\n      0x00\n        /* \"#utility.yul\":21992:22007   */\n      revert\n        /* \"#utility.yul\":22019:22199   */\n    tag_656:\n        /* \"#utility.yul\":22067:22144   */\n      0x4e487b7100000000000000000000000000000000000000000000000000000000\n        /* \"#utility.yul\":22064:22065   */\n      0x00\n        /* \"#utility.yul\":22057:22145   */\n      mstore\n        /* \"#utility.yul\":22164:22168   */\n      0x22\n        /* \"#utility.yul\":22161:22162   */\n      0x04\n        /* \"#utility.yul\":22154:22169   */\n      mstore\n        /* \"#utility.yul\":22188:22192   */\n      0x24\n        /* \"#utility.yul\":22185:22186   */\n      0x00\n        /* \"#utility.yul\":22178:22193   */\n      revert\n        /* \"#utility.yul\":22205:22385   */\n    tag_72:\n        /* \"#utility.yul\":22253:22330   */\n      0x4e487b7100000000000000000000000000000000000000000000000000000000\n        /* \"#utility.yul\":22250:22251   */\n      0x00\n        /* \"#utility.yul\":22243:22331   */\n      mstore\n        /* \"#utility.yul\":22350:22354   */\n      0x32\n        /* \"#utility.yul\":22347:22348   */\n      0x04\n        /* \"#utility.yul\":22340:22355   */\n      mstore\n        /* \"#utility.yul\":22374:22378   */\n      0x24\n        /* \"#utility.yul\":22371:22372   */\n      0x00\n        /* \"#utility.yul\":22364:22379   */\n      revert\n        /* \"#utility.yul\":22391:22571   */\n    tag_112:\n        /* \"#utility.yul\":22439:22516   */\n      0x4e487b7100000000000000000000000000000000000000000000000000000000\n        /* \"#utility.yul\":22436:22437   */\n      0x00\n        /* \"#utility.yul\":22429:22517   */\n      mstore\n        /* \"#utility.yul\":22536:22540   */\n      0x41\n        /* \"#utility.yul\":22533:22534   */\n      0x04\n        /* \"#utility.yul\":22526:22541   */\n      mstore\n        /* \"#utility.yul\":22560:22564   */\n      0x24\n        /* \"#utility.yul\":22557:22558   */\n      0x00\n        /* \"#utility.yul\":22550:22565   */\n      revert\n        /* \"#utility.yul\":22577:22694   */\n    tag_423:\n        /* \"#utility.yul\":22686:22687   */\n      0x00\n        /* \"#utility.yul\":22683:22684   */\n      dup1\n        /* \"#utility.yul\":22676:22688   */\n      revert\n        /* \"#utility.yul\":22700:22817   */\n    tag_408:\n        /* \"#utility.yul\":22809:22810   */\n      0x00\n        /* \"#utility.yul\":22806:22807   */\n      dup1\n        /* \"#utility.yul\":22799:22811   */\n      revert\n        /* \"#utility.yul\":22823:22940   */\n    tag_445:\n        /* \"#utility.yul\":22932:22933   */\n      0x00\n        /* \"#utility.yul\":22929:22930   */\n      dup1\n        /* \"#utility.yul\":22922:22934   */\n      revert\n        /* \"#utility.yul\":22946:23063   */\n    tag_436:\n        /* \"#utility.yul\":23055:23056   */\n      0x00\n        /* \"#utility.yul\":23052:23053   */\n      dup1\n        /* \"#utility.yul\":23045:23057   */\n      revert\n        /* \"#utility.yul\":23069:23171   */\n    tag_514:\n        /* \"#utility.yul\":23110:23116   */\n      0x00\n        /* \"#utility.yul\":23161:23163   */\n      0x1f\n        /* \"#utility.yul\":23157:23164   */\n      not\n        /* \"#utility.yul\":23152:23154   */\n      0x1f\n        /* \"#utility.yul\":23145:23150   */\n      dup4\n        /* \"#utility.yul\":23141:23155   */\n      add\n        /* \"#utility.yul\":23137:23165   */\n      and\n        /* \"#utility.yul\":23127:23165   */\n      swap1\n      pop\n        /* \"#utility.yul\":23069:23171   */\n      swap2\n      swap1\n      pop\n      jump\t// out\n        /* \"#utility.yul\":23177:23402   */\n    tag_526:\n        /* \"#utility.yul\":23317:23351   */\n      0x4f776e61626c653a206e6577206f776e657220697320746865207a65726f2061\n        /* \"#utility.yul\":23313:23314   */\n      0x00\n        /* \"#utility.yul\":23305:23311   */\n      dup3\n        /* \"#utility.yul\":23301:23315   */\n      add\n        /* \"#utility.yul\":23294:23352   */\n      mstore\n        /* \"#utility.yul\":23386:23394   */\n      0x6464726573730000000000000000000000000000000000000000000000000000\n        /* \"#utility.yul\":23381:23383   */\n      0x20\n        /* \"#utility.yul\":23373:23379   */\n      dup3\n        /* \"#utility.yul\":23369:23384   */\n      add\n        /* \"#utility.yul\":23362:23395   */\n      mstore\n        /* \"#utility.yul\":23177:23402   */\n      pop\n      jump\t// out\n        /* \"#utility.yul\":23408:23645   */\n    tag_531:\n        /* \"#utility.yul\":23548:23582   */\n      0x43616e206e6f7420757064617465207472616e73616374696f6e20414d4c2073\n        /* \"#utility.yul\":23544:23545   */\n      0x00\n        /* \"#utility.yul\":23536:23542   */\n      dup3\n        /* \"#utility.yul\":23532:23546   */\n      add\n        /* \"#utility.yul\":23525:23583   */\n      mstore\n        /* \"#utility.yul\":23617:23637   */\n      0x74617475733a20616c7265616479207365740000000000000000000000000000\n        /* \"#utility.yul\":23612:23614   */\n      0x20\n        /* \"#utility.yul\":23604:23610   */\n      dup3\n        /* \"#utility.yul\":23600:23615   */\n      add\n        /* \"#utility.yul\":23593:23638   */\n      mstore\n        /* \"#utility.yul\":23408:23645   */\n      pop\n      jump\t// out\n        /* \"#utility.yul\":23651:23943   */\n    tag_536:\n        /* \"#utility.yul\":23791:23825   */\n      0x43616e206e6f7420676574207472616e73616374696f6e73206c6973742e2054\n        /* \"#utility.yul\":23787:23788   */\n      0x00\n        /* \"#utility.yul\":23779:23785   */\n      dup3\n        /* \"#utility.yul\":23775:23789   */\n      add\n        /* \"#utility.yul\":23768:23826   */\n      mstore\n        /* \"#utility.yul\":23860:23894   */\n      0x6865206d6178696d756d207472616e73616374696f6e7320636f756e74206973\n        /* \"#utility.yul\":23855:23857   */\n      0x20\n        /* \"#utility.yul\":23847:23853   */\n      dup3\n        /* \"#utility.yul\":23843:23858   */\n      add\n        /* \"#utility.yul\":23836:23895   */\n      mstore\n        /* \"#utility.yul\":23929:23935   */\n      0x2031303000000000000000000000000000000000000000000000000000000000\n        /* \"#utility.yul\":23924:23926   */\n      0x40\n        /* \"#utility.yul\":23916:23922   */\n      dup3\n        /* \"#utility.yul\":23912:23927   */\n      add\n        /* \"#utility.yul\":23905:23936   */\n      mstore\n        /* \"#utility.yul\":23651:23943   */\n      pop\n      jump\t// out\n        /* \"#utility.yul\":23949:24121   */\n    tag_541:\n        /* \"#utility.yul\":24089:24113   */\n      0x4f6e6c7920666f7220636f6d706c6574656420414d4c00000000000000000000\n        /* \"#utility.yul\":24085:24086   */\n      0x00\n        /* \"#utility.yul\":24077:24083   */\n      dup3\n        /* \"#utility.yul\":24073:24087   */\n      add\n        /* \"#utility.yul\":24066:24114   */\n      mstore\n        /* \"#utility.yul\":23949:24121   */\n      pop\n      jump\t// out\n        /* \"#utility.yul\":24127:24309   */\n    tag_546:\n        /* \"#utility.yul\":24267:24301   */\n      0x4f776e61626c653a2063616c6c6572206973206e6f7420746865206f776e6572\n        /* \"#utility.yul\":24263:24264   */\n      0x00\n        /* \"#utility.yul\":24255:24261   */\n      dup3\n        /* \"#utility.yul\":24251:24265   */\n      add\n        /* \"#utility.yul\":24244:24302   */\n      mstore\n        /* \"#utility.yul\":24127:24309   */\n      pop\n      jump\t// out\n        /* \"#utility.yul\":24315:24541   */\n    tag_551:\n        /* \"#utility.yul\":24455:24489   */\n      0x43616e206e6f74207570646174652072656365697665722e20496e76616c6964\n        /* \"#utility.yul\":24451:24452   */\n      0x00\n        /* \"#utility.yul\":24443:24449   */\n      dup3\n        /* \"#utility.yul\":24439:24453   */\n      add\n        /* \"#utility.yul\":24432:24490   */\n      mstore\n        /* \"#utility.yul\":24524:24533   */\n      0x2073656e64657200000000000000000000000000000000000000000000000000\n        /* \"#utility.yul\":24519:24521   */\n      0x20\n        /* \"#utility.yul\":24511:24517   */\n      dup3\n        /* \"#utility.yul\":24507:24522   */\n      add\n        /* \"#utility.yul\":24500:24534   */\n      mstore\n        /* \"#utility.yul\":24315:24541   */\n      pop\n      jump\t// out\n        /* \"#utility.yul\":24547:24795   */\n    tag_556:\n        /* \"#utility.yul\":24687:24721   */\n      0x43616e206e6f74207570646174652072656365697665722e205472616e736163\n        /* \"#utility.yul\":24683:24684   */\n      0x00\n        /* \"#utility.yul\":24675:24681   */\n      dup3\n        /* \"#utility.yul\":24671:24685   */\n      add\n        /* \"#utility.yul\":24664:24722   */\n      mstore\n        /* \"#utility.yul\":24756:24787   */\n      0x74696f6e20616c726561647920686173206265656e2075706461746564000000\n        /* \"#utility.yul\":24751:24753   */\n      0x20\n        /* \"#utility.yul\":24743:24749   */\n      dup3\n        /* \"#utility.yul\":24739:24754   */\n      add\n        /* \"#utility.yul\":24732:24788   */\n      mstore\n        /* \"#utility.yul\":24547:24795   */\n      pop\n      jump\t// out\n        /* \"#utility.yul\":24801:24923   */\n    tag_414:\n        /* \"#utility.yul\":24874:24898   */\n      tag_682\n        /* \"#utility.yul\":24892:24897   */\n      dup2\n        /* \"#utility.yul\":24874:24898   */\n      tag_487\n      jump\t// in\n    tag_682:\n        /* \"#utility.yul\":24867:24872   */\n      dup2\n        /* \"#utility.yul\":24864:24899   */\n      eq\n        /* \"#utility.yul\":24854:24917   */\n      tag_683\n      jumpi\n        /* \"#utility.yul\":24913:24914   */\n      0x00\n        /* \"#utility.yul\":24910:24911   */\n      dup1\n        /* \"#utility.yul\":24903:24915   */\n      revert\n        /* \"#utility.yul\":24854:24917   */\n    tag_683:\n        /* \"#utility.yul\":24801:24923   */\n      pop\n      jump\t// out\n        /* \"#utility.yul\":24929:25045   */\n    tag_418:\n        /* \"#utility.yul\":24999:25020   */\n      tag_685\n        /* \"#utility.yul\":25014:25019   */\n      dup2\n        /* \"#utility.yul\":24999:25020   */\n      tag_637\n      jump\t// in\n    tag_685:\n        /* \"#utility.yul\":24992:24997   */\n      dup2\n        /* \"#utility.yul\":24989:25021   */\n      eq\n        /* \"#utility.yul\":24979:25039   */\n      tag_686\n      jumpi\n        /* \"#utility.yul\":25035:25036   */\n      0x00\n        /* \"#utility.yul\":25032:25033   */\n      dup1\n        /* \"#utility.yul\":25025:25037   */\n      revert\n        /* \"#utility.yul\":24979:25039   */\n    tag_686:\n        /* \"#utility.yul\":24929:25045   */\n      pop\n      jump\t// out\n        /* \"#utility.yul\":25051:25173   */\n    tag_428:\n        /* \"#utility.yul\":25124:25148   */\n      tag_688\n        /* \"#utility.yul\":25142:25147   */\n      dup2\n        /* \"#utility.yul\":25124:25148   */\n      tag_569\n      jump\t// in\n    tag_688:\n        /* \"#utility.yul\":25117:25122   */\n      dup2\n        /* \"#utility.yul\":25114:25149   */\n      eq\n        /* \"#utility.yul\":25104:25167   */\n      tag_689\n      jumpi\n        /* \"#utility.yul\":25163:25164   */\n      0x00\n        /* \"#utility.yul\":25160:25161   */\n      dup1\n        /* \"#utility.yul\":25153:25165   */\n      revert\n        /* \"#utility.yul\":25104:25167   */\n    tag_689:\n        /* \"#utility.yul\":25051:25173   */\n      pop\n      jump\t// out\n        /* \"#utility.yul\":25179:25297   */\n    tag_432:\n        /* \"#utility.yul\":25250:25272   */\n      tag_691\n        /* \"#utility.yul\":25266:25271   */\n      dup2\n        /* \"#utility.yul\":25250:25272   */\n      tag_575\n      jump\t// in\n    tag_691:\n        /* \"#utility.yul\":25243:25248   */\n      dup2\n        /* \"#utility.yul\":25240:25273   */\n      eq\n        /* \"#utility.yul\":25230:25291   */\n      tag_692\n      jumpi\n        /* \"#utility.yul\":25287:25288   */\n      0x00\n        /* \"#utility.yul\":25284:25285   */\n      dup1\n        /* \"#utility.yul\":25277:25289   */\n      revert\n        /* \"#utility.yul\":25230:25291   */\n    tag_692:\n        /* \"#utility.yul\":25179:25297   */\n      pop\n      jump\t// out\n\n    auxdata: 0xa2646970667358221220be7be2aa2093781f2ae072416b29252ed8b88164643c0acc9e69f11b33e3e30764736f6c63430008070033\n}\n",
				"bytecode": {
					"linkReferences": {},
					"object": "60806040523480156200001157600080fd5b5062000032620000266200003860201b60201c565b6200004060201b60201c565b62000104565b600033905090565b60008060009054906101000a900473ffffffffffffffffffffffffffffffffffffffff169050816000806101000a81548173ffffffffffffffffffffffffffffffffffffffff021916908373ffffffffffffffffffffffffffffffffffffffff1602179055508173ffffffffffffffffffffffffffffffffffffffff168173ffffffffffffffffffffffffffffffffffffffff167f8be0079c531659141344cd1fd0a4f28419497f9722a3daafe3b4186f6b6457e060405160405180910390a35050565b612e8f80620001146000396000f3fe608060405234801561001057600080fd5b50600436106100b45760003560e01c80639a238f6d116100715780639a238f6d146101655780639b8570f414610181578063cf993060146101b1578063d39d0527146101cd578063e32ab44b146101e9578063f2fde38b14610219576100b4565b80631167372d146100b95780635742177c146100d5578063715018a6146101055780637ccc241a1461010f57806387e8bd121461012b5780638da5cb5b14610147575b600080fd5b6100d360048036038101906100ce919061239d565b610235565b005b6100ef60048036038101906100ea9190612281565b61049f565b6040516100fc9190612707565b60405180910390f35b61010d61081d565b005b6101296004803603810190610124919061234a565b610831565b005b6101456004803603810190610140919061230a565b610ba8565b005b61014f610dce565b60405161015c91906126ec565b60405180910390f35b61017f600480360381019061017a919061234a565b610df7565b005b61019b600480360381019061019691906121d2565b61116e565b6040516101a89190612809565b60405180910390f35b6101cb60048036038101906101c691906122ae565b611359565b005b6101e760048036038101906101e2919061230a565b6116ab565b005b61020360048036038101906101fe9190612241565b6118d1565b6040516102109190612707565b60405180910390f35b610233600480360381019061022e91906121a5565b611d84565b005b61023d611e08565b826103046002828154811061025557610254612b77565b5b9060005260206000209060060201600301805461027190612a6d565b80601f016020809104026020016040519081016040528092919081815260200182805461029d90612a6d565b80156102ea5780601f106102bf576101008083540402835291602001916102ea565b820191906000526020600020905b8154815290600101906020018083116102cd57829003601f168201915b505050505060405180602001604052806000815250611e86565b15610344576040517f08c379a000000000000000000000000000000000000000000000000000000000815260040161033b90612789565b60405180910390fd5b61040a6002828154811061035b5761035a612b77565b5b9060005260206000209060060201600401805461037790612a6d565b80601f01602080910402602001604051908101604052809291908181526020018280546103a390612a6d565b80156103f05780601f106103c5576101008083540402835291602001916103f0565b820191906000526020600020905b8154815290600101906020018083116103d357829003601f168201915b505050505060405180602001604052806000815250611e86565b1561044a576040517f08c379a000000000000000000000000000000000000000000000000000000000815260040161044190612789565b60405180910390fd5b61045484836116ab565b61045e8484610ba8565b7f4cea1f87adb8c58c2d35aa0a3723745ff782300a0479866fc1e478a8740df8e584848460405161049193929190612824565b60405180910390a150505050565b6060606482106104e4576040517f08c379a00000000000000000000000000000000000000000000000000000000081526004016104db90612769565b60405180910390fd5b6000600280549050905060008382106104fd57836104ff565b815b90506000600182846105119190612978565b61051b9190612922565b905060008267ffffffffffffffff81111561053957610538612ba6565b5b60405190808252806020026020018201604052801561057257816020015b61055f611fcf565b8152602001906001900390816105575790505b5090506000808590505b83811061080f5760026001826105929190612978565b815481106105a3576105a2612b77565b5b90600052602060002090600602016040518060e0016040529081600082015481526020016001820160009054906101000a900473ffffffffffffffffffffffffffffffffffffffff1673ffffffffffffffffffffffffffffffffffffffff1673ffffffffffffffffffffffffffffffffffffffff1681526020016002820160009054906101000a900473ffffffffffffffffffffffffffffffffffffffff1673ffffffffffffffffffffffffffffffffffffffff1673ffffffffffffffffffffffffffffffffffffffff16815260200160038201805461068290612a6d565b80601f01602080910402602001604051908101604052809291908181526020018280546106ae90612a6d565b80156106fb5780601f106106d0576101008083540402835291602001916106fb565b820191906000526020600020905b8154815290600101906020018083116106de57829003601f168201915b5050505050815260200160048201805461071490612a6d565b80601f016020809104026020016040519081016040528092919081815260200182805461074090612a6d565b801561078d5780601f106107625761010080835404028352916020019161078d565b820191906000526020600020905b81548152906001019060200180831161077057829003601f168201915b505050505081526020016005820160009054906101000a900460ff1660ff1660ff1681526020016005820160019054906101000a900460ff1660ff1660ff16815250508383815181106107e3576107e2612b77565b5b602002602001018190525081806107f990612ad0565b925050808061080790612a43565b91505061057c565b508195505050505050919050565b610825611e08565b61082f6000611edf565b565b610839611e08565b826109006002828154811061085157610850612b77565b5b9060005260206000209060060201600301805461086d90612a6d565b80601f016020809104026020016040519081016040528092919081815260200182805461089990612a6d565b80156108e65780601f106108bb576101008083540402835291602001916108e6565b820191906000526020600020905b8154815290600101906020018083116108c957829003601f168201915b505050505060405180602001604052806000815250611e86565b15610940576040517f08c379a000000000000000000000000000000000000000000000000000000000815260040161093790612789565b60405180910390fd5b610a066002828154811061095757610956612b77565b5b9060005260206000209060060201600401805461097390612a6d565b80601f016020809104026020016040519081016040528092919081815260200182805461099f90612a6d565b80156109ec5780601f106109c1576101008083540402835291602001916109ec565b820191906000526020600020905b8154815290600101906020018083116109cf57829003601f168201915b505050505060405180602001604052806000815250611e86565b15610a46576040517f08c379a0000000000000000000000000000000000000000000000000000000008152600401610a3d90612789565b60405180910390fd5b600060028581548110610a5c57610a5b612b77565b5b906000526020600020906006020160050160019054906101000a900460ff1660ff1614610abe576040517f08c379a0000000000000000000000000000000000000000000000000000000008152600401610ab590612749565b60405180910390fd5b8260028581548110610ad357610ad2612b77565b5b906000526020600020906006020160050160016101000a81548160ff021916908360ff1602179055508115610ba2577f4cea1f87adb8c58c2d35aa0a3723745ff782300a0479866fc1e478a8740df8e58460028681548110610b3857610b37612b77565b5b906000526020600020906006020160050160009054906101000a900460ff1660028781548110610b6b57610b6a612b77565b5b906000526020600020906006020160050160019054906101000a900460ff16604051610b9993929190612824565b60405180910390a15b50505050565b610bb0611e08565b81610c7760028281548110610bc857610bc7612b77565b5b90600052602060002090600602016003018054610be490612a6d565b80601f0160208091040260200160405190810160405280929190818152602001828054610c1090612a6d565b8015610c5d5780601f10610c3257610100808354040283529160200191610c5d565b820191906000526020600020905b815481529060010190602001808311610c4057829003601f168201915b505050505060405180602001604052806000815250611e86565b15610cb7576040517f08c379a0000000000000000000000000000000000000000000000000000000008152600401610cae90612789565b60405180910390fd5b610d7d60028281548110610cce57610ccd612b77565b5b90600052602060002090600602016004018054610cea90612a6d565b80601f0160208091040260200160405190810160405280929190818152602001828054610d1690612a6d565b8015610d635780601f10610d3857610100808354040283529160200191610d63565b820191906000526020600020905b815481529060010190602001808311610d4657829003601f168201915b505050505060405180602001604052806000815250611e86565b15610dbd576040517f08c379a0000000000000000000000000000000000000000000000000000000008152600401610db490612789565b60405180910390fd5b610dc983836000610df7565b505050565b60008060009054906101000a900473ffffffffffffffffffffffffffffffffffffffff16905090565b610dff611e08565b82610ec660028281548110610e1757610e16612b77565b5b90600052602060002090600602016003018054610e3390612a6d565b80601f0160208091040260200160405190810160405280929190818152602001828054610e5f90612a6d565b8015610eac5780601f10610e8157610100808354040283529160200191610eac565b820191906000526020600020905b815481529060010190602001808311610e8f57829003601f168201915b505050505060405180602001604052806000815250611e86565b15610f06576040517f08c379a0000000000000000000000000000000000000000000000000000000008152600401610efd90612789565b60405180910390fd5b610fcc60028281548110610f1d57610f1c612b77565b5b90600052602060002090600602016004018054610f3990612a6d565b80601f0160208091040260200160405190810160405280929190818152602001828054610f6590612a6d565b8015610fb25780601f10610f8757610100808354040283529160200191610fb2565b820191906000526020600020905b815481529060010190602001808311610f9557829003601f168201915b505050505060405180602001604052806000815250611e86565b1561100c576040517f08c379a000000000000000000000000000000000000000000000000000000000815260040161100390612789565b60405180910390fd5b60006002858154811061102257611021612b77565b5b906000526020600020906006020160050160009054906101000a900460ff1660ff1614611084576040517f08c379a000000000000000000000000000000000000000000000000000000000815260040161107b90612749565b60405180910390fd5b826002858154811061109957611098612b77565b5b906000526020600020906006020160050160006101000a81548160ff021916908360ff1602179055508115611168577f4cea1f87adb8c58c2d35aa0a3723745ff782300a0479866fc1e478a8740df8e584600286815481106110fe576110fd612b77565b5b906000526020600020906006020160050160009054906101000a900460ff166002878154811061113157611130612b77565b5b906000526020600020906006020160050160019054906101000a900460ff1660405161115f93929190612824565b60405180910390a15b50505050565b600060026040518060e001604052806111876001611fa3565b81526020018673ffffffffffffffffffffffffffffffffffffffff1681526020018573ffffffffffffffffffffffffffffffffffffffff168152602001848152602001604051806020016040528060008152508152602001600060ff168152602001600060ff1681525090806001815401808255809150506001900390600052602060002090600602016000909190919091506000820151816000015560208201518160010160006101000a81548173ffffffffffffffffffffffffffffffffffffffff021916908373ffffffffffffffffffffffffffffffffffffffff16021790555060408201518160020160006101000a81548173ffffffffffffffffffffffffffffffffffffffff021916908373ffffffffffffffffffffffffffffffffffffffff16021790555060608201518160030190805190602001906112ce92919061203e565b5060808201518160040190805190602001906112eb92919061203e565b5060a08201518160050160006101000a81548160ff021916908360ff16021790555060c08201518160050160016101000a81548160ff021916908360ff160217905550505061133a6001611fb1565b60016113466001611fa3565b6113509190612978565b90509392505050565b60006002838154811061136f5761136e612b77565b5b90600052602060002090600602016040518060e0016040529081600082015481526020016001820160009054906101000a900473ffffffffffffffffffffffffffffffffffffffff1673ffffffffffffffffffffffffffffffffffffffff1673ffffffffffffffffffffffffffffffffffffffff1681526020016002820160009054906101000a900473ffffffffffffffffffffffffffffffffffffffff1673ffffffffffffffffffffffffffffffffffffffff1673ffffffffffffffffffffffffffffffffffffffff16815260200160038201805461144e90612a6d565b80601f016020809104026020016040519081016040528092919081815260200182805461147a90612a6d565b80156114c75780601f1061149c576101008083540402835291602001916114c7565b820191906000526020600020905b8154815290600101906020018083116114aa57829003601f168201915b505050505081526020016004820180546114e090612a6d565b80601f016020809104026020016040519081016040528092919081815260200182805461150c90612a6d565b80156115595780601f1061152e57610100808354040283529160200191611559565b820191906000526020600020905b81548152906001019060200180831161153c57829003601f168201915b505050505081526020016005820160009054906101000a900460ff1660ff1660ff1681526020016005820160019054906101000a900460ff1660ff1660ff168152505090506115bb816080015160405180602001604052806000815250611e86565b6115fa576040517f08c379a00000000000000000000000000000000000000000000000000000000081526004016115f1906127e9565b60405180910390fd5b3373ffffffffffffffffffffffffffffffffffffffff16816040015173ffffffffffffffffffffffffffffffffffffffff161461166c576040517f08c379a0000000000000000000000000000000000000000000000000000000008152600401611663906127c9565b60405180910390fd5b816002848154811061168157611680612b77565b5b906000526020600020906006020160040190805190602001906116a592919061203e565b50505050565b6116b3611e08565b8161177a600282815481106116cb576116ca612b77565b5b906000526020600020906006020160030180546116e790612a6d565b80601f016020809104026020016040519081016040528092919081815260200182805461171390612a6d565b80156117605780601f1061173557610100808354040283529160200191611760565b820191906000526020600020905b81548152906001019060200180831161174357829003601f168201915b505050505060405180602001604052806000815250611e86565b156117ba576040517f08c379a00000000000000000000000000000000000000000000000000000000081526004016117b190612789565b60405180910390fd5b611880600282815481106117d1576117d0612b77565b5b906000526020600020906006020160040180546117ed90612a6d565b80601f016020809104026020016040519081016040528092919081815260200182805461181990612a6d565b80156118665780601f1061183b57610100808354040283529160200191611866565b820191906000526020600020905b81548152906001019060200180831161184957829003601f168201915b505050505060405180602001604052806000815250611e86565b156118c0576040517f08c379a00000000000000000000000000000000000000000000000000000000081526004016118b790612789565b60405180910390fd5b6118cc83836000610831565b505050565b606060648210611916576040517f08c379a000000000000000000000000000000000000000000000000000000000815260040161190d90612769565b60405180910390fd5b600080600090505b6002805490508110156119c6578473ffffffffffffffffffffffffffffffffffffffff166002828154811061195657611955612b77565b5b906000526020600020906006020160020160009054906101000a900473ffffffffffffffffffffffffffffffffffffffff1673ffffffffffffffffffffffffffffffffffffffff1614156119b35781806119af90612ad0565b9250505b80806119be90612ad0565b91505061191e565b5060008382106119d657836119d8565b815b905060008267ffffffffffffffff8111156119f6576119f5612ba6565b5b604051908082528060200260200182016040528015611a2f57816020015b611a1c611fcf565b815260200190600190039081611a145790505b509050600080600280549050905060008190505b6000811115611d74578873ffffffffffffffffffffffffffffffffffffffff166002600183611a729190612978565b81548110611a8357611a82612b77565b5b906000526020600020906006020160020160009054906101000a900473ffffffffffffffffffffffffffffffffffffffff1673ffffffffffffffffffffffffffffffffffffffff161415611d61576002600182611ae09190612978565b81548110611af157611af0612b77565b5b90600052602060002090600602016040518060e0016040529081600082015481526020016001820160009054906101000a900473ffffffffffffffffffffffffffffffffffffffff1673ffffffffffffffffffffffffffffffffffffffff1673ffffffffffffffffffffffffffffffffffffffff1681526020016002820160009054906101000a900473ffffffffffffffffffffffffffffffffffffffff1673ffffffffffffffffffffffffffffffffffffffff1673ffffffffffffffffffffffffffffffffffffffff168152602001600382018054611bd090612a6d565b80601f0160208091040260200160405190810160405280929190818152602001828054611bfc90612a6d565b8015611c495780601f10611c1e57610100808354040283529160200191611c49565b820191906000526020600020905b815481529060010190602001808311611c2c57829003601f168201915b50505050508152602001600482018054611c6290612a6d565b80601f0160208091040260200160405190810160405280929190818152602001828054611c8e90612a6d565b8015611cdb5780601f10611cb057610100808354040283529160200191611cdb565b820191906000526020600020905b815481529060010190602001808311611cbe57829003601f168201915b505050505081526020016005820160009054906101000a900460ff1660ff1660ff1681526020016005820160019054906101000a900460ff1660ff1660ff1681525050848481518110611d3157611d30612b77565b5b60200260200101819052508280611d4790612ad0565b93505084831415611d6057839650505050505050611d7e565b5b8080611d6c90612a43565b915050611a43565b5082955050505050505b92915050565b611d8c611e08565b600073ffffffffffffffffffffffffffffffffffffffff168173ffffffffffffffffffffffffffffffffffffffff161415611dfc576040517f08c379a0000000000000000000000000000000000000000000000000000000008152600401611df390612729565b60405180910390fd5b611e0581611edf565b50565b611e10611fc7565b73ffffffffffffffffffffffffffffffffffffffff16611e2e610dce565b73ffffffffffffffffffffffffffffffffffffffff1614611e84576040517f08c379a0000000000000000000000000000000000000000000000000000000008152600401611e7b906127a9565b60405180910390fd5b565b600081604051602001611e9991906126d5565b6040516020818303038152906040528051906020012083604051602001611ec091906126d5565b6040516020818303038152906040528051906020012014905092915050565b60008060009054906101000a900473ffffffffffffffffffffffffffffffffffffffff169050816000806101000a81548173ffffffffffffffffffffffffffffffffffffffff021916908373ffffffffffffffffffffffffffffffffffffffff1602179055508173ffffffffffffffffffffffffffffffffffffffff168173ffffffffffffffffffffffffffffffffffffffff167f8be0079c531659141344cd1fd0a4f28419497f9722a3daafe3b4186f6b6457e060405160405180910390a35050565b600081600001549050919050565b6001816000016000828254019250508190555050565b600033905090565b6040518060e0016040528060008152602001600073ffffffffffffffffffffffffffffffffffffffff168152602001600073ffffffffffffffffffffffffffffffffffffffff1681526020016060815260200160608152602001600060ff168152602001600060ff1681525090565b82805461204a90612a6d565b90600052602060002090601f01602090048101928261206c57600085556120b3565b82601f1061208557805160ff19168380011785556120b3565b828001600101855582156120b3579182015b828111156120b2578251825591602001919060010190612097565b5b5090506120c091906120c4565b5090565b5b808211156120dd5760008160009055506001016120c5565b5090565b60006120f46120ef84612880565b61285b565b9050828152602081018484840111156121105761210f612bda565b5b61211b848285612a01565b509392505050565b60008135905061213281612dfd565b92915050565b60008135905061214781612e14565b92915050565b600082601f83011261216257612161612bd5565b5b81356121728482602086016120e1565b91505092915050565b60008135905061218a81612e2b565b92915050565b60008135905061219f81612e42565b92915050565b6000602082840312156121bb576121ba612be4565b5b60006121c984828501612123565b91505092915050565b6000806000606084860312156121eb576121ea612be4565b5b60006121f986828701612123565b935050602061220a86828701612123565b925050604084013567ffffffffffffffff81111561222b5761222a612bdf565b5b6122378682870161214d565b9150509250925092565b6000806040838503121561225857612257612be4565b5b600061226685828601612123565b92505060206122778582860161217b565b9150509250929050565b60006020828403121561229757612296612be4565b5b60006122a58482850161217b565b91505092915050565b600080604083850312156122c5576122c4612be4565b5b60006122d38582860161217b565b925050602083013567ffffffffffffffff8111156122f4576122f3612bdf565b5b6123008582860161214d565b9150509250929050565b6000806040838503121561232157612320612be4565b5b600061232f8582860161217b565b925050602061234085828601612190565b9150509250929050565b60008060006060848603121561236357612362612be4565b5b60006123718682870161217b565b935050602061238286828701612190565b925050604061239386828701612138565b9150509250925092565b6000806000606084860312156123b6576123b5612be4565b5b60006123c48682870161217b565b93505060206123d586828701612190565b92505060406123e686828701612190565b9150509250925092565b60006123fc83836125f6565b905092915050565b61240d816129ac565b82525050565b61241c816129ac565b82525050565b600061242d826128c1565b61243781856128e4565b935083602082028501612449856128b1565b8060005b85811015612485578484038952815161246685826123f0565b9450612471836128d7565b925060208a0199505060018101905061244d565b50829750879550505050505092915050565b60006124a2826128cc565b6124ac81856128f5565b93506124bc818560208601612a10565b6124c581612be9565b840191505092915050565b60006124db826128cc565b6124e58185612917565b93506124f5818560208601612a10565b80840191505092915050565b600061250e602683612906565b915061251982612bfa565b604082019050919050565b6000612531603283612906565b915061253c82612c49565b604082019050919050565b6000612554604483612906565b915061255f82612c98565b606082019050919050565b6000612577601683612906565b915061258282612d0d565b602082019050919050565b600061259a602083612906565b91506125a582612d36565b602082019050919050565b60006125bd602783612906565b91506125c882612d5f565b604082019050919050565b60006125e0603d83612906565b91506125eb82612dae565b604082019050919050565b600060e08301600083015161260e6000860182612699565b5060208301516126216020860182612404565b5060408301516126346040860182612404565b506060830151848203606086015261264c8282612497565b915050608083015184820360808601526126668282612497565b91505060a083015161267b60a08601826126b7565b5060c083015161268e60c08601826126b7565b508091505092915050565b6126a2816129ea565b82525050565b6126b1816129ea565b82525050565b6126c0816129f4565b82525050565b6126cf816129f4565b82525050565b60006126e182846124d0565b915081905092915050565b60006020820190506127016000830184612413565b92915050565b600060208201905081810360008301526127218184612422565b905092915050565b6000602082019050818103600083015261274281612501565b9050919050565b6000602082019050818103600083015261276281612524565b9050919050565b6000602082019050818103600083015261278281612547565b9050919050565b600060208201905081810360008301526127a28161256a565b9050919050565b600060208201905081810360008301526127c28161258d565b9050919050565b600060208201905081810360008301526127e2816125b0565b9050919050565b60006020820190508181036000830152612802816125d3565b9050919050565b600060208201905061281e60008301846126a8565b92915050565b600060608201905061283960008301866126a8565b61284660208301856126c6565b61285360408301846126c6565b949350505050565b6000612865612876565b90506128718282612a9f565b919050565b6000604051905090565b600067ffffffffffffffff82111561289b5761289a612ba6565b5b6128a482612be9565b9050602081019050919050565b6000819050602082019050919050565b600081519050919050565b600081519050919050565b6000602082019050919050565b600082825260208201905092915050565b600082825260208201905092915050565b600082825260208201905092915050565b600081905092915050565b600061292d826129ea565b9150612938836129ea565b9250827fffffffffffffffffffffffffffffffffffffffffffffffffffffffffffffffff0382111561296d5761296c612b19565b5b828201905092915050565b6000612983826129ea565b915061298e836129ea565b9250828210156129a1576129a0612b19565b5b828203905092915050565b60006129b7826129ca565b9050919050565b60008115159050919050565b600073ffffffffffffffffffffffffffffffffffffffff82169050919050565b6000819050919050565b600060ff82169050919050565b82818337600083830152505050565b60005b83811015612a2e578082015181840152602081019050612a13565b83811115612a3d576000848401525b50505050565b6000612a4e826129ea565b91506000821415612a6257612a61612b19565b5b600182039050919050565b60006002820490506001821680612a8557607f821691505b60208210811415612a9957612a98612b48565b5b50919050565b612aa882612be9565b810181811067ffffffffffffffff82111715612ac757612ac6612ba6565b5b80604052505050565b6000612adb826129ea565b91507fffffffffffffffffffffffffffffffffffffffffffffffffffffffffffffffff821415612b0e57612b0d612b19565b5b600182019050919050565b7f4e487b7100000000000000000000000000000000000000000000000000000000600052601160045260246000fd5b7f4e487b7100000000000000000000000000000000000000000000000000000000600052602260045260246000fd5b7f4e487b7100000000000000000000000000000000000000000000000000000000600052603260045260246000fd5b7f4e487b7100000000000000000000000000000000000000000000000000000000600052604160045260246000fd5b600080fd5b600080fd5b600080fd5b600080fd5b6000601f19601f8301169050919050565b7f4f776e61626c653a206e6577206f776e657220697320746865207a65726f206160008201527f6464726573730000000000000000000000000000000000000000000000000000602082015250565b7f43616e206e6f7420757064617465207472616e73616374696f6e20414d4c207360008201527f74617475733a20616c7265616479207365740000000000000000000000000000602082015250565b7f43616e206e6f7420676574207472616e73616374696f6e73206c6973742e205460008201527f6865206d6178696d756d207472616e73616374696f6e7320636f756e7420697360208201527f2031303000000000000000000000000000000000000000000000000000000000604082015250565b7f4f6e6c7920666f7220636f6d706c6574656420414d4c00000000000000000000600082015250565b7f4f776e61626c653a2063616c6c6572206973206e6f7420746865206f776e6572600082015250565b7f43616e206e6f74207570646174652072656365697665722e20496e76616c696460008201527f2073656e64657200000000000000000000000000000000000000000000000000602082015250565b7f43616e206e6f74207570646174652072656365697665722e205472616e73616360008201527f74696f6e20616c726561647920686173206265656e2075706461746564000000602082015250565b612e06816129ac565b8114612e1157600080fd5b50565b612e1d816129be565b8114612e2857600080fd5b50565b612e34816129ea565b8114612e3f57600080fd5b50565b612e4b816129f4565b8114612e5657600080fd5b5056fea2646970667358221220be7be2aa2093781f2ae072416b29252ed8b88164643c0acc9e69f11b33e3e30764736f6c63430008070033",
					"opcodes": "PUSH1 0x80 PUSH1 0x40 MSTORE CALLVALUE DUP1 ISZERO PUSH3 0x11 JUMPI PUSH1 0x0 DUP1 REVERT JUMPDEST POP PUSH3 0x32 PUSH3 0x26 PUSH3 0x38 PUSH1 0x20 SHL PUSH1 0x20 SHR JUMP JUMPDEST PUSH3 0x40 PUSH1 0x20 SHL PUSH1 0x20 SHR JUMP JUMPDEST PUSH3 0x104 JUMP JUMPDEST PUSH1 0x0 CALLER SWAP1 POP SWAP1 JUMP JUMPDEST PUSH1 0x0 DUP1 PUSH1 0x0 SWAP1 SLOAD SWAP1 PUSH2 0x100 EXP SWAP1 DIV PUSH20 0xFFFFFFFFFFFFFFFFFFFFFFFFFFFFFFFFFFFFFFFF AND SWAP1 POP DUP2 PUSH1 0x0 DUP1 PUSH2 0x100 EXP DUP2 SLOAD DUP2 PUSH20 0xFFFFFFFFFFFFFFFFFFFFFFFFFFFFFFFFFFFFFFFF MUL NOT AND SWAP1 DUP4 PUSH20 0xFFFFFFFFFFFFFFFFFFFFFFFFFFFFFFFFFFFFFFFF AND MUL OR SWAP1 SSTORE POP DUP2 PUSH20 0xFFFFFFFFFFFFFFFFFFFFFFFFFFFFFFFFFFFFFFFF AND DUP2 PUSH20 0xFFFFFFFFFFFFFFFFFFFFFFFFFFFFFFFFFFFFFFFF AND PUSH32 0x8BE0079C531659141344CD1FD0A4F28419497F9722A3DAAFE3B4186F6B6457E0 PUSH1 0x40 MLOAD PUSH1 0x40 MLOAD DUP1 SWAP2 SUB SWAP1 LOG3 POP POP JUMP JUMPDEST PUSH2 0x2E8F DUP1 PUSH3 0x114 PUSH1 0x0 CODECOPY PUSH1 0x0 RETURN INVALID PUSH1 0x80 PUSH1 0x40 MSTORE CALLVALUE DUP1 ISZERO PUSH2 0x10 JUMPI PUSH1 0x0 DUP1 REVERT JUMPDEST POP PUSH1 0x4 CALLDATASIZE LT PUSH2 0xB4 JUMPI PUSH1 0x0 CALLDATALOAD PUSH1 0xE0 SHR DUP1 PUSH4 0x9A238F6D GT PUSH2 0x71 JUMPI DUP1 PUSH4 0x9A238F6D EQ PUSH2 0x165 JUMPI DUP1 PUSH4 0x9B8570F4 EQ PUSH2 0x181 JUMPI DUP1 PUSH4 0xCF993060 EQ PUSH2 0x1B1 JUMPI DUP1 PUSH4 0xD39D0527 EQ PUSH2 0x1CD JUMPI DUP1 PUSH4 0xE32AB44B EQ PUSH2 0x1E9 JUMPI DUP1 PUSH4 0xF2FDE38B EQ PUSH2 0x219 JUMPI PUSH2 0xB4 JUMP JUMPDEST DUP1 PUSH4 0x1167372D EQ PUSH2 0xB9 JUMPI DUP1 PUSH4 0x5742177C EQ PUSH2 0xD5 JUMPI DUP1 PUSH4 0x715018A6 EQ PUSH2 0x105 JUMPI DUP1 PUSH4 0x7CCC241A EQ PUSH2 0x10F JUMPI DUP1 PUSH4 0x87E8BD12 EQ PUSH2 0x12B JUMPI DUP1 PUSH4 0x8DA5CB5B EQ PUSH2 0x147 JUMPI JUMPDEST PUSH1 0x0 DUP1 REVERT JUMPDEST PUSH2 0xD3 PUSH1 0x4 DUP1 CALLDATASIZE SUB DUP2 ADD SWAP1 PUSH2 0xCE SWAP2 SWAP1 PUSH2 0x239D JUMP JUMPDEST PUSH2 0x235 JUMP JUMPDEST STOP JUMPDEST PUSH2 0xEF PUSH1 0x4 DUP1 CALLDATASIZE SUB DUP2 ADD SWAP1 PUSH2 0xEA SWAP2 SWAP1 PUSH2 0x2281 JUMP JUMPDEST PUSH2 0x49F JUMP JUMPDEST PUSH1 0x40 MLOAD PUSH2 0xFC SWAP2 SWAP1 PUSH2 0x2707 JUMP JUMPDEST PUSH1 0x40 MLOAD DUP1 SWAP2 SUB SWAP1 RETURN JUMPDEST PUSH2 0x10D PUSH2 0x81D JUMP JUMPDEST STOP JUMPDEST PUSH2 0x129 PUSH1 0x4 DUP1 CALLDATASIZE SUB DUP2 ADD SWAP1 PUSH2 0x124 SWAP2 SWAP1 PUSH2 0x234A JUMP JUMPDEST PUSH2 0x831 JUMP JUMPDEST STOP JUMPDEST PUSH2 0x145 PUSH1 0x4 DUP1 CALLDATASIZE SUB DUP2 ADD SWAP1 PUSH2 0x140 SWAP2 SWAP1 PUSH2 0x230A JUMP JUMPDEST PUSH2 0xBA8 JUMP JUMPDEST STOP JUMPDEST PUSH2 0x14F PUSH2 0xDCE JUMP JUMPDEST PUSH1 0x40 MLOAD PUSH2 0x15C SWAP2 SWAP1 PUSH2 0x26EC JUMP JUMPDEST PUSH1 0x40 MLOAD DUP1 SWAP2 SUB SWAP1 RETURN JUMPDEST PUSH2 0x17F PUSH1 0x4 DUP1 CALLDATASIZE SUB DUP2 ADD SWAP1 PUSH2 0x17A SWAP2 SWAP1 PUSH2 0x234A JUMP JUMPDEST PUSH2 0xDF7 JUMP JUMPDEST STOP JUMPDEST PUSH2 0x19B PUSH1 0x4 DUP1 CALLDATASIZE SUB DUP2 ADD SWAP1 PUSH2 0x196 SWAP2 SWAP1 PUSH2 0x21D2 JUMP JUMPDEST PUSH2 0x116E JUMP JUMPDEST PUSH1 0x40 MLOAD PUSH2 0x1A8 SWAP2 SWAP1 PUSH2 0x2809 JUMP JUMPDEST PUSH1 0x40 MLOAD DUP1 SWAP2 SUB SWAP1 RETURN JUMPDEST PUSH2 0x1CB PUSH1 0x4 DUP1 CALLDATASIZE SUB DUP2 ADD SWAP1 PUSH2 0x1C6 SWAP2 SWAP1 PUSH2 0x22AE JUMP JUMPDEST PUSH2 0x1359 JUMP JUMPDEST STOP JUMPDEST PUSH2 0x1E7 PUSH1 0x4 DUP1 CALLDATASIZE SUB DUP2 ADD SWAP1 PUSH2 0x1E2 SWAP2 SWAP1 PUSH2 0x230A JUMP JUMPDEST PUSH2 0x16AB JUMP JUMPDEST STOP JUMPDEST PUSH2 0x203 PUSH1 0x4 DUP1 CALLDATASIZE SUB DUP2 ADD SWAP1 PUSH2 0x1FE SWAP2 SWAP1 PUSH2 0x2241 JUMP JUMPDEST PUSH2 0x18D1 JUMP JUMPDEST PUSH1 0x40 MLOAD PUSH2 0x210 SWAP2 SWAP1 PUSH2 0x2707 JUMP JUMPDEST PUSH1 0x40 MLOAD DUP1 SWAP2 SUB SWAP1 RETURN JUMPDEST PUSH2 0x233 PUSH1 0x4 DUP1 CALLDATASIZE SUB DUP2 ADD SWAP1 PUSH2 0x22E SWAP2 SWAP1 PUSH2 0x21A5 JUMP JUMPDEST PUSH2 0x1D84 JUMP JUMPDEST STOP JUMPDEST PUSH2 0x23D PUSH2 0x1E08 JUMP JUMPDEST DUP3 PUSH2 0x304 PUSH1 0x2 DUP3 DUP2 SLOAD DUP2 LT PUSH2 0x255 JUMPI PUSH2 0x254 PUSH2 0x2B77 JUMP JUMPDEST JUMPDEST SWAP1 PUSH1 0x0 MSTORE PUSH1 0x20 PUSH1 0x0 KECCAK256 SWAP1 PUSH1 0x6 MUL ADD PUSH1 0x3 ADD DUP1 SLOAD PUSH2 0x271 SWAP1 PUSH2 0x2A6D JUMP JUMPDEST DUP1 PUSH1 0x1F ADD PUSH1 0x20 DUP1 SWAP2 DIV MUL PUSH1 0x20 ADD PUSH1 0x40 MLOAD SWAP1 DUP2 ADD PUSH1 0x40 MSTORE DUP1 SWAP3 SWAP2 SWAP1 DUP2 DUP2 MSTORE PUSH1 0x20 ADD DUP3 DUP1 SLOAD PUSH2 0x29D SWAP1 PUSH2 0x2A6D JUMP JUMPDEST DUP1 ISZERO PUSH2 0x2EA JUMPI DUP1 PUSH1 0x1F LT PUSH2 0x2BF JUMPI PUSH2 0x100 DUP1 DUP4 SLOAD DIV MUL DUP4 MSTORE SWAP2 PUSH1 0x20 ADD SWAP2 PUSH2 0x2EA JUMP JUMPDEST DUP3 ADD SWAP2 SWAP1 PUSH1 0x0 MSTORE PUSH1 0x20 PUSH1 0x0 KECCAK256 SWAP1 JUMPDEST DUP2 SLOAD DUP2 MSTORE SWAP1 PUSH1 0x1 ADD SWAP1 PUSH1 0x20 ADD DUP1 DUP4 GT PUSH2 0x2CD JUMPI DUP3 SWAP1 SUB PUSH1 0x1F AND DUP3 ADD SWAP2 JUMPDEST POP POP POP POP POP PUSH1 0x40 MLOAD DUP1 PUSH1 0x20 ADD PUSH1 0x40 MSTORE DUP1 PUSH1 0x0 DUP2 MSTORE POP PUSH2 0x1E86 JUMP JUMPDEST ISZERO PUSH2 0x344 JUMPI PUSH1 0x40 MLOAD PUSH32 0x8C379A000000000000000000000000000000000000000000000000000000000 DUP2 MSTORE PUSH1 0x4 ADD PUSH2 0x33B SWAP1 PUSH2 0x2789 JUMP JUMPDEST PUSH1 0x40 MLOAD DUP1 SWAP2 SUB SWAP1 REVERT JUMPDEST PUSH2 0x40A PUSH1 0x2 DUP3 DUP2 SLOAD DUP2 LT PUSH2 0x35B JUMPI PUSH2 0x35A PUSH2 0x2B77 JUMP JUMPDEST JUMPDEST SWAP1 PUSH1 0x0 MSTORE PUSH1 0x20 PUSH1 0x0 KECCAK256 SWAP1 PUSH1 0x6 MUL ADD PUSH1 0x4 ADD DUP1 SLOAD PUSH2 0x377 SWAP1 PUSH2 0x2A6D JUMP JUMPDEST DUP1 PUSH1 0x1F ADD PUSH1 0x20 DUP1 SWAP2 DIV MUL PUSH1 0x20 ADD PUSH1 0x40 MLOAD SWAP1 DUP2 ADD PUSH1 0x40 MSTORE DUP1 SWAP3 SWAP2 SWAP1 DUP2 DUP2 MSTORE PUSH1 0x20 ADD DUP3 DUP1 SLOAD PUSH2 0x3A3 SWAP1 PUSH2 0x2A6D JUMP JUMPDEST DUP1 ISZERO PUSH2 0x3F0 JUMPI DUP1 PUSH1 0x1F LT PUSH2 0x3C5 JUMPI PUSH2 0x100 DUP1 DUP4 SLOAD DIV MUL DUP4 MSTORE SWAP2 PUSH1 0x20 ADD SWAP2 PUSH2 0x3F0 JUMP JUMPDEST DUP3 ADD SWAP2 SWAP1 PUSH1 0x0 MSTORE PUSH1 0x20 PUSH1 0x0 KECCAK256 SWAP1 JUMPDEST DUP2 SLOAD DUP2 MSTORE SWAP1 PUSH1 0x1 ADD SWAP1 PUSH1 0x20 ADD DUP1 DUP4 GT PUSH2 0x3D3 JUMPI DUP3 SWAP1 SUB PUSH1 0x1F AND DUP3 ADD SWAP2 JUMPDEST POP POP POP POP POP PUSH1 0x40 MLOAD DUP1 PUSH1 0x20 ADD PUSH1 0x40 MSTORE DUP1 PUSH1 0x0 DUP2 MSTORE POP PUSH2 0x1E86 JUMP JUMPDEST ISZERO PUSH2 0x44A JUMPI PUSH1 0x40 MLOAD PUSH32 0x8C379A000000000000000000000000000000000000000000000000000000000 DUP2 MSTORE PUSH1 0x4 ADD PUSH2 0x441 SWAP1 PUSH2 0x2789 JUMP JUMPDEST PUSH1 0x40 MLOAD DUP1 SWAP2 SUB SWAP1 REVERT JUMPDEST PUSH2 0x454 DUP5 DUP4 PUSH2 0x16AB JUMP JUMPDEST PUSH2 0x45E DUP5 DUP5 PUSH2 0xBA8 JUMP JUMPDEST PUSH32 0x4CEA1F87ADB8C58C2D35AA0A3723745FF782300A0479866FC1E478A8740DF8E5 DUP5 DUP5 DUP5 PUSH1 0x40 MLOAD PUSH2 0x491 SWAP4 SWAP3 SWAP2 SWAP1 PUSH2 0x2824 JUMP JUMPDEST PUSH1 0x40 MLOAD DUP1 SWAP2 SUB SWAP1 LOG1 POP POP POP POP JUMP JUMPDEST PUSH1 0x60 PUSH1 0x64 DUP3 LT PUSH2 0x4E4 JUMPI PUSH1 0x40 MLOAD PUSH32 0x8C379A000000000000000000000000000000000000000000000000000000000 DUP2 MSTORE PUSH1 0x4 ADD PUSH2 0x4DB SWAP1 PUSH2 0x2769 JUMP JUMPDEST PUSH1 0x40 MLOAD DUP1 SWAP2 SUB SWAP1 REVERT JUMPDEST PUSH1 0x0 PUSH1 0x2 DUP1 SLOAD SWAP1 POP SWAP1 POP PUSH1 0x0 DUP4 DUP3 LT PUSH2 0x4FD JUMPI DUP4 PUSH2 0x4FF JUMP JUMPDEST DUP2 JUMPDEST SWAP1 POP PUSH1 0x0 PUSH1 0x1 DUP3 DUP5 PUSH2 0x511 SWAP2 SWAP1 PUSH2 0x2978 JUMP JUMPDEST PUSH2 0x51B SWAP2 SWAP1 PUSH2 0x2922 JUMP JUMPDEST SWAP1 POP PUSH1 0x0 DUP3 PUSH8 0xFFFFFFFFFFFFFFFF DUP2 GT ISZERO PUSH2 0x539 JUMPI PUSH2 0x538 PUSH2 0x2BA6 JUMP JUMPDEST JUMPDEST PUSH1 0x40 MLOAD SWAP1 DUP1 DUP3 MSTORE DUP1 PUSH1 0x20 MUL PUSH1 0x20 ADD DUP3 ADD PUSH1 0x40 MSTORE DUP1 ISZERO PUSH2 0x572 JUMPI DUP2 PUSH1 0x20 ADD JUMPDEST PUSH2 0x55F PUSH2 0x1FCF JUMP JUMPDEST DUP2 MSTORE PUSH1 0x20 ADD SWAP1 PUSH1 0x1 SWAP1 SUB SWAP1 DUP2 PUSH2 0x557 JUMPI SWAP1 POP JUMPDEST POP SWAP1 POP PUSH1 0x0 DUP1 DUP6 SWAP1 POP JUMPDEST DUP4 DUP2 LT PUSH2 0x80F JUMPI PUSH1 0x2 PUSH1 0x1 DUP3 PUSH2 0x592 SWAP2 SWAP1 PUSH2 0x2978 JUMP JUMPDEST DUP2 SLOAD DUP2 LT PUSH2 0x5A3 JUMPI PUSH2 0x5A2 PUSH2 0x2B77 JUMP JUMPDEST JUMPDEST SWAP1 PUSH1 0x0 MSTORE PUSH1 0x20 PUSH1 0x0 KECCAK256 SWAP1 PUSH1 0x6 MUL ADD PUSH1 0x40 MLOAD DUP1 PUSH1 0xE0 ADD PUSH1 0x40 MSTORE SWAP1 DUP2 PUSH1 0x0 DUP3 ADD SLOAD DUP2 MSTORE PUSH1 0x20 ADD PUSH1 0x1 DUP3 ADD PUSH1 0x0 SWAP1 SLOAD SWAP1 PUSH2 0x100 EXP SWAP1 DIV PUSH20 0xFFFFFFFFFFFFFFFFFFFFFFFFFFFFFFFFFFFFFFFF AND PUSH20 0xFFFFFFFFFFFFFFFFFFFFFFFFFFFFFFFFFFFFFFFF AND PUSH20 0xFFFFFFFFFFFFFFFFFFFFFFFFFFFFFFFFFFFFFFFF AND DUP2 MSTORE PUSH1 0x20 ADD PUSH1 0x2 DUP3 ADD PUSH1 0x0 SWAP1 SLOAD SWAP1 PUSH2 0x100 EXP SWAP1 DIV PUSH20 0xFFFFFFFFFFFFFFFFFFFFFFFFFFFFFFFFFFFFFFFF AND PUSH20 0xFFFFFFFFFFFFFFFFFFFFFFFFFFFFFFFFFFFFFFFF AND PUSH20 0xFFFFFFFFFFFFFFFFFFFFFFFFFFFFFFFFFFFFFFFF AND DUP2 MSTORE PUSH1 0x20 ADD PUSH1 0x3 DUP3 ADD DUP1 SLOAD PUSH2 0x682 SWAP1 PUSH2 0x2A6D JUMP JUMPDEST DUP1 PUSH1 0x1F ADD PUSH1 0x20 DUP1 SWAP2 DIV MUL PUSH1 0x20 ADD PUSH1 0x40 MLOAD SWAP1 DUP2 ADD PUSH1 0x40 MSTORE DUP1 SWAP3 SWAP2 SWAP1 DUP2 DUP2 MSTORE PUSH1 0x20 ADD DUP3 DUP1 SLOAD PUSH2 0x6AE SWAP1 PUSH2 0x2A6D JUMP JUMPDEST DUP1 ISZERO PUSH2 0x6FB JUMPI DUP1 PUSH1 0x1F LT PUSH2 0x6D0 JUMPI PUSH2 0x100 DUP1 DUP4 SLOAD DIV MUL DUP4 MSTORE SWAP2 PUSH1 0x20 ADD SWAP2 PUSH2 0x6FB JUMP JUMPDEST DUP3 ADD SWAP2 SWAP1 PUSH1 0x0 MSTORE PUSH1 0x20 PUSH1 0x0 KECCAK256 SWAP1 JUMPDEST DUP2 SLOAD DUP2 MSTORE SWAP1 PUSH1 0x1 ADD SWAP1 PUSH1 0x20 ADD DUP1 DUP4 GT PUSH2 0x6DE JUMPI DUP3 SWAP1 SUB PUSH1 0x1F AND DUP3 ADD SWAP2 JUMPDEST POP POP POP POP POP DUP2 MSTORE PUSH1 0x20 ADD PUSH1 0x4 DUP3 ADD DUP1 SLOAD PUSH2 0x714 SWAP1 PUSH2 0x2A6D JUMP JUMPDEST DUP1 PUSH1 0x1F ADD PUSH1 0x20 DUP1 SWAP2 DIV MUL PUSH1 0x20 ADD PUSH1 0x40 MLOAD SWAP1 DUP2 ADD PUSH1 0x40 MSTORE DUP1 SWAP3 SWAP2 SWAP1 DUP2 DUP2 MSTORE PUSH1 0x20 ADD DUP3 DUP1 SLOAD PUSH2 0x740 SWAP1 PUSH2 0x2A6D JUMP JUMPDEST DUP1 ISZERO PUSH2 0x78D JUMPI DUP1 PUSH1 0x1F LT PUSH2 0x762 JUMPI PUSH2 0x100 DUP1 DUP4 SLOAD DIV MUL DUP4 MSTORE SWAP2 PUSH1 0x20 ADD SWAP2 PUSH2 0x78D JUMP JUMPDEST DUP3 ADD SWAP2 SWAP1 PUSH1 0x0 MSTORE PUSH1 0x20 PUSH1 0x0 KECCAK256 SWAP1 JUMPDEST DUP2 SLOAD DUP2 MSTORE SWAP1 PUSH1 0x1 ADD SWAP1 PUSH1 0x20 ADD DUP1 DUP4 GT PUSH2 0x770 JUMPI DUP3 SWAP1 SUB PUSH1 0x1F AND DUP3 ADD SWAP2 JUMPDEST POP POP POP POP POP DUP2 MSTORE PUSH1 0x20 ADD PUSH1 0x5 DUP3 ADD PUSH1 0x0 SWAP1 SLOAD SWAP1 PUSH2 0x100 EXP SWAP1 DIV PUSH1 0xFF AND PUSH1 0xFF AND PUSH1 0xFF AND DUP2 MSTORE PUSH1 0x20 ADD PUSH1 0x5 DUP3 ADD PUSH1 0x1 SWAP1 SLOAD SWAP1 PUSH2 0x100 EXP SWAP1 DIV PUSH1 0xFF AND PUSH1 0xFF AND PUSH1 0xFF AND DUP2 MSTORE POP POP DUP4 DUP4 DUP2 MLOAD DUP2 LT PUSH2 0x7E3 JUMPI PUSH2 0x7E2 PUSH2 0x2B77 JUMP JUMPDEST JUMPDEST PUSH1 0x20 MUL PUSH1 0x20 ADD ADD DUP2 SWAP1 MSTORE POP DUP2 DUP1 PUSH2 0x7F9 SWAP1 PUSH2 0x2AD0 JUMP JUMPDEST SWAP3 POP POP DUP1 DUP1 PUSH2 0x807 SWAP1 PUSH2 0x2A43 JUMP JUMPDEST SWAP2 POP POP PUSH2 0x57C JUMP JUMPDEST POP DUP2 SWAP6 POP POP POP POP POP POP SWAP2 SWAP1 POP JUMP JUMPDEST PUSH2 0x825 PUSH2 0x1E08 JUMP JUMPDEST PUSH2 0x82F PUSH1 0x0 PUSH2 0x1EDF JUMP JUMPDEST JUMP JUMPDEST PUSH2 0x839 PUSH2 0x1E08 JUMP JUMPDEST DUP3 PUSH2 0x900 PUSH1 0x2 DUP3 DUP2 SLOAD DUP2 LT PUSH2 0x851 JUMPI PUSH2 0x850 PUSH2 0x2B77 JUMP JUMPDEST JUMPDEST SWAP1 PUSH1 0x0 MSTORE PUSH1 0x20 PUSH1 0x0 KECCAK256 SWAP1 PUSH1 0x6 MUL ADD PUSH1 0x3 ADD DUP1 SLOAD PUSH2 0x86D SWAP1 PUSH2 0x2A6D JUMP JUMPDEST DUP1 PUSH1 0x1F ADD PUSH1 0x20 DUP1 SWAP2 DIV MUL PUSH1 0x20 ADD PUSH1 0x40 MLOAD SWAP1 DUP2 ADD PUSH1 0x40 MSTORE DUP1 SWAP3 SWAP2 SWAP1 DUP2 DUP2 MSTORE PUSH1 0x20 ADD DUP3 DUP1 SLOAD PUSH2 0x899 SWAP1 PUSH2 0x2A6D JUMP JUMPDEST DUP1 ISZERO PUSH2 0x8E6 JUMPI DUP1 PUSH1 0x1F LT PUSH2 0x8BB JUMPI PUSH2 0x100 DUP1 DUP4 SLOAD DIV MUL DUP4 MSTORE SWAP2 PUSH1 0x20 ADD SWAP2 PUSH2 0x8E6 JUMP JUMPDEST DUP3 ADD SWAP2 SWAP1 PUSH1 0x0 MSTORE PUSH1 0x20 PUSH1 0x0 KECCAK256 SWAP1 JUMPDEST DUP2 SLOAD DUP2 MSTORE SWAP1 PUSH1 0x1 ADD SWAP1 PUSH1 0x20 ADD DUP1 DUP4 GT PUSH2 0x8C9 JUMPI DUP3 SWAP1 SUB PUSH1 0x1F AND DUP3 ADD SWAP2 JUMPDEST POP POP POP POP POP PUSH1 0x40 MLOAD DUP1 PUSH1 0x20 ADD PUSH1 0x40 MSTORE DUP1 PUSH1 0x0 DUP2 MSTORE POP PUSH2 0x1E86 JUMP JUMPDEST ISZERO PUSH2 0x940 JUMPI PUSH1 0x40 MLOAD PUSH32 0x8C379A000000000000000000000000000000000000000000000000000000000 DUP2 MSTORE PUSH1 0x4 ADD PUSH2 0x937 SWAP1 PUSH2 0x2789 JUMP JUMPDEST PUSH1 0x40 MLOAD DUP1 SWAP2 SUB SWAP1 REVERT JUMPDEST PUSH2 0xA06 PUSH1 0x2 DUP3 DUP2 SLOAD DUP2 LT PUSH2 0x957 JUMPI PUSH2 0x956 PUSH2 0x2B77 JUMP JUMPDEST JUMPDEST SWAP1 PUSH1 0x0 MSTORE PUSH1 0x20 PUSH1 0x0 KECCAK256 SWAP1 PUSH1 0x6 MUL ADD PUSH1 0x4 ADD DUP1 SLOAD PUSH2 0x973 SWAP1 PUSH2 0x2A6D JUMP JUMPDEST DUP1 PUSH1 0x1F ADD PUSH1 0x20 DUP1 SWAP2 DIV MUL PUSH1 0x20 ADD PUSH1 0x40 MLOAD SWAP1 DUP2 ADD PUSH1 0x40 MSTORE DUP1 SWAP3 SWAP2 SWAP1 DUP2 DUP2 MSTORE PUSH1 0x20 ADD DUP3 DUP1 SLOAD PUSH2 0x99F SWAP1 PUSH2 0x2A6D JUMP JUMPDEST DUP1 ISZERO PUSH2 0x9EC JUMPI DUP1 PUSH1 0x1F LT PUSH2 0x9C1 JUMPI PUSH2 0x100 DUP1 DUP4 SLOAD DIV MUL DUP4 MSTORE SWAP2 PUSH1 0x20 ADD SWAP2 PUSH2 0x9EC JUMP JUMPDEST DUP3 ADD SWAP2 SWAP1 PUSH1 0x0 MSTORE PUSH1 0x20 PUSH1 0x0 KECCAK256 SWAP1 JUMPDEST DUP2 SLOAD DUP2 MSTORE SWAP1 PUSH1 0x1 ADD SWAP1 PUSH1 0x20 ADD DUP1 DUP4 GT PUSH2 0x9CF JUMPI DUP3 SWAP1 SUB PUSH1 0x1F AND DUP3 ADD SWAP2 JUMPDEST POP POP POP POP POP PUSH1 0x40 MLOAD DUP1 PUSH1 0x20 ADD PUSH1 0x40 MSTORE DUP1 PUSH1 0x0 DUP2 MSTORE POP PUSH2 0x1E86 JUMP JUMPDEST ISZERO PUSH2 0xA46 JUMPI PUSH1 0x40 MLOAD PUSH32 0x8C379A000000000000000000000000000000000000000000000000000000000 DUP2 MSTORE PUSH1 0x4 ADD PUSH2 0xA3D SWAP1 PUSH2 0x2789 JUMP JUMPDEST PUSH1 0x40 MLOAD DUP1 SWAP2 SUB SWAP1 REVERT JUMPDEST PUSH1 0x0 PUSH1 0x2 DUP6 DUP2 SLOAD DUP2 LT PUSH2 0xA5C JUMPI PUSH2 0xA5B PUSH2 0x2B77 JUMP JUMPDEST JUMPDEST SWAP1 PUSH1 0x0 MSTORE PUSH1 0x20 PUSH1 0x0 KECCAK256 SWAP1 PUSH1 0x6 MUL ADD PUSH1 0x5 ADD PUSH1 0x1 SWAP1 SLOAD SWAP1 PUSH2 0x100 EXP SWAP1 DIV PUSH1 0xFF AND PUSH1 0xFF AND EQ PUSH2 0xABE JUMPI PUSH1 0x40 MLOAD PUSH32 0x8C379A000000000000000000000000000000000000000000000000000000000 DUP2 MSTORE PUSH1 0x4 ADD PUSH2 0xAB5 SWAP1 PUSH2 0x2749 JUMP JUMPDEST PUSH1 0x40 MLOAD DUP1 SWAP2 SUB SWAP1 REVERT JUMPDEST DUP3 PUSH1 0x2 DUP6 DUP2 SLOAD DUP2 LT PUSH2 0xAD3 JUMPI PUSH2 0xAD2 PUSH2 0x2B77 JUMP JUMPDEST JUMPDEST SWAP1 PUSH1 0x0 MSTORE PUSH1 0x20 PUSH1 0x0 KECCAK256 SWAP1 PUSH1 0x6 MUL ADD PUSH1 0x5 ADD PUSH1 0x1 PUSH2 0x100 EXP DUP2 SLOAD DUP2 PUSH1 0xFF MUL NOT AND SWAP1 DUP4 PUSH1 0xFF AND MUL OR SWAP1 SSTORE POP DUP2 ISZERO PUSH2 0xBA2 JUMPI PUSH32 0x4CEA1F87ADB8C58C2D35AA0A3723745FF782300A0479866FC1E478A8740DF8E5 DUP5 PUSH1 0x2 DUP7 DUP2 SLOAD DUP2 LT PUSH2 0xB38 JUMPI PUSH2 0xB37 PUSH2 0x2B77 JUMP JUMPDEST JUMPDEST SWAP1 PUSH1 0x0 MSTORE PUSH1 0x20 PUSH1 0x0 KECCAK256 SWAP1 PUSH1 0x6 MUL ADD PUSH1 0x5 ADD PUSH1 0x0 SWAP1 SLOAD SWAP1 PUSH2 0x100 EXP SWAP1 DIV PUSH1 0xFF AND PUSH1 0x2 DUP8 DUP2 SLOAD DUP2 LT PUSH2 0xB6B JUMPI PUSH2 0xB6A PUSH2 0x2B77 JUMP JUMPDEST JUMPDEST SWAP1 PUSH1 0x0 MSTORE PUSH1 0x20 PUSH1 0x0 KECCAK256 SWAP1 PUSH1 0x6 MUL ADD PUSH1 0x5 ADD PUSH1 0x1 SWAP1 SLOAD SWAP1 PUSH2 0x100 EXP SWAP1 DIV PUSH1 0xFF AND PUSH1 0x40 MLOAD PUSH2 0xB99 SWAP4 SWAP3 SWAP2 SWAP1 PUSH2 0x2824 JUMP JUMPDEST PUSH1 0x40 MLOAD DUP1 SWAP2 SUB SWAP1 LOG1 JUMPDEST POP POP POP POP JUMP JUMPDEST PUSH2 0xBB0 PUSH2 0x1E08 JUMP JUMPDEST DUP2 PUSH2 0xC77 PUSH1 0x2 DUP3 DUP2 SLOAD DUP2 LT PUSH2 0xBC8 JUMPI PUSH2 0xBC7 PUSH2 0x2B77 JUMP JUMPDEST JUMPDEST SWAP1 PUSH1 0x0 MSTORE PUSH1 0x20 PUSH1 0x0 KECCAK256 SWAP1 PUSH1 0x6 MUL ADD PUSH1 0x3 ADD DUP1 SLOAD PUSH2 0xBE4 SWAP1 PUSH2 0x2A6D JUMP JUMPDEST DUP1 PUSH1 0x1F ADD PUSH1 0x20 DUP1 SWAP2 DIV MUL PUSH1 0x20 ADD PUSH1 0x40 MLOAD SWAP1 DUP2 ADD PUSH1 0x40 MSTORE DUP1 SWAP3 SWAP2 SWAP1 DUP2 DUP2 MSTORE PUSH1 0x20 ADD DUP3 DUP1 SLOAD PUSH2 0xC10 SWAP1 PUSH2 0x2A6D JUMP JUMPDEST DUP1 ISZERO PUSH2 0xC5D JUMPI DUP1 PUSH1 0x1F LT PUSH2 0xC32 JUMPI PUSH2 0x100 DUP1 DUP4 SLOAD DIV MUL DUP4 MSTORE SWAP2 PUSH1 0x20 ADD SWAP2 PUSH2 0xC5D JUMP JUMPDEST DUP3 ADD SWAP2 SWAP1 PUSH1 0x0 MSTORE PUSH1 0x20 PUSH1 0x0 KECCAK256 SWAP1 JUMPDEST DUP2 SLOAD DUP2 MSTORE SWAP1 PUSH1 0x1 ADD SWAP1 PUSH1 0x20 ADD DUP1 DUP4 GT PUSH2 0xC40 JUMPI DUP3 SWAP1 SUB PUSH1 0x1F AND DUP3 ADD SWAP2 JUMPDEST POP POP POP POP POP PUSH1 0x40 MLOAD DUP1 PUSH1 0x20 ADD PUSH1 0x40 MSTORE DUP1 PUSH1 0x0 DUP2 MSTORE POP PUSH2 0x1E86 JUMP JUMPDEST ISZERO PUSH2 0xCB7 JUMPI PUSH1 0x40 MLOAD PUSH32 0x8C379A000000000000000000000000000000000000000000000000000000000 DUP2 MSTORE PUSH1 0x4 ADD PUSH2 0xCAE SWAP1 PUSH2 0x2789 JUMP JUMPDEST PUSH1 0x40 MLOAD DUP1 SWAP2 SUB SWAP1 REVERT JUMPDEST PUSH2 0xD7D PUSH1 0x2 DUP3 DUP2 SLOAD DUP2 LT PUSH2 0xCCE JUMPI PUSH2 0xCCD PUSH2 0x2B77 JUMP JUMPDEST JUMPDEST SWAP1 PUSH1 0x0 MSTORE PUSH1 0x20 PUSH1 0x0 KECCAK256 SWAP1 PUSH1 0x6 MUL ADD PUSH1 0x4 ADD DUP1 SLOAD PUSH2 0xCEA SWAP1 PUSH2 0x2A6D JUMP JUMPDEST DUP1 PUSH1 0x1F ADD PUSH1 0x20 DUP1 SWAP2 DIV MUL PUSH1 0x20 ADD PUSH1 0x40 MLOAD SWAP1 DUP2 ADD PUSH1 0x40 MSTORE DUP1 SWAP3 SWAP2 SWAP1 DUP2 DUP2 MSTORE PUSH1 0x20 ADD DUP3 DUP1 SLOAD PUSH2 0xD16 SWAP1 PUSH2 0x2A6D JUMP JUMPDEST DUP1 ISZERO PUSH2 0xD63 JUMPI DUP1 PUSH1 0x1F LT PUSH2 0xD38 JUMPI PUSH2 0x100 DUP1 DUP4 SLOAD DIV MUL DUP4 MSTORE SWAP2 PUSH1 0x20 ADD SWAP2 PUSH2 0xD63 JUMP JUMPDEST DUP3 ADD SWAP2 SWAP1 PUSH1 0x0 MSTORE PUSH1 0x20 PUSH1 0x0 KECCAK256 SWAP1 JUMPDEST DUP2 SLOAD DUP2 MSTORE SWAP1 PUSH1 0x1 ADD SWAP1 PUSH1 0x20 ADD DUP1 DUP4 GT PUSH2 0xD46 JUMPI DUP3 SWAP1 SUB PUSH1 0x1F AND DUP3 ADD SWAP2 JUMPDEST POP POP POP POP POP PUSH1 0x40 MLOAD DUP1 PUSH1 0x20 ADD PUSH1 0x40 MSTORE DUP1 PUSH1 0x0 DUP2 MSTORE POP PUSH2 0x1E86 JUMP JUMPDEST ISZERO PUSH2 0xDBD JUMPI PUSH1 0x40 MLOAD PUSH32 0x8C379A000000000000000000000000000000000000000000000000000000000 DUP2 MSTORE PUSH1 0x4 ADD PUSH2 0xDB4 SWAP1 PUSH2 0x2789 JUMP JUMPDEST PUSH1 0x40 MLOAD DUP1 SWAP2 SUB SWAP1 REVERT JUMPDEST PUSH2 0xDC9 DUP4 DUP4 PUSH1 0x0 PUSH2 0xDF7 JUMP JUMPDEST POP POP POP JUMP JUMPDEST PUSH1 0x0 DUP1 PUSH1 0x0 SWAP1 SLOAD SWAP1 PUSH2 0x100 EXP SWAP1 DIV PUSH20 0xFFFFFFFFFFFFFFFFFFFFFFFFFFFFFFFFFFFFFFFF AND SWAP1 POP SWAP1 JUMP JUMPDEST PUSH2 0xDFF PUSH2 0x1E08 JUMP JUMPDEST DUP3 PUSH2 0xEC6 PUSH1 0x2 DUP3 DUP2 SLOAD DUP2 LT PUSH2 0xE17 JUMPI PUSH2 0xE16 PUSH2 0x2B77 JUMP JUMPDEST JUMPDEST SWAP1 PUSH1 0x0 MSTORE PUSH1 0x20 PUSH1 0x0 KECCAK256 SWAP1 PUSH1 0x6 MUL ADD PUSH1 0x3 ADD DUP1 SLOAD PUSH2 0xE33 SWAP1 PUSH2 0x2A6D JUMP JUMPDEST DUP1 PUSH1 0x1F ADD PUSH1 0x20 DUP1 SWAP2 DIV MUL PUSH1 0x20 ADD PUSH1 0x40 MLOAD SWAP1 DUP2 ADD PUSH1 0x40 MSTORE DUP1 SWAP3 SWAP2 SWAP1 DUP2 DUP2 MSTORE PUSH1 0x20 ADD DUP3 DUP1 SLOAD PUSH2 0xE5F SWAP1 PUSH2 0x2A6D JUMP JUMPDEST DUP1 ISZERO PUSH2 0xEAC JUMPI DUP1 PUSH1 0x1F LT PUSH2 0xE81 JUMPI PUSH2 0x100 DUP1 DUP4 SLOAD DIV MUL DUP4 MSTORE SWAP2 PUSH1 0x20 ADD SWAP2 PUSH2 0xEAC JUMP JUMPDEST DUP3 ADD SWAP2 SWAP1 PUSH1 0x0 MSTORE PUSH1 0x20 PUSH1 0x0 KECCAK256 SWAP1 JUMPDEST DUP2 SLOAD DUP2 MSTORE SWAP1 PUSH1 0x1 ADD SWAP1 PUSH1 0x20 ADD DUP1 DUP4 GT PUSH2 0xE8F JUMPI DUP3 SWAP1 SUB PUSH1 0x1F AND DUP3 ADD SWAP2 JUMPDEST POP POP POP POP POP PUSH1 0x40 MLOAD DUP1 PUSH1 0x20 ADD PUSH1 0x40 MSTORE DUP1 PUSH1 0x0 DUP2 MSTORE POP PUSH2 0x1E86 JUMP JUMPDEST ISZERO PUSH2 0xF06 JUMPI PUSH1 0x40 MLOAD PUSH32 0x8C379A000000000000000000000000000000000000000000000000000000000 DUP2 MSTORE PUSH1 0x4 ADD PUSH2 0xEFD SWAP1 PUSH2 0x2789 JUMP JUMPDEST PUSH1 0x40 MLOAD DUP1 SWAP2 SUB SWAP1 REVERT JUMPDEST PUSH2 0xFCC PUSH1 0x2 DUP3 DUP2 SLOAD DUP2 LT PUSH2 0xF1D JUMPI PUSH2 0xF1C PUSH2 0x2B77 JUMP JUMPDEST JUMPDEST SWAP1 PUSH1 0x0 MSTORE PUSH1 0x20 PUSH1 0x0 KECCAK256 SWAP1 PUSH1 0x6 MUL ADD PUSH1 0x4 ADD DUP1 SLOAD PUSH2 0xF39 SWAP1 PUSH2 0x2A6D JUMP JUMPDEST DUP1 PUSH1 0x1F ADD PUSH1 0x20 DUP1 SWAP2 DIV MUL PUSH1 0x20 ADD PUSH1 0x40 MLOAD SWAP1 DUP2 ADD PUSH1 0x40 MSTORE DUP1 SWAP3 SWAP2 SWAP1 DUP2 DUP2 MSTORE PUSH1 0x20 ADD DUP3 DUP1 SLOAD PUSH2 0xF65 SWAP1 PUSH2 0x2A6D JUMP JUMPDEST DUP1 ISZERO PUSH2 0xFB2 JUMPI DUP1 PUSH1 0x1F LT PUSH2 0xF87 JUMPI PUSH2 0x100 DUP1 DUP4 SLOAD DIV MUL DUP4 MSTORE SWAP2 PUSH1 0x20 ADD SWAP2 PUSH2 0xFB2 JUMP JUMPDEST DUP3 ADD SWAP2 SWAP1 PUSH1 0x0 MSTORE PUSH1 0x20 PUSH1 0x0 KECCAK256 SWAP1 JUMPDEST DUP2 SLOAD DUP2 MSTORE SWAP1 PUSH1 0x1 ADD SWAP1 PUSH1 0x20 ADD DUP1 DUP4 GT PUSH2 0xF95 JUMPI DUP3 SWAP1 SUB PUSH1 0x1F AND DUP3 ADD SWAP2 JUMPDEST POP POP POP POP POP PUSH1 0x40 MLOAD DUP1 PUSH1 0x20 ADD PUSH1 0x40 MSTORE DUP1 PUSH1 0x0 DUP2 MSTORE POP PUSH2 0x1E86 JUMP JUMPDEST ISZERO PUSH2 0x100C JUMPI PUSH1 0x40 MLOAD PUSH32 0x8C379A000000000000000000000000000000000000000000000000000000000 DUP2 MSTORE PUSH1 0x4 ADD PUSH2 0x1003 SWAP1 PUSH2 0x2789 JUMP JUMPDEST PUSH1 0x40 MLOAD DUP1 SWAP2 SUB SWAP1 REVERT JUMPDEST PUSH1 0x0 PUSH1 0x2 DUP6 DUP2 SLOAD DUP2 LT PUSH2 0x1022 JUMPI PUSH2 0x1021 PUSH2 0x2B77 JUMP JUMPDEST JUMPDEST SWAP1 PUSH1 0x0 MSTORE PUSH1 0x20 PUSH1 0x0 KECCAK256 SWAP1 PUSH1 0x6 MUL ADD PUSH1 0x5 ADD PUSH1 0x0 SWAP1 SLOAD SWAP1 PUSH2 0x100 EXP SWAP1 DIV PUSH1 0xFF AND PUSH1 0xFF AND EQ PUSH2 0x1084 JUMPI PUSH1 0x40 MLOAD PUSH32 0x8C379A000000000000000000000000000000000000000000000000000000000 DUP2 MSTORE PUSH1 0x4 ADD PUSH2 0x107B SWAP1 PUSH2 0x2749 JUMP JUMPDEST PUSH1 0x40 MLOAD DUP1 SWAP2 SUB SWAP1 REVERT JUMPDEST DUP3 PUSH1 0x2 DUP6 DUP2 SLOAD DUP2 LT PUSH2 0x1099 JUMPI PUSH2 0x1098 PUSH2 0x2B77 JUMP JUMPDEST JUMPDEST SWAP1 PUSH1 0x0 MSTORE PUSH1 0x20 PUSH1 0x0 KECCAK256 SWAP1 PUSH1 0x6 MUL ADD PUSH1 0x5 ADD PUSH1 0x0 PUSH2 0x100 EXP DUP2 SLOAD DUP2 PUSH1 0xFF MUL NOT AND SWAP1 DUP4 PUSH1 0xFF AND MUL OR SWAP1 SSTORE POP DUP2 ISZERO PUSH2 0x1168 JUMPI PUSH32 0x4CEA1F87ADB8C58C2D35AA0A3723745FF782300A0479866FC1E478A8740DF8E5 DUP5 PUSH1 0x2 DUP7 DUP2 SLOAD DUP2 LT PUSH2 0x10FE JUMPI PUSH2 0x10FD PUSH2 0x2B77 JUMP JUMPDEST JUMPDEST SWAP1 PUSH1 0x0 MSTORE PUSH1 0x20 PUSH1 0x0 KECCAK256 SWAP1 PUSH1 0x6 MUL ADD PUSH1 0x5 ADD PUSH1 0x0 SWAP1 SLOAD SWAP1 PUSH2 0x100 EXP SWAP1 DIV PUSH1 0xFF AND PUSH1 0x2 DUP8 DUP2 SLOAD DUP2 LT PUSH2 0x1131 JUMPI PUSH2 0x1130 PUSH2 0x2B77 JUMP JUMPDEST JUMPDEST SWAP1 PUSH1 0x0 MSTORE PUSH1 0x20 PUSH1 0x0 KECCAK256 SWAP1 PUSH1 0x6 MUL ADD PUSH1 0x5 ADD PUSH1 0x1 SWAP1 SLOAD SWAP1 PUSH2 0x100 EXP SWAP1 DIV PUSH1 0xFF AND PUSH1 0x40 MLOAD PUSH2 0x115F SWAP4 SWAP3 SWAP2 SWAP1 PUSH2 0x2824 JUMP JUMPDEST PUSH1 0x40 MLOAD DUP1 SWAP2 SUB SWAP1 LOG1 JUMPDEST POP POP POP POP JUMP JUMPDEST PUSH1 0x0 PUSH1 0x2 PUSH1 0x40 MLOAD DUP1 PUSH1 0xE0 ADD PUSH1 0x40 MSTORE DUP1 PUSH2 0x1187 PUSH1 0x1 PUSH2 0x1FA3 JUMP JUMPDEST DUP2 MSTORE PUSH1 0x20 ADD DUP7 PUSH20 0xFFFFFFFFFFFFFFFFFFFFFFFFFFFFFFFFFFFFFFFF AND DUP2 MSTORE PUSH1 0x20 ADD DUP6 PUSH20 0xFFFFFFFFFFFFFFFFFFFFFFFFFFFFFFFFFFFFFFFF AND DUP2 MSTORE PUSH1 0x20 ADD DUP5 DUP2 MSTORE PUSH1 0x20 ADD PUSH1 0x40 MLOAD DUP1 PUSH1 0x20 ADD PUSH1 0x40 MSTORE DUP1 PUSH1 0x0 DUP2 MSTORE POP DUP2 MSTORE PUSH1 0x20 ADD PUSH1 0x0 PUSH1 0xFF AND DUP2 MSTORE PUSH1 0x20 ADD PUSH1 0x0 PUSH1 0xFF AND DUP2 MSTORE POP SWAP1 DUP1 PUSH1 0x1 DUP2 SLOAD ADD DUP1 DUP3 SSTORE DUP1 SWAP2 POP POP PUSH1 0x1 SWAP1 SUB SWAP1 PUSH1 0x0 MSTORE PUSH1 0x20 PUSH1 0x0 KECCAK256 SWAP1 PUSH1 0x6 MUL ADD PUSH1 0x0 SWAP1 SWAP2 SWAP1 SWAP2 SWAP1 SWAP2 POP PUSH1 0x0 DUP3 ADD MLOAD DUP2 PUSH1 0x0 ADD SSTORE PUSH1 0x20 DUP3 ADD MLOAD DUP2 PUSH1 0x1 ADD PUSH1 0x0 PUSH2 0x100 EXP DUP2 SLOAD DUP2 PUSH20 0xFFFFFFFFFFFFFFFFFFFFFFFFFFFFFFFFFFFFFFFF MUL NOT AND SWAP1 DUP4 PUSH20 0xFFFFFFFFFFFFFFFFFFFFFFFFFFFFFFFFFFFFFFFF AND MUL OR SWAP1 SSTORE POP PUSH1 0x40 DUP3 ADD MLOAD DUP2 PUSH1 0x2 ADD PUSH1 0x0 PUSH2 0x100 EXP DUP2 SLOAD DUP2 PUSH20 0xFFFFFFFFFFFFFFFFFFFFFFFFFFFFFFFFFFFFFFFF MUL NOT AND SWAP1 DUP4 PUSH20 0xFFFFFFFFFFFFFFFFFFFFFFFFFFFFFFFFFFFFFFFF AND MUL OR SWAP1 SSTORE POP PUSH1 0x60 DUP3 ADD MLOAD DUP2 PUSH1 0x3 ADD SWAP1 DUP1 MLOAD SWAP1 PUSH1 0x20 ADD SWAP1 PUSH2 0x12CE SWAP3 SWAP2 SWAP1 PUSH2 0x203E JUMP JUMPDEST POP PUSH1 0x80 DUP3 ADD MLOAD DUP2 PUSH1 0x4 ADD SWAP1 DUP1 MLOAD SWAP1 PUSH1 0x20 ADD SWAP1 PUSH2 0x12EB SWAP3 SWAP2 SWAP1 PUSH2 0x203E JUMP JUMPDEST POP PUSH1 0xA0 DUP3 ADD MLOAD DUP2 PUSH1 0x5 ADD PUSH1 0x0 PUSH2 0x100 EXP DUP2 SLOAD DUP2 PUSH1 0xFF MUL NOT AND SWAP1 DUP4 PUSH1 0xFF AND MUL OR SWAP1 SSTORE POP PUSH1 0xC0 DUP3 ADD MLOAD DUP2 PUSH1 0x5 ADD PUSH1 0x1 PUSH2 0x100 EXP DUP2 SLOAD DUP2 PUSH1 0xFF MUL NOT AND SWAP1 DUP4 PUSH1 0xFF AND MUL OR SWAP1 SSTORE POP POP POP PUSH2 0x133A PUSH1 0x1 PUSH2 0x1FB1 JUMP JUMPDEST PUSH1 0x1 PUSH2 0x1346 PUSH1 0x1 PUSH2 0x1FA3 JUMP JUMPDEST PUSH2 0x1350 SWAP2 SWAP1 PUSH2 0x2978 JUMP JUMPDEST SWAP1 POP SWAP4 SWAP3 POP POP POP JUMP JUMPDEST PUSH1 0x0 PUSH1 0x2 DUP4 DUP2 SLOAD DUP2 LT PUSH2 0x136F JUMPI PUSH2 0x136E PUSH2 0x2B77 JUMP JUMPDEST JUMPDEST SWAP1 PUSH1 0x0 MSTORE PUSH1 0x20 PUSH1 0x0 KECCAK256 SWAP1 PUSH1 0x6 MUL ADD PUSH1 0x40 MLOAD DUP1 PUSH1 0xE0 ADD PUSH1 0x40 MSTORE SWAP1 DUP2 PUSH1 0x0 DUP3 ADD SLOAD DUP2 MSTORE PUSH1 0x20 ADD PUSH1 0x1 DUP3 ADD PUSH1 0x0 SWAP1 SLOAD SWAP1 PUSH2 0x100 EXP SWAP1 DIV PUSH20 0xFFFFFFFFFFFFFFFFFFFFFFFFFFFFFFFFFFFFFFFF AND PUSH20 0xFFFFFFFFFFFFFFFFFFFFFFFFFFFFFFFFFFFFFFFF AND PUSH20 0xFFFFFFFFFFFFFFFFFFFFFFFFFFFFFFFFFFFFFFFF AND DUP2 MSTORE PUSH1 0x20 ADD PUSH1 0x2 DUP3 ADD PUSH1 0x0 SWAP1 SLOAD SWAP1 PUSH2 0x100 EXP SWAP1 DIV PUSH20 0xFFFFFFFFFFFFFFFFFFFFFFFFFFFFFFFFFFFFFFFF AND PUSH20 0xFFFFFFFFFFFFFFFFFFFFFFFFFFFFFFFFFFFFFFFF AND PUSH20 0xFFFFFFFFFFFFFFFFFFFFFFFFFFFFFFFFFFFFFFFF AND DUP2 MSTORE PUSH1 0x20 ADD PUSH1 0x3 DUP3 ADD DUP1 SLOAD PUSH2 0x144E SWAP1 PUSH2 0x2A6D JUMP JUMPDEST DUP1 PUSH1 0x1F ADD PUSH1 0x20 DUP1 SWAP2 DIV MUL PUSH1 0x20 ADD PUSH1 0x40 MLOAD SWAP1 DUP2 ADD PUSH1 0x40 MSTORE DUP1 SWAP3 SWAP2 SWAP1 DUP2 DUP2 MSTORE PUSH1 0x20 ADD DUP3 DUP1 SLOAD PUSH2 0x147A SWAP1 PUSH2 0x2A6D JUMP JUMPDEST DUP1 ISZERO PUSH2 0x14C7 JUMPI DUP1 PUSH1 0x1F LT PUSH2 0x149C JUMPI PUSH2 0x100 DUP1 DUP4 SLOAD DIV MUL DUP4 MSTORE SWAP2 PUSH1 0x20 ADD SWAP2 PUSH2 0x14C7 JUMP JUMPDEST DUP3 ADD SWAP2 SWAP1 PUSH1 0x0 MSTORE PUSH1 0x20 PUSH1 0x0 KECCAK256 SWAP1 JUMPDEST DUP2 SLOAD DUP2 MSTORE SWAP1 PUSH1 0x1 ADD SWAP1 PUSH1 0x20 ADD DUP1 DUP4 GT PUSH2 0x14AA JUMPI DUP3 SWAP1 SUB PUSH1 0x1F AND DUP3 ADD SWAP2 JUMPDEST POP POP POP POP POP DUP2 MSTORE PUSH1 0x20 ADD PUSH1 0x4 DUP3 ADD DUP1 SLOAD PUSH2 0x14E0 SWAP1 PUSH2 0x2A6D JUMP JUMPDEST DUP1 PUSH1 0x1F ADD PUSH1 0x20 DUP1 SWAP2 DIV MUL PUSH1 0x20 ADD PUSH1 0x40 MLOAD SWAP1 DUP2 ADD PUSH1 0x40 MSTORE DUP1 SWAP3 SWAP2 SWAP1 DUP2 DUP2 MSTORE PUSH1 0x20 ADD DUP3 DUP1 SLOAD PUSH2 0x150C SWAP1 PUSH2 0x2A6D JUMP JUMPDEST DUP1 ISZERO PUSH2 0x1559 JUMPI DUP1 PUSH1 0x1F LT PUSH2 0x152E JUMPI PUSH2 0x100 DUP1 DUP4 SLOAD DIV MUL DUP4 MSTORE SWAP2 PUSH1 0x20 ADD SWAP2 PUSH2 0x1559 JUMP JUMPDEST DUP3 ADD SWAP2 SWAP1 PUSH1 0x0 MSTORE PUSH1 0x20 PUSH1 0x0 KECCAK256 SWAP1 JUMPDEST DUP2 SLOAD DUP2 MSTORE SWAP1 PUSH1 0x1 ADD SWAP1 PUSH1 0x20 ADD DUP1 DUP4 GT PUSH2 0x153C JUMPI DUP3 SWAP1 SUB PUSH1 0x1F AND DUP3 ADD SWAP2 JUMPDEST POP POP POP POP POP DUP2 MSTORE PUSH1 0x20 ADD PUSH1 0x5 DUP3 ADD PUSH1 0x0 SWAP1 SLOAD SWAP1 PUSH2 0x100 EXP SWAP1 DIV PUSH1 0xFF AND PUSH1 0xFF AND PUSH1 0xFF AND DUP2 MSTORE PUSH1 0x20 ADD PUSH1 0x5 DUP3 ADD PUSH1 0x1 SWAP1 SLOAD SWAP1 PUSH2 0x100 EXP SWAP1 DIV PUSH1 0xFF AND PUSH1 0xFF AND PUSH1 0xFF AND DUP2 MSTORE POP POP SWAP1 POP PUSH2 0x15BB DUP2 PUSH1 0x80 ADD MLOAD PUSH1 0x40 MLOAD DUP1 PUSH1 0x20 ADD PUSH1 0x40 MSTORE DUP1 PUSH1 0x0 DUP2 MSTORE POP PUSH2 0x1E86 JUMP JUMPDEST PUSH2 0x15FA JUMPI PUSH1 0x40 MLOAD PUSH32 0x8C379A000000000000000000000000000000000000000000000000000000000 DUP2 MSTORE PUSH1 0x4 ADD PUSH2 0x15F1 SWAP1 PUSH2 0x27E9 JUMP JUMPDEST PUSH1 0x40 MLOAD DUP1 SWAP2 SUB SWAP1 REVERT JUMPDEST CALLER PUSH20 0xFFFFFFFFFFFFFFFFFFFFFFFFFFFFFFFFFFFFFFFF AND DUP2 PUSH1 0x40 ADD MLOAD PUSH20 0xFFFFFFFFFFFFFFFFFFFFFFFFFFFFFFFFFFFFFFFF AND EQ PUSH2 0x166C JUMPI PUSH1 0x40 MLOAD PUSH32 0x8C379A000000000000000000000000000000000000000000000000000000000 DUP2 MSTORE PUSH1 0x4 ADD PUSH2 0x1663 SWAP1 PUSH2 0x27C9 JUMP JUMPDEST PUSH1 0x40 MLOAD DUP1 SWAP2 SUB SWAP1 REVERT JUMPDEST DUP2 PUSH1 0x2 DUP5 DUP2 SLOAD DUP2 LT PUSH2 0x1681 JUMPI PUSH2 0x1680 PUSH2 0x2B77 JUMP JUMPDEST JUMPDEST SWAP1 PUSH1 0x0 MSTORE PUSH1 0x20 PUSH1 0x0 KECCAK256 SWAP1 PUSH1 0x6 MUL ADD PUSH1 0x4 ADD SWAP1 DUP1 MLOAD SWAP1 PUSH1 0x20 ADD SWAP1 PUSH2 0x16A5 SWAP3 SWAP2 SWAP1 PUSH2 0x203E JUMP JUMPDEST POP POP POP POP JUMP JUMPDEST PUSH2 0x16B3 PUSH2 0x1E08 JUMP JUMPDEST DUP2 PUSH2 0x177A PUSH1 0x2 DUP3 DUP2 SLOAD DUP2 LT PUSH2 0x16CB JUMPI PUSH2 0x16CA PUSH2 0x2B77 JUMP JUMPDEST JUMPDEST SWAP1 PUSH1 0x0 MSTORE PUSH1 0x20 PUSH1 0x0 KECCAK256 SWAP1 PUSH1 0x6 MUL ADD PUSH1 0x3 ADD DUP1 SLOAD PUSH2 0x16E7 SWAP1 PUSH2 0x2A6D JUMP JUMPDEST DUP1 PUSH1 0x1F ADD PUSH1 0x20 DUP1 SWAP2 DIV MUL PUSH1 0x20 ADD PUSH1 0x40 MLOAD SWAP1 DUP2 ADD PUSH1 0x40 MSTORE DUP1 SWAP3 SWAP2 SWAP1 DUP2 DUP2 MSTORE PUSH1 0x20 ADD DUP3 DUP1 SLOAD PUSH2 0x1713 SWAP1 PUSH2 0x2A6D JUMP JUMPDEST DUP1 ISZERO PUSH2 0x1760 JUMPI DUP1 PUSH1 0x1F LT PUSH2 0x1735 JUMPI PUSH2 0x100 DUP1 DUP4 SLOAD DIV MUL DUP4 MSTORE SWAP2 PUSH1 0x20 ADD SWAP2 PUSH2 0x1760 JUMP JUMPDEST DUP3 ADD SWAP2 SWAP1 PUSH1 0x0 MSTORE PUSH1 0x20 PUSH1 0x0 KECCAK256 SWAP1 JUMPDEST DUP2 SLOAD DUP2 MSTORE SWAP1 PUSH1 0x1 ADD SWAP1 PUSH1 0x20 ADD DUP1 DUP4 GT PUSH2 0x1743 JUMPI DUP3 SWAP1 SUB PUSH1 0x1F AND DUP3 ADD SWAP2 JUMPDEST POP POP POP POP POP PUSH1 0x40 MLOAD DUP1 PUSH1 0x20 ADD PUSH1 0x40 MSTORE DUP1 PUSH1 0x0 DUP2 MSTORE POP PUSH2 0x1E86 JUMP JUMPDEST ISZERO PUSH2 0x17BA JUMPI PUSH1 0x40 MLOAD PUSH32 0x8C379A000000000000000000000000000000000000000000000000000000000 DUP2 MSTORE PUSH1 0x4 ADD PUSH2 0x17B1 SWAP1 PUSH2 0x2789 JUMP JUMPDEST PUSH1 0x40 MLOAD DUP1 SWAP2 SUB SWAP1 REVERT JUMPDEST PUSH2 0x1880 PUSH1 0x2 DUP3 DUP2 SLOAD DUP2 LT PUSH2 0x17D1 JUMPI PUSH2 0x17D0 PUSH2 0x2B77 JUMP JUMPDEST JUMPDEST SWAP1 PUSH1 0x0 MSTORE PUSH1 0x20 PUSH1 0x0 KECCAK256 SWAP1 PUSH1 0x6 MUL ADD PUSH1 0x4 ADD DUP1 SLOAD PUSH2 0x17ED SWAP1 PUSH2 0x2A6D JUMP JUMPDEST DUP1 PUSH1 0x1F ADD PUSH1 0x20 DUP1 SWAP2 DIV MUL PUSH1 0x20 ADD PUSH1 0x40 MLOAD SWAP1 DUP2 ADD PUSH1 0x40 MSTORE DUP1 SWAP3 SWAP2 SWAP1 DUP2 DUP2 MSTORE PUSH1 0x20 ADD DUP3 DUP1 SLOAD PUSH2 0x1819 SWAP1 PUSH2 0x2A6D JUMP JUMPDEST DUP1 ISZERO PUSH2 0x1866 JUMPI DUP1 PUSH1 0x1F LT PUSH2 0x183B JUMPI PUSH2 0x100 DUP1 DUP4 SLOAD DIV MUL DUP4 MSTORE SWAP2 PUSH1 0x20 ADD SWAP2 PUSH2 0x1866 JUMP JUMPDEST DUP3 ADD SWAP2 SWAP1 PUSH1 0x0 MSTORE PUSH1 0x20 PUSH1 0x0 KECCAK256 SWAP1 JUMPDEST DUP2 SLOAD DUP2 MSTORE SWAP1 PUSH1 0x1 ADD SWAP1 PUSH1 0x20 ADD DUP1 DUP4 GT PUSH2 0x1849 JUMPI DUP3 SWAP1 SUB PUSH1 0x1F AND DUP3 ADD SWAP2 JUMPDEST POP POP POP POP POP PUSH1 0x40 MLOAD DUP1 PUSH1 0x20 ADD PUSH1 0x40 MSTORE DUP1 PUSH1 0x0 DUP2 MSTORE POP PUSH2 0x1E86 JUMP JUMPDEST ISZERO PUSH2 0x18C0 JUMPI PUSH1 0x40 MLOAD PUSH32 0x8C379A000000000000000000000000000000000000000000000000000000000 DUP2 MSTORE PUSH1 0x4 ADD PUSH2 0x18B7 SWAP1 PUSH2 0x2789 JUMP JUMPDEST PUSH1 0x40 MLOAD DUP1 SWAP2 SUB SWAP1 REVERT JUMPDEST PUSH2 0x18CC DUP4 DUP4 PUSH1 0x0 PUSH2 0x831 JUMP JUMPDEST POP POP POP JUMP JUMPDEST PUSH1 0x60 PUSH1 0x64 DUP3 LT PUSH2 0x1916 JUMPI PUSH1 0x40 MLOAD PUSH32 0x8C379A000000000000000000000000000000000000000000000000000000000 DUP2 MSTORE PUSH1 0x4 ADD PUSH2 0x190D SWAP1 PUSH2 0x2769 JUMP JUMPDEST PUSH1 0x40 MLOAD DUP1 SWAP2 SUB SWAP1 REVERT JUMPDEST PUSH1 0x0 DUP1 PUSH1 0x0 SWAP1 POP JUMPDEST PUSH1 0x2 DUP1 SLOAD SWAP1 POP DUP2 LT ISZERO PUSH2 0x19C6 JUMPI DUP5 PUSH20 0xFFFFFFFFFFFFFFFFFFFFFFFFFFFFFFFFFFFFFFFF AND PUSH1 0x2 DUP3 DUP2 SLOAD DUP2 LT PUSH2 0x1956 JUMPI PUSH2 0x1955 PUSH2 0x2B77 JUMP JUMPDEST JUMPDEST SWAP1 PUSH1 0x0 MSTORE PUSH1 0x20 PUSH1 0x0 KECCAK256 SWAP1 PUSH1 0x6 MUL ADD PUSH1 0x2 ADD PUSH1 0x0 SWAP1 SLOAD SWAP1 PUSH2 0x100 EXP SWAP1 DIV PUSH20 0xFFFFFFFFFFFFFFFFFFFFFFFFFFFFFFFFFFFFFFFF AND PUSH20 0xFFFFFFFFFFFFFFFFFFFFFFFFFFFFFFFFFFFFFFFF AND EQ ISZERO PUSH2 0x19B3 JUMPI DUP2 DUP1 PUSH2 0x19AF SWAP1 PUSH2 0x2AD0 JUMP JUMPDEST SWAP3 POP POP JUMPDEST DUP1 DUP1 PUSH2 0x19BE SWAP1 PUSH2 0x2AD0 JUMP JUMPDEST SWAP2 POP POP PUSH2 0x191E JUMP JUMPDEST POP PUSH1 0x0 DUP4 DUP3 LT PUSH2 0x19D6 JUMPI DUP4 PUSH2 0x19D8 JUMP JUMPDEST DUP2 JUMPDEST SWAP1 POP PUSH1 0x0 DUP3 PUSH8 0xFFFFFFFFFFFFFFFF DUP2 GT ISZERO PUSH2 0x19F6 JUMPI PUSH2 0x19F5 PUSH2 0x2BA6 JUMP JUMPDEST JUMPDEST PUSH1 0x40 MLOAD SWAP1 DUP1 DUP3 MSTORE DUP1 PUSH1 0x20 MUL PUSH1 0x20 ADD DUP3 ADD PUSH1 0x40 MSTORE DUP1 ISZERO PUSH2 0x1A2F JUMPI DUP2 PUSH1 0x20 ADD JUMPDEST PUSH2 0x1A1C PUSH2 0x1FCF JUMP JUMPDEST DUP2 MSTORE PUSH1 0x20 ADD SWAP1 PUSH1 0x1 SWAP1 SUB SWAP1 DUP2 PUSH2 0x1A14 JUMPI SWAP1 POP JUMPDEST POP SWAP1 POP PUSH1 0x0 DUP1 PUSH1 0x2 DUP1 SLOAD SWAP1 POP SWAP1 POP PUSH1 0x0 DUP2 SWAP1 POP JUMPDEST PUSH1 0x0 DUP2 GT ISZERO PUSH2 0x1D74 JUMPI DUP9 PUSH20 0xFFFFFFFFFFFFFFFFFFFFFFFFFFFFFFFFFFFFFFFF AND PUSH1 0x2 PUSH1 0x1 DUP4 PUSH2 0x1A72 SWAP2 SWAP1 PUSH2 0x2978 JUMP JUMPDEST DUP2 SLOAD DUP2 LT PUSH2 0x1A83 JUMPI PUSH2 0x1A82 PUSH2 0x2B77 JUMP JUMPDEST JUMPDEST SWAP1 PUSH1 0x0 MSTORE PUSH1 0x20 PUSH1 0x0 KECCAK256 SWAP1 PUSH1 0x6 MUL ADD PUSH1 0x2 ADD PUSH1 0x0 SWAP1 SLOAD SWAP1 PUSH2 0x100 EXP SWAP1 DIV PUSH20 0xFFFFFFFFFFFFFFFFFFFFFFFFFFFFFFFFFFFFFFFF AND PUSH20 0xFFFFFFFFFFFFFFFFFFFFFFFFFFFFFFFFFFFFFFFF AND EQ ISZERO PUSH2 0x1D61 JUMPI PUSH1 0x2 PUSH1 0x1 DUP3 PUSH2 0x1AE0 SWAP2 SWAP1 PUSH2 0x2978 JUMP JUMPDEST DUP2 SLOAD DUP2 LT PUSH2 0x1AF1 JUMPI PUSH2 0x1AF0 PUSH2 0x2B77 JUMP JUMPDEST JUMPDEST SWAP1 PUSH1 0x0 MSTORE PUSH1 0x20 PUSH1 0x0 KECCAK256 SWAP1 PUSH1 0x6 MUL ADD PUSH1 0x40 MLOAD DUP1 PUSH1 0xE0 ADD PUSH1 0x40 MSTORE SWAP1 DUP2 PUSH1 0x0 DUP3 ADD SLOAD DUP2 MSTORE PUSH1 0x20 ADD PUSH1 0x1 DUP3 ADD PUSH1 0x0 SWAP1 SLOAD SWAP1 PUSH2 0x100 EXP SWAP1 DIV PUSH20 0xFFFFFFFFFFFFFFFFFFFFFFFFFFFFFFFFFFFFFFFF AND PUSH20 0xFFFFFFFFFFFFFFFFFFFFFFFFFFFFFFFFFFFFFFFF AND PUSH20 0xFFFFFFFFFFFFFFFFFFFFFFFFFFFFFFFFFFFFFFFF AND DUP2 MSTORE PUSH1 0x20 ADD PUSH1 0x2 DUP3 ADD PUSH1 0x0 SWAP1 SLOAD SWAP1 PUSH2 0x100 EXP SWAP1 DIV PUSH20 0xFFFFFFFFFFFFFFFFFFFFFFFFFFFFFFFFFFFFFFFF AND PUSH20 0xFFFFFFFFFFFFFFFFFFFFFFFFFFFFFFFFFFFFFFFF AND PUSH20 0xFFFFFFFFFFFFFFFFFFFFFFFFFFFFFFFFFFFFFFFF AND DUP2 MSTORE PUSH1 0x20 ADD PUSH1 0x3 DUP3 ADD DUP1 SLOAD PUSH2 0x1BD0 SWAP1 PUSH2 0x2A6D JUMP JUMPDEST DUP1 PUSH1 0x1F ADD PUSH1 0x20 DUP1 SWAP2 DIV MUL PUSH1 0x20 ADD PUSH1 0x40 MLOAD SWAP1 DUP2 ADD PUSH1 0x40 MSTORE DUP1 SWAP3 SWAP2 SWAP1 DUP2 DUP2 MSTORE PUSH1 0x20 ADD DUP3 DUP1 SLOAD PUSH2 0x1BFC SWAP1 PUSH2 0x2A6D JUMP JUMPDEST DUP1 ISZERO PUSH2 0x1C49 JUMPI DUP1 PUSH1 0x1F LT PUSH2 0x1C1E JUMPI PUSH2 0x100 DUP1 DUP4 SLOAD DIV MUL DUP4 MSTORE SWAP2 PUSH1 0x20 ADD SWAP2 PUSH2 0x1C49 JUMP JUMPDEST DUP3 ADD SWAP2 SWAP1 PUSH1 0x0 MSTORE PUSH1 0x20 PUSH1 0x0 KECCAK256 SWAP1 JUMPDEST DUP2 SLOAD DUP2 MSTORE SWAP1 PUSH1 0x1 ADD SWAP1 PUSH1 0x20 ADD DUP1 DUP4 GT PUSH2 0x1C2C JUMPI DUP3 SWAP1 SUB PUSH1 0x1F AND DUP3 ADD SWAP2 JUMPDEST POP POP POP POP POP DUP2 MSTORE PUSH1 0x20 ADD PUSH1 0x4 DUP3 ADD DUP1 SLOAD PUSH2 0x1C62 SWAP1 PUSH2 0x2A6D JUMP JUMPDEST DUP1 PUSH1 0x1F ADD PUSH1 0x20 DUP1 SWAP2 DIV MUL PUSH1 0x20 ADD PUSH1 0x40 MLOAD SWAP1 DUP2 ADD PUSH1 0x40 MSTORE DUP1 SWAP3 SWAP2 SWAP1 DUP2 DUP2 MSTORE PUSH1 0x20 ADD DUP3 DUP1 SLOAD PUSH2 0x1C8E SWAP1 PUSH2 0x2A6D JUMP JUMPDEST DUP1 ISZERO PUSH2 0x1CDB JUMPI DUP1 PUSH1 0x1F LT PUSH2 0x1CB0 JUMPI PUSH2 0x100 DUP1 DUP4 SLOAD DIV MUL DUP4 MSTORE SWAP2 PUSH1 0x20 ADD SWAP2 PUSH2 0x1CDB JUMP JUMPDEST DUP3 ADD SWAP2 SWAP1 PUSH1 0x0 MSTORE PUSH1 0x20 PUSH1 0x0 KECCAK256 SWAP1 JUMPDEST DUP2 SLOAD DUP2 MSTORE SWAP1 PUSH1 0x1 ADD SWAP1 PUSH1 0x20 ADD DUP1 DUP4 GT PUSH2 0x1CBE JUMPI DUP3 SWAP1 SUB PUSH1 0x1F AND DUP3 ADD SWAP2 JUMPDEST POP POP POP POP POP DUP2 MSTORE PUSH1 0x20 ADD PUSH1 0x5 DUP3 ADD PUSH1 0x0 SWAP1 SLOAD SWAP1 PUSH2 0x100 EXP SWAP1 DIV PUSH1 0xFF AND PUSH1 0xFF AND PUSH1 0xFF AND DUP2 MSTORE PUSH1 0x20 ADD PUSH1 0x5 DUP3 ADD PUSH1 0x1 SWAP1 SLOAD SWAP1 PUSH2 0x100 EXP SWAP1 DIV PUSH1 0xFF AND PUSH1 0xFF AND PUSH1 0xFF AND DUP2 MSTORE POP POP DUP5 DUP5 DUP2 MLOAD DUP2 LT PUSH2 0x1D31 JUMPI PUSH2 0x1D30 PUSH2 0x2B77 JUMP JUMPDEST JUMPDEST PUSH1 0x20 MUL PUSH1 0x20 ADD ADD DUP2 SWAP1 MSTORE POP DUP3 DUP1 PUSH2 0x1D47 SWAP1 PUSH2 0x2AD0 JUMP JUMPDEST SWAP4 POP POP DUP5 DUP4 EQ ISZERO PUSH2 0x1D60 JUMPI DUP4 SWAP7 POP POP POP POP POP POP POP PUSH2 0x1D7E JUMP JUMPDEST JUMPDEST DUP1 DUP1 PUSH2 0x1D6C SWAP1 PUSH2 0x2A43 JUMP JUMPDEST SWAP2 POP POP PUSH2 0x1A43 JUMP JUMPDEST POP DUP3 SWAP6 POP POP POP POP POP POP JUMPDEST SWAP3 SWAP2 POP POP JUMP JUMPDEST PUSH2 0x1D8C PUSH2 0x1E08 JUMP JUMPDEST PUSH1 0x0 PUSH20 0xFFFFFFFFFFFFFFFFFFFFFFFFFFFFFFFFFFFFFFFF AND DUP2 PUSH20 0xFFFFFFFFFFFFFFFFFFFFFFFFFFFFFFFFFFFFFFFF AND EQ ISZERO PUSH2 0x1DFC JUMPI PUSH1 0x40 MLOAD PUSH32 0x8C379A000000000000000000000000000000000000000000000000000000000 DUP2 MSTORE PUSH1 0x4 ADD PUSH2 0x1DF3 SWAP1 PUSH2 0x2729 JUMP JUMPDEST PUSH1 0x40 MLOAD DUP1 SWAP2 SUB SWAP1 REVERT JUMPDEST PUSH2 0x1E05 DUP2 PUSH2 0x1EDF JUMP JUMPDEST POP JUMP JUMPDEST PUSH2 0x1E10 PUSH2 0x1FC7 JUMP JUMPDEST PUSH20 0xFFFFFFFFFFFFFFFFFFFFFFFFFFFFFFFFFFFFFFFF AND PUSH2 0x1E2E PUSH2 0xDCE JUMP JUMPDEST PUSH20 0xFFFFFFFFFFFFFFFFFFFFFFFFFFFFFFFFFFFFFFFF AND EQ PUSH2 0x1E84 JUMPI PUSH1 0x40 MLOAD PUSH32 0x8C379A000000000000000000000000000000000000000000000000000000000 DUP2 MSTORE PUSH1 0x4 ADD PUSH2 0x1E7B SWAP1 PUSH2 0x27A9 JUMP JUMPDEST PUSH1 0x40 MLOAD DUP1 SWAP2 SUB SWAP1 REVERT JUMPDEST JUMP JUMPDEST PUSH1 0x0 DUP2 PUSH1 0x40 MLOAD PUSH1 0x20 ADD PUSH2 0x1E99 SWAP2 SWAP1 PUSH2 0x26D5 JUMP JUMPDEST PUSH1 0x40 MLOAD PUSH1 0x20 DUP2 DUP4 SUB SUB DUP2 MSTORE SWAP1 PUSH1 0x40 MSTORE DUP1 MLOAD SWAP1 PUSH1 0x20 ADD KECCAK256 DUP4 PUSH1 0x40 MLOAD PUSH1 0x20 ADD PUSH2 0x1EC0 SWAP2 SWAP1 PUSH2 0x26D5 JUMP JUMPDEST PUSH1 0x40 MLOAD PUSH1 0x20 DUP2 DUP4 SUB SUB DUP2 MSTORE SWAP1 PUSH1 0x40 MSTORE DUP1 MLOAD SWAP1 PUSH1 0x20 ADD KECCAK256 EQ SWAP1 POP SWAP3 SWAP2 POP POP JUMP JUMPDEST PUSH1 0x0 DUP1 PUSH1 0x0 SWAP1 SLOAD SWAP1 PUSH2 0x100 EXP SWAP1 DIV PUSH20 0xFFFFFFFFFFFFFFFFFFFFFFFFFFFFFFFFFFFFFFFF AND SWAP1 POP DUP2 PUSH1 0x0 DUP1 PUSH2 0x100 EXP DUP2 SLOAD DUP2 PUSH20 0xFFFFFFFFFFFFFFFFFFFFFFFFFFFFFFFFFFFFFFFF MUL NOT AND SWAP1 DUP4 PUSH20 0xFFFFFFFFFFFFFFFFFFFFFFFFFFFFFFFFFFFFFFFF AND MUL OR SWAP1 SSTORE POP DUP2 PUSH20 0xFFFFFFFFFFFFFFFFFFFFFFFFFFFFFFFFFFFFFFFF AND DUP2 PUSH20 0xFFFFFFFFFFFFFFFFFFFFFFFFFFFFFFFFFFFFFFFF AND PUSH32 0x8BE0079C531659141344CD1FD0A4F28419497F9722A3DAAFE3B4186F6B6457E0 PUSH1 0x40 MLOAD PUSH1 0x40 MLOAD DUP1 SWAP2 SUB SWAP1 LOG3 POP POP JUMP JUMPDEST PUSH1 0x0 DUP2 PUSH1 0x0 ADD SLOAD SWAP1 POP SWAP2 SWAP1 POP JUMP JUMPDEST PUSH1 0x1 DUP2 PUSH1 0x0 ADD PUSH1 0x0 DUP3 DUP3 SLOAD ADD SWAP3 POP POP DUP2 SWAP1 SSTORE POP POP JUMP JUMPDEST PUSH1 0x0 CALLER SWAP1 POP SWAP1 JUMP JUMPDEST PUSH1 0x40 MLOAD DUP1 PUSH1 0xE0 ADD PUSH1 0x40 MSTORE DUP1 PUSH1 0x0 DUP2 MSTORE PUSH1 0x20 ADD PUSH1 0x0 PUSH20 0xFFFFFFFFFFFFFFFFFFFFFFFFFFFFFFFFFFFFFFFF AND DUP2 MSTORE PUSH1 0x20 ADD PUSH1 0x0 PUSH20 0xFFFFFFFFFFFFFFFFFFFFFFFFFFFFFFFFFFFFFFFF AND DUP2 MSTORE PUSH1 0x20 ADD PUSH1 0x60 DUP2 MSTORE PUSH1 0x20 ADD PUSH1 0x60 DUP2 MSTORE PUSH1 0x20 ADD PUSH1 0x0 PUSH1 0xFF AND DUP2 MSTORE PUSH1 0x20 ADD PUSH1 0x0 PUSH1 0xFF AND DUP2 MSTORE POP SWAP1 JUMP JUMPDEST DUP3 DUP1 SLOAD PUSH2 0x204A SWAP1 PUSH2 0x2A6D JUMP JUMPDEST SWAP1 PUSH1 0x0 MSTORE PUSH1 0x20 PUSH1 0x0 KECCAK256 SWAP1 PUSH1 0x1F ADD PUSH1 0x20 SWAP1 DIV DUP2 ADD SWAP3 DUP3 PUSH2 0x206C JUMPI PUSH1 0x0 DUP6 SSTORE PUSH2 0x20B3 JUMP JUMPDEST DUP3 PUSH1 0x1F LT PUSH2 0x2085 JUMPI DUP1 MLOAD PUSH1 0xFF NOT AND DUP4 DUP1 ADD OR DUP6 SSTORE PUSH2 0x20B3 JUMP JUMPDEST DUP3 DUP1 ADD PUSH1 0x1 ADD DUP6 SSTORE DUP3 ISZERO PUSH2 0x20B3 JUMPI SWAP2 DUP3 ADD JUMPDEST DUP3 DUP2 GT ISZERO PUSH2 0x20B2 JUMPI DUP3 MLOAD DUP3 SSTORE SWAP2 PUSH1 0x20 ADD SWAP2 SWAP1 PUSH1 0x1 ADD SWAP1 PUSH2 0x2097 JUMP JUMPDEST JUMPDEST POP SWAP1 POP PUSH2 0x20C0 SWAP2 SWAP1 PUSH2 0x20C4 JUMP JUMPDEST POP SWAP1 JUMP JUMPDEST JUMPDEST DUP1 DUP3 GT ISZERO PUSH2 0x20DD JUMPI PUSH1 0x0 DUP2 PUSH1 0x0 SWAP1 SSTORE POP PUSH1 0x1 ADD PUSH2 0x20C5 JUMP JUMPDEST POP SWAP1 JUMP JUMPDEST PUSH1 0x0 PUSH2 0x20F4 PUSH2 0x20EF DUP5 PUSH2 0x2880 JUMP JUMPDEST PUSH2 0x285B JUMP JUMPDEST SWAP1 POP DUP3 DUP2 MSTORE PUSH1 0x20 DUP2 ADD DUP5 DUP5 DUP5 ADD GT ISZERO PUSH2 0x2110 JUMPI PUSH2 0x210F PUSH2 0x2BDA JUMP JUMPDEST JUMPDEST PUSH2 0x211B DUP5 DUP3 DUP6 PUSH2 0x2A01 JUMP JUMPDEST POP SWAP4 SWAP3 POP POP POP JUMP JUMPDEST PUSH1 0x0 DUP2 CALLDATALOAD SWAP1 POP PUSH2 0x2132 DUP2 PUSH2 0x2DFD JUMP JUMPDEST SWAP3 SWAP2 POP POP JUMP JUMPDEST PUSH1 0x0 DUP2 CALLDATALOAD SWAP1 POP PUSH2 0x2147 DUP2 PUSH2 0x2E14 JUMP JUMPDEST SWAP3 SWAP2 POP POP JUMP JUMPDEST PUSH1 0x0 DUP3 PUSH1 0x1F DUP4 ADD SLT PUSH2 0x2162 JUMPI PUSH2 0x2161 PUSH2 0x2BD5 JUMP JUMPDEST JUMPDEST DUP2 CALLDATALOAD PUSH2 0x2172 DUP5 DUP3 PUSH1 0x20 DUP7 ADD PUSH2 0x20E1 JUMP JUMPDEST SWAP2 POP POP SWAP3 SWAP2 POP POP JUMP JUMPDEST PUSH1 0x0 DUP2 CALLDATALOAD SWAP1 POP PUSH2 0x218A DUP2 PUSH2 0x2E2B JUMP JUMPDEST SWAP3 SWAP2 POP POP JUMP JUMPDEST PUSH1 0x0 DUP2 CALLDATALOAD SWAP1 POP PUSH2 0x219F DUP2 PUSH2 0x2E42 JUMP JUMPDEST SWAP3 SWAP2 POP POP JUMP JUMPDEST PUSH1 0x0 PUSH1 0x20 DUP3 DUP5 SUB SLT ISZERO PUSH2 0x21BB JUMPI PUSH2 0x21BA PUSH2 0x2BE4 JUMP JUMPDEST JUMPDEST PUSH1 0x0 PUSH2 0x21C9 DUP5 DUP3 DUP6 ADD PUSH2 0x2123 JUMP JUMPDEST SWAP2 POP POP SWAP3 SWAP2 POP POP JUMP JUMPDEST PUSH1 0x0 DUP1 PUSH1 0x0 PUSH1 0x60 DUP5 DUP7 SUB SLT ISZERO PUSH2 0x21EB JUMPI PUSH2 0x21EA PUSH2 0x2BE4 JUMP JUMPDEST JUMPDEST PUSH1 0x0 PUSH2 0x21F9 DUP7 DUP3 DUP8 ADD PUSH2 0x2123 JUMP JUMPDEST SWAP4 POP POP PUSH1 0x20 PUSH2 0x220A DUP7 DUP3 DUP8 ADD PUSH2 0x2123 JUMP JUMPDEST SWAP3 POP POP PUSH1 0x40 DUP5 ADD CALLDATALOAD PUSH8 0xFFFFFFFFFFFFFFFF DUP2 GT ISZERO PUSH2 0x222B JUMPI PUSH2 0x222A PUSH2 0x2BDF JUMP JUMPDEST JUMPDEST PUSH2 0x2237 DUP7 DUP3 DUP8 ADD PUSH2 0x214D JUMP JUMPDEST SWAP2 POP POP SWAP3 POP SWAP3 POP SWAP3 JUMP JUMPDEST PUSH1 0x0 DUP1 PUSH1 0x40 DUP4 DUP6 SUB SLT ISZERO PUSH2 0x2258 JUMPI PUSH2 0x2257 PUSH2 0x2BE4 JUMP JUMPDEST JUMPDEST PUSH1 0x0 PUSH2 0x2266 DUP6 DUP3 DUP7 ADD PUSH2 0x2123 JUMP JUMPDEST SWAP3 POP POP PUSH1 0x20 PUSH2 0x2277 DUP6 DUP3 DUP7 ADD PUSH2 0x217B JUMP JUMPDEST SWAP2 POP POP SWAP3 POP SWAP3 SWAP1 POP JUMP JUMPDEST PUSH1 0x0 PUSH1 0x20 DUP3 DUP5 SUB SLT ISZERO PUSH2 0x2297 JUMPI PUSH2 0x2296 PUSH2 0x2BE4 JUMP JUMPDEST JUMPDEST PUSH1 0x0 PUSH2 0x22A5 DUP5 DUP3 DUP6 ADD PUSH2 0x217B JUMP JUMPDEST SWAP2 POP POP SWAP3 SWAP2 POP POP JUMP JUMPDEST PUSH1 0x0 DUP1 PUSH1 0x40 DUP4 DUP6 SUB SLT ISZERO PUSH2 0x22C5 JUMPI PUSH2 0x22C4 PUSH2 0x2BE4 JUMP JUMPDEST JUMPDEST PUSH1 0x0 PUSH2 0x22D3 DUP6 DUP3 DUP7 ADD PUSH2 0x217B JUMP JUMPDEST SWAP3 POP POP PUSH1 0x20 DUP4 ADD CALLDATALOAD PUSH8 0xFFFFFFFFFFFFFFFF DUP2 GT ISZERO PUSH2 0x22F4 JUMPI PUSH2 0x22F3 PUSH2 0x2BDF JUMP JUMPDEST JUMPDEST PUSH2 0x2300 DUP6 DUP3 DUP7 ADD PUSH2 0x214D JUMP JUMPDEST SWAP2 POP POP SWAP3 POP SWAP3 SWAP1 POP JUMP JUMPDEST PUSH1 0x0 DUP1 PUSH1 0x40 DUP4 DUP6 SUB SLT ISZERO PUSH2 0x2321 JUMPI PUSH2 0x2320 PUSH2 0x2BE4 JUMP JUMPDEST JUMPDEST PUSH1 0x0 PUSH2 0x232F DUP6 DUP3 DUP7 ADD PUSH2 0x217B JUMP JUMPDEST SWAP3 POP POP PUSH1 0x20 PUSH2 0x2340 DUP6 DUP3 DUP7 ADD PUSH2 0x2190 JUMP JUMPDEST SWAP2 POP POP SWAP3 POP SWAP3 SWAP1 POP JUMP JUMPDEST PUSH1 0x0 DUP1 PUSH1 0x0 PUSH1 0x60 DUP5 DUP7 SUB SLT ISZERO PUSH2 0x2363 JUMPI PUSH2 0x2362 PUSH2 0x2BE4 JUMP JUMPDEST JUMPDEST PUSH1 0x0 PUSH2 0x2371 DUP7 DUP3 DUP8 ADD PUSH2 0x217B JUMP JUMPDEST SWAP4 POP POP PUSH1 0x20 PUSH2 0x2382 DUP7 DUP3 DUP8 ADD PUSH2 0x2190 JUMP JUMPDEST SWAP3 POP POP PUSH1 0x40 PUSH2 0x2393 DUP7 DUP3 DUP8 ADD PUSH2 0x2138 JUMP JUMPDEST SWAP2 POP POP SWAP3 POP SWAP3 POP SWAP3 JUMP JUMPDEST PUSH1 0x0 DUP1 PUSH1 0x0 PUSH1 0x60 DUP5 DUP7 SUB SLT ISZERO PUSH2 0x23B6 JUMPI PUSH2 0x23B5 PUSH2 0x2BE4 JUMP JUMPDEST JUMPDEST PUSH1 0x0 PUSH2 0x23C4 DUP7 DUP3 DUP8 ADD PUSH2 0x217B JUMP JUMPDEST SWAP4 POP POP PUSH1 0x20 PUSH2 0x23D5 DUP7 DUP3 DUP8 ADD PUSH2 0x2190 JUMP JUMPDEST SWAP3 POP POP PUSH1 0x40 PUSH2 0x23E6 DUP7 DUP3 DUP8 ADD PUSH2 0x2190 JUMP JUMPDEST SWAP2 POP POP SWAP3 POP SWAP3 POP SWAP3 JUMP JUMPDEST PUSH1 0x0 PUSH2 0x23FC DUP4 DUP4 PUSH2 0x25F6 JUMP JUMPDEST SWAP1 POP SWAP3 SWAP2 POP POP JUMP JUMPDEST PUSH2 0x240D DUP2 PUSH2 0x29AC JUMP JUMPDEST DUP3 MSTORE POP POP JUMP JUMPDEST PUSH2 0x241C DUP2 PUSH2 0x29AC JUMP JUMPDEST DUP3 MSTORE POP POP JUMP JUMPDEST PUSH1 0x0 PUSH2 0x242D DUP3 PUSH2 0x28C1 JUMP JUMPDEST PUSH2 0x2437 DUP2 DUP6 PUSH2 0x28E4 JUMP JUMPDEST SWAP4 POP DUP4 PUSH1 0x20 DUP3 MUL DUP6 ADD PUSH2 0x2449 DUP6 PUSH2 0x28B1 JUMP JUMPDEST DUP1 PUSH1 0x0 JUMPDEST DUP6 DUP2 LT ISZERO PUSH2 0x2485 JUMPI DUP5 DUP5 SUB DUP10 MSTORE DUP2 MLOAD PUSH2 0x2466 DUP6 DUP3 PUSH2 0x23F0 JUMP JUMPDEST SWAP5 POP PUSH2 0x2471 DUP4 PUSH2 0x28D7 JUMP JUMPDEST SWAP3 POP PUSH1 0x20 DUP11 ADD SWAP10 POP POP PUSH1 0x1 DUP2 ADD SWAP1 POP PUSH2 0x244D JUMP JUMPDEST POP DUP3 SWAP8 POP DUP8 SWAP6 POP POP POP POP POP POP SWAP3 SWAP2 POP POP JUMP JUMPDEST PUSH1 0x0 PUSH2 0x24A2 DUP3 PUSH2 0x28CC JUMP JUMPDEST PUSH2 0x24AC DUP2 DUP6 PUSH2 0x28F5 JUMP JUMPDEST SWAP4 POP PUSH2 0x24BC DUP2 DUP6 PUSH1 0x20 DUP7 ADD PUSH2 0x2A10 JUMP JUMPDEST PUSH2 0x24C5 DUP2 PUSH2 0x2BE9 JUMP JUMPDEST DUP5 ADD SWAP2 POP POP SWAP3 SWAP2 POP POP JUMP JUMPDEST PUSH1 0x0 PUSH2 0x24DB DUP3 PUSH2 0x28CC JUMP JUMPDEST PUSH2 0x24E5 DUP2 DUP6 PUSH2 0x2917 JUMP JUMPDEST SWAP4 POP PUSH2 0x24F5 DUP2 DUP6 PUSH1 0x20 DUP7 ADD PUSH2 0x2A10 JUMP JUMPDEST DUP1 DUP5 ADD SWAP2 POP POP SWAP3 SWAP2 POP POP JUMP JUMPDEST PUSH1 0x0 PUSH2 0x250E PUSH1 0x26 DUP4 PUSH2 0x2906 JUMP JUMPDEST SWAP2 POP PUSH2 0x2519 DUP3 PUSH2 0x2BFA JUMP JUMPDEST PUSH1 0x40 DUP3 ADD SWAP1 POP SWAP2 SWAP1 POP JUMP JUMPDEST PUSH1 0x0 PUSH2 0x2531 PUSH1 0x32 DUP4 PUSH2 0x2906 JUMP JUMPDEST SWAP2 POP PUSH2 0x253C DUP3 PUSH2 0x2C49 JUMP JUMPDEST PUSH1 0x40 DUP3 ADD SWAP1 POP SWAP2 SWAP1 POP JUMP JUMPDEST PUSH1 0x0 PUSH2 0x2554 PUSH1 0x44 DUP4 PUSH2 0x2906 JUMP JUMPDEST SWAP2 POP PUSH2 0x255F DUP3 PUSH2 0x2C98 JUMP JUMPDEST PUSH1 0x60 DUP3 ADD SWAP1 POP SWAP2 SWAP1 POP JUMP JUMPDEST PUSH1 0x0 PUSH2 0x2577 PUSH1 0x16 DUP4 PUSH2 0x2906 JUMP JUMPDEST SWAP2 POP PUSH2 0x2582 DUP3 PUSH2 0x2D0D JUMP JUMPDEST PUSH1 0x20 DUP3 ADD SWAP1 POP SWAP2 SWAP1 POP JUMP JUMPDEST PUSH1 0x0 PUSH2 0x259A PUSH1 0x20 DUP4 PUSH2 0x2906 JUMP JUMPDEST SWAP2 POP PUSH2 0x25A5 DUP3 PUSH2 0x2D36 JUMP JUMPDEST PUSH1 0x20 DUP3 ADD SWAP1 POP SWAP2 SWAP1 POP JUMP JUMPDEST PUSH1 0x0 PUSH2 0x25BD PUSH1 0x27 DUP4 PUSH2 0x2906 JUMP JUMPDEST SWAP2 POP PUSH2 0x25C8 DUP3 PUSH2 0x2D5F JUMP JUMPDEST PUSH1 0x40 DUP3 ADD SWAP1 POP SWAP2 SWAP1 POP JUMP JUMPDEST PUSH1 0x0 PUSH2 0x25E0 PUSH1 0x3D DUP4 PUSH2 0x2906 JUMP JUMPDEST SWAP2 POP PUSH2 0x25EB DUP3 PUSH2 0x2DAE JUMP JUMPDEST PUSH1 0x40 DUP3 ADD SWAP1 POP SWAP2 SWAP1 POP JUMP JUMPDEST PUSH1 0x0 PUSH1 0xE0 DUP4 ADD PUSH1 0x0 DUP4 ADD MLOAD PUSH2 0x260E PUSH1 0x0 DUP7 ADD DUP3 PUSH2 0x2699 JUMP JUMPDEST POP PUSH1 0x20 DUP4 ADD MLOAD PUSH2 0x2621 PUSH1 0x20 DUP7 ADD DUP3 PUSH2 0x2404 JUMP JUMPDEST POP PUSH1 0x40 DUP4 ADD MLOAD PUSH2 0x2634 PUSH1 0x40 DUP7 ADD DUP3 PUSH2 0x2404 JUMP JUMPDEST POP PUSH1 0x60 DUP4 ADD MLOAD DUP5 DUP3 SUB PUSH1 0x60 DUP7 ADD MSTORE PUSH2 0x264C DUP3 DUP3 PUSH2 0x2497 JUMP JUMPDEST SWAP2 POP POP PUSH1 0x80 DUP4 ADD MLOAD DUP5 DUP3 SUB PUSH1 0x80 DUP7 ADD MSTORE PUSH2 0x2666 DUP3 DUP3 PUSH2 0x2497 JUMP JUMPDEST SWAP2 POP POP PUSH1 0xA0 DUP4 ADD MLOAD PUSH2 0x267B PUSH1 0xA0 DUP7 ADD DUP3 PUSH2 0x26B7 JUMP JUMPDEST POP PUSH1 0xC0 DUP4 ADD MLOAD PUSH2 0x268E PUSH1 0xC0 DUP7 ADD DUP3 PUSH2 0x26B7 JUMP JUMPDEST POP DUP1 SWAP2 POP POP SWAP3 SWAP2 POP POP JUMP JUMPDEST PUSH2 0x26A2 DUP2 PUSH2 0x29EA JUMP JUMPDEST DUP3 MSTORE POP POP JUMP JUMPDEST PUSH2 0x26B1 DUP2 PUSH2 0x29EA JUMP JUMPDEST DUP3 MSTORE POP POP JUMP JUMPDEST PUSH2 0x26C0 DUP2 PUSH2 0x29F4 JUMP JUMPDEST DUP3 MSTORE POP POP JUMP JUMPDEST PUSH2 0x26CF DUP2 PUSH2 0x29F4 JUMP JUMPDEST DUP3 MSTORE POP POP JUMP JUMPDEST PUSH1 0x0 PUSH2 0x26E1 DUP3 DUP5 PUSH2 0x24D0 JUMP JUMPDEST SWAP2 POP DUP2 SWAP1 POP SWAP3 SWAP2 POP POP JUMP JUMPDEST PUSH1 0x0 PUSH1 0x20 DUP3 ADD SWAP1 POP PUSH2 0x2701 PUSH1 0x0 DUP4 ADD DUP5 PUSH2 0x2413 JUMP JUMPDEST SWAP3 SWAP2 POP POP JUMP JUMPDEST PUSH1 0x0 PUSH1 0x20 DUP3 ADD SWAP1 POP DUP2 DUP2 SUB PUSH1 0x0 DUP4 ADD MSTORE PUSH2 0x2721 DUP2 DUP5 PUSH2 0x2422 JUMP JUMPDEST SWAP1 POP SWAP3 SWAP2 POP POP JUMP JUMPDEST PUSH1 0x0 PUSH1 0x20 DUP3 ADD SWAP1 POP DUP2 DUP2 SUB PUSH1 0x0 DUP4 ADD MSTORE PUSH2 0x2742 DUP2 PUSH2 0x2501 JUMP JUMPDEST SWAP1 POP SWAP2 SWAP1 POP JUMP JUMPDEST PUSH1 0x0 PUSH1 0x20 DUP3 ADD SWAP1 POP DUP2 DUP2 SUB PUSH1 0x0 DUP4 ADD MSTORE PUSH2 0x2762 DUP2 PUSH2 0x2524 JUMP JUMPDEST SWAP1 POP SWAP2 SWAP1 POP JUMP JUMPDEST PUSH1 0x0 PUSH1 0x20 DUP3 ADD SWAP1 POP DUP2 DUP2 SUB PUSH1 0x0 DUP4 ADD MSTORE PUSH2 0x2782 DUP2 PUSH2 0x2547 JUMP JUMPDEST SWAP1 POP SWAP2 SWAP1 POP JUMP JUMPDEST PUSH1 0x0 PUSH1 0x20 DUP3 ADD SWAP1 POP DUP2 DUP2 SUB PUSH1 0x0 DUP4 ADD MSTORE PUSH2 0x27A2 DUP2 PUSH2 0x256A JUMP JUMPDEST SWAP1 POP SWAP2 SWAP1 POP JUMP JUMPDEST PUSH1 0x0 PUSH1 0x20 DUP3 ADD SWAP1 POP DUP2 DUP2 SUB PUSH1 0x0 DUP4 ADD MSTORE PUSH2 0x27C2 DUP2 PUSH2 0x258D JUMP JUMPDEST SWAP1 POP SWAP2 SWAP1 POP JUMP JUMPDEST PUSH1 0x0 PUSH1 0x20 DUP3 ADD SWAP1 POP DUP2 DUP2 SUB PUSH1 0x0 DUP4 ADD MSTORE PUSH2 0x27E2 DUP2 PUSH2 0x25B0 JUMP JUMPDEST SWAP1 POP SWAP2 SWAP1 POP JUMP JUMPDEST PUSH1 0x0 PUSH1 0x20 DUP3 ADD SWAP1 POP DUP2 DUP2 SUB PUSH1 0x0 DUP4 ADD MSTORE PUSH2 0x2802 DUP2 PUSH2 0x25D3 JUMP JUMPDEST SWAP1 POP SWAP2 SWAP1 POP JUMP JUMPDEST PUSH1 0x0 PUSH1 0x20 DUP3 ADD SWAP1 POP PUSH2 0x281E PUSH1 0x0 DUP4 ADD DUP5 PUSH2 0x26A8 JUMP JUMPDEST SWAP3 SWAP2 POP POP JUMP JUMPDEST PUSH1 0x0 PUSH1 0x60 DUP3 ADD SWAP1 POP PUSH2 0x2839 PUSH1 0x0 DUP4 ADD DUP7 PUSH2 0x26A8 JUMP JUMPDEST PUSH2 0x2846 PUSH1 0x20 DUP4 ADD DUP6 PUSH2 0x26C6 JUMP JUMPDEST PUSH2 0x2853 PUSH1 0x40 DUP4 ADD DUP5 PUSH2 0x26C6 JUMP JUMPDEST SWAP5 SWAP4 POP POP POP POP JUMP JUMPDEST PUSH1 0x0 PUSH2 0x2865 PUSH2 0x2876 JUMP JUMPDEST SWAP1 POP PUSH2 0x2871 DUP3 DUP3 PUSH2 0x2A9F JUMP JUMPDEST SWAP2 SWAP1 POP JUMP JUMPDEST PUSH1 0x0 PUSH1 0x40 MLOAD SWAP1 POP SWAP1 JUMP JUMPDEST PUSH1 0x0 PUSH8 0xFFFFFFFFFFFFFFFF DUP3 GT ISZERO PUSH2 0x289B JUMPI PUSH2 0x289A PUSH2 0x2BA6 JUMP JUMPDEST JUMPDEST PUSH2 0x28A4 DUP3 PUSH2 0x2BE9 JUMP JUMPDEST SWAP1 POP PUSH1 0x20 DUP2 ADD SWAP1 POP SWAP2 SWAP1 POP JUMP JUMPDEST PUSH1 0x0 DUP2 SWAP1 POP PUSH1 0x20 DUP3 ADD SWAP1 POP SWAP2 SWAP1 POP JUMP JUMPDEST PUSH1 0x0 DUP2 MLOAD SWAP1 POP SWAP2 SWAP1 POP JUMP JUMPDEST PUSH1 0x0 DUP2 MLOAD SWAP1 POP SWAP2 SWAP1 POP JUMP JUMPDEST PUSH1 0x0 PUSH1 0x20 DUP3 ADD SWAP1 POP SWAP2 SWAP1 POP JUMP JUMPDEST PUSH1 0x0 DUP3 DUP3 MSTORE PUSH1 0x20 DUP3 ADD SWAP1 POP SWAP3 SWAP2 POP POP JUMP JUMPDEST PUSH1 0x0 DUP3 DUP3 MSTORE PUSH1 0x20 DUP3 ADD SWAP1 POP SWAP3 SWAP2 POP POP JUMP JUMPDEST PUSH1 0x0 DUP3 DUP3 MSTORE PUSH1 0x20 DUP3 ADD SWAP1 POP SWAP3 SWAP2 POP POP JUMP JUMPDEST PUSH1 0x0 DUP2 SWAP1 POP SWAP3 SWAP2 POP POP JUMP JUMPDEST PUSH1 0x0 PUSH2 0x292D DUP3 PUSH2 0x29EA JUMP JUMPDEST SWAP2 POP PUSH2 0x2938 DUP4 PUSH2 0x29EA JUMP JUMPDEST SWAP3 POP DUP3 PUSH32 0xFFFFFFFFFFFFFFFFFFFFFFFFFFFFFFFFFFFFFFFFFFFFFFFFFFFFFFFFFFFFFFFF SUB DUP3 GT ISZERO PUSH2 0x296D JUMPI PUSH2 0x296C PUSH2 0x2B19 JUMP JUMPDEST JUMPDEST DUP3 DUP3 ADD SWAP1 POP SWAP3 SWAP2 POP POP JUMP JUMPDEST PUSH1 0x0 PUSH2 0x2983 DUP3 PUSH2 0x29EA JUMP JUMPDEST SWAP2 POP PUSH2 0x298E DUP4 PUSH2 0x29EA JUMP JUMPDEST SWAP3 POP DUP3 DUP3 LT ISZERO PUSH2 0x29A1 JUMPI PUSH2 0x29A0 PUSH2 0x2B19 JUMP JUMPDEST JUMPDEST DUP3 DUP3 SUB SWAP1 POP SWAP3 SWAP2 POP POP JUMP JUMPDEST PUSH1 0x0 PUSH2 0x29B7 DUP3 PUSH2 0x29CA JUMP JUMPDEST SWAP1 POP SWAP2 SWAP1 POP JUMP JUMPDEST PUSH1 0x0 DUP2 ISZERO ISZERO SWAP1 POP SWAP2 SWAP1 POP JUMP JUMPDEST PUSH1 0x0 PUSH20 0xFFFFFFFFFFFFFFFFFFFFFFFFFFFFFFFFFFFFFFFF DUP3 AND SWAP1 POP SWAP2 SWAP1 POP JUMP JUMPDEST PUSH1 0x0 DUP2 SWAP1 POP SWAP2 SWAP1 POP JUMP JUMPDEST PUSH1 0x0 PUSH1 0xFF DUP3 AND SWAP1 POP SWAP2 SWAP1 POP JUMP JUMPDEST DUP3 DUP2 DUP4 CALLDATACOPY PUSH1 0x0 DUP4 DUP4 ADD MSTORE POP POP POP JUMP JUMPDEST PUSH1 0x0 JUMPDEST DUP4 DUP2 LT ISZERO PUSH2 0x2A2E JUMPI DUP1 DUP3 ADD MLOAD DUP2 DUP5 ADD MSTORE PUSH1 0x20 DUP2 ADD SWAP1 POP PUSH2 0x2A13 JUMP JUMPDEST DUP4 DUP2 GT ISZERO PUSH2 0x2A3D JUMPI PUSH1 0x0 DUP5 DUP5 ADD MSTORE JUMPDEST POP POP POP POP JUMP JUMPDEST PUSH1 0x0 PUSH2 0x2A4E DUP3 PUSH2 0x29EA JUMP JUMPDEST SWAP2 POP PUSH1 0x0 DUP3 EQ ISZERO PUSH2 0x2A62 JUMPI PUSH2 0x2A61 PUSH2 0x2B19 JUMP JUMPDEST JUMPDEST PUSH1 0x1 DUP3 SUB SWAP1 POP SWAP2 SWAP1 POP JUMP JUMPDEST PUSH1 0x0 PUSH1 0x2 DUP3 DIV SWAP1 POP PUSH1 0x1 DUP3 AND DUP1 PUSH2 0x2A85 JUMPI PUSH1 0x7F DUP3 AND SWAP2 POP JUMPDEST PUSH1 0x20 DUP3 LT DUP2 EQ ISZERO PUSH2 0x2A99 JUMPI PUSH2 0x2A98 PUSH2 0x2B48 JUMP JUMPDEST JUMPDEST POP SWAP2 SWAP1 POP JUMP JUMPDEST PUSH2 0x2AA8 DUP3 PUSH2 0x2BE9 JUMP JUMPDEST DUP2 ADD DUP2 DUP2 LT PUSH8 0xFFFFFFFFFFFFFFFF DUP3 GT OR ISZERO PUSH2 0x2AC7 JUMPI PUSH2 0x2AC6 PUSH2 0x2BA6 JUMP JUMPDEST JUMPDEST DUP1 PUSH1 0x40 MSTORE POP POP POP JUMP JUMPDEST PUSH1 0x0 PUSH2 0x2ADB DUP3 PUSH2 0x29EA JUMP JUMPDEST SWAP2 POP PUSH32 0xFFFFFFFFFFFFFFFFFFFFFFFFFFFFFFFFFFFFFFFFFFFFFFFFFFFFFFFFFFFFFFFF DUP3 EQ ISZERO PUSH2 0x2B0E JUMPI PUSH2 0x2B0D PUSH2 0x2B19 JUMP JUMPDEST JUMPDEST PUSH1 0x1 DUP3 ADD SWAP1 POP SWAP2 SWAP1 POP JUMP JUMPDEST PUSH32 0x4E487B7100000000000000000000000000000000000000000000000000000000 PUSH1 0x0 MSTORE PUSH1 0x11 PUSH1 0x4 MSTORE PUSH1 0x24 PUSH1 0x0 REVERT JUMPDEST PUSH32 0x4E487B7100000000000000000000000000000000000000000000000000000000 PUSH1 0x0 MSTORE PUSH1 0x22 PUSH1 0x4 MSTORE PUSH1 0x24 PUSH1 0x0 REVERT JUMPDEST PUSH32 0x4E487B7100000000000000000000000000000000000000000000000000000000 PUSH1 0x0 MSTORE PUSH1 0x32 PUSH1 0x4 MSTORE PUSH1 0x24 PUSH1 0x0 REVERT JUMPDEST PUSH32 0x4E487B7100000000000000000000000000000000000000000000000000000000 PUSH1 0x0 MSTORE PUSH1 0x41 PUSH1 0x4 MSTORE PUSH1 0x24 PUSH1 0x0 REVERT JUMPDEST PUSH1 0x0 DUP1 REVERT JUMPDEST PUSH1 0x0 DUP1 REVERT JUMPDEST PUSH1 0x0 DUP1 REVERT JUMPDEST PUSH1 0x0 DUP1 REVERT JUMPDEST PUSH1 0x0 PUSH1 0x1F NOT PUSH1 0x1F DUP4 ADD AND SWAP1 POP SWAP2 SWAP1 POP JUMP JUMPDEST PUSH32 0x4F776E61626C653A206E6577206F776E657220697320746865207A65726F2061 PUSH1 0x0 DUP3 ADD MSTORE PUSH32 0x6464726573730000000000000000000000000000000000000000000000000000 PUSH1 0x20 DUP3 ADD MSTORE POP JUMP JUMPDEST PUSH32 0x43616E206E6F7420757064617465207472616E73616374696F6E20414D4C2073 PUSH1 0x0 DUP3 ADD MSTORE PUSH32 0x74617475733A20616C7265616479207365740000000000000000000000000000 PUSH1 0x20 DUP3 ADD MSTORE POP JUMP JUMPDEST PUSH32 0x43616E206E6F7420676574207472616E73616374696F6E73206C6973742E2054 PUSH1 0x0 DUP3 ADD MSTORE PUSH32 0x6865206D6178696D756D207472616E73616374696F6E7320636F756E74206973 PUSH1 0x20 DUP3 ADD MSTORE PUSH32 0x2031303000000000000000000000000000000000000000000000000000000000 PUSH1 0x40 DUP3 ADD MSTORE POP JUMP JUMPDEST PUSH32 0x4F6E6C7920666F7220636F6D706C6574656420414D4C00000000000000000000 PUSH1 0x0 DUP3 ADD MSTORE POP JUMP JUMPDEST PUSH32 0x4F776E61626C653A2063616C6C6572206973206E6F7420746865206F776E6572 PUSH1 0x0 DUP3 ADD MSTORE POP JUMP JUMPDEST PUSH32 0x43616E206E6F74207570646174652072656365697665722E20496E76616C6964 PUSH1 0x0 DUP3 ADD MSTORE PUSH32 0x2073656E64657200000000000000000000000000000000000000000000000000 PUSH1 0x20 DUP3 ADD MSTORE POP JUMP JUMPDEST PUSH32 0x43616E206E6F74207570646174652072656365697665722E205472616E736163 PUSH1 0x0 DUP3 ADD MSTORE PUSH32 0x74696F6E20616C726561647920686173206265656E2075706461746564000000 PUSH1 0x20 DUP3 ADD MSTORE POP JUMP JUMPDEST PUSH2 0x2E06 DUP2 PUSH2 0x29AC JUMP JUMPDEST DUP2 EQ PUSH2 0x2E11 JUMPI PUSH1 0x0 DUP1 REVERT JUMPDEST POP JUMP JUMPDEST PUSH2 0x2E1D DUP2 PUSH2 0x29BE JUMP JUMPDEST DUP2 EQ PUSH2 0x2E28 JUMPI PUSH1 0x0 DUP1 REVERT JUMPDEST POP JUMP JUMPDEST PUSH2 0x2E34 DUP2 PUSH2 0x29EA JUMP JUMPDEST DUP2 EQ PUSH2 0x2E3F JUMPI PUSH1 0x0 DUP1 REVERT JUMPDEST POP JUMP JUMPDEST PUSH2 0x2E4B DUP2 PUSH2 0x29F4 JUMP JUMPDEST DUP2 EQ PUSH2 0x2E56 JUMPI PUSH1 0x0 DUP1 REVERT JUMPDEST POP JUMP INVALID LOG2 PUSH5 0x6970667358 0x22 SLT KECCAK256 0xBE PUSH28 0xE2AA2093781F2AE072416B29252ED8B88164643C0ACC9E69F11B33E3 0xE3 SMOD PUSH5 0x736F6C6343 STOP ADDMOD SMOD STOP CALLER "
				},
				"gasEstimates": {
					"creation": {
						"codeDepositCost": "2383800",
						"executionCost": "infinite",
						"totalCost": "infinite"
					},
					"external": {
						"addTransaction(address,address,string)": "infinite",
						"getTransactions(uint256)": "infinite",
						"getTransactionsForReceiver(address,uint256)": "infinite",
						"owner()": "2633",
						"renounceOwnership()": "30443",
						"setAmlStatusForReceiver(uint256,uint8)": "infinite",
						"setAmlStatusForReceiver(uint256,uint8,bool)": "infinite",
						"setAmlStatusForSender(uint256,uint8)": "infinite",
						"setAmlStatusForSender(uint256,uint8,bool)": "infinite",
						"setTransactionAmlStatus(uint256,uint8,uint8)": "infinite",
						"transferOwnership(address)": "30857",
						"updateReceiversData(uint256,string)": "infinite"
					},
					"internal": {
						"compareStrings(string memory,string memory)": "infinite",
						"reverseTransactionArray()": "infinite"
					}
				},
				"methodIdentifiers": {
					"addTransaction(address,address,string)": "9b8570f4",
					"getTransactions(uint256)": "5742177c",
					"getTransactionsForReceiver(address,uint256)": "e32ab44b",
					"owner()": "8da5cb5b",
					"renounceOwnership()": "715018a6",
					"setAmlStatusForReceiver(uint256,uint8)": "d39d0527",
					"setAmlStatusForReceiver(uint256,uint8,bool)": "7ccc241a",
					"setAmlStatusForSender(uint256,uint8)": "87e8bd12",
					"setAmlStatusForSender(uint256,uint8,bool)": "9a238f6d",
					"setTransactionAmlStatus(uint256,uint8,uint8)": "1167372d",
					"transferOwnership(address)": "f2fde38b",
					"updateReceiversData(uint256,string)": "cf993060"
				}
			},
			"storageLayout": {
				"storage": [
					{
						"astId": 7,
						"contract": "contracts/TravelRuleProgram.sol:TravelRuleProgram",
						"label": "_owner",
						"offset": 0,
						"slot": "0",
						"type": "t_address"
					},
					{
						"astId": 221,
						"contract": "contracts/TravelRuleProgram.sol:TravelRuleProgram",
						"label": "_id",
						"offset": 0,
						"slot": "1",
						"type": "t_struct(Counter)140_storage"
					},
					{
						"astId": 225,
						"contract": "contracts/TravelRuleProgram.sol:TravelRuleProgram",
						"label": "transactions",
						"offset": 0,
						"slot": "2",
						"type": "t_array(t_struct(Transaction)240_storage)dyn_storage"
					}
				],
				"types": {
					"t_address": {
						"encoding": "inplace",
						"label": "address",
						"numberOfBytes": "20"
					},
					"t_array(t_struct(Transaction)240_storage)dyn_storage": {
						"base": "t_struct(Transaction)240_storage",
						"encoding": "dynamic_array",
						"label": "struct TravelRuleProgram.Transaction[]",
						"numberOfBytes": "32"
					},
					"t_string_storage": {
						"encoding": "bytes",
						"label": "string",
						"numberOfBytes": "32"
					},
					"t_struct(Counter)140_storage": {
						"encoding": "inplace",
						"label": "struct Counters.Counter",
						"members": [
							{
								"astId": 139,
								"contract": "contracts/TravelRuleProgram.sol:TravelRuleProgram",
								"label": "_value",
								"offset": 0,
								"slot": "0",
								"type": "t_uint256"
							}
						],
						"numberOfBytes": "32"
					},
					"t_struct(Transaction)240_storage": {
						"encoding": "inplace",
						"label": "struct TravelRuleProgram.Transaction",
						"members": [
							{
								"astId": 227,
								"contract": "contracts/TravelRuleProgram.sol:TravelRuleProgram",
								"label": "id",
								"offset": 0,
								"slot": "0",
								"type": "t_uint256"
							},
							{
								"astId": 229,
								"contract": "contracts/TravelRuleProgram.sol:TravelRuleProgram",
								"label": "from",
								"offset": 0,
								"slot": "1",
								"type": "t_address"
							},
							{
								"astId": 231,
								"contract": "contracts/TravelRuleProgram.sol:TravelRuleProgram",
								"label": "to",
								"offset": 0,
								"slot": "2",
								"type": "t_address"
							},
							{
								"astId": 233,
								"contract": "contracts/TravelRuleProgram.sol:TravelRuleProgram",
								"label": "sendersData",
								"offset": 0,
								"slot": "3",
								"type": "t_string_storage"
							},
							{
								"astId": 235,
								"contract": "contracts/TravelRuleProgram.sol:TravelRuleProgram",
								"label": "receiversData",
								"offset": 0,
								"slot": "4",
								"type": "t_string_storage"
							},
							{
								"astId": 237,
								"contract": "contracts/TravelRuleProgram.sol:TravelRuleProgram",
								"label": "amlForSender",
								"offset": 0,
								"slot": "5",
								"type": "t_uint8"
							},
							{
								"astId": 239,
								"contract": "contracts/TravelRuleProgram.sol:TravelRuleProgram",
								"label": "amlForReceiver",
								"offset": 1,
								"slot": "5",
								"type": "t_uint8"
							}
						],
						"numberOfBytes": "192"
					},
					"t_uint256": {
						"encoding": "inplace",
						"label": "uint256",
						"numberOfBytes": "32"
					},
					"t_uint8": {
						"encoding": "inplace",
						"label": "uint8",
						"numberOfBytes": "1"
					}
				}
			},
			"userdoc": {
				"kind": "user",
				"methods": {},
				"version": 1
			}
		}
	}
}